:020000022000DC
:10700000000004201DA4030045A4030047A40300BE
:1070100049A403004BA403004DA40300000000009A
:107020000000000000000000000000004FA403006A
:1070300051A4030000000000000000000000000058
:10704000DD92050053A403005DB10500B59805006D
:1070500053A403001D8F0500F58C05000D75060077
:1070600053A40300F59705000998050053A40300F5
:1070700053A4030053A4030053A4030053A4030028
:1070800011820600F564050053A4030053A4030015
:1070900053A4030053A40300956B060053A40300FC
:1070A00053A4030053A403001D9805003198050064
:1070B00053A4030053A403000000000000000000DC
:1070C00053A4030053A4030053A40300497A060009
:1070D0000D95050053A4030053A403006DAE0500F5
:1070E000E5AE060053A4030025D60600000000000C
:1070F0000000000053A4030000000000197E0600F9
:10710000000000000000000000000000000000007F
:10711000000000000000000000000000000000006F
:10712000000000000000000000000000000000005F
:10713000000000000000000000000000000000004F
:10714000000000000000000000000000000000003F
:10715000000000000000000000000000000000002F
:10716000000000000000000000000000000000001F
:10717000000000000000000000000000000000000F
:1071800000000000000000000000000000000000FF
:1071900000000000000000000000000000000000EF
:1071A00000000000000000000000000000000000DF
:1071B00000000000000000000000000000000000CF
:1071C00000000000000000000000000000000000BF
:1071D00000000000000000000000000000000000AF
:1071E000000000000000000000000000000000009F
:1071F000000000000000000000000000000000008F
:1072000010B5054C237833B9044B13B10448AFF3E0
:1072100000800123237010BDC0D4002000000000B6
:10722000F81C080008B5034B1BB103490348AFF332
:10723000008008BD00000000C4D40020F81C080035
:10724000154B002B08BF134B9D46A3F5803A002138
:107250008B460F461348144A121A10F0CDFD0F4BFF
:10726000002B00D098470E4B002B00D098470020F1
:10727000002104000D000D48002802D00C48AFF397
:10728000008010F069FD2000290010F0EFFA10F0E6
:107290004FFD00BF000008000000042000000000B7
:1072A00000000000C0D400207CC6012000000000C7
:1072B000000000000022C0E900220172704738B5CA
:1072C0000446006820B1856913F070F82846F9E794
:1072D000204638BD006820B143688B4201D08069E8
:1072E000F9E77047F8B504460F4616461D46FFF706
:1072F000F1FF20B10123826005704370F8BD1C20AE
:1073000013F058F8012343700023C0E90333C0E9A8
:10731000053323680570C0E9017613B92060606009
:10732000ECE763689861FAE72DE9F8430468164FC3
:1073300005460E464FF000081CB363680BB9A469FC
:10734000FAE72378002BFAD0E368A268F31A9A428E
:1073500002D961780029F2D09B1A636184F8018018
:10736000E66014F0D9FE63688146984714F0D4FEB5
:107370003B68A0EB0900206118442B7A3860002B91
:10738000DDD0BDE8F88300BFDCD4002008B5074B92
:1073900050B103221A700648FA22012114F019FB99
:1073A000044B00221A7008BD0522F3E7E0D4002048
:1073B00051E400202DD60020054B064800221A700B
:1073C000054B08221A700121FA2214F002BB00BFFB
:1073D0002DD6002051E40020E0D4002084B004AB7E
:1073E00003E907000B4BBDF90A201A800A4B9DF9EF
:1073F0000C201A70094A0A48136801331360094BBC
:1074000000221A70084B0121FA22197004B014F0FE
:10741000E0BA00BF10D5002012D5002028D60020E9
:1074200051E400202DD60020E0D40020124B002291
:107430001A70124B5B7A022B1DD0114B90F906206B
:107440001A70104BB0F904201A800F4A0378137099
:107450000E4A417811700E4A817811701BB10D4AA5
:107460001368013313600C4B0C4804221A7001217D
:10747000FA2214F0AEBA70472DD60020FCA20020EC
:1074800012D5002010D5002015D6002013D60020DC
:1074900014D6002024D60020E0D4002051E400209F
:1074A0002DE9F04F2DED028B00218DB0AE4E04463C
:1074B000242014F020FE0021232014F01CFE337839
:1074C0005BB1AA4B1B7843B906F0CEFBA849A9488B
:1074D00011F029FAA74806F0A1FA44B9A649A7482D
:1074E00014F042FD0DB0BDEC028BBDE8F08F2478A6
:1074F000012C40F092813378DFF8FC82A04FA14E3E
:10750000002B00F0BD80994B1D78002D40F0B88015
:107510009D49984811F007FA964909A814F0B2FB62
:1075200009AA2946284606F0BBFB09A814F064FB0B
:10753000D8F8002095498F4811F0BEF98D4909A867
:1075400014F0A0FB09AA2946204606F0A9FB09A8C9
:1075500014F052FB8E4813F06AFF4AF0E7FD80A357
:10756000D3E900234AF086FF0B4602468949814849
:1075700011F0A2F97F4909A814F084FB09AA294651
:10758000022006F08DFB09A814F036FB824813F0A8
:107590005FFF82490246774811F08EF9754909A8C4
:1075A00014F070FB09AA2946032006F079FB09A80C
:1075B00014F022FB7A4813F05CFF092800F22881BE
:1075C000DFE810F00A00C300C500C700C9001C01B5
:1075D0001E01200122012401724907A811F0A3F91C
:1075E0006F4813F046FF704B704953F820206148F4
:1075F00011F062F95F4909A814F044FB09AA40217F
:10760000032006F04DFB09A814F0F6FA684813F0C1
:1076100041FF6849421D574811F04EF9554909A8E4
:1076200014F030FB09AA4021022006F039FB09A81A
:1076300014F0E2FA3A8860494E4812B211F03CF96F
:107640004C4909A814F01EFB09AA0021042006F0E9
:1076500027FB09A814F0D0FA32785849454852B2AD
:1076600011F02AF9434909A814F00CFB09AA40219A
:10767000042006F015FB09A814F0BEFA06F02AFB58
:107680004F4B1B78002B2DD04E4B1B78002B00F05E
:10769000C18006F0EFFF4C4A4C4B1188198091785D
:1076A00099701179D9705179927919715A710122B1
:1076B0009A7147490022DA71096899604549096859
:1076C000D9601A745A74398849B29974317849B2B8
:1076D000D9749A82DA821A833F4A126812B25A83A4
:1076E00007F096FB3D49254814F03EFCD8F80020F1
:1076F0003B883178214849B21BB20091384914F0D7
:1077000047FC234813F093FE08EE100A224813F0BA
:107710009FFE0446224813F0ACFEF8EE487A054678
:1077200017EE900A4AF024FD0DA3D3E900234AF096
:10773000A1FE7D2305FB0333CDE9004302460B4642
:107740000E48284914F024FCCCE6274945E7274990
:1077500043E7274941E727493FE700BFAFF30080F0
:107760000000000080842E410DD5002058D8002054
:10777000C42B070013D50020D52B070070E3002091
:1077800010D5002012D50020E22B0700F02B0700B7
:10779000B9E4002003350700BAE40020C93F070020
:1077A000BBE40020042C070074A200203A2C070040
:1077B000BCE40020E23F0700402C0700482C0700F3
:1077C0000ED5002034DB00202CDB0020A4A10020FB
:1077D00088D800208CD8002024D600204F2C070009
:1077E0005C2C0700792C0700082C07000C2C0700E4
:1077F000102C0700142C070028D600205D49ECE669
:107800005D49EAE65D49E8E65D49E6E65D49E4E6AC
:107810005D49E2E607F0A6F83DE7032C62D1337834
:10782000002B3FF45FAE594B1E78002E7FF45AAE0A
:10783000574C657A002D41D0022D4CD04FF47A730D
:1078400062685449B2FBF3F2534811F035F85249DB
:1078500009A814F017FA09AA0021012006F020FA5D
:1078600009A814F0C9F94D4909A814F00BFA002130
:1078700009AA022006F014FA09A814F0BDF9484933
:10788000454811F050F8444909A814F0FBF909AA39
:107890000021032006F004FA09A814F0ADF93F49CD
:1078A00009A814F0EFF909AA0021042006F0F8F95C
:1078B00009A814F0A1F906F00DFA13E6394909A850
:1078C00014F0E0F909AA2946084606F0E9F909A8E2
:1078D00014F092F9B2E7344909A814F0D3F909AACF
:1078E0003146F1E7052C63D13378002B3FF4FAAD34
:1078F000264B1E78002E7FF4F5AD254C657A25B316
:10790000022D2FD04FF47A7362682249B2FBF3F252
:10791000214810F0D1FF204909A814F0B3F909AAB1
:107920000021012006F0BCF909A814F065F91B49F3
:1079300009A814F0A7F9002109AA022006F0B0F95D
:1079400009A814F059F919499AE7164909A814F039
:1079500099F909AA2946084606F0A2F909A814F0DF
:107960004BF9CFE7104909A814F08CF909AA314660
:10797000F1E700BF192C07001F2C0700252C07007A
:107980002B2C0700312C0700362C070058D800207C
:10799000FCA20020AF2C070013D50020BBDE07009F
:1079A000C22C07008E2C07009D2C0700CE2C070050
:1079B000042C40F0FF813378DFF808A3A54DDFF8F1
:1079C0000893A54EDFF804B3002B00F0A480A34B6E
:1079D0001F78002F40F09F80A14B3178A14AA24828
:1079E000002918BF1A46A14910F066FF9E4909A850
:1079F00014F048F909AA3946384606F051F909A8A1
:107A000014F0FAF8327802F0FF08002A40F0DD8026
:107A10009BF800209649944810F04EFF924909A81F
:107A200014F030F909AA4146012006F039F909A8F5
:107A300014F0E2F8DAF800208E498B4810F03CFF91
:107A4000894909A814F01EF909AA4146022006F046
:107A500027F909A814F0D0F8874B88491A6882489A
:107A600010F02AFF804909A814F00CF909AA402156
:107A7000022006F015F909A814F0BEF8804B8149E0
:107A80001A78794810F018FF774909A814F0FAF825
:107A900009AA4146032006F003F909A814F0ACF83E
:107AA000794813F02DFE794902466F4810F004FF23
:107AB0006D4909A814F0E6F809AA4021032006F050
:107AC000EFF809A814F098F82A887149664812B2AC
:107AD00010F0F2FE644909A814F0D4F809AA41464E
:107AE000204606F0DDF809A814F086F899F8002081
:107AF00068495D4852B210F0DFFE5B4909A814F0F6
:107B0000C1F8204609AA402106F0CAF809A814F0D5
:107B100073F806F0DFF8604B1B78002B36D05F4B14
:107B20001B78002B00F01B8106F0A4FD5C4A5D4B26
:107B300011881980917899701179D9705179927959
:107B400019715A714E4900229A710978C9B2D971D6
:107B500055490968996055490968D960298849B229
:107B60001974298849B25974298849B2997499F8C5
:107B7000001049B2D9749A82DA829BF800201A83E5
:107B80003D4A126812B25A8307F042F93178344BF9
:107B9000344A4748002918BF1A46464914F0F8F9F4
:107BA000DAF800202B8899F80010414849B200917A
:107BB0001BB2414914F0ECF9314B40491A783C486A
:107BC0009BF8003014F0E4F98CE4DAF8002029493D
:107BD000254810F071FE244909A814F053F809AAA9
:107BE0003946012006F05CF809A814F005F8224B8C
:107BF00022491A681C4810F05FFE1B4909A814F0BE
:107C000041F809AA4021012006F04AF809A813F01A
:107C1000F3FF32782A49144810F04EFE124909A8A1
:107C200014F030F809AA3946022006F039F809A8FC
:107C300013F0E2FF3378013B0F2B00F28E80DFE878
:107C400003F0476E70727476787A7C7E80828486C8
:107C5000888A00BF10D5002015D6002058D80020F3
:107C6000C02B0700C12B070013D50020E42C070010
:107C7000F52C0700082D070024D60020102D070042
:107C800014D60020182D070098E40020152E0700B8
:107C9000402C0700482C07000ED5002034DB0020C4
:107CA0002CDB0020A4A1002088D800208CD8002044
:107CB00070E300201B2E07005C2C07002A2E070013
:107CC000212D070028D6002012D5002013D6002031
:107CD0002449254810F027FE234909A813F0D2FFB4
:107CE00009AA0021032005F0DBFF09A813F084FF97
:107CF0001E4813F005FD1E4902461B4810F0DCFD2E
:107D0000194909A813F0BEFF09AA0021042005F0B3
:107D1000C7FF09A813F070FF05F0DCFFF9E615496D
:107D2000D7E71549D5E71549D3E71549D1E71549EF
:107D3000CFE71549CDE71549CBE71549C9E71549FF
:107D4000C7E71549C5E71549C3E71549C1E715490F
:107D5000BFE71549BDE71549BBE71549B9E706F087
:107D600001FEE3E6362D070013D5002098E400203D
:107D7000122E0700442D07004F2D07005B2D070032
:107D8000672D0700712D0700C22C07007B2D07000F
:107D90008F2D0700A22D0700B22D0700BF2D070071
:107DA000C92D0700D92D0700E72D0700F32D070087
:107DB000042E0700A24B1B78062B40F0A181A14B9B
:107DC000A149DD781C7993F801809F7893F905B07B
:107DD0009E48C5EB451205EB8205A8F1C808C4EB27
:107DE0004412C83F04EB82041FFA88F85A790292C1
:107DF000BFB25A466D0064000FFA88FA0FFA87F98D
:107E000014F0C6F82DB2924990484B46524624B21F
:107E100014F0BEF823468F498C482A4614F0B8F86F
:107E20003378002B00F0D0808B4B1E78002E40F072
:107E3000CB8005F019FF894805F0F0FD884B894992
:107E40001A78894B89481B8852B21BB210F034FD56
:107E5000864909A813F016FF09AA3146304605F0F5
:107E60001FFF09A813F0C8FE5A4681497F4810F049
:107E700023FD7E4909A813F005FF09AA3146012018
:107E800005F00EFF09A813F0B7FE7A4909A813F010
:107E9000F9FE09AA3221012005F002FF09A813F01A
:107EA000ABFE754909A813F0EDFE09AA5021012087
:107EB00005F0F6FE09A813F09FFE704909A813F01B
:107EC000E1FE09AA3146022005F0EAFE09A813F0F6
:107ED00093FE6B4909A813F0D5FE09AA3146032089
:107EE00005F0DEFE09A813F087FE524665495F489B
:107EF00010F0E2FC5D4909A813F0C4FE09AA322182
:107F0000022005F0CDFE09A813F076FE4A465D4931
:107F1000564810F0D1FC554909A813F0B3FE09AA40
:107F20003221032005F0BCFE09A813F065FE564B74
:107F300093F80B90B9F1000F00F0B8802A46514930
:107F40004A4810F0B9FC494909A813F09BFE09AA58
:107F50005021022005F0A4FE09A813F04DFE224690
:107F60004849424810F0A8FC404909A813F08AFE8D
:107F700009AA5021032005F093FE09A813F03CFE46
:107F8000424B1868424BD3F800904AF0F1F8024691
:107F90000B464846CDE904234AF0EAF8DDE904231C
:107FA000CDE900013B49314810F086FC2F4909A872
:107FB00013F068FE09AA3146042005F071FE09A8F5
:107FC00013F01AFE05F086FE334B1B78002B3FF4AE
:107FD00089AA324B1B78002B00F08F8006F04AFBF9
:107FE0002F4A304B11881980917899701179D97086
:107FF0005179927919715A7102229A71029ADA7141
:10800000224A12689A60224A1268DA604FFA88F8A7
:10801000154A83F810807FB25F74128852B29A7446
:108020000F4A127852B2DA749D820022DC821A83DF
:108030001D4A126812B25A8306F0EAFEFFF752BADE
:10804000E0D40020E1D40020442E070070E300209B
:10805000632E07007D2E070058D800209B2E0700B6
:1080600012D50020AB2E070010D5002013D500201C
:10807000C22E0700F68A0700CD2E0700D62E070075
:10808000DA2E0700052D0700FCA2002088D800206A
:108090008CD80020DE2E07000ED5002034DB002017
:1080A0002CDB0020A4A1002024D600205E495F48DC
:1080B00010F039FC5D4909A813F0E4FD09AA50212C
:1080C000022005F0EDFD09A813F096FD574909A817
:1080D00013F0D8FD09AA5021032005F0E1FD09A8FD
:1080E00013F08AFD5249514810F01DFC4F4909A870
:1080F00013F0C8FD09AA49465EE706F033FC6FE7B6
:10810000072B6CD14B494C4813F042FF3378002BBE
:108110003BD04A4B1C78002C37D105F0A5FD4848D0
:1081200005F07CFC4749414810F0FDFB3F4909A898
:1081300013F0A8FD09AA2146204605F0B1FD09A8C3
:1081400013F05AFD404B1868404B1D684AF010F878
:1081500002460B462846CDE902234AF009F8DDE93C
:108160000223CDE900013A49304810F0A5FB2F4920
:1081700009A813F087FD09AA2146042005F090FD07
:1081800009A813F039FD05F0A5FD324B1B78002B33
:108190003FF4A8A9304B1B78F3B106F06BFA2F4AD5
:1081A0002F4B11881980917899701179D970517974
:1081B000927919715A7102229A7123490022DA7157
:1081C0000968996021490968D9601A745A749A74C7
:1081D000DA749A82DA822AE706F0C4FBDFE7082B1A
:1081E0007FF480A91F49144813F0D2FE1E4B0022D1
:1081F0001A703378002B3FF475A9104B1B78002BB5
:108200007FF470A905F030FD184805F007FC184907
:10821000064810F088FB054909A813F033FD00213A
:1082200009AA0846FFF742BBF32E070013D500202A
:10823000EA2E0700F62E070070E3002058D8002031
:108240009B2E0700152F070088D800208CD800200F
:10825000DE2E07000ED5002034DB00202CDB0020B2
:10826000A4A100202A2F07002DD60020C42B070030
:10827000412F070010B5044607F020F9204610BD35
:1082800008B5064B1B783BB113F041FFBDE8084031
:1082900001460348FFF748B808BD00BF59D8002081
:1082A00018D600201F4B07B501221F481A7013F083
:1082B0003CF918B11D48002113F001F91C4813F0D6
:1082C00085FA1C491C4813F093F91C491A4813F00D
:1082D0009FF91B49184813F093F91A49164813F0EF
:1082E0009FF91949144813F0A3F90021174813F016
:1082F000DDF90021164813F047FA322301220093DA
:108300000D480A23114613F032F9124BDB7A33B1D0
:108310000121222003B05DF804EB13F0ECBE03B0A2
:108320005DF804FBA1A10020C4E40020AEE400201D
:10833000ADE400208189020089E40020998A0200CE
:108340008D7302002D7402004D8B020091E4002019
:10835000ABE40020FCA2002010B50B4C002120460D
:10836000FEF7A8FF2046094C094A0A490FF0C8FC4D
:10837000FF21204607F096F82046054A0649BDE849
:1083800010400FF0BDBC00BF18D6002004D500205F
:1083900090A10020BF72020075820200F0B57D4DF1
:1083A0007D4C7E4F01232B70637A022B85B040F009
:1083B00025817B4807F089F8E37A002B00F0AE8036
:1083C0003B78784F397800297ED153B1764B1B78B2
:1083D0003BB905F049FC754805F020FB744805F0F1
:1083E000E5FB04F0A1FD0646002851D0714B1B7837
:1083F000F3B9714A7149724813F0CAFD7149704866
:1084000013F0C6FD70496E4813F0C2FD6C4812F0BF
:1084100095FF6C496D4813F0BBFD6B496B4813F039
:10842000B7FD64201DF028FC6948012113F0BBF959
:108430005B4807F04DF80390594807F04BF80123CB
:108440000721CDE9003102460399624813F0AAF8EA
:108450000446D8B9584A5949594813F099FD5E491C
:10846000574813F095FD5849554813F091FD54486D
:1084700012F064FF5849554813F08AFD5249534899
:1084800013F086FD64201DF0F7FB2C7005B0F0BDE5
:10849000012343483B7007F018F8504B50481E80AA
:1084A00041F288326368B3FBF2F34E4A13804E4BBD
:1084B0001E704E4B40F6C4121E700321334605B0A9
:1084C000BDE8F04013F085BA53B1374B1B783BB988
:1084D00005F0CAFB354805F0A1FA454805F066FBF2
:1084E000354A3649364813F053FD4249344813F0B3
:1084F0004FFD3549324813F04BFD314812F01EFF55
:108500003C49324813F044FD2F49304813F040FDF8
:10851000642005B0BDE8F0401DF0AEBB3B7853B120
:10852000214B1B783BB905F09FFB204805F076FAFC
:10853000314805F03BFB002300931A4619461848C2
:10854000B7EE000A06F0E4FE1A4B1B78002B7FF40E
:108550006FAF01211E4813F026F9174A1749184832
:1085600013F016FD1749164813F012FD164914486A
:1085700013F00EFD124812F0E1FE1249134813F0F9
:1085800007FD1149114813F003FD64201DF074FB31
:108590004EE700BF2DD60020FCA200200DD5002004
:1085A00004D500200CD5002058D80020512F0700FA
:1085B000622F07002CD600207D2F0700812F070097
:1085C00070E30020872F0700487A0700D4E30020DB
:1085D000ACE4002089E40020942F070078D8002024
:1085E00051E400207AD80020A8D80020A9D8002083
:1085F000B02F0700C42F0700D82F07003B784BB1DE
:10860000A24B1E7836B905F02FFBA14805F006FAFB
:10861000A04B1E70E37A13B104F086FC20B99E4A89
:10862000002313609D4A13609D4813F0CBF8002887
:1086300000F068819B4813F04FF8002800F0138188
:108640000121242013F057FD974A9849984813F0C8
:108650009FFC9849964813F09BFC9749944813F067
:1086600097FC934812F06AFE9249944813F090FCEC
:108670009149924813F08CFC64201DF0FDFA90485B
:1086800005F094FA8F4813F05FF8B4F88E1080B2BA
:1086900004F0BEFA85498C4A0646854813F078FCFA
:1086A000B4F88E208948039213F02AF83346039ACF
:1086B000874900907E4813F06BFC7F497C4813F09B
:1086C00067FC7B4812F03AFEB4F88E207F48039294
:1086D00013F016F8039A7E4900903346774813F05A
:1086E00057FC7549754813F053FC64201DF0C4FA1B
:1086F000764813F005F8B0425DD3734A6B496C4875
:1087000013F046FC73496A4813F042FC6A49684812
:1087100013F03EFC664812F011FE6E49674813F0F4
:1087200037FC6549654813F033FC64201DF0A4FA5A
:10873000694B1B78F3B95C4A5C495D4813F028FC2F
:1087400066495B4813F024FC5B49594813F020FC50
:10875000574812F0F3FD6149584813F019FC564987
:10876000564813F015FC64201DF086FA5C48012180
:1087700013F019F801230722CDE9003259485A4A6B
:1087800094F88E10022312F00DFF00287FF47EAEC5
:10879000454A46492870464813F0FAFB5349444875
:1087A00013F0F6FB4449424813F0F2FB404812F044
:1087B000C5FD4E49A5E63146444812F0A3FF4FF4EB
:1087C000FA701DF059FA404A3849394813F0E0FB75
:1087D0003E4812F095FF46490246354813F0D8FB53
:1087E0003549334813F0D4FB314812F0A7FD374820
:1087F00012F086FF3E490246304813F0C9FB2E496D
:108800002E4813F0C5FB64201DF036FA3B786BB19F
:108810001E4B1B7853B9374805F0C8F9364937481D
:10882000324610F049F8354805F0C0F9264A1F498C
:108830001F4813F0ADFB254812F062FF2C49024699
:108840001B4813F0A5FB1C49194813F0A1FB18485D
:1088500012F074FD1D4812F053FF254902461748D7
:1088600013F096FB5DE7104A10492870104813F08A
:108870008FFB23490E4813F08BFB0F490C4813F074
:1088800087FB0B4812F05AFD1D493AE658D80020E4
:10889000C42B070001D500208CD8002088D80020E8
:1088A000ADE4002094E400207D2F0700812F070015
:1088B00070E30020E42F0700487A0700D4E300208B
:1088C000F02F0700AAE40020FE2F070098E4002004
:1088D00005300700393007002CD60020872F07000D
:1088E000ACE4002089E4002008A30020942F0700B6
:1088F00069300700803007009230070013D5002050
:108900009B3007000121232013F0F5FB134A144983
:10891000144813F03DFB1449124813F039FB134976
:10892000104813F035FB0F4812F008FD0E491048AF
:1089300013F02EFB0D490E4813F02AFB64201DF0A6
:108940009BF90C4805F032F901230B4A94F88E107C
:108950000A4812F0D2FD01232B7097E57D2F070006
:10896000812F070070E30020B9300700487A070024
:10897000D4E30020F02F070008A30020AEE400207D
:1089800070B5344BB0F90A201A80334B90F90C20A3
:108990001A70324B42781A70314A136801331360EF
:1089A000304B00221A7003780446E3B92E4A2F494F
:1089B0002F4813F0EDFA2F492D4813F0E9FA2E490C
:1089C0002B4813F0E5FA2A4812F0B8FC29492B4845
:1089D00013F0DEFA2849294813F0DAFABDE87040AE
:1089E00064201DF049B9264A527A022A28D1022B66
:1089F0000FD1244D027A4168234806232B700FF0D3
:108A0000EDF92B46FA220121BDE870401F4812F013
:108A1000E0BF154A1549164813F0BAFA22781C49E6
:108A2000134813F0B5FA1449114813F0B1FA10487D
:108A300012F084FC22781649104813F0A9FAC9E70D
:108A4000144B1B7823B90F4B01211970FA22DBE775
:108A500070BD00BF10D5002012D500200FD500201A
:108A600028D600202DD60020C9300700812F07000E
:108A700070E30020CF300700487A0700D4E30020DD
:108A8000FCA20020E0D40020E1D4002051E400202A
:108A9000D7300700C0A1002070B50446002839D0A7
:108AA0001D4B1E4A1E491F4800251D7013F070FA09
:108AB0002A461D491B4813F06BFA1C49194813F04C
:108AC00067FA184812F03AFC2A461749184813F07A
:108AD0005FFA1649164813F05BFA64201DF0CCF8D3
:108AE000144B1C60144B5B7A022B09D1134B0722E9
:108AF0001A70BDE870401248FA22012112F069BFD5
:108B0000104B1B7833B9104A1368013313600B4BB9
:108B10000222EDE770BD00BF2DD600207D2F07009B
:108B2000812F070070E30020E6300700487A070035
:108B3000D4E3002030D60020FCA20020E0D40020A6
:108B400051E40020C0A1002024D6002030B5504AB6
:108B50005049514D99B00446504813F019FA224635
:108B60004F494E4813F014FA4E494C4813F010FA8E
:108B70004A4812F0E3FB224649494B4813F008FAF1
:108B80004849494813F004FA64201DF075F8297823
:108B900000297AD101231A2208A82B7007910FF01F
:108BA0002BF905A82BF03AFC0598404C00F5E04065
:108BB0000FA96E302BF0A6FC149B3D4903F26C7399
:108BC0000393129B0293139B013301930F9B00931A
:108BD00007A8DDE910320FF06FFE2D4A2D492F480E
:108BE00013F0D6F907AA33492C4813F0D1F92D49CF
:108BF0002A4813F0CDF9294812F0A0FB07AA2D4905
:108C0000294813F0C5F92749274813F0C1F9642012
:108C10001DF032F8149B03F26C732380139B013315
:108C2000A370129B2371119B6371109BA3710F9B07
:108C3000E371214B1B7843B3154A1649174813F0CB
:108C4000A7F91E49154813F0A3F91649134813F064
:108C50009FF9124812F072FB1849134813F098F963
:108C60001049114813F094F964201DF005F802230F
:108C70002B70E3790193A379009363792279A1782A
:108C8000208805F0F5FD05F0F5FC19B030BD00BFFA
:108C9000F5300700812F07002CD6002070E300205C
:108CA000FA300700487A0700D4E300202CDB0020CC
:108CB000113107002C4E070034DB00203331070050
:108CC000F0B54FF080432DED028BD3F83834032BF1
:108CD00085B020D1364A3749374813F059F937491A
:108CE000354813F055F93649334813F051F93248F5
:108CF00012F024FB3149334813F04AF93049314826
:108D000013F046F964201CF0B7FF0024204605B09C
:108D1000BDEC028BF0BD2C482B4D12F025FE0A2431
:108D2000B0EE408A284612F01FFE013C38EE008A61
:108D3000F8D1B2EE067AC8EE077A1D4A1D491E48E0
:108D40009FED228ADFED226A27EE888ADFED217A05
:108D500068EE277A87EEA67AFCEEC77ACDED037A25
:108D60009DF80C4013F014F918EE100A49F000FABF
:108D700006460F462246CDE9006717490E4813F014
:108D800007F90F490C4813F003F90B4812F0D6FA13
:108D90002246CDE9006710490A4813F0F9F808495E
:108DA000084813F0F5F864201CF066FFAEE700BF3A
:108DB000137E0700812F070070E300204931070070
:108DC000487A0700D4E300204DE4002000007A44F4
:108DD0000040834500007F435031070007B52C4A0F
:108DE0002C492D4813F0D4F82C492B4813F0D0F817
:108DF0002B49294813F0CCF8274812F09FFA27494D
:108E0000284813F0C5F82649264813F0C1F8642015
:108E10001CF032FF244A254801231370244A1370A2
:108E200012F083FB18B12348002112F048FB2248BE
:108E300012F0CCFC2149224812F0DAFB21492048EB
:108E400012F0E6FB20491E4812F0DAFB1F491C48CD
:108E500012F0E6FB1E491A4812F0EAFB00211D48F9
:108E600012F024FC02211C4812F08EFC3223012255
:108E7000009311460A23124812F079FB174BD97A56
:108E800001B10121222003B05DF804EB13F033B9E6
:108E90007D2F0700812F070070E300206A31070053
:108EA000487A0700D4E30020C0A10020C4E40020D9
:108EB000A1A10020AEE40020ADE4002081890200E1
:108EC00089E40020998A02008D7302002D7402004B
:108ED0004D8B020091E40020ABE40020FCA20020B6
:108EE00008B52B4A2B492C4813F052F82B492A4835
:108EF00013F04EF82A49284813F04AF8264812F091
:108F00001DFA2649274813F043F82549254813F050
:108F10003FF864201CF0B0FE234B24480021197058
:108F200012F0CDFA224812F004FBD0B9184A1949C0
:108F3000194813F02DF81F49174813F029F818495C
:108F4000154813F025F8144812F0F8F91949154896
:108F500013F01EF81249134813F01AF864201CF09D
:108F60008BFE1549114812F0F1FA14490F4812F01E
:108F7000F5FA4FF6FD710D4812F0A1FA104BD97AAF
:108F800001B10121BDE80840222013F0B4B800BFB0
:108F90007D2F0700812F070070E300207F3107003D
:108FA000487A0700D4E30020A1A10020AEE400200D
:108FB000C4E400208E310700DD730200B9730200A3
:108FC000FCA200202DE9F047012186B0222013F0F9
:108FD0007BF80121232013F077F80121242013F0DE
:108FE00073F80021222013F086F80223B2480622EB
:108FF0004FF4E13112F0A8F94FF08043D3F8383440
:10900000032B40F048824FF4FA601CF035FE42F228
:1090100010701CF031FE0123022203ACA74900931B
:10902000A748A84F00230FF047FCA549204612F09F
:1090300029FE2146A44812F075FC204612F0DCFD02
:10904000A24812F0C9FE04F0B5FC387030B1A04956
:109050009B480FF068FC9A4804F0E0FC01212320B3
:1090600013F049F80021232013F045F800212420B3
:1090700013F041F83B78D3B9964A97498E4812F0DD
:1090800087FF96498C4812F083FF95498A4812F071
:109090007FFF894812F052F99049924812F078FF08
:1090A0008F49904812F074FF64201CF0E5FD02F037
:1090B000C3FED0B9874A88497F4812F069FF8A49C0
:1090C0007D4812F065FF86497B4812F061FF7A48BF
:1090D00012F034F98449834812F05AFF80498148DC
:1090E00012F056FF64201CF0C7FD02F037FED0B925
:1090F000784A7949704812F04BFF7C496E4812F06B
:1091000047FF77496C4812F043FF6B4812F016F99D
:109110007649744812F03CFF7149724812F038FFEA
:1091200064201CF0A9FD02F02FFED0B9694A6A49FB
:10913000614812F02DFF6E495F4812F029FF68491F
:109140005D4812F025FF5C4812F0F8F86849654860
:1091500012F01EFF6249634812F01AFF64201CF0EF
:109160008BFD02F027FED0B95A4A5B49524812F0F3
:109170000FFF6049504812F00BFF59494E4812F05A
:1091800007FF4D4812F0DAF85A49564812F000FF2E
:109190005349544812F0FCFE64201CF06DFD03F0AE
:1091A0001BFBD0B94B4A4C49434812F0F1FE5249DF
:1091B000414812F0EDFE4A493F4812F0E9FE3E48B0
:1091C00012F0BCF84C49474812F0E2FE44494548C9
:1091D00012F0DEFE64201CF04FFD00F0F1FDD0B96E
:1091E0003C4A3D49344812F0D3FE4449324812F01B
:1091F000CFFE3B49304812F0CBFE2F4812F09EF8CC
:109200003E49384812F0C4FE3549364812F0C0FED7
:1092100064201CF031FD3A4D002000F0ADFC6B7A6B
:10922000032B40F05F812B4A2B49234812F0B0FEFC
:109230003449214812F0ACFE29491F4812F0A8FE1B
:109240001D4812F07BF82F49264812F0A1FE244950
:10925000244812F09DFE64201CF00EFD012003F056
:10926000FBFC05F031FA284B1A4A1B4918700028FC
:1092700000F06681104812F08BFE24490E4812F06F
:1092800087FE17490C4812F083FE0B4812F056F87F
:109290001E49144812F07CFE1149124812F078FE63
:1092A00064201CF0E9FC05F0E5F994E803002BF0DC
:1092B00094F802F0ABFD2BE070E30020B031070022
:1092C00013D500200DD50020F8E30020CCE40020C9
:1092D000C42B07007D2F0700812F0700C631070030
:1092E000487A0700D4E30020D4310700FB3107009F
:1092F000293207005332070081320700A6320700E7
:10930000FCA20020C232070034DB0020EF3207004D
:1093100005F0AAFB974E3070002840F06181964A14
:109320009649974812F034FE9649954812F030FE5F
:109330009549934812F02CFE914811F0FFFF914996
:10934000924812F025FE9049904812F021FE6420C8
:109350001CF092FC6B7A012B00F08681022B00F04E
:109360008C813BB38A49864812F0FEFD3B780BB3F3
:10937000884989480FF0D7FA8749204612F082FCC5
:1093800000212246084604F08BFC204612F034FCF3
:10939000824981480FF0C7FA7F49204612F072FCDB
:1093A00022460021012004F07BFC204612F024FC20
:1093B00004F090FC7A4804F0F9FB7A4812F08CF93A
:1093C00010B9794804F0F2FBFFF708FD4FF47A7307
:1093D00076496A687048B2FBF3F20FF06DFA6E4896
:1093E00004F0E4FB724A73480123002112F0E7FA0B
:1093F0006A6822B100236F48194612F0EAFA6E4AF1
:109400006C480023012112F0DAFA00236B4A694804
:10941000022112F0D4FAAB7A33B1664800234EF63B
:109420006022022112F0D5FA0123654A6148032126
:1094300012F0C5FA634B1B785BB15A4812F04CF935
:1094400038B93223012200935F480A23114612F0F3
:109450008EF8494A49494A4812F09AFD5B49484802
:1094600012F096FD4849464812F092FD444811F02A
:1094700065FF5649454812F08BFD4349434812F0B9
:1094800087FD64201CF0F8FB0121514812F013FE07
:1094900006B0BDE8F08712F03AFE394D04464FF0B1
:1094A000000A41F287384FF00009284611F031FFD9
:1094B00000287FF4ACAD12F02AFE061B6AEB4A07C7
:1094C000B04579EB0703FFF6A2AD64201CF0D4FB96
:1094D000232012F015FEB0FA80F14909232012F082
:1094E0000AFEE2E7EE7A244A24492548CEB912F072
:1094F0004FFD3849224812F04BFD2349204812F015
:1095000047FD1F4811F01AFF3249204812F040FD74
:109510001D491E4812F03CFD64201CF0ADFB0020EC
:109520009DE612F035FD2C49154812F031FD164923
:10953000134812F02DFD124811F000FF2649E4E710
:109540000F4812F025FD25490D4812F021FD0E4966
:109550000B4812F01DFD0A4811F0F0FE1F490B48A0
:1095600012F016FD0849094812F012FD64201CF0A3
:1095700083FBCDE60ED500207D2F0700812F07004D
:1095800070E30020F9320700487A0700D4E3002096
:109590003D3307005E33070013D50020703307000A
:1095A0008E2C070094E4002080330700AF2C0700C6
:1095B0009D83020051E40020A174020029DD020015
:1095C00001D40200A1A1002089E400208E3307000D
:1095D000E9E30020D6320700C2320700EC32070070
:1095E00002F0FEFB05F0F8FA3070D0B9294A2A499A
:1095F0002A4812F0CDFC2A49284812F0C9FC294912
:10960000264812F0C5FC254811F098FE244926484A
:1096100012F0BEFC2349244812F0BAFC64201CF06E
:109620002BFB1C4A1C491D48DFF89890DFF89880F6
:1096300012F0AEFC32781D491848002A14BF4A4681
:10964000424612F0A5FC1749144812F0A1FC134839
:1096500011F074FE327815491348002A14BF4A46A7
:10966000424612F095FC6EE6FFF73AFC104804F013
:109670009DFA104804F09AFAA8E60F4804F096FA0A
:109680000E4812F029F810B90D4804F08FFAFEF7D1
:1096900009FE9BE67D2F0700812F070070E3002065
:1096A0000A330700487A0700D4E30020203307007C
:1096B000532C07008E3307009D2C070094E40020F4
:1096C00080330700A5310700AA310700704700006A
:1096D00002481822002105F00BBF00BF34D600203D
:1096E0002DE9F04F994C9A4DDFF87CA2DFF87CB25F
:1096F00089B0204606F050F8204610EE107A06F0A9
:109700006AF820468DED050A06F084F8914A9249E0
:109710008DED060A284612F03BFC204606F03CF888
:10972000204610EE108A06F037F8384610EE106A20
:1097300048F01EFD894B002248F072FD49F020F8E8
:1097400007B2404648F014FD8046304689460297ED
:1097500048F00EFD814B824E002248F061FD4246EA
:109760004B46CDE900015146284612F011FC314626
:10977000284612F00DFC284611F0E0FD204606F0C8
:109780000BF8204610EE108A06F006F840468DEDE4
:10979000070A48F0EDFC079B029780461846894669
:1097A00048F0E6FC6D4B002248F03AFD4B4642463D
:1097B000CDE900015146584612F0EAFB31465846C1
:1097C00012F0E6FB64201CF057FA624A6249284610
:1097D00012F0DEFB204605F0FEFF204610EE107A68
:1097E00005F0F9FF059810EE10AA48F0C1FC002220
:1097F0005A4B48F015FD48F0C3FF03B238460593B5
:1098000048F0B6FC059B029380465046894648F0D6
:10981000AFFC524B534FDFF858A1002248F000FD37
:1098200042464B46CDE900013946284612F0B0FBCE
:109830003146284612F0ACFB284611F07FFD204649
:1098400005F0C9FF204610EE108A05F0C4FF40461F
:109850008DED070A48F08CFC059B0293079B804620
:109860001846894648F084FC3C4B002248F0D8FC5E
:109870004B464246CDE900013946584612F088FB76
:109880003146584612F084FB64201CF0F5F9314A49
:109890003149284612F07CFB204605F0BBFF2046EC
:1098A00010EE108A05F0B6FF06988DED050A48F017
:1098B0005FFC2A4B002248F0B3FC48F061FF07B27E
:1098C000404648F055FC804605980297894648F086
:1098D0004FFC224B002248F0A3FC42464B46CDE908
:1098E00000015146284612F053FB3146284612F03B
:1098F0004FFB284611F022FD204605F08BFF204645
:1099000010EE105A05F086FF284610EE108A48F037
:109910002FFC044640460D46029748F029FC0F4BA9
:10992000002248F07DFC2246CDE900012B4651463D
:10993000584612F02DFB3146584612F029FB6420A0
:1099400009B0BDE8F04F1CF097B900BF34D6002035
:1099500070E300209C330700812F070000408F40F8
:10996000487A0700AF330700A0330700D4E3002094
:10997000BE33070007B573480DF10701312205F02A
:1099800053FF9DF8073059061BD56F4A6F49704841
:1099900012F0FEFA9DF807206E496D4812F0F8FAB1
:1099A0006D496B4812F0F4FA694811F0C7FC694937
:1099B0009DF80720694812F0EBFA6749674812F0F2
:1099C000E7FA64201CF058F99DF807309A0617D57D
:1099D0005D4A5E495E4812F0DBFA61495C4812F06C
:1099E000D7FA5D495A4812F0D3FA594811F0A6FC4B
:1099F0005B495A4812F0CCFA5749584812F0C8FA55
:109A000064201CF039F99DF80730DB0617D54E4A63
:109A10004E494F4812F0BCFA52494D4812F0B8FA7C
:109A20004D494B4812F0B4FA494811F087FC4D49B2
:109A30004A4812F0ADFA4849484812F0A9FA6420A1
:109A40001CF01AF99DF80730180717D53E4A3F4910
:109A50003F4812F09DFA44493D4812F099FA3E49B8
:109A60003B4812F095FA3A4811F068FC3E493B48F1
:109A700012F08EFA3849394812F08AFA64201CF044
:109A8000FBF89DF80730590717D52F4A2F49304862
:109A900012F07EFA35492E4812F07AFA2E492C48F7
:109AA00012F076FA2A4811F049FC30492B4812F09E
:109AB0006FFA2949294812F06BFA64201CF0DCF88F
:109AC0009DF807309A0717D51F4A2049204812F001
:109AD0005FFA27491E4812F05BFA1F491C4812F032
:109AE00057FA1B4811F02AFC21491C4812F050FA81
:109AF00019491A4812F04CFA64201CF0BDF89DF880
:109B00000730DB0717D5104A1049114812F040FA08
:109B100018490F4812F03CFA0F490D4812F038FA74
:109B20000B4811F00BFC13490C4812F031FA0A49AA
:109B30000A4812F02DFA64201CF09EF803B05DF87C
:109B400004FB00BF34D600209C330700812F0700A0
:109B500070E30020CD330700487A0700D4E30020EB
:109B6000E4330700EB330700F1330700F833070055
:109B7000FE3307000534070073B5002104461120A9
:109B800012F0A2FA5D4812F027F95D4B6CB3002287
:109B90009A800A22DA804FF481721A8140F201120F
:109BA0005A81574805F0D0FE054620B3554A56491C
:109BB000564812F0EDF95649544812F0E9F9554962
:109BC000524812F0E5F9514811F0B8FB504952489B
:109BD00012F0DEF94F49504812F0DAF964201CF017
:109BE0004BF80024204602B070BD02229C80DC802D
:109BF0001A815C81D5E7002C38D02A2230214048D8
:109C00008DF80720012605F0B9FC082232213C48D6
:109C10008DF8072005F0B2FC3246332138488DF824
:109C2000076005F0ABFC24220DF10701344805F074
:109C3000FBFD9DF80720324822F00C0242F008029A
:109C400024218DF8072005F099FC602222212C4860
:109C50008DF8072005F092FC2A462521284805F0BA
:109C60008DFC27483246212105F088FC0025202262
:109C70000DF1070122488DF8075005F0D5FD9DF83C
:109C800007201F4842F0080220218DF8072005F028
:109C900075FC64201BF0F0FF1E220DF1070118482F
:109CA0008DF8075005F0C0FD9DF80720144842F0DC
:109CB00090021E218DF8072005F060FC64201BF047
:109CC000DBFF4CB1FFF756FE14490422112011F0BE
:109CD000F3FAFFF705FD85E720220DF1070108489B
:109CE00005F0A2FD9DF80720054802F04002202162
:109CF0008DF80720012405F041FC73E7CCE4002037
:109D000034D600209C330700812F070070E3002029
:109D10000B340700487A0700D4E30020CD960200F8
:109D200010B50023012210F0010F01F1FF311CBF1B
:109D300002FA01F4234340080029F4D1184610BD6B
:109D40000D4810B5002148F205040B029BB2082211
:109D500013F4004F02F1FF324FEA430318BF634090
:109D600012F0FF029BB2F3D10131B1F5807F20F8F0
:109D7000023BEAD110BD00BF48D600202DE9F041DA
:109D80000025DFF8388006460F462C46BD420DDA26
:109D9000705D0821FFF7C4FF80EA1423DBB20135B0
:109DA00038F8133083EA0424A4B2EFE710212046E8
:109DB000FFF7B6FF80B2BDE8F08100BF48D60020B3
:109DC00008B50221092012F07FF906490322092073
:109DD00011F072FA0449054801236422FDF782FA62
:109DE000012008BD61A3020001A4020018D60020D2
:109DF0002DE9F04FAC4D8FB0CDE90C2312F087F96F
:109E0000D5E900BC0024B0EB0B0240F6B83064EB9F
:109E10000C030021904271EB0303A246A146A04629
:109E20002746264665DB12F072F9D5E90023811A30
:109E300063EB430300910193DDE90023B2F5C87F92
:109E400073F1000360DA12F062F9D5E90023811A98
:109E500063EB430302910393DDE90234B3F5C87F5A
:109E600074F1000375DA12F052F9D5E90023811A72
:109E700063EB430304910593DDE90434B3F5167FE6
:109E800074F1000380F2888012F041F9D5E90023D3
:109E9000811A63EB430306910793DDE90634B3F5BA
:109EA000487F74F1000380F29D8012F030F9D5E90B
:109EB0000023811A63EB430308910993DDE9083419
:109EC000B3F5966F74F1000380F2AF8012F01FF9C2
:109ED000D5E90023811A63EB43030A910B93DDE973
:109EE0000A34B3F5AF6F74F1000380F2BF8007242A
:109EF00074E0092012F004F9002894D16B4B1B7810
:109F0000002B90D0022469E0684B1B78012B9AD17A
:109F1000092012F0F5F8012895D14FF0000BC82C5C
:109F200011D0092012F0ECF8012808BF0BF1010B49
:109F30004FF0010004F1010408BF5FFA8BFBE4B2AB
:109F40001BF09AFEEBE7BBF1C60F7FF67CAF002457
:109F500044E0564B1B78022B85D1092012F0D0F833
:109F6000012880D10024BAF1C80F10D0092012F0C6
:109F7000C7F8012808BF01344FF001000AF1010AB7
:109F800008BFE4B25FFA8AFA1BF076FEEBE7C62C54
:109F90007FF669AF012421E0444B1B78032BDCB230
:109FA0007FF472AF4FF0000AB9F1C80F12D0092048
:109FB00012F0A6F8012808BF0AF1010A4FF00100CB
:109FC00009F1010908BF5FFA8AFA5FFA89F91BF003
:109FD00053FEE9E7BAF1C60F7FF656AF20460FB041
:109FE000BDE8F08F314B1B78042BDCB27FF45DAF02
:109FF0004FF00009B8F1C80F12D0092012F080F814
:10A00000012808BF09F101094FF0010008F101081A
:10A0100008BF5FFA89F95FFA88F81BF02DFEE9E7BF
:10A02000B9F1C60F7FF641AFD8E7204B1B78052B5F
:10A03000DCB27FF44BAF4FF00008C82F11D00920DD
:10A0400012F05EF8012808BF08F101084FF0010086
:10A0500007F1010708BF5FFA88F8FFB21BF00CFE9A
:10A06000EBE7B8F1C60F7FF631AFB7E70F4B1B78C0
:10A07000062BDCB27FF43BAF0025C82E0FD00920A1
:10A0800012F03EF8012808BF01354FF0010006F13B
:10A09000010608BFEDB2F6B21BF0EEFDEDE7C62DEE
:10A0A0007FF625AF9AE700BF50D8002059D800208E
:10A0B00073B5894D894C6A7A637A9A4230D003F03D
:10A0C000D3FD874803F0AAFC6B6863606B7A854810
:10A0D00063726B89638103F069FD834803F066FD59
:10A0E00003F0F8FD01F076FF40F6B8301BF0C4FD38
:10A0F000637A7E48012B4FF000014FF0320640F0AA
:10A100009A8011F0DCF90022794800960A23114662
:10A1100011F02DFA774811F00CFA774811F022FC73
:10A12000EA7AE37A9A4206D06B7A022B0CBF0120BE
:10A13000002002F091FD6A6863689A4203D16A893F
:10A1400063899A4213D003F08FFD664803F02EFD19
:10A15000654803F02BFD03F0BDFD6B6863606B8900
:10A16000638101F037FF40F6B8301BF085FD63488E
:10A1700011F028FB00286BD0614811F0AFFA614B59
:10A180001978884205D000395D4818BF012111F0C7
:10A19000A7FA5D4811F0B4FA5C4B1978884202D0F6
:10A1A000594811F0AFFA5A4811F0BCFA594B1978D6
:10A1B000884202D0564811F0B7FA574D57482E78CA
:10A1C00011F0C2FA86420BD02978544811F0C8FA2F
:10A1D00032230122009346480A23114611F0C7F9A1
:10A1E00003F042FD637A012B6FD0022B6FD013B9BD
:10A1F0004B4803F0DBFC4FF47A7362684949B2FBC9
:10A20000F3F249480EF058FB474803F0CFFC626870
:10A2100022B100234548194611F0DBFBA37A002B3D
:10A2200057D0424800234EF66022022102B0BDE81A
:10A23000704011F0CEBB11F042F9012200960A23C2
:10A2400011462B4811F093F92C4811F0BFFA64E73E
:10A25000374D3848296811F0ECF8364811F0E7F826
:10A260002968884202D0334811F0E3F8324811F0EF
:10A27000EFF8324B1978884202D02F4811F0EAF8F3
:10A280002F4D30482E7811F0F4F8864203D029780B
:10A290002C4811F0F0F82C4811F0FCF82B4B1978F1
:10A2A000884202D0284811F0F7F8294811F005F942
:10A2B000284B1978884202D0254811F00FF94FF643
:10A2C000FD710A4811F0FBF88AE7234891E723481B
:10A2D0008FE702B070BD00BFCCA10020FCA200201F
:10A2E0002C3407003334070043340700AEE4002069
:10A2F00089E40020C4E40020E8E30020ADE400206D
:10A3000095E400205BD8002098E400205DD8002070
:10A31000A0E400205ED800205CD80020AAE4002041
:10A320008E2C0700AF2C070013D5002051E400202D
:10A3300068D80020B9E40020BAE400206CD80020DE
:10A3400063D80020BBE40020BCE4002064D80020D7
:10A35000BEE400206DD80020532C07009D2C070080
:10A36000F8B511F0D4FE1C4D1C4B1D4C0021C3E967
:10A37000000111F0CCFED5E90032C61A62EB4207AB
:10A38000C92E77F1000308DB11F0C1FE00236B60DA
:10A39000237828600133DBB22370124A1249134834
:10A3A00011F0F6FD22781249104811F0F1FD114923
:10A3B0000E4811F0EDFD0D4810F0C0FF22780C4959
:10A3C0000D4811F0E5FD0B490B4811F0E1FDBDE82A
:10A3D000F84064201BF050BC48D8002050D8002022
:10A3E00059D8002054340700812F070070E3002063
:10A3F00058340700487A0700D4E30020000000002A
:10A40000F7B5FFF7F5FC062800F2EC86DFE810F060
:10A410004206D4030700CC01DC00740035009B4BDE
:10A420009B4A00241C709B4B00200021C3E90001C3
:10A4300099499A4811F0ACFD9949984811F0A8FD46
:10A440009849964811F0A4FD944810F077FF94497C
:10A45000954811F09DFD9349934811F099FD6420B2
:10A460001BF00AFC914B1B782BB1204603B0BDE8D2
:10A47000F04003F037BC0120F8E7844B00221A704B
:10A48000844B00200021C3E90001894B1B78002B7D
:10A4900000F0A886874C2378052B0DD1864B874882
:10A4A000D97A1022227001919B7A00938449854BBE
:10A4B00009781B7803F03CFC754A7749774811F01E
:10A4C00067FD22788049754811F062FD754973482F
:10A4D00011F05EFD714810F031FF22787A49724820
:10A4E00011F056FD6F49704811F052FD642003B021
:10A4F000BDE8F0401BF0C0BB644B00221A70654BF6
:10A5000000200021C3E90001694B1B78002B51D0CA
:10A51000684C2378042B33D0052B41D08BB96B4882
:10A5200011F050F90128644B1FD1D97A68480422F0
:10A53000227001919B7A674900930978FF2303F009
:10A54000F7FB534A5449554811F022FD22786249DD
:10A55000524811F01DFD5349504811F019FD4F4864
:10A5600010F0ECFE22785C49B9E7D97A5B48052205
:10A57000227001919B7A5A4900930978FF23DEE704
:10A5800007235848237011F0DFF84B4AD37A019320
:10A59000937A00932278C3B2494948480978CEE7B4
:10A5A000454B0E22D97A227001919B7A00934E4B33
:10A5B0001B78F1E703F058FB4C4803F02FFA03B087
:10A5C000BDE8F0401BF06FBB304B00221A70314BDE
:10A5D00000200021C3E90001354B1B78002B00F05F
:10A5E000D880344C2378062B23D8DFE813F00700FB
:10A5F0001500360044008F00C000CA002E49032217
:10A600004B7AC87A22700190897A00910233DBB2CA
:10A610003749384809780AE0274B3748D97A002269
:10A62000227001919B7A354900930978FF2303F04A
:10A630007FFB174A1849194811F0AAFC22783049C3
:10A64000164811F0A5FC1749144811F0A1FC134855
:10A6500010F074FE22782A4941E7174A2949937A73
:10A66000294883F001039372D27ACDE90032FF23A7
:10A6700009780222DBE7104B02225A72DA7A019241
:10A680009B7A009303220423C2E700BF59D800201D
:10A690005434070050D80020812F070070E30020B9
:10A6A00068340700487A0700D4E30020ACA40020F7
:10A6B00058D800205AD80020CCA10020C4A10020E6
:10A6C000C8A100206DD8002072340700ADE400203E
:10A6D0009CA20020B0A2002083340700C8A2002062
:10A6E000E0A20020AAE4002064D8002094340700EF
:10A6F00070A2002060A20020E4A20020F8A20020A6
:10A700009F340700C4A20020B4A200200A2383487B
:10A71000237011F019F8C0B20C280ED8DFE800F051
:10A72000071B1B211B21211B1B1B1B1B21007C4BFF
:10A7300000221A707B4B05221A707B4A7B4BD17A20
:10A740001B780191927A00920A332278DBB2784921
:10A75000784809786BE7724B00221A70714B072218
:10A76000EAE76F4B00221A706E4B0A22E4E76E4B49
:10A770000D22D97A227001919B7A00936E4B1B783F
:10A78000E5E7694BDA7A01929B7A0093062200236F
:10A79000DDE703F069FA694803F040F9684803B05F
:10A7A000BDE8F04011F0DEB8664B00221A70664B2F
:10A7B00000240025C3E90045644B1B78002B00F002
:10A7C0008881634C2278102A2BD8DFE812F0110020
:10A7D0001D003E004900560087009400DF002A005B
:10A7E0000B011E0133014501550164012A0072016C
:10A7F0004D4B0222D97A227001919B7A0093FF235C
:10A800005449554809780AE0474B5448D97A002200
:10A81000227001919B7A524900930978FF2303F03B
:10A8200087FA504A5049514811F0B2FB22785049FA
:10A830004E4811F0ADFB4F494C4811F0A9FB4B4875
:10A8400010F07CFD22784A4949E6374AD37A83F0F2
:10A850000103D3720193937A00930222FF23CFE77F
:10A86000314B4549454801225A72DA7A01929B7A66
:10A870000093032309781A46D1E709232748237058
:10A8800010F062FFC0B20C2814D8DFE800F0070710
:10A890000707070D1E07242424241E00384B00221E
:10A8A0001A70384B052204E0354B00221A70354BE4
:10A8B00004221A701C4A1D4BD17A1B780191927A9E
:10A8C00000920A33DBB2227811E02D4B00221A707D
:10A8D0002C4B0622EDE72A4B0222E1E7124B0C2219
:10A8E000D97A227001919B7A0093274B1B781049EB
:10A8F0001048097893E70C4B5A6842B142F20F7145
:10A900008A428ABFA2F51C520022103A5A60DA7AB3
:10A9100001929B7A00930622FF23E8E7AAE4002035
:10A9200062D8002060D80020CCA100205DD8002093
:10A93000C8A10020C4A1002063D80020B0340700C3
:10A94000E8E3002059D8002050D8002058D8002033
:10A950005AD80020C4A20020B4A20020E4A2002003
:10A96000F8A2002054340700812F070070E3002074
:10A97000C0340700487A070070A2002060A20020BF
:10A9800061D800205FD800206CD800206F4D2B7854
:10A9900033B3013BDBB26E4A6E496F482B7011F046
:10A9A000F7FA2A786D496C4811F0F2FA6C496A4856
:10A9B00011F0EEFA684810F0C1FC2A78674969483E
:10A9C00011F0E6FA6649674811F0E2FA64201BF0DC
:10A9D00053F9654BDA7A01929B7A00932B7872E7F0
:10A9E0000C23D8E7614A62491378097899420BBF72
:10A9F000604B03F1FF331B78DBB213705A4AD17AF4
:10AA00000191927A0092092271E75B4A5B491378BF
:10AA1000097899420BBF5A4B03F1FF331B78DBB225
:10AA20001370514BDA7A01929B7A00934F4B0A22B2
:10AA30001B785CE7534A54491368A3F5C333A03B22
:10AA40008B4298BF514B1360474BDA7A01929B7A45
:10AA500000930B22FF234AE74D490B78062B1CBFBE
:10AA600003F1FF33DAB2404B0A70D97A01919B7A35
:10AA7000009313460C223AE7464A13784BB1013B48
:10AA8000DBB21370384AD17A0191927A00920D228A
:10AA90002DE70923F5E7404A117809B1481EC0B2F5
:10AAA0001070314AD37A0193937A00930E220346B1
:10AAB0001DE73A4A1378052B1ABF03F1FF33DBB2C7
:10AAC00016231370284AD17A0191927A00921022AB
:10AAD0000DE7334B1B78002B40F08483314B1B7800
:10AAE00013B9012003F0FEF8194A1A491A4811F067
:10AAF0004FFA2D49184811F04BFA1949164811F030
:10AB000047FA154810F01AFC2749164811F040FA88
:10AB10001349144811F03CFA64201BF0ADF80021F1
:10AB2000224810F060FF224B012200201A70FDF72E
:10AB300035FC204B5A68002A00F0548300231B4840
:10AB4000194603B0BDE8F04010F043BF5CD80020C8
:10AB500054340700812F070070E30020B63407004B
:10AB6000487A0700D4E30020CCA100205DD8002063
:10AB700061D800205FD800205ED8002062D8002075
:10AB800060D8002068D800207F47A1198047A1190C
:10AB90006CD8002063D8002064D800206DD8002035
:10ABA0002DD60020ACA40020D134070051E40020B1
:10ABB00001D50020FCA20020AF4BB04DB04C0022CC
:10ABC0001A70B04B00210020C3E900012978002948
:10ABD00040F0F080AC4810F006FF0121AA4810F0C8
:10ABE00002FFA948022110F0FEFEA84B1B7813B902
:10ABF000012003F077F80123A54A2B70002323706E
:10AC0000A44B51685960517A52895A81A2485972AD
:10AC100010F0D8FD0546A14AA149A248002D48D010
:10AC200011F0B6F9A0499F4811F0B2F99F499D482B
:10AC300011F0AEF99B4810F081FB9B499C4811F044
:10AC4000A7F99A499A4811F0A3F964201BF014F867
:10AC5000984810F055FD984B1870984810F074FD06
:10AC6000974B1870974810F039FD974B187097481C
:10AC700010F058FD964B18700023CDE90033227870
:10AC800094499548097803F053F8844A84498548E3
:10AC900011F07EF922789149824811F079F98349BF
:10ACA000804811F075F97F4810F048FB22788B49F5
:10ACB00015E411F06DF97C497A4811F069F97B4986
:10ACC000784811F065F9774810F038FB76497848F4
:10ACD00011F05EF97549764811F05AF964201AF0BE
:10ACE000CBFF29467E487F4D10F0E9FB7E4810F0EF
:10ACF0009EFB28607D4810F0ABFB7D4B18707D48B3
:10AD000010F0B7FB7C4B18707C4810F0C3FB7C4BF9
:10AD100018707C4810F0D1FB7B4B604A187060497A
:10AD2000604811F035F9286847F010FA50A3D3E9CC
:10AD3000002347F09FFB06466B480F4610F077FB59
:10AD400047F004FA4AA3D3E9002347F093FB3246C5
:10AD50003B46CDE900016D49524811F019F95349BC
:10AD6000504811F015F94F4810F0E8FA286847F0FC
:10AD7000EDF93FA3D3E9002347F07CFB06465A4890
:10AD80000F4610F054FB47F0E1F939A3D3E9002353
:10AD900047F070FB3246CDE900013B465B49444831
:10ADA00011F0F6F84149424811F0F2F864201AF027
:10ADB00063FF61E72378102B3FF667AF01A252F8DB
:10ADC00023F000BF09AE02001BAE02002DAE020050
:10ADD00031AE02004BAE020069AE02007BB0020051
:10ADE00021AF02007BAF020097AF0200BBAF0200B1
:10ADF000DFAF020003B0020021B002003FB002004A
:10AE00008BAC02005DB002000122224B2270D97A85
:10AE100001919B7A0093FF2322E01E4B0022D97AF6
:10AE2000227001919B7A0093FF2329E70622ECE729
:10AE3000184B3749374800225A72DA7A01929B7AC6
:10AE400000930978022303221DE712491E4BC87A9A
:10AE50001B78082222700190897A00910A33DBB2B4
:10AE60002D492E4809780EE70B22CEE7AFF300807C
:10AE70000000000084D7974159D8002058D80020FE
:10AE80005AD8002050D8002051E40020ACA4002063
:10AE9000FCA20020CCA10020ADE400205434070027
:10AEA000812F070070E30020E7340700487A07008D
:10AEB000D4E3002098E400205DD80020AAE400201C
:10AEC0005CD8002095E400205BD80020A0E400209E
:10AED0005ED80020F8A20020E4A200200A35070076
:10AEE000AEE4002068D80020B9E40020BAE40020D5
:10AEF0006CD80020BBE4002063D80020BCE4002014
:10AF000064D80020BEE400206DD80020FC34070087
:10AF100070A2002060A20020C8A10020C4A10020CF
:10AF20008A4D8B4A2B788B498B480C2B1ABF0133E7
:10AF3000DBB200232B7011F02BF82A788749864862
:10AF400011F026F88649844811F022F8824810F062
:10AF5000F5F92A788149834811F01AF88049814827
:10AF600011F016F864201AF087FE7F4BDA7A01920E
:10AF70009B7A00932B78227872E77C4A1378B3FA95
:10AF800083F35B091370784AD17A0191927A009227
:10AF90000A33082264E7764A764913780978994299
:10AFA0000BBF754B01331B78DBB213706E4AD17A3D
:10AFB0000191927A0092092252E7704A70491378FF
:10AFC000097899420BBF6F4B01331B78DBB21370CA
:10AFD000654AD17A0191927A00920A2240E76A4A40
:10AFE0006A49136803F5C333A0338B4294BF1360DF
:10AFF00011605D4BDA7A01929B7A00930B22FF235A
:10B000002EE7634A13780C2B1ABF0133DBB20623F9
:10B010001370554AD17A0191927A00920C221FE75F
:10B020005C4A1378092B1ABF0133DBB2002313707B
:10B030004D4AD17A0191927A00920D2210E7564A38
:10B040001378032B1ABF0133DBB200231370464A77
:10B05000D17A0191927A00920E2201E74F4A137839
:10B06000162B1ABF0133DBB2052313703E4AD17A87
:10B070000191927A00921022F2E63B4A536803F55E
:10B080001C5310335360D37A0193937A00930622B2
:10B090000023E5E6424B00221A70424B00200021BB
:10B0A000C3E90001404B1A78002A00F09B803F4C16
:10B0B0002278102A0ED8DFE802F00922222222226A
:10B0C00089303030303C3C3C3C0D3C0000221A7052
:10B0D000FEF7EEFF1E4A1F491F4810F059FF227865
:10B0E00033491D4810F054FF1D491B4810F050FF14
:10B0F000194810F023F922782D49FFF7F0B91A4BBF
:10B100002C48D97A0022227001919B7A2A49009317
:10B110000978FF2302F00CFEDCE7134B2748D97AAD
:10B120000422227001919B7A254900930978FF231C
:10B13000F0E70D4B2348D97A0522227001919B7AC2
:10B14000214900930978FF23E4E700BF5CD8002081
:10B1500054340700812F070070E30020B634070045
:10B16000487A0700D4E30020CCA100205BD800205F
:10B170005DD800205FD8002061D800205ED8002074
:10B1800060D8002062D8002068D8002000703839CC
:10B190006CD8002063D8002064D800206DD800202F
:10B1A00059D8002050D8002058D800205AD8002064
:10B1B0001B350700E4A20020F8A200209CA200207A
:10B1C000B0A20020C8A20020E0A20020064B074841
:10B1D000D97A0222227001919B7A0549009309785D
:10B1E000FF2397E703B0F0BDCCA10020B4A200205C
:10B1F000C4A2002070B598B014460A490EA810F0F9
:10B2000041FD0023CDE91433CDE91633636E012BE4
:10B210000CD1054920680DF07CFB48B1022400F0F8
:10B22000EDBC00BF584B0700C9990700002BF5D1B2
:10B23000B649B748B74CB84DB84E10F0A9FEB8495A
:10B24000B34810F0A5FEB149B64810F0A1FEB449CC
:10B25000B44810F09DFE64201AF00EFD637AB249E6
:10B2600055F82320AA4810F093FEAD49A84810F0E5
:10B270008FFE637AAC4955F82320AA4810F088FE67
:10B28000A749A84810F084FE64201AF0F5FCA749ED
:10B2900011A810F051FB11A90EA810F006FD11A87D
:10B2A00010F0AAFC0EA810F043FD0E9AA049984891
:10B2B00010F06EFE9A49964810F06AFE0E9A9C496C
:10B2C000984810F065FE9649964810F061FE64209B
:10B2D0001AF0D2FC974911A810F00EFB119A96496A
:10B2E0008B4810F055FE11A810F086FC8C49884858
:10B2F00010F04EFE8F4911A810F0FEFA119A8E49F7
:10B30000884810F045FE11A810F076FC8449854865
:10B3100010F03EFE64201AF0AFFC4FF47A756268BC
:10B320008649B2FBF5F27A4810F032FE7C49784843
:10B3300010F02EFE62688149B2FBF5F2794810F0F8
:10B3400027FE7749774810F023FE64201AF094FC1A
:10B350007B4810F037FA7B4956F8202005466C48A8
:10B3600010F016FE6E496A4810F012FE56F82520BD
:10B3700074496C4810F00CFE69496A4810F008FEE8
:10B3800064201AF079FC012D40F04E836E486F4E18
:10B390006F4D10F0A1F96F49002814BF32462A46BC
:10B3A0005B4810F0F5FD5E49594810F0F1FD664824
:10B3B00010F092F96749002814BF32462A465948CE
:10B3C000654E10F0E5FD5649564810F0E1FD642049
:10B3D0001AF052FC614810F0B7F96149054602467F
:10B3E0004B4810F0D5FD4E49494810F0D1FD2A4692
:10B3F0005B494C4810F0CCFD49494A4810F0C8FD63
:10B4000064201AF039FC56F825205649404810F0BF
:10B41000BFFD43493E4810F0BBFD56F82520514979
:10B42000404810F0B5FD3E493E4810F0B1FD6420A3
:10B430001AF022FC4C4810F048F9002800F0BE81B8
:10B440004A49334810F0A4FD3549314810F0A0FDB9
:10B450004649344810F09CFD3149324810F098FDBF
:10B4600064201AF009FC082214A9414810F00CF9D4
:10B470009DF8573005939DF8563004939DF855304C
:10B4800003939DF8543002939DF8533001939DF837
:10B4900052309DF85020374900931D489DF8513097
:10B4A00010F076FD1E491A4810F072FD9DF85730D5
:10B4B00005939DF8563004939DF8553003939DF8FD
:10B4C000543002939DF8533001939DF852309DF80B
:10B4D00050202849009313489DF8513010F058FD32
:10B4E0000F49104810F054FD64201AF0C5FB0822E3
:10B4F00014A9214810F0A4F89DF8573005939DF841
:10B50000563004939DF8553038E000BF963507005B
:10B5100070E30020FCA20020D0A30020C4A30020E0
:10B52000487A0700D4E30020A535070028E400206E
:10B53000B3350700ECE30020F1670700BE350700D4
:10B54000ADE40020CE35070094E400203D770700ED
:10B5500088350700DE35070090A30020AAE400200C
:10B56000E9350700F435070093E40020FF350700B4
:10B570008EE40020093607008AE4002003939DF83A
:10B58000543002939DF8533001939DF852309DF84A
:10B5900050207D4900937D489DF8513010F0F8FC13
:10B5A0007B497A4810F0F4FC9DF8573005939DF8DC
:10B5B000563004939DF8553003939DF85430029310
:10B5C0009DF8533001939DF852309DF850206E49FC
:10B5D000009370489DF8513010F0DAFC6C496D48CA
:10B5E00010F0D6FC64201AF047FB102214A96A4818
:10B5F00010F02FF89DF85F300D939DF85E300C939E
:10B600009DF85D300B939DF85C300A939DF85B309C
:10B6100009939DF85A3008939DF8593007939DF887
:10B62000583006939DF8573005939DF85630049393
:10B630009DF8553003939DF8543002939DF8533094
:10B6400001939DF852309DF85020544900934F4883
:10B650009DF8513010F09CFC4D494C4810F098FC7E
:10B660009DF85F300D939DF85E300C939DF85D3032
:10B670000B939DF85C300A939DF85B3009939DF81D
:10B680005A3008939DF8593007939DF85830069327
:10B690009DF8573005939DF8563004939DF855302A
:10B6A00003939DF8543002939DF8533001939DF815
:10B6B000523000939DF850209DF85130374935485D
:10B6C00010F066FC32493348354E364D10F060FCC0
:10B6D00064201AF0D1FA34492C4810F059FC2C4956
:10B6E0002A4810F055FC30492A4810F051FC2849EE
:10B6F000284810F04DFC64201AF0BEFA627A2B49FB
:10B70000224810F045FC2249204810F041FC627AA2
:10B710002649204810F03CFC1D491E4810F038FC1A
:10B7200064201AF0A9FAA27A21491848002A14BF05
:10B7300032462A4610F02CFC1549144810F028FC1B
:10B74000A27A1B491348002A14BF32462A4610F039
:10B750001FFC0F490F48174E10F01AFC64201AF016
:10B760008BFA15481AF0A0FD0025B4F88E20EBB234
:10B77000934205F1010580F23D8223443046197B56
:10B780001AF092FDF1E700BF3136070070E30020A8
:10B79000487A0700D4E300208BE4002059360700E4
:10B7A0009335070050340700BA370700CA3707003F
:10B7B000D837070083BB0700E93707009049914855
:10B7C00010F0E6FB90498F4810F0E2FB8C498F485F
:10B7D00010F0DEFB8C498D4810F0DAFB64201AF083
:10B7E0004BFA14A910228A480FF03CFF9DF85F30F5
:10B7F0000D939DF85E300C939DF85D300B939DF892
:10B800005C300A939DF85B3009939DF85A30089399
:10B810009DF8593007939DF8583006939DF857309E
:10B8200005939DF8563004939DF8553003939DF889
:10B83000543002939DF8533001939DF852309DF897
:10B840005020009373499DF851306E4810F0A0FBD2
:10B850006D496C4810F09CFB9DF85F300D939DF88E
:10B860005E300C939DF85D300B939DF85C300A932D
:10B870009DF85B3009939DF85A3008939DF8593034
:10B8800007939DF8583006939DF8573005939DF81F
:10B89000563004939DF8553003939DF8543002932D
:10B8A0009DF8533001939DF852309DF8502000933D
:10B8B00058499DF85130554810F06AFB5249534899
:10B8C00010F066FB64201AF0D7F914A91022524830
:10B8D0000FF0E3FE9DF85F300D939DF85E300C9302
:10B8E0009DF85D300B939DF85C300A939DF85B30BA
:10B8F00009939DF85A3008939DF8593007939DF8A5
:10B90000583006939DF8573005939DF856300493B0
:10B910009DF8553003939DF8543002939DF85330B1
:10B9200001939DF852309DF8502000933B499DF8BB
:10B930005130344810F02CFB3349324810F028FBCA
:10B940009DF85F300D939DF85E300C939DF85D304F
:10B950000B939DF85C300A939DF85B3009939DF83A
:10B960005A3008939DF8593007939DF85830069344
:10B970009DF8573005939DF8563004939DF8553047
:10B9800003939DF8543002939DF8533001939DF832
:10B9900052309DF85020009320499DF851301B48AB
:10B9A00010F0F6FA1849194810F0F2FA64201AF06B
:10B9B00063F914A904221A480FF05DFE9DF8533074
:10B9C00001939DF852309DF85020009315499DF841
:10B9D00051300C4810F0DCFA0B490A4810F0D8FA44
:10B9E0009DF8533001939DF8523000939DF85020FC
:10B9F0009DF851300B49054810F0CAFA62E600BFC5
:10BA0000A136070070E30020487A0700D4E3002045
:10BA10008CE40020AA36070090E40020F3360700EB
:10BA20008DE400203C3707007748002D40F09B80D4
:10BA30000FF0FDFC75490246754810F0A9FA7549EA
:10BA4000734810F0A5FA70480FF0F1FC6F490246F8
:10BA5000714810F09DFA6F496F4810F099FA642010
:10BA60001AF00AF96D480FF0F3FC6D490246684878
:10BA700010F08EFA6749664810F08AFA67480FF0AE
:10BA8000E7FC67490246644810F082FA614962485F
:10BA900010F07EFA64201AF0EFF862480FF0E9FC2B
:10BAA000614902465A4810F073FA5A49584810F052
:10BAB0006FFA5C480FF0DDFC5B490246564810F017
:10BAC00067FA5449544810F063FA64201AF0D4F825
:10BAD00056480FF0DFFC564902464D4810F058FA20
:10BAE0004C494B4810F054FA50480FF0D3FC5049E1
:10BAF0000246494810F04CFA4649474810F048FAC7
:10BB000064201AF0B9F84B480FF0D5FC4A490246B8
:10BB10003F4810F03DFA3F493D4810F039FA45489A
:10BB20000FF0C9FC444902463B4810F031FA39494C
:10BB3000394810F02DFA64201AF09EF83F480FF0B3
:10BB4000BCFC3F490246324810F022FA31493048E5
:10BB500010F01EFA39480FF0B0FC394902462E4861
:10BB600010F016FAAEE50FF062FC284902462848AC
:10BB700010F00EFA2749264810F00AFA22480FF072
:10BB800056FC22490246244810F002FA2149224874
:10BB900010F0FEF964201AF06FF82A480FF0C1FC8B
:10BBA000294902461A4810F0F3F91A49184810F0CA
:10BBB000EFF924480FF0B5FC23490246164810F06F
:10BBC000E7F91449144810F0E3F964201AF054F826
:10BBD0001E480FF0A8FC1E4902460D4810F0D8F987
:10BBE0000C490B4810F0D4F918480FF09CFC184988
:10BBF0000246B4E707481AF057FB00240EA80FF0DE
:10BC0000FBFF204618B070BDB9E40020553707008F
:10BC100070E30020487A0700D4E30020BAE4002053
:10BC200064370700BBE400206C370700BCE4002049
:10BC300074370700BDE400207C370700BEE4002015
:10BC400091370700C2E400209F370700C3E40020BB
:10BC5000AC3707002DE9FF41536E012B0D4614460A
:10BC600024D1394910680CF054FE044620B1022456
:10BC7000204604B0BDE8F08102F0FCFC29463348C0
:10BC800010F052F93249314810F03CF9314A32494A
:10BC9000D3790393937902935379019313790093A2
:10BCA00093782A48128810F073F9E1E7052BDED16A
:10BCB000161F02F1100756F8045F28460CF03BFEF1
:10BCC0002B462844984205D013F8012B303A092A14
:10BCD000F8D9CCE7BE42EED10022114620680CF024
:10BCE00097FF40F2D233A0F2E6729A420546BED8E0
:10BCF0000022606811460CF08BFF431E0B2B06469A
:10BD0000B5D80022A06811460CF082FF431E1E2BFE
:10BD10000746ACD80022E06811460CF079FF1828DD
:10BD20008046A4D80022206911460CF071FF3B2800
:10BD30009DD8C2B200925FFA88F3FAB2F1B2A8B20B
:10BD400002F052FC002493E7C999070070E3002039
:10BD5000774E07002CDB0020FA37070007B50323D6
:10BD60000193054B0093054B054A064819460FF011
:10BD700004FE03B05DF804FB71C202001538070031
:10BD80001D3807004EE4002007B503230193054B3F
:10BD90000093054B054A064819460FF0EEFD03B027
:10BDA0005DF804FB39C402007038070075380700DD
:10BDB0004EE4002007B503230193054B0093054B88
:10BDC000054A064819460FF0D8FD03B05DF804FB9C
:10BDD0008DC60200C0380700C53807004EE40020B9
:10BDE00007B503230193054B0093054B054A06480D
:10BDF00019460FF0C2FD03B05DF804FB65BE0200FA
:10BE0000EC380700F13807004EE4002007B50323A3
:10BE10000193054B0093054B054A064819460FF060
:10BE2000ACFD03B05DF804FB55BC02000739070008
:10BE30000B3907004EE4002007B502230193054BA0
:10BE40000093054B054A064819460FF096FD03B0CE
:10BE50005DF804FBF5B102003239070039390700FB
:10BE60004EE400204B4B1B7870B5E3B94A4A4B496E
:10BE70004B4810F08DF84B49494810F089F84A4971
:10BE8000474810F085F846480FF058FA45494748AA
:10BE900010F07EF84449454810F07AF8642019F013
:10BEA000EBFE02244EE0556E012DFAD11668404992
:10BEB00030460CF02EFD0446002845D13A4938485A
:10BEC00010F066F83849364810F062F836493748BD
:10BED00010F05EF83449354810F05AF8642019F033
:10BEE000CBFE214633480FF07EFD294631480FF046
:10BEF0007AFD02212F480FF076FD01F0B5FE2E48A5
:10BF000001F08CFD2D4801F051FE2D4801F04EFE50
:10BF100001F0E0FE03F04CF92349214810F038F815
:10BF200021491F4810F034F81F49204810F030F81C
:10BF30001D491E4810F02CF8642019F09DFE214880
:10BF40000FF010FD204670BD1F4930460CF0E1FC9B
:10BF500004460028A5D11D4B014616481D700FF060
:10BF600042FD294613480FF03EFD022111480FF013
:10BF70003AFD01F079FE104801F050FD144801F03F
:10BF800015FE0F4801F012FE01F0A4FE02F0AAFD1A
:10BF9000D5E700BF0ED5002050390700812F0700DC
:10BFA00070E3002057390700487A0700D4E30020E7
:10BFB000C999070051E400202C3407006B390700B1
:10BFC00043340700E8E30020C97F070058D8002069
:10BFD0007B39070030B5944CE7B060689421FDF7D9
:10BFE000CDFE924A9249054692480FF0D1FF2A466B
:10BFF000914990480FF0CCFF90498E480FF0C8FF50
:10C000008C480FF09BF92A468B498D480FF0C0FFF2
:10C010008A498B480FF0BCFF642019F02DFE894936
:10C02000942268460BF0DAFEADF80050B4F88E505A
:10C03000636801932A46A368029304F10C0103A8E4
:10C040000BF0CCFE794A7A497A48ADF88E500FF061
:10C050009FFF019A7C4977487C4D7D4C0FF098FFFB
:10C06000764974480FF094FF72480FF067F9019A0F
:10C07000754973480FF08CFF704971480FF088FFC5
:10C08000642019F0F9FD694A69496A480FF080FF98
:10C090009DF809206F4967480FF07AFF67496548A6
:10C0A0000FF076FF63480FF049F99DF809206949C0
:10C0B00063480FF06DFF614961480FF069FF64202C
:10C0C00019F0DAFD594A5A495A480FF061FF9DF8B4
:10C0D0000A2061495748002A14BF2A4622460FF019
:10C0E00057FF564953480FF053FF52480FF026F9B7
:10C0F0009DF80A2058495248002A14BF2A46224671
:10C100000FF046FF4D494E480FF042FF642019F0F2
:10C11000B3FD464A464947480FF03AFF9DF80B20C9
:10C120004E494448002A14BF2A4622460FF030FFE9
:10C13000424940480FF02CFF3E480FF0FFF89DF8B1
:10C140000B2046493E48002A14BF2A4622460FF0DB
:10C150001FFF3A493A48424D0FF01AFF002464206D
:10C1600019F08AFDFE22214626A825940BF044FEF4
:10C17000BDF88E30E0B2984204F1010409DA0DEB0B
:10C18000000329461A7B25AB03EB40000CF094FB1F
:10C19000EEE7264A264927480FF0FAFE25AA31493C
:10C1A00024480FF0F5FE254922480FF0F1FE214802
:10C1B0000FF0C4F825AA2B4921480FF0E9FE1F49CA
:10C1C0001F480FF0E5FE642019F056FD174A184984
:10C1D00018480FF0DDFEBDF88E20234915480FF0FA
:10C1E000D7FE164913480FF0D3FE12480FF0A6F8F9
:10C1F000BDF88E201C4912480FF0CAFE0F491048A6
:10C200000FF0C6FE642019F037FD184894236A46E3
:10C2100000210FF0CAFB28B90146942313486A464F
:10C220000FF0C3FB67B030BDFCA2002050390700FF
:10C23000812F070070E300208F390700487A07003C
:10C24000D4E30020C03C0700A33907009335070062
:10C250008B390700C1390700D7390700F0390700CB
:10C2600083BB07000A3A0700233A07004FE4002087
:10C27000F8B5536E012B0E4615466AD16149106818
:10C280000CF047FB0446F8B95F4F60497B68604893
:10C2900032464FF47A75B3FBF5F30FF079FE5D4942
:10C2A0005B480FF075FE7B685849B3FBF5F33246E7
:10C2B00059480FF06DFE574957480FF069FE64204A
:10C2C00019F0DAFC2046F8BD544A554950480FF0A1
:10C2D0005FFE2A6853494E480FF05AFE4D494C48BC
:10C2E0000FF056FE4A480FF029F82A684D494A488F
:10C2F0000FF04EFE474948480FF04AFE642019F0FF
:10C30000BBFC2D6828460CF016FB0024844224D088
:10C310002B5D303B092B1ED9404A41493C480FF068
:10C3200037FE224640493A480FF032FE3949384834
:10C330000FF02EFE36480FF001F83B4936482246F2
:10C340000FF026FE334934480FF022FE642019F026
:10C3500093FC0224B6E70134D8E70A2200212846DC
:10C360000CF056FC2D4A2E49274D044628480FF064
:10C370000FFE22462D4926480FF00AFE2549244883
:10C380000FF006FE22480EF0D9FF22462749224828
:10C390000FF0FEFD1F4920480FF0FAFD642019F050
:10C3A0006BFC4FF47A701D4A1D49444318486C6079
:10C3B0000FF0EEFD6A681E4915480FF0E9FD1549BA
:10C3C00013480FF0E5FD12480EF0B8FF6A681849EF
:10C3D00011480FF0DDFD0F490F480FF0D9FD642023
:10C3E00019F04AFC134800210FF0FDFA6A6822B1E7
:10C3F0000023104819460FF0ECFAFFF7EBFD00247C
:10C4000060E700BFC9990700FCA20020403A07007E
:10C4100070E30020487A0700D4E300205039070079
:10C42000812F0700473A07005C3A07006B3A070084
:10C43000823A070051E40020536E012B70B50E467E
:10C44000154601D002241DE0814910680CF061FA04
:10C450000446C8B97F4D80496B7A804832460FF058
:10C4600097FD7F497D480FF093FD6B7A7A497D48AF
:10C4700032460FF08DFD7A497A480FF089FD64202D
:10C4800019F0FAFB204670BD774A784973480FF0DF
:10C490007FFD2A68764971480FF07AFD70496F4830
:10C4A0000FF076FD6D480EF049FF2A6870496D481F
:10C4B0000FF06EFD6A496B480FF06AFD642019F0B9
:10C4C000DBFB2D6828460CF036FA0024844223D08A
:10C4D0002B5D303B092B1DD9634A64495F480FF03F
:10C4E00057FD224663495D480FF052FD5C495B48A9
:10C4F0000FF04EFD59480EF021FF22465D49594884
:10C500000FF046FD564957480FF042FD642019F0E0
:10C51000B3FB97E70134D9E70A22002128460CF043
:10C5200077FB4C4E504A5149747A05464B480FF000
:10C530002FFD2A46504949480FF02AFD48494748EF
:10C540000FF026FD45480EF0F9FE2A464A494548B7
:10C550000FF01EFD424943480FF01AFD642019F008
:10C560008BFB022D3FF66EAFA54201D1002489E777
:10C570001CB9012D04D001241EE0012CFBD1DDB932
:10C58000394A3A4935480FF003FD3C4933480FF02A
:10C59000FFFC334931480FF0FBFC30480EF0CEFE73
:10C5A000364930480FF0F4FC2D492E480FF0F0FCCE
:10C5B000642019F061FB00242B4A2C49274875722E
:10C5C0000FF0E6FC727A2E4924480FF0E1FC244972
:10C5D00022480FF0DDFC21480EF0B0FE727A2849A7
:10C5E00020480FF0D5FC1E491E480FF0D1FC6420F6
:10C5F00019F042FBFFF7EEFC737A012B21D0022BDE
:10C6000022D00BB9FCF7EAFB002CAFD01D49134830
:10C610000FF0BEFC124911480FF0BAFC194911483D
:10C620000FF0B6FC0E490F480FF0B2FC642019F071
:10C6300023FB41F2883019F01FFB13480FF092F9E9
:10C6400094E7FCF74DFCDFE7FBF72CFEDCE700BFCF
:10C65000C9990700FCA20020933A070070E300206C
:10C66000487A0700D4E3002050390700812F0700E3
:10C67000473A07005C3A0700993A0700AC3A0700CE
:10C68000C63A0700D83A0700E8E30020536E012BB2
:10C690002DE9F0410E4615467ED1D2F80080424980
:10C6A000424F40460CF035F9044688BBB7F88E304F
:10C6B000BBB932463E493F480FF06AFC3E493D480F
:10C6C0000FF066FC3A493D4832460FF061FC3A49AA
:10C6D0003A480FF05DFC642019F0CEFA2046BDE820
:10C6E000F08131463648374E19F0DEFD2546B7F861
:10C6F0008E20EBB2934205F1010505DA3B4430464A
:10C70000197B19F0D1FDF2E72B4819F0CDFDE5E7D3
:10C7100040460CF010F92C4A2C49064625480FF0EB
:10C7200037FC2A682A4923480FF032FC2249214865
:10C730000FF02EFC1F480EF001FE2A6824491F4806
:10C740000FF026FC1C491D480FF022FC642019F054
:10C7500093FA286807F10C02314614F0BFF804463A
:10C76000E0B1194A194913480FF012FC1949114850
:10C770000FF00EFC10490F480FF00AFC0D480EF0A8
:10C78000DDFD14490D480FF003FC0B490B480FF079
:10C79000FFFB642019F070FA02249FE77608A7F8DF
:10C7A0008E60FFF717FC99E7C9990700FCA20020EB
:10C7B000F53A070070E30020487A0700D4E3002030
:10C7C000013B070083BB070050390700812F07009A
:10C7D000473A0700053B0700F0B5554C2378E7B012
:10C7E0001BB9FDF7ADFA01232370524A5249534851
:10C7F0000FF0CEFB9422524950480FF0C9FB51492B
:10C800004E480FF0C5FB4D480EF098FD94224C4960
:10C810004D480FF0BDFB4B494B480FF0B9FB64206E
:10C8200019F02AFA4949942268460BF0D7FA6A4669
:10C830000021474894230FF0AEF806463D4A3E4992
:10C840003E48C6B90FF0A4FB42493C480FF0A0FB9C
:10C850003C493A480FF09CFB38480EF06FFD3D49CB
:10C8600039480FF095FB374937480FF091FB6420AA
:10C8700019F002FA57E00FF08BFBBDF800203649A3
:10C880002E480FF085FB2F492C480FF081FB2B48D9
:10C890000EF054FDBDF800202F492B480FF078FB17
:10C8A000284929480FF074FB642019F0E5F99DF838
:10C8B0000830AA2B3AD101989421FDF75FFA05467A
:10C8C000BDF80030254CAB424ED01A4A1A491B48DD
:10C8D0000FF05EFBBDF80030214918482A460FF0E2
:10C8E00057FB184915480FF053FB14480EF026FD6E
:10C8F000BDF800301A4914482A460FF049FB114987
:10C9000011480FF045FB642019F0B6F947F2305298
:10C91000AA23C4E90123134BE3600423A4F88E3057
:10C92000FFF758FB0026304667B0F0BD0025C7E78B
:10C930006ED8002050390700812F070070E30020D7
:10C940001E3B0700487A0700D4E30020C03C0700E4
:10C950004FE400203B3B0700673B0700FCA20020A0
:10C96000753B070001020304019B63609DF80930D9
:10C97000022B40F2EC80954A954996480FF008FB4F
:10C980009DF80920944993480FF002FB9349914880
:10C990000FF0FEFA8F480EF0D1FC9DF809208E4969
:10C9A0008F480FF0F5FA8D498D480FF0F1FA6420A9
:10C9B00019F062F900236372FFF70CFBBDF88E20BB
:10C9C000BDF80A306381802A40F2C3807F4A8049E3
:10C9D00080480FF0DDFABDF88E2082497D480FF0C7
:10C9E000D7FA7E497B480FF0D3FA7A480EF0A6FCBE
:10C9F000BDF88E207B497A480FF0CAFA774978480B
:10CA00000FF0C6FA642019F037F900232373A4F855
:10CA10008E306E4A6E496F48734F744D0FF0B8FAFE
:10CA2000626873496B480FF0B3FA6C4969480FF0BC
:10CA3000AFFA68480EF082FC62686D4968480FF0F2
:10CA4000A7FA664966480FF0A3FA642019F014F9B2
:10CA50005E4A5F495F480FF09BFA627A65495D481C
:10CA60000FF096FA5D495B480FF092FA59480EF0C4
:10CA700065FC627A5F495A480FF08AFA574958486C
:10CA80000FF086FA642019F0F7F8504A50495148DF
:10CA90000FF07EFAA27A58494E48002A14BF3A464F
:10CAA0002A460FF075FA4D494A480FF071FA494885
:10CAB0000EF044FCA27A50494948002A14BF3A4675
:10CAC0002A460FF065FA454945480FF061FA64209F
:10CAD00019F0D2F83D4A3E493E480FF059FAE27A41
