:020000022000DC
:1070000000000420B1B10300D9B10300DBB10300DB
:10701000DDB10300DFB10300E1B1030000000000B7
:10702000000000000000000000000000E3B10300C9
:10703000E5B10300000000000000000000000000B7
:1070400075A00500E7B10300F5BE05004DA60500DB
:10705000E7B10300B59C05008D9A0500A5820600E6
:10706000E7B103008DA50500A1A50500E7B1030068
:10707000E7B10300E7B10300E7B10300E7B10300A4
:10708000A98F06008D720500E7B10300E7B1030088
:10709000E7B10300E7B103002D790600E7B1030073
:1070A000E7B10300E7B10300B5A50500C9A50500D8
:1070B000E7B10300E7B1030000000000000000009A
:1070C000E7B10300E7B10300E7B10300E187060081
:1070D000A5A20500E7B10300E7B1030005BC050068
:1070E0007DBC0600E7B10300BDE306000000000020
:1070F00000000000E7B1030000000000B18B0600B3
:10710000000000000000000000000000000000007F
:10711000000000000000000000000000000000006F
:10712000000000000000000000000000000000005F
:10713000000000000000000000000000000000004F
:10714000000000000000000000000000000000003F
:10715000000000000000000000000000000000002F
:10716000000000000000000000000000000000001F
:10717000000000000000000000000000000000000F
:1071800000000000000000000000000000000000FF
:1071900000000000000000000000000000000000EF
:1071A00000000000000000000000000000000000DF
:1071B00000000000000000000000000000000000CF
:1071C00000000000000000000000000000000000BF
:1071D00000000000000000000000000000000000AF
:1071E000000000000000000000000000000000009F
:1071F000000000000000000000000000000000008F
:1072000010B5054C237833B9044B13B10448AFF3E0
:1072100000800123237010BDC0D4002000000000B6
:10722000382C080008B5034B1BB103490348AFF3E2
:10723000008008BD00000000C4D40020382C0800E5
:10724000154B002B08BF134B9D46A3F5803A002138
:107250008B460F461348144A121A11F005FC0F4BC7
:10726000002B00D098470E4B002B00D098470020F1
:10727000002104000D000D48002802D00C48AFF397
:10728000008011F0A1FB2000290011F027F911F076
:1072900087FB00BF00000800000004200000000081
:1072A00000000000C0D400209CC6012000000000A7
:1072B000000000000022C0E900220172704738B5CA
:1072C0000446006820B1856913F0A8FE2846F9E756
:1072D000204638BD006820B143688B4201D08069E8
:1072E000F9E77047F8B504460F4616461D46FFF706
:1072F000F1FF20B10123826005704370F8BD1C20AE
:1073000013F090FE012343700023C0E90333C0E96A
:10731000053323680570C0E9017613B92060606009
:10732000ECE763689861FAE72DE9F8430468164FC3
:1073300005460E464FF000081CB363680BB9A469FC
:10734000FAE72378002BFAD0E368A268F31A9A428E
:1073500002D961780029F2D09B1A636184F8018018
:10736000E66015F0A3FD63688146984715F09EFD21
:107370003B68A0EB0900206118442B7A3860002B91
:10738000DDD0BDE8F88300BFDCD4002008B5074B92
:1073900050B103221A700648FA22012115F0E3F9D0
:1073A000044B00221A7008BD0522F3E7E0D4002048
:1073B00071E400202DD60020054B064800221A70EB
:1073C000054B08221A700121FA2215F0CCB900BF32
:1073D0002DD6002071E40020E0D4002084B004AB5E
:1073E00003E907000B4BBDF90A201A800A4B9DF9EF
:1073F0000C201A70094A0A48136801331360094BBC
:1074000000221A70084B0121FA22197004B015F0FD
:10741000AAB900BF12D5002014D5002028D600201C
:1074200071E400202DD60020E0D40020124B002271
:107430001A70124B5B7A022B1DD0114B90F906206B
:107440001A70104BB0F904201A800F4A0378137099
:107450000E4A417811700E4A817811701BB10D4AA5
:107460001368013313600C4B0C4804221A7001217D
:10747000FA2215F078B970472DD6002000A300201D
:1074800014D5002012D5002017D6002015D60020D4
:1074900016D6002024D60020E0D4002071E400207D
:1074A00010B5044608F042FE204610BD08B5064B54
:1074B0001B783BB115F0F5FCBDE8084001460348D8
:1074C000FFF732BF08BD00BF59D8002018D60020F2
:1074D0001F4B07B501221F481A7014F0F0FE18B1B7
:1074E0001D48002114F0B5FE1C4815F039F81C4960
:1074F0001C4814F047FF1C491A4814F053FF1B495D
:10750000184814F047FF1A49164814F053FF194958
:10751000144814F057FF0021174814F091FF002180
:10752000164814F0FBFF3223012200930D480A2372
:10753000114614F0E6FE124BDB7A33B10121222012
:1075400003B05DF804EB15F0A0BC03B05DF804FBDC
:10755000A1A10020E4E40020CEE40020CDE400203E
:107560004D8F0200A9E40020519002008D730200AB
:107570002D740200FD900200B1E40020CBE4002055
:1075800000A3002010B50B4C00212046FFF792FE0F
:107590002046094C094A0A4911F0EAF9FF21204620
:1075A00008F0B8FD2046054A0649BDE8104011F034
:1075B000DFB900BF18D6002004D5002090A100201C
:1075C000BF720200A17402002DE9F043A34DA44E46
:1075D000A44CDFF80083002301272F703370637AF7
:1075E000022B85B040F0E9819F4808F0A6FDE37AC0
:1075F000002B00F071819D4A98F800301178914677
:10760000002940F0FF805BB1994B1B7843B906F02D
:1076100069FF9848394607F027FC974806F004FFB1
:1076200006F0A6F9002858D0944B1B78F3B9944A79
:107630009449954815F076FB9449934815F072FBF0
:107640009349914815F06EFB8F4814F041FD8F4926
:10765000904815F067FB8E498E4815F063FB642057
:107660001FF0D6F98C48012114F067FFB4F88E00A2
:1076700005F06AFF70B37C4808F062FD03907A4819
:1076800008F060FD01240246CDE9004403998348D7
:10769000234614F051FE0746E0B9794A79497A4801
:1076A00015F040FB7E49784815F03CFB7849764858
:1076B00015F038FB744814F00BFD7949754815F046
:1076C00031FB7349734815F02DFB64201FF0A0F9BE
:1076D0002F70347005B0BDE8F083724A117809BB91
:1076E000714B1B7803F0FF07E3B901235E4889F86B
:1076F000003008F022FD6D4B6D481F8041F288324A
:107700006368B3FBF2F36B4A13806B4B1F706B4BD8
:1077100040F6C4121F7003213B4605B0BDE8F0439C
:1077200015F021B80023137098F800304BB1504B7E
:107730001B7833B96249634811F02DFF614806F0A8
:1077400073FE002300931A4619464748B7EE000A15
:1077500008F016FC494B1B78F3B95B4A49494A4883
:1077600015F0E0FA4949484815F0DCFA484946481E
:1077700015F0D8FA444814F0ABFC4449454815F0DC
:10778000D1FA4349434815F0CDFA64201FF040F97F
:107790004148012114F0D1FEB4F88E0005F0D4FE6A
:1077A000002897D0304808F0CBFC03902E4808F012
:1077B000C9FC01240246CDE9004403993748234619
:1077C00014F0BAFD002840F0F6803F4A28702D4999
:1077D0002D4815F0A7FA32492B4815F0A3FA2C4989
:1077E000294815F09FFA284814F072FC2C492948C2
:1077F00015F098FA2649274815F094FA64201FF0EE
:1078000007F966E75BB11A4B1B7843B906F06AFECD
:107810001848394607F028FB2C4806F005FE184AA0
:107820001849194815F07EFA2949174815F07AFACF
:107830001749154815F076FA134814F049FC244905
:10784000144815F06FFA1249124815F06BFA6420CB
:1078500005B0BDE8F0431FF0DBB800BF2DD6002017
:10786000D4A3002000A3002004D500200CD50020C4
:1078700058D8002058390700693907002CD6002055
:10788000843907008839070090E300208E3907000B
:1078900088890700F4E30020CCE40020A9E400205C
:1078A0009B39070002D50020E1D4002078D80020C1
:1078B00071E400207AD80020A8D80020A9D80020A0
:1078C000B739070015D50020CD390700D239070098
:1078D000E63907000ED5002098F800305BB1AC4BBC
:1078E0001B7843B906F0FEFDAA48394607F0BCFAFA
:1078F000A94806F099FD002300931A461946A748A7
:10790000B7EE000A08F03CFBA54B1B78F3B9012148
:10791000A44814F012FEA44AA449A54815F002FA9E
:10792000A449A34815F0FEF9A349A14815F0FAF9B6
:107930009F4814F0CDFB9F49A04815F0F3F99E49EC
:107940009E4815F0EFF964201FF062F8B4F88E003D
:1079500005F0FAFD00283FF4BDAE904808F0F0FBBA
:1079600003908E4808F0EEFB01230246CDE9003378
:107970000399934814F0E0FC044600287FF4AAAE73
:10798000894A8A498A4815F0CDF98E49884815F008
:10799000C9F98949864815F0C5F9854814F098FB5E
:1079A0008849864815F0BEF98349844815F0BAF92C
:1079B00064201FF02DF82C708CE698F8003073B11D
:1079C000734B93F80080B8F1000F08D106F08AFDE0
:1079D0007D48394607F048FA7C4B83F800806F48B1
:1079E00008F0ABFB7A4814F0B7FD002800F00681E0
:1079F000784814F03BFD002800F0AA8001212420E3
:107A000015F043FA684A6949694815F08BF97249DB
:107A1000674815F087F96849654815F083F96448A7
:107A200014F056FB6C49654815F07CF962496348CF
:107A300015F078F964201EF0EBFF684B1B78002BE3
:107A40004DD0674806F0F0FC554B1B78F3B9564A09
:107A50005649574815F066F95649554815F062F9E8
:107A60005549534815F05EF9514814F031FB51491E
:107A7000524815F057F95049504815F053F9642011
:107A80001EF0C6FF4748012114F057FDE37A6BB39F
:107A900005F06EFF20B9534A00231360524A136069
:107AA0003E4808F04DFB80B205F04EFD00283FF443
:107AB00011AE3A4808F044FB0390384808F042FB06
:107AC00001240246CDE9004403993D48234614F0C1
:107AD00033FC00287FF4FEAD334A287077E63B4B39
:107AE0001B780BB14148ADE74148ABE7B4F88E00D5
:107AF00005F02AFD00283FF4EDAD0127CDE9007720
:107B00003C4A94F88E102E48022314F015FC0028ED
:107B10007FF4E0AD244A25492870254815F002F984
:107B20002849234815F0FEF82349214815F0FAF8B2
:107B30001F4814F0CDFA2349204815F0F3F81E49E8
:107B40001E4815F0EFF864201EF062FF3770C1E5A3
:107B5000154A16492870164815F0E4F826491448C5
:107B600015F0E0F81449124815F0DCF8104814F04C
:107B7000AFFA2149114815F0D5F80F490F4815F013
:107B8000D1F864201EF044FF01233370A2E500BF4A
:107B900058D8002058390700FA39070004D50020CA
:107BA0002CD60020CCE40020843907008839070057
:107BB00090E300208E39070088890700F4E3002055
:107BC000A9E400209B390700063A070002D50020EF
:107BD000CDE40020B4E40020173A0700E1D40020EF
:107BE000233A07008CD8002088D80020343A0700B8
:107BF000433A07000CA30020513A0700012123203B
:107C000015F043F9134A1449144815F08BF8144938
:107C1000124815F087F81349104815F083F80F48FB
:107C200014F056FA0E49104815F07CF80D490E482C
:107C300015F078F864201EF0EBFE0C4806F0F4FB1B
:107C400001230B4A94F88E100A4814F020FB0123FC
:107C50002B703FE5843907008839070090E3002046
:107C60006F3A070088890700F4E30020433A0700D1
:107C70000CA30020CEE400202DE9F04F2DED028B67
:107C800000218BB0764E0446242015F0FEF800212A
:107C9000232015F0FAF833788BB1724B1B7873B947
:107CA00006F020FC704B71485B7A022B0CBF7049C8
:107CB000704911F070FC6D48012107F0D5F8FCB94E
:107CC0006D4A6E496E4815F02DF86E496C4815F0F6
:107CD00029F86D496A4815F025F8694814F0F8F953
:107CE00068496A4815F01EF86749684815F01AF89F
:107CF00064201EF08DFE0BB0BDEC028BBDE8F08F52
:107D00002278012A40F02282614B624F1B78624D3B
:107D1000002B2FD0614B1B78002B00F0988007F0D0
:107D2000D9F95F4A5F4B1188198091789970117960
:107D3000D970517919719179D27959719A71012259
:107D4000DA71594900221A720968D96057490968DD
:107D500019611A755A75398849B29975297849B2E5
:107D6000D9751A835A839A83514A126812B2DA83F8
:107D700007F010FE33784F4E002B00F0FF80394B98
:107D80001C78002C40F0FA804B49384811F003FC75
:107D9000364907A814F040FE07AA2146204606F0FF
:107DA000BDFB07A814F0F2FD326844492F4811F0DA
:107DB000BBFB2E4907A814F02FFE07AA214601207D
:107DC00006F0ACFB07A814F0E1FD3D4814F0F9F90A
:107DD0004BF078F820A3D3E900234BF017FA0B46B9
:107DE00002463849214811F09FFB204907A814F0AA
:107DF00013FE07AA2146022006F090FB07A814F004
:107E0000C5FD314814F0EEF930490246174811F02B
:107E10008BFB164907A814F0FFFD07AA2146032093
:107E200006F07CFB07A814F0B1FD294814F0EBF92B
:107E3000092800F24981DFE810F04D0035013701D3
:107E400039013B013D013F0141014301450107F07B
:107E5000B9FA66E7AFF300800000000080842E418D
:107E60000ED5002058D8002000A3002015D50020F2
:107E700058390700063A0700843907008839070097
:107E800090E30020833A070088890700F4E300208C
:107E90000FD5002012D5002014D5002034DB00209F
:107EA0002CDB0020A4A1002088D800208CD8002042
:107EB00024D6002028D60020903A07009E3A0700DA
:107EC000D9E4002075420700DAE40020F44D0700F1
:107ED000DBE40020804905A811F05DFB7F4814F029
:107EE00092F97F4B7F4953F820207F4811F01CFB0B
:107EF0007D4907A814F090FD07AA4021032006F051
:107F00000DFB07A814F042FD784814F08DF978496C
:107F1000421D754811F008FB734907A814F07CFD59
:107F200007AA4021022006F0F9FA07A814F02EFD56
:107F30003A8870496C4812B211F0F6FA6A4907A8FB
:107F400014F06AFD07AA0021042006F0E7FA07A84A
:107F500014F01CFD2A786849634852B211F0E4FA23
:107F6000614907A814F058FD07AA4021042006F033
:107F7000D5FA07A814F00AFD06F0EAFA5F4A60494C
:107F8000604814F0CFFE60495E4814F0CBFE5F49B4
:107F90005C4814F0C7FE5B4814F09AF85A495C48F4
:107FA00014F0C0FE59495A4814F0BCFE64201EF07B
:107FB0002FFD524A5249534814F0B4FE32683B88B0
:107FC0002978504849B21BB20091524914F0AAFED8
:107FD0004E494C4814F0A6FE4A4814F079F832682D
:107FE0003B8829784A4849B21BB20091494914F0AC
:107FF00099FE4649464814F095FE64201EF008FD9F
:108000003E4A3F493F4814F08DFE434814F0D9F8EA
:1080100008EE100A414814F0E5F806462F4814F01F
:10802000F2F8F8EE487A054617EE900A4AF06CFF2F
:1080300027A3D3E900234BF0E9F87D2405FB044591
:1080400002460B46CDE9006535492E4814F06AFE1C
:108050002E492C4814F066FE2A4814F039F82E48B0
:1080600014F0AFF808EE100A2C4814F0BBF80546DF
:108070001A4814F0C8F8F8EE487A064617EE900A47
:108080004AF042FF12A3D3E900234BF0BFF806FBEE
:10809000044402460B46CDE9005421491C4814F023
:1080A00041FE21E61F4916E71F4914E71F4912E761
:1080B0001F4910E71F490EE71F490CE71F490AE750
:1080C0001F4908E71F4906E71F4904E7AFF300808F
:1080D0000000000080842E41B23A0700DBE400205B
:1080E00078A20020E83A070015D50020DCE4002043
:1080F0000D4E0700993C0700A43C07008439070097
:108100008839070090E30020EE3A070088890700CD
:10811000F4E30020FB3A0700D9E40020DAE4002071
:10812000163B0700B63A0700BA3A0700BE3A070006
:10813000C23A0700C73A0700CD3A0700D33A070012
:10814000D93A0700DF3A0700E43A0700814B1B7871
:10815000022B40F0A680804B00221A707F4B1B78C8
:10816000002B2FD07E4B1B78002B64D006F0B2FF83
:108170007C4B7D4C1A8822809A78A2701A79E27022
:108180005A7922719A79DB796271A371774A7848BA
:108190000023E37123721268E260764A126822615A
:1081A00023756375A375E37523836383A383724B80
:1081B0001B681BB2E38314F06DF940B284F8200011
:1081C00007F0E8FB3378002B3FF495AD6B4B1C7840
:1081D000002C7FF490AD6A496A486B4D11F0DBF9D1
:1081E000684907A814F018FC07AA2146204606F0A3
:1081F00095F907A814F0CAFB2A686449614811F090
:1082000093F9604907A814F007FC07AA2146022049
:1082100006F084F907A814F0B9FB2B68013B0F2B7B
:108220003DD8DFE803F00B1E20222426282A2C2E1E
:1082300030323436383A07F0C5F899E75449514896
:1082400011F0A9F94F4907A814F0E6FB07AA00218D
:10825000042006F063F907A814F098FB06F078F9FB
:1082600049E54C49EBE74C49E9E74C49E7E74C491C
:10827000E5E74C49E3E74C49E1E74C49DFE74C4986
:10828000DDE74C49DBE74C49D9E74C49D7E74C4996
:10829000D5E74C49D3E74C49D1E74C49CFE74C49A6
:1082A000CDE7032A40F0A0803378002B3FF423ADC4
:1082B000324B1E78002E7FF41EAD464C657A002DA1
:1082C00034D0022D3FD04FF47A7362684249B2FB3A
:1082D000F3F22C4811F028F92A4907A814F09CFB66
:1082E00007AA0021012006F019F907A814F04EFB97
:1082F0003A4907A814F090FB002107AA022006F0D3
:108300000DF907A814F042FB27491E4811F043F964
:108310001C4907A814F080FB002107AA032006F0DF
:10832000FDF807A814F032FB2C498CE72C4907A86C
:1083300014F072FB07AA2946084606F0EFF807A8D2
:1083400014F024FBBFE7274907A814F065FB07AA30
:108350003146F1E7E0D400202DD600200FD50020D3
:1083600034DB00202CDB0020A4A1002088D80020D2
:10837000B8E400208CD8002024D6002058D8002053
:108380007C3E070015D5002030D60020293B070091
:10839000333B0700413B07004C3B0700583B0700BD
:1083A000643B07006E3B0700783B0700843B0700F7
:1083B000983B0700AB3B0700BB3B0700C83B0700EF
:1083C000D23B0700E23B0700F03B0700FC3B070005
:1083D0000D3C070000A300203C3C0700FBED07001C
:1083E0001B3C07002A3C0700042A40F03382AD4BB7
:1083F000AD4D1B78DFF82893DFF82883AB4F002BB7
:108400003DD0AB4B1B78002B00F0978106F062FE4D
:10841000A84BA94C1A8822809A78A2701A79E27027
:108420005A7922719A79DB796271A3710023E37121
:1084300098F80020A148D2B22272A14A1268E260E4
:10844000A04A126822612A8852B222752A8852B242
:1084500062752A8852B2A27599F8002052B2E2756C
:10846000238363833B78A383974B1B681BB2E3830F
:1084700014F010F840B284F8200007F08BFA33783B
:10848000DFF8A4A2914C002B00F0A380904B1E7843
:10849000002E40F09E808F4B21788F4A8F48002914
:1084A00018BF1A468E4911F03FF88C4907A814F0FE
:1084B000B3FA07AA3146304606F030F807A814F0A0
:1084C00065FA227802F0FF0B002A40F039813A78F1
:1084D0008449824811F028F8804907A814F09CFAD2
:1084E00007AA5946012006F019F807A814F04EFA19
:1084F000724813F0CFFF7C490246784811F014F817
:10850000764907A814F088FA07AA5946022006F00F
:1085100005F807A814F03AFA98F8002073496F4854
:1085200011F002F86D4907A814F076FA07AA402165
:10853000022005F0F3FF07A814F028FADAF800206B
:108540006B49664810F0F0FF644907A814F064FA1C
:1085500007AA5946032005F0E1FF07A814F016FA10
:10856000594B64491A685D4810F0DEFF5B4907A863
:1085700014F052FA07AA4021032005F0CFFF07A804
:1085800014F004FA2A885C49544812B210F0CCFF67
:10859000524907A814F040FA07AA5946042005F0EA
:1085A000BDFF07A814F0F2F999F8002053494B4891
:1085B00052B210F0B9FF494907A814F02DFA04206F
:1085C00007AA402105F0AAFF07A814F0DFF905F07B
:1085D000BFFF4B4A4B494C48DFF8FCB03D4E14F00E
:1085E000A1FB227849494848002A0CBF5A46324626
:1085F00014F098FB4649444814F094FB424813F0A9
:1086000067FD227841494348002A0CBF5A4632464A
:1086100014F088FB3E493F4814F084FB64201EF0B0
:10862000F7F9374A3749384814F07CFBDAF800206C
:108630002B8899F80010344849B21BB20091364992
:1086400014F070FB3249304814F06CFB2E4813F0E4
:108650003FFDDAF800202B8899F800102D4849B228
:108660001BB200912C4914F05DFB2949294814F0F4
:1086700059FB64201EF0CCF9214A2249224814F00B
:1086800051FB98F8002025493B781F4814F04AFB1D
:108690001F491D4814F046FB1B4813F019FD98F8BC
:1086A000002043E00FD5002012D5002015D6002071
:1086B00034DB00202CDB0020A4A10020B8E4002043
:1086C00088D800208CD8002024D6002017D600207F
:1086D00058D800207F3A07002A40070015D500200F
:1086E0004F3C0700603C0700743C07007D3C0700DE
:1086F000863C07008E3C0700963C0700A13C070023
:10870000843907008839070090E30020533C0700B4
:1087100088890700F4E30020FB3A0700C93C070002
:1087200014D5002016D6002028D600206B493B78AF
:108730006B4814F0F7FAFFF7D7BA06F043FE67E686
:10874000DAF800206749684810F0EEFE664907A88D
:1087500014F062F907AA3146012005F0DFFE07A8F0
:1087600014F014F9614B62491A685F4810F0DCFE9E
:108770005D4907A814F050F907AA4021012005F02F
:10878000CDFE07A814F002F922785A49564810F095
:10879000CBFE554907A814F03FF907AA314602203D
:1087A00005F0BCFE07A814F0F1F82378013B0F2B6D
:1087B0004ED8DFE803F0082F31333537393B3D3FE2
:1087C00041434547494B4C49474810F0E4FE464970
:1087D00007A814F021F907AA0021032005F09EFE46
:1087E00007A814F0D3F8454813F054FE4449024654
:1087F0003D4810F099FE3C4907A814F00DF907AA6E
:108800000021042005F08AFE07A814F0BFF805F047
:108810009FFEDCE63B49D7E73B49D5E73B49D3E739
:108820003B49D1E73B49CFE73B49CDE73B49CBE764
:108830003B49C9E73B49C7E73B49C5E73B49C3E774
:108840003B49C1E73B49BFE73B49BDE73B49BBE784
:108850003B49B9E7052A40F083803378002B3FF489
:108860004AAA384B1B78002B7FF445AA364C657A10
:1088700025B3022D2FD04FF47A7362683349B2FBCF
:10888000F3F2194810F050FE174907A814F0C4F885
:1088900007AA0021012005F041FE07A814F076F890
:1088A0002B4907A814F0B8F8002107AA022005F008
:1088B00035FE07A814F06AF8264926E5264907A8D8
:1088C00014F0AAF80021084607AA05F027FE07A819
:1088D00014F05CF8CFE72149F1E700BFC93C07007D
:1088E000F4E30020863C070015D5002024D60020A4
:1088F0008E3C0700AB3C0700333B0700B8E4002088
:10890000C03C0700413B07004C3B0700583B0700B9
:10891000643B07006E3B0700783B0700843B070081
:10892000983B0700AB3B0700BB3B0700C83B070079
:10893000D23B0700E23B0700F03B0700FC3B07008F
:108940000D3C070058D8002000A300203C3C070045
:10895000FBED0700E13C07001B3C07002A3C070039
:10896000062B40F0E781B14BB1499A78DD781C794C
:1089700093F805B0AF485F78C83A92B20292C5EB5F
:10898000451205EB8205C4EB441204EB82044FFA56
:108990008BFAA94A14F0C6F95246A849A54814F022
:1089A000C1F9A749A34814F0BDF9A24813F090FB00
:1089B0005246A249A34814F0B5F9A149A14814F0C0
:1089C000B1F964201EF024F8C83F9B4A98499948A1
:1089D00014F0A8F9BFB2BDF908809B4995480FFA79
:1089E00087F943464A4614F09DF99549914814F099
:1089F00099F9904813F06CFB43464A4692499148D6
:108A000014F090F98E498F4814F08CF96D006420B1
:108A100064001DF0FDFF2DB2874A8549854824B2C8
:108A200014F080F923462A468849824814F07AF9DE
:108A30008349804814F076F97E4813F049FB2346B9
:108A40002A4682497F4814F06DF97D497D4814F02B
:108A500069F964201DF0DCFF7D4B1B78002B3CD0B6
:108A60007C4B1B78002B00F03A8106F033FB7A4AEE
:108A70007A4B11881980917899701179D970517950
:108A800019719179D27959719A710222DA71744A05
:108A900083F808B01268DA60724A734812681A6183
:108AA0007FB29DF908201F755A75704A128852B21C
:108AB0009A756F4A127852B2DA7500221D835C8370
:108AC0009A836C4A126812B2DA8313F0E3FC634BA8
:108AD00040B283F8200006F05DFF3378002B3FF4AE
:108AE0000AA9654B1E78002E7FF405A905F0FAFC53
:108AF0006248012106F0B8F95D4B61491A785B4B79
:108B000060481B8852B21BB210F00EFD5D4907A8E9
:108B100013F082FF07AA3146304605F0FFFC07A894
:108B200013F034FF52465849564810F0FDFC5549A1
:108B300007A813F071FF07AA3146012005F0EEFCEB
:108B400007A813F023FF514907A813F065FF07AAF0
:108B50003221012005F0E2FC07A813F017FF4C4971
:108B600007A813F059FF07AA5021012005F0D6FCF1
:108B700007A813F00BFF474907A813F04DFF07AAFA
:108B80003146022005F0CAFC07A813F0FFFE424957
:108B900007A813F041FF07AA3146032005F0BEFCE9
:108BA00007A813F0F3FE4A463C49364810F0BCFCD7
:108BB000344907A813F030FF07AA3221022005F03C
:108BC000ADFC07A813F0E2FE424634492D4810F0F0
:108BD000ABFC2C4907A813F01FFF07AA3221032082
:108BE00005F09CFC07A813F0D1FE2D4BDF7A002F77
:108BF00078D02A462949234810F096FC214907A835
:108C000013F00AFF07AA5021022005F087FC07A8ED
:108C100013F0BCFE224621491A4810F085FC194980
:108C200007A813F0F9FE07AA50213BE0E2D4002088
:108C30008839070090E3002084390700F73C0700DB
:108C400088890700F4E30020143D07002C3D07004D
:108C50000FD5002034DB00202CDB0020A4A1002055
:108C600088D800208CD80020B8E4002012D500203D
:108C700014D5002024D6002058D80020483D0700F5
:108C8000583D070015D500206F3D0700369A0700B4
:108C90007A3D0700833D0700873D0700713C0700D0
:108CA00000A30020032005F039FC07A813F06EFE96
:108CB0008B4B18688B4B1C684AF026F902460B4612
:108CC000CDE9022320464AF01FF9DDE90223CDE970
:108CD00000018549854810F027FCFFF7B3BA06F07C
:108CE00071FBC4E68249814810F055FC7F4907A812
:108CF00013F092FE07AA5021022005F00FFC07A8EE
:108D000013F044FE794907A813F086FE07AA502104
:108D1000032005F003FC07A813F038FE75497348DB
:108D200010F039FC714907A813F076FE07AA3946FE
:108D3000FFF78EBA072B7DD16F4A7049704813F048
:108D4000F1FF70496E4813F0EDFF6F496C4813F066
:108D5000E9FF6B4813F0BCF96A496C4813F0E2FF75
:108D600069496A4813F0DEFF64201DF051FE684B2C
:108D70001B78002B30D0674B1B78002B57D006F0A8
:108D8000A9F9654B654C1A8822809A78A2701A79E5
:108D9000E2705A7922719A79DB796271A3710223A8
:108DA000E3714F4A5E48002323721268E2604D4A25
:108DB0001268226123756375A375E375238363834A
:108DC000A383584B1B681BB2E38313F063FB40B2D1
:108DD00084F8200006F0DEFD3378002B3EF48BAFE4
:108DE000514B1C78002C7EF486AF05F07BFB4F487E
:108DF000012106F039F84E493C4810F0CCFB3B49C4
:108E000007A813F009FE07AA2146204605F086FBB5
:108E100007A813F0BBFD324B1868324B1D684AF0AF
:108E200073F802460B46CDE9022328464BE706F0CD
:108E3000C9FAA6E7082B7EF45EAF3E4B5D7A35B1EA
:108E4000012D29D03C4B00221A70FEF754BF05F0CB
:108E500049FB3A48012106F007F8394907A813F001
:108E6000DBFD002107AA084605F058FB07A813F010
:108E70008DFD34491D4810F08EFB1C4907A813F0E6
:108E8000CBFD07AA0021032005F048FB07A813F03B
:108E90007DFD05F05DFBD5E73378002BD2D0224B6A
:108EA0001C78002CCED105F01DFB2448294605F086
:108EB000DBFF254907A813F0AFFD07AA214620468E
:108EC00005F02CFB07A813F061FD1E49074810F0C0
:108ED00062FB064907A813F09FFD07AA2146D2E7C7
:108EE00088D800208CD800208B3D070015D50020A5
:108EF000A03D0700973D0700843907008839070027
:108F000090E30020A33D070088890700F4E30020D8
:108F10000FD5002034DB00202CDB0020A4A1002092
:108F2000B8E4002024D6002058D80020483D07008F
:108F3000C03D070000A300202DD60020063A070000
:108F40001B3C070009470700903A070070B5304BFB
:108F5000B0F90A201A802F4B90F90C201A702E4B72
:108F600042781A702D4A1368013313602C4B00228B
:108F70001A7003780446E3B92A4A2B492B4813F0A8
:108F8000D1FE2B49294813F0CDFE2A49274813F07A
:108F9000C9FE264813F09CF82549274813F0C2FE65
:108FA0002449254813F0BEFEBDE8704064201DF042
:108FB0002FBD224A527A022A28D1022B0FD1204DEE
:108FC000027A41681F4806232B700FF03FFD2B46A5
:108FD0001D48BDE87040FA22012113F0C4BB114ABC
:108FE0001149124813F09EFE227818490F4813F0D9
:108FF00099FE10490D4813F095FE0C4813F068F8DF
:10900000227812490C4813F08DFEC9E770BD00BFED
:1090100012D5002014D5002010D5002028D600201D
:109020002DD60020D53D07008839070090E30020A9
:10903000DB3D070088890700F4E3002000A300203F
:10904000E0D40020E2D4002071E40020E33D0700DA
:1090500070B51E4C0546002835D01D4B1D491E48D5
:1090600000221A701D4A13F05DFE2A461C491A4858
:1090700013F058FE1B49184813F054FE164813F01D
:1090800027F82A461649184813F04CFE1549164889
:1090900013F048FE64201DF0BBFC144B1D60144B04
:1090A0005B7A022B134B1A6802F101021A600CBFA3
:1090B00007230223237010482346FA22BDE870409C
:1090C000012113F050BB0823F4E700BFE0D40020D7
:1090D0002DD600208839070090E30020843907004E
:1090E000F23D070088890700F4E3002030D6002015
:1090F00000A3002024D6002071E4002030B5504A9F
:109100005049514D99B00446504813F00BFE224689
:109110004F494E4813F006FE4E494C4813F002FEEC
:109120004A4812F0D5FF224649494B4813F0FAFD50
:109130004849494813F0F6FD64201DF069FC297880
:1091400000297AD101231A2208A82B7007910FF069
:109150008BFC05A82CF02EF80598404C00F5E0405B
:109160000FA96E302CF09AF8149B3D4903F26C73F2
:109170000393129B0293139B013301930F9B009364
:1091800007A8DDE9103210F0CFF92D4A2D492F48FC
:1091900013F0C8FD07AA33492C4813F0C3FD2D492D
:1091A0002A4813F0BFFD294812F092FF07AA2D4963
:1091B000294813F0B7FD2749274813F0B3FD642071
:1091C0001DF026FC149B03F26C732380139B013368
:1091D000A370129B2371119B6371109BA3710F9B52
:1091E000E371214B1B7843B3154A1649174813F016
:1091F00099FD1E49154813F095FD1649134813F0C3
:1092000091FD124812F064FF1849134813F08AFDCB
:109210001049114813F086FD64201DF0F9FB02236C
:109220002B70E3790193A379009363792279A17874
:10923000208806F04DF805F04DFF19B030BD00BF95
:10924000013E0700883907002CD6002090E300205B
:10925000063E070088890700F4E300202CDB00208D
:109260001D3E07002D5D070034DB00203F3E070058
:10927000F0B54FF080432DED028BD3F83834032B3B
:1092800085B020D1364A3749374813F04BFD37496E
:10929000354813F047FD3649334813F043FD324853
:1092A00012F016FF3149334813F03CFD3049314884
:1092B00013F038FD64201DF0ABFB0024204605B000
:1092C000BDEC028BF0BD2C482B4D13F017FA0A248D
:1092D000B0EE408A284613F011FA013C38EE008ABD
:1092E000F8D1B2EE067AC8EE077A1D4A1D491E482B
:1092F0009FED228ADFED226A27EE888ADFED217A50
:1093000068EE277A87EEA67AFCEEC77ACDED037A6F
:109310009DF80C4013F006FD18EE100A49F0F4FD1C
:1093200006460F462246CDE9006717490E4813F05E
:10933000F9FC0F490C4813F0F5FC0B4812F0C8FE7D
:109340002246CDE9006710490A4813F0EBFC0849B2
:10935000084813F0E7FC64201DF05AFBAEE700BF9D
:10936000538D07008839070090E30020553E070021
:1093700088890700F4E300206DE4002000007A44AF
:109380000040834500007F435C3E070007B52B4A41
:109390002B492C4813F0C6FC2B492A4813F0C2FC79
:1093A0002A49284813F0BEFC264812F091FE2649AF
:1093B000274813F0B7FC2549254813F0B3FC642077
:1093C0001DF026FB234B244801221A7012F077FF70
:1093D00018B12248002112F03CFF214813F0C0F8D8
:1093E0002049214812F0CEFF20491F4812F0DAFF31
:1093F0001F491D4812F0CEFF1E491B4812F0DAFF2C
:109400001D49194812F0DEFF00211C4813F018F81E
:1094100002211B4813F082F83223012200931146E7
:109420000A23114812F06DFF164BD97A01B10121C0
:10943000222003B05DF804EB13F027BD8439070048
:109440008839070090E30020763E070088890700EE
:10945000F4E30020A1A10020E4E40020CEE40020F9
:10946000CDE400204D8F0200A9E4002051900200BD
:109470008D7302002D740200FD900200B1E4002003
:10948000CBE4002000A3002008B52B4A2B492C4830
:1094900013F048FC2B492A4813F044FC2A49284879
:1094A00013F040FC264812F013FE2649274813F01B
:1094B00039FC2549254813F035FC64201DF0A8FA35
:1094C000234B24480021197012F0C3FE224812F0E9
:1094D000FAFED0B9184A1949194813F023FC1F495C
:1094E000174813F01FFC1849154813F01BFC1448CB
:1094F00012F0EEFD1949154813F014FC12491348F7
:1095000013F010FC64201DF083FA1549114812F085
:10951000E7FE14490F4812F0EBFE4FF6FD710D48BF
:1095200012F097FE104BD97A01B10121BDE8084035
:10953000222013F0AABC00BF843907008839070035
:1095400090E300208B3E070088890700F4E30020A9
:10955000A1A10020CEE40020E4E400209A3E070010
:10956000DD730200B973020000A300202DE9F04F63
:10957000012187B0222013F071FC0121232013F078
:109580006DFC0121242013F069FCB348B34F13F0A4
:10959000EDFA04F0D3FE3870002800F06A82B0497A
:1095A000B0480FF0F8FFAF48012105F05DFCAE4870
:1095B00004F03AFFAD4804F037FF0021222013F0F9
:1095C00064FC0223AA4806224FF4E13112F086FD22
:1095D0004FF08043D3F83834032B40F06A824FF4C5
:1095E000FA601DF015FA02220092002303ACA14993
:1095F0009C480FF099FF9B49204613F00DFA214635
:109600009D4813F059F8204613F0C0F9012123209A
:1096100013F03BFC0021232013F037FC0021242011
:1096200013F033FC03F02CF8D0B9944A94499048D5
:1096300013F078FB93498E4813F074FB92498C48E1
:1096400013F070FB8A4812F043FD8E498F4813F0E7
:1096500069FB8D498D4813F065FB64201DF0D8F936
:1096600002F0A0FFD0B9854A8549814813F05AFB22
:1096700087497F4813F056FB83497D4813F052FB1E
:109680007B4812F025FD8249804813F04BFB7E4950
:109690007E4813F047FB64201DF0BAF902F098FFF2
:1096A000D0B9764A7649724813F03CFB7949704844
:1096B00013F038FB74496E4813F034FB6C4812F019
:1096C00007FD7449714813F02DFB6F496F4813F083
:1096D00029FB64201DF09CF902F090FFD0B9674A85
:1096E0006749634813F01EFB6B49614813F01AFB8E
:1096F00065495F4813F016FB5D4812F0E9FC6649C6
:10970000624813F00FFB6049604813F00BFB6420C4
:109710001DF07EF903F0EAFCD0B9584A5849544884
:1097200013F000FB5D49524813F0FCFA56495048CB
:1097300013F0F8FA4E4812F0CBFC5849534813F096
:10974000F1FA5149514813F0EDFA64201DF060F927
:1097500000F040FED0B9494A4949454813F0E2FAC1
:109760004F49434813F0DEFA4749414813F0DAFA0B
:109770003F4812F0ADFC4A49444813F0D3FA42493D
:10978000424813F0CFFA64201DF042F9454D464E91
:10979000002000F0FBFC6B7A384A39493448022B30
:1097A00040F0AF8113F0BEFA4049314813F0BAFAE5
:1097B00035492F4813F0B6FA2D4812F089FC3B4981
:1097C000324813F0AFFA3049304813F0ABFA642056
:1097D0001DF01EF9012003F061FF3070337813B1E2
:1097E000334804F021FE05F09FFC324E234A244901
:1097F0003070002800F0A5811D4813F093FA2E491F
:109800001B4813F08FFA2049194813F08BFA1848B7
:1098100012F05EFC28491D4813F084FA1A491B48CF
:1098200013F080FA64201DF0F3F805F053FC94E87F
:1098300003002BF09EFC02F00DFF337813B11F489C
:1098400004F0F2FD05F040FE1D4E3070002840F09F
:10985000C9810A4A0A4935E0ECE400200ED500200F
:10986000063A070015D50020BC3E0700C93E070098
:1098700090E30020E33E070018E40020843907004D
:1098800088390700F93E070088890700F4E30020C3
:10989000203F07004E3F0700783F0700A63F070024
:1098A000CB3F070000A300200DD50020E73F0700B5
:1098B0001140070034DB00201C4007002640070051
:1098C0000FD50020AC4813F02DFAAC49AA4813F08C
:1098D00029FAAB49A84813F025FAA74812F0F8FB7B
:1098E000A649A84813F01EFAA549A64813F01AFA8B
:1098F00064201DF08DF8337813B1A34804F094FD73
:109900006B7A012B00F0B981022B00F0BF81002B94
:109910003ED09E4A9E49984813F004FA9D499648C5
:1099200013F000FA9649944813F0FCF9924812F0AB
:10993000CFFB9849934813F0F5F99149914813F0FA
:10994000F1F964201DF064F83B780BB39249934819
:109950000FF021FE9149204613F05EF800212246C7
:10996000084604F0DBFD204613F010F88C498B48C4
:109970000FF011FE8949204613F04EF822460021CF
:10998000012004F0CBFD204613F000F804F0E0FDC8
:10999000844804F049FD844812F068FD10B98348FA
:1099A00004F042FDFFF7F2FC4FF47A7380496A68D5
:1099B0007A48B2FBF3F20FF0B7FD784804F034FDBB
:1099C0007C4A7D480123002112F0C3FE6A6822B15F
:1099D00000237948194612F0C6FE784A76480023DB
:1099E000012112F0B6FE0023754A7348022112F0DD
:1099F000B0FEAB7A33B1704800234EF660220221EC
:109A000012F0B1FE01236F4A6B48032112F0A1FE50
:109A10006D4B1B785BB1644812F028FD38B93223D6
:109A20000122009369480A23114612F06AFC574A42
:109A30005749514813F076F965494F4813F072F9C8
:109A40004F494D4813F06EF94B4812F041FB604905
:109A50004C4813F067F94A494A4813F063F9642007
:109A60001CF0D6FF01215B4813F0EFF907B0BDE809
:109A7000F08F464A4649404813F054F956493E484B
:109A800013F050F93E493C4813F04CF93A4812F0B3
:109A90001FFB51493B4813F045F93949394813F048
:109AA00041F964201CF0B4FF3B78002B3FF485ADF6
:109AB00075E513F0F6F9DFF8C0A006464FF0000B8D
:109AC00041F287384FF00009504612F0ECFA0028B6
:109AD0007FF489AD13F0E5F9841B6BEB4B05A045D2
:109AE00079EB0503FFF67FAD64201CF091FF232086
:109AF00013F0D0F9B0FA80F14909232013F0C5F929
:109B0000E2E795F80B80B8F1000F7FF44BAE13F04D
:109B100009F93249184813F005F91949164813F0A4
:109B200001F9154812F0D4FA2C49164813F0FAF846
:109B30001349144813F0F6F864201CF069FF4046FE
:109B400049E60D4813F0EEF825490B4813F0EAF802
:109B50000B49094813F0E6F8074812F0B9FA204912
:109B6000084813F0DFF80649064813F0DBF86420D4
:109B70001CF04EFF61E600BF90E300202D4007007F
:109B800088890700F4E3002071400700843907004A
:109B9000883907007C4007009D40070015D500204C
:109BA000AF4007001B3C0700B4E40020BF400700A3
:109BB0003C3C0700C975020071E40020797C02007A
:109BC000A5E5020049DE0200A1A10020A9E40020D1
:109BD000CD40070009E40020D53E0700FB3F070009
:109BE0001940070005F03AFD3070D0B92E4A2F49D0
:109BF0002F4813F097F82F492D4813F093F82E496A
:109C00002B4813F08FF82A4812F062FA29492B48A2
:109C100013F088F82849294813F084F864201CF0D0
:109C2000F7FE214A21492248DFF8AC90DFF8AC80EA
:109C300013F078F8327822491D48002A14BF4A46AA
:109C4000424613F06FF81C49194813F06BF8184896
:109C500012F03EFA32781A491848002A14BF4A46D0
:109C6000424613F05FF81449144813F05BF864207F
:109C70001CF0CEFE02F0D8FC3DE6FFF705FC1148D3
:109C800004F0D2FB104804F0CFFB8DE60F4804F03F
:109C9000CBFB0F4812F0EAFB10B90E4804F0C4FBEE
:109CA000FDF716FC80E600BF8439070088390700FD
:109CB00090E300203E40070088890700F4E300207D
:109CC00054400700F23A0700CD4007002A3C070045
:109CD000B4E40020BF400700B13E0700B63E0700D5
:109CE0007047000002481822002106F039BA00BF70
:109CF00034D600202DE9F04F994C9A4DDFF87CA224
:109D0000DFF87CB289B0204606F07EFB204610EEDC
:109D1000107A06F098FB20468DED050A06F0B2FB9E
:109D2000914A92498DED060A284612F0FBFF204623
:109D300006F06AFB204610EE108A06F065FB3846F6
:109D400010EE106A49F0E0F8894B002249F034F92E
:109D500049F0E2FB07B2404649F0D6F8804630466B
:109D60008946029749F0D0F8814B824E002249F093
:109D700023F942464B46CDE900015146284612F0F0
:109D8000D1FF3146284612F0CDFF284612F0A0F947
:109D9000204606F039FB204610EE108A06F034FB10
:109DA00040468DED070A49F0AFF8079B02978046C1
:109DB0001846894649F0A8F86D4B002249F0FCF896
:109DC0004B464246CDE900015146584612F0AAFFE3
:109DD0003146584612F0A6FF64201CF019FE624A74
:109DE0006249284612F09EFF204606F02CFB2046D2
:109DF00010EE107A06F027FB059810EE10AA49F035
:109E000083F800225A4B49F0D7F849F085FB03B29A
:109E10003846059349F078F8059B029380465046F2
:109E2000894649F071F8524B534FDFF858A1002290
:109E300049F0C2F842464B46CDE900013946284672
:109E400012F070FF3146284612F06CFF284612F0DF
:109E50003FF9204606F0F7FA204610EE108A06F089
:109E6000F2FA40468DED070A49F04EF8059B029341
:109E7000079B80461846894649F046F83C4B00222D
:109E800049F09AF84B464246CDE90001394658461A
:109E900012F048FF3146584612F044FF64201CF08F
:109EA000B7FD314A3149284612F03CFF204606F002
:109EB000E9FA204610EE108A06F0E4FA06988DEDD5
:109EC000050A49F021F82A4B002249F075F849F0BB
:109ED00023FB07B2404649F017F8804605980297E1
:109EE000894649F011F8224B002249F065F84246B4
:109EF0004B46CDE900015146284612F013FF31468A
:109F0000284612F00FFF284612F0E2F8204606F02D
:109F1000B9FA204610EE105A06F0B4FA284610EEB0
:109F2000108A48F0F1FF044640460D46029748F07B
:109F3000EBFF0F4B002249F03FF82246CDE900012C
:109F40002B465146584612F0EDFE3146584612F067
:109F5000E9FE642009B0BDE8F04F1CF059BD00BF18
:109F600034D6002090E30020DB400700883907004A
:109F700000408F4088890700EE400700DF4007005F
:109F8000F4E30020FD40070007B573480DF1070119
:109F9000312206F081FA9DF8073059061BD56F4A29
:109FA0006F49704812F0BEFE9DF807206E496D485B
:109FB00012F0B8FE6D496B4812F0B4FE694812F019
:109FC00087F869499DF80720694812F0ABFE674998
:109FD000674812F0A7FE64201CF01AFD9DF80730B8
:109FE0009A0617D55D4A5E495E4812F09BFE6149AC
:109FF0005C4812F097FE5D495A4812F093FE5948AA
:10A0000012F066F85B495A4812F08CFE57495848DE
:10A0100012F088FE64201CF0FBFC9DF80730DB0684
:10A0200017D54E4A4E494F4812F07CFE52494D48D2
:10A0300012F078FE4D494B4812F074FE494812F078
:10A0400047F84D494A4812F06DFE4849484812F019
:10A0500069FE64201CF0DCFC9DF80730180717D55A
:10A060003E4A3F493F4812F05DFE44493D4812F0E8
:10A0700059FE3E493B4812F055FE3A4812F028F886
:10A080003E493B4812F04EFE3849394812F04AFE2C
:10A0900064201CF0BDFC9DF80730590717D52F4AE6
:10A0A0002F49304812F03EFE35492E4812F03AFE54
:10A0B0002E492C4812F036FE2A4812F009F8304991
:10A0C0002B4812F02FFE2949294812F02BFE64205C
:10A0D0001CF09EFC9DF807309A0717D51F4A2049AF
:10A0E000204812F01FFE27491E4812F01BFE1F4990
:10A0F0001C4812F017FE1B4811F0EAFF21491C48CA
:10A1000012F010FE19491A4812F00CFE64201CF0DF
:10A110007FFC9DF80730DB0717D5104A104911481E
:10A1200012F000FE18490F4812F0FCFD0F490D48CF
:10A1300012F0F8FD0B4811F0CBFF13490C4812F058
:10A14000F1FD0A490A4812F0EDFD64201CF060FCA4
:10A1500003B05DF804FB00BF34D60020DB400700ED
:10A160008839070090E300200C4107008889070028
:10A17000F4E30020234107002A4107003041070093
:10A18000374107003D4107004441070073B50021F6
:10A190000446112012F062FE5D4812F0E7FC5D4BB0
:10A1A0006CB300229A800A22DA804FF481721A81FD
:10A1B00040F201125A81574806F0FEF9054620B3D5
:10A1C000554A5649564812F0ADFD5649544812F0CA
:10A1D000A9FD5549524812F0A5FD514811F078FFEC
:10A1E0005049524812F09EFD4F49504812F09AFDD6
:10A1F00064201CF00DFC0024204602B070BD022239
:10A200009C80DC801A815C81D5E7002C38D02A2222
:10A21000302140488DF80720012605F0E7FF08228D
:10A2200032213C488DF8072005F0E0FF324633210B
:10A2300038488DF8076005F0D9FF24220DF1070199
:10A24000344806F029F99DF80720324822F00C0224
:10A2500042F0080224218DF8072005F0C7FF602294
:10A2600022212C488DF8072005F0C0FF2A46252121
:10A27000284805F0BBFF27483246212105F0B6FFEC
:10A28000002520220DF1070122488DF8075006F025
:10A2900003F99DF807201F4842F0080220218DF89D
:10A2A000072005F0A3FF64201CF0B2FB1E220DF175
:10A2B000070118488DF8075006F0EEF89DF80720C2
:10A2C000144842F090021E218DF8072005F08EFF01
:10A2D00064201CF09DFB4CB1FFF756FE144904228C
:10A2E000112011F0B3FEFFF705FD85E720220DF1E7
:10A2F0000701084806F0D0F89DF80720054802F04D
:10A30000400220218DF80720012405F06FFF73E73C
:10A31000ECE4002034D60020DB4007008839070039
:10A3200090E300204A41070088890700F4E30020F9
:10A33000E19C020010B50023012210F0010F01F191
:10A34000FF311CBF02FA01F4234340080029F4D175
:10A35000184610BD0D4810B5002148F205040B0247
:10A360009BB2082213F4004F02F1FF324FEA43037D
:10A3700018BF634012F0FF029BB2F3D10131B1F577
:10A38000807F20F8023BEAD110BD00BF48D60020F4
:10A390002DE9F0410025DFF8388006460F462C46AF
:10A3A000BD420DDA705D0821FFF7C4FF80EA142377
:10A3B000DBB2013538F8133083EA0424A4B2EFE7A6
:10A3C00010212046FFF7B6FF80B2BDE8F08100BF44
:10A3D00048D6002008B50221092012F03FFD0649A9
:10A3E0000322092011F032FE0449054801236422AA
:10A3F000FCF778FF012008BDE1A9020081AA020054
:10A4000018D600202DE9F04FC74D91B012F049FD4C
:10A41000D5E900230024811A64EB03030091019322
:10A42000DDE9002340F6B8300021904271EB0303D0
:10A43000A346A246A146A0462746264677DB12F051
:10A4400030FDD5E90023811A63EB430302910393A6
:10A45000DDE90223B2F5C87F73F1000373DA12F06D
:10A4600020FDD5E90023811A63EB43030491059392
:10A47000DDE90434B3F5C87F74F1000380F2858010
:10A4800012F00FFDD5E90023811A63EB4303069117
:10A490000793DDE90634B3F5167F74F1000380F20B
:10A4A000998012F0FEFCD5E90023811A63EB430387
:10A4B00008910993DDE90834B3F5487F74F100038E
:10A4C00080F2AE8012F0EDFCD5E90023811A63EB37
:10A4D00043030A910B93DDE90A34B3F5966F74F1E7
:10A4E000000380F2C08012F0DCFCD5E90023811A61
:10A4F00063EB43030C910D93DDE90C34B3F5AF6FBF
:10A5000074F1000380F2D28012F0CBFCD5E9002375
:10A51000811A63EB43030E910F93DDE90E34B3F51B
:10A52000C86F74F1000380F2E280082474E009200F
:10A5300012F0B0FC002882D17C4B1B78002B3FF43A
:10A540007EAF022468E0794B1B78012B87D109206C
:10A5500012F0A0FC012882D10023C82C10D00920C1
:10A56000009312F097FC009B012804BF0133DBB27B
:10A57000012001340093E4B21CF04AFA009BECE79E
:10A58000C62B7FF66CAF002446E0684B1B78022B8D
:10A590007FF476AF092012F07DFC01287FF470AFC4
:10A5A0000024BBF1C80F10D0092012F073FC012861
:10A5B00008BF01344FF001000BF1010B08BFE4B2FA
:10A5C0005FFA8BFB1CF024FAEBE7C62C7FF658AF42
:10A5D000012421E0554B1B78032BDCB27FF461AFE3
:10A5E0004FF0000BBAF1C80F12D0092012F052FC44
:10A5F000012808BF0BF1010B4FF001000AF1010A1D
:10A6000008BF5FFA8BFB5FFA8AFA1CF001FAE9E7F0
:10A61000BBF1C60F7FF645AF204611B0BDE8F08F05
:10A62000424B1B78042BDCB27FF44CAF4FF0000A96
:10A63000B9F1C80F12D0092012F02CFC012808BF74
:10A640000AF1010A4FF0010009F1010908BF5FFAA0
:10A650008AFA5FFA89F91CF0DBF9E9E7BAF1C60F6B
:10A660007FF630AFD8E7314B1B78052BDCB27FF497
:10A670003AAF4FF00009B8F1C80F12D0092012F01C
:10A6800009FC012808BF09F101094FF0010008F198
:10A69000010808BF5FFA89F95FFA88F81CF0B8F979
:10A6A000E9E7B9F1C60F7FF61EAFB5E71F4B1B7880
:10A6B000062BDCB27FF428AF4FF00008C82F11D072
:10A6C000092012F0E7FB012808BF08F101084FF04C
:10A6D000010007F1010708BF5FFA88F8FFB21CF01C
:10A6E00097F9EBE7B8F1C60F7FF60EAF94E70F4B83
:10A6F0001B78072BDCB27FF418AF0025C82E0FD0D3
:10A70000092012F0C7FB012808BF01354FF00100F6
:10A7100006F1010608BFEDB2F6B21CF079F9EDE7DB
:10A72000C62D7FF602AF77E750D8002059D8002019
:10A7300073B5894D894C6A7A637A9A4231D003F0B5
:10A74000D1FE0021864804F08FFB6B6863606B7A52
:10A75000844863726B89638103F066FE824803F06C
:10A7600063FE03F0F5FE02F0BBF840F6B8301CF0D3
:10A770004FF9637A7D48012B4FF000014FF032060C
:10A7800040F09A8011F065FD0022794800960A2376
:10A79000114611F0B6FD774811F095FD764811F09D
:10A7A000ABFFEA7AE37A9A4206D06B7A022B0CBFAF
:10A7B0000120002002F072FF6A6863689A4203D1A8
:10A7C0006A8963899A4213D003F08CFE654803F0CE
:10A7D0002BFE654803F028FE03F0BAFE6B68636049
:10A7E0006B89638102F07CF840F6B8301CF010F9F8
:10A7F000624811F0B1FE00286BD0614811F038FEBC
:10A80000604B1978884205D000395D4818BF012196
:10A8100011F030FE5C4811F03DFE5C4B1978884227
:10A8200002D0594811F038FE594811F045FE594BF5
:10A830001978884202D0564811F040FE564D5748CC
:10A840002E7811F04BFE86420BD02978534811F038
:10A8500051FE32230122009345480A23114611F08C
:10A8600050FD03F03FFE637A012B6FD0022B6FD0B7
:10A8700013B94B4803F0D8FD4FF47A736268494925
:10A88000B2FBF3F248480EF04FFE474803F0CCFD10
:10A89000626822B100234548194611F064FFA37A8B
:10A8A000002B57D0414800234EF66022022102B00F
:10A8B000BDE8704011F057BF11F0CBFC01220096AB
:10A8C0000A2311462A4811F01CFD2C4811F048FEBD
:10A8D00064E7374D3748296811F075FC354811F0A9
:10A8E00070FC2968884202D0324811F06CFC324872
:10A8F00011F078FC314B1978884202D02E4811F0C3
:10A9000073FC2F4D2F482E7811F07DFC864203D02A
:10A9100029782C4811F079FC2B4811F085FC2B4B41
:10A920001978884202D0284811F080FC284811F09C
:10A930008EFC284B1978884202D0254811F098FCEB
:10A940004FF6FD71094811F084FC8AE7224891E72F
:10A9500022488FE702B070BDD0A1002000A30020E4
:10A960006B4107007241070082410700CEE40020DE
:10A97000A9E40020E4E4002008E40020CDE4002065
:10A98000B5E400205BD80020B8E400205DD80020AA
:10A99000C0E400205ED800205CD80020CAE400207B
:10A9A0001B3C07003C3C070015D5002071E400204B
:10A9B00068D80020D9E40020DAE400206CD8002018
:10A9C00063D80020DBE40020DCE4002064D8002011
:10A9D000DEE400206DD80020F23A07002A3C070090
:10A9E000F8B512F05EFA1C4D1C4B1D4C0021C3E95A
:10A9F000000112F056FAD5E90032C61A62EB42079E
:10AA0000C92E77F1000308DB12F04BFA00236B60CC
:10AA1000237828600133DBB22370124A12491348AD
:10AA200012F080F922781249104812F07BF911498E
:10AA30000E4812F077F90D4811F04AFB22780C49C4
:10AA40000D4812F06FF90B490B4812F06BF9BDE895
:10AA5000F84064201BF0DCBF48D8002050D800200C
:10AA600059D80020934107008839070090E300205F
:10AA70009741070088890700F4E3002000000000E8
:10AA80002DE9F04F87B0FFF7BDFC072800F2978251
:10AA9000DFE810F01607AA0408009802F2009300FD
:10AAA00049003600A04BA14A00241C70A04B002096
:10AAB0000021C3E900019F499F4812F033F99F49E3
:10AAC0009D4812F02FF99E499B4812F02BF99A48A5
:10AAD00011F0FEFA99499B4812F024F998499948D7
:10AAE00012F020F964201BF093FF974B1B782BB1D9
:10AAF000204607B0BDE8F04F03F032BD0120F8E773
:10AB0000894B00221A708A4B00200021C3E9000102
:10AB10008E4B1C783CB903F0E5FC8D48214604F0CF
:10AB2000A3F91BF08CFF804B00221A70804B002091
:10AB30000021C3E90001854B1C78002C31D0854CE5
:10AB40002378052B0DD1844B8448D97A10222270AA
:10AB500001919B7A00938249824B09781B7803F01C
:10AB600027FD724A7349744812F0DCF822787E4956
:10AB7000714812F0D7F872496F4812F0D3F86E4856
:10AB800011F0A6FA227878496E4812F0CBF86C4999
:10AB90006C4812F0C7F8642007B0BDE8F04F1BF016
:10ABA00037BF03F09FFC7148214604F05DF97048FF
:10ABB00007B0BDE8F04F11F09FBD5B4B00221A704B
:10ABC0005B4B00200021C3E90001604B1B78002B88
:10ABD00000F0F5815F4C2378042B33D0052B41D056
:10ABE0008BB9644811F0B8FC01285B4B1FD1D97AAE
:10ABF00061480422227001919B7A60490093097890
:10AC0000FF2303F0D5FC494A4A494B4812F08AF821
:10AC100022785B49484812F085F84949464812F0C5
:10AC200081F8454811F054FA22785549ACE7D97AB1
:10AC300054480522227001919B7A53490093097868
:10AC4000FF23DEE707235148237011F047FC424AF7
:10AC5000D37A0193937A00932278C3B240493F4854
:10AC60000978CEE73C4B0E22D97A227001919B7A6B
:10AC70000093474B1B78F1E72B4B00221A702C4BAB
:10AC800000200021C3E90001304B1B78002B00F0AD
:10AC9000DC80304C2378062B23D8DFE813F0070044
:10ACA0001500360089009300C400CE002A49032213
:10ACB0004B7AC87A22700190897A00910233DBB214
:10ACC0003449354809780AE0234B3448D97A0022C0
:10ACD000227001919B7A324900930978FF2303F097
:10ACE00067FC124A1349144812F01CF822782D49C7
:10ACF000114812F017F812490F4812F013F80E48D5
:10AD000011F0E6F9227827493EE7134A2649937A5B
:10AD1000264883F001039372D27ACDE90032FF23F3
:10AD200009780222DBE700BF59D8002093410700D1
:10AD300050D800208839070090E30020A741070081
:10AD400088890700F4E30020B4A4002058D800202C
:10AD5000B14107005AD80020D0A10020C8A100208E
:10AD6000CCA100206DD80020BC410700CD410700D8
:10AD700008E40020CDE40020A0A20020B4A200201E
:10AD8000D3410700CCA20020E4A20020CAE40020A6
:10AD900064D8002074A2002064A20020E8A2002051
:10ADA000FCA20020E4410700C8A20020B8A20020B5
:10ADB0009C4B02225A72DA7A01929B7A0093032208
:10ADC00004237DE70A239848237011F087FBC0B263
:10ADD0000C280ED8DFE800F0071B1B211B21211BCC
:10ADE0001B1B1B1B2100914B00221A70904B05224C
:10ADF0001A708C4A8F4BD17A1B780191927A00920B
:10AE00000A332278DBB28C498C48097867E7874B94
:10AE100000221A70864B0722EAE7844B00221A7040
:10AE2000834B0A22E4E77F4B0D22D97A22700191ED
:10AE30009B7A0093824B1B78E5E77A4BDA7A019292
:10AE40009B7A009306220023DDE77E4811F084FB05
:10AE5000012840F0B4807C4E727A012A00F0AF8065
:10AE60007A4F3A78002A40F0AA80794D794B2870C1
:10AE70001B780BB903F074FB774A78497848DFF800
:10AE8000D89111F04FFF7749754811F04BFF764983
:10AE9000734811F047FF724811F01AF9714973486D
:10AEA00011F040FF7049714811F03CFF64201BF025
:10AEB000AFFD00216E4811F060FC5B4811F00EFB05
:10AEC0006C4B53F820306C48059311F0E3FA0024E2
:10AED0008046059B33F81430002B60D05F496048F2
:10AEE0004A4611F01FFF224664495D4811F01AFFDF
:10AEF0005D495B4811F016FF594811F0E9F8224608
:10AF00005E495A4811F00EFF5749584811F00AFFA0
:10AF100064201BF07DFDE1B2574811F0BDFA6420BA
:10AF20001BF076FD0020FCF74FFB11F0BAFF4FF04D
:10AF3000000A83463A7872B34FF47A701BF068FDCA
:10AF400011F0AFFFB0EB0B0302936AEB4A030393DC
:10AF5000DDE9020142F21072002382428B41E9DAFC
:10AF60004A463E493E4811F0DDFE45493C4811F055
:10AF7000D9FE3D493A4811F0D5FE394811F0A8F8FC
:10AF80003F493A4811F0CEFE3749384811F0CAFE21
:10AF900064201BF03DFD4FF4FA601BF039FD0134D5
:10AFA000102C96D13448414611F076FA726822B1DD
:10AFB00000232F48194611F0D6FB00232B7007B051
:10AFC000BDE8F08F2F4B00221A702F4B0024002574
:10AFD000C3E900452D4B1B78002B00F0C3812C4C9E
:10AFE0002278102A67D8DFE812F0110059007A00A1
:10AFF00085009200C100CE00E10066000D01200135
:10B0000035014701570166016600AD01054B02227B
:10B01000D97A227001919B7A0093FF231D491E4823
:10B02000097846E0D0A10020CAE4002062D80020C0
:10B0300060D800205DD80020CCA10020C8A100204D
:10B0400063D80020CDE4002000A300202DD60020EE
:10B05000E1D40020B4A40020934107008839070000
:10B0600090E30020F541070088890700F4E3002001
:10B0700071E4002064A40020B8E400200842070026
:10B080001642070059D8002050D8002058D8002078
:10B090005AD80020C8A20020B8A200208D4B8E48AC
:10B0A000D97A0022227001919B7A8C490093097809
:10B0B000FF2303F07DFA8A4A8A498B4811F032FE59
:10B0C00022788A49884811F02DFE8949864811F076
:10B0D00029FE854810F0FCFF2278844954E57D4A1A
:10B0E000D37A83F00103D3720193937A00930222FF
:10B0F000FF2393E7774B7F497F4801225A72DA7A20
:10B1000001929B7A0093032309781A46D1E7092319
:10B110007A48237011F0E2F9C0B20C2814D8DFE8A5
:10B1200000F007070707070D1C07222222221C0038
:10B13000734B00221A70734B052204E0704B0022FF
:10B140001A70704B04221A70624BDA7A01929B7A61
:10B1500000936D4B1B78227811E0694B00221A7026
:10B16000684B0622EFE7664B0222E3E7594B0C22BD
:10B17000D97A227001919B7A0093644B1B786449C1
:10B180006448097895E7534B5A6842B142F20F710F
:10B190008A428ABFA2F51C520022103A5A60DA7A1B
:10B1A00001929B7A00930622FF23E8E75A4D2B7801
:10B1B00033B3013BDBB24A4A4A494B482B7011F08A
:10B1C000B1FD2A785549484811F0ACFD4849464838
:10B1D00011F0A8FD444810F07BFF2A784F495048F1
:10B1E00011F0A0FD42494E4811F09CFD64201BF077
:10B1F0000FFC384BDA7A01929B7A00932B78AAE7FE
:10B200000C23D8E7404A3E491378097899420BBF8E
:10B210003C4B03F1FF331B78DBB213702D4AD17A1C
:10B220000191927A00920922A9E73E4A3E49137899
:10B23000097899420BBF3D4B03F1FF331B78DBB21A
:10B240001370244BDA7A01929B7A00932E4B0A22D8
:10B250001B7894E7364A37491368A3F5C333A03BFC
:10B260008B4298BF344B13601A4BDA7A01929B7A67
:10B2700000930B22FF2382E724490B78062B1CBF87
:10B2800003F1FF33DAB2134B0A70D97A01919B7A3A
:10B29000009313460C2272E7284A13784BB1013B06
:10B2A000DBB213700B4AD17A0191927A00920D228F
:10B2B00065E70923F5E7224A117809B1481EC0B2B3
:10B2C0001070044AD37A0193937A00930E220346B6
:10B2D00055E700BFD0A10020E8A20020FCA200207A
:10B2E000934107008839070090E3002032420700AD
:10B2F0008889070074A2002064A20020CAE400200C
:10B3000061D800205FD800205DD800206CD80020D4
:10B31000CCA10020C8A100205CD800202842070052
:10B32000F4E300205ED8002062D8002060D800201E
:10B3300068D800207F47A1198047A11963D8002051
:10B3400064D80020AA4A1378052B1ABF03F1FF33F3
:10B35000DBB216231370A74AD17A0191927A009238
:10B3600010220CE7A44811F0F7F801287FF427AE6B
:10B37000A24B1B78002B7FF422AEA14B1B780BB99C
:10B3800003F0EEF89F4AA049A04811F0CBFCA04979
:10B390009E4811F0C7FC9F499C4811F0C3FC9B4894
:10B3A00010F096FE9A499C4811F0BCFC99499A48C5
:10B3B00011F0B8FC64201BF02BFB0021974811F022
:10B3C000DCF9974B012200201A70FCF7FDF8954B31
:10B3D0005A68002A3FF4F3AD00239048194607B09D
:10B3E000BDE8F04F11F0BFB98F4B904D904C00224B
:10B3F0001A70904B00210020C3E900012978002930
:10B4000040F04881854811F0B8F90121834811F0D6
:10B41000B4F98248022111F0B0F9794B1B7813B9C5
:10B42000012003F09DF801237E4A2B700023237036
:10B43000704B51685960517A52895A816E485972DD
:10B4400011F08AF805466F4A6F497048002D49D0BF
:10B4500011F068FC78496D4811F064FC6D496B4847
:10B4600011F060FC694810F033FE73496A4811F02E
:10B4700059FC6849684811F055FC64201BF0C8FA73
:10B480006E4811F007F86E4B18706E4811F026F8F0
:10B490006D4B18706D4810F0EBFF6D4B18706D48D8
:10B4A00011F00AF86C4B18700023CDE900332278B4
:10B4B0006A496B48097803F07BF8524A524953486D
:10B4C00011F030FC22786749504811F02BFC5149AB
:10B4D0004E4811F027FC4D4810F0FAFD22786149E2
:10B4E000FFF752BB11F01EFC5349484811F01AFCFB
:10B4F0004849464811F016FC444810F0E9FD4E4911
:10B50000454811F00FFC4349434811F00BFC6420FF
:10B510001BF07EFA29465448544D10F09AFE5448C8
:10B5200010F04FFE2860534810F05CFE524B18702C
:10B53000524810F068FE524B1870524810F074FEDA
:10B54000514B1870514810F082FE294B2D4A18704B
:10B550002D492E4811F0E6FB286847F0C3FC22A3D2
:10B56000D3E9002347F052FE064641480F4610F04B
:10B5700028FE47F0B7FC1CA3D3E9002347F046FEA2
:10B5800032463B46CDE900014149204811F0CAFB53
:10B5900020491E4811F0C6FB1C4810F099FD286890
:10B5A00047F0A0FC10A3D3E9002347F02FFE064686
:10B5B0002F480F4610F005FE47F094FC0AA3D3E98C
:10B5C000002347F023FE3246CDE900013B463049D7
:10B5D000114811F0A7FB0F490F4811F0A3FB64209D
:10B5E0001BF016FA60E700BF0000000084D7974107
:10B5F0006DD80020D0A10020CDE400202DD6002061
:10B60000B4A40020934107008839070090E300208C
:10B610004342070088890700F4E3002071E400201A
:10B6200002D5002000A3002059D8002058D80020BF
:10B630005AD8002050D8002059420700B8E4002012
:10B640005DD80020CAE400205CD80020B5E40020CA
:10B650005BD80020C0E400205ED80020FCA20020BF
:10B66000E8A200207C420700CEE4002068D8002039
:10B67000D9E40020DAE400206CD80020DBE40020CC
:10B6800063D80020DCE4002064D80020DEE4002041
:10B690006E4207002378102B3FF60FAF01A252F83D
:10B6A00023F000BFE9B60200FBB602000DB70200AE
:10B6B00011B702002BB7020049B70200A7B8020079
:10B6C0004DB70200A7B70200C3B70200E7B70200F8
:10B6D0000BB802002FB802004DB802006BB8020090
:10B6E000BBB4020089B802000122834B2270D97AD0
:10B6F00001919B7A0093FF2322E07F4B0022D97AAD
:10B70000227001919B7A0093FF23D1E60622ECE799
:10B71000794B7A497A4800225A72DA7A01929B7AF6
:10B720000093097802230322C5E67349754BC87A52
:10B730001B78082222700190897A00910A33DBB2CB
:10B74000714972480978B6E60B22CEE7704D714A0E
:10B750002B78714971480C2B1ABF0133DBB20023DF
:10B760002B7011F0DFFA2A786D496C4811F0DAFA83
:10B770006C496A4811F0D6FA684810F0A9FC2A789A
:10B780006749694811F0CEFA6649674811F0CAFA6C
:10B7900064201BF03DF9584BDA7A01929B7A0093B2
:10B7A0002B782278CCE7574A1378B3FA83F35B09F6
:10B7B0001370514AD17A0191927A00920A33082289
:10B7C000BEE75A4A5A491378097899420BBF594B38
:10B7D00001331B78DBB21370474AD17A0191927A18
:10B7E00000920922ACE7544A5449137809789942E7
:10B7F0000BBF534B01331B78DBB213703E4AD17A37
:10B800000191927A00920A229AE74E4A4E491368B1
:10B8100003F5C333A0338B4294BF13601160364BE2
:10B82000DA7A01929B7A00930B22FF2388E7474A3A
:10B8300013780C2B1ABF0133DBB2062313702E4A88
:10B84000D17A0191927A00920C2279E7404A1378DA
:10B85000092B1ABF0133DBB200231370264AD17AB9
:10B860000191927A00920D226AE73A4A1378032BEB
:10B870001ABF0133DBB2002313701F4AD17A019142
:10B88000927A00920E225BE7334A1378162B1ABF86
:10B890000133DBB205231370174AD17A0191927AF2
:10B8A000009210224CE7144A536803F51C531033DE
:10B8B0005360D37A0193937A0093062200233FE7E3
:10B8C000264B00221A70264B00200021C3E90001FC
:10B8D000244B1A78002A3FF472AB234C2278102AAA
:10B8E00048D8DFE802F0435C5C5C5C5C826A6A6AB0
:10B8F0006A76767676477600D0A1002074A2002082
:10B9000064A200205BD80020CCA10020C8A10020A8
:10B910005CD80020934107008839070090E300209D
:10B920002842070088890700F4E300205DD8002042
:10B930005FD8002061D800205ED8002060D80020A9
:10B9400062D8002068D80020007038396CD80020F8
:10B9500063D8002064D800206DD8002059D800207A
:10B9600050D8002058D800205AD8002000221A7041
:10B97000FEF7DEFE234A2449244811F0D3F9227849
:10B980002349224811F0CEF92249204811F0CAF982
:10B990001E4810F09DFB22781D49FFF7F5B81E4B9D
:10B9A0001E48D97A0022227001919B7A1C4900938B
:10B9B0000978FF2302F0FCFDDCE7174B1948D97A20
:10B9C0000422227001919B7A174900930978FF2382
:10B9D000F0E7114B1548D97A0522227001919B7A24
:10B9E000134900930978FF23E4E70B4B1148D97AF8
:10B9F0000222227001919B7A0F4900930978FF235C
:10BA0000D8E700BF934107008839070090E3002082
:10BA10008D42070088890700D0A10020E8A20020FD
:10BA2000FCA20020A0A20020B4A20020CCA20020F2
:10BA3000E4A20020B8A20020C8A2002070B598B0EF
:10BA400014460A490EA810F0E7FF0023CDE914338D
:10BA5000CDE91633636E012B0CD1054920680DF03A
:10BA600090FD48B1022400F0EDBC00BF8A890700B8
:10BA700009A90700002BF5D1B649B748B74CB84D16
:10BA8000B84E11F04FF9B849B34811F04BF9B1492C
:10BA9000B64811F047F9B449B44811F043F96420AD
:10BAA0001AF0B6FF637AB24955F82320AA4811F07C
:10BAB00039F9AD49A84811F035F9637AAC4955F820
:10BAC0002320AA4811F02EF9A749A84811F02AF915
:10BAD00064201AF09DFFA74911A810F0F7FD11A9E5
:10BAE0000EA810F0ACFF11A810F050FF0EA810F037
:10BAF000E9FF0E9AA049984811F014F99A4996481E
:10BB000011F010F90E9A9C49984811F00BF99649DA
:10BB1000964811F007F964201AF07AFF974911A8A6
:10BB200010F0B4FD119A96498B4811F0FBF811A85A
:10BB300010F02CFF8C49884811F0F4F88F4911A8B7
:10BB400010F0A4FD119A8E49884811F0EBF811A865
:10BB500010F01CFF8449854811F0E4F864201AF0C5
:10BB600057FF4FF47A7562688649B2FBF5F27A485E
:10BB700011F0D8F87C49784811F0D4F8626881490E
:10BB8000B2FBF5F2794811F0CDF87749774811F01A
:10BB9000C9F864201AF03CFF7B4810F0DDFC7B49BB
:10BBA00056F8202005466C4811F0BCF86E496A48EA
:10BBB00011F0B8F856F8252074496C4811F0B2F825
:10BBC00069496A4811F0AEF864201AF021FF012D8E
:10BBD00040F04E836E486F4E6F4D10F047FC6F493A
:10BBE000002814BF32462A465B4811F09BF85E4994
:10BBF000594811F097F8664810F038FC674900285A
:10BC000014BF32462A465948654E11F08BF8564902
:10BC1000564811F087F864201AF0FAFE614810F0D7
:10BC20005DFC6149054602464B4811F07BF84E49E0
:10BC3000494811F077F82A465B494C4811F072F8F0
:10BC400049494A4811F06EF864201AF0E1FE56F8AE
:10BC500025205649404811F065F843493E4811F007
:10BC600061F856F825205149404811F05BF83E49EB
:10BC70003E4811F057F864201AF0CAFE4C4810F004
:10BC8000EEFB002800F0BE814A49334811F04AF823
:10BC90003549314811F046F84649344811F042F828
:10BCA0003149324811F03EF864201AF0B1FE082202
:10BCB00014A9414810F0B2FB9DF8573005939DF848
:10BCC000563004939DF8553003939DF854300293F9
:10BCD0009DF8533001939DF852309DF8502037491C
:10BCE00000931D489DF8513011F01CF81E491A4868
:10BCF00011F018F89DF8573005939DF856300493CD
:10BD00009DF8553003939DF8543002939DF85330BD
:10BD100001939DF852309DF8502028490093134814
:10BD20009DF8513010F0FEFF0F49104810F0FAFF57
:10BD300064201AF06DFE082214A9214810F04AFB75
:10BD40009DF8573005939DF8563004939DF8553073
:10BD500038E000BF0843070090E3002000A3002064
:10BD6000D8A30020C8A3002088890700F4E300209E
:10BD70001743070048E40020254307000CE4002097
:10BD80001977070030430700CDE400204043070047
:10BD9000B4E400207D860700FA4207005043070004
:10BDA00094A30020CAE400205B4307006643070019
:10BDB000B3E4002071430700AEE400207B4307009A
:10BDC000AAE4002003939DF8543002939DF8533069
:10BDD00001939DF852309DF850207D4900937D4895
:10BDE0009DF8513010F09EFF7B497A4810F09AFF81
:10BDF0009DF8573005939DF8563004939DF85530C3
:10BE000003939DF8543002939DF8533001939DF8AD
:10BE100052309DF850206E49009370489DF8513083
:10BE200010F080FF6C496D4810F07CFF64201AF020
:10BE3000EFFD102214A96A4810F0D5FA9DF85F3082
:10BE40000D939DF85E300C939DF85D300B939DF83B
:10BE50005C300A939DF85B3009939DF85A30089343
:10BE60009DF8593007939DF8583006939DF8573048
:10BE700005939DF8563004939DF8553003939DF833
:10BE8000543002939DF8533001939DF852309DF841
:10BE90005020544900934F489DF8513010F042FF14
:10BEA0004D494C4810F03EFF9DF85F300D939DF8D2
:10BEB0005E300C939DF85D300B939DF85C300A93D7
:10BEC0009DF85B3009939DF85A3008939DF85930DE
:10BED00007939DF8583006939DF8573005939DF8C9
:10BEE000563004939DF8553003939DF854300293D7
:10BEF0009DF8533001939DF8523000939DF85020E7
:10BF00009DF851303749354810F00CFF324933481D
:10BF1000354E364D10F006FF64201AF079FD344995
:10BF20002C4810F0FFFE2C492A4810F0FBFE304947
:10BF30002A4810F0F7FE2849284810F0F3FE642044
:10BF40001AF066FD627A2B49224810F0EBFE224976
:10BF5000204810F0E7FE627A2649204810F0E2FE01
:10BF60001D491E4810F0DEFE64201AF051FDA27A31
:10BF700021491848002A14BF32462A4610F0D2FE42
:10BF80001549144810F0CEFEA27A1B491348002A26
:10BF900014BF32462A4610F0C5FE0F490F48174E0F
:10BFA00010F0C0FE64201AF033FD15481BF048F86D
:10BFB0000025B4F88E20EBB2934205F1010580F222
:10BFC0003D8223443046197B1BF03AF8F1E700BF6D
:10BFD000A343070090E3002088890700F4E30020D2
:10BFE000ABE40020CB430700054307008F41070067
:10BFF0002C4507003C4507004A450700C3CA070017
:10C000005B4507009049914810F08CFE90498F489D
:10C0100010F088FE8C498F4810F084FE8C498D48C2
:10C0200010F080FE64201AF0F3FC14A910228A4854
:10C0300010F0E2F99DF85F300D939DF85E300C939F
:10C040009DF85D300B939DF85C300A939DF85B3052
:10C0500009939DF85A3008939DF8593007939DF83D
:10C06000583006939DF8573005939DF85630049349
:10C070009DF8553003939DF8543002939DF853304A
:10C0800001939DF852309DF85020009373499DF81C
:10C0900051306E4810F046FE6D496C4810F042FE7B
:10C0A0009DF85F300D939DF85E300C939DF85D30E8
:10C0B0000B939DF85C300A939DF85B3009939DF8D3
:10C0C0005A3008939DF8593007939DF858300693DD
:10C0D0009DF8573005939DF8563004939DF85530E0
:10C0E00003939DF8543002939DF8533001939DF8CB
:10C0F00052309DF85020009358499DF851305548D2
:10C1000010F010FE5249534810F00CFE64201AF053
:10C110007FFC14A91022524810F089F99DF85F3075
:10C120000D939DF85E300C939DF85D300B939DF858
:10C130005C300A939DF85B3009939DF85A30089360
:10C140009DF8593007939DF8583006939DF8573065
:10C1500005939DF8563004939DF8553003939DF850
:10C16000543002939DF8533001939DF852309DF85E
:10C17000502000933B499DF85130344810F0D2FDD7
:10C180003349324810F0CEFD9DF85F300D939DF895
:10C190005E300C939DF85D300B939DF85C300A93F4
:10C1A0009DF85B3009939DF85A3008939DF85930FB
:10C1B00007939DF8583006939DF8573005939DF8E6
:10C1C000563004939DF8553003939DF854300293F4
:10C1D0009DF8533001939DF852309DF85020009304
:10C1E00020499DF851301B4810F09CFD1849194812
:10C1F00010F098FD64201AF00BFC14A904221A48D0
:10C2000010F003F99DF8533001939DF852309DF8DA
:10C210005020009315499DF851300C4810F082FDD4
:10C220000B490A4810F07EFD9DF8533001939DF8AC
:10C23000523000939DF850209DF851300B4905482D
:10C2400010F070FD62E600BF1344070090E3002089
:10C2500088890700F4E30020ACE400201C440700B8
:10C26000B0E4002065440700ADE40020AE440700C0
:10C270007748002D40F09B800FF0A3FF75490246E0
:10C28000754810F04FFD7549734810F04BFD70482C
:10C290000FF097FF6F490246714810F043FD6F4958
:10C2A0006F4810F03FFD64201AF0B2FB6D480FF0AC
:10C2B00099FF6D490246684810F034FD67496648A9
:10C2C00010F030FD67480FF08DFF67490246644863
:10C2D00010F028FD6149624810F024FD64201AF036
:10C2E00097FB62480FF08FFF614902465A4810F0F1
:10C2F00019FD5A49584810F015FD5C480FF083FFAE
:10C300005B490246564810F00DFD5449544810F060
:10C3100009FD64201AF07CFB56480FF085FF564952
:10C3200002464D4810F0FEFC4C494B4810F0FAFC18
:10C3300050480FF079FF50490246494810F0F2FC8E
:10C340004649474810F0EEFC64201AF061FB4B4868
:10C350000FF07BFF4A4902463F4810F0E3FC3F499B
:10C360003D4810F0DFFC45480FF06FFF444902469E
:10C370003B4810F0D7FC3949394810F0D3FC642011
:10C380001AF046FB3F480FF062FF3F490246324831
:10C3900010F0C8FC3149304810F0C4FC39480FF0A7
:10C3A00056FF394902462E4810F0BCFCAEE50FF0AE
:10C3B00008FF28490246284810F0B4FC27492648BF
:10C3C00010F0B0FC22480FF0FCFE2249024624483F
:10C3D00010F0A8FC2149224810F0A4FC64201AF0B7
:10C3E00017FB2A480FF067FF294902461A4810F048
:10C3F00099FC1A49184810F095FC24480FF05BFF8F
:10C4000023490246164810F08DFC1449144810F0D8
:10C4100089FC64201AF0FCFA1E480FF04EFF1E49FA
:10C4200002460D4810F07EFC0C490B4810F07AFCD7
:10C4300018480FF042FF18490246B4E707481AF0BF
:10C44000FFFD00240EA810F0A1FA204618B070BD20
:10C45000D9E40020C744070090E300208889070042
:10C46000F4E30020DAE40020D6440700DBE40020F7
:10C47000DE440700DCE40020E6440700DDE40020A1
:10C48000EE440700DEE4002003450700E2E400205C
:10C4900011450700E3E400201E4507002DE9FF4198
:10C4A000536E012B0D46144624D1394910680DF006
:10C4B00068F8044620B10224204604B0BDE8F081AB
:10C4C00002F008FE2946334810F0F8FB32493148A3
:10C4D00010F0E2FB314A3249D37903939379029306
:10C4E000537901931379009393782A48128810F0B6
:10C4F00019FCE1E7052BDED1161F02F1100756F8F3
:10C50000045F28460DF04FF82B462844984205D08A
:10C5100013F8012B303A092AF8D9CCE7BE42EED104
:10C520000022114620680DF0ABF940F2D233A0F2A0
:10C53000E6729A420546BED80022606811460DF0A8
:10C540009FF9431E0B2B0646B5D80022A068114662
:10C550000DF096F9431E1E2B0746ACD80022E0686A
:10C5600011460DF08DF918288046A4D800222069C4
:10C5700011460DF085F93B289DD8C2B200925FFAB2
:10C5800088F3FAB2F1B2A8B202F05EFD002493E79C
:10C5900009A9070090E30020905D07002CDB002034
:10C5A0006C45070007B503230193054B0093054B2A
:10C5B000054A0648194610F0AAF803B05DF804FBD6
:10C5C0007DCB0200874507008F4507006EE4002001
:10C5D00007B503230193054B0093054B054A064815
:10C5E000194610F094F803B05DF804FB4DCD02003D
:10C5F000E6450700EB4507006EE4002007B503237E
:10C600000193054B0093054B054A0648194610F067
:10C610007EF803B05DF804FBA1CF020036460700A8
:10C620003B4607006EE4002007B503230193054B4A
:10C630000093054B054A0648194610F068F803B008
:10C640005DF804FBADC602006246070067460700BE
:10C650006EE4002007B503230193054B0093054BBF
:10C66000054A0648194610F052F803B05DF804FB7D
:10C670009DC402007D460700814607006EE400204D
:10C6800007B502230193054B0093054B054A064865
:10C69000194610F03CF803B05DF804FB3DBA020007
:10C6A000A8460700AF4607006EE400202DE9F84FCA
:10C6B000784B1B78E3B9784A7849794810F032FB17
:10C6C0007849774810F02EFB7749754810F02AFB1F
:10C6D00073480FF0FDFC7349744810F023FB724956
:10C6E000724810F01FFB64201AF092F9022472E0E5
:10C6F000556E012DFAD1D2F800A06D4950460CF0CC
:10C7000040FF0446002840F082806A4B6649644836
:10C710001D7010F007FB64496148DFF8C0B110F0EC
:10C7200001FB6149614810F0FDFA5F495F4810F074
:10C73000F9FA64201AF06CF921465F4810F01DF8F0
:10C7400029465D4810F019F802215B4810F015F8F1
:10C7500001F0C8FE2146594802F086FB584801F016
:10C7600063FE584801F060FE01F0F2FE10F099FB04
:10C770004FF0000A054642F2107600279BF8003081
:10C7800063BB4FF47A701AF043F910F08AFBB0EBF8
:10C7900005086AEB4A09464577EB0903EEDA4A4A8F
:10C7A0003E493F4810F0BEFA48493D4810F0BAFAF9
:10C7B0003D493B4810F0B6FA39480FF089FC43492F
:10C7C0003A4810F0AFFA3849384810F0ABFA642014
:10C7D0001AF01EF903242046BDE8F88F03F01EFB73
:10C7E00031492F4810F09EFA2F492D4810F09AFA3F
:10C7F0002D492E4810F096FA2B492C4810F092FA49
:10C8000064201AF005F932480FF076FFE3E731496A
:10C8100050460CF0B6FE044600287FF467AF254B67
:10C82000DFF8B8B01D70014623480FF0A6FF294677
:10C8300021480FF0A2FF02211F480FF09EFF01F0D8
:10C8400051FE21461D4802F00FFB234801F0ECFD8C
:10C850001C4801F0E9FD01F07BFE10F022FB4FF0D7
:10C86000000A054644F620684FF000099BF80030A6
:10C870006BB94FF47A701AF0CBF810F012FB461B2C
:10C880006AEB4A07B04579EB0703EFDA87E702F076
:10C8900059FEB8E70FD50020C646070088390700C3
:10C8A00090E30020CD46070088890700F4E30020CC
:10C8B00009A9070058D8002071E400206B41070047
:10C8C000E146070082410700F1460700F5460700F0
:10C8D00008E40020098F070015470700D4A30020B3
:10C8E00030B5944CE7B060689421FDF751FD924A51
:10C8F00092490546924810F015FA2A469149904807
:10C9000010F010FA90498E4810F00CFA8C480FF095
:10C91000DFFB2A468B498D4810F004FA8A498B4880
:10C9200010F000FA64201AF073F8894994226846DE
:10C930000CF08CF8ADF80050B4F88E506368019399
:10C940002A46A368029304F10C0103A80CF07EF8B8
:10C95000794A7A497A48ADF88E5010F0E3F9019A95
:10C960007C4977487C4D7D4C10F0DCF97649744861
:10C9700010F0D8F972480FF0ABFB019A7549734873
:10C9800010F0D0F97049714810F0CCF964201AF019
:10C990003FF8694A69496A4810F0C4F99DF80920CE
:10C9A0006F49674810F0BEF96749654810F0BAF959
:10C9B00063480FF08DFB9DF809206949634810F02A
:10C9C000B1F96149614810F0ADF964201AF020F81E
:10C9D000594A5A495A4810F0A5F99DF80A20614968
:10C9E0005748002A14BF2A46224610F09BF95649A0
:10C9F000534810F097F952480FF06AFB9DF80A204F
:10CA000058495248002A14BF2A46224610F08AF993
:10CA10004D494E4810F086F9642019F0F9FF464A56
:10CA20004649474810F07EF99DF80B204E4944488E
:10CA3000002A14BF2A46224610F074F942494048A1
:10CA400010F070F93E480FF043FB9DF80B2046496B
:10CA50003E48002A14BF2A46224610F063F93A499C
:10CA60003A48424D10F05EF90024642019F0D0FFDE
:10CA7000FE22214626A825940BF0F6FFBDF88E3045
:10CA8000E0B2984204F1010409DA0DEB00032946F3
:10CA90001A7B25AB03EB40000CF046FDEEE7264A7F
:10CAA0002649274810F03EF925AA3149244810F0BC
:10CAB00039F92549224810F035F921480FF008FBD3
:10CAC00025AA2B49214810F02DF91F491F4810F0C5
:10CAD00029F9642019F09CFF174A1849184810F0EA
