:020000022000DC
:10700000000004204DA1030075A1030077A1030037
:1070100079A103007BA103007DA103000000000013
:107020000000000000000000000000007FA103003D
:1070300081A103000000000000000000000000002B
:107040004185050083A10300C1A30500198B05003C
:1070500083A1030081810500597F05007167060047
:1070600083A10300598A05006D8A050083A10300EE
:1070700083A1030083A1030083A1030083A1030074
:10708000757406005957050083A1030083A103000E
:1070900083A1030083A10300F95D060083A103001F
:1070A00083A1030083A10300818A0500958A05005E
:1070B00083A1030083A10300000000000000000082
:1070C00083A1030083A1030083A10300AD6C06002C
:1070D0007187050083A1030083A10300D1A00500EF
:1070E00049A1060083A1030089C806000000000032
:1070F0000000000083A10300000000007D70060076
:10710000000000000000000000000000000000007F
:10711000000000000000000000000000000000006F
:10712000000000000000000000000000000000005F
:10713000000000000000000000000000000000004F
:10714000000000000000000000000000000000003F
:10715000000000000000000000000000000000002F
:10716000000000000000000000000000000000001F
:10717000000000000000000000000000000000000F
:1071800000000000000000000000000000000000FF
:1071900000000000000000000000000000000000EF
:1071A00000000000000000000000000000000000DF
:1071B00000000000000000000000000000000000CF
:1071C00000000000000000000000000000000000BF
:1071D00000000000000000000000000000000000AF
:1071E000000000000000000000000000000000009F
:1071F000000000000000000000000000000000008F
:1072000010B5054C237833B9044B13B10448AFF3E0
:1072100000800123237010BDC0D4002000000000B6
:10722000F80E080008B5034B1BB103490348AFF340
:10723000008008BD00000000C4D40020F80E080043
:10724000154B002B08BF134B9D46A3F5803A002138
:107250008B460F461348144A121A10F065FC0F4B68
:10726000002B00D098470E4B002B00D098470020F1
:10727000002104000D000D48002802D00C48AFF397
:10728000008010F001FC2000290010F087F910F0B8
:10729000E7FB00BF00000800000004200000000021
:1072A00000000000C0D4002074C4012000000000D1
:1072B000000000000022C0E900220172704738B5CA
:1072C0000446006820B1856912F008FF2846F9E7F6
:1072D000204638BD006820B143688B4201D08069E8
:1072E000F9E77047F8B504460F4616461D46FFF706
:1072F000F1FF20B10123826005704370F8BD1C20AE
:1073000012F0F0FE012343700023C0E90333C0E90B
:10731000053323680570C0E9017613B92060606009
:10732000ECE763689861FAE72DE9F8430468164FC3
:1073300005460E464FF000081CB363680BB9A469FC
:10734000FAE72378002BFAD0E368A268F31A9A428E
:1073500002D961780029F2D09B1A636184F8018018
:10736000E66014F07BFD63688146984714F076FD73
:107370003B68A0EB0900206118442B7A3860002B91
:10738000DDD0BDE8F88300BFDCD4002008B5074B92
:1073900050B103221A700648FA22012114F0B1F903
:1073A000044B00221A7008BD0522F3E7E0D4002048
:1073B00051E200202DD60020054B064800221A700D
:1073C000054B08221A700121FA2214F09AB900BF65
:1073D0002DD6002051E20020E0D4002084B004AB80
:1073E00003E907000B4BBDF90A201A800A4B9DF9EF
:1073F0000C201A70094A0A48136801331360094BBC
:1074000000221A70084B0121FA22197004B014F0FE
:1074100078B900BF10D5002012D5002028D6002052
:1074200051E200202DD60020E0D40020124B002293
:107430001A70124B1B7A022B1DD0114B90F90620AB
:107440001A70104BB0F904201A800F4A0378137099
:107450000E4A417811700E4A817811701BB10D4AA5
:107460001368013313600C4B0C4804221A7001217D
:10747000FA2214F046B970472DD60020F8A2002059
:1074800012D5002010D5002015D6002013D60020DC
:1074900014D6002024D60020E0D4002051E20020A1
:1074A000F0B5864C864D237A864F0126022B85B097
:1074B0002E7040F03981844807F09FFEA37A002B9C
:1074C00000F0C4803B78814F3978002940F09780E4
:1074D00043B37F4B1B782BBB06F05EF97D4806F06B
:1074E00035F87D4806F0FAF8A37ADBB97B4A7C4987
:1074F0007C4814F0E5FB7C497A4814F0E1FB7B49B9
:10750000784814F0DDFB7849794814F0D9FB7749C5
:10751000774814F0D5FB64201EF04CFA3146222047
:1075200014F08BFC05F0A0FA064600284BD0714BF6
:107530001B78DBB9694A6A496A4814F0C1FB6E4995
:10754000684814F0BDFB6949664814F0B9FB6A4904
:10755000674814F0B5FB6549654814F0B1FB642039
:107560001EF028FA6548012113F0B5FF564807F0D0
:1075700047FE0390544807F045FE01230721CDE95B
:107580000031024603995E4813F0A4FE0446C0B9D8
:10759000524A5349534814F093FB5A49514814F046
:1075A0008FFB52494F4814F08BFB5649504814F05A
:1075B00087FB4E494E4814F083FB64201EF0FAF915
:1075C0002C7005B0F0BD01233F483B7007F015FE5D
:1075D0004D4B4E481E8041F288326368B3FBF2F394
:1075E0004B4A13804B4B1E704B4B40F6C4121E701F
:1075F0000321334605B0BDE8F04014F082B853B122
:10760000334B1B783BB906F0C7F8324805F09EFFB4
:10761000424806F063F8314A3149324814F050FBD1
:107620003F49304814F04CFB30492E4814F048FBD9
:107630003B492F4814F044FB2C492D4814F040FBE3
:10764000642005B0BDE8F0401EF0B4B93B7853B1FA
:107650001F4B1B783BB906F09FF81E4805F076FFDC
:10766000304806F03BF8002300931A4619461648A6
:10767000B7EE000A07F0E4FC1E4B1B78002B7FF4EA
:1076800075AF01211D4813F026FF144A144915480F
:1076900014F016FB1849134814F012FB1349114853
:1076A00014F00EFB1449124814F00AFB0F4910485D
:1076B00014F006FB64201EF07DF957E7F8A20020C5
:1076C0002DD600200DD5002004D500200CD500209B
:1076D00058D60020281E0700391E0700541E070038
:1076E000581E070070E100205E1E0700A86C07000E
:1076F000D4E100202CD600206C1E0700ACE2002054
:1077000089E20020791E070078D6002051E200208F
:107710007AD60020A8D60020A9D60020951E070002
:10772000A91E0700BD1E07003B784BB1AB4B1E786E
:1077300036B906F031F8AA4805F008FFA94B1E70CB
:10774000A37A3BB105F090F920B9A74A0023136052
:10775000A64A1360A64813F0CDFE002800F014815D
:10776000A44813F051FE002800F0FE8001212420DF
:1077700014F063FBA04AA149A14814F0A1FAA14961
:107780009F4814F09DFAA0499D4814F099FA9D492C
:107790009E4814F095FA9C499C4814F091FA642094
:1077A0001EF008F99A4805F099FF9A4813F064FE14
:1077B000B4F88C1080B204F0E9FF9049964A06466E
:1077C0008F4814F07DFAB4F88C209448039213F09B
:1077D0002FFE3346039A92490090894814F070FABC
:1077E0008949874814F06CFAB4F88C208B480392CE
:1077F00013F01EFE039A8A4900903346834814F022
:107800005FFA8149814814F05BFA64201EF0D2F8D7
:10781000824813F00DFEB04254D37F4A774978482E
:1078200014F04EFA7F49764814F04AFA76497448C3
:1078300014F046FA7B49754814F042FA72497348CD
:1078400014F03EFA64201EF0B5F8774B1B78DBB9D4
:10785000694A6A496A4814F033FA7449684814F06E
:107860002FFA6949664814F02BFA7049674814F0FA
:1078700027FA6549654814F023FA64201EF09AF847
:107880006B48012113F027FE01230722CDE90032C6
:107890006848694A94F88C10022313F01BFD0028F5
:1078A0007FF48FAE544A55492870554814F008FAB1
:1078B0006249534814F004FA5349514814F000FA4D
:1078C0005E49B6E63146554813F0B4FD4FF4FA7000
:1078D0001EF070F8504A4949494814F0F1F94F48F0
:1078E00013F0A6FD56490246454814F0E9F9464909
:1078F000434814F0E5F9494813F09AFD504902460F
:10790000424814F0DDF94049404814F0D9F96420A8
:107910001EF050F83B786BB1304B1B7853B9494897
:1079200005F0DCFE48494948324610F05DFE474804
:1079300005F0D4FE384A3149314814F0C1F93748CE
:1079400013F076FD3E4902462D4814F0B9F92E4950
:107950002B4814F0B5F9314813F06AFD3849024656
:107960002A4814F0ADF969E7234A244928702448CD
:1079700014F0A6F93649224814F0A2F92249204809
:1079800014F09EF9324954E60121232014F055FAEF
:10799000194A1A491A4814F093F92E49184814F054
:1079A0008FF91949164814F08BF92A49174814F031
:1079B00087F91549154814F083F964201DF0FAFF82
:1079C000134805F08BFE01231B4A94F88C102248C3
:1079D00013F02BFC01232B70F3E500BF58D60020D9
:1079E000C91E070001D500208CD6002088D60020B3
:1079F000ADE2002094E20020541E0700581E07004C
:107A000070E10020DA1E0700A86C0700D4E1002016
:107A1000E61E0700AAE20020F41E070098E20020FC
:107A2000FB1E07002F1F07002CD600206C1E07002E
:107A3000ACE2002089E2002003A30020791E0700A9
:107A40005F1F0700761F0700881F070013D500205F
:107A5000911F0700AF1F0700AEE2002000000000EA
:107A60002DE9F04F2DED028B00218DB0AE4E044676
:107A7000242014F0E2F90021232014F0DEF93378F9
:107A80005BB1AA4B1B7843B905F086FEA849A9480B
:107A900010F0E1FDA74805F059FD44B9A649A748F3
:107AA00014F0FAF80DB0BDEC028BBDE8F08F24782D
:107AB000012C40F092813378DFF8FC82A04FA14E78
:107AC000002B00F0BD80994B1D78002D40F0B88050
:107AD0009D49984810F0BFFD964909A813F06AFF28
:107AE00009AA2946284605F073FE09A813F01CFFD1
:107AF000D8F8002095498F4810F076FD8D4909A8E7
:107B000013F058FF09AA2946204605F061FE09A88E
:107B100013F00AFF8E4813F022FB49F03BFC80A3D0
:107B2000D3E9002349F0DAFD0B4602468949814832
:107B300010F05AFD7F4909A813F03CFF09AA294615
:107B4000022005F045FE09A813F0EEFE824813F06E
:107B500017FB82490246774810F046FD754909A88F
:107B600013F028FF09AA2946032005F031FE09A8D1
:107B700013F0DAFE7A4813F014FB092800F228818A
:107B8000DFE810F00A00C300C500C700C9001C01EF
:107B90001E01200122012401724907A810F05BFD9B
:107BA0006F4813F0FEFA704B704953F8202061487B
:107BB00010F01AFD5F4909A813F0FCFE09AA402144
:107BC000032005F005FE09A813F0AEFE684813F087
:107BD000F9FA6849421D574810F006FD554909A8B1
:107BE00013F0E8FE09AA4021022005F0F1FD09A8E2
:107BF00013F09AFE3A8860494E4812B210F0F4FC35
:107C00004C4909A813F0D6FE09AA0021042005F06A
:107C1000DFFD09A813F088FE32785849454852B272
:107C200010F0E2FC434909A813F0C4FE09AA402160
:107C3000042005F0CDFD09A813F076FE05F0E2FD65
:107C40004F4B1B78002B2DD04E4B1B78002B00F098
:107C5000C18006F0E7FB4C4A4C4B118819809178A3
:107C600099701179D9705179927919715A710122EB
:107C70009A7147490022DA71096899604549096893
:107C8000D9601A745A74398849B29974317849B2F2
:107C9000D9749A82DA821A833F4A126812B25A83DE
:107CA00006F046FE3D49254813F0F6FFD8F80020BF
:107CB0003B883178214849B21BB20091384913F012
:107CC000FFFF234813F04BFA08EE100A224813F086
:107CD00057FA0446224813F064FAF8EE487A05464B
:107CE00017EE900A49F078FB0DA3D3E9002349F081
:107CF000F5FC7D2305FB0333CDE9004302460B462B
:107D00000E48284913F0DCFFCCE6274945E7274910
:107D100043E7274941E727493FE700BFAFF300802A
:107D20000000000080842E410DD5002058D6002090
:107D3000C91E070013D50020C31F070070E10020F3
:107D400010D5002012D50020D01F0700DE1F07002D
:107D5000B9E2002042270700BAE200200C320700F7
:107D6000BBE20020F21F070070A2002028200700BD
:107D7000BCE20020253207002E2007003620070035
:107D80000ED5002034D900202CD90020A4A1002039
:107D900088D600208CD6002024D600203D20070065
:107DA0004A20070066200700F61F0700FA1F070099
:107DB000FE1F07000220070028D600205D49ECE6E0
:107DC0005D49EAE65D49E8E65D49E6E65D49E4E6E7
:107DD0005D49E2E606F04AFB3DE7032C62D13378C9
:107DE000002B3FF45FAE594B1E78002E7FF45AAE45
:107DF000574C257A002D41D0022D4CD04FF47A7388
:107E000062685449B2FBF3F2534810F0EDFB52495B
:107E100009A813F0CFFD09AA0021012005F0D8FC24
:107E200009A813F081FD4D4909A813F0C3FD0021F5
:107E300009AA022005F0CCFC09A813F075FD4849F9
:107E4000454810F008FC444909A813F0B3FD09AAFD
:107E50000021032005F0BCFC09A813F065FD3F4993
:107E600009A813F0A7FD09AA0021042005F0B0FC21
:107E700009A813F059FD05F0C5FC13E6394909A816
:107E800013F098FD09AA2946084605F0A1FC09A8A7
:107E900013F04AFDB2E7344909A813F08BFD09AA93
:107EA0003146F1E7052C63D13378002B3FF4FAAD6E
:107EB000264B1E78002E7FF4F5AD254C257A25B390
:107EC000022D2FD04FF47A7362682249B2FBF3F28D
:107ED000214810F089FB204909A813F06BFD09AA7D
:107EE0000021012005F074FC09A813F01DFD1B49B9
:107EF00009A813F05FFD002109AA022005F068FC23
:107F000009A813F011FD19499AE7164909A813F0B9
:107F100051FD09AA2946084605F05AFC09A813F0A4
:107F200003FDCFE7104909A813F044FD09AA314623
:107F3000F1E700BF072007000D200700132007000E
:107F4000192007001F2007002420070058D6002012
:107F5000F8A200209B20070013D50020BBD007000B
:107F6000AE2007007A20070089200700BA2007000A
:107F7000042C40F0FF813378DFF808A3A54DDFF82B
:107F80000893A54EDFF804B3002B00F0A480A34BA8
:107F90001F78002F40F09F80A14B3178A14AA24862
:107FA000002918BF1A46A14910F01EFB9E4909A8D6
:107FB00013F000FD09AA3946384605F009FC09A866
:107FC00013F0B2FC327802F0FF08002A40F0DD80A6
:107FD0009BF800209649944810F006FB924909A8A6
:107FE00013F0E8FC09AA4146012005F0F1FB09A8BD
:107FF00013F09AFCDAF800208E498B4810F0F4FA5E
:10800000894909A813F0D6FC09AA4146022005F0C7
:10801000DFFB09A813F088FC874B88491A6882485F
:1080200010F0E2FA804909A813F0C4FC09AA402123
:10803000022005F0CDFB09A813F076FC804B8149A6
:108040001A78794810F0D0FA774909A813F0B2FCF1
:1080500009AA4146032005F0BBFB09A813F064FC04
:10806000794813F0E5F9794902466F4810F0BCFAF7
:108070006D4909A813F09EFC09AA4021032005F0D0
:10808000A7FB09A813F050FC2A887149664812B270
:1080900010F0AAFA644909A813F08CFC09AA414619
:1080A000204605F095FB09A813F03EFC99F8002046
:1080B00068495D4852B210F097FA5B4909A813F07D
:1080C00079FC204609AA402105F082FB09A813F09B
:1080D0002BFC05F097FB604B1B78002B36D05F4BD9
:1080E0001B78002B00F01B8106F09CF95C4A5D4B6D
:1080F00011881980917899701179D9705179927994
:1081000019715A714E4900229A710978C9B2D97110
:1081100055490968996055490968D960298849B263
:108120001974298849B25974298849B2997499F8FF
:10813000001049B2D9749A82DA829BF800201A831F
:108140003D4A126812B25A8306F0F2FB3178344B82
:10815000344A4748002918BF1A46464913F0B0FD73
:10816000DAF800202B8899F80010414849B20091B4
:108170001BB2414913F0A4FD314B40491A783C48E9
:108180009BF8003013F09CFD8CE4DAF800202949BC
:10819000254810F029FA244909A813F00BFC09AA74
:1081A0003946012005F014FB09A813F0BDFB224B52
:1081B00022491A681C4810F017FA1B4909A813F045
:1081C000F9FB09AA4021012005F002FB09A813F0E0
:1081D000ABFB32782A49144810F006FA124909A874
:1081E00013F0E8FB09AA3946022005F0F1FA09A8C4
:1081F00013F09AFB3378013B0F2B00F28E80DFE8FF
:1082000003F0476E70727476787A7C7E8082848602
:10821000888A00BF10D5002015D6002058D600202F
:10822000BF1F0700C01F070013D50020D020070084
:10823000E1200700F420070024D60020FC200700DE
:1082400014D600200421070098E200200122070034
:108250002E200700362007000ED5002034D900203C
:108260002CD90020A4A1002088D600208CD6002084
:1082700070E10020072207004A20070015220700AE
:108280000D21070028D6002012D5002013D600208B
:108290002449254810F0DFF9234909A813F08AFB87
:1082A00009AA0021032005F093FA09A813F03CFB6A
:1082B0001E4813F0BDF81E4902461B4810F094F901
:1082C000194909A813F076FB09AA0021042005F03A
:1082D0007FFA09A813F028FB05F094FAF9E615498E
:1082E000D7E71549D5E71549D3E71549D1E715492A
:1082F000CFE71549CDE71549CBE71549C9E715493A
:10830000C7E71549C5E71549C3E71549C1E7154949
:10831000BFE71549BDE71549BBE71549B9E706F0C1
:10832000A5F8E3E62221070013D5002098E20020FB
:10833000FE210700302107003B21070047210700ED
:10834000532107005D210700AE20070067210700C9
:108350007B2107008E2107009E210700AB2107002B
:10836000B5210700C5210700D3210700DF21070041
:10837000F0210700A24B1B78062B40F0A181A14BF6
:10838000A149DD781C7993F801809F7893F905B0B5
:108390009E48C5EB451205EB8205A8F1C808C4EB61
:1083A0004412C83F04EB82041FFA88F85A790292FB
:1083B000BFB25A466D0064000FFA88FA0FFA87F9C7
:1083C00013F07EFC2DB2924990484B46524624B29F
:1083D00013F076FC23468F498C482A4613F070FC34
:1083E0003378002B00F0D0808B4B1E78002E40F0AD
:1083F000CB8005F0D1F9894805F0A8F8884B894968
:108400001A78894B89481B8852B21BB210F0ECF8DD
:10841000864909A813F0CEFA09AA3146304605F07C
:10842000D7F909A813F080FA5A4681497F4810F01D
:10843000DBF87E4909A813F0BDFA09AA31460120EC
:1084400005F0C6F909A813F06FFA7A4909A813F0E4
:10845000B1FA09AA3221012005F0BAF909A813F0EE
:1084600063FA754909A813F0A5FA09AA5021012059
:1084700005F0AEF909A813F057FA704909A813F0EE
:1084800099FA09AA3146022005F0A2F909A813F0C9
:108490004BFA6B4909A813F08DFA09AA314603205B
:1084A00005F096F909A813F03FFA524665495F486E
:1084B00010F09AF85D4909A813F07CFA09AA322154
:1084C000022005F085F909A813F02EFA4A465D4905
:1084D000564810F089F8554909A813F06BFA09AA13
:1084E0003221032005F074F909A813F01DFA564B48
:1084F00093F80A90B9F1000F00F0B8802A4651496C
:108500004A4810F071F8494909A813F053FA09AA2A
:108510005021022005F05CF909A813F005FA224663
:108520004849424810F060F8404909A813F042FA5F
:1085300009AA5021032005F04BF909A813F0F4F91A
:10854000424B1868424BD3F8009048F045FF024672
:108550000B464846CDE9042348F03EFFDDE90423FD
:10856000CDE900013B49314810F03EF82F4909A8F8
:1085700013F020FA09AA3146042005F029F909A8C8
:1085800013F0D2F905F03EF9334B1B78002B3FF482
:1085900089AA324B1B78002B00F08F8005F042FF38
:1085A0002F4A304B11881980917899701179D970C0
:1085B0005179927919715A7102229A71029ADA717B
:1085C000224A12689A60224A1268DA604FFA88F8E2
:1085D000154A83F810807FB25F74128852B29A7481
:1085E0000F4A127852B2DA749D820022DC821A831A
:1085F0001D4A126812B25A8306F09AF9FFF752BA6E
:10860000E0D40020E1D400202E22070070E10020F9
:108610004C2207006522070058D60020822207005E
:1086200012D500209222070010D5002013D500207B
:10863000A9220700567D0700B4220700BD220700CB
:10864000C1220700F1200700F8A2002088D60020F0
:108650008CD60020C52207000ED5002034D900207A
:108660002CD90020A4A1002024D600205E495F4818
:108670000FF0F1FF5D4909A813F09CF909AA5021F8
:10868000022005F0A5F809A813F04EF9574909A8EA
:1086900013F090F909AA5021032005F099F809A8D0
:1086A00013F042F9524951480FF0D5FF4F4909A83C
:1086B00013F080F909AA49465EE705F0D7FE6FE797
:1086C000072B6CD14B494C4813F0FAFA3378002B46
:1086D0003BD04A4B1C78002C37D105F05DF8484858
:1086E00004F034FF474941480FF0B5FF3F4909A85E
:1086F00013F060F909AA2146204605F069F809A897
:1087000013F012F9404B1868404B1D6848F064FEA6
:1087100002460B462846CDE9022348F05DFEDDE91E
:108720000223CDE900013A4930480FF05DFF2F499F
:1087300009A813F03FF909AA2146042005F048F8DA
:1087400009A813F0F1F805F05DF8324B1B78002B07
:108750003FF4A8A9304B1B78F3B105F063FE2F4A14
:108760002F4B11881980917899701179D9705179AE
:10877000927919715A7102229A7123490022DA7191
:108780000968996021490968D9601A745A749A7401
:10879000DA749A82DA822AE705F068FEDFE7082BAE
:1087A0007FF480A91F49144813F08AFA1E4B002257
:1087B0001A703378002B3FF475A9104B1B78002BEF
:1087C0007FF470A904F0E8FF184804F0BFFE1849D0
:1087D00006480FF040FF054909A813F0EBF8002107
:1087E00009AA0846FFF742BBDA22070013D500208A
:1087F000D1220700DD22070070E1002058D60020BA
:1088000082220700FB22070088D600208CD6002099
:10881000C52207000ED5002034D900202CD9002015
:10882000A4A10020102307002DD60020C91E070098
:108830002623070070B5314BB0F90A201A80304B5F
:1088400090F90C201A702F4B42781A702E4A136838
:10885000013313602D4B00221A7003780446CBB904
:108860002B4A2C492C4813F02BFA2C492A4813F098
:1088700027FA2B49284813F023FA2849294813F0EE
:108880001FFA2749274813F01BFABDE870406420FF
:108890001DF090B8244A127A022A25D1022B0FD15A
:1088A000224D027A4168224806232B700FF02EF9E0
:1088B0002B46FA220121BDE870401E4812F021BF6C
:1088C000134A1449144813F0FBF922781A49124844
:1088D00013F0F6F91249104813F0F2F9227816490C
:1088E000104813F0EDF9CCE7144B1B7823B90F4B6C
:1088F00001211970FA22DEE770BD00BF10D50020FB
:1089000012D500200FD5002028D600202DD600201B
:1089100036230700581E070070E100203C230700A3
:10892000A86C0700D4E10020F8A20020E0D40020C9
:10893000E1D4002051E2002044230700C0A1002020
:1089400010B5044606F052FC204610BD70B5044632
:10895000002836D01B4B1C4A1C491D4800251D70A1
:1089600013F0AEF92A461B49194813F0A9F91A4920
:10897000174813F0A5F92A461649184813F0A0F92C
:108980001549164813F09CF964201DF013F8144B98
:108990001C60144B1B7A022B09D1134B07221A704F
:1089A000BDE870401148FA22012112F0AABE104B16
:1089B0001B7833B90F4A1368013313600A4B022244
:1089C000EDE770BD2DD60020541E0700581E07008D
:1089D00070E1002053230700A86C0700D4E10020B9
:1089E00030D60020F8A20020E0D4002051E2002080
:1089F000C0A1002024D6002030B54B4A4B494C4D35
:108A000099B004464B4813F05BF922464A4949485D
:108A100013F056F94949474813F052F9224646499E
:108A2000474813F04DF94549454813F049F964208A
:108A30001CF0C0FF2978002974D101231A2208A84C
:108A40002B7007910FF070F805A82AF019FE059811
:108A50003C4C00F5E0400FA96E302AF085FE149BD7
:108A6000394903F26C730393129B0293139B0133F6
:108A700001930F9B009307A8DDE910320FF0B4FDBE
:108A8000294A2A492B4813F01BF907AA2F492948DC
:108A900013F016F92949274813F012F907AA2B49B0
:108AA000274813F00DF92549254813F009F96420EA
:108AB0001CF080FF149B03F26C732380139B013323
:108AC000A370129B2371119B6371109BA3710F9B69
:108AD000E3711F4B1B782BB3134A1449154813F04D
:108AE000EFF81C49134813F0EBF81449114813F040
:108AF000E7F81849124813F0E3F81049104813F04A
:108B0000DFF864201CF056FF02232B70E3790193F9
:108B1000A379009363792279A178208805F00CFC71
:108B200005F080FC19B030BD62230700581E070015
:108B30002CD6002070E1002067230700A86C0700F6
:108B4000D4E100202CD900207E2307002840070014
:108B500034D90020A023070008B5064B1B783BB191
:108B600013F077F9BDE8084001460348FEF7DCBB87
:108B700008BD00BF59D6002018D6002007B52B4AE3
:108B80002B492C4813F09CF82B492A4813F098F8ED
:108B90002A49284813F094F82749294813F090F8F7
:108BA0002649274813F08CF864201CF003FF254A5F
:108BB000254801231370254A137012F04EFB18B19B
:108BC0002348002112F013FB224812F097FC22499F
:108BD000224812F0A5FB2249204812F0B1FB21499E
:108BE0001E4812F0A5FB20491C4812F0B1FB1F499A
:108BF0001A4812F0B5FB00211D4812F0EFFB0221CC
:108C00001C4812F059FC32230122009311460A231A
:108C1000124812F044FB184B997A01B1012122202D
:108C200003B05DF804EB13F008B900BF541E070051
:108C3000581E070070E10020B6230700A86C07004B
:108C4000D4E10020C0A10020C4E20020A1A10020A6
:108C5000AEE20020ADE200203588020089E200206B
:108C60004D8902008D7302002D740200F989020003
:108C700091E20020ABE20020F8A2002008B5264ACD
:108C80002649274813F01CF82649254813F018F800
:108C90002549234813F014F82249244813F010F80A
:108CA0002149224813F00CF864201CF083FE204B6D
:108CB00020480021197012F09AFA1F4812F0D1FAD8
:108CC000B8B9154A1549164812F0FAFF1B4914485D
:108CD00012F0F6FF1449124812F0F2FF1749134838
:108CE00012F0EEFF1049114812F0EAFF64201CF068
:108CF00061FE13490F4812F0C1FA12490D4812F0F3
:108D0000C5FA4FF6FD710B4812F071FABDE8084044
:108D10000021222013F091B8541E0700581E0700AE
:108D200070E10020CB230700A86C0700D4E10020ED
:108D3000A1A10020AEE20020C4E20020DA23070057
:108D4000DD730200B97302001F4B07B501221F48F3
:108D50001A7012F082FA18B11D48002112F047FA79
:108D60001C4812F0CBFB1C491C4812F0D9FA1C49D4
:108D70001A4812F0E5FA1B49184812F0D9FA1A49B4
:108D8000164812F0E5FA1949144812F0E9FA0021E0
:108D9000174812F023FB0021164812F08DFB3223F6
:108DA000012200930D480A23114612F078FA124B63
:108DB0009B7A33B10121222003B05DF804EB13F05C
:108DC0003CB803B05DF804FBA1A10020C4E2002080
:108DD000AEE20020ADE200203588020089E20020EA
:108DE0004D8902008D7302002D740200F989020082
:108DF00091E20020ABE20020F8A2002010B50B4C5D
:108E000000212046FEF756FA2046094C094A0A4935
:108E10000EF00EFEFF21204606F0DCF92046054A42
:108E20000649BDE810400EF003BE00BF18D6002072
:108E300004D5002090A10020BF72020041890200E9
:108E40002DE9F047012186B0222012F0DFFF012139
:108E5000232012F0DBFF0121242012F0D7FF002194
:108E6000222012F0EAFF2C482C4D022306224FF458
:108E7000E13112F001F90123022203AC28490093E9
:108E8000284800230FF0B0FB2649204612F092FD3F
:108E90002146254812F0DEFB204612F045FD23480E
:108EA00012F032FE04F01EFB287030B120491D483C
:108EB0000FF0D1FB1B4804F049FB0121232012F0E5
:108EC000BCFF4FF08043D3F83834032B32D012F07C
:108ED000C0FF114F06464FF0000A384612F0B1F8B5
:108EE00040BB12F0B6FF41F28732B0EB06086AEBE6
:108EF0004A090023424573EB09031BDB64201CF085
:108F000059FD232012F09EFFB0FA80F14909232079
:108F100012F093FFE1E700BF70E100200DD50020C3
:108F2000FC23070013D50020F8E10020CCE200204C
:108F3000C91E07000021232012F07FFF00212420FA
:108F400012F07BFF2B78BBB9AF4AB049B04812F0A2
:108F5000B7FEB049AE4812F0B3FEAF49AC4812F0CC
:108F6000AFFEAC49AD4812F0ABFEAB49AB4812F0D6
:108F7000A7FE64201CF01EFD02F044FEB8B9A24A10
:108F8000A249A34812F09CFEA549A14812F098FE00
:108F9000A1499F4812F094FEA149A04812F090FE0A
:108FA0009D499E4812F08CFE64201CF003FD02F0E7
:108FB000BBFDB8B9944A9549954812F081FE99498C
:108FC000934812F07DFE9449914812F079FE95493C
:108FD000924812F075FE9049904812F071FE64209C
:108FE0001CF0E8FC02F0B6FDB8B9874A874988480A
:108FF00012F066FE8C49864812F062FE864984486B
:1090000012F05EFE8849854812F05AFE8249834874
:1090100012F056FE64201CF0CDFC02F0B1FDB8B990
:10902000794A7A497A4812F04BFE8049784812F022
:1090300047FE7949764812F043FE7C49774812F0A2
:109040003FFE7549754812F03BFE64201CF0B2FCEF
:1090500003F0B8F9B8B96C4A6C496D4812F030FEAB
:1090600073496B4812F02CFE6B49694812F028FED8
:109070006F496A4812F024FE6749684812F020FEE2
:1090800064201CF097FC00F03DFDB8B95E4A5F49D2
:109090005F4812F015FE67495D4812F011FE5E4907
:1090A0005B4812F00DFE63495C4812F009FE5A4914
:1090B0005A4812F005FE64201CF07CFC5E4E002035
:1090C00000F0FAFB337A032B40F01D814E4A4F49E2
:1090D0004F4812F0F5FD59494D4812F0F1FD4E4947
:1090E0004B4812F0EDFD55494C4812F0E9FD4A4954
:1090F0004A4812F0E5FD64201CF05CFC012003F0FE
:1091000057FB05F009F84E4B187038B105F08AF995
:1091100094E803002AF093FA02F05EFD05F0FAFEEF
:10912000484F3870002840F01681374A3749384890
:1091300012F0C6FD4449364812F0C2FD36493448A3
:1091400012F0BEFD4049354812F0BAFD32493348AD
:1091500012F0B6FD64201CF02DFC337A012B00F0D8
:109160003881022B00F03E813BB33849284812F089
:1091700093FD2B780BB3364936480FF06CFA35491E
:10918000204612F017FC00212246084604F020FB7E
:10919000204612F0C9FB30492E480FF05CFA2D49E9
:1091A000204612F007FC22460021012004F010FBAB
:1091B000204612F0B9FB04F025FB284804F08EFA93
:1091C000274812F021F910B9264804F087FAFFF772
:1091D000D5FC4FF47A73244972681E48B2FBF3F24F
:1091E0000FF002FA1B4804F079FA204A20480123C4
:1091F000002112F07CFA7268002A3BD000231C4840
:10920000194612F07EFA35E0541E0700581E07007A
:1092100070E1002012240700A86C0700D4E10020B0
:109220002024070047240700752407009F24070017
:10923000CD240700F2240700F8A200200E25070025
:1092400034D900200ED50020382507007C250700E2
:109250009D25070013D50020AF2507007A200700C1
:1092600094E20020BF2507009B200700A1740200A4
:1092700051E20020624A63480023012112F037FACC
:109280000023614A5F48022112F031FA737A33B148
:109290005C4800234EF66022022112F032FA0123CC
:1092A0005A4A5848032112F022FA594B1B785BB1F5
:1092B000584812F0A9F838B93223012200935648D1
:1092C0000A23114611F0EBFF544A5549554812F054
:1092D000F7FC5549534812F0F3FC5449514812F039
:1092E000EFFC5149524812F0EBFC5049504812F043
:1092F000E7FC64201CF05EFB01214E4812F07DFD6E
:1093000006B0BDE8F087B77A444A45494548B7B941
:1093100012F0D6FC4849434812F0D2FC4349414878
:1093200012F0CEFC4449424812F0CAFC3F49404882
:1093300012F0C6FC64201CF03DFB0020DFE612F0BA
:10934000BFFC3E49374812F0BBFC3849354812F0A3
:10935000B7FC3A49E7E702F029FC05F0D9F9387083
:10936000B8B92E4A2E492F4812F0AAFC34492D488C
:1093700012F0A6FC2D492B4812F0A2FC30492C48D3
:1093800012F09EFC29492A4812F09AFC64201CF035
:1093900011FB224A22492348DFF8B890DFF8B88051
:1093A00012F08EFC3A7827491E48002A14BF4A461C
:1093B000424612F085FC1D491A4812F081FC3A78A9
:1093C00020491B48002A14BF4A46424612F078FC46
:1093D000BCE6FFF753FC1C4804F080F9124804F087
:1093E0007DF9F6E6194804F079F90A4812F00CF80C
:1093F00010B9174804F072F9FFF7A6FCE9E600BFC0
:10940000617A020051E2002059D8020029CF0200FF
:10941000A1A1002094E2002089E20020541E070050
:10942000581E070070E10020CD250700A86C07003A
:10943000D4E10020E9E10020222507000E250700E5
:10944000492507005F250700412007008920070004
:10945000BF250700F1230700F6230700704700002F
:109460002DE9F04F944C954DDFF868A2DFF868B213
:1094700089B0204606F028F8204610EE107A06F053
:1094800042F820468DED050A06F05CF88C4A8D49BD
:109490008DED060A284612F013FC204606F014F85B
:1094A000204610EE108A06F00FF8384610EE106ACB
:1094B00047F092FF844B002247F0E6FF48F094FA11
:1094C00007B2404647F088FF8046304689460297FB
:1094D00047F082FF7C4B7D4E002247F0D5FF42468D
:1094E0004B46CDE900015146284612F0E9FB3146D2
:1094F000284612F0E5FB204605F0E6FF204610EE78
:10950000108A05F0E1FF40468DED070A47F064FF41
:10951000079B029780461846894647F05DFF6A4BD5
:10952000002247F0B1FF4B464246CDE900015146CB
:10953000584612F0C5FB3146584612F0C1FB642074
:109540001CF038FA5E4A5F49284612F0B9FB204603
:1095500005F0D9FF204610EE107A05F0D4FF0598EB
:1095600010EE10AA47F038FF0022574B47F08CFF4F
:1095700048F03AFA03B23846059347F02DFF059BB1
:10958000029380465046894647F026FF4E4B504F87
:10959000DFF848A1002247F077FF42464B46CDE96D
:1095A00000013946284612F08BFB3146284612F05E
:1095B00087FB204605F0A7FF204610EE108A05F035
:1095C000A2FF40468DED070A47F006FF059B029378
:1095D000079B80461846894647F0FEFE3A4B00221C
:1095E00047F052FF4B464246CDE900013946584606
:1095F00012F066FB3146584612F062FB64201CF004
:10960000D9F92F4A2F49284612F05AFB204605F077
:1096100099FF204610EE108A05F094FF06988DED14
:10962000050A47F0D9FE284B002247F02DFF48F0ED
:10963000DBF907B2404647F0CFFE80460598029717
:10964000894647F0C9FE204B002247F01DFF4246E5
:109650004B46CDE900015146284612F031FB314618
:10966000284612F02DFB204605F06CFF204610EE38
:10967000105A05F067FF284610EE108A47F0ACFE3E
:10968000044640460D46029747F0A6FE0E4B0022C8
:1096900047F0FAFE2246CDE900012B4651465846D6
:1096A00012F00EFB3146584612F00AFB642009B056
:1096B000BDE8F04F1CF07EB934D6002070E10020E8
:1096C000DB250700581E070000408F40A86C0700EC
:1096D000EE250700DF250700D4E10020FD25070067
:1096E00007B568480DF10701312205F035FF9DF8F7
:1096F0000730590618D5644A6449654812F0E0FA03
:109700009DF807206349624812F0DAFA624960481E
:1097100012F0D6FA5F499DF80720604812F0D0FA9F
:109720005D495E4812F0CCFA64201CF043F99DF8C4
:1097300007309A0614D5544A5449554812F0C0FAD5
:109740005749534812F0BCFA5349514812F0B8FA3D
:109750005349524812F0B4FA4F49504812F0B0FA47
:1097600064201CF027F99DF80730DB0614D5464A23
:109770004649474812F0A4FA4A49454812F0A0FA6F
:109780004549434812F09CFA4649444812F098FA79
:109790004149424812F094FA64201CF00BF99DF8FC
:1097A0000730180714D5384A3849394812F088FA72
:1097B0003D49374812F084FA3749354812F080FAAB
:1097C0003949364812F07CFA3349344812F078FAB5
:1097D00064201CF0EFF89DF80730590714D52A4A89
:1097E0002A492B4812F06CFA3049294812F068FADD
:1097F0002949274812F064FA2C49284812F060FAE7
:109800002549264812F05CFA64201CF0D3F89DF834
:1098100007309A0714D51C4A1C491D4812F050FA0B
:1098200023491B4812F04CFA1B49194812F048FA18
:109830001F491A4812F044FA1749184812F040FA22
:1098400064201CF0B7F89DF80730DB0714D50E4AEA
:109850000E490F4812F034FA16490D4812F030FA4A
:109860000D490B4812F02CFA12490C4812F028FA54
:1098700009490A4812F024FA64201CF09BF803B04E
:109880005DF804FB34D60020DB250700581E0700D6
:1098900070E100200C260700A86C0700D4E100202E
:1098A000232607002A260700302607003726070050
:1098B0003D2607004426070073B500210446112009
:1098C00012F0A4FA5C4812F01FF95C4B54B300226A
:1098D0009A800A22DA804FF481721A8140F20112D2
:1098E0005A81564805F0C8FE054608B3544A554902
:1098F000554812F0E5F95549534812F0E1F9544939
:10990000514812F0DDF95149524812F0D9F9504945
:10991000504812F0D5F964201CF04CF80024204681
:1099200002B070BD02229C80DC801A815C81D8E785
:10993000002C38D02A22302140488DF807200126FB
:1099400005F0B4FC082232213C488DF8072005F0D0
:10995000ADFC3246332139488DF8076005F0A6FC8E
:1099600024220DF10701354805F0F6FD9DF807208A
:10997000324822F00C0242F0080224218DF8072020
:1099800005F094FC602222212C488DF8072005F078
:109990008DFC2A462521294805F088FC27483246B7
:1099A000212105F083FC002520220DF10701234829
:1099B0008DF8075005F0D0FD9DF807201F4842F0B4
:1099C000080220218DF8072005F070FC64201BF0B0
:1099D000F1FF1E220DF1070118488DF8075005F020
:1099E000BBFD9DF80720154842F090021E218DF81E
:1099F000072005F05BFC64201BF0DCFF4CB1FFF797
:109A00006FFE15490422112011F0EEFAFFF728FD30
:109A100085E720220DF10701084805F09DFD9DF81E
:109A20000720064802F0400220218DF8072001247B
:109A300005F03CFC73E700BFCCE2002034D60020E8
:109A4000DB250700581E070070E100204A260700AA
:109A5000A86C0700D4E100205D940200024818229F
:109A6000002105F0DDBB00BF34D60020F8B512F0B0
:109A7000F0F91B4D1B4B1C4C0021C3E9000112F0F7
:109A8000E8F9D5E90032C61A62EB4207C92E77F130
:109A9000000308DB12F0DDF900236B6023782860F7
:109AA0000133DBB22370114A1149124812F008F950
:109AB000227811490F4812F003F910490D4812F0AD
:109AC000FFF822780C490E4812F0FAF80B490C48BE
:109AD00012F0F6F8BDE8F84064201BF06BBF00BF41
:109AE00048D6002050D6002059D600206B2607000B
:109AF000581E070070E100206F260700A86C0700C1
:109B0000D4E1002008B50221092012F07FF90649AE
:109B10000322092011F068FA044905480123642250
:109B2000FDF7E0FB012008BD6D9A0200B1A0020024
:109B300018D600202DE9F04FAC4D8FB0CDE90C23A5
:109B400012F087F9D5E900BC0024B0EB0B0240F617
:109B5000B83064EB0C030021904271EB0303A24682
:109B6000A146A0462746264665DB12F072F9D5E9E4
:109B70000023811A63EB430300910193DDE9002385
:109B8000B2F5C87F73F1000360DA12F062F9D5E92B
:109B90000023811A63EB430302910393DDE902344E
:109BA000B3F5C87F74F1000375DA12F052F9D5E904
:109BB0000023811A63EB430304910593DDE9043428
:109BC000B3F5167F74F1000380F2888012F041F93A
:109BD000D5E90023811A63EB430306910793DDE97E
:109BE0000634B3F5487F74F1000380F29D8012F0D3
:109BF00030F9D5E90023811A63EB430308910993F7
:109C0000DDE90834B3F5966F74F1000380F2AF809C
:109C100012F01FF9D5E90023811A63EB43030A917F
:109C20000B93DDE90A34B3F5AF6F74F1000380F2F2
:109C3000BF80072474E0092012F004F9002894D1B1
:109C40006B4B1B78002B90D0022469E0684B1B788B
:109C5000012B9AD1092012F0F5F8012895D14FF087
:109C6000000BC82C11D0092012F0ECF8012808BF15
:109C70000BF1010B4FF0010004F1010408BF5FFA82
:109C80008BFBE4B21BF096FEEBE7BBF1C60F7FF651
:109C90007CAF002444E0564B1B78022B85D1092071
:109CA00012F0D0F8012880D10024BAF1C80F10D0EA
:109CB000092012F0C7F8012808BF01344FF0010055
:109CC0000AF1010A08BFE4B25FFA8AFA1BF072FED9
:109CD000EBE7C62C7FF669AF012421E0444B1B78EB
:109CE000032BDCB27FF472AF4FF0000AB9F1C80F5A
:109CF00012D0092012F0A6F8012808BF0AF1010AC3
:109D00004FF0010009F1010908BF5FFA8AFA5FFA12
:109D100089F91BF04FFEE9E7BAF1C60F7FF656AF9F
:109D200020460FB0BDE8F08F314B1B78042BDCB21E
:109D30007FF45DAF4FF00009B8F1C80F12D00920D1
:109D400012F080F8012808BF09F101094FF0010065
:109D500008F1010808BF5FFA89F95FFA88F81BF07B
:109D600029FEE9E7B9F1C60F7FF641AFD8E7204BEE
:109D70001B78052BDCB27FF44BAF4FF00008C82FE7
:109D800011D0092012F05EF8012808BF08F101087F
:109D90004FF0010007F1010708BF5FFA88F8FFB232
:109DA0001BF008FEEBE7B8F1C60F7FF631AFB7E75F
:109DB0000F4B1B78062BDCB27FF43BAF0025C82E7F
:109DC0000FD0092012F03EF8012808BF01354FF0EE
:109DD000010006F1010608BFEDB2F6B21BF0EAFD84
:109DE000EDE7C62D7FF625AF9AE700BF50D60020DD
:109DF00059D6002073B58C4D8C4C2A7A237A9A421E
:109E000030D003F0C9FC8A4803F0A0FB6A68AB7A43
:109E1000884862602A89A372228103F05FFC864829
:109E200003F05CFC03F0EEFC01F002FF40F6B830FA
:109E30001BF0C0FD237A8148012B4FF000014FF049
:109E4000320640F0A08011F0D2F900227C48009642
:109E50000A23114611F023FA7A4811F002FA7A48DF
:109E600011F018FCAA7AA37A9A4206D02B7A022B18
:109E70000CBF0120002002F09BFC6A6863689A42D4
:109E800007D1AB68A268534023F07F4323F0FF0360
:109E9000ABB103F081FC674803F020FC664803F097
:109EA0001DFC03F0AFFC6B6863606B7A6372AB7A86
:109EB000A37201F0BDFE40F6B8301BF07BFD634895
:109EC00011F018FB00286BD0614811F09FFA614B2C
:109ED0001978884205D000395D4818BF012111F07A
:109EE00097FA5D4811F0A4FA5C4B1978884202D0C9
:109EF000594811F09FFA5A4811F0ACFA594B1978A9
:109F0000884202D0564811F0A7FA574D57482E788C
:109F100011F0B2FA86420BD02978544811F0B8FA01
:109F200032230122009346480A23114611F0B7F963
:109F300003F032FC237A012B6FD0022B6FD013B9C0
:109F40004B4803F0CBFB4FF47A7362684949B2FB8C
:109F5000F3F249480EF048FB474803F0BFFB626844
:109F600022B100234548194611F0CBFB637A002B40
:109F700057D0424800234EF66022022102B0BDE8CD
:109F8000704011F0BEBB11F032F9012200960A2395
:109F900011462B4811F083F92C4811F0AFFA5EE717
:109FA000374D3848296811F0DCF8364811F0D7F8F9
:109FB0002968884202D0334811F0D3F8324811F0B2
:109FC000DFF8324B1978884202D02F4811F0DAF8C6
:109FD0002F4D30482E7811F0E4F8864203D02978CE
:109FE0002C4811F0E0F82C4811F0ECF82B4B1978C4
:109FF000884202D0284811F0E7F8294811F0F5F816
:10A00000284B1978884202D0254811F0FFF84FF606
:10A01000FD710A4811F0EBF88AE7234891E72348DD
:10A020008FE702B070BD00BFCCA10020F8A20020D5
:10A030007F2607008626070096260700AEE200204E
:10A0400089E20020C4E20020E8E10020ADE2002027
:10A0500095E200205BD6002098E200205DD600202B
:10A06000A0E200205ED600205CD60020AAE20020FC
:10A070007A2007009B20070013D5002051E2002022
:10A0800068D60020B9E20020BAE200206CD6002099
:10A0900063D60020BBE20020BCE2002064D6002092
:10A0A000BEE200206DD60020412007008920070075
:10A0B000F7B5FFF73FFD062800F2C686DFE810F08F
:10A0C0001F06C0030700C001D3006E003200954B8D
:10A0D000954A00241C70954B00200021C3E9000123
:10A0E0009349944811F0ECFD9349924811F0E8FD32
:10A0F0009249904811F0E4FD8F49914811F0E0FD3C
:10A100008E498F4811F0DCFD64201BF053FC8D4B11
:10A110001B782BB1204603B0BDE8F04003F07ABBBA
:10A120000120F8E77F4B00221A70804B00200021AD
:10A13000C3E90001844B1B78002B00F08586834C1B
:10A140002378052B0DD1824B8248997A10222270F8
:10A1500001915B7A00938049804B09781B7803F06A
:10A160007FFB714A7249734811F0AAFD22787C493D
:10A17000704811F0A5FD71496E4811F0A1FD2278DB
:10A1800077496F4811F09CFD6C496D4811F098FDBE
:10A19000642003B0BDE8F0401BF00CBC614B002212
:10A1A0001A70624B00200021C3E90001664B1B7846
:10A1B000002B4ED0654C2378042B30D0052B3ED09D
:10A1C0008BB9684811F096F90128614B1CD1997A36
:10A1D00065480422227001915B7A644900930978F2
:10A1E000FF2303F03DFB504A5149524811F068FDEE
:10A1F00022785F494F4811F063FD50494D4811F0F6
:10A200005FFD22785A49BCE7997A5A4805222270A4
:10A2100001915B7A584900930978FF23E1E707230E
:10A220005648237011F028F9494A937A0193537ADA
:10A2300000932278C3B2484946480978D1E7444B95
:10A240000E22997A227001915B7A00934C4B1B7815
:10A25000F1E703F0A1FA4B4803F078F903B0BDE849
:10A26000F0401BF0BEBB2F4B00221A702F4B00207A
:10A270000021C3E90001344B1B78002B00F0D5808E
:10A28000324C2378062B23D8DFE813F007001500A3
:10A29000330041008C00BD00C7002D4903220B7A1A
:10A2A000887A22700190497A00910233DBB23649F4
:10A2B000364809780AE0264B3548997A0022227000
:10A2C00001915B7A334900930978FF2303F0C8FAC0
:10A2D000154A1749174811F0F3FC22782E49154802
:10A2E00011F0EEFC1549134811F0EAFC22782A49D6
:10A2F00047E7174A2949537A294883F001035372E3
:10A30000927ACDE90032FF2309780222DEE7104B72
:10A3100002221A729A7A01925B7A00930322042332
:10A32000C5E700BF59D600206B26070050D6002095
:10A33000581E070070E10020A7260700A86C070040
:10A34000D4E10020A4A4002058D600205AD6002032
:10A35000CCA10020C4A10020C8A100206DD60020FF
:10A36000B1260700ADE2002098A20020ACA2002098
:10A37000C2260700C4A20020DCA20020AAE200201E
:10A3800064D60020D32607006CA200205CA2002027
:10A39000E0A20020F4A20020DE260700C0A20020D8
:10A3A000B0A200200A238248237011F065F8C0B2E1
:10A3B0000C280ED8DFE800F0071B1B211B21211BF6
:10A3C0001B1B1B1B21007B4B00221A707A4B0522A2
:10A3D0001A707A4A7A4B917A1B780191527A0092DC
:10A3E0000A332278DBB27749774809786EE7714BF8
:10A3F00000221A70704B0722EAE76E4B00221A7097
:10A400006D4B0A22E4E76D4B0D22997A227001917F
:10A410005B7A00936D4B1B78E5E7684B9A7A019263
:10A420005B7A009306220023DDE703F0B5F9684864
:10A4300003F08CF8674803B0BDE8F04011F02AB98A
:10A44000654B00221A70654B00240025C3E90045C6
:10A45000634B1B78002B00F08381624C2278102A1A
:10A460002BD8DFE812F011001D003B00460053001E
:10A4700084009100DD002A00060119012E0140012F
:10A4800050015F012A006D014C4B0222997A227023
:10A4900001915B7A0093FF235349544809780AE0FD
:10A4A000464B5348997A0022227001915B7A5149B8
:10A4B00000930978FF2303F0D3F94F4A4F495048DE
:10A4C00011F0FEFB22784F494D4811F0F9FB4E493F
:10A4D0004B4811F0F5FB22784A4952E6374A937A05
:10A4E00083F0010393720193537A00930222FF23B6
:10A4F000D2E7324B4549464801221A729A7A0192B4
:10A500005B7A0093032309781A46D4E70923284885
:10A51000237010F0B1FFC0B20C2814D8DFE800F0AF
:10A5200007070707070D1E07242424241E00394BA4
:10A5300000221A70384B052204E0364B00221A70B4
:10A54000354B04221A701D4A1D4B917A1B780191DC
:10A55000527A00920A33DBB2227811E02D4B0022AE
:10A560001A702D4B0622EDE72A4B0222E1E7134B2E
:10A570000C22997A227001915B7A0093274B1B7809
:10A5800010491148097896E70C4B5A6842B142F2DB
:10A590000F718A428ABFA2F51C520022103A5A60FB
:10A5A0009A7A01925B7A00930622FF23E8E700BFC4
:10A5B000AAE2002062D6002060D60020CCA10020B4
:10A5C0005DD60020C8A10020C4A1002063D60020D1
:10A5D000EF260700E8E1002059D6002050D60020E1
:10A5E00058D600205AD60020C0A20020B0A20020D9
:10A5F000E0A20020F4A200206B260700581E0700EE
:10A6000070E10020FF260700A86C07006CA2002064
:10A610005CA2002061D600205FD600206CD600200E
:10A620006C4D2B781BB3013BDBB26B4A6B496C481A
:10A630002B7011F045FB2A786A49694811F040FBFC
:10A640006949674811F03CFB2A786649674811F070
:10A6500037FB6549654811F033FB64201BF0AAF90C
:10A66000634B9A7A01925B7A00932B7874E70C2300
:10A67000DBE7604A60491378097899420BBF5F4B6A
:10A6800003F1FF331B78DBB21370594A917A0191C1
:10A69000527A0092092273E7594A5A491378097885
:10A6A00099420BBF584B03F1FF331B78DBB2137099
:10A6B0004F4B9A7A01925B7A00934E4B0A221B7899
:10A6C0005EE7524A52491368A3F5C333A03B8B425D
:10A6D00098BF504B1360464B9A7A01925B7A009375
:10A6E0000B22FF234CE74C490B78062B1CBF03F1D0
:10A6F000FF33DAB23E4B0A70997A01915B7A00938C
:10A7000013460C223CE7454A13784BB1013BDBB2C0
:10A710001370374A917A0191527A00920D222FE7F5
:10A720000923F5E73E4A117809B1481EC0B21070FE
:10A730002F4A937A0193537A00930E2203461FE720
:10A74000384A1378052B1ABF03F1FF33DBB2162307
:10A750001370274A917A0191527A009210220FE7E2
:10A76000314B1B78002B40F06F83304B1B7813B9B3
:10A77000012003F04FF8184A1849194811F0A0FABF
:10A780002B49174811F09CFA1749154811F098FA0F
:10A790002749164811F094FA1349144811F090FA19
:10A7A00064201BF007F90021224810F0B4FF224B6F
:10A7B000012200201A70FCF773FE204B5A68002A11
:10A7C00000F0428300231B48194603B0BDE8F04067
:10A7D00010F097BF5CD600206B260700581E0700BC
:10A7E00070E10020F5260700A86C0700D4E10020E6
:10A7F000CCA100205DD6002061D600205FD60020CD
:10A800005ED6002062D6002060D6002068D60020E8
:10A810007F47A1198047A1196CD6002063D600207C
:10A8200064D600206DD600202DD60020A4A40020E0
:10A830001027070051E2002001D50020F8A20020D7
:10A84000A94BAA4DAA4C00221A70AA4B0021002045
:10A85000C3E900012978002940F0E480A64810F0FF
:10A860005AFF0121A44810F056FFA348022110F01E
:10A8700052FFA24B1B7813B9012002F0CBFF01233A
:10A880009F4A2B70002323709E4B917A5068128947
:10A8900058601A819C48997210F02CFE05469B4A1C
:10A8A0009B499C48002D42D011F00AFA9A499948D8
:10A8B00011F006FA9949974811F002FA964998481A
:10A8C00011F0FEF99549964811F0FAF964201BF051
:10A8D00071F8944810F0ACFD934B1870934810F049
:10A8E000CBFD934B1870934810F090FD924B18706D
:10A8F000924810F0AFFD924B18700023CDE9003361
:10A90000227890499048097802F0AAFF7F4A80494E
:10A91000804811F0D5F922788C497E4811F0D0F9A1
:10A920007E497C4811F0CCF92278884929E411F05D
:10A93000C7F97949774811F0C3F97849754811F09A
:10A94000BFF97549764811F0BBF97449744811F0A4
:10A95000B7F964201BF02EF829467D487D4D10F094
:10A9600046FC7D4810F0FBFB28607C4810F008FC9A
:10A970007B4B18707B4810F014FC7B4B18707B48A5
:10A9800010F020FC7A4B18707A4810F02EFC7A4BAD
:10A990005E4A18705E495F4811F092F9286846F0E7
:10A9A00009FD4FA3D3E9002346F098FE06466A4806
:10A9B0000F4610F0D4FB46F0FDFC49A3D3E9002379
:10A9C00046F08CFE32463B46CDE900016B495148CA
:10A9D00011F076F951494F4811F072F9286846F0A4
:10A9E000E9FC3FA3D3E9002346F078FE06465A4827
:10A9F0000F4610F0B4FB46F0DDFC39A3D3E9002389
:10AA000046F06CFE3246CDE900013B465B494448C6
:10AA100011F056F94149424811F052F964201AF0F8
:10AA2000C9FF6AE72378102B3FF670AF01A252F8F6
:10AA300023F000BF79AA02008BAA02009DAA02009F
:10AA4000A1AA0200BBAA0200D9AA0200E5AC02003A
:10AA500091AB0200E5AB020001AC020025AC0200A4
:10AA600049AC02006DAC02008BAC0200A9AC020044
:10AA70000DA90200C7AC02000122224B2270997A74
:10AA800001915B7A0093FF2322E01E4B0022997A0A
:10AA9000227001915B7A0093FF2332E70622ECE7F4
:10AAA000184B3749374800221A729A7A01925B7A1A
:10AAB000009309780223032226E712491E4B887A65
:10AAC0001B78082222700190497A00910A33DBB288
:10AAD0002D492E48097817E70B22CEE7AFF3008007
:10AAE0000000000084D7974159D6002058D6002096
:10AAF0005AD6002050D6002051E20020A4A4002005
:10AB0000F8A20020CCA10020ADE200206B260700B7
:10AB1000581E070070E1002026270700A86C0700D8
:10AB2000D4E1002098E200205DD60020AAE20020B7
:10AB30005CD6002095E200205BD60020A0E2002039
:10AB40005ED60020F4A20020E0A2002049270700E2
:10AB5000AEE2002068D60020B9E20020BAE2002070
:10AB60006CD60020BBE2002063D60020BCE20020AF
:10AB700064D60020BEE200206DD600203B270700EF
:10AB80006CA200205CA20020C8A10020C4A100206B
:10AB9000874D884A2B78884988480C2B1ABF013387
:10ABA000DBB200232B7011F08BF82A78844983489C
:10ABB00011F086F88349814811F082F82A7880499B
:10ABC000814811F07DF87F497F4811F079F86420C1
:10ABD0001AF0F0FE7D4B9A7A01925B7A00932B7803
:10ABE000227875E77A4A1378B3FA83F35B09137016
:10ABF000764A917A0191527A00920A33082267E7E5
:10AC0000744A75491378097899420BBF734B013325
:10AC10001B78DBB213706D4A917A0191527A0092DF
:10AC2000092255E76E4A6F491378097899420BBF9C
:10AC30006D4B01331B78DBB21370644A917A01913A
:10AC4000527A00920A2243E7684A6949136803F579
:10AC5000C333A0338B4294BF136011605B4B9A7A6D
:10AC600001925B7A00930B22FF2331E7614A13784C
:10AC70000C2B1ABF0133DBB206231370534A917AAF
:10AC80000191527A00920C2222E75B4A1378092B39
:10AC90001ABF0133DBB2002313704C4A917A019141
:10ACA000527A00920D2213E7544A1378032B1ABFED
:10ACB0000133DBB200231370444A917A0191527A36
:10ACC00000920E2204E74E4A1378162B1ABF013366
:10ACD000DBB2052313703D4A917A0191527A0092BA
:10ACE0001022F5E6394A536803F51C5310335360BC
:10ACF000937A0193537A009306220023E8E6414BAE
:10AD000000221A70404B00200021C3E900013F4B94
:10AD10001A78002A00F098803D4C2278102A0ED82C
:10AD2000DFE802F0091F1F1F1F1F862D2D2D2D3953
:10AD30003939390D390000221A70FFF75BF81D4AC6
:10AD40001D491E4810F0BCFF227832491B4810F004
:10AD5000B7FF1C49194810F0B3FF22782D49FFF7BF
:10AD600010BA1A4B2C48997A0022227001915B7A12
:10AD70002A4900930978FF2302F072FDDFE7134BA5
:10AD80002748997A0422227001915B7A2549009321
:10AD90000978FF23F0E70D4B2348997A05222270AA
:10ADA00001915B7A214900930978FF23E4E700BF12
:10ADB0005CD600206B260700581E070070E10020BB
:10ADC000F5260700A86C0700D4E10020CCA10020E4
:10ADD0005BD600205DD600205FD6002061D6002023
:10ADE0005ED6002060D6002062D6002068D6002003
:10ADF000007038396CD6002063D6002064D600205D
:10AE00006DD6002059D6002050D6002058D60020FC
:10AE10005AD600205A270700E0A20020F4A2002002
:10AE200098A20020ACA20020C4A20020DCA2002036
:10AE3000064B0748997A0222227001915B7A0549F4
:10AE400000930978FF2397E703B0F0BDCCA1002061
:10AE5000B0A20020C0A20020494B1B7870B5CBB92E
:10AE6000484A4949494810F02BFF4949474810F0E2
:10AE700027FF4849454810F023FF4549464810F050
:10AE80001FFF4449444810F01BFF64201AF092FD54
:10AE900002244EE0556E012DFAD116683F49304626
:10AEA0000DF0CFFB0446002845D13A49374810F051
:10AEB00007FF3849354810F003FF3649364810F08F
:10AEC000FFFE3449344810F0FBFE64201AF072FD96
:10AED0002146334810F01FFC2946314810F01BFC76
:10AEE00002212F4810F017FC02F056FC2D4802F00A
:10AEF0002DFB2D4802F0F2FB2C4802F0EFFB02F094
:10AF000081FC03F0DFFE2349204810F0D9FE2149DF
:10AF10001E4810F0D5FE1F491F4810F0D1FE1D49F4
:10AF20001D4810F0CDFE64201AF044FD204810F0BA
:10AF3000B1FB204670BD1F4930460DF082FB044630
:10AF40000028A5D11C4B014615481D7010F0E3FBED
:10AF50002946134810F0DFFB0221114810F0DBFBFB
:10AF600002F01AFC0F4802F0F1FA144802F0B6FBA6
:10AF70000E4802F0B3FB02F045FC03F055FBD5E7A9
:10AF80000ED50020C7270700581E070070E10020DB
:10AF9000CE270700A86C0700D4E10020298C070009
:10AFA00051E200207F260700E227070096260700CF
:10AFB000E8E100202972070058D60020F227070098
:10AFC00070B598B014460A490EA810F0F3FC00239F
:10AFD000CDE91433CDE91633636E012B0CD105494D
:10AFE00020680DF02EFB48B1022400F0EDBC00BF3C
:10AFF0009C3D0700298C0700002BF5D1B649B748C6
:10B00000B74CB84DB84E10F05BFEB849B34810F0DD
:10B0100057FEB149B64810F053FEB449B44810F099
:10B020004FFE64201AF0C6FC237AB24955F823205B
:10B03000AA4810F045FEAD49A84810F041FE237A19
:10B04000AC4955F82320AA4810F03AFEA749A84871
:10B0500010F036FE64201AF0ADFCA74911A810F0DC
:10B0600003FB11A90EA810F0B8FC11A810F05CFCAD
:10B070000EA810F0F5FC0E9AA049984810F020FE9A
:10B080009A49964810F01CFE0E9A9C49984810F078
:10B0900017FE9649964810F013FE64201AF08AFCB9
:10B0A000974911A810F0C0FA119A96498B4810F0F0
:10B0B00007FE11A810F038FC8C49884810F000FEFB
:10B0C0008F4911A810F0B0FA119A8E49884810F0F3
:10B0D000F7FD11A810F028FC8449854810F0F0FD18
:10B0E00064201AF067FC4FF47A7562688649B2FBF7
:10B0F000F5F27A4810F0E4FD7C49784810F0E0FD64
:10B1000062688149B2FBF5F2794810F0D9FD7749C0
:10B11000774810F0D5FD64201AF04CFC7B4810F005
:10B12000E9F97B4956F8202005466C4810F0C8FD27
:10B130006E496A4810F0C4FD56F8252074496C48E1
:10B1400010F0BEFD69496A4810F0BAFD64201AF09B
:10B1500031FC012D40F04E836E486F4E6F4D10F064
:10B1600053F96F49002814BF32462A465B4810F055
:10B17000A7FD5E49594810F0A3FD664810F044F958
:10B180006749002814BF32462A465948654E10F0D8
:10B1900097FD5649564810F093FD64201AF00AFCBA
:10B1A000614810F069F96149054602464B4810F0C4
:10B1B00087FD4E49494810F083FD2A465B494C48BB
:10B1C00010F07EFD49494A4810F07AFD64201AF0DB
:10B1D000F1FB56F825205649404810F071FD4349CF
:10B1E0003E4810F06DFD56F825205149404810F0BA
:10B1F00067FD3E493E4810F063FD64201AF0DAFB1B
:10B200004C4810F0FAF8002800F0BE814A49334853
:10B2100010F056FD3549314810F052FD464934488A
:10B2200010F04EFD3149324810F04AFD64201AF00A
:10B23000C1FB082214A9414810F0BEF89DF8573010
:10B2400005939DF8563004939DF8553003939DF86F
:10B25000543002939DF8533001939DF852309DF87D
:10B260005020374900931D489DF8513010F028FDBB
:10B270001E491A4810F024FD9DF8573005939DF89B
:10B28000563004939DF8553003939DF85430029343
:10B290009DF8533001939DF852309DF85020284975
:10B2A000009313489DF8513010F00AFD0F491048E3
:10B2B00010F006FD64201AF07DFB082214A9214835
:10B2C00010F056F89DF8573005939DF856300493CA
:10B2D0009DF8553038E000BF1028070070E10020CD
:10B2E000F8A20020C8A30020BCA30020A86C07007F
:10B2F000D4E100201F28070028E200202D280700A5
:10B30000ECE10020555A070038280700ADE2002084
:10B310004828070094E200209D69070002280700E2
:10B320005828070088A30020AAE20020632807000D
:10B330006E28070093E20020792807008EE20020A3
:10B34000832807008AE2002003939DF8543002937B
:10B350009DF8533001939DF852309DF850207D495F
:10B3600000937D489DF8513010F0AAFC7B497A4843
:10B3700010F0A6FC9DF8573005939DF856300493C5
:10B380009DF8553003939DF8543002939DF8533047
:10B3900001939DF852309DF850206E4900937048FB
:10B3A0009DF8513010F08CFC6C496D4810F088FC11
:10B3B00064201AF0FFFA102214A96A480FF0E1FF86
:10B3C0009DF85F300D939DF85E300C939DF85D30D5
:10B3D0000B939DF85C300A939DF85B3009939DF8C0
:10B3E0005A3008939DF8593007939DF858300693CA
:10B3F0009DF8573005939DF8563004939DF85530CD
:10B4000003939DF8543002939DF8533001939DF8B7
:10B4100052309DF85020544900934F489DF85130C8
:10B4200010F04EFC4D494C4810F04AFC9DF85F303E
:10B430000D939DF85E300C939DF85D300B939DF855
:10B440005C300A939DF85B3009939DF85A3008935D
:10B450009DF8593007939DF8583006939DF8573062
:10B4600005939DF8563004939DF8553003939DF84D
:10B47000543002939DF8533001939DF8523000935D
:10B480009DF850209DF851303749354810F018FC90
:10B4900032493348354E364D10F012FC64201AF014
:10B4A00089FA34492C4810F00BFC2C492A4810F03A
:10B4B00007FC30492A4810F003FC2849284810F0BE
:10B4C000FFFB64201AF076FA227A2B49224810F00A
:10B4D000F7FB2249204810F0F3FB227A2649204846
:10B4E00010F0EEFB1D491E4810F0EAFB64201AF034
:10B4F00061FA627A21491848002A14BF32462A4666
:10B5000010F0DEFB1549144810F0DAFB627A1B4993
:10B510001348002A14BF32462A4610F0D1FB0F49C7
:10B520000F48174E10F0CCFB64201AF043FA154870
:10B530001AF058FD0025B4F88C20EBB2934205F1C7
:10B54000010580F23D8223443046D97A1AF04AFD43
:10B55000F1E700BFAB28070070E10020A86C0700EE
:10B56000D4E100208BE20020D32807000D2807003B
:10B57000A3260700342A0700442A0700522A07009E
:10B5800083AD0700632A07009049914810F098FBAB
:10B5900090498F4810F094FB8C498F4810F090FB35
:10B5A0008C498D4810F08CFB64201AF003FA14A922
:10B5B00010228A480FF0EEFE9DF85F300D939DF843
:10B5C0005E300C939DF85D300B939DF85C300A93D0
:10B5D0009DF85B3009939DF85A3008939DF85930D7
:10B5E00007939DF8583006939DF8573005939DF8C2
:10B5F000563004939DF8553003939DF854300293D0
:10B600009DF8533001939DF852309DF850200093DF
:10B6100073499DF851306E4810F052FB6D496C48EB
:10B6200010F04EFB9DF85F300D939DF85E300C934B
:10B630009DF85D300B939DF85C300A939DF85B306C
:10B6400009939DF85A3008939DF8593007939DF857
:10B65000583006939DF8573005939DF85630049363
:10B660009DF8553003939DF8543002939DF8533064
:10B6700001939DF852309DF85020009358499DF851
:10B680005130554810F01CFB5249534810F018FB3C
:10B6900064201AF08FF914A9102252480FF095FE79
:10B6A0009DF85F300D939DF85E300C939DF85D30F2
:10B6B0000B939DF85C300A939DF85B3009939DF8DD
:10B6C0005A3008939DF8593007939DF858300693E7
:10B6D0009DF8573005939DF8563004939DF85530EA
:10B6E00003939DF8543002939DF8533001939DF8D5
:10B6F00052309DF8502000933B499DF8513034481A
:10B7000010F0DEFA3349324810F0DAFA9DF85F3073
:10B710000D939DF85E300C939DF85D300B939DF872
:10B720005C300A939DF85B3009939DF85A3008937A
:10B730009DF8593007939DF8583006939DF857307F
:10B7400005939DF8563004939DF8553003939DF86A
:10B75000543002939DF8533001939DF852309DF878
:10B760005020009320499DF851301B4810F0A8FA52
:10B770001849194810F0A4FA64201AF01BF914A90A
:10B7800004221A480FF00FFE9DF8533001939DF8E4
:10B7900052309DF85020009315499DF851300C48C7
:10B7A00010F08EFA0B490A4810F08AFA9DF85330CF
:10B7B00001939DF8523000939DF850209DF8513030
:10B7C0000B49054810F07CFA62E600BF1B29070010
:10B7D00070E10020A86C0700D4E100208CE200207A
:10B7E0002429070090E200206D2907008DE2002047
:10B7F000B62907007748002D40F09B800FF0AFFC82
:10B8000075490246754810F05BFA7549734810F0A7
:10B8100057FA70480FF0A3FC6F490246714810F0C8
:10B820004FFA6F496F4810F04BFA64201AF0C2F8D3
:10B830006D480FF0A5FC6D490246684810F040FACB
:10B840006749664810F03CFA67480FF099FC674971
:10B850000246644810F034FA6149624810F030FA48
:10B8600064201AF0A7F862480FF09BFC6149024679
:10B870005A4810F025FA5A49584810F021FA5C4805
:10B880000FF08FFC5B490246564810F019FA5449F4
:10B89000544810F015FA64201AF08CF856480FF04E
:10B8A00091FC564902464D4810F00AFA4C494B4863
:10B8B00010F006FA50480FF085FC504902464948FE
:10B8C00010F0FEF94649474810F0FAF964201AF0E2
:10B8D00071F84B480FF087FC4A4902463F4810F088
:10B8E000EFF93F493D4810F0EBF945480FF07BFC7C
:10B8F000444902463B4810F0E3F93949394810F011
:10B90000DFF964201AF056F83F480FF06EFC3F490B
:10B910000246324810F0D4F93149304810F0D0F9DD
:10B9200039480FF062FC394902462E4810F0C8F938
:10B93000AEE50FF014FC28490246284810F0C0F983
:10B940002749264810F0BCF922480FF008FC22498C
:10B950000246244810F0B4F92149224810F0B0F909
:10B9600064201AF027F82A480FF073FC2949024690
:10B970001A4810F0A5F91A49184810F0A1F92448FE
:10B980000FF067FC23490246164810F099F9144954
:10B99000144810F095F964201AF00CF81E480FF0C6
:10B9A0005AFC1E4902460D4810F08AF90C490B4812
:10B9B00010F086F918480FF04EFC18490246B4E71B
:10B9C00007481AF00FFB00240EA80FF0ADFF204629
:10B9D00018B070BDB9E20020CF29070070E1002047
:10B9E000A86C0700D4E10020BAE20020DE2907009D
:10B9F000BBE20020E6290700BCE20020EE29070098
:10BA0000BDE20020F6290700BEE200200B2A070055
:10BA1000C2E20020192A0700C3E20020262A0700FC
:10BA20002DE9FF41536E012B0D46144624D13949AF
:10BA300010680CF006FE044620B10224204604B033
:10BA4000BDE8F08102F0EEFC2946334810F004F91D
:10BA50003249314810F0EEF8314A3249D379039334
:10BA600093790293537901931379009393782A4839
:10BA7000128810F025F9E1E7052BDED1161F02F13F
:10BA8000100756F8045F28460CF0EDFD2B462844BD
:10BA9000984205D013F8012B303A092AF8D9CCE79F
:10BAA000BE42EED10022114620680CF049FF40F260
:10BAB000D233A0F2E6729A420546BED800226068F0
:10BAC00011460CF03DFF431E0B2B0646B5D8002255
:10BAD000A06811460CF034FF431E1E2B0746ACD85D
:10BAE0000022E06811460CF02BFF18288046A4D8ED
:10BAF0000022206911460CF023FF3B289DD8C2B2DA
:10BB000000925FFA88F3FAB2F1B2A8B202F0CCFB6D
:10BB1000002493E7298C070070E1002073400700A0
:10BB20002CD90020742A070007B503230193054B85
:10BB30000093054B054A064819460FF0B6FD03B0C1
:10BB40005DF804FBA1BE02008F2A0700972A0700B8
:10BB50004EE2002007B503230193054B0093054BEC
:10BB6000054A064819460FF0A0FD03B05DF804FB36
:10BB700051C00200EA2A0700EF2A07004EE2002027
:10BB800007B503230193054B0093054B054A06486F
:10BB900019460FF08AFD03B05DF804FB85C2020070
:10BBA0003A2B07003F2B07004EE2002007B5032386
:10BBB0000193054B0093054B054A064819460FF0C3
:10BBC00074FD03B05DF804FB59AE0200662B07005C
:10BBD0006B2B07004EE2002007B503230193054BB2
:10BBE0000093054B054A064819460FF05EFD03B069
:10BBF0005DF804FB21BA0200812B0700852B0700AA
:10BC00004EE2002007B502230193054B0093054B3C
:10BC1000054A064819460FF048FD03B05DF804FBDD
:10BC2000C1AF0200AC2B0700B32B07004EE200208F
:10BC300030B5E7B08849894D902201A80BF066FF26
:10BC40008749B1F88C404A6802920A898B7AADF82C
:10BC50000C200B3122460DF10F008DF80E300BF049
:10BC600055FF804A80498148ADF8904010F028F88F
:10BC70009DF804207E497D487E4C10F021F87E49D5
:10BC80007A4810F01DF89DF8042079497B4810F09F
:10BC900017F87949794810F013F8642019F08AFEF2
:10BCA000704A7149714810F00BF8029A74496F4854
:10BCB00010F006F870496D4810F002F8029A7049C9
:10BCC0006E480FF0FDFF6C496C480FF0F9FF6420DF
:10BCD00019F070FE634A644964480FF0F1FF9DF863
:10BCE0000C20684961480FF0EBFF63495F480FF093
:10BCF000E7FF9DF80C20634960480FF0E1FF5E49C3
:10BD00005E480FF0DDFF642019F054FE554A564995
:10BD100056480FF0D5FF9DF80D205B495348002A87
:10BD200014BF2A4622460FF0CBFF53494F480FF06D
:10BD3000C7FF9DF80D2054495048002A14BF2A46D9
:10BD400022460FF0BDFF4C494C480FF0B9FF64206C
:10BD500019F030FE434A444944480FF0B1FF9DF8C2
:10BD60000E204A494148002A14BF2A4622460FF0B5
:10BD7000A7FF41493D480FF0A3FF9DF80E2043491E
:10BD80003E48002A14BF2A4622460FF099FF3A493E
:10BD90003A483F4D0FF094FF0024642019F00AFE4A
:10BDA000FE22214626A825940BF0BEFEBDF8903059
:10BDB000E0B2984204F1010409DA01AB03442946D8
:10BDC000DA7A25AB03EB40000CF00EFCEEE7254AD7
:10BDD000254926480FF074FF25AA2E4923480FF065
:10BDE0006FFF254921480FF06BFF25AA29492348F9
:10BDF0000FF066FF204921480FF062FF642019F020
:10BE0000D9FD184A184919480FF05AFFBDF890207B
:10BE1000214916480FF054FF174914480FF050FFFE
:10BE2000BDF890201C4915480FF04AFF12491348ED
:10BE30000FF046FF642019F0BDFD1848902301AAB9
:10BE400000210FF04AFC28B901469023134801AAAB
:10BE50000FF043FC67B030BD082F07000D28070026
:10BE6000F8A20020C7270700581E070070E1002035
:10BE7000CE2B0700CA2B0700A86C0700D4E10020D6
:10BE8000E12B0700FF2B0700152C07002E2C0700C5
:10BE900083AD0700482C0700612C07004FE200200B
:10BEA000F8B5536E012B0E46154664D15B491068F8
:10BEB0000CF0C7FB0446F8B9594F5A497B685A48F9
:10BEC00032464FF47A75B3FBF5F30FF0F9FE57499C
:10BED00055480FF0F5FE7B685249B3FBF5F3324647
:10BEE00053480FF0EDFE514951480FF0E9FE642030
:10BEF00019F060FD2046F8BD4E4A4F494A480FF000
:10BF0000DFFE2A684D4948480FF0DAFE47494648A7
:10BF10000FF0D6FE2A68494945480FF0D1FE434943
:10BF200043480FF0CDFE642019F044FD2D682846EB
:10BF30000CF099FB0024844221D02B5D303B092B6F
:10BF40001BD93C4A3C4938480FF0BAFE22463C49CE
:10BF500035480FF0B5FE354933480FF0B1FE38498A
:10BF6000334822460FF0ACFE304931480FF0A8FEAE
:10BF7000642019F01FFD0224BCE70134DBE70A222C
:10BF8000002128460CF0DCFC2A4A2B49244D0446AB
:10BF900025480FF095FE22462A4923480FF090FECF
:10BFA000224921480FF08CFE2246264920480FF0F6
:10BFB00087FE1E491E480FF083FE642019F0FAFC2C
:10BFC0004FF47A701B4A1C49444317486C600FF0C9
:10BFD00077FE6A681C4914480FF072FE1349124834
:10BFE0000FF06EFE6A68184911480FF069FE0F499C
:10BFF0000F480FF065FE642019F0DCFC13480021A7
:10C000000FF089FB6A6822B10023104819460FF02F
:10C0100078FBFFF70DFE00246CE700BF298C0700BA
:10C02000F8A200207E2C070070E10020A86C070019
:10C03000D4E10020C7270700581E0700852C070001
:10C040009A2C0700A92C0700C02C070051E2002001
:10C05000536E012B70B50E46154601D002241DE02B
:10C06000794910680CF0EDFA0446C8B9774D784963
:10C070002B7A784832460FF023FE774975480FF047
:10C080001FFE2B7A7249754832460FF019FE72492D
:10C0900072480FF015FE642019F08CFC204670BD2C
:10C0A0006F4A70496B480FF00BFE2A686E49694869
:10C0B0000FF006FE684967480FF002FE2A686A49D9
:10C0C00066480FF0FDFD644964480FF0F9FD6420F7
:10C0D00019F070FC2D6828460CF0C5FA0024844243
:10C0E00020D02B5D303B092B1AD95D4A5D49594858
:10C0F0000FF0E6FD22465D4956480FF0E1FD564936
:10C1000054480FF0DDFD2246584954480FF0D8FD41
:10C11000514952480FF0D4FD642019F04BFC9DE7C3
:10C120000134DCE70A22002128460CF009FC474EC6
:10C130004B4A4C49347A054646480FF0C1FD2A4621
:10C140004B4944480FF0BCFD434942480FF0B8FD4D
:10C150002A46474941480FF0B3FD3F493F480FF099
:10C16000AFFD642019F026FC022D3FF677AFA54203
:10C1700001D1002492E71CB9012D04D001241BE059
:10C18000012CFBD1C5B9364A364932480FF098FD2B
:10C19000384930480FF094FD2F492E480FF090FD9C
:10C1A00034492E480FF08CFD2B492C480FF088FDA8
:10C1B000642019F0FFFB0024294A2A4925483572DA
:10C1C0000FF07EFD327A2C4922480FF079FD22498A
:10C1D00020480FF075FD327A274920480FF070FD96
:10C1E0001D491E480FF06CFD642019F0E3FBFFF7BA
:10C1F0001FFD337A012B21D0022B22D00BB9FCF783
:10C20000BDFC002CB5D01D4912480FF059FD124954
:10C2100010480FF055FD194910480FF051FD0E4917
:10C220000E480FF04DFD642019F0C4FB41F2883038
:10C2300019F0C0FB12480FF02DFA9AE7FCF71EFD2B
:10C24000DFE7FCF781FDDCE7298C0700F8A200207E
:10C25000D12C070070E10020A86C0700D4E1002079
:10C26000C7270700581E0700852C07009A2C0700D7
:10C27000D72C0700EA2C0700042D0700162D070015
:10C28000E8E10020536E012B2DE9F0410E461546E2
:10C2900078D1D2F800803F493F4F40460CF0D1F9A9
:10C2A000044688BBB7F88C30BBB932463B493C48A2
:10C2B0000FF006FD3B493A480FF002FD37493A4876
:10C2C00032460FF0FDFC374937480FF0F9FC642087
:10C2D00019F070FB2046BDE8F08131463348344EFA
:10C2E00019F080FE2546B7F88C20EBB2934205F199
:10C2F000010505DA3B443046D97A19F073FEF2E7BE
:10C30000284819F06FFEE5E740460CF0ACF9294AE1
:10C310002949064622480FF0D3FC2A6827492048BD
:10C320000FF0CEFC1F491E480FF0CAFC2A682349B3
:10C330001D480FF0C5FC1B491B480FF0C1FC6420D1
:10C3400019F038FB286807F10B02314614F064F944
:10C350000446C8B1174A184911480FF0B1FC1849F2
:10C360000F480FF0ADFC0F490D480FF0A9FC144920
:10C370000D480FF0A5FC0B490B480FF0A1FC642001
:10C3800019F018FB0224A5E77608A7F88C60FFF7E0
:10C390004FFC9FE7298C0700F8A20020332D0700EF
:10C3A00070E10020A86C0700D4E100203F2D0700B9
:10C3B00083AD0700C7270700581E0700852C07001C
:10C3C000432D0700F0B5E7B04449902201A80BF0D7
:10C3D0009DFB01AA0021424890230FF074F9054605
:10C3E000404A41494148ADB90FF06AFC40493F48D5
:10C3F0000FF066FC3F493D480FF062FC3C493E4867
:10C400000FF05EFC3B493C480FF05AFC642019F0E9
:10C41000D1FA5FE00FF054FC9DF80420374933480F
:10C42000374C0FF04DFC334930480FF049FC9DF874
:10C430000420324930480FF043FC2E492E480FF0BB
:10C440003FFC642019F0B6FA264A274927480FF026
:10C4500037FC029A2B4925480FF032FC2549234826
:10C460000FF02EFC029A274923480FF029FC21499E
:10C4700021480FF025FC642019F09CFA9DF8043047
:10C48000AA2B43D0174A184918480FF019FC029AF2
:10C490001D4916480FF014FC164914480FF010FC03
:10C4A000029A194914480FF00BFC124912480FF078
:10C4B00007FC642019F07EFA00254FF08073C4E970
:10C4C000015340F20233A3810423A373A4F88C30F8
:10C4D000FFF7AEFB284667B0F0BD00BF082F07008E
:10C4E0004FE20020C7270700581E070070E1002018
:10C4F0005C2D0700A86C0700D4E10020842D070004
:10C50000F8A20020932D0700AB2D0700029B63606B
:10C510009DF80C30022B40F2DD808B4A8B498C4811
:10C520000FF0CEFB9DF80C208A4989480FF0C8FB1C
:10C53000894987480FF0C4FB9DF80C20854987483E
:10C540000FF0BEFB844985480FF0BAFB642019F058
:10C5500031FA00232372FFF76BFBBDF890209DF8A2
:10C560000D306372802A9DF80E30A37240F2B480C1
:10C57000754A764976480FF0A3FBBDF890207849BC
:10C5800073480FF09DFB744971480FF099FBBDF89B
:10C590009020734971480FF093FB6F496F480FF07B
:10C5A0008FFB642019F006FA0023E372A4F88C30A4
:10C5B000654A664966486B4F6B4E0FF081FB6268B7
:10C5C0006A4963480FF07CFB634961480FF078FBD0
:10C5D0006268664961480FF073FB5F495F480FF07E
:10C5E0006FFB642019F0E6F9574A584958480FF094
:10C5F00067FB227A5E4956480FF062FB5649544861
:10C600000FF05EFB227A5A4954480FF059FB524909
:10C6100052480FF055FB642019F0CCF94A4A4B49B7
:10C620004B480FF04DFB627A52494948002A14BF2B
:10C630003A4632460FF044FB474945480FF040FB6D
:10C64000627A4C494548002A14BF3A4632460FF0F8
:10C6500037FB414941480FF033FB642019F0AAF938
:10C66000394A3A493A480FF02BFBA27A42493848F6
:10C67000002A14BF3A4632460FF022FB36493448AE
:10C680000FF01EFBA27A3C493448002A14BF3A46F8
:10C6900032460FF015FB30493048384F0FF010FB91
:10C6A0000026642019F086F9FE22314626A8259638
:10C6B0000BF03AFAB4F88C30F0B2984206F1010669
:10C6C00012DA23183946DA7A25AB03EB40000BF077
:10C6D0008BFFEFE7237240E70DF10F012848A4F824
:10C6E0008C200BF013FA63E7174A184918480FF02B
:10C6F000E7FA25AA234916480FF0E2FA164914482A
:10C700000FF0DEFA25AA1F4914480FF0D9FA124992
:10C7100012480FF0D5FA642019F04CF90A4A0B4977
:10C720000B480FF0CDFAB4F88C20174908480FF0E9
:10C73000C7FA094906480FF0C3FAB4F88C20124929
:10C7400006480FF0BDFA5DE6C7270700581E070030
:10C7500070E10020E02D0700A86C0700D4E1002064
:10C76000FB2D07000D280700CA2B0700172E070016
:10C770002F2E0700422E0700582E070083AD07001A
:10C7800003A300206F2E0700802E070010B5074B73
:10C7900053F82020002332F813408C42D8B203D83B
:10C7A0000133102BF7D1184610BD00BF54A4002050
:10C7B0002DE9F34101219F4E074622200FF03DFB5A
:10C7C0004FF4FA7019F0F6F83578002D40F0AD808E
:10C7D00099499A48009540F24C43422208F008F8E3
:10C7E0000446C0B9964A974997480FF069FA9749A5
:10C7F00095480FF065FA964993480FF061FA93490E
:10C8000094480FF05DFA924992480FF059FA64206B
:10C8100019F0D0F874E08A4A8A498B484FF0020830
:10C8200086F800800FF04CFA8B4987488B4E0FF04A
:10C8300047FA874984480FF043FA874985480FF043
:10C840003FFA834983480FF03BFA642019F0B2F8AD
:10C850007A4840F24C42012107F0E4FD002F59D004
:10C8600040F24C432A460121744807F053FE40F23F
:10C870004C4342460121714807F04CFE40F24C43C4
:10C88000062201216D4807F045FE0122114640F2C3
:10C890004C436A4807F03EFE40F24C43032201211C
:10C8A000664807F037FE40F24C43042201216348FA
:10C8B00007F030FE40F24C4305226048012107F0AA
:10C8C00029FEB37A40F24C42F3B105215B4807F0F0
:10C8D000F0FF5A4840F24C432A46012107F0F0FE8F
:10C8E000564840F24C4107F0A3FD337A022B03D1A6
:10C8F000B37A002B40F09B80002122200FF09DFA9C
:10C90000204602B0BDE8F0814FF4FA714B4808F0C0
:10C9100011F8E5E740F24C424FF0FF31474807F08D
:10C92000A7FDFA2019F046F8DFE700254249434801
:10C930000095422240F24C4307F05AFF0446404A19
:10C94000404941485CB90FF0BBF945493E480FF0FA
:10C95000B7F93F493C480FF0B3F9414950E70FF0B0
:10C96000AFF9404938480FF0ABF9394936480FF074
:10C97000A7F93C4937480FF0A3F9354935480FF07E
:10C980009FF9642019F016F840F24C4201212B481F
:10C9900007F048FD40F24C432A460121274807F0A2
:10C9A000B9FD40F24C4302220121244807F0B2FDB8
:10C9B00040F24C4306220121204807F0ABFD012242
:10C9C000114640F24C431D4807F0A4FD40F24C4391
:10C9D00003220121194807F09DFD40F24C43042237
:10C9E0000121164807F096FD40F24C4305221348FA
:10C9F000012107F08FFD194B9B7A40F24C4283B125
:10CA000005210E4807F055FF0C4840F24C432A46DA
:10CA1000012107F055FE40F24C41084807F008FD9F
:10CA20006EE74FF4FA71054807F084FFF3E71C4600
:10CA300066E700BF7CD60020CCE20020ACD6002008
:10CA4000671E0700581E070070E10020982F07009E
:10CA5000A86C0700D4E10020B42F0700F8A2002042
:10CA6000C72F0700DC2F07002DE9F04FA84EA94D76
:10CA7000DFF8FCA2A84FA94CDFF8F8B28BB0002277
:10CA800000230021C6E90023C5E9002303A80023F1
:10CA90001C2223608AF8001039608BF80010029184
:10CAA0000BF042F89E4902A80BF0D5FD9D4B9E4825
:10CAB0009B7A40F24C41002B00F05E8108F003F8B5
:10CAC000C117C6E9000140F24C41974807F0E0FF6A
:10CAD000C117C5E9000140F24C41934808F00EF837
