:020000022000DC
:10700000000004208DAD0300B5AD0300B7AD030053
:10701000B9AD0300BBAD0300BDAD0300000000002F
:10702000000000000000000000000000BFAD0300F1
:10703000C1AD0300000000000000000000000000DF
:10704000519C0500C3AD0300D1BA050029A205007B
:10705000C3AD03009198050069960500817E060086
:10706000C3AD030069A105007DA10500C3AD030008
:10707000C3AD0300C3AD0300C3AD0300C3AD030044
:10708000858B0600696E0500C3AD0300C3AD030028
:10709000C3AD0300C3AD030009750600C3AD030013
:1070A000C3AD0300C3AD030091A10500A5A1050078
:1070B000C3AD0300C3AD03000000000000000000EA
:1070C000C3AD0300C3AD0300C3AD0300BD83060021
:1070D000819E0500C3AD0300C3AD0300E1B7050009
:1070E00059B80600C3AD030099DF06000000000098
:1070F00000000000C3AD0300000000008D87060003
:10710000000000000000000000000000000000007F
:10711000000000000000000000000000000000006F
:10712000000000000000000000000000000000005F
:10713000000000000000000000000000000000004F
:10714000000000000000000000000000000000003F
:10715000000000000000000000000000000000002F
:10716000000000000000000000000000000000001F
:10717000000000000000000000000000000000000F
:1071800000000000000000000000000000000000FF
:1071900000000000000000000000000000000000EF
:1071A00000000000000000000000000000000000DF
:1071B00000000000000000000000000000000000CF
:1071C00000000000000000000000000000000000BF
:1071D00000000000000000000000000000000000AF
:1071E000000000000000000000000000000000009F
:1071F000000000000000000000000000000000008F
:1072000010B5054C237833B9044B13B10448AFF3E0
:1072100000800123237010BDC0D4002000000000B6
:107220007827080008B5034B1BB103490348AFF3A7
:10723000008008BD00000000C4D4002078270800AA
:10724000154B002B08BF134B9D46A3F5803A002138
:107250008B460F461348144A121A11F089FA0F4B45
:10726000002B00D098470E4B002B00D098470020F1
:10727000002104000D000D48002802D00C48AFF397
:10728000008011F025FA2000290010F0ABFF11F06A
:107290000BFA00BF000008000000042000000000FE
:1072A00000000000C0D400209CC6012000000000A7
:1072B000000000000022C0E900220172704738B5CA
:1072C0000446006820B1856913F028FD2846F9E7D7
:1072D000204638BD006820B143688B4201D08069E8
:1072E000F9E77047F8B504460F4616461D46FFF706
:1072F000F1FF20B10123826005704370F8BD1C20AE
:1073000013F010FD012343700023C0E90333C0E9EB
:10731000053323680570C0E9017613B92060606009
:10732000ECE763689861FAE72DE9F8430468164FC3
:1073300005460E464FF000081CB363680BB9A469FC
:10734000FAE72378002BFAD0E368A268F31A9A428E
:1073500002D961780029F2D09B1A636184F8018018
:10736000E66015F091FB63688146984715F08CFB49
:107370003B68A0EB0900206118442B7A3860002B91
:10738000DDD0BDE8F88300BFDCD4002008B5074B92
:1073900050B103221A700648FA22012114F0D1FFDD
:1073A000044B00221A7008BD0522F3E7E0D4002048
:1073B00071E400202DD60020054B064800221A70EB
:1073C000054B08221A700121FA2214F0BABF00BF3F
:1073D0002DD6002071E40020E0D4002084B004AB5E
:1073E00003E907000B4BBDF90A201A800A4B9DF9EF
:1073F0000C201A70094A0A48136801331360094BBC
:1074000000221A70084B0121FA22197004B014F0FE
:1074100098BF00BF12D5002014D5002028D6002028
:1074200071E400202DD60020E0D40020124B002271
:107430001A70124B5B7A022B1DD0114B90F906206B
:107440001A70104BB0F904201A800F4A0378137099
:107450000E4A417811700E4A817811701BB10D4AA5
:107460001368013313600C4B0C4804221A7001217D
:10747000FA2214F066BF70472DD6002000A300202A
:1074800014D5002012D5002017D6002015D60020D4
:1074900016D6002024D60020E0D4002071E400207D
:1074A00010B5044608F0C6FC204610BD08B5064BD2
:1074B0001B783BB115F0E3FABDE8084001460348EC
:1074C000FFF732BF08BD00BF59D8002018D60020F2
:1074D0001F4B07B501221F481A7014F0DEFC18B1CB
:1074E0001D48002114F0A3FC1C4814F027FE1C4981
:1074F0001C4814F035FD1C491A4814F041FD1B4985
:10750000184814F035FD1A49164814F041FD194980
:10751000144814F045FD0021174814F07FFD0021A8
:10752000164814F0E9FD3223012200930D480A2386
:10753000114614F0D4FC124BDB7A33B10121222026
:1075400003B05DF804EB15F08EBA03B05DF804FBF0
:10755000A1A10020E4E40020CEE40020CDE400203E
:107560002D8E0200A9E40020318F02008D730200ED
:107570002D740200DD8F0200B1E40020CBE4002076
:1075800000A3002010B50B4C00212046FFF792FE0F
:107590002046094C094A0A4911F06EF8FF2120469D
:1075A00008F03CFC2046054A0649BDE8104011F0B1
:1075B00063B800BF18D6002004D5002090A1002099
:1075C000BF720200A17402002DE9FF41994C9A4D4F
:1075D000637A9A4F0126022B2E7040F0A3819848BF
:1075E00008F02FFCE37A002B00F06081954A3B788D
:1075F00011789046002940F0F1805BB1924B1B78E6
:1076000043B906F07FFE9148314607F03DFB9048B4
:1076100006F01AFE06F0BCF8002856D08D4B1B78F9
:10762000F3B98D4A8D498E4815F06AF98D498C4819
:1076300015F066F98C498A4815F062F9884814F00B
:1076400035FB8849894815F05BF98749874815F06B
:1076500057F964201EF0CAFF8548012114F05BFD34
:10766000B4F88E0005F080FE60B3754808F0ECFBBE
:107670000390734808F0EAFB01230246CDE900338A
:1076800003997C4814F046FC0446D8B9724A734901
:10769000734815F035F97849714815F031F9724998
:1076A0006F4815F02DF96E4814F000FB72496F48D1
:1076B00015F026F96C496D4815F022F964201EF08A
:1076C00095FF2C7004B0BDE8F0816C4A117809BBBD
:1076D0006B4B1B7803F0FF06E3B90123584888F889
:1076E000003008F0AEFB674B67481E8041F28832DD
:1076F0006368B3FBF2F3654A1380654B1E70654BFC
:1077000040F6C4121E700321334604B0BDE8F041B8
:1077100014F017BE002313703B784BB14A4B1B7813
:1077200033B95D495D4811F0BAFD5C4806F08CFD47
:10773000002300931A4619464148B7EE000A08F0A4
:10774000A3FA444B1B78F3B9554A4449444815F011
:10775000D7F84449424815F0D3F84349404815F05A
:10776000CFF83F4814F0A2FA3E49404815F0C8F857
:107770003D493E4815F0C4F864201EF037FF3C48F0
:10778000012114F0C8FCB4F88E0005F0EDFD0028CE
:1077900098D02B4808F058FB0390294808F056FB76
:1077A00001240246CDE9004403993248234614F0EF
:1077B000B1FB002885D13A4A28702849284815F09D
:1077C0009FF82D49264815F09BF82749244815F0C5
:1077D00097F8234814F06AFA27491DE05BB11A4B69
:1077E0001B7843B906F08EFD1848314607F04CFA75
:1077F0002C4806F029FD184A1849194815F080F858
:107800002949174815F07CF81749154815F078F8FC
:10781000134814F04BFA2449144815F071F8124932
:10782000124815F06DF8642004B0BDE8F0411EF078
:10783000DDBE00BF00A300202DD600200ED5002005
:1078400004D500200CD5002058D80020383507007A
:10785000493507002CD6002064350700683507003D
:1078600090E300206E350700C8840700F4E3002091
:10787000CCE40020A9E400207B35070002D50020DD
:10788000E1D4002078D8002071E400207AD80020CC
:10789000A8D80020A9D800209735070015D50020CA
:1078A000AD350700B2350700C63507003B785BB140
:1078B0008D4B1B7843B906F025FD8C48314607F007
:1078C000E3F98B4806F0C0FC002300931A461946E2
:1078D0008848B7EE000A08F0D7F9874B1B78002BD1
:1078E0007FF4BEAE0121854814F015FC844A854919
:1078F000854815F005F88549834815F001F8844955
:10790000814814F0FDFF804814F0D0F97F49814888
:1079100014F0F6FF7E497F4814F0F2FF64201EF059
:1079200065FE9DE63B7853B16F4B1F783FB906F07B
:10793000E9FC7948314607F0A7F9784B1F706D488C
:1079400008F07FFA764814F0F5FB002800F09F80DD
:10795000744814F079FB002800F08680012124206F
:1079600015F081F8664A6749674814F0C9FF6E4907
:10797000654814F0C5FF6649634814F0C1FF6248CA
:1079800014F094F96849634814F0BAFF60496148FB
:1079900014F0B6FF64201EF029FE644B1B78002B08
:1079A0004CD0634806F050FC534B1B78F3B9544A53
:1079B0005449554814F0A4FF5449534814F0A0FF0B
:1079C0005349514814F09CFF4F4814F06FF94F4948
:1079D000504814F095FF4E494E4814F091FF642032
:1079E0001EF004FE4548012114F095FBE37A63B3D1
:1079F00005F0CEFE20B94F4A002313604E4A1360B3
:107A00003C4808F021FA80B205F0AEFC00283FF4B3
:107A100059AE384808F018FA0390364808F016FABC
:107A20000123CDE9003303990246444814F072FA69
:107A300000287FF447AE324A2870BEE6374B1B78E9
:107A40000BB13F48AEE73F48ACE7B4F88E0005F015
:107A50008BFC00283FF436AE0123CDE900333A4ACF
:107A600094F88E100223E0E7254A2649287026481C
:107A700014F046FF3549244814F042FF24492248B7
:107A800014F03EFF204814F011F93049C4E60121FA
:107A9000232014F0E8FF1A4A1A491B4814F030FF5B
:107AA0002B49194814F02CFF1949174814F028FFE6
:107AB000154814F0FBF82649164814F021FF144924
:107AC000144814F01DFF64201EF090FD1D4806F0C0
:107AD000BBFB01231C4A94F88E101E4814F0C5F914
:107AE00001232B70EEE500BF58D800203835070081
:107AF000DA35070004D500202CD60020CCE4002085
:107B0000643507006835070090E300206E350700F4
:107B1000C8840700F4E30020E635070002D5002002
:107B2000CDE40020B4E40020F7350700E1D40020C4
:107B3000033607008CD8002088D80020A9E4002054
:107B400014360700233607000CA300203136070047
:107B50004F360700CEE400202DE9F04F2DED028BCB
:107B600000218BB0764E0446242014F07CFF0021C7
:107B7000232014F078FF33788BB1724B1B7873B9E4
:107B800006F0C0FB704B71485B7A022B0CBF70494A
:107B9000704911F084FB6D48012107F075F8FCB9BC
:107BA0006D4A6E496E4814F0ABFE6E496C4814F095
:107BB000A7FE6D496A4814F0A3FE694814F076F8F0
:107BC00068496A4814F09CFE6749684814F098FEBA
:107BD00064201EF00BFD0BB0BDEC028BBDE8F08FF6
:107BE0002278012A40F02282614B624F1B78624D5D
:107BF000002B2FD0614B1B78002B00F0988007F0F2
:107C000079F95F4A5F4B11881980917899701179E1
:107C1000D970517919719179D27959719A7101227A
:107C2000DA71594900221A720968D96057490968FE
:107C300019611A755A75398849B29975297849B206
:107C4000D9751A835A839A83514A126812B2DA8319
:107C500007F02AFD33784F4E002B00F0FF80394BA0
:107C60001C78002C40F0FA804B49384811F017FB83
:107C7000364907A814F0BEFC07AA2146204606F0A4
:107C80005DFB07A814F070FC326844492F4811F0DE
:107C9000CFFA2E4907A814F0ADFC07AA214601200F
:107CA00006F04CFB07A814F05FFC3D4814F077F891
:107CB0004AF0F8FE20A3D3E900234BF097F80B46D7
:107CC00002463849214811F0B3FA204907A814F0B8
:107CD00091FC07AA2146022006F030FB07A814F009
:107CE00043FC314814F06CF830490246174811F053
:107CF0009FFA164907A814F07DFC07AA2146032025
:107D000006F01CFB07A814F02FFC294814F069F8B2
:107D1000092800F24981DFE810F04D0035013701F4
:107D200039013B013D013F0141014301450107F09C
:107D300059FA66E7AFF300800000000080842E410E
:107D40000ED5002058D8002000A3002015D5002013
:107D500038350700E6350700643507006835070049
:107D600090E3002063360700C8840700F4E3002096
:107D70000FD5002012D5002014D5002034DB0020C0
:107D80002CDB0020A4A1002088D800208CD8002063
:107D900024D6002028D60020703607007E36070043
:107DA000D9E40020613E0700DAE40020BC49070066
:107DB000DBE40020804905A811F071FA7F4814F037
:107DC00010F87F4B7F4953F820207F4811F030FA9C
:107DD0007D4907A814F00EFC07AA4021032006F0F5
:107DE000ADFA07A814F0C0FB784814F00BF87849F6
:107DF000421D754811F01CFA734907A814F0FAFBEC
:107E000007AA4021022006F099FA07A814F0ACFB5B
:107E10003A8870496C4812B211F00AFA6A4907A808
:107E200014F0E8FB07AA0021042006F087FA07A84F
:107E300014F09AFB2A786849634852B211F0F8F9B5
:107E4000614907A814F0D6FB07AA4021042006F0D8
:107E500075FA07A814F088FB06F08AFA5F4A6049B1
:107E6000604814F04DFD60495E4814F049FD5F49DB
:107E70005C4814F045FD5B4813F018FF5A495C4814
:107E800014F03EFD59495A4814F03AFD64201EF0A2
:107E9000ADFB524A5249534814F032FD32683B88D8
:107EA0002978504849B21BB20091524914F028FD7C
:107EB0004E494C4814F024FD4A4813F0F7FE32684E
:107EC0003B8829784A4849B21BB20091494914F0CD
:107ED00017FD4649464814F013FD64201EF086FB4A
:107EE0003E4A3F493F4814F00BFD434813F057FF0B
:107EF00008EE100A414813F063FF06462F4813F0BE
:107F000070FFF8EE487A054617EE900A4AF0ECFD4D
:107F100027A3D3E900234AF069FF7D2405FB04452C
:107F200002460B46CDE9006535492E4814F0E8FCC1
:107F30002E492C4814F0E4FC2A4813F0B7FE2E48D2
:107F400013F02DFF08EE100A2C4813F039FF0546F8
:107F50001A4813F046FFF8EE487A064617EE900AE4
:107F60004AF0C2FD12A3D3E900234AF03FFF06FB0B
:107F7000044402460B46CDE9005421491C4814F044
:107F8000BFFC21E61F4916E71F4914E71F4912E706
:107F90001F4910E71F490EE71F490CE71F490AE771
:107FA0001F4908E71F4906E71F4904E7AFF30080B0
:107FB0000000000080842E4192360700DBE40020A0
:107FC00078A20020C836070015D50020DCE4002088
:107FD000D549070079380700843807006435070061
:107FE0006835070090E30020CE360700C8840700FC
:107FF000F4E30020DB360700D9E40020DAE40020B7
:10800000F6360700963607009A3607009E360700B8
:10801000A2360700A7360700AD360700B3360700C3
:10802000B9360700BF360700C4360700814B1B78FE
:10803000022B40F0A680804B00221A707F4B1B78E9
:10804000002B2FD07E4B1B78002B64D006F052FF04
:108050007C4B7D4C1A8822809A78A2701A79E27043
:108060005A7922719A79DB796271A371774A7848DB
:108070000023E37123721268E260764A126822617B
:1080800023756375A375E37523836383A383724BA1
:108090001B681BB2E38313F0EBFF40B284F82000AF
:1080A00007F002FB3378002B3FF495AD6B4B1C7847
:1080B000002C7FF490AD6A496A486B4D11F0EFF8DF
:1080C000684907A814F096FA07AA2146204606F048
:1080D00035F907A814F048FA2A686449614811F094
:1080E000A7F8604907A814F085FA07AA21460220DC
:1080F00006F024F907A814F037FA2B68013B0F2B80
:108100003DD8DFE803F00B1E20222426282A2C2E3F
:1081100030323436383A07F065F899E75449514817
:1081200011F0BDF84F4907A814F064FA07AA00211E
:10813000042006F003F907A814F016FA06F018F95F
:1081400049E54C49EBE74C49E9E74C49E7E74C493D
:10815000E5E74C49E3E74C49E1E74C49DFE74C49A7
:10816000DDE74C49DBE74C49D9E74C49D7E74C49B7
:10817000D5E74C49D3E74C49D1E74C49CFE74C49C7
:10818000CDE7032A40F0A0803378002B3FF423ADE5
:10819000324B1E78002E7FF41EAD464C657A002DC2
:1081A00034D0022D3FD04FF47A7362684249B2FB5B
:1081B000F3F22C4811F03CF82A4907A814F01AFAF7
:1081C00007AA0021012006F0B9F807A814F0CCF99D
:1081D0003A4907A814F00EFA002107AA022006F077
:1081E000ADF807A814F0C0F927491E4811F057F858
:1081F0001C4907A814F0FEF9002107AA032006F085
:108200009DF807A814F0B0F92C498CE72C4907A871
:1082100014F0F0F907AA2946084606F08FF807A8D7
:1082200014F0A2F9BFE7274907A814F0E3F907AA59
:108230003146F1E7E0D400202DD600200FD50020F4
:1082400034DB00202CDB0020A4A1002088D80020F3
:10825000B8E400208CD8002024D6002058D8002074
:10826000683A070015D5002030D6002009370700EE
:1082700013370700213707002C370700383707006E
:10828000443707004E3707005837070064370700A8
:10829000783707008B3707009B370700A8370700A0
:1082A000B2370700C2370700D0370700DC370700B6
:1082B000ED37070000A300201C3807003BE907004A
:1082C000FB3707000A380700042A40F03382AD4B21
:1082D000AD4D1B78DFF82893DFF82883AB4F002BD8
:1082E0003DD0AB4B1B78002B00F0978106F002FECF
:1082F000A84BA94C1A8822809A78A2701A79E27049
:108300005A7922719A79DB796271A3710023E37142
:1083100098F80020A148D2B22272A14A1268E26005
:10832000A04A126822612A8852B222752A8852B263
:1083300062752A8852B2A27599F8002052B2E2758D
:10834000238363833B78A383974B1B681BB2E38330
:1083500013F08EFE40B284F8200007F0A5F93378C0
:10836000DFF8A4A2914C002B00F0A380904B1E7864
:10837000002E40F09E808F4B21788F4A8F48002935
:1083800018BF1A468E4910F053FF8C4907A814F005
:1083900031F907AA3146304605F0D0FF07A814F09E
:1083A000E3F8227802F0FF0B002A40F039813A7896
:1083B0008449824810F03CFF804907A814F01AF95C
:1083C00007AA5946012005F0B9FF07A814F0CCF818
:1083D000724813F04DFE7C490246784810F028FFA1
:1083E000764907A814F006F907AA5946022005F0B5
:1083F000A5FF07A814F0B8F898F8002073496F4853
:1084000010F016FF6D4907A814F0F4F807AA4021F0
:10841000022005F093FF07A814F0A6F8DAF8002070
:108420006B49664810F004FF644907A814F0E2F8AD
:1084300007AA5946032005F081FF07A814F094F815
:10844000594B64491A685D4810F0F2FE5B4907A871
:1084500014F0D0F807AA4021032005F06FFF07A809
:1084600014F082F82A885C49544812B210F0E0FEF9
:10847000524907A814F0BEF807AA5946042005F08F
:108480005DFF07A814F070F899F8002053494B4895
:1084900052B210F0CDFE494907A814F0ABF8042001
:1084A00007AA402105F04AFF07A814F05DF805F07F
:1084B0005FFF4B4A4B494C48DFF8FCB03D4E14F08F
:1084C0001FFA227849494848002A0CBF5A463246CA
:1084D00014F016FA4649444814F012FA424813F0D0
:1084E000E5FB227841494348002A0CBF5A463246F0
:1084F00014F006FA3E493F4814F002FA64201EF0D8
:1085000075F8374A3749384814F0FAF9DAF8002094
:108510002B8899F80010344849B21BB200913649B3
:1085200014F0EEF93249304814F0EAF92E4813F00D
:10853000BDFBDAF800202B8899F800102D4849B2CD
:108540001BB200912C4914F0DBF92949294814F099
:10855000D7F964201EF04AF8214A2249224814F033
:10856000CFF998F8002025493B781F4814F0C8F946
:108570001F491D4814F0C4F91B4813F097FB98F8E5
:10858000002043E00FD5002012D5002015D6002092
:1085900034DB00202CDB0020A4A10020B8E4002064
:1085A00088D800208CD8002024D6002017D60020A0
:1085B00058D800205F360700163C070015D500206C
:1085C0002F38070040380700543807005D3807008F
:1085D000663807006E3807007638070081380700D4
:1085E000643507006835070090E300203338070042
:1085F000C8840700F4E30020DB360700A938070031
:1086000014D5002016D6002028D600206B493B78D0
:108610006B4814F075F9FFF7D7BA06F0E3FD67E68B
:10862000DAF800206749684810F002FE664907A89A
:1086300013F0E0FF07AA3146012005F07FFE07A8EE
:1086400013F092FF614B62491A685F4810F0F0FD29
:108650005D4907A813F0CEFF07AA4021012005F0CD
:108660006DFE07A813F080FF22785A49564810F093
:10867000DFFD554907A813F0BDFF07AA31460220C8
:1086800005F05CFE07A813F06FFF2378013B0F2B6A
:108690004ED8DFE803F0082F31333537393B3D3F03
:1086A00041434547494B4C49474810F0F8FD46497E
:1086B00007A813F09FFF07AA0021032005F03EFE44
:1086C00007A813F051FF454813F0D2FC4449024675
:1086D0003D4810F0ADFD3C4907A813F08BFF07AAF9
:1086E0000021042005F02AFE07A813F03DFF05F045
:1086F0003FFEDCE63B49D7E73B49D5E73B49D3E7BB
:108700003B49D1E73B49CFE73B49CDE73B49CBE785
:108710003B49C9E73B49C7E73B49C5E73B49C3E795
:108720003B49C1E73B49BFE73B49BDE73B49BBE7A5
:108730003B49B9E7052A40F083803378002B3FF4AA
:108740004AAA384B1B78002B7FF445AA364C657A31
:1087500025B3022D2FD04FF47A7362683349B2FBF0
:10876000F3F2194810F064FD174907A813F042FF0F
:1087700007AA0021012005F0E1FD07A813F0F4FE8F
:108780002B4907A813F036FF002107AA022005F0A5
:10879000D5FD07A813F0E8FE264926E5264907A8D7
:1087A00013F028FF0021084607AA05F0C7FD07A817
:1087B00013F0DAFECFE72149F1E700BFA93807003F
:1087C000F4E300206638070015D5002024D60020E9
:1087D0006E3807008B38070013370700B8E4002015
:1087E000A0380700213707002C370700383707006B
:1087F000443707004E370700583707006437070033
:10880000783707008B3707009B370700A83707002A
:10881000B2370700C2370700D0370700DC37070040
:10882000ED37070058D8002000A300201C380700AF
:108830003BE90700C1380700FB3707000A3807008B
:10884000062B40F0E781B14BB1499A78DD781C796D
:1088500093F805B0AF485F78C83A92B20292C5EB80
:10886000451205EB8205C4EB441204EB82044FFA77
:108870008BFAA94A14F044F85246A849A54814F0C6
:108880003FF8A749A34814F03BF8A24813F00EFAAA
:108890005246A249A34814F033F8A149A14814F064
:1088A0002FF864201DF0A2FEC83F9B4A98499948C2
:1088B00014F026F8BFB2BDF908809B4995480FFA1D
:1088C00087F943464A4614F01BF89549914814F03D
:1088D00017F8904813F0EAF943464A4692499148FE
:1088E00014F00EF88E498F4814F00AF86D006420D9
:1088F00064001DF07BFE2DB2874A8549854824B26D
:1089000013F0FEFF23462A468849824813F0F8FFF9
:108910008349804813F0F4FF7E4813F0C7F92346DB
:108920002A4682497F4813F0EBFF7D497D4813F0CA
:10893000E7FF64201DF05AFE7D4B1B78002B3CD0D6
:108940007C4B1B78002B00F03A8106F0D3FA7A4A70
:108950007A4B11881980917899701179D970517971
:1089600019719179D27959719A710222DA71744A26
:1089700083F808B01268DA60724A734812681A61A4
:108980007FB29DF908201F755A75704A128852B23D
:108990009A756F4A127852B2DA7500221D835C8391
:1089A0009A836C4A126812B2DA8313F061FB634B4C
:1089B00040B283F8200006F077FE3378002B3FF4B6
:1089C0000AA9654B1E78002E7FF405A905F09AFCD4
:1089D0006248012106F058F95D4B61491A785B4BFA
:1089E00060481B8852B21BB210F022FC5D4907A8F8
:1089F00013F000FE07AA3146304605F09FFC07A899
:108A000013F0B2FD52465849564810F011FC554932
:108A100007A813F0EFFD07AA3146012005F08EFCF0
:108A200007A813F0A1FD514907A813F0E3FD07AA19
:108A30003221012005F082FC07A813F095FD4C4976
:108A400007A813F0D7FD07AA5021012005F076FCF6
:108A500007A813F089FD474907A813F0CBFD07AA23
:108A60003146022005F06AFC07A813F07DFD42495B
:108A700007A813F0BFFD07AA3146032005F05EFCEE
:108A800007A813F071FD4A463C49364810F0D0FB68
:108A9000344907A813F0AEFD07AA3221022005F0E1
:108AA0004DFC07A813F060FD424634492D4810F0F4
:108AB000BFFB2C4907A813F09DFD07AA3221032014
:108AC00005F03CFC07A813F04FFD2D4BDF7A002F7B
:108AD00078D02A462949234810F0AAFB214907A843
:108AE00013F088FD07AA5021022005F027FC07A8F3
:108AF00013F03AFD224621491A4810F099FB194912
:108B000007A813F077FD07AA50213BE0E2D400202C
:108B10006835070090E3002064350700D738070068
:108B2000C8840700F4E30020F43807000C3907007C
:108B30000FD5002034DB00202CDB0020A4A1002076
:108B400088D800208CD80020B8E4002012D500205E
:108B500014D5002024D6002058D80020283907003A
:108B60003839070015D500204F39070076950700E2
:108B70005A39070063390700673907005138070081
:108B800000A30020032005F0D9FB07A813F0ECFC9C
:108B90008B4B18688B4B1C6849F0A6FF02460B46AE
:108BA000CDE90223204649F09FFFDDE90223CDE90C
:108BB00000018549854810F03BFBFFF7B3BA06F08A
:108BC00011FBC4E68249814810F069FB7F4907A880
:108BD00013F010FD07AA5021022005F0AFFB07A8F3
:108BE00013F0C2FC794907A813F004FD07AA50212D
:108BF000032005F0A3FB07A813F0B6FC75497348E2
:108C000010F04DFB714907A813F0F4FC07AA394690
:108C1000FFF78EBA072B7DD16F4A7049704813F069
:108C20006FFE70496E4813F06BFE6F496C4813F08D
:108C300067FE6B4813F03AF86A496C4813F060FE1F
:108C400069496A4813F05CFE64201DF0CFFC684B54
:108C50001B78002B30D0674B1B78002B57D006F0C9
:108C600049F9654B654C1A8822809A78A2701A7966
:108C7000E2705A7922719A79DB796271A3710223C9
:108C8000E3714F4A5E48002323721268E2604D4A46
:108C90001268226123756375A375E375238363836B
:108CA000A383584B1B681BB2E38313F0E1F940B276
:108CB00084F8200006F0F8FC3378002B3EF48BAFEC
:108CC000514B1C78002C7EF486AF05F01BFB4F48FF
:108CD000012105F0D9FF4E493C4810F0E0FA3B492C
:108CE00007A813F087FC07AA2146204605F026FBBB
:108CF00007A813F039FC324B1868324B1D6849F055
:108D0000F3FE02460B46CDE9022328464BE706F068
:108D100069FAA6E7082B7EF45EAF3E4B5D7A35B16B
:108D2000012D29D03C4B00221A70FEF754BF05F0EC
:108D3000E9FA3A48012105F0A7FF394907A813F0DD
:108D400059FC002107AA084605F0F8FA07A813F015
:108D50000BFC34491D4810F0A2FA1C4907A813F077
:108D600049FC07AA0021032005F0E8FA07A813F040
:108D7000FBFB05F0FDFAD5E73378002BD2D0224B70
:108D80001C78002CCED105F0BDFA2448294605F008
:108D90007BFF254907A813F02DFC07AA2146204692
:108DA00005F0CCFA07A813F0DFFB1E49074810F0C6
:108DB00076FA064907A813F01DFC07AA2146D2E758
:108DC00088D800208CD800206B39070015D50020EA
:108DD00080390700773907006435070068350700D8
:108DE00090E3002083390700C8840700F4E30020E3
:108DF0000FD5002034DB00202CDB0020A4A10020B4
:108E0000B8E4002024D6002058D8002028390700D4
:108E1000A039070000A300202DD60020E63507006A
:108E2000FB370700B53907007036070070B5304BC7
:108E3000B0F90A201A802F4B90F90C201A702E4B93
:108E400042781A702D4A1368013313602C4B0022AC
:108E50001A7003780446E3B92A4A2B492B4813F0C9
:108E60004FFD2B49294813F04BFD2A49274813F0A1
:108E700047FD264812F01AFF2549274813F040FD08
:108E80002449254813F03CFDBDE8704064201DF0E6
:108E9000ADBB224A527A022A28D1022B0FD1204D93
:108EA000027A41681F4806232B700FF053FC2B46B3
:108EB0001D48BDE87040FA22012113F042BA114A60
:108EC0001149124813F01CFD227818490F4813F07D
:108ED00017FD10490D4813F013FD0C4812F0E6FE83
:108EE000227812490C4813F00BFDC9E770BD00BF92
:108EF00012D5002014D5002010D5002028D600203F
:108F00002DD60020C13907006835070090E3002006
:108F1000C7390700C8840700F4E3002000A300203D
:108F2000E0D40020E2D4002071E40020CF39070013
:108F300070B51E4C0546002835D01D4B1D491E48F6
:108F400000221A701D4A13F0DBFC2A461C491A48FD
:108F500013F0D6FC1B49184813F0D2FC164812F047
:108F6000A5FE2A461649184813F0CAFC15491648AA
:108F700013F0C6FC64201DF039FB144B1D60144B2C
:108F80005B7A022B134B1A6802F101021A600CBFC4
:108F900007230223237010482346FA22BDE87040BD
:108FA000012113F0CEB90823F4E700BFE0D400207C
:108FB0002DD600206835070090E3002064350700B7
:108FC000DE390700C8840700F4E3002030D6002013
:108FD00000A3002024D6002071E4002030B5504AC0
:108FE0005049514D99B00446504813F089FC22462F
:108FF0004F494E4813F084FC4E494C4813F080FC16
:109000004A4812F053FE224649494B4813F078FC77
:109010004849494813F074FC64201DF0E7FA2978A8
:1090200000297AD101231A2208A82B7007910FF08A
:109030009FFB05A82BF0ACFE0598404C00F5E040E6
:109040000FA96E302BF018FF149B3D4903F26C738F
:109050000393129B0293139B013301930F9B009385
:1090600007A8DDE9103210F0E3F82D4A2D492F480A
:1090700013F046FC07AA33492C4813F041FC2D4954
:109080002A4813F03DFC294812F010FE07AA2D498A
:10909000294813F035FC2749274813F031FC642098
:1090A0001DF0A4FA149B03F26C732380139B01330D
:1090B000A370129B2371119B6371109BA3710F9B73
:1090C000E371214B1B7843B3154A1649174813F037
:1090D00017FC1E49154813F013FC1649134813F0EA
:1090E0000FFC124812F0E2FD1849134813F008FC77
:1090F0001049114813F004FC64201DF077FA022394
:109100002B70E3790193A379009363792279A17895
:10911000208805F0EDFF05F0EDFE19B030BD00BF71
:10912000ED390700683507002CD6002090E30020B9
:10913000F2390700C8840700F4E300202CDB00208C
:10914000093A07009558070034DB00202B3A070046
:10915000F0B54FF080432DED028BD3F83834032B5C
:1091600085B020D1364A3749374813F0C9FB374913
:10917000354813F0C5FB3649334813F0C1FB32487C
:1091800012F094FD3149334813F0BAFB30493148AD
:1091900013F0B6FB64201DF029FA0024204605B028
:1091A000BDEC028BF0BD2C482B4D13F095F80A2432
:1091B000B0EE408A284613F08FF8013C38EE008A62
:1091C000F8D1B2EE067AC8EE077A1D4A1D491E484C
:1091D0009FED228ADFED226A27EE888ADFED217A71
:1091E00068EE277A87EEA67AFCEEC77ACDED037A91
:1091F0009DF80C4013F084FB18EE100A49F074FC43
:1092000006460F462246CDE9006717490E4813F07F
:1092100077FB0F490C4813F073FB0B4812F046FD27
:109220002246CDE9006710490A4813F069FB084956
:10923000084813F065FB64201DF0D8F9AEE700BFC5
:10924000938807006835070090E30020413A070043
:10925000C8840700F4E300206DE4002000007A4495
:109260000040834500007F43483A070007B52B4A7A
:109270002B492C4813F044FB2B492A4813F040FBA0
:109280002A49284813F03CFB264812F00FFD2649D6
:10929000274813F035FB2549254813F031FB64209E
:1092A0001DF0A4F9234B244801221A7012F0F5FD99
:1092B00018B12248002112F0BAFD214812F03EFFF9
:1092C0002049214812F04CFE20491F4812F058FE58
:1092D0001F491D4812F04CFE1E491B4812F058FE53
:1092E0001D49194812F05CFE00211C4812F096FE40
:1092F00002211B4812F000FF322301220093114685
:109300000A23114812F0EBFD164BD97A01B1012165
:10931000222003B05DF804EB13F0A5BB6435070011
:109320006835070090E30020623A0700C884070010
:10933000F4E30020A1A10020E4E40020CEE400201A
:10934000CDE400202D8E0200A9E40020318F020020
:109350008D7302002D740200DD8F0200B1E4002045
:10936000CBE4002000A3002008B52B4A2B492C4851
:1093700013F0C6FA2B492A4813F0C2FA2A492848A2
:1093800013F0BEFA264812F091FC2649274813F044
:10939000B7FA2549254813F0B3FA64201DF026F9E1
:1093A000234B24480021197012F041FD224812F08D
:1093B00078FDD0B9184A1949194813F0A1FA1F4984
:1093C000174813F09DFA1849154813F099FA1448F4
:1093D00012F06CFC1949154813F092FA124913481F
:1093E00013F08EFA64201DF001F91549114812F0AE
:1093F00065FD14490F4812F069FD4FF6FD710D48E7
:1094000012F015FD104BD97A01B10121BDE80840D9
:10941000222013F028BB00BF643507006835070021
:1094200090E30020773A0700C8840700F4E30020A7
:10943000A1A10020CEE40020E4E40020863A070049
:10944000DD730200B973020000A300202DE9F04F84
:10945000012187B0222013F0EFFA0121232013F01D
:10946000EBFA0121242013F0E7FAB348B34F13F0CD
:109470006BF904F073FE3870002800F06A82B0497E
:10948000B0480FF00CFFAF48012105F0FDFBAE48DE
:1094900004F0DAFEAD4804F0D7FE0021222013F0DC
:1094A000E2FA0223AA4806224FF4E13112F004FC4A
:1094B0004FF08043D3F83834032B40F06A824FF4E6
:1094C000FA601DF093F802220092002303ACA14938
:1094D0009C480FF0ADFE9B49204613F08BF82146C7
:1094E0009D4812F0D7FE204613F03EF801212320BC
:1094F00013F0B9FA0021232013F0B5FA002124203B
:1095000013F0B1FA03F02CF8D0B9944A944990487A
:1095100013F0F6F993498E4813F0F2F992498C480A
:1095200013F0EEF98A4812F0C1FB8E498F4813F010
:10953000E7F98D498D4813F0E3F964201DF056F8E2
:1095400002F0A0FFD0B9854A8549814813F0D8F9C7
:1095500087497F4813F0D4F983497D4813F0D0F947
:109560007B4812F0A3FB8249804813F0C9F97E4979
:109570007E4813F0C5F964201DF038F802F098FF1A
:10958000D0B9764A7649724813F0BAF979497048E9
:1095900013F0B6F974496E4813F0B2F96C4812F042
:1095A00085FB7449714813F0ABF96F496F4813F0AC
:1095B000A7F964201DF01AF802F090FFD0B9674AAD
:1095C0006749634813F09CF96B49614813F098F9B7
:1095D00065495F4813F094F95D4812F067FB6649EE
:1095E000624813F08DF96049604813F089F96420EE
:1095F0001CF0FCFF03F08AFCD0B9584A5849544883
:1096000013F07EF95D49524813F07AF956495048F3
:1096100013F076F94E4812F049FB5849534813F0BD
:109620006FF95149514813F06BF964201CF0DEFFCB
:1096300000F040FED0B9494A4949454813F060F965
:109640004F49434813F05CF94749414813F058F932
:109650003F4812F02BFB4A49444813F051F9424964
:10966000424813F04DF964201CF0C0FF454D464EB2
:10967000002000F0FBFC6B7A384A39493448022B51
:1096800040F0AF8113F03CF94049314813F038F90C
:1096900035492F4813F034F92D4812F007FB3B49A8
:1096A000324813F02DF93049304813F029F964207D
:1096B0001CF09CFF012003F001FF3070337813B1E0
:1096C000334804F0C1FD05F03FFC324E234A2449E3
:1096D0003070002800F0A5811D4813F011F92E49C3
:1096E0001B4813F00DF92049194813F009F91848DF
:1096F00012F0DCFA28491D4813F002F91A491B48F8
:1097000013F0FEF864201CF071FF05F0F3FB94E801
:1097100003002BF01CFB02F00DFF337813B11F4840
:1097200004F092FD05F0E0FD1D4E3070002840F081
:10973000C9810A4A0A4935E0ECE400200ED5002030
:10974000E635070015D50020A83A0700B53A07000E
:1097500090E30020CF3A070018E4002064350700AA
:1097600068350700E53A0700C8840700F4E30020E5
:109770000C3B07003A3B0700643B0700923B0700A5
:10978000B73B070000A300200DD50020D33B070006
:10979000FD3B070034DB0020083C0700123C0700BB
:1097A0000FD50020AC4813F0ABF8AC49AA4813F031
:1097B000A7F8AB49A84813F0A3F8A74812F076FA27
:1097C000A649A84813F09CF8A549A64813F098F8B4
:1097D00064201CF00BFF337813B1A34804F034FD70
:1097E0006B7A012B00F0B981022B00F0BF81002BB6
:1097F0003ED09E4A9E49984813F082F89D4996486B
:1098000013F07EF89649944813F07AF8924812F0D3
:109810004DFA9849934813F073F89149914813F021
:109820006FF864201CF0E2FE3B780BB3924993483A
:109830000FF035FD9149204612F0DCFE0021224652
:10984000084604F07BFD204612F08EFE8C498B48C2
:109850000FF025FD8949204612F0CCFE224600215A
:10986000012004F06BFD204612F07EFE04F080FD26
:10987000844804F0E9FC844812F0E6FB10B9834800
:1098800004F0E2FCFFF7F2FC4FF47A7380496A6857
:109890007A48B2FBF3F20FF0CBFC784804F0D4FC2A
:1098A0007C4A7D480123002112F041FD6A6822B103
:1098B00000237948194612F044FD784A764800237F
:1098C000012112F034FD0023754A7348022112F081
:1098D0002EFDAB7A33B1704800234EF66022022190
:1098E00012F02FFD01236F4A6B48032112F01FFD78
:1098F0006D4B1B785BB1644812F0A6FB38B932237C
:109900000122009369480A23114612F0E8FA574AE7
:109910005749514812F0F4FF65494F4812F0F0FFE3
:109920004F494D4812F0ECFF4B4812F0BFF9604927
:109930004C4812F0E5FF4A494A4812F0E1FF642022
:109940001CF054FE01215B4813F06DF807B0BDE830
:10995000F08F464A4649404812F0D2FF56493E48E9
:1099600012F0CEFF3E493C4812F0CAFF3A4812F0CE
:109970009DF951493B4812F0C3FF3949394812F06B
:10998000BFFF64201CF032FE3B78002B3FF485AD16
:1099900075E513F074F8DFF8C0A006464FF0000B31
:1099A00041F287384FF00009504612F06AF900285A
:1099B0007FF489AD13F063F8841B6BEB4B05A04576
:1099C00079EB0503FFF67FAD64201CF00FFE23202A
:1099D00013F04EF8B0FA80F14909232013F043F850
:1099E000E2E795F80B80B8F1000F7FF44BAE12F070
:1099F00087FF3249184812F083FF1949164812F0C0
:109A00007FFF154812F052F92C49164812F078FFE2
:109A10001349144812F074FF64201CF0E7FD40461F
:109A200049E60D4812F06CFF25490B4812F068FF1B
:109A30000B49094812F064FF074812F037F9204932
:109A4000084812F05DFF0649064812F059FF6420ED
:109A50001CF0CCFD61E600BF90E30020193C07003C
:109A6000C8840700F4E300205D3C0700643507006C
:109A700068350700683C0700893C070015D50020C1
:109A80009B3C0700FB370700B4E40020AB3C070019
:109A90001C380700C975020071E40020597B0200E0
:109AA000C5E3020069DC0200A1A10020A9E40020B6
:109AB000B93C070009E40020C13A0700E73B070072
:109AC000053C070005F0C8FC3070D0B92E4A2F497C
:109AD0002F4812F015FF2F492D4812F011FF2E4983
:109AE0002B4812F00DFF2A4812F0E0F829492B48C4
:109AF00012F006FF2849294812F002FF64201CF0EA
:109B000075FD214A21492248DFF8AC90DFF8AC808E
:109B100012F0F6FE327822491D48002A14BF4A4648
:109B2000424612F0EDFE1C49194812F0E9FE1848B1
:109B300012F0BCF832781A491848002A14BF4A4675
:109B4000424612F0DDFE1449144812F0D9FE64209A
:109B50001CF04CFD02F0D8FC3DE6FFF705FC114877
:109B600004F072FB104804F06FFB8DE60F4804F020
:109B70006BFB0F4812F068FA10B90E4804F064FB52
:109B8000FDF7A6FC80E600BF6435070068350700D6
:109B900090E300202A3C0700C8840700F4E300207B
:109BA000403C0700D2360700B93C07000A380700DE
:109BB000B4E40020AB3C07009D3A0700A23A07003E
:109BC0007047000002481822002106F04DB900BF7E
:109BD00034D600202DE9F04F994C9A4DDFF87CA245
:109BE000DFF87CB289B0204606F092FA204610EEEB
:109BF000107A06F0ACFA20468DED050A06F0C6FA9A
:109C0000914A92498DED060A284612F079FE2046C7
:109C100006F07EFA204610EE108A06F079FA3846F1
:109C200010EE106A48F060FF894B002248F0B4FF44
:109C300049F062FA07B2404648F056FF8046304687
:109C40008946029748F050FF814B824E002248F02F
:109C5000A3FF42464B46CDE900015146284612F08B
:109C60004FFE3146284612F04BFE284612F01EF8F1
:109C7000204606F04DFA204610EE108A06F048FA0B
:109C800040468DED070A48F02FFF079B029780465C
:109C90001846894648F028FF6D4B002248F07CFFAB
:109CA0004B464246CDE900015146584612F028FE87
:109CB0003146584612F024FE64201CF097FC624A9C
:109CC0006249284612F01CFE204606F040FA204663
:109CD00010EE107A06F03BFA059810EE10AA48F044
:109CE00003FF00225A4B48F057FF49F005FA03B230
:109CF0003846059348F0F8FE059B0293804650468F
:109D0000894648F0F1FE524B534FDFF858A100222C
:109D100048F042FF42464B46CDE90001394628460D
:109D200012F0EEFD3146284612F0EAFD284611F009
:109D3000BDFF204606F00BFA204610EE108A06F012
:109D400006FA40468DED070A48F0CEFE059B0293C9
:109D5000079B80461846894648F0C6FE3C4B0022C9
:109D600048F01AFF4B464246CDE9000139465846B5
:109D700012F0C6FD3146584612F0C2FD64201CF0B8
:109D800035FC314A3149284612F0BAFD204606F02A
:109D9000FDF9204610EE108A06F0F8F906988DEDD0
:109DA000050A48F0A1FE2A4B002248F0F5FE49F0D2
:109DB000A3F907B2404648F097FE804605980297FF
:109DC000894648F091FE224B002248F0E5FE4246CB
:109DD0004B46CDE900015146284612F091FD31462F
:109DE000284612F08DFD284611F060FF204606F04F
:109DF000CDF9204610EE105A06F0C8F9284610EEAC
:109E0000108A48F071FE044640460D46029748F01D
:109E10006BFE0F4B002248F0BFFE2246CDE9000149
:109E20002B465146584612F06BFD3146584612F00B
:109E300067FD642009B0BDE8F04F1CF0D7BB00BF40
:109E400034D6002090E30020C73C070068350700A7
:109E500000408F40C8840700DA3C0700CB3C070075
:109E6000F4E30020E93C070007B573480DF1070152
:109E7000312206F095F99DF8073059061BD56F4A37
:109E80006F49704812F03CFD9DF807206E496D48FF
:109E900012F036FD6D496B4812F032FD694811F041
:109EA00005FF69499DF80720694812F029FD6749B7
:109EB000674812F025FD64201CF098FB9DF80730E0
:109EC0009A0617D55D4A5E495E4812F019FD614950
:109ED0005C4812F015FD5D495A4812F011FD5948D1
:109EE00011F0E4FE5B495A4812F00AFD5749584800
:109EF00012F006FD64201CF079FB9DF80730DB06AC
:109F000017D54E4A4E494F4812F0FAFC52494D4877
:109F100012F0F6FC4D494B4812F0F2FC494811F0A2
:109F2000C5FE4D494A4812F0EBFC4849484812F03A
:109F3000E7FC64201CF05AFB9DF80730180717D582
:109F40003E4A3F493F4812F0DBFC44493D4812F08D
:109F5000D7FC3E493B4812F0D3FC3A4811F0A6FE2C
:109F60003E493B4812F0CCFC3849394812F0C8FC55
:109F700064201CF03BFB9DF80730590717D52F4A8A
:109F80002F49304812F0BCFC35492E4812F0B8FC7D
:109F90002E492C4812F0B4FC2A4811F087FE3049B3
:109FA0002B4812F0ADFC2949294812F0A9FC642085
:109FB0001CF01CFB9DF807309A0717D51F4A204953
:109FC000204812F09DFC27491E4812F099FC1F49B9
:109FD0001C4812F095FC1B4811F068FE21491C48F2
:109FE00012F08EFC19491A4812F08AFC64201CF009
:109FF000FDFA9DF80730DB0717D5104A10491148C4
:10A0000012F07EFC18490F4812F07AFC0F490D48F7
:10A0100012F076FC0B4811F049FE13490C4812F07F
:10A020006FFC0A490A4812F06BFC64201CF0DEFA4F
:10A0300003B05DF804FB00BF34D60020C73C070026
:10A040006835070090E30020F83C0700C88407004B
:10A05000F4E300200F3D0700163D07001C3D0700FC
:10A06000233D0700293D0700303D070073B500215F
:10A070000446112012F0E0FC5D4812F065FB5D4BD8
:10A080006CB300229A800A22DA804FF481721A811E
:10A0900040F201125A81574806F012F9054620B3E2
:10A0A000554A5649564812F02BFC5649544812F06E
:10A0B00027FC5549524812F023FC514811F0F6FD97
:10A0C0005049524812F01CFC4F49504812F018FCFD
:10A0D00064201CF08BFA0024204602B070BD0222DE
:10A0E0009C80DC801A815C81D5E7002C38D02A2244
:10A0F000302140488DF80720012605F0FBFE08229C
:10A1000032213C488DF8072005F0F4FE3246332119
:10A1100038488DF8076005F0EDFE24220DF10701A7
:10A12000344806F03DF89DF80720324822F00C0232
:10A1300042F0080224218DF8072005F0DBFE6022A2
:10A1400022212C488DF8072005F0D4FE2A4625212F
:10A15000284805F0CFFE27483246212105F0CAFEE7
:10A16000002520220DF1070122488DF8075006F046
:10A1700017F89DF807201F4842F0080220218DF8AB
:10A18000072005F0B7FE64201CF030FA1E220DF106
:10A19000070118488DF8075006F002F89DF80720CF
:10A1A000144842F090021E218DF8072005F0A2FE0F
:10A1B00064201CF01BFA4CB1FFF756FE1449042230
:10A1C000112011F031FDFFF705FD85E720220DF18B
:10A1D0000701084805F0E4FF9DF80720054802F054
:10A1E000400220218DF80720012405F083FE73E74B
:10A1F000ECE4002034D60020C73C07006835070097
:10A2000090E30020363D0700C8840700F4E30020F7
:10A21000C19B020010B50023012210F0010F01F1D3
:10A22000FF311CBF02FA01F4234340080029F4D196
:10A23000184610BD0D4810B5002148F205040B0268
:10A240009BB2082213F4004F02F1FF324FEA43039E
:10A2500018BF634012F0FF029BB2F3D10131B1F598
:10A26000807F20F8023BEAD110BD00BF48D6002015
:10A270002DE9F0410025DFF8388006460F462C46D0
:10A28000BD420DDA705D0821FFF7C4FF80EA142398
:10A29000DBB2013538F8133083EA0424A4B2EFE7C7
:10A2A00010212046FFF7B6FF80B2BDE8F08100BF65
:10A2B00048D6002008B50221092012F0BDFB06494E
:10A2C0000322092011F0B0FC04490548012364224F
:10A2D000FDF708F8012008BDC1A8020061A902002D
:10A2E00018D600202DE9F04FC74D91B012F0C7FBF2
:10A2F000D5E900230024811A64EB03030091019344
:10A30000DDE9002340F6B8300021904271EB0303F1
:10A31000A346A246A146A0462746264677DB12F072
:10A32000AEFBD5E90023811A63EB4303029103934B
:10A33000DDE90223B2F5C87F73F1000373DA12F08E
:10A340009EFBD5E90023811A63EB43030491059337
:10A35000DDE90434B3F5C87F74F1000380F2858031
:10A3600012F08DFBD5E90023811A63EB43030691BC
:10A370000793DDE90634B3F5167F74F1000380F22C
:10A38000998012F07CFBD5E90023811A63EB43032B
:10A3900008910993DDE90834B3F5487F74F10003AF
:10A3A00080F2AE8012F06BFBD5E90023811A63EBDB
:10A3B00043030A910B93DDE90A34B3F5966F74F108
:10A3C000000380F2C08012F05AFBD5E90023811A05
:10A3D00063EB43030C910D93DDE90C34B3F5AF6FE0
:10A3E00074F1000380F2D28012F049FBD5E900231A
:10A3F000811A63EB43030E910F93DDE90E34B3F53D
:10A40000C86F74F1000380F2E280082474E0092030
:10A4100012F02EFB002882D17C4B1B78002B3FF4DE
:10A420007EAF022468E0794B1B78012B87D109208D
:10A4300012F01EFB012882D10023C82C10D0092065
:10A44000009312F015FB009B012804BF0133DBB21F
:10A45000012001340093E4B21CF0C8F8009BECE743
:10A46000C62B7FF66CAF002446E0684B1B78022BAE
:10A470007FF476AF092012F0FBFA01287FF470AF69
:10A480000024BBF1C80F10D0092012F0F1FA012806
:10A4900008BF01344FF001000BF1010B08BFE4B21B
:10A4A0005FFA8BFB1CF0A2F8EBE7C62C7FF658AFE7
:10A4B000012421E0554B1B78032BDCB27FF461AF04
:10A4C0004FF0000BBAF1C80F12D0092012F0D0FAE9
:10A4D000012808BF0BF1010B4FF001000AF1010A3E
:10A4E00008BF5FFA8BFB5FFA8AFA1CF07FF8E9E796
:10A4F000BBF1C60F7FF645AF204611B0BDE8F08F27
:10A50000424B1B78042BDCB27FF44CAF4FF0000AB7
:10A51000B9F1C80F12D0092012F0AAFA012808BF19
:10A520000AF1010A4FF0010009F1010908BF5FFAC1
:10A530008AFA5FFA89F91CF059F8E9E7BAF1C60F0F
:10A540007FF630AFD8E7314B1B78052BDCB27FF4B8
:10A550003AAF4FF00009B8F1C80F12D0092012F03D
:10A5600087FA012808BF09F101094FF0010008F13D
:10A57000010808BF5FFA89F95FFA88F81CF036F81D
:10A58000E9E7B9F1C60F7FF61EAFB5E71F4B1B78A1
:10A59000062BDCB27FF428AF4FF00008C82F11D093
:10A5A000092012F065FA012808BF08F101084FF0F0
:10A5B000010007F1010708BF5FFA88F8FFB21CF03D
:10A5C00015F8EBE7B8F1C60F7FF60EAF94E70F4B27
:10A5D0001B78072BDCB27FF418AF0025C82E0FD0F4
:10A5E000092012F045FA012808BF01354FF001009B
:10A5F00006F1010608BFEDB2F6B21BF0F7FFEDE77A
:10A60000C62D7FF602AF77E750D8002059D800203A
:10A6100073B5894D894C6A7A637A9A4231D003F0D6
:10A6200071FE0021864804F02FFB6B6863606B7A33
:10A63000844863726B89638103F006FE824803F0ED
:10A6400003FE03F095FE02F05BF840F6B8301BF015
:10A65000CDFF637A7D48012B4FF000014FF03206A9
:10A6600040F09A8011F0E3FB0022794800960A231B
:10A67000114611F034FC774811F013FC764811F0C4
:10A6800029FEEA7AE37A9A4206D06B7A022B0CBF53
:10A690000120002002F012FF6A6863689A4203D129
:10A6A0006A8963899A4213D003F02CFE654803F04F
:10A6B000CBFD654803F0C8FD03F05AFE6B6863608C
:10A6C0006B89638102F01CF840F6B8301BF08EFFF6
:10A6D000624811F02FFD00286BD0614811F0B6FCE4
:10A6E000604B1978884205D000395D4818BF0121B8
:10A6F00011F0AEFC5C4811F0BBFC5C4B1978884251
:10A7000002D0594811F0B6FC594811F0C3FC594B1E
:10A710001978884202D0564811F0BEFC564D574871
:10A720002E7811F0C9FC86420BD02978534811F0DD
:10A73000CFFC32230122009345480A23114611F031
:10A74000CEFB03F0DFFD637A012B6FD0022B6FD0BD
:10A7500013B94B4803F078FD4FF47A7362684949A6
:10A76000B2FBF3F248480EF063FD474803F06CFD7E
:10A77000626822B100234548194611F0E2FDA37A30
:10A78000002B57D0414800234EF66022022102B030
:10A79000BDE8704011F0D5BD11F049FB01220096D3
:10A7A0000A2311462A4811F09AFB2C4811F0C6FCE6
:10A7B00064E7374D3748296811F0F3FA354811F04E
:10A7C000EEFA2968884202D0324811F0EAFA32489B
:10A7D00011F0F6FA314B1978884202D02E4811F068
:10A7E000F1FA2F4D2F482E7811F0FBFA864203D054
:10A7F00029782C4811F0F7FA2B4811F003FB2B4B6A
:10A800001978884202D0284811F0FEFA284811F041
:10A810000CFB284B1978884202D0254811F016FB12
:10A820004FF6FD71094811F002FB8AE7224891E7D3
:10A8300022488FE702B070BDD0A1002000A3002005
:10A84000573D07005E3D07006E3D0700CEE4002047
:10A85000A9E40020E4E4002008E40020CDE4002086
:10A86000B5E400205BD80020B8E400205DD80020CB
:10A87000C0E400205ED800205CD80020CAE400209C
:10A88000FB3707001C38070015D5002071E40020B5
:10A8900068D80020D9E40020DAE400206CD8002039
:10A8A00063D80020DBE40020DCE4002064D8002032
:10A8B000DEE400206DD80020D23607000A380700F9
:10A8C000F8B512F0DCF81C4D1C4B1D4C0021C3E9FF
:10A8D000000112F0D4F8D5E90032C61A62EB420743
:10A8E000C92E77F1000308DB12F0C9F800236B6072
:10A8F000237828600133DBB22370124A12491348CF
:10A9000011F0FEFF22781249104811F0F9FF1149A9
:10A910000E4811F0F5FF0D4811F0C8F922780C49E6
:10A920000D4811F0EDFF0B490B4811F0E9FFBDE8B0
:10A93000F84064201BF05ABE48D8002050D80020B0
:10A9400059D800207F3D07006835070090E30020BC
:10A95000833D0700C8840700F4E3002000000000E6
:10A960002DE9F04F87B0FFF7BDFC072800F2978272
:10A97000DFE810F01607AA0408009802F20093001E
:10A9800049003600A04BA14A00241C70A04B0020B7
:10A990000021C3E900019F499F4811F0B1FF9F4981
:10A9A0009D4811F0ADFF9E499B4811F0A9FF9A48C0
:10A9B00011F07CF999499B4811F0A2FF98499948F8
:10A9C00011F09EFF64201BF011FE974B1B782BB1FA
:10A9D000204607B0BDE8F04F03F0D2BC0120F8E7F5
:10A9E000894B00221A708A4B00200021C3E9000124
:10A9F0008E4B1C783CB903F085FC8D48214604F051
:10AA000043F91BF00AFE804B00221A70804B002095
:10AA10000021C3E90001854B1C78002C31D0854C06
:10AA20002378052B0DD1844B8448D97A10222270CB
:10AA300001919B7A00938249824B09781B7803F03D
:10AA4000C7FC724A7349744811F05AFF22787E4954
:10AA5000714811F055FF72496F4811F051FF6E486F
:10AA600011F024F9227878496E4811F049FF6C49B9
:10AA70006C4811F045FF642007B0BDE8F04F1BF0B3
:10AA8000B5BD03F03FFC7148214604F0FDF8704865
:10AA900007B0BDE8F04F11F01DBC5B4B00221A70EF
:10AAA0005B4B00200021C3E90001604B1B78002BA9
:10AAB00000F0F5815F4C2378042B33D0052B41D077
:10AAC0008BB9644811F036FB01285B4B1FD1D97A52
:10AAD00061480422227001919B7A604900930978B1
:10AAE000FF2303F075FC494A4A494B4811F008FF1F
:10AAF00022785B49484811F003FF4949464811F064
:10AB0000FFFE454811F0D2F822785549ACE7D97AD2
:10AB100054480522227001919B7A53490093097889
:10AB2000FF23DEE707235148237011F0C5FA424A9C
:10AB3000D37A0193937A00932278C3B240493F4875
:10AB40000978CEE73C4B0E22D97A227001919B7A8C
:10AB50000093474B1B78F1E72B4B00221A702C4BCC
:10AB600000200021C3E90001304B1B78002B00F0CE
:10AB7000DC80304C2378062B23D8DFE813F0070065
:10AB80001500360089009300C400CE002A49032234
:10AB90004B7AC87A22700190897A00910233DBB235
:10ABA0003449354809780AE0234B3448D97A0022E1
:10ABB000227001919B7A324900930978FF2303F0B8
:10ABC00007FC124A1349144811F09AFE22782D49C5
:10ABD000114811F095FE12490F4811F091FE0E48F0
:10ABE00011F064F8227827493EE7134A2649937A00
:10ABF000264883F001039372D27ACDE90032FF2315
:10AC000009780222DBE700BF59D800207F3D07000A
:10AC100050D800206835070090E30020933D0700DE
:10AC2000C8840700F4E30020B0A4002058D8002016
:10AC30009D3D07005AD80020D0A10020C8A10020C7
:10AC4000CCA100206DD80020A83D0700B93D070029
:10AC500008E40020CDE40020A0A20020B4A200203F
:10AC6000BF3D0700CCA20020E4A20020CAE40020DF
:10AC700064D8002074A2002064A20020E8A2002072
:10AC8000FCA20020D03D0700C8A20020B8A20020EE
:10AC90009C4B02225A72DA7A01929B7A0093032229
:10ACA00004237DE70A239848237011F005FAC0B207
:10ACB0000C280ED8DFE800F0071B1B211B21211BED
:10ACC0001B1B1B1B2100914B00221A70904B05226D
:10ACD0001A708C4A8F4BD17A1B780191927A00922C
:10ACE0000A332278DBB28C498C48097867E7874BB6
:10ACF00000221A70864B0722EAE7844B00221A7062
:10AD0000834B0A22E4E77F4B0D22D97A227001910E
:10AD10009B7A0093824B1B78E5E77A4BDA7A0192B3
:10AD20009B7A009306220023DDE77E4811F002FAA9
:10AD3000012840F0B4807C4E727A012A00F0AF8086
:10AD40007A4F3A78002A40F0AA80794D794B2870E2
:10AD50001B780BB903F014FB774A78497848DFF881
:10AD6000D89111F0CDFD7749754811F0C9FD7649AC
:10AD7000734811F0C5FD724810F098FF714973488F
:10AD800011F0BEFD7049714811F0BAFD64201BF04E
:10AD90002DFC00216E4811F0DEFA5B4811F08CF9B1
:10ADA0006C4B53F820306C48059311F061F9002486
:10ADB0008046059B33F81430002B60D05F49604813
:10ADC0004A4611F09DFD224664495D4811F098FD08
:10ADD0005D495B4811F094FD594810F067FF224629
:10ADE0005E495A4811F08CFD5749584811F088FDCA
:10ADF00064201BF0FBFBE1B2574811F03BF96420E3
:10AE00001BF0F4FB0020FCF7DFFB11F038FE4FF0E5
:10AE1000000A83463A7872B34FF47A701BF0E6FB6F
:10AE200011F02DFEB0EB0B0302936AEB4A03039380
:10AE3000DDE9020142F21072002382428B41E9DA1D
:10AE40004A463E493E4811F05BFD45493C4811F0F9
:10AE500057FD3D493A4811F053FD394810F026FF9F
:10AE60003F493A4811F04CFD3749384811F048FD48
:10AE700064201BF0BBFB4FF4FA601BF0B7FB0134FE
:10AE8000102C96D13448414611F0F4F8726822B182
:10AE900000232F48194611F054FA00232B7007B0F5
:10AEA000BDE8F08F2F4B00221A702F4B0024002595
:10AEB000C3E900452D4B1B78002B00F0C3812C4CBF
:10AEC0002278102A67D8DFE812F0110059007A00C2
:10AED00085009200C100CE00E10066000D01200156
:10AEE00035014701570166016600AD01054B02229D
:10AEF000D97A227001919B7A0093FF231D491E4845
:10AF0000097846E0D0A10020CAE4002062D80020E1
:10AF100060D800205DD80020CCA10020C8A100206E
:10AF200063D80020CDE4002000A300202DD600200F
:10AF3000E1D40020B0A400207F3D07006835070061
:10AF400090E30020E13D0700C8840700F4E30020FF
:10AF500071E4002060A40020B8E40020F43D070064
:10AF6000023E070059D8002050D8002058D80020B1
:10AF70005AD80020C8A20020B8A200208D4B8E48CD
:10AF8000D97A0022227001919B7A8C49009309782A
:10AF9000FF2303F01DFA8A4A8A498B4811F0B0FC5E
:10AFA00022788A49884811F0ABFC8949864811F01B
:10AFB000A7FC854810F07AFE2278844954E57D4A42
:10AFC000D37A83F00103D3720193937A0093022220
:10AFD000FF2393E7774B7F497F4801225A72DA7A41
:10AFE00001929B7A0093032309781A46D1E709233B
:10AFF0007A48237011F060F8C0B20C2814D8DFE84A
:10B0000000F007070707070D1C07222222221C0059
:10B01000734B00221A70734B052204E0704B002220
:10B020001A70704B04221A70624BDA7A01929B7A82
:10B0300000936D4B1B78227811E0694B00221A7047
:10B04000684B0622EFE7664B0222E3E7594B0C22DE
:10B05000D97A227001919B7A0093644B1B786449E2
:10B060006448097895E7534B5A6842B142F20F7130
:10B070008A428ABFA2F51C520022103A5A60DA7A3C
:10B0800001929B7A00930622FF23E8E75A4D2B7822
:10B0900033B3013BDBB24A4A4A494B482B7011F0AB
:10B0A0002FFC2A785549484811F02AFC484946485F
:10B0B00011F026FC444810F0F9FD2A784F49504819
:10B0C00011F01EFC42494E4811F01AFC64201BF09E
:10B0D0008DFA384BDA7A01929B7A00932B78AAE7A3
:10B0E0000C23D8E7404A3E491378097899420BBFB0
:10B0F0003C4B03F1FF331B78DBB213702D4AD17A3E
:10B100000191927A00920922A9E73E4A3E491378BA
:10B11000097899420BBF3D4B03F1FF331B78DBB23B
:10B120001370244BDA7A01929B7A00932E4B0A22F9
:10B130001B7894E7364A37491368A3F5C333A03B1D
:10B140008B4298BF344B13601A4BDA7A01929B7A88
:10B1500000930B22FF2382E724490B78062B1CBFA8
:10B1600003F1FF33DAB2134B0A70D97A01919B7A5B
:10B17000009313460C2272E7284A13784BB1013B27
:10B18000DBB213700B4AD17A0191927A00920D22B0
:10B1900065E70923F5E7224A117809B1481EC0B2D4
:10B1A0001070044AD37A0193937A00930E220346D7
:10B1B00055E700BFD0A10020E8A20020FCA200209B
:10B1C0007F3D07006835070090E300201E3E070022
:10B1D000C884070074A2002064A20020CAE40020F2
:10B1E00061D800205FD800205DD800206CD80020F6
:10B1F000CCA10020C8A100205CD80020143E07008C
:10B20000F4E300205ED8002062D8002060D800203F
:10B2100068D800207F47A1198047A11963D8002072
:10B2200064D80020AA4A1378052B1ABF03F1FF3314
:10B23000DBB216231370A74AD17A0191927A009259
:10B2400010220CE7A44810F075FF01287FF427AE08
:10B25000A24B1B78002B7FF422AEA14B1B780BB9BD
:10B2600003F08EF89F4AA049A04811F049FBA0497D
:10B270009E4811F045FB9F499C4811F041FB9B48BB
:10B2800010F014FD9A499C4811F03AFB99499A48EC
:10B2900011F036FB64201BF0A9F90021974811F04A
:10B2A0005AF8974B012200201A70FCF78DF9954B44
:10B2B0005A68002A3FF4F3AD00239048194607B0BE
:10B2C000BDE8F04F11F03DB88F4B904D904C0022EF
:10B2D0001A70904B00210020C3E900012978002951
:10B2E00040F04881854811F036F80121834811F07B
:10B2F00032F88248022111F02EF8794B1B7813B9ED
:10B30000012003F03DF801237E4A2B7000232370B7
:10B31000704B51685960517A52895A816E485972FE
:10B3200010F008FF05466F4A6F497048002D49D05C
:10B3300011F0E6FA78496D4811F0E2FA6D496B4870
:10B3400011F0DEFA694810F0B1FC73496A4811F057
:10B35000D7FA6849684811F0D3FA64201BF046F91F
:10B360006E4810F085FE6E4B18706E4810F0A4FE0B
:10B370006D4B18706D4810F069FE6D4B18706D487C
:10B3800010F088FE6C4B18700023CDE90033227852
:10B390006A496B48097803F01BF8524A52495348EE
:10B3A00011F0AEFA22786749504811F0A9FA5149D4
:10B3B0004E4811F0A5FA4D4810F078FC227861490A
:10B3C000FFF752BB11F09CFA5349484811F098FA24
:10B3D0004849464811F094FA444810F067FC4E4939
:10B3E000454811F08DFA4349434811F089FA642029
:10B3F0001BF0FCF829465448544D10F018FD5448F1
:10B4000010F0CDFC2860534810F0DAFC524B187055
:10B41000524810F0E6FC524B1870524810F0F2FC03
:10B42000514B1870514810F000FD294B2D4A1870EF
:10B430002D492E4811F064FA286847F043FB22A3F7
:10B44000D3E9002347F0D2FC064641480F4610F0EE
:10B45000A6FC47F037FB1CA3D3E9002347F0C6FC4A
:10B4600032463B46CDE900014149204811F048FAF7
:10B4700020491E4811F044FA1C4810F017FC2868B7
:10B4800047F020FB10A3D3E9002347F0AFFC0646AA
:10B490002F480F4610F083FC47F014FB0AA3D3E9B2
:10B4A000002347F0A3FC3246CDE900013B4630497A
:10B4B000114811F025FA0F490F4811F021FA6420C4
:10B4C0001BF094F860E700BF0000000084D79741AC
:10B4D0006DD80020D0A10020CDE400202DD6002082
:10B4E000B0A400207F3D07006835070090E30020EE
:10B4F0002F3E0700C8840700F4E3002071E4002019
:10B5000002D5002000A3002059D8002058D80020E0
:10B510005AD8002050D80020453E0700B8E400204B
:10B520005DD80020CAE400205CD80020B5E40020EB
:10B530005BD80020C0E400205ED80020FCA20020E0
:10B54000E8A20020683E0700CEE4002068D8002072
:10B55000D9E40020DAE400206CD80020DBE40020ED
:10B5600063D80020DCE4002064D80020DEE4002062
:10B570005A3E07002378102B3FF60FAF01A252F876
:10B5800023F000BFC9B50200DBB50200EDB5020033
:10B59000F1B502000BB6020029B6020087B702001F
:10B5A0002DB6020087B60200A3B60200C7B602009D
:10B5B000EBB602000FB702002DB702004BB7020036
:10B5C0009BB3020069B702000122834B2270D97A33
:10B5D00001919B7A0093FF2322E07F4B0022D97ACE
:10B5E000227001919B7A0093FF23D1E60622ECE7BB
:10B5F000794B7A497A4800225A72DA7A01929B7A18
:10B600000093097802230322C5E67349754BC87A73
:10B610001B78082222700190897A00910A33DBB2EC
:10B62000714972480978B6E60B22CEE7704D714A2F
:10B630002B78714971480C2B1ABF0133DBB2002300
:10B640002B7011F05DF92A786D496C4811F058F9AA
:10B650006C496A4811F054F9684810F027FB2A78C1
:10B660006749694811F04CF96649674811F048F993
:10B6700064201AF0BBFF584BDA7A01929B7A009350
:10B680002B782278CCE7574A1378B3FA83F35B0917
:10B690001370514AD17A0191927A00920A330822AA
:10B6A000BEE75A4A5A491378097899420BBF594B59
:10B6B00001331B78DBB21370474AD17A0191927A39
:10B6C00000920922ACE7544A544913780978994208
:10B6D0000BBF534B01331B78DBB213703E4AD17A58
:10B6E0000191927A00920A229AE74E4A4E491368D3
:10B6F00003F5C333A0338B4294BF13601160364B04
:10B70000DA7A01929B7A00930B22FF2388E7474A5B
:10B7100013780C2B1ABF0133DBB2062313702E4AA9
:10B72000D17A0191927A00920C2279E7404A1378FB
:10B73000092B1ABF0133DBB200231370264AD17ADA
:10B740000191927A00920D226AE73A4A1378032B0C
:10B750001ABF0133DBB2002313701F4AD17A019163
:10B76000927A00920E225BE7334A1378162B1ABFA7
:10B770000133DBB205231370174AD17A0191927A13
:10B78000009210224CE7144A536803F51C531033FF
:10B790005360D37A0193937A0093062200233FE704
:10B7A000264B00221A70264B00200021C3E900011D
:10B7B000244B1A78002A3FF472AB234C2278102ACB
:10B7C00048D8DFE802F0435C5C5C5C5C826A6A6AD1
:10B7D0006A76767676477600D0A1002074A20020A3
:10B7E00064A200205BD80020CCA10020C8A10020CA
:10B7F0005CD800207F3D07006835070090E30020FB
:10B80000143E0700C8840700F4E300205DD8002040
:10B810005FD8002061D800205ED8002060D80020CA
:10B8200062D8002068D80020007038396CD8002019
:10B8300063D8002064D800206DD8002059D800209B
:10B8400050D8002058D800205AD8002000221A7062
:10B85000FEF7DEFE234A2449244811F051F82278ED
:10B860002349224811F04CF82249204811F048F8A9
:10B870001E4810F01BFA22781D49FFF7F5B81E4B41
:10B880001E48D97A0022227001919B7A1C490093AC
:10B890000978FF2302F09CFDDCE7174B1948D97AA1
:10B8A0000422227001919B7A174900930978FF23A3
:10B8B000F0E7114B1548D97A0522227001919B7A45
:10B8C000134900930978FF23E4E70B4B1148D97A19
:10B8D0000222227001919B7A0F4900930978FF237D
:10B8E000D8E700BF7F3D07006835070090E30020E0
:10B8F000793E0700C8840700D0A10020E8A20020FC
:10B90000FCA20020A0A20020B4A20020CCA2002013
:10B91000E4A20020B8A20020C8A2002070B598B010
:10B9200014460A490EA810F065FE0023CDE9143331
:10B93000CDE91633636E012B0CD1054920680DF05B
:10B94000A4FC48B1022400F0EDBC00BFCA8407008B
:10B9500049A40700002BF5D1B649B748B74CB84DFC
:10B96000B84E10F0CDFFB849B34810F0C9FFB14947
:10B97000B64810F0C5FFB449B44810F0C1FF6420C8
:10B980001AF034FE637AB24955F82320AA4810F021
:10B99000B7FFAD49A84810F0B3FF637AAC4955F83A
:10B9A0002320AA4810F0ACFFA749A84810F0A8FF30
:10B9B00064201AF01BFEA74911A810F075FC11A90C
:10B9C0000EA810F02AFE11A810F0CEFD0EA810F05F
:10B9D00067FE0E9AA049984810F092FF9A4996483F
:10B9E00010F08EFF0E9A9C49984810F089FF9649F6
:10B9F000964810F085FF64201AF0F8FD974911A8C9
:10BA000010F032FC119A96498B4810F079FF11A87A
:10BA100010F0AAFD8C49884810F072FF8F4911A8D8
:10BA200010F022FC119A8E49884810F069FF11A885
:10BA300010F09AFD8449854810F062FF64201AF0E6
:10BA4000D5FD4FF47A7562688649B2FBF5F27A4803
:10BA500010F056FF7C49784810F052FF6268814927
:10BA6000B2FBF5F2794810F04BFF7749774810F0B8
:10BA700047FF64201AF0BAFD7B4810F05BFB7B495E
:10BA800056F8202005466C4810F03AFF6E496A4887
:10BA900010F036FF56F8252074496C4810F030FF3E
:10BAA00069496A4810F02CFF64201AF09FFD012DAF
:10BAB00040F04E836E486F4E6F4D10F0C5FA6F49DF
:10BAC000002814BF32462A465B4810F019FF5E4931
:10BAD000594810F015FF664810F0B6FA674900287B
:10BAE00014BF32462A465948654E10F009FF5649A0
:10BAF000564810F005FF64201AF078FD614810F0F8
:10BB0000DBFA6149054602464B4810F0F9FE4E4902
:10BB1000494810F0F5FE2A465B494C4810F0F0FE0B
:10BB200049494A4810F0ECFE64201AF05FFD56F8CF
:10BB300025205649404810F0E3FE43493E4810F0A6
:10BB4000DFFE56F825205149404810F0D9FE3E4905
:10BB50003E4810F0D5FE64201AF048FD4C4810F025
:10BB60006CFA002800F0BE814A49334810F0C8FE44
:10BB70003549314810F0C4FE4649344810F0C0FE43
:10BB80003149324810F0BCFE64201AF02FFD082223
:10BB900014A9414810F030FA9DF8573005939DF8EC
:10BBA000563004939DF8553003939DF8543002931A
:10BBB0009DF8533001939DF852309DF8502037493D
:10BBC00000931D489DF8513010F09AFE1E491A4806
:10BBD00010F096FE9DF8573005939DF8563004936B
:10BBE0009DF8553003939DF8543002939DF85330DF
:10BBF00001939DF852309DF8502028490093134836
:10BC00009DF8513010F07CFE0F49104810F078FE7E
:10BC100064201AF0EBFC082214A9214810F0C8F99E
:10BC20009DF8573005939DF8563004939DF8553094
:10BC300038E000BFF43E070090E3002000A300209E
:10BC4000D4A30020C8A30020C8840700F4E3002088
:10BC5000033F070048E40020113F07000CE40020E8
:10BC6000717207001C3F0700CDE400202C3F070045
:10BC7000B4E40020BD810700E63E07003C3F07001A
:10BC800094A30020CAE40020473F0700523F07006A
:10BC9000B3E400205D3F0700AEE40020673F0700EB
:10BCA000AAE4002003939DF8543002939DF853308A
:10BCB00001939DF852309DF850207D4900937D48B6
:10BCC0009DF8513010F01CFE7B497A4810F018FEA8
:10BCD0009DF8573005939DF8563004939DF85530E4
:10BCE00003939DF8543002939DF8533001939DF8CF
:10BCF00052309DF850206E49009370489DF85130A5
:10BD000010F0FEFD6C496D4810F0FAFD64201AF049
:10BD10006DFC102214A96A4810F053F99DF85F30A9
:10BD20000D939DF85E300C939DF85D300B939DF85C
:10BD30005C300A939DF85B3009939DF85A30089364
:10BD40009DF8593007939DF8583006939DF8573069
:10BD500005939DF8563004939DF8553003939DF854
:10BD6000543002939DF8533001939DF852309DF862
:10BD70005020544900934F489DF8513010F0C0FDB9
:10BD80004D494C4810F0BCFD9DF85F300D939DF877
:10BD90005E300C939DF85D300B939DF85C300A93F8
:10BDA0009DF85B3009939DF85A3008939DF85930FF
:10BDB00007939DF8583006939DF8573005939DF8EA
:10BDC000563004939DF8553003939DF854300293F8
:10BDD0009DF8533001939DF8523000939DF8502008
:10BDE0009DF851303749354810F08AFD32493348C3
:10BDF000354E364D10F084FD64201AF0F7FB3449BF
:10BE00002C4810F07DFD2C492A4810F079FD30496E
:10BE10002A4810F075FD2849284810F071FD64206B
:10BE20001AF0E4FB627A2B49224810F069FD22499E
:10BE3000204810F065FD627A2649204810F060FD28
:10BE40001D491E4810F05CFD64201AF0CFFBA27A59
:10BE500021491848002A14BF32462A4610F050FDE6
:10BE60001549144810F04CFDA27A1B491348002ACA
:10BE700014BF32462A4610F043FD0F490F48174EB3
:10BE800010F03EFD64201AF0B1FB15481AF0C6FE12
:10BE90000025B4F88E20EBB2934205F1010580F243
:10BEA0003D8223443046197B1AF0B8FEF1E700BF0B
:10BEB0008F3F070090E30020C8840700F4E30020D0
:10BEC000ABE40020B73F0700F13E07007B3D0700D1
:10BED00018410700284107003641070003C6070044
:10BEE000474107009049914810F00AFD90498F485A
:10BEF00010F006FD8C498F4810F002FD8C498D48EA
:10BF000010F0FEFC64201AF071FB14A910228A487C
:10BF100010F060F89DF85F300D939DF85E300C9343
:10BF20009DF85D300B939DF85C300A939DF85B3073
:10BF300009939DF85A3008939DF8593007939DF85E
:10BF4000583006939DF8573005939DF8563004936A
:10BF50009DF8553003939DF8543002939DF853306B
:10BF600001939DF852309DF85020009373499DF83D
:10BF700051306E4810F0C4FC6D496C4810F0C0FCA4
:10BF80009DF85F300D939DF85E300C939DF85D3009
:10BF90000B939DF85C300A939DF85B3009939DF8F4
:10BFA0005A3008939DF8593007939DF858300693FE
:10BFB0009DF8573005939DF8563004939DF8553001
:10BFC00003939DF8543002939DF8533001939DF8EC
:10BFD00052309DF85020009358499DF851305548F3
:10BFE00010F08EFC5249534810F08AFC64201AF07D
:10BFF000FDFA14A91022524810F007F89DF85F309E
:10C000000D939DF85E300C939DF85D300B939DF879
:10C010005C300A939DF85B3009939DF85A30089381
:10C020009DF8593007939DF8583006939DF8573086
:10C0300005939DF8563004939DF8553003939DF871
:10C04000543002939DF8533001939DF852309DF87F
:10C05000502000933B499DF85130344810F050FC7B
:10C060003349324810F04CFC9DF85F300D939DF839
:10C070005E300C939DF85D300B939DF85C300A9315
:10C080009DF85B3009939DF85A3008939DF859301C
:10C0900007939DF8583006939DF8573005939DF807
:10C0A000563004939DF8553003939DF85430029315
:10C0B0009DF8533001939DF852309DF85020009325
:10C0C00020499DF851301B4810F01AFC18491948B6
:10C0D00010F016FC64201AF089FA14A904221A48F8
:10C0E0000FF081FF9DF8533001939DF852309DF879
:10C0F0005020009315499DF851300C4810F000FC79
:10C100000B490A4810F0FCFB9DF8533001939DF851
:10C11000523000939DF850209DF851300B4905484E
:10C1200010F0EEFB62E600BFFF3F070090E3002047
:10C13000C8840700F4E30020ACE4002008400700B6
:10C14000B0E4002051400700ADE400209A40070011
:10C150007748002D40F09B800FF021FE7549024684
:10C16000754810F0CDFB7549734810F0C9FB704855
:10C170000FF015FE6F490246714810F0C1FB6F4980
:10C180006F4810F0BDFB64201AF030FA6D480FF0D4
:10C1900017FE6D490246684810F0B2FB67496648D1
:10C1A00010F0AEFB67480FF00BFE6749024664488B
:10C1B00010F0A6FB6149624810F0A2FB64201AF05F
:10C1C00015FA62480FF00DFE614902465A4810F018
:10C1D00097FB5A49584810F093FB5C480FF001FE5A
:10C1E0005B490246564810F08BFB5449544810F006
:10C1F00087FB64201AF0FAF956480FF003FE5649FF
:10C2000002464D4810F07CFB4C494B4810F078FB3F
:10C2100050480FF0F7FD50490246494810F070FBB6
:10C220004649474810F06CFB64201AF0DFF94B4890
:10C230000FF0F9FD4A4902463F4810F061FB3F49C3
:10C240003D4810F05DFB45480FF0EDFD44490246C6
:10C250003B4810F055FB3949394810F051FB642038
:10C260001AF0C4F93F480FF0E0FD3F49024632485A
:10C2700010F046FB3149304810F042FB39480FF0CE
:10C28000D4FD394902462E4810F03AFBAEE50FF0D6
:10C2900086FD28490246284810F032FB27492648E7
:10C2A00010F02EFB22480FF07AFD22490246244866
:10C2B00010F026FB2149224810F022FB64201AF0DE
:10C2C00095F92A480FF0E5FD294902461A4810F071
:10C2D00017FB1A49184810F013FB24480FF0D9FD3A
:10C2E00023490246164810F00BFB1449144810F07D
:10C2F00007FB64201AF07AF91E480FF0CCFD1E49A6
:10C3000002460D4810F0FCFA0C490B4810F0F8FA00
:10C3100018480FF0C0FD18490246B4E707481AF064
:10C320007DFC00240EA810F01FF9204618B070BD47
:10C33000D9E40020B340070090E30020C884070040
:10C34000F4E30020DAE40020C2400700DBE4002030
:10C35000CA400700DCE40020D2400700DDE40020F2
:10C36000DA400700DEE40020EF400700E2E40020AE
:10C37000FD400700E3E400200A4107002DE9FF41EA
:10C38000536E012B0D46144624D1394910680CF028
:10C390007CFF044620B10224204604B0BDE8F081B1
:10C3A00002F0A8FD2946334810F076FA32493148A8
:10C3B00010F060FA314A3249D379039393790293AA
:10C3C000537901931379009393782A48128810F0D7
:10C3D00097FAE1E7052BDED1161F02F1100756F898
:10C3E000045F28460CF063FF2B462844984205D092
:10C3F00013F8012B303A092AF8D9CCE7BE42EED126
:10C400000022114620680DF0BFF840F2D233A0F2AE
:10C41000E6729A420546BED80022606811460DF0C9
:10C42000B3F8431E0B2B0646B5D80022A068114670
:10C430000DF0AAF8431E1E2B0746ACD80022E06878
:10C4400011460DF0A1F818288046A4D800222069D2
:10C4500011460DF099F83B289DD8C2B200925FFAC0
:10C4600088F3FAB2F1B2A8B202F0FEFC002493E71E
:10C4700049A4070090E30020F85807002CDB0020B7
:10C480005841070007B503230193054B0093054B63
:10C49000054A064819460FF028FF03B05DF804FB73
:10C4A0009DC90200734107007B4107006EE4002034
:10C4B00007B503230193054B0093054B054A064836
:10C4C00019460FF012FF03B05DF804FB6DCB0200BC
:10C4D000D2410700D74107006EE4002007B50323CF
:10C4E0000193054B0093054B054A064819460FF08A
:10C4F000FCFE03B05DF804FBC1CD02002242070040
:10C50000274207006EE4002007B503230193054B83
:10C510000093054B054A064819460FF0E6FE03B0A6
:10C520005DF804FB8DC502004E4207005342070030
:10C530006EE4002007B503230193054B0093054BE0
:10C54000054A064819460FF0D0FE03B05DF804FB1B
:10C550007DC30200694207006D4207006EE40020BF
:10C5600007B502230193054B0093054B054A064886
:10C5700019460FF0BAFE03B05DF804FB1DB90200C6
:10C58000944207009B4207006EE400204C4B1B784E
:10C5900070B5E3B94B4A4C494C4810F0B1F94C49DD
:10C5A0004A4810F0ADF94B49484810F0A9F94748FE
:10C5B0000FF07CFB4649484810F0A2F9454946482F
:10C5C00010F09EF964201AF011F802244FE0556E25
:10C5D000012DFAD11668414930460CF056FE04464A
:10C5E000002846D13B49394810F08AF93949374883
:10C5F00010F086F93749384810F082F93549364845
:10C6000010F07EF9642019F0F1FF214634480FF054
:10C61000A2FE294632480FF09EFE022130480FF05C
:10C620009AFE01F06FFE21462E4802F02DFB2E48A7
:10C6300001F00AFE2D4801F007FE01F099FE03F01B
:10C6400073FA2449214810F05BF922491F4810F081
:10C6500057F92049204810F053F91E491E4810F0A0
:10C660004FF9642019F0C2FF21480FF033FE204635
:10C6700070BD204930460CF008FE04460028A4D1C5
:10C680001D4B014616481D700FF065FE29461448E3
:10C690000FF061FE022112480FF05DFE01F032FE44
:10C6A0002146104802F0F0FA144801F0CDFD0F4881
:10C6B00001F0CAFD01F05CFE02F054FED4E700BFB9
:10C6C0000FD50020B24207006835070090E3002034
:10C6D000B9420700C8840700F4E3002049A407001A
:10C6E00071E40020573D0700CD4207006E3D070072
:10C6F00008E40020498A070058D80020DD420700DE
:10C7000030B5944CE7B060689421FDF7B1FD924AD2
:10C7100092490546924810F0F3F82A46914990480C
:10C7200010F0EEF890498E4810F0EAF88C480FF0BF
:10C73000BDFA2A468B498D4810F0E2F88A498B48A9
:10C7400010F0DEF8642019F051FF89499422684600
:10C750000CF000F8ADF80050B4F88E506368019307
:10C760002A46A368029304F10C0103A80BF0F2FF20
:10C77000794A7A497A48ADF88E5010F0C1F8019A9A
:10C780007C4977487C4D7D4C10F0BAF87649744866
:10C7900010F0B6F872480FF089FA019A754973489B
:10C7A00010F0AEF87049714810F0AAF8642019F042
:10C7B0001DFF694A69496A4810F0A2F89DF80920EE
:10C7C0006F49674810F09CF86749654810F098F881
:10C7D00063480FF06BFA9DF809206949634810F02F
:10C7E0008FF86149614810F08BF8642019F0FEFE63
:10C7F000594A5A495A4810F083F89DF80A2061496D
:10C800005748002A14BF2A46224610F079F85649A4
:10C81000534810F075F852480FF048FA9DF80A2076
:10C8200058495248002A14BF2A46224610F068F898
:10C830004D494E4810F064F8642019F0D7FE464A7E
:10C840004649474810F05CF89DF80B204E49444893
:10C85000002A14BF2A46224610F052F842494048A6
:10C8600010F04EF83E480FF021FA9DF80B20464993
:10C870003E48002A14BF2A46224610F041F83A49A1
:10C880003A48424D10F03CF80024642019F0AEFE06
:10C89000FE22214626A825940BF06AFFBDF88E30B3
:10C8A000E0B2984204F1010409DA0DEB00032946D5
:10C8B0001A7B25AB03EB40000CF0BAFCEEE7264AEE
:10C8C0002649274810F01CF825AA3149244810F0C1
:10C8D00017F82549224810F013F821480FF0E6F91F
:10C8E00025AA2B49214810F00BF81F491F4810F0CA
:10C8F00007F8642019F07AFE174A184918480FF013
:10C90000FFFFBDF88E20234915480FF0F9FF1649A7
:10C9100013480FF0F5FF12480FF0C8F9BDF88E204C
:10C920001C4912480FF0ECFF0F4910480FF0E8FFC8
:10C93000642019F05BFE184894236A4600210FF02A
:10C94000ECFC28B90146942313486A460FF0E5FC35
:10C9500067B030BD00A30020B24207006835070071
:10C9600090E30020F1420700C8840700F4E30020B0
:10C970001046070005430700F13E0700ED4207009F
:10C9800023430700394307005243070003C607004B
:10C990006C430700854307006FE40020F8B5536E31
:10C9A000012B0E46154601D0022423E0624910688F
:10C9B0000CF06BFC0446F8B9604F61497B68614834
:10C9C00032464FF47A75B3FBF5F30FF099FF5E49E9
:10C9D0005C480FF095FF7B685949B3FBF5F332468D
:10C9E0005A480FF08DFF584958480FF089FF6420CE
:10C9F00019F0FCFD2046F8BD554A564951480FF044
:10CA00007FFF2A6854494F480FF07AFF4E494D483E
:10CA10000FF076FF4B480FF049F92A684E494B4812
:10CA20000FF06EFF484949480FF06AFF642019F083
:10CA3000DDFD2D6828460CF03AFC0024844223D00A
:10CA40002B5D303B092B1DD9414A42493D480FF02F
:10CA500057FF224641493B480FF052FF3A493948B7
:10CA60000FF04EFF37480FF021F922463B49374877
:10CA70000FF046FF344935480FF042FF642019F0AB
:10CA8000B5FD91E70134D9E70A22002128460CF0D0
:10CA90007BFD2F4A2F4904462A480FF031FF2246DA
:10CAA0002F4928480FF02CFF274926480FF028FF70
:10CAB00024480FF0FBF82246294924480FF020FFB4
:10CAC000214922480FF01CFF642019F08FFDB4F5B6
:10CAD000616F3FF669AF194D1D4A1E494FF47A70D8
