:020000022000DC
:1070000000000420DDA2030005A3030007A3030082
:1070100009A303000BA303000DA30300000000005D
:107020000000000000000000000000000FA30300AB
:1070300011A3030000000000000000000000000099
:107040009591050013A3030015B005006D97050089
:1070500013A30300D58D0500AD8B0500C573060095
:1070600013A30300AD960500C196050013A303000A
:1070700013A3030013A3030013A3030013A303002C
:10708000C9800600AD63050013A3030013A303002A
:1070900013A3030013A303004D6A060013A3030008
:1070A00013A3030013A30300D5960500E99605007A
:1070B00013A3030013A3030000000000000000005E
:1070C00013A3030013A3030013A303000179060015
:1070D000C593050013A3030013A3030025AD05000A
:1070E0009DAD060013A30300DDD4060000000000E0
:1070F0000000000013A3030000000000D17C060084
:10710000000000000000000000000000000000007F
:10711000000000000000000000000000000000006F
:10712000000000000000000000000000000000005F
:10713000000000000000000000000000000000004F
:10714000000000000000000000000000000000003F
:10715000000000000000000000000000000000002F
:10716000000000000000000000000000000000001F
:10717000000000000000000000000000000000000F
:1071800000000000000000000000000000000000FF
:1071900000000000000000000000000000000000EF
:1071A00000000000000000000000000000000000DF
:1071B00000000000000000000000000000000000CF
:1071C00000000000000000000000000000000000BF
:1071D00000000000000000000000000000000000AF
:1071E000000000000000000000000000000000009F
:1071F000000000000000000000000000000000008F
:1072000010B5054C237833B9044B13B10448AFF3E0
:1072100000800123237010BDC0D4002000000000B6
:10722000681B080008B5034B1BB103490348AFF3C3
:10723000008008BD00000000C4D40020681B0800C6
:10724000154B002B08BF134B9D46A3F5803A002138
:107250008B460F461348144A121A10F031FD0F4B9B
:10726000002B00D098470E4B002B00D098470020F1
:10727000002104000D000D48002802D00C48AFF397
:10728000008010F0CDFC2000290010F053FA10F01F
:10729000B3FC00BF00000800000004200000000054
:1072A00000000000C0D400207CC6012000000000C7
:1072B000000000000022C0E900220172704738B5CA
:1072C0000446006820B1856912F0D0FF2846F9E72E
:1072D000204638BD006820B143688B4201D08069E8
:1072E000F9E77047F8B504460F4616461D46FFF706
:1072F000F1FF20B10123826005704370F8BD1C20AE
:1073000012F0B8FF012343700023C0E90333C0E942
:10731000053323680570C0E9017613B92060606009
:10732000ECE763689861FAE72DE9F8430468164FC3
:1073300005460E464FF000081CB363680BB9A469FC
:10734000FAE72378002BFAD0E368A268F31A9A428E
:1073500002D961780029F2D09B1A636184F8018018
:10736000E66014F039FE63688146984714F034FEF5
:107370003B68A0EB0900206118442B7A3860002B91
:10738000DDD0BDE8F88300BFDCD4002008B5074B92
:1073900050B103221A700648FA22012114F079FA3A
:1073A000044B00221A7008BD0522F3E7E0D4002048
:1073B00051E400202DD60020054B064800221A700B
:1073C000054B08221A700121FA2214F062BA00BF9C
:1073D0002DD6002051E40020E0D4002084B004AB7E
:1073E00003E907000B4BBDF90A201A800A4B9DF9EF
:1073F0000C201A70094A0A48136801331360094BBC
:1074000000221A70084B0121FA22197004B014F0FE
:1074100040BA00BF10D5002012D5002028D6002089
:1074200051E400202DD60020E0D40020124B002291
:107430001A70124B1B7A022B1DD0114B90F90620AB
:107440001A70104BB0F904201A800F4A0378137099
:107450000E4A417811700E4A817811701BB10D4AA5
:107460001368013313600C4B0C4804221A7001217D
:10747000FA2214F00EBA70472DD60020F8A2002090
:1074800012D5002010D5002015D6002013D60020DC
:1074900014D6002024D60020E0D4002051E400209F
:1074A0002DE9F04F2DED028B00218DB0AE4E04463C
:1074B000242014F080FD0021232014F07CFD33787B
:1074C0005BB1AA4B1B7843B906F032FBA849A94827
:1074D00011F08DF9A74806F005FA44B9A649A74866
:1074E00014F0A2FC0DB0BDEC028BBDE8F08F247847
:1074F000012C40F092813378DFF8FC82A04FA14E3E
:10750000002B00F0BD80994B1D78002D40F0B88015
:107510009D49984811F06BF9964909A814F012FB9F
:1075200009AA2946284606F01FFB09A814F0C4FA48
:10753000D8F8002095498F4811F022F98D4909A803
:1075400014F000FB09AA2946204606F00DFB09A805
:1075500014F0B2FA8E4813F0CAFE4AF043FD80A33D
:10756000D3E900234AF0E2FE0B46024689498148EE
:1075700011F006F97F4909A814F0E4FA09AA29468E
:10758000022006F0F1FA09A814F096FA824813F0E6
:10759000BFFE82490246774811F0F2F8754909A802
:1075A00014F0D0FA09AA2946032006F0DDFA09A84A
:1075B00014F082FA7A4813F0BCFE092800F2288100
:1075C000DFE810F00A00C300C500C700C9001C01B5
:1075D0001E01200122012401724907A811F007F9B8
:1075E0006F4813F0A6FE704B704953F82020614895
:1075F00011F0C6F85F4909A814F0A4FA09AA4021BD
:10760000032006F0B1FA09A814F056FA684813F0FE
:10761000A1FE6849421D574811F0B2F8554909A822
:1076200014F090FA09AA4021022006F09DFA09A858
:1076300014F042FA3A8860494E4812B211F0A0F8AC
:107640004C4909A814F07EFA09AA0021042006F08A
:107650008BFA09A814F030FA32785849454852B2EA
:1076600011F08EF8434909A814F06CFA09AA4021D8
:10767000042006F079FA09A814F01EFA06F08EFA32
:107680004F4B1B78002B2DD04E4B1B78002B00F05E
:10769000C18006F053FF4C4A4C4B118819809178F9
:1076A00099701179D9705179927919715A710122B1
:1076B0009A7147490022DA71096899604549096859
:1076C000D9601A745A74398849B29974317849B2B8
:1076D000D9749A82DA821A833F4A126812B25A83A4
:1076E00007F0FAFA3D49254814F09EFBD8F800202F
:1076F0003B883178214849B21BB20091384914F0D7
:10770000A7FB234813F0F3FD08EE100A224813F0FC
:10771000FFFD0446224813F00CFEF8EE487A0546B9
:1077200017EE900A4AF080FC0DA3D3E900234AF03B
:10773000FDFD7D2305FB0333CDE9004302460B46E7
:107740000E48284914F084FBCCE6274945E7274931
:1077500043E7274941E727493FE700BFAFF30080F0
:107760000000000080842E410DD5002058D8002054
:107770007C2A070013D500208D2A070070E3002023
:1077800010D5002012D500209A2A0700A82A070049
:10779000B9E400209A330700BAE40020453E070010
:1077A000BBE40020BC2A070070A20020F22A0700D8
:1077B000BCE400205E3E0700F82A0700002B07000B
:1077C0000ED5002034DB00202CDB0020A4A10020FB
:1077D00088D800208CD8002024D60020072B070052
:1077E000142B0700312B0700C02A0700C42A07000A
:1077F000C82A0700CC2A070028D600205D49ECE6FD
:107800005D49EAE65D49E8E65D49E6E65D49E4E6AC
:107810005D49E2E607F00AF83DE7032C62D13378D0
:10782000002B3FF45FAE594B1E78002E7FF45AAE0A
:10783000574C257A002D41D0022D4CD04FF47A734D
:1078400062685449B2FBF3F2534810F099FF524971
:1078500009A814F077F909AA0021012006F084F99B
:1078600009A814F029F94D4909A814F06BF9002171
:1078700009AA022006F078F909A814F01DF9484970
:10788000454810F0B4FF444909A814F05BF909AA6F
:107890000021032006F068F909A814F00DF93F490A
:1078A00009A814F04FF909AA0021042006F05CF998
:1078B00009A814F001F906F071F913E6394909A88D
:1078C00014F040F909AA2946084606F04DF909A81E
:1078D00014F0F2F8B2E7344909A814F033F909AA10
:1078E0003146F1E7052C63D13378002B3FF4FAAD34
:1078F000264B1E78002E7FF4F5AD254C257A25B356
:10790000022D2FD04FF47A7362682249B2FBF3F252
:10791000214810F035FF204909A814F013F909AAED
:107920000021012006F020F909A814F0C5F81B4930
:1079300009A814F007F9002109AA022006F014F999
:1079400009A814F0B9F819499AE7164909A814F0DA
:10795000F9F809AA2946084606F006F909A814F01C
:10796000ABF8CFE7104909A814F0ECF809AA3146A2
:10797000F1E700BFD12A0700D72A0700DD2A070058
:10798000E32A0700E92A0700EE2A070058D800205A
:10799000F8A20020672B070013D500202BDD07007D
:1079A0007A2B0700462B0700552B0700862B070074
:1079B000042C40F0FF813378DFF808A3A54DDFF8F1
:1079C0000893A54EDFF804B3002B00F0A480A34B6E
:1079D0001F78002F40F09F80A14B3178A14AA24828
:1079E000002918BF1A46A14910F0CAFE9E4909A8ED
:1079F00014F0A8F809AA3946384606F0B5F809A8DF
:107A000014F05AF8327802F0FF08002A40F0DD80C6
:107A10009BF800209649944810F0B2FE924909A8BC
:107A200014F090F809AA4146012006F09DF809A833
:107A300014F042F8DAF800208E498B4810F0A0FECE
:107A4000894909A814F07EF809AA4146022006F0E7
:107A50008BF809A814F030F8874B88491A688248D7
:107A600010F08EFE804909A814F06CF809AA402194
:107A7000022006F079F809A814F01EF8804B81491D
:107A80001A78794810F07CFE774909A814F05AF862
:107A900009AA4146032006F067F809A814F00CF87B
:107AA000794813F08DFD794902466F4810F068FE61
:107AB0006D4909A814F046F809AA4021032006F0F0
:107AC00053F809A813F0F8FF2A887149664812B2E2
:107AD00010F056FE644909A814F034F809AA41468A
:107AE000204606F041F809A813F0E6FF99F80020B7
:107AF00068495D4852B210F043FE5B4909A814F092
:107B000021F8204609AA402106F02EF809A813F012
:107B1000D3FF06F043F8604B1B78002B36D05F4B49
:107B20001B78002B00F01B8106F008FD5C4A5D4BC2
:107B300011881980917899701179D9705179927959
:107B400019715A714E4900229A710978C9B2D971D6
:107B500055490968996055490968D960298849B229
:107B60001974298849B25974298849B2997499F8C5
:107B7000001049B2D9749A82DA829BF800201A83E5
:107B80003D4A126812B25A8307F0A6F83178344B96
:107B9000344A4748002918BF1A46464914F058F994
:107BA000DAF800202B8899F80010414849B200917A
:107BB0001BB2414914F04CF9314B40491A783C480A
:107BC0009BF8003014F044F98CE4DAF800202949DD
:107BD000254810F0D5FD244909A813F0B3FF09AAE0
:107BE0003946012005F0C0FF09A813F065FF224BBC
:107BF00022491A681C4810F0C3FD1B4909A813F05C
:107C0000A1FF09AA4021012005F0AEFF09A813F049
:107C100053FF32782A49144810F0B2FD124909A8DE
:107C200013F090FF09AA3946022005F09DFF09A82C
:107C300013F042FF3378013B0F2B00F28E80DFE818
:107C400003F0476E70727476787A7C7E80828486C8
:107C5000888A00BF10D5002015D6002058D80020F3
:107C6000782A0700792A070013D500209C2B0700EB
:107C7000AD2B0700C02B070024D60020C82B07001F
:107C800014D60020D02B070098E40020CD2C07004C
:107C9000F82A0700002B07000ED5002034DB002057
:107CA0002CDB0020A4A1002088D800208CD8002044
:107CB00070E30020D32C0700142B0700E22C0700F0
:107CC000D92B070028D6002012D5002013D600207B
:107CD0002449254810F08BFD234909A813F032FFF1
:107CE00009AA0021032005F03FFF09A813F0E4FED4
:107CF0001E4813F065FC1E4902461B4810F040FD6B
:107D0000194909A813F01EFF09AA0021042005F053
:107D10002BFF09A813F0D0FE05F040FFF9E6154946
:107D2000D7E71549D5E71549D3E71549D1E71549EF
:107D3000CFE71549CDE71549CBE71549C9E71549FF
:107D4000C7E71549C5E71549C3E71549C1E715490F
:107D5000BFE71549BDE71549BBE71549B9E706F087
:107D600065FDE3E6EE2B070013D5002098E4002024
:107D7000CA2C0700FC2B0700072C0700132C070058
:107D80001F2C0700292C07007A2B0700332C070033
:107D9000472C07005A2C07006A2C0700772C070095
:107DA000812C0700912C07009F2C0700AB2C0700AB
:107DB000BC2C0700A24B1B78062B40F0A181A14BE5
:107DC000A149DD781C7993F801809F7893F905B07B
:107DD0009E48C5EB451205EB8205A8F1C808C4EB27
:107DE0004412C83F04EB82041FFA88F85A790292C1
:107DF000BFB25A466D0064000FFA88FA0FFA87F98D
:107E000014F026F82DB2924990484B46524624B2BF
:107E100014F01EF823468F498C482A4614F018F8AF
:107E20003378002B00F0D0808B4B1E78002E40F072
:107E3000CB8005F07DFE894805F054FD884B8949CB
:107E40001A78894B89481B8852B21BB210F098FCF3
:107E5000864909A813F076FE09AA3146304605F096
:107E600083FE09A813F028FE5A4681497F4810F086
:107E700087FC7E4909A813F065FE09AA3146012056
:107E800005F072FE09A813F017FE7A4909A813F04D
:107E900059FE09AA3221012005F066FE09A813F057
:107EA0000BFE754909A813F04DFE09AA50210120C7
:107EB00005F05AFE09A813F0FFFD704909A813F058
:107EC00041FE09AA3146022005F04EFE09A813F032
:107ED000F3FD6B4909A813F035FE09AA31460320CA
:107EE00005F042FE09A813F0E7FD524665495F48D8
:107EF00010F046FC5D4909A813F024FE09AA3221BE
:107F0000022005F031FE09A813F0D6FD4A465D496E
:107F1000564810F035FC554909A813F013FE09AA7C
:107F20003221032005F020FE09A813F0C5FD564BB1
:107F300093F80A90B9F1000F00F0B8802A46514931
:107F40004A4810F01DFC494909A813F0FBFD09AA95
:107F50005021022005F008FE09A813F0ADFD2246CD
:107F60004849424810F00CFC404909A813F0EAFDCA
:107F700009AA5021032005F0F7FD09A813F09CFD84
:107F8000424B1868424BD3F800904AF04DF8024635
:107F90000B464846CDE904234AF046F8DDE90423C0
:107FA000CDE900013B49314810F0EAFB2F4909A80F
:107FB00013F0C8FD09AA3146042005F0D5FD09A833
:107FC00013F07AFD05F0EAFD334B1B78002B3FF4EC
:107FD00089AA324B1B78002B00F08F8006F0AEFA96
:107FE0002F4A304B11881980917899701179D97086
:107FF0005179927919715A7102229A71029ADA7141
:10800000224A12689A60224A1268DA604FFA88F8A7
:10801000154A83F810807FB25F74128852B29A7446
:108020000F4A127852B2DA749D820022DC821A83DF
:108030001D4A126812B25A8306F04EFEFFF752BA7A
:10804000E0D40020E1D40020FC2C070070E30020E5
:108050001B2D0700352D070058D80020532D070091
:1080600012D50020632D070010D5002013D5002065
:108070007A2D070066890700852D07008E2D0700E1
:10808000922D0700BD2B0700F8A2002088D8002001
:108090008CD80020962D07000ED5002034DB002060
:1080A0002CDB0020A4A1002024D600205E495F48DC
:1080B00010F09DFB5D4909A813F044FD09AA502169
:1080C000022005F051FD09A813F0F6FC574909A854
:1080D00013F038FD09AA5021032005F045FD09A839
:1080E00013F0EAFC5249514810F081FB4F4909A8AE
:1080F00013F028FD09AA49465EE706F097FB6FE7F3
:10810000072B6CD14B494C4813F0A2FE3378002B5F
:108110003BD04A4B1C78002C37D105F009FD48486C
:1081200005F0E0FB4749414810F061FB3F4909A8D1
:1081300013F008FD09AA2146204605F015FD09A8FF
:1081400013F0BAFC404B1868404B1D6849F06CFFB7
:1081500002460B462846CDE9022349F065FFDDE9DA
:108160000223CDE900013A49304810F009FB2F49BC
:1081700009A813F0E7FC09AA2146042005F0F4FC45
:1081800009A813F099FC05F009FD324B1B78002B70
:108190003FF4A8A9304B1B78F3B106F0CFF92F4A72
:1081A0002F4B11881980917899701179D970517974
:1081B000927919715A7102229A7123490022DA7157
:1081C0000968996021490968D9601A745A749A74C7
:1081D000DA749A82DA822AE706F028FBDFE7082BB6
:1081E0007FF480A91F49144813F032FE1E4B002271
:1081F0001A703378002B3FF475A9104B1B78002BB5
:108200007FF470A905F094FC184805F06BFB184941
:10821000064810F0ECFA054909A813F093FC002178
:1082200009AA0846FFF742BBAB2D070013D5002073
:10823000A22D0700AE2D070070E3002058D80020C3
:10824000532D0700CD2D070088D800208CD80020A2
:10825000962D07000ED5002034DB00202CDB0020FB
:10826000A4A10020E22D07002DD600207C2A0700C3
:10827000F92D070010B5044607F084F8204610BD1C
:1082800008B5064B1B783BB113F0A1FEBDE80840D2
:1082900001460348FFF748B808BD00BF59D8002081
:1082A00018D600201F4B07B501221F481A7013F083
:1082B0009CF818B11D48002113F061F81C4813F018
:1082C000E5F91C491C4813F0F3F81C491A4813F04F
:1082D000FFF81B49184813F0F3F81A49164813F031
:1082E000FFF81949144813F003F90021174813F057
:1082F0003DF90021164813F0A7F93223012200931B
:108300000D480A23114613F092F8124B9B7A33B1B1
:108310000121222003B05DF804EB13F04CBE03B042
:108320005DF804FBA1A10020C4E40020AEE400201D
:10833000ADE400208189020089E40020998A0200CE
:108340008D7302002D7402004D8B020091E4002019
:10835000ABE40020F8A2002010B50B4C0021204611
:10836000FEF7A8FF2046094C094A0A490FF02CFCE9
:10837000FF21204606F0FAFF2046054A0649BDE8DF
:1083800010400FF021BC00BF18D6002004D50020FB
:1083900090A10020BF72020075820200F0B57D4DF1
:1083A0007D4C7E4F01232B70237A022B85B040F049
:1083B00025817B4806F0EDFFA37A002B00F0AE800C
:1083C0003B78784F397800297ED153B1764B1B78B2
:1083D0003BB905F0ADFB754805F084FA744805F02B
:1083E00049FB04F005FD0646002851D0714B1B786F
:1083F000F3B9714A7149724813F02AFD7149704806
:1084000013F026FD70496E4813F022FD6C4812F0FF
:10841000F5FE6C496D4813F01BFD6B496B4813F07A
:1084200017FD64201DF084FB6948012113F01BF93E
:108430005B4806F0B1FF0390594806F0AFFF0123F7
:108440000721CDE9003102460399624813F00AF88A
:108450000446D8B9584A5949594813F0F9FC5E49BD
:10846000574813F0F5FC5849554813F0F1FC5448AF
:1084700012F0C4FE5849554813F0EAFC52495348DB
:1084800013F0E6FC64201DF053FB2C7005B0F0BD2A
:10849000012343483B7006F07CFF504B50481E8040
:1084A00041F288326368B3FBF2F34E4A13804E4BBD
:1084B0001E704E4B40F6C4121E700321334605B0A9
:1084C000BDE8F04013F0E5B953B1374B1B783BB929
:1084D00005F02EFB354805F005FA454805F0CAFAC7
:1084E000354A3649364813F0B3FC4249344813F054
:1084F000AFFC3549324813F0ABFC314812F07EFE38
:108500003C49324813F0A4FC2F49304813F0A0FC3A
:10851000642005B0BDE8F0401DF00ABB3B7853B1C4
:10852000214B1B783BB905F003FB204805F0DAF935
:10853000314805F09FFA002300931A46194618485F
:10854000B7EE000A06F048FE1A4B1B78002B7FF4AA
:108550006FAF01211E4813F086F8174A17491848D3
:1085600013F076FC1749164813F072FC16491448AC
:1085700013F06EFC124812F041FE1249134813F03A
:1085800067FC1149114813F063FC64201DF0D0FA18
:108590004EE700BF2DD60020F8A200200DD5002008
:1085A00004D500200CD5002058D80020092E070043
:1085B0001A2E07002CD60020352E0700392E070072
:1085C00070E300203F2E0700B8780700D4E30020B6
:1085D000ACE4002089E400204C2E070078D800206D
:1085E00051E400207AD80020A8D80020A9D8002083
:1085F000682E07007C2E0700902E07003B784BB1B9
:10860000A24B1E7836B905F093FAA14805F06AF935
:10861000A04B1E70A37A13B104F0EAFB20B99E4A66
:10862000002313609D4A13609D4813F02BF8002827
:1086300000F068819B4812F0AFFF002800F0138122
:108640000121242013F0B7FC974A9849984813F069
:10865000FFFB9849964813F0FBFB9749944813F0A9
:10866000F7FB934812F0CAFD9249944813F0F0FBCF
:108670009149924813F0ECFB64201DF059FA9048A0
:1086800005F0F8F98F4812F0BFFFB4F88C1080B2F3
:1086900004F022FA85498C4A0646854813F0D8FB37
:1086A000B4F88C208948039212F08AFF3346039A6B
:1086B000874900907E4813F0CBFB7F497C4813F03C
:1086C000C7FB7B4812F09AFDB4F88C207F480392D8
:1086D00012F076FF039A7E4900903346774813F0F4
:1086E000B7FB7549754813F0B3FB64201DF020FA01
:1086F000764812F065FFB0425DD3734A6B496C480F
:1087000013F0A6FB73496A4813F0A2FB6A49684854
:1087100013F09EFB664812F071FD6E49674813F036
:1087200097FB6549654813F093FB64201DF000FA40
:10873000694B1B78F3B95C4A5C495D4813F088FBD0
:1087400066495B4813F084FB5B49594813F080FB92
:10875000574812F053FD6149584813F079FB5649C8
:10876000564813F075FB64201DF0E2F95C480121C6
:1087700012F079FF01230722CDE9003259485A4A05
:1087800094F88C10022312F06DFE00287FF47EAE68
:10879000454A46492870464813F05AFB5349444815
:1087A00013F056FB4449424813F052FB404812F084
:1087B00025FD4E49A5E63146444812F003FF4FF42B
:1087C000FA701DF0B5F9404A3849394813F040FBBA
:1087D0003E4812F0F5FE46490246354813F038FB94
:1087E0003549334813F034FB314812F007FD374860
:1087F00012F0E6FE3E490246304813F029FB2E49AE
:108800002E4813F025FB64201DF092F93B786BB1E4
:108810001E4B1B7853B9374805F02CF936493748B9
:1088200032460FF0ADFF354805F024F9264A1F49BE
:108830001F4813F00DFB254812F0C2FE2C490246DA
:108840001B4813F005FB1C49194813F001FB18489D
:1088500012F0D4FC1D4812F0B3FE25490246174819
:1088600013F0F6FA5DE7104A10492870104813F02B
:10887000EFFA23490E4813F0EBFA0F490C4813F0B6
:10888000E7FA0B4812F0BAFC1D493AE658D8002026
:108890007C2A070001D500208CD8002088D8002031
:1088A000ADE4002094E40020352E0700392E0700A7
:1088B00070E300209C2E0700B8780700D4E3002066
:1088C000A82E0700AAE40020B62E070098E4002096
:1088D000BD2E0700F12E07002CD600203F2E0700EA
:1088E000ACE4002089E4002003A300204C2E070004
:1088F000212F0700382F07004A2F070013D500202B
:10890000532F07000121232013F055FB134A14496C
:10891000144813F09DFA1449124813F099FA1349B8
:10892000104813F095FA0F4812F068FC0E491048F1
:1089300013F08EFA0D490E4813F08AFA64201DF0E8
:10894000F7F80C4805F096F801230B4A94F88C10C0
:108950000A4812F032FD01232B7097E5352E0700EF
:10896000392E070070E30020712F0700B878070048
:10897000D4E30020A82E070003A30020AEE40020CB
:1089800070B5344BB0F90A201A80334B90F90C20A3
:108990001A70324B42781A70314A136801331360EF
:1089A000304B00221A7003780446E3B92E4A2F494F
:1089B0002F4813F04DFA2F492D4813F049FA2E494C
:1089C0002B4813F045FA2A4812F018FC29492B4885
:1089D00013F03EFA2849294813F03AFABDE87040EE
:1089E00064201DF0A5B8264A127A022A28D1022B4B
:1089F0000FD1244D027A4168234806232B700FF0D3
:108A000051F92B46FA220121BDE870401F4812F0AF
:108A100040BF154A1549164813F01AFA22781C4926
:108A2000134813F015FA1449114813F011FA1048BD
:108A300012F0E4FB22781649104813F009FAC9E74E
:108A4000144B1B7823B90F4B01211970FA22DBE775
:108A500070BD00BF10D5002012D500200FD500201A
:108A600028D600202DD60020812F0700392E0700A0
:108A700070E30020872F0700B8780700D4E30020B8
:108A8000F8A20020E0D40020E1D4002051E400202E
:108A90008F2F0700C0A1002070B50446002839D0F0
:108AA0001D4B1E4A1E491F4800251D7013F0D0F9AA
:108AB0002A461D491B4813F0CBF91C49194813F0ED
:108AC000C7F9184812F09AFB2A461749184813F0BC
:108AD000BFF91649164813F0BBF964201DF028F8B9
:108AE000144B1C60144B1B7A022B09D1134B072229
:108AF0001A70BDE870401248FA22012112F0C9BE76
:108B0000104B1B7833B9104A1368013313600B4BB9
:108B10000222EDE770BD00BF2DD60020352E0700E4
:108B2000392E070070E300209E2F0700B878070059
:108B3000D4E3002030D60020F8A20020E0D40020AA
:108B400051E40020C0A1002024D6002030B5504AB6
:108B50005049514D99B00446504813F079F92246D6
:108B60004F494E4813F074F94E494C4813F070F9D0
:108B70004A4812F043FB224649494B4813F068F932
:108B80004849494813F064F964201CF0D1FF297862
:108B900000297AD101231A2208A82B7007910FF01F
:108BA0008FF805A82BF096FB0598404C00F5E040A7
:108BB0000FA96E302BF002FC149B3D4903F26C733D
:108BC0000393129B0293139B013301930F9B00931A
:108BD00007A8DDE910320FF0D3FD2D4A2D492F48AB
:108BE00013F036F907AA33492C4813F031F92D490F
:108BF0002A4813F02DF9294812F000FB07AA2D4945
:108C0000294813F025F92749274813F021F9642052
:108C10001CF08EFF149B03F26C732380139B0133B3
:108C2000A370129B2371119B6371109BA3710F9B07
:108C3000E371214B1B7843B3154A1649174813F0CB
:108C400007F91E49154813F003F91649134813F0A4
:108C5000FFF8124812F0D2FA1849134813F0F8F846
:108C60001049114813F0F4F864201CF061FF02234E
:108C70002B70E3790193A379009363792279A1782A
:108C8000208805F059FD05F059FC19B030BD00BF32
:108C9000AD2F0700392E07002CD6002070E30020EE
:108CA000B22F0700B8780700D4E300202CDB0020A7
:108CB000C92F0700A84C070034DB0020EB2F07006A
:108CC00007B52C4A2C492D4813F0C2F82C492B48E3
:108CD00013F0BEF82B49294813F0BAF8274812F0D0
:108CE0008DFA2749284813F0B3F82649264813F08F
:108CF000AFF864201CF01CFF244A254801231370A0
:108D0000244A137012F071FB18B12348002112F0AD
:108D100036FB224812F0BAFC2149224812F0C8FB67
:108D20002149204812F0D4FB20491E4812F0C8FB0C
:108D30001F491C4812F0D4FB1E491A4812F0D8FBF8
:108D400000211D4812F012FC02211C4812F07CFC8C
:108D500032230122009311460A23124812F067FBC6
:108D6000174B997A01B10121222003B05DF804EB81
:108D700013F021B9352E0700392E070070E30020CB
:108D800001300700B8780700D4E30020C0A100201C
:108D9000C4E40020A1A10020AEE40020ADE4002046
:108DA0008189020089E40020998A02008D73020003
:108DB0002D7402004D8B020091E40020ABE40020F2
:108DC000F8A2002008B52B4A2B492C4813F040F894
:108DD0002B492A4813F03CF82A49284813F038F860
:108DE000264812F00BFA2649274813F031F8254996
:108DF000254813F02DF864201CF09AFE234B2448DC
:108E00000021197012F0BBFA224812F0F2FAD0B920
:108E1000184A1949194813F01BF81F49174813F04D
:108E200017F81849154813F013F8144812F0E6F92A
:108E30001949154813F00CF81249134813F008F8B3
:108E400064201CF075FE1549114812F0DFFA144930
:108E50000F4812F0E3FA4FF6FD710D4812F08FFA49
:108E6000104B997A01B10121BDE80840222013F08E
:108E7000A2B800BF352E0700392E070070E300208E
:108E800016300700B8780700D4E30020A1A1002025
:108E9000AEE40020C4E4002025300700DD730200AA
:108EA000B9730200F8A200202DE9F047012186B035
:108EB000222013F069F80121232013F065F8012125
:108EC000242013F061F80021222013F074F802230B
:108ED000B24806224FF4E13112F096F94FF0804388
:108EE000D3F83834032B40F048824FF4FA601CF07A
:108EF0001FFE42F210701CF01BFE0123022203AC85
:108F0000A7490093A748A84F00230FF039FCA549B3
:108F1000204612F017FE2146A44812F063FC2046BA
:108F200012F0CAFDA24812F0B7FE04F0A7FC387098
:108F300030B1A0499B480FF05AFC9A4804F0D2FC8B
:108F40000121232013F037F80021232013F033F8F8
:108F50000021242013F02FF83B78D3B9964A974983
:108F60008E4812F075FF96498C4812F071FF9549B2
:108F70008A4812F06DFF894812F040F990499248F2
:108F800012F066FF8F49904812F062FF64201CF0D7
:108F9000CFFD02F0C9FED0B9874A88497F4812F058
:108FA00057FF8A497D4812F053FF86497B4812F0EB
:108FB0004FFF7A4812F022F98449834812F048FFA3
:108FC0008049814812F044FF64201CF0B1FD02F09A
:108FD0003DFED0B9784A7949704812F039FF7C4992
:108FE0006E4812F035FF77496C4812F031FF6B483C
:108FF00012F004F97649744812F02AFF7149724858
:1090000012F026FF64201CF093FD02F035FED0B96B
:10901000694A6A49614812F01BFF6E495F4812F0C5
:1090200017FF68495D4812F013FF5C4812F0E6F83C
:109030006849654812F00CFF6249634812F008FF66
:1090400064201CF075FD02F02DFED0B95A4A5B4930
:10905000524812F0FDFE6049504812F0F9FE59499D
:109060004E4812F0F5FE4D4812F0C8F85A495648DD
:1090700012F0EEFE5349544812F0EAFE64201CF050
:1090800057FD03F027FBD0B94B4A4C49434812F037
:10909000DFFE5249414812F0DBFE4A493F4812F0D8
:1090A000D7FE3E4812F0AAF84C49474812F0D0FECD
:1090B0004449454812F0CCFE64201CF039FD00F014
:1090C000F1FDD0B93C4A3D49344812F0C1FE444953
:1090D000324812F0BDFE3B49304812F0B9FE2F482D
:1090E00012F08CF83E49384812F0B2FE3549364845
:1090F00012F0AEFE64201CF01BFD3A4D002000F083
:10910000ADFC2B7A032B40F05F812B4A2B4923487F
:1091100012F09EFE3449214812F09AFE29491F4858
:1091200012F096FE1D4812F069F82F49264812F0F9
:109130008FFE2449244812F08BFE64201CF0F8FCBA
:10914000012003F0EDFC05F023FA284B1A4A1B49D5
:109150001870002800F06681104812F079FE24494A
:109160000E4812F075FE17490C4812F071FE0B48BC
:1091700012F044F81E49144812F06AFE11491248D0
:1091800012F066FE64201CF0D3FC05F0D7F994E8D9
:1091900003002BF07EF802F0B1FD2BE070E300201D
:1091A0004730070013D500200DD50020F8E300203C
:1091B000CCE400207C2A0700352E0700392E07005A
:1091C0005D300700B8780700D4E300206B3007005B
:1091D00092300700C0300700EA300700183107005E
:1091E0003D310700F8A200205931070034DB002090
:1091F0008631070005F09CFB974E3070002840F048
:109200006181964A9649974812F022FE9649954800
:1092100012F01EFE9549934812F01AFE914811F083
:10922000EDFF9149924812F013FE9049904812F0D8
:109230000FFE64201CF07CFC2B7A012B00F0868151
:10924000022B00F08C813BB38A49864812F0ECFD7A
:109250003B780BB3884989480FF0C9FA8749204603
:1092600012F070FC00212246084604F07DFC2046E6
:1092700012F022FC824981480FF0B9FA7F4920465A
:1092800012F060FC22460021012004F06DFC204613
:1092900012F012FC04F082FC7A4804F0EBFB7A48EE
:1092A00012F07AF910B9794804F0E4FBFFF708FDF1
:1092B0004FF47A7376496A687048B2FBF3F20FF0A4
:1092C0005FFA6E4804F0D6FB724A7348012300210E
:1092D00012F0D5FA6A6822B100236F48194612F0DD
:1092E000D8FA6E4A6C480023012112F0C8FA002314
:1092F0006B4A6948022112F0C2FA6B7A33B16648B0
:1093000000234EF66022022112F0C3FA0123654ABF
:109310006148032112F0B3FA634B1B785BB15A48E2
:1093200012F03AF938B93223012200935F480A2338
:10933000114612F07CF8494A49494A4812F088FD22
:109340005B49484812F084FD4849464812F080FDC8
:10935000444811F053FF5649454812F079FD4349FE
:10936000434812F075FD64201CF0E2FB01215148D6
:1093700012F001FE06B0BDE8F08712F028FE394D6C
:1093800004464FF0000A41F287384FF000092846A2
:1093900011F01FFF00287FF4ACAD12F018FE061B81
:1093A0006AEB4A07B04579EB0703FFF6A2AD6420EC
:1093B0001CF0BEFB232012F003FEB0FA80F1490935
:1093C000232012F0F8FDE2E7AE7A244A244925482A
:1093D000CEB912F03DFD3849224812F039FD23493B
:1093E000204812F035FD1F4811F008FF324920488F
:1093F00012F02EFD1D491E4812F02AFD64201CF0BB
:1094000097FB00209DE612F023FD2C49154812F031
:109410001FFD1649134812F01BFD124811F0EEFE15
:109420002649E4E70F4812F013FD25490D4812F0D4
:109430000FFD0E490B4812F00BFD0A4811F0DEFE3D
:109440001F490B4812F004FD0849094812F000FDBD
:1094500064201CF06DFBCDE60ED50020352E0700F4
:10946000392E070070E3002090310700B87807001C
:10947000D4E30020D4310700F531070013D50020D4
:1094800007320700462B070094E40020173207003C
:10949000672B07009D83020051E40020A1740200A5
:1094A000F1DB0200C9D20200A1A1002089E4002062
:1094B00025320700E9E300206D310700593107002C
:1094C0008331070002F004FC05F0EAFA3070D0B9ED
:1094D000294A2A492A4812F0BBFC2A49284812F096
:1094E000B7FC2949264812F0B3FC254811F086FE46
:1094F0002449264812F0ACFC2349244812F0A8FC69
:1095000064201CF015FB1C4A1C491D48DFF898908C
:10951000DFF8988012F09CFC32781D491848002A28
:1095200014BF4A46424612F093FC1749144812F001
:109530008FFC134811F062FE327815491348002A57
:1095400014BF4A46424612F083FC6EE6FFF73AFC2F
:10955000104804F08FFA104804F08CFAA8E60F487F
:1095600004F088FA0E4812F017F810B90D4804F00C
:1095700081FAFEF797FE9BE6352E0700392E07008D
:1095800070E30020A1310700B8780700D4E3002081
:10959000B73107000B2B070025320700552B0700BA
:1095A00094E40020173207003C30070041300700E8
:1095B0007047000002481822002105F0FDBE00BFE0
:1095C00034D600202DE9F04F994C9A4DDFF87CA25B
:1095D000DFF87CB289B0204606F042F8204610EE53
:1095E000107A06F05CF820468DED050A06F076F854
:1095F000914A92498DED060A284612F029FC204630
:1096000006F02EF8204610EE108A06F029F83846AB
:1096100010EE106A48F008FD894B002248F05CFD0E
:1096200049F00AF807B2404648F0FEFC8046304652
:109630008946029748F0F8FC814B824E002248F0A0
:109640004BFD42464B46CDE900015146284612F0FB
:10965000FFFB3146284612F0FBFB284611F0CEFDF9
:10966000204605F0FDFF204610EE108A05F0F8FFB9
:1096700040468DED070A48F0D7FC079B02978046CD
:109680001846894648F0D0FC6D4B002248F024FD76
:109690004B464246CDE900015146584612F0D8FBF0
:1096A0003146584612F0D4FB64201CF041FA624A5D
:1096B0006249284612F0CCFB204605F0F0FF204618
:1096C00010EE107A05F0EBFF059810EE10AA48F0A6
:1096D000ABFC00225A4B48F0FFFC48F0ADFF03B250
:1096E0003846059348F0A0FC059B029380465046FF
:1096F000894648F099FC524B534FDFF858A100229D
:1097000048F0EAFC42464B46CDE90001394628467E
:1097100012F09EFB3146284612F09AFB284611F0C3
:109720006DFD204605F0BBFF204610EE108A05F0C7
:10973000B6FF40468DED070A48F076FC059B029384
:10974000079B80461846894648F06EFC3C4B002239
:1097500048F0C2FC4B464246CDE900013946584626
:1097600012F076FB3146584612F072FB64201CF072
:10977000DFF9314A3149284612F06AFB204605F0EC
:10978000ADFF204610EE108A05F0A8FF06988DED7B
:10979000050A48F049FC2A4B002248F09DFC48F09D
:1097A0004BFF07B2404648F03FFC804605980297C1
:1097B000894648F039FC224B002248F08DFC424695
:1097C0004B46CDE900015146284612F041FB314697
:1097D000284612F03DFB284611F010FD204605F00A
:1097E0007DFF204610EE105A05F078FF284610EE57
:1097F000108A48F019FC044640460D46029748F08E
:1098000013FC0F4B002248F067FC2246CDE9000113
:109810002B465146584612F01BFB3146584612F073
:1098200017FB642009B0BDE8F04F1CF081B900BF00
:1098300034D6002070E3002033320700392E0700B1
:1098400000408F40B87807004632070037320700E3
:10985000D4E300205532070007B573480DF1070126
:10986000312205F045FF9DF8073059061BD56F4A98
:109870006F49704812F0ECFA9DF807206E496D4868
:1098800012F0E6FA6D496B4812F0E2FA694811F0FD
:10989000B5FC69499DF80720694812F0D9FA674973
:1098A000674812F0D5FA64201CF042F99DF80730A1
:1098B0009A0617D55D4A5E495E4812F0C9FA6149B9
:1098C0005C4812F0C5FA5D495A4812F0C1FA59488D
:1098D00011F094FC5B495A4812F0BAFA57495848BB
:1098E00012F0B6FA64201CF023F99DF80730DB066D
:1098F00017D54E4A4E494F4812F0AAFA52494D48E0
:1099000012F0A6FA4D494B4812F0A2FA494811F05C
:1099100075FC4D494A4812F09BFA4849484812F0F4
:1099200097FA64201CF004F99DF80730180717D542
:109930003E4A3F493F4812F08BFA44493D4812F0F5
:1099400087FA3E493B4812F083FA3A4811F056FC38
:109950003E493B4812F07CFA3849394812F078FA0F
:1099600064201CF0E5F89DF80730590717D52F4AF9
:109970002F49304812F06CFA35492E4812F068FA37
:109980002E492C4812F064FA2A4811F037FC30496D
:109990002B4812F05DFA2949294812F059FA64203F
:1099A0001CF0C6F89DF807309A0717D51F4A2049C2
:1099B000204812F04DFA27491E4812F049FA1F4973
:1099C0001C4812F045FA1B4811F018FC21491C48AC
:1099D00012F03EFA19491A4812F03AFA64201CF0C3
:1099E000A7F89DF80730DB0717D5104A1049114832
:1099F00012F02EFA18490F4812F02AFA0F490D48B2
:109A000012F026FA0B4811F0F9FB13490C4812F03A
:109A10001FFA0A490A4812F01BFA64201CF088F861
:109A200003B05DF804FB00BF34D6002033320700DA
:109A3000392E070070E3002064320700B878070071
:109A4000D4E300207B32070082320700883207000F
:109A50008F320700953207009C32070073B5002152
:109A60000446112012F090FA5D4812F015F95D4B92
:109A70006CB300229A800A22DA804FF481721A8134
:109A800040F201125A81574805F0C2FE054620B344
:109A9000554A5649564812F0DBF95649544812F0D7
:109AA000D7F95549524812F0D3F9514811F0A6FBA5
:109AB0005049524812F0CCF94F49504812F0C8F9B9
:109AC00064201CF035F80024204602B070BD02224C
:109AD0009C80DC801A815C81D5E7002C38D02A225A
:109AE000302140488DF80720012605F0ABFC082204
:109AF00032213C488DF8072005F0A4FC3246332182
:109B000038488DF8076005F09DFC24220DF107010F
:109B1000344805F0EDFD9DF80720324822F00C0294
:109B200042F0080224218DF8072005F08BFC60220A
:109B300022212C488DF8072005F084FC2A46252197
:109B4000284805F07FFC27483246212105F07AFCA1
:109B5000002520220DF1070122488DF8075005F05D
:109B6000C7FD9DF807201F4842F0080220218DF80C
:109B7000072005F067FC64201BF0DAFF1E220DF1C0
:109B8000070118488DF8075005F0B2FD9DF8072031
:109B9000144842F090021E218DF8072005F052FC77
:109BA00064201BF0C5FF4CB1FFF756FE1449042298
:109BB000112011F0E1FAFFF705FD85E720220DF1F4
:109BC0000701084805F094FD9DF80720054802F0BC
:109BD000400220218DF80720012405F033FC73E7B3
:109BE000CCE4002034D6002033320700392E0700A1
:109BF00070E30020A2320700B8780700D4E3002009
:109C0000B195020010B50023012210F0010F01F1FF
:109C1000FF311CBF02FA01F4234340080029F4D1AC
:109C2000184610BD0D4810B5002148F205040B027E
:109C30009BB2082213F4004F02F1FF324FEA4303B4
:109C400018BF634012F0FF029BB2F3D10131B1F5AE
:109C5000807F20F8023BEAD110BD00BF48D600202B
:109C60002DE9F0410025DFF8388006460F462C46E6
:109C7000BD420DDA705D0821FFF7C4FF80EA1423AE
:109C8000DBB2013538F8133083EA0424A4B2EFE7DD
:109C900010212046FFF7B6FF80B2BDE8F08100BF7B
:109CA00048D6002008B50221092012F06DF90649B6
:109CB0000322092011F060FA0449054801236422B7
:109CC000FDF710FB012008BD51A20200F1A2020025
:109CD00018D600202DE9F04FAC4D8FB0CDE90C2304
:109CE00012F075F9D5E900BC0024B0EB0B0240F688
:109CF000B83064EB0C030021904271EB0303A246E1
:109D0000A146A0462746264665DB12F060F9D5E954
:109D10000023811A63EB430300910193DDE90023E3
:109D2000B2F5C87F73F1000360DA12F050F9D5E99B
:109D30000023811A63EB430302910393DDE90234AC
:109D4000B3F5C87F74F1000375DA12F040F9D5E974
:109D50000023811A63EB430304910593DDE9043486
:109D6000B3F5167F74F1000380F2888012F02FF9AA
:109D7000D5E90023811A63EB430306910793DDE9DC
:109D80000634B3F5487F74F1000380F29D8012F031
:109D90001EF9D5E90023811A63EB43030891099367
:109DA000DDE90834B3F5966F74F1000380F2AF80FB
:109DB00012F00DF9D5E90023811A63EB43030A91F0
:109DC0000B93DDE90A34B3F5AF6F74F1000380F251
:109DD000BF80072474E0092012F0F2F8002894D123
:109DE0006B4B1B78002B90D0022469E0684B1B78EA
:109DF000012B9AD1092012F0E3F8012895D14FF0F8
:109E0000000BC82C11D0092012F0DAF8012808BF85
:109E10000BF1010B4FF0010004F1010408BF5FFAE0
:109E20008BFBE4B21BF084FEEBE7BBF1C60F7FF6C1
:109E30007CAF002444E0564B1B78022B85D10920CF
:109E400012F0BEF8012880D10024BAF1C80F10D05A
:109E5000092012F0B5F8012808BF01344FF00100C5
:109E60000AF1010A08BFE4B25FFA8AFA1BF060FE49
:109E7000EBE7C62C7FF669AF012421E0444B1B7849
:109E8000032BDCB27FF472AF4FF0000AB9F1C80FB8
:109E900012D0092012F094F8012808BF0AF1010A33
:109EA0004FF0010009F1010908BF5FFA8AFA5FFA71
:109EB00089F91BF03DFEE9E7BAF1C60F7FF656AF10
:109EC00020460FB0BDE8F08F314B1B78042BDCB27D
:109ED0007FF45DAF4FF00009B8F1C80F12D0092030
:109EE00012F06EF8012808BF09F101094FF00100D6
:109EF00008F1010808BF5FFA89F95FFA88F81BF0DA
:109F000017FEE9E7B9F1C60F7FF641AFD8E7204B5E
:109F10001B78052BDCB27FF44BAF4FF00008C82F45
:109F200011D0092012F04CF8012808BF08F10108EF
:109F30004FF0010007F1010708BF5FFA88F8FFB290
:109F40001BF0F6FDEBE7B8F1C60F7FF631AFB7E7D0
:109F50000F4B1B78062BDCB27FF43BAF0025C82EDD
:109F60000FD0092012F02CF8012808BF01354FF05E
:109F7000010006F1010608BFEDB2F6B21BF0D8FDF4
:109F8000EDE7C62D7FF625AF9AE700BF50D8002039
:109F900059D8002073B58C4D8C4C2A7A237A9A427A
:109FA00030D003F0C5FD8A4803F09CFC6A68AB7AA8
:109FB000884862602A89A372228103F05BFD86488B
:109FC00003F058FD03F0EAFD01F07CFF40F6B830E5
:109FD0001BF0AEFD237A8148012B4FF000014FF0BA
:109FE000320640F0A08011F0CAF900227C480096A9
:109FF0000A23114611F01BFA7A4811F0FAF97A484F
:10A0000011F010FCAA7AA37A9A4206D02B7A022B7E
:10A010000CBF0120002002F083FD6A6863689A4249
:10A0200007D1AB68A268534023F07F4323F0FF03BE
:10A03000ABB103F07DFD674803F01CFD664803F0FB
:10A0400019FD03F0ABFD6B6863606B7A6372AB7AEA
:10A05000A37201F037FF40F6B8301BF069FD63488A
:10A0600011F010FB00286BD0614811F097FA614B9A
:10A070001978884205D000395D4818BF012111F0D8
:10A080008FFA5D4811F09CFA5C4B1978884202D037
:10A09000594811F097FA5A4811F0A4FA594B197817
:10A0A000884202D0564811F09FFA574D57482E78F3
:10A0B00011F0AAFA86420BD02978544811F0B0FA70
:10A0C00032230122009346480A23114611F0AFF9CA
:10A0D00003F02EFD237A012B6FD0022B6FD013B922
:10A0E0004B4803F0C7FC4FF47A7362684949B2FBEE
:10A0F000F3F249480EF044FB474803F0BBFC6268AA
:10A1000022B100234548194611F0C3FB637A002BA6
:10A1100057D0424800234EF66022022102B0BDE82B
:10A12000704011F0B6BB11F02AF9012200960A2303
:10A1300011462B4811F07BF92C4811F0A7FA5EE785
:10A14000374D3848296811F0D4F8364811F0CFF867
:10A150002968884202D0334811F0CBF8324811F018
:10A16000D7F8324B1978884202D02F4811F0D2F834
:10A170002F4D30482E7811F0DCF8864203D0297834
:10A180002C4811F0D8F82C4811F0E4F82B4B197832
:10A19000884202D0284811F0DFF8294811F0EDF884
:10A1A000284B1978884202D0254811F0F7F84FF66D
:10A1B000FD710A4811F0E3F88AE7234891E7234844
:10A1C0008FE702B070BD00BFCCA10020F8A2002034
:10A1D000C3320700CA320700DA320700AEE40020BB
:10A1E00089E40020C4E40020E8E30020ADE400207E
:10A1F00095E400205BD8002098E400205DD8002082
:10A20000A0E400205ED800205CD80020AAE4002052
:10A21000462B0700672B070013D5002051E40020D0
:10A2200068D80020B9E40020BAE400206CD80020EF
:10A2300063D80020BBE40020BCE4002064D80020E8
:10A24000BEE400206DD800200B2B0700552B070023
:10A25000F8B511F0BCFE1C4D1C4B1D4C0021C3E990
:10A26000000111F0B4FED5E90032C61A62EB4207D4
:10A27000C92E77F1000308DB11F0A9FE00236B6003
:10A28000237828600133DBB22370124A1249134845
:10A2900011F0DEFD22781249104811F0D9FD114964
:10A2A0000E4811F0D5FD0D4810F0A8FF22780C499A
:10A2B0000D4811F0CDFD0B490B4811F0C9FDBDE86B
:10A2C000F84064201BF034BC48D8002050D800204F
:10A2D00059D80020EB320700392E070070E3002028
:10A2E000EF320700B8780700D4E300200000000038
:10A2F000F7B5FFF7EFFC062800F2EC86DFE810F078
:10A300004206D4030700CC01DC00740035009B4BEF
:10A310009B4A00241C709B4B00200021C3E90001D4
:10A3200099499A4811F094FD9949984811F090FD87
:10A330009849964811F08CFD944810F05FFF9449BD
:10A34000954811F085FD9349934811F081FD6420F3
:10A350001BF0EEFB914B1B782BB1204603B0BDE800
:10A36000F04003F023BC0120F8E7844B00221A7070
:10A37000844B00200021C3E90001894B1B78002B8E
:10A3800000F0A886874C2378052B0DD1864B874893
:10A39000997A1022227001915B7A00938449854B4F
:10A3A00009781B7803F028FC754A7749774811F043
:10A3B0004FFD22788049754811F04AFD7549734870
:10A3C00011F046FD714810F019FF22787A49724861
:10A3D00011F03EFD6F49704811F03AFD642003B062
:10A3E000BDE8F0401BF0A4BB644B00221A70654B23
:10A3F00000200021C3E90001694B1B78002B51D0DC
:10A40000684C2378042B33D0052B41D08BB96B4893
:10A4100011F038F90128644B1FD1997A6848042259
:10A42000227001915B7A674900930978FF2303F05A
:10A43000E3FB534A5449554811F00AFD227862491A
:10A44000524811F005FD5349504811F001FD4F48A5
:10A4500010F0D4FE22785C49B9E7997A5B4805226E
:10A46000227001915B7A5A4900930978FF23DEE755
:10A4700007235848237011F0C7F84B4A937A019389
:10A48000537A00932278C3B2494948480978CEE705
:10A49000454B0E22997A227001915B7A00934E4BC4
:10A4A0001B78F1E703F044FB4C4803F01BFA03B0C0
:10A4B000BDE8F0401BF053BB304B00221A70314B0B
:10A4C00000200021C3E90001354B1B78002B00F070
:10A4D000D880344C2378062B23D8DFE813F007000C
:10A4E0001500360044008F00C000CA002E49032228
:10A4F0000B7A887A22700190497A00910233DBB29C
:10A500003749384809780AE0274B3748997A0022BA
:10A51000227001915B7A354900930978FF2303F09B
:10A520006BFB174A1849194811F092FC2278304900
:10A53000164811F08DFC1749144811F089FC134896
:10A5400010F05CFE22782A4941E7174A2949537ADC
:10A55000294883F001035372927ACDE90032FF2338
:10A5600009780222DBE7104B02221A729A7A0192D2
:10A570005B7A009303220423C2E700BF59D800206E
:10A58000EB32070050D80020392E070070E300207E
:10A59000FF320700B8780700D4E30020A4A400200D
:10A5A00058D800205AD80020CCA10020C4A10020F7
:10A5B000C8A100206DD8002009330700ADE40020B9
:10A5C00098A20020ACA200201A330700C4A20020E9
:10A5D000DCA20020AAE4002064D800202B3307006E
:10A5E0006CA200205CA20020E0A20020F4A20020C7
:10A5F00036330700C0A20020B0A200200A238348FF
:10A60000237011F001F8C0B20C280ED8DFE800F07A
:10A61000071B1B211B21211B1B1B1B1B21007C4B10
:10A6200000221A707B4B05221A707B4A7B4B917A71
:10A630001B780191527A00920A332278DBB2784972
:10A64000784809786BE7724B00221A70714B072229
:10A65000EAE76F4B00221A706E4B0A22E4E76E4B5A
:10A660000D22997A227001915B7A00936E4B1B78D0
:10A67000E5E7694B9A7A01925B7A00930622002300
:10A68000DDE703F055FA694803F02CF9684803B098
:10A69000BDE8F04011F0C6B8664B00221A70664B58
:10A6A00000240025C3E90045644B1B78002B00F013
:10A6B0008881634C2278102A2BD8DFE812F0110031
:10A6C0001D003E004900560087009400DF002A006C
:10A6D0000B011E0133014501550164012A0072017D
:10A6E0004D4B0222997A227001915B7A0093FF23ED
:10A6F0005449554809780AE0474B5448997A002252
:10A70000227001915B7A524900930978FF2303F08C
:10A7100073FA504A5049514811F09AFB2278504937
:10A720004E4811F095FB4F494C4811F091FB4B48B6
:10A7300010F064FD22784A4949E6374A937A83F05B
:10A74000010393720193537A00930222FF23CFE710
:10A75000314B4549454801221A729A7A01925B7A37
:10A760000093032309781A46D1E709232748237069
:10A7700010F04AFFC0B20C2814D8DFE800F0070739
:10A780000707070D1E07242424241E00384B00222F
:10A790001A70384B052204E0354B00221A70354BF5
:10A7A00004221A701C4A1D4B917A1B780191527A2F
:10A7B00000920A33DBB2227811E02D4B00221A708E
:10A7C0002C4B0622EDE72A4B0222E1E7124B0C222A
:10A7D000997A227001915B7A0093274B1B7810497C
:10A7E0001048097893E70C4B5A6842B142F20F7156
:10A7F0008A428ABFA2F51C520022103A5A609A7A05
:10A8000001925B7A00930622FF23E8E7AAE4002086
:10A8100062D8002060D80020CCA100205DD80020A4
:10A82000C8A10020C4A1002063D80020473307003E
:10A83000E8E3002059D8002050D8002058D8002044
:10A840005AD80020C0A20020B0A20020E0A2002020
:10A85000F4A20020EB320700392E070070E300203D
:10A8600057330700B87807006CA200205CA20020D4
:10A8700061D800205FD800206CD800206F4D2B7865
:10A8800033B3013BDBB26E4A6E496F482B7011F057
:10A89000DFFA2A786D496C4811F0DAFA6C496A4897
:10A8A00011F0D6FA684810F0A9FC2A78674969487F
:10A8B00011F0CEFA6649674811F0CAFA64201BF01D
:10A8C00037F9654B9A7A01925B7A00932B7872E79D
:10A8D0000C23D8E7614A62491378097899420BBF83
:10A8E000604B03F1FF331B78DBB213705A4A917A45
:10A8F0000191527A0092092271E75B4A5B49137811
:10A90000097899420BBF5A4B03F1FF331B78DBB236
:10A910001370514B9A7A01925B7A00934F4B0A2243
:10A920001B785CE7534A54491368A3F5C333A03B33
:10A930008B4298BF514B1360474B9A7A01925B7AD6
:10A9400000930B22FF234AE74D490B78062B1CBFCF
:10A9500003F1FF33DAB2404B0A70997A01915B7AC6
:10A96000009313460C223AE7464A13784BB1013B59
:10A97000DBB21370384A917A0191527A00920D221B
:10A980002DE70923F5E7404A117809B1481EC0B206
:10A990001070314A937A0193537A00930E22034642
:10A9A0001DE73A4A1378052B1ABF03F1FF33DBB2D8
:10A9B00016231370284A917A0191527A009210223C
:10A9C0000DE7334B1B78002B40F08483314B1B7811
:10A9D00013B9012003F0EAF8194A1A491A4811F08C
:10A9E00037FA2D49184811F033FA1949164811F071
:10A9F0002FFA154810F002FC2749164811F028FAE2
:10AA00001349144811F024FA64201BF091F8002136
:10AA1000224810F048FF224B012200201A70FDF757
:10AA2000BDFC204B5A68002A00F0548300231B48C9
:10AA3000194603B0BDE8F04010F02BBF5CD80020F1
:10AA4000EB320700392E070070E300204D3307007A
:10AA5000B8780700D4E30020CCA100205DD8002006
:10AA600061D800205FD800205ED8002062D8002086
:10AA700060D8002068D800207F47A1198047A1191D
:10AA80006CD8002063D8002064D800206DD8002046
:10AA90002DD60020A4A400206833070051E4002034
:10AAA00001D50020F8A20020AF4BB04DB04C0022E1
:10AAB0001A70B04B00210020C3E900012978002959
:10AAC00040F0F080AC4810F0EEFE0121AA4810F0F2
:10AAD000EAFEA948022110F0E6FEA84B1B7813B944
:10AAE000012003F063F80123A54A2B700023237093
:10AAF000A44B917A5068128958601A81A2489972C1
:10AB000010F0C0FD0546A14AA149A248002D48D039
:10AB100011F09EF9A0499F4811F09AF99F499D486C
:10AB200011F096F99B4810F069FB9B499C4811F085
:10AB30008FF99A499A4811F08BF964201AF0F8FFBE
:10AB4000984810F03DFD984B1870984810F05CFD47
:10AB5000974B1870974810F021FD974B1870974845
:10AB600010F040FD964B18700023CDE90033227899
:10AB700094499548097803F03FF8844A8449854808
:10AB800011F066F922789149824811F061F9834900
:10AB9000804811F05DF97F4810F030FB22788B4936
:10ABA00015E411F055F97C497A4811F051F97B49C7
:10ABB000784811F04DF9774810F020FB7649784835
:10ABC00011F046F97549764811F042F964201AF0FF
:10ABD000AFFF29467E487F4D10F0D1FB7E4810F034
:10ABE00086FB28607D4810F093FB7D4B18707D48F4
:10ABF00010F09FFB7C4B18707C4810F0ABFB7C4B3B
:10AC000018707C4810F0B9FB7B4B604A18706049A3
:10AC1000604811F01DF9286847F0F4F950A3D3E912
:10AC2000002347F083FB06466B480F4610F05FFB9E
:10AC300047F0E8F94AA3D3E9002347F077FB32460F
:10AC40003B46CDE900016D49524811F001F95349E5
:10AC5000504811F0FDF84F4810F0D0FA286847F03E
:10AC6000D1F93FA3D3E9002347F060FB06465A48D9
:10AC70000F4610F03CFB47F0C5F939A3D3E9002398
:10AC800047F054FB3246CDE900013B465B4944485E
:10AC900011F0DEF84149424811F0DAF864201AF068
:10ACA00047FF61E72378102B3FF667AF01A252F808
:10ACB00023F000BFF9AC02000BAD02001DAD020095
:10ACC00021AD02003BAD020059AD02006BAF0200A6
:10ACD00011AE02006BAE020087AE0200ABAE020006
:10ACE000CFAE0200F3AE020011AF02002FAF0200A0
:10ACF0007BAB02004DAF02000122224B2270997AF9
:10AD000001915B7A0093FF2322E01E4B0022997A87
:10AD1000227001915B7A0093FF2329E70622ECE77A
:10AD2000184B3749374800221A729A7A01925B7A97
:10AD300000930978022303221DE712491E4B887AEB
:10AD40001B78082222700190497A00910A33DBB205
:10AD50002D492E4809780EE70B22CEE7AFF300808D
:10AD60000000000084D7974159D8002058D800200F
:10AD70005AD8002050D8002051E40020A4A400207C
:10AD8000F8A20020CCA10020ADE40020EB320700A7
:10AD9000392E070070E300207E330700B8780700E3
:10ADA000D4E3002098E400205DD80020AAE400202D
:10ADB0005CD8002095E400205BD80020A0E40020AF
:10ADC0005ED80020F4A20020E0A20020A1330700FA
:10ADD000AEE4002068D80020B9E40020BAE40020E6
:10ADE0006CD80020BBE4002063D80020BCE4002025
:10ADF00064D80020BEE400206DD800209333070003
:10AE00006CA200205CA20020C8A10020C4A10020E8
:10AE10008A4D8B4A2B788B498B480C2B1ABF0133F8
:10AE2000DBB200232B7011F013F82A78874986488B
:10AE300011F00EF88649844811F00AF8824810F0A3
:10AE4000DDF92A788149834811F002F88049814868
:10AE500010F0FEFF64201AF06BFE7F4B9A7A01928D
:10AE60005B7A00932B78227872E77C4A1378B3FAE6
:10AE700083F35B091370784A917A0191527A0092B8
:10AE80000A33082264E7764A7649137809789942AA
:10AE90000BBF754B01331B78DBB213706E4A917A8E
:10AEA0000191527A0092092252E7704A7049137850
:10AEB000097899420BBF6F4B01331B78DBB21370DB
:10AEC000654A917A0191527A00920A2240E76A4AD1
:10AED0006A49136803F5C333A0338B4294BF1360F0
:10AEE00011605D4B9A7A01925B7A00930B22FF23EB
:10AEF0002EE7634A13780C2B1ABF0133DBB206230B
:10AF00001370554A917A0191527A00920C221FE7F0
:10AF10005C4A1378092B1ABF0133DBB2002313708C
:10AF20004D4A917A0191527A00920D2210E7564AC9
:10AF30001378032B1ABF0133DBB200231370464A88
:10AF4000917A0191527A00920E2201E74F4A1378CA
:10AF5000162B1ABF0133DBB2052313703E4A917AD8
:10AF60000191527A00921022F2E63B4A536803F5AF
:10AF70001C5310335360937A0193537A0093062243
:10AF80000023E5E6424B00221A70424B00200021CC
:10AF9000C3E90001404B1A78002A00F09B803F4C27
:10AFA0002278102A0ED8DFE802F00922222222227B
:10AFB00089303030303C3C3C3C0D3C0000221A7063
:10AFC000FEF7E8FF1E4A1F491F4810F041FF227894
:10AFD00033491D4810F03CFF1D491B4810F038FF55
:10AFE000194810F00BF922782D49FFF7F0B91A4BE8
:10AFF0002C48997A0022227001915B7A2A490093A9
:10B000000978FF2302F0F8FDDCE7134B2748997A13
:10B010000422227001915B7A254900930978FF236D
:10B02000F0E70D4B2348997A0522227001915B7A53
:10B03000214900930978FF23E4E700BF5CD8002092
:10B04000EB320700392E070070E300204D33070074
:10B05000B8780700D4E30020CCA100205BD8002002
:10B060005DD800205FD8002061D800205ED8002085
:10B0700060D8002062D8002068D8002000703839DD
:10B080006CD8002063D8002064D800206DD8002040
:10B0900059D8002050D8002058D800205AD8002075
:10B0A000B2330700E0A20020F4A2002098A2002002
:10B0B000ACA20020C4A20020DCA20020064B07485E
:10B0C000997A0222227001915B7A054900930978EE
:10B0D000FF2397E703B0F0BDCCA10020B0A2002071
:10B0E000C0A2002070B598B014460A490EA810F00E
:10B0F00029FD0023CDE91433CDE91633636E012B0E
:10B100000CD1054920680DF068FB48B1022400F01D
:10B11000EDBC00BFD449070039980700002BF5D1DA
:10B12000B649B748B74CB84DB84E10F091FEB84983
:10B13000B34810F08DFEB149B64810F089FEB4490D
:10B14000B44810F085FE64201AF0F2FC237AB2496C
:10B1500055F82320AA4810F07BFEAD49A84810F00E
:10B1600077FE237AAC4955F82320AA4810F070FEE8
:10B17000A749A84810F06CFE64201AF0D9FCA74932
:10B1800011A810F039FB11A90EA810F0EEFC11A8BF
:10B1900010F092FC0EA810F02BFD0E9AA0499848D2
:10B1A00010F056FE9A49964810F052FE0E9A9C49AD
:10B1B000984810F04DFE9649964810F049FE6420DC
:10B1C0001AF0B6FC974911A810F0F6FA119A9649B0
:10B1D0008B4810F03DFE11A810F06EFC8C49884899
:10B1E00010F036FE8F4911A810F0E6FA119A8E4938
:10B1F000884810F02DFE11A810F05EFC84498548A7
:10B2000010F026FE64201AF093FC4FF47A75626801
:10B210008649B2FBF5F27A4810F01AFE7C4978486C
:10B2200010F016FE62688149B2FBF5F2794810F021
:10B230000FFE7749774810F00BFE64201AF078FC77
:10B240007B4810F01FFA7B4956F8202005466C48D1
:10B2500010F0FEFD6E496A4810F0FAFD56F8252000
:10B2600074496C4810F0F4FD69496A4810F0F0FD2B
:10B2700064201AF05DFC012D40F04E836E486F4E45
:10B280006F4D10F089F96F49002814BF32462A46E5
:10B290005B4810F0DDFD5E49594810F0D9FD664865
:10B2A00010F07AF96749002814BF32462A465948F7
:10B2B000654E10F0CDFD5649564810F0C9FD64208A
:10B2C0001AF036FC614810F09FF9614905460246C4
:10B2D0004B4810F0BDFD4E49494810F0B9FD2A46D3
:10B2E0005B494C4810F0B4FD49494A4810F0B0FDA4
:10B2F00064201AF01DFC56F825205649404810F0ED
:10B30000A7FD43493E4810F0A3FD56F825205149BA
:10B31000404810F09DFD3E493E4810F099FD6420E4
:10B320001AF006FC4C4810F030F9002800F0BE81FD
:10B330004A49334810F08CFD3549314810F088FDFA
:10B340004649344810F084FD3149324810F080FD00
:10B3500064201AF0EDFB082214A9414810F0F4F81B
:10B360009DF8573005939DF8563004939DF855305D
:10B3700003939DF8543002939DF8533001939DF848
:10B3800052309DF85020374900931D489DF85130A8
:10B3900010F05EFD1E491A4810F05AFD9DF8573016
:10B3A00005939DF8563004939DF8553003939DF80E
:10B3B000543002939DF8533001939DF852309DF81C
:10B3C00050202849009313489DF8513010F040FD5B
:10B3D0000F49104810F03CFD64201AF0A9FB082228
:10B3E00014A9214810F08CF89DF8573005939DF86A
:10B3F000563004939DF8553038E000BF2D340700D7
:10B4000070E30020F8A20020C8A30020BCA3002005
:10B41000B8780700D4E300203C34070028E400207B
:10B420004A340700ECE300206D660700553407003E
:10B43000ADE400206534070094E40020AD750700FA
:10B440001F3407007534070088A30020AAE40020F9
:10B45000803407008B34070093E400209634070003
:10B460008EE40020A03407008AE4002003939DF8B6
:10B47000543002939DF8533001939DF852309DF85B
:10B4800050207D4900937D489DF8513010F0E0FC3C
:10B490007B497A4810F0DCFC9DF8573005939DF805
:10B4A000563004939DF8553003939DF85430029321
:10B4B0009DF8533001939DF852309DF850206E490D
:10B4C000009370489DF8513010F0C2FC6C496D48F3
:10B4D00010F0BEFC64201AF02BFB102214A96A485D
:10B4E00010F017F89DF85F300D939DF85E300C93C7
:10B4F0009DF85D300B939DF85C300A939DF85B30AE
:10B5000009939DF85A3008939DF8593007939DF898
:10B51000583006939DF8573005939DF856300493A4
:10B520009DF8553003939DF8543002939DF85330A5
:10B5300001939DF852309DF85020544900934F4894
:10B540009DF8513010F084FC4D494C4810F080FCBF
:10B550009DF85F300D939DF85E300C939DF85D3043
:10B560000B939DF85C300A939DF85B3009939DF82E
:10B570005A3008939DF8593007939DF85830069338
:10B580009DF8573005939DF8563004939DF855303B
:10B5900003939DF8543002939DF8533001939DF826
:10B5A000523000939DF850209DF85130374935486E
:10B5B00010F04EFC32493348354E364D10F048FC01
:10B5C00064201AF0B5FA34492C4810F041FC2C499B
:10B5D0002A4810F03DFC30492A4810F039FC28492F
:10B5E000284810F035FC64201AF0A2FA227A2B4980
:10B5F000224810F02DFC2249204810F029FC227A24
:10B600002649204810F024FC1D491E4810F020FC5B
:10B6100064201AF08DFA627A21491848002A14BF72
:10B6200032462A4610F014FC1549144810F010FC5C
:10B63000627A1B491348002A14BF32462A4610F08A
:10B6400007FC0F490F48174E10F002FC64201AF057
:10B650006FFA15481AF084FD0025B4F88C20EBB27F
:10B66000934205F1010580F23D8223443046D97AA8
:10B670001AF076FDF1E700BFC834070070E3002040
:10B68000B8780700D4E300208BE40020F0340700F2
:10B690002A340700E73207005136070061360700F9
:10B6A0006F360700F3B907008036070090499148CC
:10B6B00010F0CEFB90498F4810F0CAFB8C498F48A0
:10B6C00010F0C6FB8C498D4810F0C2FB64201AF0C4
:10B6D0002FFA14A910228A480FF024FF9DF85F303A
:10B6E0000D939DF85E300C939DF85D300B939DF8A3
:10B6F0005C300A939DF85B3009939DF85A300893AB
:10B700009DF8593007939DF8583006939DF85730AF
:10B7100005939DF8563004939DF8553003939DF89A
:10B72000543002939DF8533001939DF852309DF8A8
:10B730005020009373499DF851306E4810F088FBFB
:10B740006D496C4810F084FB9DF85F300D939DF8B7
:10B750005E300C939DF85D300B939DF85C300A933E
:10B760009DF85B3009939DF85A3008939DF8593045
:10B7700007939DF8583006939DF8573005939DF830
:10B78000563004939DF8553003939DF8543002933E
:10B790009DF8533001939DF852309DF8502000934E
:10B7A00058499DF85130554810F052FB52495348C2
:10B7B00010F04EFB64201AF0BBF914A91022524875
:10B7C0000FF0CBFE9DF85F300D939DF85E300C932B
:10B7D0009DF85D300B939DF85C300A939DF85B30CB
:10B7E00009939DF85A3008939DF8593007939DF8B6
:10B7F000583006939DF8573005939DF856300493C2
:10B800009DF8553003939DF8543002939DF85330C2
:10B8100001939DF852309DF8502000933B499DF8CC
:10B820005130344810F014FB3349324810F010FB0B
:10B830009DF85F300D939DF85E300C939DF85D3060
:10B840000B939DF85C300A939DF85B3009939DF84B
:10B850005A3008939DF8593007939DF85830069355
:10B860009DF8573005939DF8563004939DF8553058
:10B8700003939DF8543002939DF8533001939DF843
:10B8800052309DF85020009320499DF851301B48BC
:10B8900010F0DEFA1849194810F0DAFA64201AF0AC
:10B8A00047F914A904221A480FF045FE9DF85330B9
:10B8B00001939DF852309DF85020009315499DF852
:10B8C00051300C4810F0C4FA0B490A4810F0C0FA85
:10B8D0009DF8533001939DF8523000939DF850200D
:10B8E0009DF851300B49054810F0B2FA62E600BFEE
:10B8F0003835070070E30020B8780700D4E3002053
:10B900008CE400204135070090E400208A350700D0
:10B910008DE40020D33507007748002D40F09B8050
:10B920000FF0E5FC75490246754810F091FA75492B
:10B93000734810F08DFA70480FF0D9FC6F49024639
:10B94000714810F085FA6F496F4810F081FA642051
:10B950001AF0EEF86D480FF0DBFC6D4902466848BE
:10B9600010F076FA6749664810F072FA67480FF0EF
:10B97000CFFC67490246644810F06AFA61496248A0
:10B9800010F066FA64201AF0D3F862480FF0D1FC88
:10B99000614902465A4810F05BFA5A49584810F07B
:10B9A00057FA5C480FF0C5FC5B490246564810F058
:10B9B0004FFA5449544810F04BFA64201AF0B8F882
:10B9C00056480FF0C7FC564902464D4810F040FA61
:10B9D0004C494B4810F03CFA50480FF0BBFC504922
:10B9E0000246494810F034FA4649474810F030FA08
:10B9F00064201AF09DF84B480FF0BDFC4A490246FE
:10BA00003F4810F025FA3F493D4810F021FA4548DB
:10BA10000FF0B1FC444902463B4810F019FA39498D
:10BA2000394810F015FA64201AF082F83F480FF0F8
:10BA3000A4FC3F490246324810F00AFA3149304826
:10BA400010F006FA39480FF098FC394902462E48A2
:10BA500010F0FEF9AEE50FF04AFC284902462848EE
:10BA600010F0F6F92749264810F0F2F922480FF0B5
:10BA70003EFC22490246244810F0EAF921492248B6
:10BA800010F0E6F964201AF053F82A480FF0A9FCE8
:10BA9000294902461A4810F0DBF91A49184810F0F3
:10BAA000D7F924480FF09DFC23490246164810F0B0
:10BAB000CFF91449144810F0CBF964201AF038F883
:10BAC0001E480FF090FC1E4902460D4810F0C0F9C8
:10BAD0000C490B4810F0BCF918480FF084FC1849C9
:10BAE0000246B4E707481AF03BFB00240EA80FF00B
:10BAF000E3FF204618B070BDB9E40020EC35070024
:10BB000070E30020B8780700D4E30020BAE40020F6
:10BB1000FB350700BBE4002003360700BCE400202F
:10BB20000B360700BDE4002013360700BEE40020FA
:10BB300028360700C2E4002036360700C3E40020A0
:10BB4000433607002DE9FF41536E012B0D46144685
:10BB500024D1394910680CF040FE044620B102247B
:10BB6000204604B0BDE8F08102F0E8FC29463348E5
:10BB700010F03AF93249314810F024F9314A32498B
:10BB8000D3790393937902935379019313790093B3
:10BB900093782A48128810F05BF9E1E7052BDED193
:10BBA000161F02F1100756F8045F28460CF027FE16
:10BBB0002B462844984205D013F8012B303A092A25
:10BBC000F8D9CCE7BE42EED10022114620680CF035
:10BBD00083FF40F2D233A0F2E6729A420546BED805
:10BBE0000022606811460CF077FF431E0B2B0646BF
:10BBF000B5D80022A06811460CF06EFF431E1E2B24
:10BC00000746ACD80022E06811460CF065FF182802
:10BC10008046A4D80022206911460CF05DFF3B2825
:10BC20009DD8C2B200925FFA88F3FAB2F1B2A8B21C
:10BC300002F03EFC002493E73998070070E30020EF
:10BC4000F34C07002CDB00209136070007B50323D7
:10BC50000193054B0093054B054A064819460FF022
:10BC6000ECFD03B05DF804FB6DC10200AC360700CB
:10BC7000B43607004EE4002007B503230193054BBB
:10BC80000093054B054A064819460FF0D6FD03B050
:10BC90005DF804FB35C30200073707000C370700C7
:10BCA0004EE4002007B503230193054B0093054B99
:10BCB000054A064819460FF0C0FD03B05DF804FBC5
:10BCC00089C50200573707005C3707004EE40020A3
:10BCD00007B503230193054B0093054B054A06481E
:10BCE00019460FF0AAFD03B05DF804FB55BD020034
:10BCF00083370700883707004EE4002007B5032389
:10BD00000193054B0093054B054A064819460FF071
:10BD100094FD03B05DF804FB45BB02009E370700AD
:10BD2000A23707004EE4002007B502230193054B1C
:10BD30000093054B054A064819460FF07EFD03B0F7
:10BD40005DF804FBE5B00200C9370700D0370700F3
:10BD50004EE400204B4B1B7870B5E3B94A4A4B497F
:10BD60004B4810F075F84B49494810F071F84A49B2
:10BD7000474810F06DF846480FF040FA45494748EB
:10BD800010F066F84449454810F062F8642019F054
:10BD9000CFFE02244EE0556E012DFAD116684049BF
:10BDA00030460CF01AFD0446002845D13A4938487F
:10BDB00010F04EF83849364810F04AF836493748FE
:10BDC00010F046F83449354810F042F8642019F074
:10BDD000AFFE214633480FF066FD294631480FF08B
:10BDE00062FD02212F480FF05EFD01F0A1FE2E48FA
:10BDF00001F078FD2D4801F03DFE2D4801F03AFE9E
:10BE000001F0CCFE03F038F92349214810F020F866
:10BE100021491F4810F01CF81F49204810F018F85D
:10BE20001D491E4810F014F8642019F081FE2148C5
:10BE30000FF0F8FC204670BD1F4930460CF0CDFCD9
:10BE400004460028A5D11D4B014616481D700FF071
:10BE50002AFD294613480FF026FD022111480FF054
:10BE600022FD01F065FE104801F03CFD144801F090
:10BE700001FE0F4801F0FEFD01F090FE02F096FD7C
:10BE8000D5E700BF0ED50020E7370700392E0700A1
:10BE900070E30020EE370700B8780700D4E30020F5
:10BEA0003998070051E40020C33207000238070028
:10BEB000DA320700E8E30020397E070058D8002076
:10BEC0001238070030B5974CE7B060680B21FDF7DA
:10BED000C7FE954A9549054695480FF0B9FF2A4691
:10BEE000944993480FF0B4FF934991480FF0B0FF85
:10BEF0008F480FF083F92A468E4990480FF0A8FF2B
:10BF00008D498E480FF0A4FF642019F011FE8C4972
:10BF1000902201A80BF0C6FE6268ADF80450B4F898
:10BF20008C5002922289A37AADF80C2004F10B0107
:10BF30002A460DF10F008DF80E300BF0B3FE7A4A51
:10BF40007A497B48ADF890500FF082FF029A7D4904
:10BF500077487D4D7D4C0FF07BFF774974480FF09B
:10BF600077FF73480FF04AF9029A764973480FF049
:10BF70006FFF714971480FF06BFF642019F0D8FD15
:10BF8000694A6A496A480FF063FF9DF80C207049BE
:10BF900067480FF05DFF684965480FF059FF644836
:10BFA0000FF02CF99DF80C20694964480FF050FF00
:10BFB000614962480FF04CFF642019F0B9FD5A4AFC
:10BFC0005A495B480FF044FF9DF80D2061495848DD
:10BFD000002A14BF2A4622460FF03AFF5649544819
:10BFE0000FF036FF52480FF009F99DF80D2059491E
:10BFF0005248002A14BF2A4622460FF029FF4E4914
:10C000004E480FF025FF642019F092FD464A47493B
:10C0100047480FF01DFF9DF80E204F494448002A65
:10C0200014BF2A4622460FF013FF434940480FF041
:10C030000FFF3F480FF0E2F89DF80E2046493F48B9
:10C04000002A14BF2A4622460FF002FF3A493B4815
:10C05000424D0FF0FDFE0024642019F069FDFE2220
:10C06000214626A825940BF02BFEBDF89030E0B2B7
:10C07000984204F1010409DA01AB03442946DA7A53
:10C0800025AB03EB40000CF07BFBEEE7264A27498B
:10C0900027480FF0DDFE25AA314925480FF0D8FECC
:10C0A000254923480FF0D4FE21480FF0A7F825AA10
:10C0B0002B4922480FF0CCFE1F4920480FF0C8FE44
:10C0C000642019F035FD184A184919480FF0C0FED0
:10C0D000BDF89020234916480FF0BAFE16491448BF
:10C0E0000FF0B6FE12480FF089F8BDF890201D49F8
:10C0F00012480FF0ADFE104910480FF0A9FE642061
:10C1000019F016FD1848902301AA00210FF0ADFB8D
:10C1100028B901469023144801AA0FF0A6FB67B086
:10C1200030BD00BFF8A20020E7370700392E070016
:10C1300070E3002026380700B8780700D4E3002019
:10C140003C3B07003A3807002A3407002238070032
:10C15000583807006E38070087380700F3B9070022
:10C16000A1380700BA3807004FE40020F8B5536E35
:10C17000012B0E4615466AD1614910680CF02DFB63
:10C180000446F8B95F4F60497B68604832464FF417
:10C190007A75B3FBF5F30FF05BFE5D495B480FF07A
:10C1A00057FE7B685849B3FBF5F3324659480FF008
:10C1B0004FFE574957480FF04BFE642019F0B8FC6A
:10C1C0002046F8BD544A554950480FF041FE2A68B0
:10C1D00053494E480FF03CFE4D494C480FF038FE95
:10C1E0004A480FF00BF82A684D494A480FF030FED4
:10C1F000474948480FF02CFE642019F099FC2D683F
:10C2000028460CF0FCFA0024844224D02B5D303BFD
:10C21000092B1ED9404A41493C480FF019FE2246DD
:10C2200040493A480FF014FE394938480FF010FEE3
:10C2300036480EF0E3FF3B49364822460FF008FE31
:10C24000334934480FF004FE642019F071FC0224D5
:10C25000B6E70134D8E70A22002128460CF03CFC5E
:10C260002D4A2E49274D044628480FF0F1FD22465D
:10C270002D4926480FF0ECFD254924480FF0E8FD34
:10C2800022480EF0BBFF2246274922480FF0E0FD6E
:10C290001F4920480FF0DCFD642019F049FC4FF4E1
:10C2A0007A701D4A1D49444318486C600FF0D0FD58
:10C2B0006A681E4915480FF0CBFD154913480FF069
:10C2C000C7FD12480EF09AFF6A68184911480FF02E
:10C2D000BFFD0F490F480FF0BBFD642019F028FC8B
:10C2E000134800210FF0DFFA6A6822B100231048DA
:10C2F00019460FF0CEFAFFF7E5FD002460E700BF16
:10C3000039980700F8A20020D738070070E3002012
:10C31000B8780700D4E30020E7370700392E07007C
:10C32000DE380700F3380700023907001939070023
:10C3300051E40020536E012B70B50E46154601D016
:10C3400002241DE0814910680CF047FA0446C8B980
:10C350007F4D80492B7A804832460FF079FD7F4926
:10C360007D480FF075FD2B7A7A497D4832460FF0F3
:10C370006FFD7A497A480FF06BFD642019F0D8FB05
:10C38000204670BD774A784973480FF061FD2A68EE
:10C39000764971480FF05CFD70496F480FF058FD09
:10C3A0006D480EF02BFF2A6870496D480FF050FD64
:10C3B0006A496B480FF04CFD642019F0B9FB2D68F9
:10C3C00028460CF01CFA0024844223D02B5D303B1D
:10C3D000092B1DD9634A64495F480FF039FD224695
:10C3E00063495D480FF034FD5C495B480FF030FD58
:10C3F00059480EF003FF22465D4959480FF028FDC9
:10C40000564957480FF024FD642019F091FB97E737
:10C410000134D9E70A22002128460CF05DFB4C4E7E
:10C42000504A5149347A05464B480FF011FD2A46CF
:10C43000504949480FF00CFD484947480FF008FDA6
:10C4400045480EF0DBFE2A464A4945480FF000FDFC
:10C45000424943480FF0FCFC642019F069FB022DAF
:10C460003FF66EAFA54201D1002489E71CB9012D2A
:10C4700004D001241EE0012CFBD1DDB9394A3A4930
:10C4800035480FF0E5FC3C4933480FF0E1FC3349F7
:10C4900031480FF0DDFC30480EF0B0FE3649304830
:10C4A0000FF0D6FC2D492E480FF0D2FC642019F075
:10C4B0003FFB00242B4A2C49274835720FF0C8FC5B
:10C4C000327A2E4924480FF0C3FC244922480FF049
:10C4D000BFFC21480EF092FE327A284920480FF026
:10C4E000B7FC1E491E480FF0B3FC642019F020FB76
:10C4F000FFF7E8FC337A012B21D0022B22D00BB9B5
:10C50000FCF7DEFB002CAFD01D4913480FF0A0FC58
:10C51000124911480FF09CFC194911480FF098FC82
:10C520000E490F480FF094FC642019F001FB41F212
:10C53000883019F0FDFA13480FF074F994E7FCF70E
:10C5400041FCDFE7FBF7AEFEDCE700BF39980700F0
:10C55000F8A200202A39070070E30020B87807000D
:10C56000D4E30020E7370700392E0700DE38070044
:10C57000F338070030390700433907005D390700F9
:10C580006F390700E8E30020536E012B2DE9F041DD
:10C590000E4615467ED1D2F800804249424F4046B1
:10C5A0000CF01BF9044688BBB7F88C30BBB9324697
:10C5B0003E493F480FF04CFC3E493D480FF048FCD7
:10C5C0003A493D4832460FF043FC3A493A480FF0A9
:10C5D0003FFC642019F0ACFA2046BDE8F0813146FA
:10C5E0003648374E19F0BCFD2546B7F88C20EBB223
:10C5F000934205F1010505DA3B443046D97A19F03A
:10C60000AFFDF2E72B4819F0ABFDE5E740460CF033
:10C61000F6F82C4A2C49064625480FF019FC2A68E2
:10C620002A4923480FF014FC224921480FF010FC3E
:10C630001F480EF0E3FD2A6824491F480FF008FC4C
:10C640001C491D480FF004FC642019F071FA286899
:10C6500007F10B02314614F09DF80446E0B1194A87
:10C66000194913480FF0F4FB194911480FF0F0FB7A
:10C6700010490F480FF0ECFB0D480EF0BFFD1449B8
:10C680000D480FF0E5FB0B490B480FF0E1FB642070
:10C6900019F04EFA02249FE77608A7F88C60FFF79E
:10C6A00011FC99E739980700F8A200208C3907009F
:10C6B00070E30020B8780700D4E300209839070021
:10C6C000F3B90700E7370700392E0700DE38070007
:10C6D0009C390700F0B5484C2378E7B01BB9FDF74B
:10C6E000A1FA012323704549902201A80BF0DAFA40
:10C6F00001AA0021424890230FF0ADF80546414AB7
:10C7000041494248C5B90FF0A3FB41493F480FF0EA
:10C710009FFB40493D480FF09BFB3C480EF06EFDEF
:10C720003B493D480FF094FB3A493B480FF090FBE2
:10C73000642019F0FDF95AE00FF08AFBBDF80420DF
:10C7400036493248364C0FF083FB32492F480FF000
:10C750007FFB2E480EF052FDBDF804202F492E48D5
:10C760000FF076FB2B492C480FF072FB642019F078
:10C77000DFF9BDF804204FF6FF739A423AD00298D1
:10C780000B21FDF76DFABDF80430834206464BD00D
:10C790001C4A1D491D480FF05BFBBDF804302149C0
:10C7A0001A4832460FF054FB1A4918480FF050FB54
:10C7B00016480EF023FDBDF804301A4916483246DB
:10C7C0000FF046FB134914480FF042FB642019F0A8
:10C7D000AFF900254FF08073C4E9015340F20233F2
:10C7E000A3810423A373A4F88C30FFF76BFB2846C6
:10C7F00067B0F0BD0026CBE76ED800203C3B0700B9
:10C800004FE40020E7370700392E070070E30020CF
:10C81000B5390700B8780700D4E30020E1390700F4
:10C82000F8A20020EF390700029B63609DF80C30EE
:10C83000022B40F2EF80974A974998480FF008FB87
:10C840009DF80C20964995480FF002FB95499348B6
:10C850000FF0FEFA91480EF0D1FC9DF80C209049A3
:10C8600091480FF0F5FA8F498F480FF0F1FA6420E4
:10C8700019F05EF900232372FFF724FBBDF8902026
:10C880009DF80D306372802A9DF80E30A37240F23D
:10C89000C380804A804981480FF0DAFABDF89020C1
:10C8A00082497E480FF0D4FA7E497C480FF0D0FAD6
:10C8B0007A480EF0A3FCBDF890207C497A480FF02E
:10C8C000C7FA784978480FF0C3FA642019F030F9B4
:10C8D0000023E372A4F88C306E4A6F496F48744F9E
:10C8E000744E0FF0B5FA626873496C480FF0B0FAF5
:10C8F0006C496A480FF0ACFA68480EF07FFC626839
:10C900006D4969480FF0A4FA664967480FF0A0FA2C
:10C91000642019F00DF95F4A5F4960480FF098FAFA
:10C92000227A66495D480FF093FA5E495B480FF042
:10C930008FFA5A480EF062FC227A60495A480FF08A
:10C9400087FA584958480FF083FA642019F0F0F834
:10C95000504A514951480FF07BFA627A58494F4882
:10C96000002A14BF3A4632460FF072FA4D494B483E
:10C970000FF06EFA49480EF041FC627A50494A487D
:10C98000002A14BF3A4632460FF062FA454946483B
:10C990000FF05EFA642019F0CBF83E4A3E493F485A
:10C9A0000FF056FAA27A47493C48002A14BF3A468B
:10C9B00032460FF04DFA3B4938480FF049FA3748F4
:10C9C0000EF01CFCA27A3F493748002A14BF3A46B1
:10C9D00032460FF03DFA334933483B4F0FF038FAF7
:10C9E0000026642019F0A4F8FE22314626A82596D8
:10C9F0000BF066F9B4F88C30F0B2984206F10106FB
:10CA000012DA23183946DA7A25AB03EB40000BF033
:10CA1000B7FEEFE7237231E70DF10F012B48A4F8C1
:10CA20008C200BF03FF957E71A4A1B491B480FF0BF
:10CA30000FFA25AA264919480FF00AFA194917488A
:10CA40000FF006FA15480EF0D9FB25AA2049164822
:10CA50000FF0FEF9134914480FF0FAF9642019F0A9
:10CA600067F80C4A0C490D480FF0F2F9B4F88C2025
:10CA700018490A480FF0ECF90A4908480FF0E8F99C
:10CA800006480EF0BBFBB4F88C20124906480FF0A4
:10CA9000DFF949E6E7370700392E070070E3002089
:10CAA000123A0700B8780700D4E300202D3A0700B7
:10CAB0002A34070022380700493A0700613A070084
:10CAC000743A07008A3A0700F3B9070003A300206D
:10CAD000A13A0700B23A070010B5074B53F82020DF
