:020000022000DC
:107000000000042061B8030089B803008BB80300B6
:107010008DB803008FB8030091B803000000000092
:1070200000000000000000000000000093B8030012
:1070300095B8030000000000000000000000000000
:1070400025A7050097B80300A5C50500FDAC050000
:1070500097B8030065A305003DA10500558906000A
:1070600097B803003DAC050051AC050097B803008C
:1070700097B8030097B8030097B8030097B80300C8
:10708000599606003D79050097B8030097B80300AC
:1070900097B8030097B80300DD7F060097B8030098
:1070A00097B8030097B8030065AC050079AC0500FC
:1070B00097B8030097B8030000000000000000002C
:1070C00097B8030097B8030097B80300918E0600A5
:1070D00055A9050097B8030097B80300B5C205008D
:1070E0002DC3060097B803006DEA060000000000FB
:1070F0000000000097B80300000000006192060045
:10710000000000000000000000000000000000007F
:10711000000000000000000000000000000000006F
:10712000000000000000000000000000000000005F
:10713000000000000000000000000000000000004F
:10714000000000000000000000000000000000003F
:10715000000000000000000000000000000000002F
:10716000000000000000000000000000000000001F
:10717000000000000000000000000000000000000F
:1071800000000000000000000000000000000000FF
:1071900000000000000000000000000000000000EF
:1071A00000000000000000000000000000000000DF
:1071B00000000000000000000000000000000000CF
:1071C00000000000000000000000000000000000BF
:1071D00000000000000000000000000000000000AF
:1071E000000000000000000000000000000000009F
:1071F000000000000000000000000000000000008F
:1072000010B5054C237833B9044B13B10448AFF3E0
:1072100000800123237010BD60D500200000000015
:10722000C833080008B5034B1BB103490348AFF34B
:10723000008008BD0000000064D50020C8330800AD
:10724000154B002B08BF134B9D46A3F5803A002138
:107250008B460F461348144A121A11F061FF0F4B68
:10726000002B00D098470E4B002B00D098470020F1
:10727000002104000D000D48002802D00C48AFF397
:10728000008011F0FDFE2000290011F083FC11F0B8
:10729000E3FE00BF00000800000004200000000022
:1072A0000000000060D500203CC501200000000067
:1072B000000000000022C0E900220172704738B5CA
:1072C0000446006820B1856914F000FA2846F9E701
:1072D000204638BD006820B143688B4201D08069E8
:1072E000F9E77047F8B504460F4616461D46FFF706
:1072F000F1FF20B10123826005704370F8BD1C20AE
:1073000014F0E8F9012343700023C0E90333C0E916
:10731000053323680570C0E9017613B92060606009
:10732000ECE763689861FAE72DE9F8430468164FC3
:1073300005460E464FF000081CB363680BB9A469FC
:10734000FAE72378002BFAD0E368A268F31A9A428E
:1073500002D961780029F2D09B1A636184F8018018
:10736000E66016F0FBF863688146984716F0F6F879
:107370003B68A0EB0900206118442B7A3860002B91
:10738000DDD0BDE8F88300BF7CD5002008B5074BF1
:1073900050B103221A700648FA22012115F03BFD74
:1073A000044B00221A7008BD0522F3E780D50020A7
:1073B00011E30020CDD60020054B064800221A70AC
:1073C000054B08221A700121FA2215F024BD00BFD6
:1073D000CDD6002011E3002080D5002084B004AB7E
:1073E00003E907000B4BBDF90A201A800A4B9DF9EF
:1073F0000C201A70094A0A48136801331360094BBC
:1074000000221A70084B0121FA22197004B015F0FD
:1074100002BD00BFB2D50020B4D50020C8D60020E0
:1074200011E30020CDD6002080D50020134B002290
:107430001A70134B5B7A023B012B1DD9114B90F94B
:1074400006201A70104BB0F904201A800F4A0378F6
:1074500013700F4A417811700E4A817811701BB178
:107460000D4A1368013313600C4B0D4804221A7047
:107470000121FA2215F0CFBC704700BFCDD6002005
:1074800004A30020B4D50020B2D50020B7D6002038
:10749000B5D60020B6D60020C4D6002080D5002066
:1074A00011E3002010B5044609F09EF9204610BDF6
:1074B00008B5064B1B783BB116F04BF8BDE8084009
:1074C00001460348FFF730BF08BD00BFF9D60020D2
:1074D000B8D600201F4B07B501221F481A7015F0BF
:1074E00046FA18B11D48002115F00BFA1C4815F09A
:1074F0008FFB1C491C4815F09DFA1C491A4815F0D1
:10750000A9FA1B49184815F09DFA1A49164815F0B2
:10751000A9FA1949144815F0ADFA0021174815F0D9
:10752000E7FA0021164815F051FB3223012200939F
:107530000D480A23114615F03CFA124BDB7A33B1A1
:107540000121222003B05DF804EB15F0F6BF03B073
:107550005DF804FBA1A1002084E300206EE300207D
:107560006DE300208193020049E30020859402002E
:107570008D7302002D7402003195020051E300204A
:107580006BE3002004A3002010B50B4C0021204623
:10759000FFF790FE2046094C094A0A4911F044FDC4
:1075A000FF21204609F014F92046054A0649BDE8A6
:1075B000104011F039BD00BFB8D60020A4D500207E
:1075C00090A10020BF720200A57402002DE9F043D3
:1075D000964D974E974CDFF8CC82012700232F70F1
:1075E0003370637A023BBB4285B000F20582924859
:1075F00009F001F9E37A002B00F081818F4A98F8B5
:10760000003011789146002940F04E817BB18C4BBF
:107610001B7863B907F0F2F9637A022B0CBF894833
:107620008948394607F0A8FE884807F089F906F02E
:1076300017FC002858D0864B1B78F3B9854A864939
:10764000864815F0C7FE8649844815F0C3FE854973
:10765000824815F0BFFE814815F092F880498248B3
:1076600015F0B8FE7F49804815F0B4FE64201FF085
:1076700027FD7E48012115F0B8FAB4F88E0006F017
:10768000DBF970B36C4809F0B9F803906A4809F067
:10769000B7F801240246CDE9004403997448234613
:1076A00015F0A2F90746E0B96A4A6B496B4815F034
:1076B00091FE7049694815F08DFE6A49674815F0DA
:1076C00089FE664815F05CF86A49674815F082FE45
:1076D0006449654815F07EFE64201FF0F1FC2F70B0
:1076E000347005B0BDE8F083634A117809BB634B81
:1076F0001B7803F0FF07E3B901234F4889F80030F6
:1077000009F079F85E4B5F481F8041F28832636868
:10771000B3FBF2F35C4A13805C4B1F705C4B40F68A
:10772000C4121F7003213B4605B0BDE8F04315F0BD
:1077300072BB0023137098F800304BB1404B1B789C
:1077400033B95449544812F082FA534807F0F8F814
:10775000637A032B5FD1514B37481B6800221BB261
:10776000114608F085FF3A4B1B78F3B94C4A3A4969
:107770003A4815F02FFE3A49384815F02BFE3949A2
:10778000364815F027FE354814F0FAFF34493648DC
:1077900015F020FE3349344815F01CFE64201FF01C
:1077A0008FFC3248012115F020FAB4F88E0006F063
:1077B00043F9002895D0204809F020F803901E488E
:1077C00009F01EF801240246CDE900440399284837
:1077D000234615F009F9002840F00281304A28704C
:1077E0001D491E4815F0F6FD22491C4815F0F2FD12
:1077F0001C491A4815F0EEFD184814F0C1FF1D4948
:10780000194815F0E7FD1749174815F0E3FD642006
:107810001FF056FC64E700230093B7EE000A1A46F7
:107820001946054808F058FE9DE700BFCDD6002058
:10783000D8A3002004A30020A4D50020ACD50020AC
:10784000F8D600200840070018400700294007002C
:10785000CCD60020444007004840070030E200201A
:107860004E4007001891070094E200206CE30020CE
:1078700049E300205B400700A2D5002081D500200D
:1078800018D7002011E300201AD7002048D7002085
:1078900049D7002077400700B5D50020C8D6002082
:1078A0008D400700AED500205BB1A04B1B7843B9DB
:1078B00007F0A4F89E48394607F05EFD9D4807F0A2
:1078C0003FF89D4A9D499E4815F084FD9D499C487E
:1078D00015F080FD9C499A4815F07CFD984814F0FD
:1078E0004FFF9849994815F075FD9749974815F04D
:1078F00071FD642005B0BDE8F0431FF0E1BB98F8CE
:1079000000305BB1894B1B7843B907F077F88848A2
:10791000394607F031FD8E4807F012F8637A032BE1
:1079200060D18C4B8C481B6800221BB2114608F0BA
:107930009FFE8A4B1B78F3B90121894815F055F950
:107940007D4A7E497E4815F045FD86497C4815F004
:1079500041FD7D497A4815F03DFD794814F010FF4E
:1079600080497A4815F036FD7749784815F032FDA0
:1079700064201FF0A5FBB4F88E0006F05DF8002827
:107980003FF4AFAE744808F039FF0390724808F036
:1079900037FF01230246CDE900330399724815F001
:1079A00023F8044600287FF49CAE634A6349644888
:1079B00015F010FD6D49624815F00CFD62496048F4
:1079C00015F008FD5E4814F0DBFE68495F4815F0CD
:1079D00001FD5D495D4815F0FDFC64201FF070FB62
:1079E0002C707EE600230093B7EE000A1A46194673
:1079F000594808F071FD9CE798F8003073B14B4B83
:107A000093F80080B8F1000F08D106F0F7FF58484E
:107A1000394607F0B1FC574B83F800804E4808F018
:107A2000EAFE554815F0F0F8002800F008815348A8
:107A300015F074F8002800F0E3800121242015F0EF
:107A40007CFD3D4A3D493E4815F0C4FC4C493C484C
:107A500015F0C0FC3C493A4815F0BCFC384814F01D
:107A60008FFE4749394815F0B5FC3749374815F0BE
:107A7000B1FC64201FF024FB424B1B78002B4ED03E
:107A8000414806F05DFF354B1B78F3B92A4A2B4974
:107A90002B4815F09FFC3349294815F09BFC2A49D7
:107AA000274815F097FC264814F06AFE2D49274810
:107AB00015F090FC2449254815F08CFC64201FF03B
:107AC000FFFA2748012115F090F8E37A002B65D0E2
:107AD00006F0C6F920B92D4A002313602C4A136022
:107AE0001D4808F08BFE80B205F0A6FF00283FF489
:107AF000F8AD194808F082FE0390174808F080FEA0
:107B000001240246CDE9004403991748234614F0A6
:107B10006BFF00287FF4E5AD074A287060E6154B3F
:107B20001B780BB11B48ACE71B48AAE7F8D600202E
:107B30000840070092400700444007004840070003
:107B400030E20020A64007001891070094E20020D0
:107B5000BA400700C8D60020A4D50020CCD600200B
:107B60006CE300204E40070049E300205B40070023
:107B7000C6400700A2D500206DE3002054E300209A
:107B8000D740070081D50020E34007002CD7002014
:107B900028D70020F440070003410700B4F88E0006
:107BA00005F04AFF00283FF49CAD0127CDE900779E
:107BB000394A94F88E103948022314F015FF002832
:107BC0007FF48FAD364A37492870374815F002FCEC
:107BD0003649354815F0FEFB3549334815F0FAFBB8
:107BE000314814F0CDFD3149324815F0F3FB3049EE
:107BF000304815F0EFFB64201FF062FA377070E533
:107C0000274A28492870284815F0E4FB2A492648C5
:107C100015F0E0FB2649244815F0DCFB224814F05F
:107C2000AFFD2549234815F0D5FB2149214815F022
:107C3000D1FB64201FF044FA0123337051E5012188
:107C4000232015F07AFC164A1649174815F0C2FB96
:107C50001A49154815F0BEFB1549134815F0BAFB33
:107C6000114814F08DFD1549124815F0B3FB104969
:107C7000104815F0AFFB64201FF022FA104806F000
:107C80005FFE0123044A94F88E100E4814F057FE4C
:107C900001232B7025E500BF10A3002049E300203D
:107CA000444007004840070030E200205B400700E6
:107CB0001891070094E20020114107002F410700AE
:107CC000034107006EE300202DE9F04F2DED028BFC
:107CD000002191B0784C0546242015F02EFC00219F
:107CE000232015F02AFC237883B1744B1B786BB9E1
:107CF00006F084FE724B5B7A022B28D171497248E0
:107D000011F0A5FF7048012107F036FB25BB6F4A33
:107D10006F49704815F05EFB6F496E4815F05AFBCD
:107D20006E496C4815F056FB6A4814F029FD6A4903
:107D30006B4815F04FFB6949694815F04BFB64200F
:107D40001FF0BEF911B0BDEC028BBDE8F08F032B24
:107D50000CBF64496449D2E72A78012A40F02282A4
:107D6000624B634E1B78634D002B2FD0624B1B7808
:107D7000002B00F0988007F035FC604A604B1188BA
:107D80001980917899701179D97051791971917917
:107D9000D27959719A710122DA715A4900221A7204
:107DA0000968D9605849096819611A755A75318886
:107DB00049B2D975297849B219765A839A83DA83F8
:107DC000524A126812B21A8408F074F82378504F9D
:107DD000002B00F00181394B1C78002C40F0FC8016
:107DE0004C49394811F033FF37490DA815F06CF9AB
:107DF0000DAA2146204606F01DFE0DA815F01EF91D
:107E00003A684549304811F0EBFE2F490DA815F0AE
:107E10005BF90DAA2146012006F00CFE0DA815F015
:107E20000DF93E4814F025FD4BF0A4FB20A3D3E947
:107E300000234BF043FD0B4602463949224811F01E
:107E4000CFFE21490DA815F03FF90DAA21460220C9
:107E500006F0F0FD0DA815F0F1F8324814F01AFD07
:107E600031490246184811F0BBFE17490DA815F01C
:107E70002BF90DAA2146032006F0DCFD0DA815F014
:107E8000DDF82A4814F017FD092800F24B81DFE8DD
:107E900010F04F00370139013B013D013F01410125
:107EA00043014501470107F015FD66E7AFF3008088
:107EB0000000000080842E41AED50020F8D60020BE
:107EC00004A3002008400700B5D500204440070067
:107ED0004840070030E200204341070018910700A6
:107EE00094E2002018400700C6400700AFD50020EC
:107EF000B2D50020B4D50020D4D90020CCD90020A0
:107F0000A4A1002028D700202CD70020C4D6002010
:107F1000C8D60020504107005E41070079E30020E9
:107F2000BC4907007AE30020115507007BE30020DD
:107F30007F490BA811F08BFE7E4814F0BCFC7E4BF1
:107F40007E4953F820207E4811F04AFE7C490DA856
:107F500015F0BAF80DAA4021032006F06BFD0DA81C
:107F600015F06CF8774814F0B7FC7749421D744857
:107F700011F036FE72490DA815F0A6F80DAA4021A1
:107F8000022006F057FD0DA815F058F832886F4909
:107F90006B4812B211F024FE69490DA815F094F84F
:107FA0000DAA0021042006F045FD0DA815F046F8A5
:107FB0002A786749624852B211F012FE60490DA852
:107FC00015F082F80DAA4021042006F033FD0DA81B
:107FD00015F034F806F048FD5E4A5F495F4815F039
:107FE000F9F95F495D4815F0F5F95E495B4815F010
:107FF000F1F95A4814F0C4FB59495B4815F0EAF905
:108000005849594815F0E6F964201FF059F8514ACB
:108010005149524815F0DEF93A68338829784F48BB
:1080200049B21BB20091514915F0D4F94D494B4862
:1080300015F0D0F9494814F0A3FB3A683388297841
:10804000494849B21BB20091484915F0C3F9454966
:10805000454815F0BFF964201FF032F83D4A3E490B
:108060003E4815F0B7F9424814F003FC08EE100A38
:10807000404814F00FFC06462E4814F01CFCF8EEA5
:10808000487A054617EE900A4BF096FA26A3D3E9F4
:1080900000234BF013FC7D2405FB044502460B46F0
:1080A000CDE9006534492D4815F094F92D492B4848
:1080B00015F090F9294814F063FB2D4814F0D9FB12
:1080C00008EE100A2B4814F0E5FB0546194814F099
:1080D000F2FBF8EE487A064617EE900A4BF06CFA7F
:1080E00011A3D3E900234BF0E9FB06FB044402464D
:1080F0000B46CDE9005420491B4815F06BF91AE6F0
:108100001E4916E71E4914E71E4912E71E4910E7EB
:108110001E490EE71E490CE71E490AE71E4908E7FB
:108120001E4906E71E4904E70000000080842E4136
:10813000724107007BE300207CA20020A8410700D9
:10814000B5D500207CE300202A5507006D430700C9
:1081500078430700444007004840070030E2002011
:10816000AE4107001891070094E20020BB410700D0
:1081700079E300207AE30020D6410700764107002A
:108180007A4107007E4107008241070087410700CE
:108190008D41070093410700994107009F41070067
:1081A000A4410700824B1B78022B40F09980814B41
:1081B00000221A70804B1B78002B2FD07F4B1B782E
:1081C000002B64D007F00EFA7D4B7E4D1A882A8072
:1081D0009A78AA701A79EA705A792A719A79DB79B1
:1081E0006A71AB71784A79480023EB712B7212687F
:1081F000EA60774A12682A612B756B75EB752B76EE
:108200006B83AB83EB83734B1B681BB22B8414F023
:1082100099FC40B285F8220007F04CFE2378002B31
:108220003FF490AD6C4B1C78002C7FF48BAD6B4908
:108230006B486C4D11F00BFD69490DA814F044FF1B
:108240000DAA2146204606F0F5FB0DA814F0F6FE17
:108250002A686549624811F0C3FC61490DA814F011
:1082600033FF0DAA2146022006F0E4FB0DA814F00E
:10827000E5FE2B68013B0F2B30D8DFE803F00B1134
:10828000131517191B1D1F21232527292B2D07F037
:1082900021FB99E75549524811F0D9FC504970E04B
:1082A0005349F8E75349F6E75349F4E75349F2E7EE
:1082B0005349F0E75349EEE75349ECE75349EAE7FE
:1082C0005349E8E75349E6E75349E4E75349E2E70E
:1082D0005349E0E75349DEE75349DCE75349DAE71E
:1082E000032A40F0B1802378002B3FF42BAD3A4BAA
:1082F0001E78002E7FF426AD4D4C657A022D4ED0AF
:10830000032D53D05DB94B490DA814F0DDFE0DAA25
:108310002946084606F08EFB0DA814F08FFE4FF498
:108320007A7362684449B2FBF3F22D4811F058FCAD
:108330002B490DA814F0C8FE0DAA0021012006F05B
:1083400079FB0DA814F07AFE3C490DA814F0BCFE90
:1083500000210DAA022006F06DFB0DA814F06EFEA0
:1083600028491F4811F073FC1D490DA814F0ACFEFC
:1083700000210DAA032006F05DFB0DA814F05EFE9F
:108380002E490DA814F0A0FE0DAA0021042006F02D
:1083900051FB0DA814F052FE06F066FBD2E428490A
:1083A0000DA814F091FE0DAA3146B2E72549F7E772
:1083B00080D50020CDD60020AFD50020D4D9002014
:1083C000CCD90020A4A1002028D7002058E3002009
:1083D0002CD70020C4D60020F8D60020AD450700D9
:1083E000B5D50020D0D60020E9410700F3410700B1
:1083F000014207000C420700184207002442070010
:108400002E42070038420700444207005842070046
:108410006B4207007B420700884207009242070038
:10842000A2420700B0420700BC420700CD4207004D
:1084300004A30020DB4207000F4307008BF5070071
:10844000EA420700FB420700042A40F03382AD4BAA
:10845000AD4E1B78DFF82893DFF82883AB4F002B55
:108460003DD0AB4B1B78002B00F0978107F0BAF89A
:10847000A84BA94D1A882A809A78AA701A79EA70AE
:108480005A792A719A79DB796A71AB710023EB71A1
:1084900098F80020A148D2B22A72A14A1268EA6074
:1084A000A04A12682A61328852B22A75328852B2C2
:1084B0006A75328852B2EA7599F8002052B22A766B
:1084C0006B83AB833B78EB83974B1B681BB22B848E
:1084D00014F038FB40B285F8220007F0EBFC23785B
:1084E000DFF8A4A2914C002B00F0A380904B1D78E4
:1084F000002D40F09E808F4B21788F4A8F480029B5
:1085000018BF1A468E4911F06BFB8C490DA814F068
:10851000DBFD0DAA2946284606F08CFA0DA814F0BA
:108520008DFD227802F0FF0B002A40F039813A7865
:108530008449824811F054FB80490DA814F0C4FD11
:108540000DAA5946012006F075FA0DA814F076FD23
:10855000724814F0F7FA7C490246784811F040FB63
:1085600076490DA814F0B0FD0DAA5946022006F078
:1085700061FA0DA814F062FD98F8002073496F4865
:1085800011F02EFB6D490DA814F09EFD0DAA40219F
:10859000022006F04FFA0DA814F050FDDAF8002082
:1085A0006B49664811F01CFB64490DA814F08CFD62
:1085B0000DAA5946032006F03DFA0DA814F03EFD21
:1085C000594B64491A685D4811F00AFB5B490DA8D4
:1085D00014F07AFD0DAA4021032006F02BFA0DA815
:1085E00014F02CFD32885C49544812B211F0F8FAAC
:1085F00052490DA814F068FD0DAA5946042006F052
:1086000019FA0DA814F01AFD99F8002053494B48A7
:1086100052B211F0E5FA49490DA814F055FD0420B5
:108620000DAA402106F006FA0DA814F007FD06F089
:108630001BFA4B4A4B494C48DFF8FCB03D4D14F057
:10864000C9FE227849494848002A0CBF5A462A46A2
:1086500014F0C0FE4649444814F0BCFE424814F0F1
:108660008FF8227841494348002A0CBF5A462A46CF
:1086700014F0B0FE3E493F4814F0ACFE64201EF0FA
:108680001FFD374A3749384814F0A4FEDAF80020B5
:10869000338899F80010344849B21BB2009136492A
:1086A00014F098FE3249304814F094FE2E4814F02D
:1086B00067F8DAF80020338899F800102D4849B29D
:1086C0001BB200912C4914F085FE2949294814F069
:1086D00081FE64201EF0F4FC214A2249224814F055
:1086E00079FE98F8002025493B781F4814F072FE67
:1086F0001F491D4814F06EFE1B4814F041F898F80D
:10870000002043E0AFD50020B2D50020B5D6002030
:10871000D4D90020CCD90020A4A1002058E3002007
:1087200028D700202CD70020C4D60020B7D60020A0
:10873000F8D600203F41070071470700B5D500205B
:108740002343070034430700484307005143070011
:108750005A430700624307006A4307007543070056
:10876000444007004840070030E20020274307004C
:108770001891070094E20020BB4107009D430700C9
:10878000B4D50020B6D60020C8D600206C493B786E
:108790006C4814F01FFEFFF7CEBA07F09BF867E6AF
:1087A000DAF800206849694811F01AFA67490DA8FB
:1087B00014F08AFC0DAA2946012006F03BF90DA809
:1087C00014F03CFC624B63491A68604811F008FAE7
:1087D0005E490DA814F078FC0DAA4021012006F096
:1087E00029F90DA814F02AFC22785B49574811F0AA
:1087F000F7F956490DA814F067FC0DAA2946022086
:1088000006F018F90DA814F019FC2378013B0F2B82
:108810004ED8DFE803F0082F31333537393B3D3F81
:1088200041434547494B4D49484811F010FA4749E3
:108830000DA814F049FC0DAA0021032006F0FAF857
:108840000DA814F0FBFB464814F07CF9454902469C
:108850003E4811F0C5F93D490DA814F035FC0DAAAC
:108860000021042006F0E6F80DA814F0E7FB06F05E
:10887000FBF8DCE63C49D7E73C49D5E73C49D3E780
:108880003C49D1E73C49CFE73C49CDE73C49CBE700
:108890003C49C9E73C49C7E73C49C5E73C49C3E710
:1088A0003C49C1E73C49BFE73C49BDE73C49BBE720
:1088B0003C49B9E7052A40F087802378002B3FF434
:1088C00041AA394B1E78002E7FF43CAA374C657ABA
:1088D000022D31D0032D31D05DB935490DA814F0EA
:1088E000F3FB002108460DAA06F0A4F80DA814F029
:1088F000A5FB4FF47A7362682E49B2FBF3F213487A
:1089000011F06EF911490DA814F0DEFB0DAA00213B
:10891000012006F08FF80DA814F090FB26490DA851
:1089200014F0D2FB00210DAA022006F083F80DA856
:1089300014F084FB214914E52149CFE72149CDE713
:108940009D43070094E200205A430700B5D500205C
:10895000C4D60020624307007F430700F3410700AD
:1089600058E3002094430700014207000C4207002F
:1089700018420700244207002E4207003842070031
:1089800044420700584207006B4207007B42070041
:108990008842070092420700A2420700B042070047
:1089A000BC420700CD420700F8D6002004A30020F7
:1089B000DB4207000F4307008BF50700B5430700B4
:1089C000EA420700FB420700062B40F0CB83B84B7E
:1089D000DFF848835A7A0993032A40F02582B54A82
:1089E000B549B64814F0F6FC98F80730059398F8A6
:1089F0000630049398F80530039398F804300293F6
:108A000098F80330019398F80230009398F80130F9
:108A100098F80020AA49A94814F0DCFCA949A74805
:108A200014F0D8FCA54813F0ABFE98F80730059376
:108A300098F80630049398F80530039398F80430BA
:108A4000029398F80330019398F80230009398F855
:108A5000013098F800209A499B4814F0BBFC9949D2
:108A6000994814F0B7FC64201EF02AFB98F80360C4
:108A700098F8045098F805908E4A8F498F4898F8D6
:108A8000027098F800B098F801A098F80780C6EB3B
:108A9000461306EB83064FEA2919C5EB451305EB90
:108AA000830514F097FC4A468849844814F092FCE8
:108AB0008449824814F08EFC804813F061FE4A46D7
:108AC0008249814814F086FC7E497F4814F082FC7C
:108AD0003837642008F138081EF0F2FA7FB2754A80
:108AE000754976484FFA88F814F074FC43463A46C4
:108AF0007749724814F06EFC7249704814F06AFCB1
:108B00006E4813F03DFE43463A4671496E4814F0F4
:108B100061FC6C496C4814F05DFC760064206D00CB
:108B20001EF0CEFA36B2634A634964482DB214F09F
:108B300051FC2B4632466749604814F04BFC6149B2
:108B40005E4814F047FC5D4813F01AFE2B4632468F
:108B500060495D4814F03EFC5A495B4814F03AFC09
:108B600064201EF0ADFA5C4B1B78002B3ED05B4BB3
:108B70001B78002B00F01D8106F034FD584A594B3C
:108B800011881980917899701179D970517919717A
:108B90009179D27959719A710322DA715FFA89F267
:108BA0001A72514A51481268DA60514A12681A61C1
:108BB0000021504A19755F7583F81680128852B2E9
:108BC000DA754D4A12780AEB0B2A52B20FFA8AFA7A
:108BD0001A765E839D83D983A3F820A013F0B2FF99
:108BE000404B40B283F8220007F064F92378002B51
:108BF0003FF4A8A8414B1C78002C7FF4A3A805F0F3
:108C0000FDFE3F48012106F0B7FB3B4B3D491A787A
:108C1000384B3D481B8852B21BB210F0E1FF3A4975
:108C20000DA814F051FA0DAA2146204605F002FFC6
:108C30000DA814F003FA3B4642463449324810F07E
:108C4000CFFF31490DA814F03FFA0DAA21460120AB
:108C500005F0F0FE0DA814F0F1F94A462C492A4817
:108C600010F0BEFF28490DA814F02EFA0DAA2146D7
:108C7000022005F0DFFE0DA814F0E0F925490DA84B
:108C800014F022FA0DAA3221022005F0D3FE0DA81D
:108C900014F0D4F920490DA814F016FA0DAA5021A9
:108CA000022005F0C7FE0DA814F0C8F938E000BF97
:108CB00004A30020444007004840070030E20020A1
:108CC000CB4307001891070094E20020E44307001B
:108CD0000444070021440700AFD50020D4D9002068
:108CE000CCD90020A4A1002028D7002058E30020E0
:108CF0002CD70020B2D50020B4D50020F8D6002013
:108D0000184007003D440700B5D500205444070033
:108D10006B440700764407007A44070082D50020A0
:108D200039490DA814F0D0F90DAA2146032005F009
:108D300081FE0DA814F082F9099BDF7A002F3BD049
:108D400032463249324810F04BFF31490DA814F039
:108D5000BBF90DAA3221032005F06CFE0DA814F01A
:108D60006DF92A4629492A4810F03AFF28490DA8EA
:108D700014F0AAF90DAA5021032005F05BFE0DA8FE
:108D800014F05CF9234B1868234B1D684AF014FC5F
:108D900002460B46CDE9062328464AF00DFCDDE9E4
:108DA0000623CDE900011D49194810F019FFFFF70E
:108DB00075BA06F08FFDE1E61949154810F047FF36
:108DC00013490DA814F080F90DAA3221032005F0F3
:108DD00031FE0DA814F032F90D490DA814F074F904
:108DE0000DAA5021032005F025FE0DA814F026F948
:108DF0000C49074810F02BFF05490DA814F064F941
:108E00000DAA3946FFF7C2BA7E4407004543070062
:108E1000B5D5002028D700202CD700208744070094
:108E20009C4407009344070098F8023098F80360C8
:108E300098F8045098F805B0AD4AAE49AE4898F895
:108E40000170C83B9BB20693C6EB461306EB830644
:108E50004FFA8BFAC5EB451305EB830514F0BAFA0C
:108E60005246A649A44814F0B5FAA549A24814F000
:108E7000B1FAA14813F084FC5246A049A14814F06D
:108E8000A9FA9F499F4814F0A5FA64201EF018F92A
:108E9000C83F974A9749984814F09CFABFB2BDF969
:108EA0001880994994480FFA87F943464A4614F0C6
:108EB00091FA9349904814F08DFA8F4813F060FCB2
:108EC00043464A4690498F4814F084FA8C498D48AD
:108ED00014F080FA760064206D001EF0F1F836B2CE
:108EE000834A844984482DB214F074FA2B463246E2
:108EF0008649814814F06EFA81497F4814F06AFA75
:108F00007D4813F03DFC2B46324680497D4814F0E5
:108F100061FA7B497B4814F05DFA64201EF0D0F8BA
:108F20007B4B1B78002B3CD07A4B1B78002B00F03E
:108F3000D08006F057FB784A784B118819809178D9
:108F400099701179D970517919719179D2795971D2
:108F50009A710222DA71724A83F808B01268DA60F4
:108F6000704A714812681A617FB29DF918201F7506
:108F70005A756E4A128852B2DA756D4A127852B238
:108F80001A7600225E839D83DA836A4A126812B2DF
:108F90001A8413F0D7FD614B40B283F8220006F02B
:108FA00089FF2378002B3EF4CDAE634B1C78002C58
:108FB0007EF4C8AE05F022FD6048012106F0DCF920
:108FC0005B4B5F491A78594B5E481B8852B21BB203
:108FD00010F006FE5B490DA814F076F80DAA2146A4
:108FE000204605F027FD0DA814F028F852465649F2
:108FF000544810F0F5FD53490DA814F065F80DAA7A
:109000002146012005F016FD0DA814F017F84F4970
:109010000DA814F059F80DAA3221012005F00AFD1F
:109020000DA814F00BF84A490DA814F04DF80DAA3C
:109030005021012005F0FEFC0DA813F0FFFF45496B
:109040000DA814F041F80DAA2146022005F0F2FC0B
:109050000DA813F0F3FF40490DA814F035F80DAA40
:109060002146032005F0E6FC0DA813F0E7FF4A4671
:109070003A49344810F0B4FD32490DA814F024F8F0
:109080000DAA3221022005F0D5FC0DA813F0D6FF61
:10909000424632492B4810F0A3FD2A490DA814F08E
:1090A00013F80DAA3221032005F0C4FC0DA813F01B
:1090B000C5FF099BDF7A7FB132462849214810F06D
:1090C0008FFD20490DA813F0FFFF0DAA50210220AB
:1090D00042E606F0FFFB2EE721491A4810F0B7FDE3
:1090E00018490DA813F0F0FF0DAA502102206EE6DA
:1090F000444007004840070030E200209F4407003A
:109100001891070094E20020BC44070021440700A6
:10911000AFD50020D4D90020CCD90020A4A10020B4
:1091200028D700202CD7002058E30020B2D50020FB
:10913000B4D50020C4D60020F8D60020084007008F
:109140003D440700B5D500206B440700C6A10700C9
:109150007E440700764407007A4407004543070031
:109160009C440700072B40F083806C4A6C496D4893
:1091700014F030F96C496B4814F02CF96B496948CC
:1091800014F028F9674813F0FBFA6749684814F0AF
:1091900021F96649664814F01DF964201DF090FF1E
:1091A000644B1B78002B30D0634B1B78002B5CD0BA
:1091B00006F018FA614B624D1A882A809A78AA70D4
:1091C0001A79EA705A792A719A79DB796A71AB71E6
:1091D0000223EB715B4A5C4800232B721268EA6041
:1091E0005A4A12682A612B756B75EB752B766B8367
:1091F000AB83EB83564B1B681BB22B8413F0A2FC92
:1092000040B285F8220006F055FE2378002B3EF48C
:1092100099AD504B1B78002B7EF494AD05F0EEFB1E
:109220004D4B5B7A032B0CBF4C484D48012106F097
:10923000A3F84C494C4810F00AFD4B490DA813F017
:1092400043FF00210DAA084605F0F4FB0DA813F01A
:10925000F5FE3C4B18683D4B1C684AF0ADF90246E0
:109260000B46CDE90623204697E506F033FBA1E740
:10927000082B7EF467AD384B5D7A35B1012D29D0CE
:109280003A4B00221A70FEF75DBD05F0B7FB384877
:10929000012106F071F837490DA813F015FF0021E0
:1092A0000DAA084605F0C6FB0DA813F0C7FE32490B
:1092B0002D4810F0CCFC2C490DA813F005FF0DAA89
:1092C0000021032005F0B6FB0DA813F0B7FE05F052
:1092D000CBFBD5E72378002BD2D01E4B1C78002C7B
:1092E000CED105F08BFB2248294606F045F82349EC
:1092F0000DA813F0E9FE0DAA2146204605F09AFBC1
:109300000DA813F09BFE1C49174810F0A0FC16494D
:109310000DA813F0D9FE0DAA2146D2E7444007005C
:109320004840070030E20020D444070018910700AD
:1093300094E20020AFD50020D4D90020CCD9002061
:10934000A4A1002028D7002058E300202CD700201B
:10935000C4D60020F8D6002004A30020084007004F
:1093600018400700F1440700B5D50020CDD60020F5
:10937000C6400700DB4207009C4E07005041070033
:1093800070B5304BB0F90A201A802F4B90F90C20A1
:109390001A702E4B42781A702D4A136801331360ED
:1093A0002C4B00221A7002780446E2B92A4A2B4953
:1093B0002B4814F00FF82B49294814F00BF82A49D0
:1093C000274814F007F8264813F0DAF9254927480A
:1093D00014F000F82449254813F0FCFFBDE8704064
:1093E00064201DF06DBE224B5B7A023B012B28D816
:1093F000022A0FD11F4D027A41681F4806232B70A5
:109400000FF080FE2B461D48BDE87040FA22012176
:1094100013F001BD104A1149114813F0DBFF227807
:1094200017490F4813F0D6FF0F490D4813F0D2FF2C
:109430000B4813F0A5F9227811490C4813F0CAFF24
:10944000C8E770BDB2D50020B4D50020B0D500204B
:10945000C8D60020CDD600200645070048400700AA
:1094600030E200200C4507001891070094E200202C
:1094700004A3002080D5002082D5002011E3002025
:109480001445070070B51E4C0546002836D01D4B0C
:109490001D491E4800221A701D4A13F09BFF2A46E0
:1094A0001C491A4813F096FF1B49184813F092FF05
:1094B000164813F065F92A461649184813F08AFF32
:1094C0001549164813F086FF64201DF0F9FD144B72
:1094D0001D60144B5B7A023B012B134B1A6802F19F
:1094E00001021A6094BF0723022323700F4823460A
:1094F000FA22BDE87040012113F08DBC0823F4E787
:1095000080D50020CDD600204840070030E2002062
:1095100044400700234507001891070094E200200B
:10952000D0D6002004A30020C4D6002011E30020E0
:1095300030B5504A5049514D99B00446504813F047
:1095400049FF22464F494E4813F044FF4E494C48CC
:1095500013F040FF4A4813F013F9224649494B489B
:1095600013F038FF4849494813F034FF64201DF0D8
:10957000A7FD297800297AD101231A2208A82B7087
:1095800007910FF0CDFD05A82CF06CF90598404C23
:1095900000F5E0400FA96E302CF0D8F9149B3D493E
:1095A00003F26C730393129B0293139B0133019399
:1095B0000F9B009307A8DDE9103210F011FB2D4A34
:1095C0002D492F4813F006FF07AA33492C4813F002
:1095D00001FF2D492A4813F0FDFE294813F0D0F869
:1095E00007AA2D49294813F0F5FE2749274813F00B
:1095F000F1FE64201DF064FD149B03F26C73238064
:10960000139B0133A370129B2371119B6371109BF9
:10961000A3710F9BE371214B1B7843B3154A164985
:10962000174813F0D7FE1E49154813F0D3FE16490C
:10963000134813F0CFFE124813F0A2F8184913484C
:1096400013F0C8FE1049114813F0C4FE64201DF049
:1096500037FD02232B70E3790193A379009363799B
:109660002279A178208806F0BBF805F0BBFF19B07D
:1096700030BD00BF3245070048400700CCD600206F
:1096800030E20020374507001891070094E20020DF
:10969000CCD900204E450700B5640700D4D900207E
:1096A00070450700F0B54FF080432DED028BD3F8E5
:1096B0003834032B85B020D1364A3749374813F068
:1096C00089FE3749354813F085FE3649334813F093
:1096D00081FE324813F054F83149334813F07AFED2
:1096E0003049314813F076FE64201DF0E9FC002477
:1096F000204605B0BDEC028BF0BD2C482B4D13F07D
:1097000055FB0A24B0EE408A284613F04FFB013C7B
:1097100038EE008AF8D1B2EE067AC8EE077A1D4A12
:109720001D491E489FED228ADFED226A27EE888AB6
:10973000DFED217A68EE277A87EEA67AFCEEC77A0B
:10974000CDED037A9DF80C4013F044FE18EE100A9C
:1097500049F032FF06460F462246CDE90067174919
:109760000E4813F037FE0F490C4813F033FE0B4838
:1097700013F006F82246CDE9006710490A4813F0B5
:1097800029FE0849084813F025FE64201DF098FCC6
:10979000AEE700BFE39407004840070030E2002036
:1097A000864507001891070094E200200DE3002091
:1097B00000007A440040834500007F438D45070048
:1097C00007B52B4A2B492C4813F004FE2B492A4895
:1097D00013F000FE2A49284813F0FCFD264812F039
:1097E000CFFF2649274813F0F5FD2549254813F0FA
:1097F000F1FD64201DF064FC234B244801221A7003
:1098000013F0B5F818B12248002113F07AF8214876
:1098100013F0FEF92049214813F00CF920491F48A4
:1098200013F018F91F491D4813F00CF91E491B4885
:1098300013F018F91D49194813F01CF900211C48B0
:1098400013F056F902211B4813F0C0F9322301220C
:10985000009311460A23114813F0ABF8164BD97A3E
:1098600001B10121222003B05DF804EB13F065BEC5
:10987000444007004840070030E20020A7450700A9
:109880001891070094E20020A1A1002084E30020A9
:109890006EE300206DE300208193020049E3002085
:1098A000859402008D7302002D7402003195020030
:1098B00051E300206BE3002004A3002008B52B4AED
:1098C0002B492C4813F086FD2B492A4813F082FDC2
:1098D0002A49284813F07EFD264812F051FF2649F8
:1098E000274813F077FD2549254813F073FD6420C0
:1098F0001DF0E6FB234B24480021197013F001F8FA
:10990000224813F038F8D0B9184A1949194813F009
:1099100061FD1F49174813F05DFD1849154813F004
:1099200059FD144812F02CFF1949154813F052FD47
:109930001249134813F04EFD64201DF0C1FB154978
:10994000114813F025F814490F4813F029F84FF681
:10995000FD710D4812F0D5FF104BD97A01B10121EC
:10996000BDE80840222013F0E8BD00BF44400700D6
:109970004840070030E20020BC450700189107006E
:1099800094E20020A1A100206EE3002084E30020E7
:10999000CB450700DD730200B973020004A3002069
:1099A0002DE9F04F012187B0222013F0AFFD0121F6
:1099B000232013F0ABFD0121242013F0A7FDB348B1
:1099C000B34F13F02BFC04F045FF3870002800F073
:1099D000DA81B049B04810F03AF9AF48012105F0FA
:1099E000CBFCAE4804F0ACFFAD4804F0A9FF002169
:1099F000222013F0A2FD0223AA4806224FF4E131EF
:109A000012F0C4FE4FF08043D3F83834032B40F0FB
:109A1000DA814FF4FA601DF053FB0423022203ACF9
:109A2000A14900939C48002310F0DAF89A49204697
:109A300013F04AFB21469D4813F096F9204613F097
:109A4000FDFA0121232013F078FD0021232013F0DB
:109A500074FD0021242013F070FD03F05FF8D0B9ED
:109A6000934A94498F4813F0B5FC93498D4813F0FD
:109A7000B1FC92498B4813F0ADFC8A4812F080FE8D
:109A80008D498F4813F0A6FC8C498D4813F0A2FC39
:109A900064201DF015FB03F02BF8D0B9844A8549EA
:109AA000804813F097FC87497E4813F093FC834964
:109AB0007C4813F08FFC7B4812F062FE814980489D
:109AC00013F088FC7D497E4813F084FC64201DF06F
:109AD000F7FA02F09FFFD0B9754A7649714813F042
:109AE00079FC79496F4813F075FC74496D4813F09F
:109AF00071FC6C4812F044FE7349714813F06AFC23
:109B00006E496F4813F066FC64201DF0D9FA02F02C
:109B100097FFD0B9664A6749624813F05BFC6B490E
:109B2000604813F057FC65495E4813F053FC5D48EC
:109B300012F026FE6549624813F04CFC5F4960480C
:109B400013F048FC64201DF0BBFA02F08FFFD0B97F
:109B5000574A5849534813F03DFC5D49514813F0AA
:109B600039FC56494F4813F035FC4E4812F008FEB8
:109B70005749534813F02EFC5049514813F02AFC22
:109B800064201DF09DFA03F0FFFCD0B9484A494912
:109B9000444813F01FFC4F49424813F01BFC47494F
:109BA000404813F017FC3F4812F0EAFD4949444889
:109BB00013F010FC4149424813F00CFC64201DF0E6
:109BC0007FFA00F0F3FDD0B9394A3A49354813F02D
:109BD00001FC4149334813F0FDFB3849314813F08B
:109BE000F9FB304812F0CCFD3B49354813F0F2FB4D
:109BF0003249334813F0EEFB64201DF061FA374D13
:109C0000374E002000F0FEFC6B7A294A294925488E
:109C1000023B012B00F2FF8013F0DCFB31492148AD
:109C200013F0D8FB25491F4813F0D4FB1D4812F050
:109C3000A7FD2C49224813F0CDFB2049204813F002
:109C4000C9FB64201DF03CFA012003F09FFF307037
:109C5000337813B1244804F073FE05F0EDFC234E75
:109C6000134A14493070002800F0F5800D4813F0B5
:109C7000B1FB1F490B4813F0ADFB1049094813F025
:109C8000A9FB084812F07CFD34E000BF8CE3002003
:109C9000AED50020C6400700B5D50020ED45070031
:109CA000FA45070030E20020B64C0700B8E2002079
:109CB0004440070048400700144607001891070079
:109CC00094E20020404607006746070095460700DB
:109CD000BF460700ED4607001247070004A3002017
:109CE000ADD500202E47070058470700D4D90020E3
:109CF000634707008A498B4813F06CFB8A498948FF
:109D000013F068FB64201DF0DBF905F06BFC94E8B0
:109D100003002BF086FD02F0D5FE337813B18348A3
:109D200004F00EFE05F058FE814E3070002840F021
:109D3000AC80804A8049814813F04CFB80497F48C1
:109D400013F048FB78497D4813F044FB7B4812F040
:109D500017FD7B49734813F03DFB7349714813F0BD
:109D600039FB64201DF0ACF9337813B1754804F069
:109D7000E7FD6B7A032B00F2F580DFE813F0320188
:109D8000A301AC01B9016B4A6B496C4813F022FB8B
:109D90006D496A4813F01EFB6349684813F01AFBCB
:109DA000664812F0EDFC68495E4813F013FB5E490B
:109DB0005C4813F00FFB64201DF082F93B78002B08
:109DC0003FF415AE05E613F0C4FBDFF870A10646BC
:109DD0004FF0000B41F287384FF00009504612F067
:109DE000BAFC00287FF419AE13F0B3FB841B6BEBB5
:109DF0004B05A04579EB0503FFF60FAE64201DF07F
:109E00005FF9232013F09EFBB0FA80F1490923206B
:109E100013F093FBE2E795F80B80B8F1000F7FF4A5
:109E2000FBAE13F0D7FA4949444813F0D3FA3E4940
:109E3000424813F0CFFA414812F0A2FC4349394896
:109E400013F0C8FA3849374813F0C4FA64201DF0FB
:109E500037F94046F9E6394813F0BCFA3C4937482F
:109E600013F0B8FA3049354813F0B4FA334812F019
:109E700087FC37492B4813F0ADFA2B49294813F0DA
:109E8000A9FA64201DF01CF947E705F06FFE307059
:109E9000D0B9284A2849294813F09CFA2D49274867
:109EA00013F098FA2049254813F094FA234812F049
:109EB00067FC28491B4813F08DFA1B49194813F019
:109EC00089FA64201DF0FCF81A4A1B491B48DFF888
:109ED0008C90DFF88C8013F07DFA32781E49174899
:109EE000002A14BF4A46424613F074FA0E4913483A
:109EF00013F070FA114812F043FC32781649094801
:109F0000002A14BF4A46424613F064FA064905483F
:109F100013F060FA64201DF0D3F802F0BDFD23E7D2
:109F20006347070094E20020189107006D4707007F
:109F3000AFD50020444007004840070030E2002031
:109F400074470700B8470700064607004247070066
:109F500060470700854707009B470700E245070069
:109F6000E7450700634A6449644813F033FA6449DB
:109F7000624813F02FFA6349604813F02BFA5F48E8
:109F800012F0FEFB5E49604813F024FA5D495E481A
:109F900013F020FA64201DF093F83B780BB35B4973
:109FA0005B480FF054FE5A49204613F08DF800210B
:109FB0002246084604F03EFD204613F03FF855497E
:109FC00053480FF044FE5249204613F07DF82246D4
:109FD0000021012004F02EFD204613F02FF804F09C
:109FE00043FD4D4804F0ACFC4C4812F097FD10B90D
:109FF0004B4804F0A5FCFFF7E3FB4FF47A734949A3
:10A000006A684348B2FBF3F20FF0EAFD404804F0FF
:10A0100097FC454A45480123002112F0F2FE6A6888
:10A0200022B100234148194612F0F5FE404A3F484C
:10A030000023012112F0E5FE00233E4A3B480221A5
:10A0400012F0DFFEAB7A33B1384800234EF66022BF
:10A05000022112F0E0FE0123374A3448032112F0B6
:10A06000D0FE364B1B785BB12C4812F057FD38B947
:10A0700032230122009332480A23114612F099FC40
:10A080001C4A1D491D4813F0A5F92E491B4813F021
:10A09000A1F91C49194813F09DF9184812F070FBFA
:10A0A0002849194813F096F91649174813F092F900
:10A0B00064201DF005F80121234813F01EFA07B0B3
:10A0C000BDE8F08FFFF7FAFB204804F039FC1D488B
:10A0D00004F036FC91E71E4804F032FC0F4812F001
:10A0E0001DFD10B90E4804F02BFCFDF7F3F984E7D1
:10A0F0001848F1E7444007004840070030E20020DC
:10A10000C34707001891070094E20020E4470700C6
:10A11000B5D50020F6470700DB42070054E30020D6
:10A12000064807000F430700CD75020011E3002029
:10A13000C97C0200BDEA020061E30200A1A1002087
:10A1400049E3002014480700A9E20020B2410700BB
:10A15000EA420700FB42070070470000024818224D
:10A16000002106F05BBB00BFD4D600202DE9F04FE4
:10A17000994C9A4DDFF87CA2DFF87CB289B020467A
:10A1800006F0A0FC204610EE107A06F0BAFC20463D
:10A190008DED050A06F0D4FC914A92498DED060A30
:10A1A000284613F017F9204606F08CFC204610EEE6
:10A1B000108A06F087FC384610EE106A49F0FCF968
:10A1C000894B002249F050FA49F0FEFC07B24046A4
:10A1D00049F0F2F9804630468946029749F0ECF999
:10A1E000814B824E002249F03FFA42464B46CDE970
:10A1F00000015146284613F0EDF83146284613F089
:10A20000E9F8284612F0BCFA204606F05BFC20462E
:10A2100010EE108A06F056FC40468DED070A49F014
:10A22000CBF9079B029780461846894649F0C4F946
:10A230006D4B002249F018FA4B464246CDE9000129
:10A240005146584613F0C6F83146584613F0C2F846
:10A2500064201CF035FF624A6249284613F0BAF8C0
:10A26000204606F04EFC204610EE107A06F049FC1F
:10A27000059810EE10AA49F09FF900225A4B49F0B8
:10A28000F3F949F0A1FC03B23846059349F094F97B
:10A29000059B029380465046894649F08DF9524B02
:10A2A000534FDFF858A1002249F0DEF942464B46F1
:10A2B000CDE900013946284613F08CF8314628468E
:10A2C00013F088F8284612F05BFA204606F019FCD5
:10A2D000204610EE108A06F014FC40468DED070A69
:10A2E00049F06AF9059B0293079B80461846894608
:10A2F00049F062F93C4B002249F0B6F94B46424620
:10A30000CDE900013946584613F064F83146584605
:10A3100013F060F864201CF0D3FE314A314928461E
:10A3200013F058F8204606F00BFC204610EE108A79
:10A3300006F006FC06988DED050A49F03DF92A4B1A
:10A34000002249F091F949F03FFC07B2404649F03C
:10A3500033F9804605980297894649F02DF9224B3A
:10A36000002249F081F942464B46CDE900015146B1
:10A37000284613F02FF83146284613F02BF82846CC
:10A3800012F0FEF9204606F0DBFB204610EE105AD4
:10A3900006F0D6FB284610EE108A49F00DF9044667
:10A3A00040460D46029749F007F90F4B002249F04D
:10A3B0005BF92246CDE900012B465146584613F081
:10A3C00009F83146584613F005F8642009B0BDE895
:10A3D000F04F1CF075BE00BFD4D6002030E2002044
:10A3E000224807004840070000408F4018910700AE
:10A3F000354807002648070094E20020444807003B
:10A4000007B573480DF10701312206F0A3FB9DF853
:10A41000073059061BD56F4A6F49704812F0DAFFB2
:10A420009DF807206E496D4812F0D4FF6D496B48C6
:10A4300012F0D0FF694812F0A3F969499DF807208E
:10A44000694812F0C7FF6749674812F0C3FF6420EC
:10A450001CF036FE9DF807309A0617D55D4A5E4916
:10A460005E4812F0B7FF61495C4812F0B3FF5D49E6
:10A470005A4812F0AFFF594812F082F95B495A4826
:10A4800012F0A8FF5749584812F0A4FF64201CF0AE
:10A4900017FE9DF80730DB0617D54E4A4E494F4848
:10A4A00012F098FF52494D4812F094FF4D494B4825
:10A4B00012F090FF494812F063F94D494A4812F0F2
:10A4C00089FF4849484812F085FF64201CF0F8FDD8
:10A4D0009DF80730180717D53E4A3F493F4812F00C
:10A4E00079FF44493D4812F075FF3E493B4812F060
:10A4F00071FF3A4812F044F93E493B4812F06AFFB6
:10A500003849394812F066FF64201CF0D9FD9DF8E7
:10A510000730590717D52F4A2F49304812F05AFFF4
:10A5200035492E4812F056FF2E492C4812F052FFA2
:10A530002A4812F025F930492B4812F04BFF2949DF
:10A54000294812F047FF64201CF0BAFD9DF807303F
:10A550009A0717D51F4A2049204812F03BFF274988
:10A560001E4812F037FF1F491C4812F033FF1B48EA
:10A5700012F006F921491C4812F02CFF19491A481B
:10A5800012F028FF64201CF09BFD9DF80730DB07CC
:10A5900017D5104A1049114812F01CFF18490F48EE
:10A5A00012F018FF0F490D4812F014FF0B4812F07B
:10A5B000E7F813490C4812F00DFF0A490A4812F057
:10A5C00009FF64201CF07CFD03B05DF804FB00BFB4
:10A5D000D4D60020224807004840070030E200207F
:10A5E000534807001891070094E200206A480700CA
:10A5F00071480700774807007E4807008448070035
:10A600008B48070073B500210446112012F07EFF2D
:10A610005D4812F003FE5D4B6CB300229A800A2263
:10A62000DA804FF481721A8140F201125A81574840
:10A6300006F020FB054620B3554A5649564812F00D
:10A64000C9FE5649544812F0C5FE5549524812F009
:10A65000C1FE514812F094F85049524812F0BAFE27
:10A660004F49504812F0B6FE64201CF029FD00242A
:10A67000204602B070BD02229C80DC801A815C8181
:10A68000D5E7002C38D02A22302140488DF8072009
:10A69000012606F009F9082232213C488DF80720EE
:10A6A00006F002F93246332138488DF8076006F08B
:10A6B000FBF824220DF10701344806F04BFA9DF80F
:10A6C0000720324822F00C0242F0080224218DF8C3
:10A6D000072006F0E9F8602222212C488DF8072097
:10A6E00006F0E2F82A462521284806F0DDF827483A
:10A6F0003246212106F0D8F8002520220DF107016D
:10A7000022488DF8075006F025FA9DF807201F48CB
:10A7100042F0080220218DF8072006F0C5F86420D9
:10A720001CF0CEFC1E220DF1070118488DF80750D1
:10A7300006F010FA9DF80720144842F090021E21FE
:10A740008DF8072006F0B0F864201CF0B9FC4CB17D
:10A75000FFF756FE14490422112011F0CFFFFFF736
:10A7600005FD85E720220DF10701084806F0F2F902
:10A770009DF80720054802F0400220218DF80720AF
:10A78000012406F091F873E78CE30020D4D6002072
:10A79000224807004840070030E2002091480700A7
:10A7A0001891070094E2002059A1020008B5022187
:10A7B000092012F0ABFE06490322092011F09EFF8A
:10A7C0000449054801236422FCF78CFD012008BDE3
:10A7D000C1AD020061AE0200B8D600202DE9F04FF5
:10A7E000C74D91B012F0B5FED5E900230024811ABF
:10A7F00064EB030300910193DDE9002340F6B830D8
:10A800000021904271EB0303A346A246A146A04655
:10A810002746264677DB12F09CFED5E90023811AF5
:10A8200063EB430302910393DDE90223B2F5C87F92
:10A8300073F1000373DA12F08CFED5E90023811A5C
:10A8400063EB430304910593DDE90434B3F5C87F5A
:10A8500074F1000380F2858012F07BFED5E90023BD
:10A86000811A63EB430306910793DDE90634B3F5E0
:10A87000167F74F1000380F2998012F06AFED5E928
:10A880000023811A63EB430308910993DDE908343F
:10A89000B3F5487F74F1000380F2AE8012F059FEE8
:10A8A000D5E90023811A63EB43030A910B93DDE999
:10A8B0000A34B3F5966F74F1000380F2C08012F091
:10A8C00048FED5E90023811A63EB43030C910D93F5
:10A8D000DDE90C34B3F5AF6F74F1000380F2D28080
:10A8E00012F037FED5E90023811A63EB43030E9182
:10A8F0000F93DDE90E34B3F5C86F74F1000380F2F5
:10A90000E280082474E0092012F01CFE002882D1A5
:10A910007C4B1B78002B3FF47EAF022468E0794B20
:10A920001B78012B87D1092012F00CFE012882D15F
:10A930000023C82C10D00920009312F003FE009BC6
:10A94000012804BF0133DBB2012001340093E4B2DB
:10A950001CF0B6FB009BECE7C62B7FF66CAF002427
:10A9600046E0684B1B78022B7FF476AF092012F08B
:10A97000E9FD01287FF470AF0024BBF1C80F10D0AF
:10A98000092012F0DFFD012808BF01344FF001005B
:10A990000BF1010B08BFE4B25FFA8BFB1CF090FBDC
:10A9A000EBE7C62C7FF658AF012421E0554B1B780E
:10A9B000032BDCB27FF461AF4FF0000BBAF1C80F8C
:10A9C00012D0092012F0BEFD012808BF0BF1010BC7
:10A9D0004FF001000AF1010A08BF5FFA8BFB5FFA32
:10A9E0008AFA1CF06DFBE9E7BBF1C60F7FF645AFB5
:10A9F000204611B0BDE8F08F424B1B78042BDCB22F
:10AA00007FF44CAF4FF0000AB9F1C80F12D0092003
:10AA100012F098FD012808BF0AF1010A4FF0010069
:10AA200009F1010908BF5FFA8AFA5FFA89F91CF097
:10AA300047FBE9E7BAF1C60F7FF630AFD8E7314BF5
:10AA40001B78052BDCB27FF43AAF4FF00009B8F168
:10AA5000C80F12D0092012F075FD012808BF09F1B6
:10AA600001094FF0010008F1010808BF5FFA89F9F8
:10AA70005FFA88F81CF024FBE9E7B9F1C60F7FF60E
:10AA80001EAFB5E71F4B1B78062BDCB27FF428AF57
:10AA90004FF00008C82F11D0092012F053FD0128F3
:10AAA00008BF08F101084FF0010007F1010708BFD6
:10AAB0005FFA88F8FFB21CF003FBEBE7B8F1C60FB2
:10AAC0007FF60EAF94E70F4B1B78072BDCB27FF4B9
:10AAD00018AF0025C82E0FD0092012F033FD012831
:10AAE00008BF01354FF0010006F1010608BFEDB2C5
:10AAF000F6B21CF0E5FAEDE7C62D7FF602AF77E778
:10AB0000F0D60020F9D6002073B58B4D8B4C6A7AB5
:10AB1000637A9A4231D003F071FF0021884804F033
:10AB20002BFC6B6863606B7A864863726B89638108
:10AB300003F006FF844803F003FF03F095FF02F0E3
:10AB40001DF940F6B8301CF0BBFA637A7F48012B40
:10AB50004FF000014FF0320640F0998011F0D1FE25
:10AB600000227B4800960A23114611F022FF794803
:10AB700011F001FF784812F017F9EA7AE37A9A4265
:10AB800007D06B7A023B012B94BF0120002002F01A
:10AB9000FDFF6A6863689A4203D16A8963899A42B1
:10ABA00013D003F02BFF674803F0CAFE664803F09A
:10ABB000C7FE03F059FF6B6863606B89638102F025
:10ABC000DDF840F6B8301CF07BFA644812F01CF84F
:10ABD000002869D0624811F0A3FF624B19788842BF
:10ABE00005D000395E4818BF012111F09BFF5E4877
:10ABF00011F0A8FF5D4B1978884202D05A4811F035
:10AC0000A3FF5B4811F0B0FF5A4B1978884202D07D
:10AC1000574811F0ABFF584D58482E7811F0B6FF49
:10AC200086420BD02978554811F0BCFF322301220F
:10AC3000009347480A23114611F0BBFE03F0DEFEE5
:10AC4000637A012B71D06CD9023B012B6FD94FF481
:10AC50007A7362684A49B2FBF3F24A480EF0C0FFC9
:10AC6000484803F06DFE626822B100234648194649
:10AC700012F0D1F8A37A002B5BD0434800234EF6A4
:10AC80006022022102B0BDE8704012F0C4B811F099
:10AC900038FE012200960A2311462D4811F089FE44
:10ACA0002E4811F0B5FF65E7384D3948296811F095
:10ACB000E2FD374811F0DDFD2968884202D03448B2
:10ACC00011F0D9FD334811F0E5FD334B1978884276
:10ACD00002D0304811F0E0FD304D31482E7811F0AF
:10ACE000EAFD864203D029782D4811F0E6FD2D4873
:10ACF00011F0F2FD2C4B1978884202D0294811F04E
:10AD0000EDFD2A4811F0FBFD294B1978884202D04D
:10AD1000264811F005FE4FF6FD710C4811F0F1FDCB
:10AD20008CE7244803F00CFE91E72348FAE7234818
:10AD3000F8E702B070BD00BFD0A1002004A300203E
:10AD4000B2480700B9480700C94807006EE3002071
:10AD500049E3002084E30020A8E200206DE3002006
:10AD600055E30020FBD6002058E30020FDD600204C
:10AD700060E30020FED60020FCD600206AE300201D
:10AD80000F430700B5D5002011E3002008D70020AD
:10AD900079E300207AE300200CD7002003D70020BD
:10ADA0007BE300207CE3002004D700207EE300202A
:10ADB0000DD70020DB420700B2410700FB4207002D
:10ADC000F8B512F0C6FB1C4D1C4B1D4C0021C3E90D
:10ADD000000112F0BEFBD5E90032C61A62EB420751
:10ADE000C92E77F1000308DB12F0B3FB00236B6080
:10ADF000237828600133DBB22370124A12491348CA
:10AE000012F0E8FA22781249104812F0E3FA1149D8
:10AE10000E4812F0DFFA0D4811F0B2FC22780C490E
:10AE20000D4812F0D7FA0B490B4812F0D3FABDE8DF
:10AE3000F84064201CF044B9E8D60020F0D6002089
:10AE4000F9D60020DA4807004840070030E2002029
:10AE5000DE4807001891070094E20020000000007F
:10AE60002DE9F04F87B0FFF7B9FC072800F29A826E
:10AE7000DFE810F05107B2040800D6020001930089
:10AE8000490036008F4B904A00241C708F4B0020E5
:10AE90000021C3E900018E498E4812F09BFA8E49C9
:10AEA0008C4812F097FA8D498A4812F093FA894833
:10AEB00011F066FC88498A4812F08CFA8749884864
:10AEC00012F088FA64201CF0FBF8864B1B782BB13B
:10AED000204607B0BDE8F04F03F0CEBD0120F8E7F3
:10AEE000784B00221A70794B00200021C3E9000141
:10AEF0007D4B1C783CB903F081FD7C48214604F071
:10AF00003BFA1CF0F4F86F4B00221A706F4B0020D4
:10AF10000021C3E90001744B1C78002C31D0744C23
:10AF20002378052B0DD1734B7348D97A10222270E8
:10AF300001919B7A00937149714B09781B7803F05A
:10AF4000C3FD614A6249634812F044FA22786D49B0
:10AF5000604812F03FFA61495E4812F03BFA5D48E2
:10AF600011F00EFC227867495D4812F033FA5B4914
:10AF70005B4812F02FFA642007B0BDE8F04F1CF0D8
:10AF80009FB803F03BFD6048214604F0F5F95F48A7
:10AF900007B0BDE8F04F11F007BF4A4B00221A700E
:10AFA0004A4B00200021C3E900014F4B1B78002BC6
:10AFB00000F0F8814E4C2378052B16D8DFE803F01B
:10AFC000031515344050524811F01EFE0128494B1C
:10AFD0001FD1D97A4F480422227001919B7A4E49A1
:10AFE00000930978FF2303F06FFD374A3849394849
:10AFF00012F0F0F922784949364812F0EBF9374956
:10B00000344812F0E7F9334811F0BAFB227843498B
:10B01000AAE7D97A42480522227001919B7A4149D8
:10B0200000930978FF23DEE7324B3F48D97A0322A9
:10B030005A7201919B7A3D49009309780523D2E722
:10B0400007233B48237011F0A1FD2A4AD37A0193CC
:10B05000937A00932278C3B2284927480978C2E737
:10B06000244B0E22D97A227001919B7A0093314BA6
:10B070001B78F1E7134B00221A70144B00200021BB
:10B08000C3E90001184B1B78002B00F0D180184C4D
:10B090002378062B5DD8DFE813F007004F0070001F
:10B0A0007E008800B900C300124903224B7AC87A97
:10B0B00022700190897A00910233DBB21B491A4851
:10B0C000097844E0F9D60020DA480700F0D60020DD
:10B0D0004840070030E20020EE48070018910700C2
:10B0E00094E200204CA50020F8D60020F848070084
:10B0F000FAD60020D0A10020C8A10020CCA10020B9
:10B100000DD700200349070014490700A8E20020DA
:10B110006DE30020A4A20020B8A200201A49070075
:10B12000D0A20020E8A2002064A2002078A2002083
:10B130006AE3002004D700209C4B9D48D97A002266
:10B14000227001919B7A9B4900930978FF2303F0B9
:10B15000BBFC994A99499A4812F03CF922789949DE
:10B16000974812F037F99849954812F033F9944806
:10B1700011F006FB22789349F6E68C4A9349937ABC
:10B18000934883F001039372D27ACDE90032FF2312
:10B1900009780222DBE7854B02225A72DA7A0192A1
:10B1A0009B7A00930322042388E70A2389482370AB
:10B1B00011F0ECFCC0B20C280ED8DFE800F0071B41
:10B1C0001B211B21211B1B1B1B1B2100824B00224F
:10B1D0001A70824B05221A70744A814BD17A1B78FF
:10B1E0000191927A00920A332278DBB27D497E483F
:10B1F0000978ACE7784B00221A70784B0722EAE70F
:10B20000754B00221A70754B0A22E4E7674B0D223A
:10B21000D97A227001919B7A0093744B1B78E5E7F1
:10B22000624BDA7A01929B7A009306220023DDE7D3
:10B230006F4811F0E9FC012840F0B4806D4E727A3D
:10B24000012A00F0AF806C4F3A78002A40F0AA80C3
:10B250006A4D6B4B28701B780BB903F00DFC564AF6
:10B2600056495748DFF8509112F0B4F865495448F0
:10B2700012F0B0F85449524812F0ACF8504811F0AE
:10B280007FFA6049604812F0A5F84F495E4812F015
:10B29000A1F864201BF014FF00215C4811F0C5FDEB
:10B2A0004C4811F073FC5A4B53F820305948059321
:10B2B00011F048FC00248046059B33F81430002B25
:10B2C00060D03E493E484A4612F084F82246524930
:10B2D0003B4812F07FF83C49394812F07BF8384877
:10B2E00011F04EFA22464C49474812F073F836499D
:10B2F000454812F06FF864201BF0E2FEE1B24548C9
:10B3000011F022FC64201BF0DBFE0020FCF75EF94C
:10B3100012F01FF94FF0000A83463A7872B34FF4E7
:10B320007A701BF0CDFE12F014F9B0EB0B03029310
:10B330006AEB4A030393DDE9020142F21072002333
:10B3400082428B41E9DA4A461C491D4812F042F814
:10B3500032491B4812F03EF81B49194812F03AF8DE
:10B36000174811F00DFA2D49274812F033F8164905
:10B37000254812F02FF864201BF0A2FE4FF4FA606B
:10B380001BF09EFE0134102C96D12248414611F04C
:10B39000DBFB726822B100231C48194611F03BFD0B
:10B3A00000232B7007B0BDE8F08F00BFD0A10020B4
:10B3B000ECA2002000A30020DA4807004840070064
:10B3C00030E200202B49070018910700CCA2002092
:10B3D000BCA200206AE3002002D7002000D7002092
:10B3E000FDD60020CCA10020C8A1002003D700205A
:10B3F0006DE3002004A30020CDD6002081D50020DD
:10B400004CA500203C49070094E2002011E30020F5
:10B41000FCA4002058E300204F4907005D490700C5
:10B420008E4B00221A708E4B00240025C3E9004584
:10B430008C4B1B78002B00F08D818B4C2378102BCC
:10B440002BD8DFE813F011001D003E004900560024
:10B4500085009200A5002A00D100E400F9004B010C
:10B460005A0169012A007701804B0222D97A2270A1
:10B4700001919B7A0093FF237D497E4809780AE079
:10B480007A4B7D48D97A0022227001919B7A7B49C0
:10B4900000930978FF2303F017FB794A79497A482A
:10B4A00011F098FF22787949774811F093FF784995
:10B4B000754811F08FFF744811F062F922787349D2
:10B4C00052E56A4AD37A83F00103D3720193937AE7
:10B4D00000930222FF23CFE7644B6E496E4801229E
:10B4E0005A72DA7A01929B7A0093032309781A46FA
:10B4F000D1E709236948237011F048FBC0B20C283A
:10B5000014D8DFE800F007070707070D1C07222201
:10B5100022221C00624B00221A70624B052204E0BA
:10B520005F4B00221A705F4B04221A704F4BDA7A7D
:10B5300001929B7A00935C4B1B78227811E0584B68
:10B5400000221A70574B0622EFE7554B0222E3E721
:10B55000464B0C22D97A227001919B7A0093534B6F
:10B560001B7853495348097895E7404B5A6842B1D4
:10B5700042F20F718A428ABFA2F51C520022103A91
:10B580005A60DA7A01929B7A00930622FF23E8E759
:10B59000494D2B7833B3013BDBB2394A39493A483C
:10B5A0002B7011F017FF2A784449374811F012FF29
:10B5B0003749354811F00EFF334811F0E1F82A7889
:10B5C0003E493F4811F006FF31493D4811F002FF66
:10B5D00064201BF075FD254BDA7A01929B7A00936B
:10B5E0002B78AAE70C23D8E72F4A2D49137809783E
:10B5F00099420BBF2B4B03F1FF331B78DBB2137067
:10B600001A4AD17A0191927A00920922A9E72D4A29
:10B610002D491378097899420BBF2C4B03F1FF3366
:10B620001B78DBB21370114BDA7A01929B7A00938C
:10B630001D4B0A221B7894E7254A26491368A3F577
:10B64000C333A03B8B4298BF234B1360074BDA7A7E
:10B6500001929B7A00930B22FF2382E7F9D6002008
:10B66000F0D60020F8D60020FAD60020D0A1002085
:10B67000CCA20020BCA20020ECA2002000A300204D
:10B68000DA4807004840070030E200207949070007
:10B690001891070078A2002064A200206AE300202D
:10B6A00001D70020FFD60020FDD600200CD70020B7
:10B6B000CCA10020C8A10020FCD600206F490700C3
:10B6C00094E20020FED6002002D7002000D7002000
:10B6D00008D700207F47A1198047A1197E4A117819
:10B6E00006291CBF01F1FF33DBB213707B4AD17A0C
:10B6F0000191927A00920C2233E7794A13784BB188
:10B70000013BDBB21370754AD17A0191927A0092B3
:10B710000D2226E70923F5E7724A13780BB1581E6C
:10B72000C0B26E4B1070DA7A01929B7A00930E22AF
:10B73000034616E76C4A1378052B1ABF03F1FF3353
:10B74000DBB216231370654AD17A0191927A009286
:10B75000102206E7654811F057FA01287FF422AE5F
:10B76000634B1B78002B7FF41DAE624B1B780BB92B
:10B7700003F082F9604A6149614811F02BFE61498A
:10B780005F4811F027FE60495D4811F023FE5C48D8
:10B7900010F0F6FF5B495D4811F01CFE5A495B480A
:10B7A00011F018FE64201BF08BFC0021584811F0AA
:10B7B0003CFB584B012200201A70FBF707FF564B49
:10B7C0005A68002A3FF4EEAD00235148194607B0ED
:10B7D000BDE8F04F11F01FBB504B514D514C0022B2
:10B7E0001A70514B00210020C3E90001297800297B
:10B7F00040F03581464811F018FB0121444811F012
:10B8000014FB4348022111F010FB3A4B1B7813B98B
:10B81000012003F031F901233F4A2B7000232370EC
:10B820002E4B51685960517A52895A812F4859726A
:10B8300011F0EAF90546304A30493148002D00F050
:10B840008D8011F0C7FD39492D4811F0C3FD2E49F7
:10B850002B4811F0BFFD2A4810F092FF33492B48C6
:10B8600011F0B8FD2849294811F0B4FD64201BF0FF
:10B8700027FC2F4811F066F92E4B18702E4811F056
:10B8800085F92E4B18702E4811F04AF92D4B18707F
:10B890002D4811F069F92D4B18700023CDE90033C4
:10B8A00022782B492B48097803F00EF9124A1349E4
:10B8B000134811F08FFD22782749114811F08AFDB5
:10B8C00011490F4811F086FD0D4810F059FF2278FC
:10B8D0002149FFF749BB00BF0CD70020D0A10020B1
:10B8E00003D7002004D700200DD700206DE30020EF
:10B8F000CDD600204CA50020DA48070048400700BC
:10B9000030E200208A4907001891070094E20020E5
:10B9100011E30020A2D5002004A30020F9D60020C6
:10B92000F8D60020FAD60020F0D60020A049070063
:10B9300058E30020FDD600206AE30020FCD600205A
:10B9400055E30020FBD6002060E30020FED6002057
:10B9500000A30020ECA20020C349070011F03AFD2B
:10B96000A749A84811F036FDA749A64811F032FDB5
:10B97000A44810F005FFA249A44811F02BFDA249EC
:10B98000A24811F027FD64201BF09AFB2946A0482D
:10B99000A04D10F0B6FFA04810F06BFF28609F4844
:10B9A00010F078FF9E4B18709E4810F084FF9E4B5D
:10B9B00018709E4810F090FF9D4B18709D4810F035
:10B9C0009EFF9D4B9D4A18709D498E4811F002FDC7
:10B9D000286847F0DFFD88A3D3E9002347F06EFF16
:10B9E00006468D480F4610F044FF47F0D3FD82A372
:10B9F000D3E9002347F062FF32463B46CDE9000120
:10BA00009049804811F0E6FC7F497E4811F0E2FC45
:10BA10007C4810F0B5FE286847F0BCFD76A3D3E95A
:10BA2000002347F04BFF06467B480F4610F021FFEE
:10BA300047F0B0FD70A3D3E9002347F03FFF324643
:10BA4000CDE900013B467F49704811F0C3FC6E49C7
:10BA50006E4811F0BFFC64201BF032FB1DE7237819
:10BA6000102B3FF623AF01A252F823F0B1BA020027
:10BA7000C3BA0200D5BA0200D9BA0200F3BA020072
:10BA800011BB0200FDBC020015BB02006FBB02002F
:10BA90008BBB0200AFBB0200D3BB020085BC02001F
:10BAA000A3BC0200C1BC0200ADB80200DFBC0200B2
:10BAB0000122654B2270D97A01919B7A0093FF2372
:10BAC00022E0614B0022D97A227001919B7A009387
:10BAD000FF23E6E60622ECE75B4B5C495C4800226C
:10BAE0005A72DA7A01929B7A009309780223032230
:10BAF000DAE65549574BC87A1B7808222270019024
:10BB0000897A00910A33DBB2534954480978CBE66D
:10BB10000B22CEE7524D494A2B78494939480C2B24
:10BB20001ABF0133DBB200232B7011F053FC2A78CB
:10BB30004C49344811F04EFC3349324811F04AFC6C
:10BB4000304810F01DFE2A784649304811F042FC7A
:10BB50002D492E4811F03EFC64201BF0B1FA3A4BFF
:10BB6000DA7A01929B7A00932B782278CCE7394AD3
:10BB70001378B3FA83F35B091370334AD17A0191D6
:10BB8000927A00920A330822BEE7374A374913787F
:10BB9000097899420BBF364B01331B78DBB2137027
:10BBA000294AD17A0191927A00920922ACE7314A6E
:10BBB00031491378097899420BBF304B01331B7818
:10BBC000DBB21370204AD17A0191927A00920A2254
:10BBD0009AE7104A2A49136803F5C333A0338B420E
:10BBE00094BF13601160184BDA7A01929B7A00932C
:10BBF0000B22FF2388E700BF0000000084D7974195
:10BC0000A049070030E200201891070094E20020CC
:10BC10006EE3002008D7002079E300207AE30020BB
:10BC20000CD700207BE3002003D700207CE300201A
:10BC300004D700207EE300200DD70020DA4807005B
:10BC400048400700B5490700D0A1002078A2002095
:10BC500064A20020FBD60020CCA10020C8A10020B7
:10BC6000FCD600206F490700FDD60020FFD600203B
:10BC700001D70020FED6002000D7002002D70020E8
:10BC800000703839574A13780C2B1ABF0133DBB2D6
:10BC900006231370544AD17A0191927A00920C22B1
:10BCA00032E7524A1378092B1ABF0133DBB2002363
:10BCB00013704D4AD17A0191927A00920D2223E7B6
:10BCC0004B4A1378032B1ABF0133DBB200231370E6
:10BCD000454AD17A0191927A00920E2214E7454AA0
:10BCE0001378162B1ABF0133DBB2052313703E4ABB
:10BCF000D17A0191927A0092102205E73A4A53686C
:10BD000003F51C5310335360D37A0193937A009355
:10BD100006220023F8E6384B00221A70374B002029
:10BD20000021C3E90001364B1A78002A3FF43AABF0
:10BD3000344C2278102A0ED8DFE802F009222222A1
:10BD4000222248303030303C3C3C3C0D3C0000224C
:10BD50001A70FEF7D9FE2C4A2C492D4811F03AFBF7
:10BD600022782C492A4811F035FB2B49284811F03C
:10BD700031FB274810F004FD22782649FFF7F4B87C
:10BD8000194B2648D97A0022227001919B7A2449C6
:10BD900000930978FF2302F097FEDCE7124B21485D
:10BDA000D97A0422227001919B7A1F490093097865
:10BDB000FF23F0E70C4B1D48D97A05222270019130
:10BDC0009B7A1B4900930978FF23E4E7064B194847
:10BDD000D97A0222227001919B7A1749009309783F
:10BDE000FF23D8E70CD70020D0A1002003D70020E4
:10BDF00004D700200DD70020F9D60020F0D600206F
:10BE0000F8D60020FAD60020DA480700484007009C
:10BE100030E20020D449070018910700ECA200206E
:10BE200000A30020A4A20020B8A20020D0A20020DD
:10BE3000E8A20020BCA20020CCA2002070B598B0DF
:10BE400014460A490EA811F03FF90023CDE9143336
:10BE5000CDE91633636E012B0CD1054920680DF036
:10BE6000ECFE48B1022400F0EDBC00BF1A910700BF
:10BE700099B00700002BF5D1B649B748B74CB84D7B
:10BE8000B84E11F0A7FAB849B34811F0A3FAB14976
:10BE9000B64811F09FFAB449B44811F09BFA6420F7
:10BEA0001BF00EF9637AB24955F82320AA4811F025
:10BEB00091FAAD49A84811F08DFA637AAC4955F86A
:10BEC0002320AA4811F086FAA749A84811F082FA5F
:10BED00064201BF0F5F8A74911A810F04FFF11A935
:10BEE0000EA811F004F911A811F0A8F80EA811F08D
:10BEF00041F90E9AA049984811F06CFA9A4996486F
:10BF000011F068FA0E9A9C49984811F063FA964924
:10BF1000964811F05FFA64201BF0D2F8974911A8F7
:10BF200010F00CFF119A96498B4811F053FA11A8A2
:10BF300011F084F88C49884811F04CFA8F4911A807
:10BF400010F0FCFE119A8E49884811F043FA11A8AE
:10BF500011F074F88449854811F03CFA64201BF014
:10BF6000AFF84FF47A7562688649B2FBF5F27A4809
:10BF700011F030FA7C49784811F02CFA6268814956
:10BF8000B2FBF5F2794811F025FA7749774811F0BC
:10BF900021FA64201BF094F87B4810F035FE7B49B1
:10BFA00056F8202005466C4811F014FA6E496A488C
:10BFB00011F010FA56F8252074496C4811F00AFA6D
:10BFC00069496A4811F006FA64201BF079F8012DDE
:10BFD00040F04E836E486F4E6F4D10F09FFD6F49DD
:10BFE000002814BF32462A465B4811F0F3F95E4937
:10BFF000594811F0EFF9664810F090FD67490028A4
:10C0000014BF32462A465948654E11F0E3F95649A5
:10C01000564811F0DFF964201BF052F8614810F027
:10C02000B5FD6149054602464B4811F0D3F94E492A
:10C03000494811F0CFF92A465B494C4811F0CAF93A
:10C0400049494A4811F0C6F964201BF039F856F8FE
:10C0500025205649404811F0BDF943493E4811F0AA
:10C06000B9F956F825205149404811F0B3F93E4935
:10C070003E4811F0AFF964201BF022F84C4810F054
:10C0800046FD002800F0BE814A49334811F0A2F96C
:10C090003549314811F09EF94649344811F09AF972
:10C0A0003149324811F096F964201BF009F8082252
:10C0B00014A9414810F00AFD9DF8573005939DF8EA
:10C0C000563004939DF8553003939DF854300293F5
:10C0D0009DF8533001939DF852309DF85020374918
:10C0E00000931D489DF8513011F074F91E491A480B
:10C0F00011F070F99DF8573005939DF85630049370
:10C100009DF8553003939DF8543002939DF85330B9
:10C1100001939DF852309DF8502028490093134810
:10C120009DF8513011F056F90F49104811F052F9AD
:10C1300064201AF0C5FF082214A9214810F0A2FCBF
:10C140009DF8573005939DF8563004939DF855306F
:10C1500038E000BF4F4A070030E2002004A300206F
:10C1600070A40020CCA300201891070094E20020C6
:10C170005E4A0700E8E200206C4A0700ACE20020BB
:10C18000A97E0700774A07006DE30020874A070071
:10C1900054E300200D8E0700414A0700974A07002C
:10C1A00098A300206AE30020A24A0700AD4A0700D6
:10C1B00053E30020B84A07004EE30020C24A0700BC
:10C1C0004AE3002003939DF8543002939DF85330C6
:10C1D00001939DF852309DF850207D4900937D4891
:10C1E0009DF8513011F0F6F87B497A4811F0F2F8D9
:10C1F0009DF8573005939DF8563004939DF85530BF
:10C2000003939DF8543002939DF8533001939DF8A9
:10C2100052309DF850206E49009370489DF851307F
:10C2200011F0D8F86C496D4811F0D4F864201AF078
:10C2300047FF102214A96A4810F02DFC9DF85F30CA
:10C240000D939DF85E300C939DF85D300B939DF837
:10C250005C300A939DF85B3009939DF85A3008933F
:10C260009DF8593007939DF8583006939DF8573044
:10C2700005939DF8563004939DF8553003939DF82F
:10C28000543002939DF8533001939DF852309DF83D
:10C290005020544900934F489DF8513011F09AF8BE
:10C2A0004D494C4811F096F89DF85F300D939DF87C
:10C2B0005E300C939DF85D300B939DF85C300A93D3
:10C2C0009DF85B3009939DF85A3008939DF85930DA
:10C2D00007939DF8583006939DF8573005939DF8C5
:10C2E000563004939DF8553003939DF854300293D3
:10C2F0009DF8533001939DF8523000939DF85020E3
:10C300009DF851303749354811F064F832493348C7
:10C31000354E364D11F05EF864201AF0D1FE3449E6
:10C320002C4811F057F82C492A4811F053F830499D
:10C330002A4811F04FF82849284811F04BF864209A
:10C340001AF0BEFE627A2B49224811F043F82249C6
:10C35000204811F03FF8627A2649204811F03AF857
:10C360001D491E4811F036F864201AF0A9FEA27A81
:10C3700021491848002A14BF32462A4611F02AF8EB
:10C380001549144811F026F8A27A1B491348002ACF
:10C3900014BF32462A4611F01DF80F490F48174EB8
:10C3A00011F018F864201AF08BFE15481BF0A0F964
:10C3B0000025B4F88E20EBB2934205F1010580F21E
:10C3C0003D8223443046197B1BF092F9F1E700BF10
:10C3D000EA4A070030E200201891070094E20020AA
:10C3E0004BE30020124B07004C4A0700D6480700D9
:10C3F000734C0700834C0700914C070053D2070091
:10C40000A24C07009049914810F0E4FF90498F48F2
:10C4100010F0E0FF8C498F4810F0DCFF8C498D480C
:10C4200010F0D8FF64201AF04BFE14A910228A489D
:10C4300010F03AFB9DF85F300D939DF85E300C9341
:10C440009DF85D300B939DF85C300A939DF85B304E
:10C4500009939DF85A3008939DF8593007939DF839
:10C46000583006939DF8573005939DF85630049345
:10C470009DF8553003939DF8543002939DF8533046
:10C4800001939DF852309DF85020009373499DF818
:10C4900051306E4810F09EFF6D496C4810F09AFFC5
:10C4A0009DF85F300D939DF85E300C939DF85D30E4
:10C4B0000B939DF85C300A939DF85B3009939DF8CF
:10C4C0005A3008939DF8593007939DF858300693D9
:10C4D0009DF8573005939DF8563004939DF85530DC
:10C4E00003939DF8543002939DF8533001939DF8C7
:10C4F00052309DF85020009358499DF851305548CE
:10C5000010F068FF5249534810F064FF64201AF09D
:10C51000D7FD14A91022524810F0E1FA9DF85F30BF
:10C520000D939DF85E300C939DF85D300B939DF854
:10C530005C300A939DF85B3009939DF85A3008935C
:10C540009DF8593007939DF8583006939DF8573061
:10C5500005939DF8563004939DF8553003939DF84C
:10C56000543002939DF8533001939DF852309DF85A
:10C57000502000933B499DF85130344810F02AFF79
:10C580003349324810F026FF9DF85F300D939DF837
:10C590005E300C939DF85D300B939DF85C300A93F0
:10C5A0009DF85B3009939DF85A3008939DF85930F7
:10C5B00007939DF8583006939DF8573005939DF8E2
:10C5C000563004939DF8553003939DF854300293F0
:10C5D0009DF8533001939DF852309DF85020009300
:10C5E00020499DF851301B4810F0F4FE18491948B5
:10C5F00010F0F0FE64201AF063FD14A904221A481A
:10C6000010F05BFA9DF8533001939DF852309DF87D
:10C610005020009315499DF851300C4810F0DAFE77
:10C620000B490A4810F0D6FE9DF8533001939DF84F
:10C63000523000939DF850209DF851300B49054829
:10C6400010F0C8FE62E600BF5A4B070030E200203F
:10C650001891070094E200204CE30020634B070090
:10C6600050E30020AC4B07004DE30020F54B0700E2
:10C670007748002D40F09B8010F0FBF8754902468A
:10C68000754810F0A7FE7549734810F0A3FE704876
:10C6900010F0EFF86F490246714810F09BFE6F49A9
:10C6A0006F4810F097FE64201AF00AFD6D4810F0F4
:10C6B000F1F86D490246684810F08CFE67496648FB
:10C6C00010F088FE674810F0E5F8674902466448B4
:10C6D00010F080FE6149624810F07CFE64201AF080
:10C6E000EFFC624810F0E7F8614902465A4810F042
:10C6F00071FE5A49584810F06DFE5C4810F0DBF8A6
:10C700005B490246564810F065FE5449544810F003
:10C7100061FE64201AF0D4FC564810F0DDF856494A
:10C7200002464D4810F056FE4C494B4810F052FE60
:10C73000504810F0D1F850490246494810F04AFEDE
:10C740004649474810F046FE64201AF0B9FC4B48B1
:10C7500010F0D3F84A4902463F4810F03BFE3F49EB
:10C760003D4810F037FE454810F0C7F844490246EE
:10C770003B4810F02FFE3949394810F02BFE642059
:10C780001AF09EFC3F4810F0BAF83F490246324882
:10C7900010F020FE3149304810F01CFE394810F0EE
:10C7A000AEF8394902462E4810F014FEAEE510F0FE
:10C7B00060F828490246284810F00CFE2749264810
:10C7C00010F008FE224810F054F82249024624488E
:10C7D00010F000FE2149224810F0FCFD64201AF000
:10C7E0006FFC2A4810F0BFF8294902461A4810F099
:10C7F000F1FD1A49184810F0EDFD244810F0B3F887
:10C8000023490246164810F0E5FD1449144810F07B
:10C81000E1FD64201AF054FC1E4810F0A6F81E49F1
:10C8200002460D4810F0D6FD0C490B4810F0D2FD21
:10C83000184810F09AF818490246B4E707481AF069
:10C8400057FF00240EA810F0F9FB204618B070BD69
:10C8500079E300200E4C070030E200201891070019
:10C8600094E200207AE300201D4C07007BE30020C7
:10C87000254C07007CE300202D4C07007DE30020C1
:10C88000354C07007EE300204A4C070082E300207D
:10C89000584C070083E30020654C070073B5556EC4
:10C8A000012D0E4625D1144910680DF0C6F9044635
:10C8B000E0B90425CDE90005022332460F491048AE
:10C8C00010F088FD0F490E4810F084FD0223324617
:10C8D000CDE9004509490C4810F07CFD09490A489A
:10C8E00010F078FD64201AF0EBFB2546284602B0D4
:10C8F00070BD0125FAE700BF99B00700B34C0700EF
:10C9000030E200201891070094E200202DE9FF4159
:10C91000536E012B0D46144624D1394910680DF091
:10C920008CF9044620B10224204604B0BDE8F08111
:10C9300002F058FE2946334810F018FD32493148BC
:10C9400010F002FD314A3249D3790393937902936F
:10C95000537901931379009393782A48128810F041
:10C9600039FDE1E7052BDED1161F02F1100756F85D
:10C97000045F28460DF073F92B462844984205D0F1
:10C9800013F8012B303A092AF8D9CCE7BE42EED190
:10C990000022114620680DF0CFFA40F2D233A0F207
:10C9A000E6729A420546BED80022606811460DF034
:10C9B000C3FA431E0B2B0646B5D80022A0681146C9
:10C9C0000DF0BAFA431E1E2B0746ACD80022E068D1
:10C9D00011460DF0B1FA18288046A4D8002220692B
:10C9E00011460DF0A9FA3B289DD8C2B200925FFA19
:10C9F00088F3FAB2F1B2A8B202F0AEFD002493E7D8
:10CA000099B0070030E2002018650700CCD900205B
:10CA1000CC4C070007B503230193054B0093054B4E
:10CA2000054A0648194610F0CAF903B05DF804FB40
:10CA300029D00200E74C0700EF4C07000EE300206E
:10CA400007B503230193054B0093054B054A0648A0
:10CA5000194610F0B4F903B05DF804FB39D20200B6
:10CA6000474D07004C4D07000EE3002007B5032398
:10CA70000193054B0093054B054A0648194610F0F3
:10CA80009EF903B05DF804FB3DD40200AA4D0700F7
:10CA9000AF4D07000EE3002007B503230193054BBC
:10CAA0000093054B054A0648194610F088F903B073
:10CAB0005DF804FB49CB0200D64D0700DB4D0700B3
:10CAC0000EE3002007B503230193054B0093054BAC
:10CAD000054A0648194610F072F903B05DF804FBE8
