:020000022000DC
:1070000000000420718A0300998A03009B8A030010
:107010009D8A03009F8A0300A18A030000000000EC
:10702000000000000000000000000000A38A030030
:10703000A58A03000000000000000000000000001E
:107040009D790500A78A03001D980500757F05003E
:10705000A78A0300DD750500B5730500CD5B06004A
:10706000A78A0300B57E0500C97E0500A78A030034
:10707000A78A0300A78A0300A78A0300A78A030040
:10708000D1680600B54B0500A78A0300A78A030054
:10709000A78A0300A78A030055520600A78A0300A7
:1070A000A78A0300A78A0300DD7E0500F17E0500A4
:1070B000A78A0300A78A0300000000000000000068
:1070C000A78A0300A78A0300A78A030009610600B4
:1070D000CD7B0500A78A0300A78A03002D95050034
:1070E000A5950600A78A0300E5BC06000000000085
:1070F00000000000A78A030000000000D964060019
:10710000000000000000000000000000000000007F
:10711000000000000000000000000000000000006F
:10712000000000000000000000000000000000005F
:10713000000000000000000000000000000000004F
:10714000000000000000000000000000000000003F
:10715000000000000000000000000000000000002F
:10716000000000000000000000000000000000001F
:10717000000000000000000000000000000000000F
:1071800000000000000000000000000000000000FF
:1071900000000000000000000000000000000000EF
:1071A00000000000000000000000000000000000DF
:1071B00000000000000000000000000000000000CF
:1071C00000000000000000000000000000000000BF
:1071D00000000000000000000000000000000000AF
:1071E000000000000000000000000000000000009F
:1071F000000000000000000000000000000000008F
:1072000010B5054C237833B9044B13B10448AFF3E0
:1072100000800123237010BD60D500200000000015
:1072200058FB070008B5034B1BB103490348AFF3F4
:10723000008008BD0000000064D5002058FB070056
:10724000154B002B08BF134B9D46A3F5803A002138
:107250008B460F461348144A121A0FF069F80F4B69
:10726000002B00D098470E4B002B00D098470020F1
:10727000002104000D000D48002802D00C48AFF397
:1072800000800FF005F8200029000EF08BFD0EF0B5
:10729000EBFF00BF00000800000004200000000019
:1072A0000000000060D500203CC501200000000067
:1072B000000000000022C0E900220172704738B5CA
:1072C0000446006820B1856911F008FB2846F9E7FB
:1072D000204638BD006820B143688B4201D08069E8
:1072E000F9E77047F8B504460F4616461D46FFF706
:1072F000F1FF20B10123826005704370F8BD1C20AE
:1073000011F0F0FA012343700023C0E90333C0E910
:10731000053323680570C0E9017613B92060606009
:10732000ECE763689861FAE72DE9F8430468164FC3
:1073300005460E464FF000081CB363680BB9A469FC
:10734000FAE72378002BFAD0E368A268F31A9A428E
:1073500002D961780029F2D09B1A636184F8018018
:10736000E66013F00DFA63688146984713F008FA57
:107370003B68A0EB0900206118442B7A3860002B91
:10738000DDD0BDE8F88300BF7CD5002008B5074BF1
:1073900050B103221A700648FA22012112F04DFE64
:1073A000044B00221A7008BD0522F3E780D50020A7
:1073B00011E30020D1D60020054B064800221A70A8
:1073C000054B08221A700121FA2212F036BE00BFC6
:1073D000D1D6002011E3002080D5002084B004AB7A
:1073E00003E90700094BBDF90A201A80084B9DF9F3
:1073F0000C201A70074B084800221A70074B012115
:10740000FA22197004B012F018BE00BFB2D50020E5
:10741000B4D50020D1D6002011E3002080D5002073
:10742000134B00221A70134B5B7A023B012B1DD9C0
:10743000114B90F906201A70104BB0F904201A80F5
:107440000F4A037813700F4A417811700E4A817801
:1074500011701BB10D4A1368013313600C4B0D48BA
:1074600004221A700121FA2212F0E7BD704700BF12
:10747000D1D6002004A30020B4D50020B2D500202E
:10748000B7D60020B5D60020B6D60020C4D600203E
:1074900080D5002011E300202DE9F0438E4D8F4E62
:1074A0008F4CDFF89482012700232F703370637AAA
:1074B000023BBB4285B000F241818A4806F0A3FA44
:1074C000E37A002B00F0C280874A98F800301178E8
:1074D0009146002940F0A6807BB1844B1B7863B9AC
:1074E00004F03AFF637A022B0CBF81488148394689
:1074F00004F0D2FD804804F0D1FE04F0FDF900B3A1
:107500007E4B1B781BB97E48012112F076FCB4F843
:107510008E0004F0CDF8002800F06E81714806F06E
:1075200075FA03906F4806F073FA01240246CDE91C
:10753000004403997348234612F05EFB00286CD187
:107540005DE0714A117809BB704B1B7803F0FF07AF
:10755000E3B90123634889F8003006F054FA6C4B14
:107560006C481F8041F288326368B3FBF2F36A4AC9
:1075700013806A4B1F706A4B40F6C4121F700321C0
:107580003B4605B0BDE8F04312F057BD0023137031
:1075900098F800304BB1554B1B7833B961496248BC
:1075A0000FF05DFC604804F079FE637A032B29D16B
:1075B0005E4B4C481B6800221BB2114606F060F976
:1075C0004E4B1B781BB94E48012112F016FCB4F843
:1075D0008E0004F06DF8002800F00E81414806F09E
:1075E00015FA03903F4806F013FA01240246CDE94C
:1075F000004403994348234612F0FEFA60B928700C
:1076000034700AE000230093B7EE000A1A461946C8
:10761000344806F069F8D3E72C70444A1368013304
:107620001360E9E0002B00F0E780304B1B78002B63
:1076300040F0E28004F090FE2D48394604F02CFD25
:107640003B4805B0BDE8F04304F028BE98F8003090
:107650005BB1264B1B7843B904F07EFE24483946C3
:1076600004F01AFD334804F019FE637A032B28D185
:107670002E4B1C481B6800221BB2114606F000F975
:107680001E4B1B781BB91E48012112F0B6FBB4F843
:107690008E0004F00DF8002800F0AE80114806F0CE
:1076A000B5F903900F4806F0B3F901230246CDE97E
:1076B00000330399134812F09FFA0028ADD12870C7
:1076C000ABE700230093B7EE000A1A4619460548B7
:1076D00006F00AF8D4E700BFD1D60020D8A30020D6
:1076E00004A30020A4D50020ACD5002000D70020A2
:1076F0008012070090120700A1120700D0D60020C8
:107700006CE3002049E30020A2D5002081D50020B1
:1077100020D7002011E3002022D7002050D70020DE
:1077200051D70020BC120700B5D50020C8D60020D4
:10773000D2120700E6120700AED5002098F80030FC
:1077400073B1374B93F80080B8F1000F08D104F003
:1077500003FE3448394604F09FFC334B83F8008025
:10776000324806F050F9324812F056FB002846D055
:10777000304812F0DBFA00283BD00121242012F01F
:10778000EEFF2D4B1B78C3B12C4804F087FD2C4B2A
:107790001B781BB92B48012112F02FFBE37A9BB118
:1077A00004F0AAF820B9284A00231360274A13607E
:1077B0001E4806F02BF980B2ABE61B4B1B780BB1D1
:1077C0002348E2E72348E0E7B4F88E0003F070FFB7
:1077D00090B10127CDE900771F4A94F88E101F4819
:1077E000022312F009FA00287FF417AF28703770CF
:1077F00013E701232870337005B0BDE8F083012141
:10780000232012F0ACFF134804F048FD0123124A74
:1078100094F88E10124812F09AF901232B70FCE6AE
:1078200000D70020F2120700A2D50020A4D5002026
:107830006DE3002054E3002081D5002003130700EE
:10784000D0D600206CE3002034D7002030D70020B1
:10785000141307002313070010A3002049E300209E
:107860006EE30020000000002DE9F04F00218BB0F6
:107870009D4C0546242012F072FF0021232012F0B7
:107880006EFF23788BB1994B1B7873B904F064FDBC
:10789000974B5B7A022B40F0AC80964996480FF0EC
:1078A000DEFA9548012104F0F7FB002D00F0FF807F
:1078B0002A78012A40F06A81904B1B78002B31D046
:1078C0008F4B1B78002B00F0998005F0E7FA8D4A6A
:1078D0008D4B11881980917899701179D9705179EF
:1078E00019719179D27959719A710122DA718749A6
:1078F00000221A720968D9608549096819618549A9
:107900001A755A75098849B2D9758349097849B2F7
:1079100019765A839A83DA83804A126812B21A84DB
:1079200005F078FC2378002B00F0C1806F4B1C78A9
:10793000002C40F0BC807A496F480FF090FA6E49F5
:1079400007A812F0D3FC07AA2146204604F020FD28
:1079500007A812F085FC734B73491A6866480FF04C
:1079600047FA654907A812F0C1FC07AA2146012081
:1079700004F00EFD07A812F073FC6C4812F081F8B9
:1079800048F034FF56A3D3E9002349F0D3F80B465F
:107990000246674958480FF02BFA574907A812F0DA
:1079A000A5FC07AA2146022004F0F2FC07A812F069
:1079B00057FC604812F076F85F4902464E480FF0D7
:1079C00017FA4D4907A812F091FC07AA2146032097
:1079D00004F0DEFC07A812F043FC584812F073F8DC
:1079E000092879D8DFE800F00D66686A6C6E70725D
:1079F0007476032B0CBF524952494FE705F072FAD7
:107A000065E7514905A80FF02AFA4C4812F05BF8D7
:107A10004E4B4F4953F8202037480FF0E9F93649CB
:107A200007A812F063FC07AA4021032004F0B0FC71
:107A300007A812F015FC474812F056F84649421DB7
:107A40002D480FF0D5F92C4907A812F04FFC07AAD2
:107A50004021022004F09CFC07A812F001FC2D4BF1
:107A60003E491A88244812B20FF0C2F9224907A8E9
:107A700012F03CFC07AA0021042004F089FC07A8AE
:107A800012F0EEFB244B36491A7852B21A480FF026
:107A9000AFF9194907A812F029FC07AA40210420D0
:107AA00004F076FC07A812F0DBFB04F08BFC0BB0B3
:107AB000BDE8F08F2B49A5E72B49A3E72B49A1E7A8
:107AC0002B499FE72B499DE72B499BE72B4999E7DA
:107AD0002B4997E72B4995E72B4993E7AFF30080B4
:107AE0000000000080842E41AED5002000D7002089
:107AF00004A3002080120700B5D50020AFD50020D8
:107B0000DCD90020D4D90020A4A1002030D7002047
:107B100034D70020B2D50020B4D50020C4D6002030
:107B200035130700C8D600204313070079E300206F
:107B3000571307007AE30020461E07007BE300206E
:107B400090120700F21207005E1307007CA20020CB
:107B5000941307007CE300205F1E07002D1507002B
:107B60003815070062130700661307006A13070041
:107B70006E13070073130700791307007F130700C4
:107B8000851307008B130700901307007E4B1B78AB
:107B9000022B40F09E807D4B00221A707C4B1B789C
:107BA000002B2FD07B4B1B78002B64D005F076F98F
:107BB000794B7A4D1A882A809A78AA701A79EA70D5
:107BC0005A792A719A79DB796A71AB71744A75486E
:107BD0000023EB712B721268EA60734A12682A6103
:107BE0002B756B75EB752B766B83AB83EB836F4BD0
:107BF0001B681BB22B8412F0ADF840B285F822004E
:107C000005F008FB2378002B3FF451AF684B1C783C
:107C1000002C7FF44CAF67496748684D0FF01FF99F
:107C2000654907A812F062FB07AA2146204604F026
:107C3000AFFB07A812F014FB2A6861495E480FF0F9
:107C4000D7F85D4907A812F051FB07AA2146022088
:107C500004F09EFB07A812F003FB2B68013B0F2BDF
:107C600035D8DFE803F00B16181A1C1E2022242634
:107C7000282A2C2E303205F035F999E751494E4823
:107C80000FF0EDF84C4907A812F030FB07AA0021CD
:107C900005E74D49F3E74D49F1E74D49EFE74D4918
:107CA000EDE74D49EBE74D49E9E74D49E7E74D4938
:107CB000E5E74D49E3E74D49E1E74D49DFE74D4948
:107CC000DDE74D49DBE74D49D9E74D49D7E74D4958
:107CD000D5E7032A40F0A4802378002B3FF4E7AED9
:107CE000334B1E78002E7FF4E2AE474C657A022DAE
:107CF00041D0032D46D05DB9444907A812F0F6FAE9
:107D000007AA2946084604F043FB07A812F0A8FA80
:107D10004FF47A7362683E49B2FBF3F226480FF0E3
:107D200067F8254907A812F0E1FA07AA0021012007
:107D300004F02EFB07A812F093FA364907A812F0B8
:107D4000D5FA002107AA022004F022FB07A812F0AE
:107D500087FA224918480FF082F8174907A812F04D
:107D6000C5FA002107AA032004F012FB07A812F0AD
:107D700077FA284987E7284907A812F0B7FA07AA2F
:107D80003146BFE72549F7E780D50020D1D600204E
:107D9000AFD50020DCD90020D4D90020A4A1002038
:107DA00030D7002058E3002034D70020C4D600206C
:107DB00000D700209A130700B5D50020D4D60020A4
:107DC000A9130700B3130700C1130700CC13070062
:107DD000D8130700E4130700EE130700F813070099
:107DE00004140700181407002B1407003B140700A5
:107DF00048140700521407006214070070140700AB
:107E00007C1407008D14070004A300209B140700B6
:107E1000CF1407001BBD0700AA140700BB140700FE
:107E2000042A40F0A281924B1B78002B3FD0914B4B
:107E30001B78002B00F0D68005F030F88E4B8F4D6C
:107E40001A882A809A78AA701A79EA705A792A715F
:107E50009A79DB796A71AB71894A8A480023EB71A0
:107E60001278D2B22A72884A1268EA60874A126887
:107E70002A61874A118849B22975118849B2697502
:107E8000128852B2EA75834A127852B22A766B830C
:107E9000AB83814B1B78EB83804B1B681BB22B841D
:107EA00011F058FF40B285F8220005F0B3F92378AD
:107EB000002B3FF4FCAD7A4B1C78002C7FF4F7AD1F
:107EC000784D794B2978794A7948744FDFF80882E0
:107ED000002918BF1A4677490EF08AFF744907A88F
:107EE00012F004FA07AA2146204604F051FA07A826
:107EF00012F0B6F92B7803F0FF06002B75D1664B14
:107F00006D491A786A480EF073FF694907A812F0A4
:107F1000EDF907AA3146012004F03AFA07A812F059
:107F20009FF9584811F016FF6449024660480EF068
:107F30005FFF5F4907A812F0D9F907AA314602206E
:107F400004F026FA07A812F08BF94D4B5C491A7819
:107F500057480EF04DFF564907A812F0C7F907AA77
:107F60004021022004F014FA07A812F079F9D8F899
:107F7000002054494E480EF03BFF4D4907A812F02F
:107F8000B5F907AA3146032004F002FA07A812F057
:107F900067F93A684C4946480EF02AFF444907A859
:107FA00012F0A4F907AA4021032004F0F1F907A870
:107FB00012F056F9364B45491A883D4812B20EF078
:107FC00017FF3B4907A812F091F907AA3146042090
:107FD00004F0DEF907A812F043F92E4B3C491A7859
:107FE00052B253E504F07EFF28E7D8F80020354967
:107FF0002F480EF0FDFE2E4907A812F077F907AAC8
:108000002146012004F0C4F907A812F029F93A68C2
:108010002D4927480EF0ECFE254907A812F066F915
:1080200007AA4021012004F0B3F907A812F018F9BB
:108030002A7828491E480EF0DBFE1D4907A812F0D9
:1080400055F907AA2146022004F0A2F907A812F068
:1080500007F92B78013B0F2B00F28580DFE803F056
:108060003E6567696B6D6F71737577797B7D7F8115
:10807000AFD50020DCD90020D4D90020A4A1002055
:10808000B6D6002058E3002030D7002034D7002097
:10809000B2D50020B4D50020B5D60020C4D600202B
:1080A00000D70020B7D60020311307005116070073
:1080B000B5D50020E3140700F414070008150700E5
:1080C000111507001A150700221507002A150700C9
:1080D000351507003F150700C8D60020454946481A
:1080E0000EF0BDFE444907A812F000F907AA0021CE
:1080F000032004F04DF907A812F0B2F83F4811F040
:1081000029FE3F4902463C480EF072FE3A4907A854
:1081100012F0ECF807AA0021042004F039F907A8AE
:1081200012F09EF804F04EF9BFE43649D7E736491D
:10813000D5E73649D3E73649D1E73649CFE736495F
:10814000CDE73649CBE73649C9E73649C7E736496F
:10815000C5E73649C3E73649C1E73649BFE736497F
:10816000BDE73649BBE73649B9E7052A7AD1237816
:10817000002B3FF49CAC334B1E78002E7FF497AC61
:10818000314C657A022D31D0032D31D05DB92F49A4
:1081900007A812F0ABF80021084607AA04F0F8F887
:1081A00007A812F05DF84FF47A7362682849B2FBB1
:1081B000F3F211480EF01CFE0F4907A812F096F8D2
:1081C00007AA0021012004F0E3F807A812F048F8FC
:1081D000204907A812F08AF8002107AA022004F01B
:1081E000D7F807A812F03CF81B49B3E51B49CFE7C5
:1081F0001B49CDE7B3130700B5D5002058E3002095
:1082000054150700C1130700CC130700D81307004B
:10821000E4130700EE130700F81307000414070027
:10822000181407002B1407003B140700481407001C
:108230005214070062140700701407007C14070032
:108240008D14070000D7002004A300209B14070012
:10825000CF1407001BBD07005D150700AA14070017
:10826000BB140700062B40F0B782A04BA04ADE7873
:108270001D7993F801809F7893F805901278C6EBEA
:10828000461106EB8106C5EB451105EB81059949C1
:108290000391487A76006D00032836B22DB240F083
:1082A0005781197893F807A008EB01281FFA88F87E
:1082B0000A21B8FBF1F107EE901A8F49F8EEE77A40
:1082C00038370AF1380AC1ED007A7FB24FEA29192E
:1082D0004FFA8AFA8B46002A3CD0884B1B78002B39
:1082E00000F0DB8004F0DAFD854A864B11881980A6
:1082F000917899701179D970517919719179D279F0
:1083000059719A710322DA715FFA89F21A727E4A00
:108310007E481268DA607E4A12681A6100217D4A3E
:1083200019755F7583F816A0128852B2DA757A4A09
:1083300012780FFA88F852B21A765E839D83D98339
:10834000A3F8208011F006FD6E4B40B283F82200A6
:1083500004F060FF2378002B3FF4A9AB6F4B1C782F
:10836000002C7FF4A4AB03F0F7FF6D48DFF8DC814D
:10837000012103F091FE684B6A491A78654B6A48FF
:108380001B8852B21BB20EF033FD674907A811F0EB
:10839000ADFF07AA2146204603F0FAFF07A811F017
:1083A0005FFF3B46524661495F480EF021FD5E4942
:1083B00007A811F09BFF07AA2146012003F0E8FF60
:1083C00007A811F04DFF4A46594957480EF010FDD5
:1083D000554907A811F08AFF07AA2146022003F099
:1083E000D7FF07A811F03CFF524907A811F07EFF04
:1083F00007AA3221022003F0CBFF07A811F030FFBB
:108400004D4907A811F072FF07AA5021022003F07E
:10841000BFFF07A811F024FF484907A811F066FF25
:1084200007AA2146032003F0B3FF07A811F018FFA5
:10843000039BDF7A002F33D0324641493A480EF091
:10844000D7FC394907A811F051FF07AA32210320B0
:1084500003F09EFF07A811F003FF2A46384932486F
:108460000EF0C6FC304907A811F040FF07AA5021C2
:10847000032003F08DFF07A811F0F2FEDBF80000E7
:10848000D8F8005048F0D4F9009502460B462D4923
:1084900025480EF0ADFCFFF7F5BB04F023FD23E704
:1084A000294921480EF0DBFC1F4907A811F01EFFE7
:1084B00007AA3221032003F06BFF07A811F0D0FEBA
:1084C000194907A811F012FF07AA5021032003F051
:1084D0005FFF07A811F0C4FEDBF80000D8F80040E9
:1084E00048F0A6F9009402460B46D0E782D500205A
:1084F000AFD5002004A30020CCD60020DCD900207A
:10850000D4D90020A4A1002030D7002058E30020B7
:1085100034D70020B2D50020B4D5002000D70020E9
:108520009012070073150700B5D500208A150700C3
:10853000A1150700AC150700B0150700B41507001A
:1085400005150700BD150700D2150700C8D6002085
:10855000A8F1C808C83F1FFA88F81FFA87FA002A4E
:108560003CD0874B1B78002B00F0F68004F096FC83
:10857000844B854F1A883A809A78BA701A79FA70C3
:108580005A793A719A79DB797A71BB710223FB715E
:108590007E4B87F808901B68FB607D4B7D481B680D
:1085A0003B614FFA88F33B754FFA8AF37B757A4B40
:1085B0001B885BB2FB75794B1B785BB23B76002363
:1085C0007E83BD83FB83764B1B681BB23B8411F01B
:1085D000C1FB40B287F8220004F01CFE2378002B78
:1085E0003FF465AA6F4B1C78002C7FF460AA03F05F
:1085F000B3FE6D48012103F04FFD684B6B491A78BB
:10860000654B6B481B8852B21BB20EF0F1FB6849F8
:1086100007A811F06BFE07AA2146204603F0B8FE1A
:1086200007A811F01DFE4FFA89F262496048DFF891
:1086300070910EF0DDFB5E4907A811F057FE07AA06
:108640002146012003F0A4FE07A811F009FE5A49B3
:1086500007A811F04BFE07AA3221012003F098FE73
:1086600007A811F0FDFD554907A811F03FFE07AA24
:108670005021012003F08CFE07A811F0F1FD5049B4
:1086800007A811F033FE07AA2146022003F080FE5E
:1086900007A811F0E5FD4B4907A811F027FE07AA2E
:1086A0002146032003F074FE07A811F0D9FD0FFA4C
:1086B00088F245493E48DFF81C810EF099FB3C49A1
:1086C00007A811F013FE07AA3221022003F060FE72
:1086D00007A811F0C5FD0FFA8AF23B4934480EF0A5
:1086E00087FB334907A811F001FE07AA32210320B6
:1086F00003F04EFE07A811F0B3FD039BDF7A77B3BA
:10870000324631492A480EF073FB294907A811F077
:10871000EDFD07AA5021022003F03AFE07A811F050
:108720009FFD294922482A460EF062FB204907A8EE
:1087300011F0DCFD07AA5021032003F029FE07A851
:1087400011F08EFDD9F80020D8F800301F491848E4
:108750000EF04EFBFFF796BA04F0C4FB08E71C4985
:1087600013480EF07CFB124907A811F0BFFD07AAC1
:108770005021022003F00CFE07A811F071FDD5E78F
:10878000DCD90020D4D90020A4A1002030D70020BB
:1087900034D7002058E30020B2D50020B4D5002003
:1087A000C4D6002000D700208012070073150700F0
:1087B000B5D50020A115070056690700B4150700BC
:1087C000AC150700B015070005150700D515070003
:1087D000D2150700C8D60020072B67D15E4B1B7847
:1087E000002B30D05D4B1B78002B58D004F056FB8B
:1087F0005B4B5C4D1A882A809A78AA701A79EA70C5
:108800005A792A719A79DB796A71AB710223EB711B
:10881000554A564800232B721268EA60544A12687F
:108820002A612B756B75EB752B766B83AB83EB83B2
:10883000504B1B681BB22B8411F08CFA40B285F8A8
:10884000220004F0E7FC2378002B3FF430A94A4BC8
:108850001B78002B7FF42BA9484C03F07DFD627A36
:10886000032A0CBF46484748012103F015FC46493E
:1088700046480EF0F4FA454907A811F037FD0021EB
:10888000084607AA03F084FD07A811F0E9FC637A03
:10889000032B3F4B06D13F4A10681C6820E604F0CA
:1088A00021FBA5E7334A12681B684FE7082B7FF4CA
:1088B000FEA8324B5D7A35B1012D29D0364B00220E
:1088C0001A70FFF7F4B803F047FD3448012103F0B4
:1088D000E3FB334907A811F009FD002107AA084668
:1088E00003F056FD07A811F0BBFC2E4927480EF0F7
:1088F000B6FA264907A811F0F9FC07AA00210320BF
:1089000003F046FD07A811F0ABFC03F05BFDD5E7D3
:108910002378002BD2D0184B1C78002CCED103F03A
:108920001BFD1E48294603F0B7FB1F4907A811F09D
:10893000DDFC07AA2146204603F02AFD07A811F016
:108940008FFC184911480EF08AFA104907A811F057
:10895000CDFC07AA2146D2E7AFD50020DCD9002004
:10896000D4D90020A4A1002030D7002058E3002053
:1089700034D70020C4D6002000D7002004A3002054
:108980008012070090120700E9150700B5D50020F6
:10899000C8D60020CCD60020D1D60020F212070085
:1089A0009B140700FE1507003513070010B5044699
:1089B00005F022F8204610BD0F4BB0B100221A700E
:1089C0000E4B0F4A18600F4B11685B7A023B012B6C
:1089D00001F101010C4B116094BF072202221A70B1
:1089E0000A48FA22012111F028BB1B7813B1064B6B
:1089F0000822F4E7704700BFD1D60020D4D600206B
:108A0000C4D6002004A3002080D5002011E300205C
:108A100010B5134BB0F90A201A80124B90F90C20B4
:108A20001A70114B42781A70104B00221A7003789A
:108A3000022B14D10E4B5B7A023B012B0FD80D4C4D
:108A4000027A41680C48062323700DF063FC23462C
:108A50000A48BDE81040FA22012111F0EEBA10BD1B
:108A6000B2D50020B4D50020B0D50020D1D600204A
:108A700004A3002080D5002082D5002011E300202F
:108A8000F0B5254D297899B0002942D101231A2249
:108A900008A82B7007910DF04BFC05A82AF01EF8D2
:108AA00005981E4C00F5E0400FA96E302AF08AF8B8
:108AB000149B1B4903F26C730393129B0293139B49
:108AC000013301930F9B009307A8DDE910320EF0EC
:108AD0008FF9149813999DF848209DF844309DF81B
:108AE00040609DF83C70227100F26C70013180B2E0
:108AF000C9B22080A1706371A671E771094C247816
:108B00003CB10224CDE900672C7004F081F904F037
:108B1000C5F919B0F0BD00BFD0D60020D4D90020CF
:108B20000A160700DCD9002030B54FF080432DED48
:108B3000028BD3F83834032B83B027D01448144D5C
:108B400011F046FA0A24B0EE408A284611F040FAA5
:108B5000013C38EE008AF8D1B2EE067AC8EE077A08
:108B60009FED0C7ADFED0C6A67EE877A9FED0B7A4A
:108B700067EE877A87EEA67AFCEEC77ACDED017AAA
:108B80009DF8040003B0BDEC028B30BD0020F9E776
:108B90000DE3002000007A440040834500007F433D
:108BA00008B5064B1B783BB111F0E5FDBDE8084068
:108BB00001460348FEF7B8BB08BD00BF01D700203F
:108BC000B8D600201E4B07B501221E481A7010F0BF
:108BD000D6FF18B11C48002110F09BFF1B4811F074
:108BE0001FF91B491B4811F02DF81B49194811F0BA
:108BF00039F81A49174811F02DF81949154811F09C
:108C000039F81849134811F03DF80021164811F0C1
:108C100077F80221154811F0E1F832230122009380
:108C200011460A230B4810F0CCFF114BD97A01B141
:108C30000121222003B05DF804EB11F090BD00BFCC
:108C4000A1A1002084E300206EE300206DE300205A
:108C5000118A020049E30020B98902008D730200E5
:108C600021740200818A020051E300206BE300209E
:108C700004A3002008B50F4B0F480021197010F015
:108C800048FF0E4810F07FFF0D490B4810F088FF99
:108C90000C49094810F08CFF4FF6FD71064810F0A2
:108CA00038FF094BD97A01B10121BDE808402220E3
:108CB00011F055BDA1A100206EE3002084E3002047
:108CC000DD730200B973020004A300201F4B07B537
:108CD00001221F481A7010F052FF18B11D480021E0
:108CE00010F017FF1C4811F09BF81C491C4810F0AD
:108CF000A9FF1C491A4810F0B5FF1B49184810F08D
:108D0000A9FF1A49164810F0B5FF1949144810F088
:108D1000B9FF0021174810F0F3FF0021164811F0A9
:108D20005DF83223012200930D480A23114610F00A
:108D300048FF124BDB7A33B10121222003B05DF8EA
:108D400004EB11F00CBD03B05DF804FBA1A1002001
:108D500084E300206EE300206DE30020118A02000E
:108D600049E30020B98902008D73020021740200DA
:108D7000818A020051E300206BE3002004A300205D
:108D800010B50B4C00212046FEF794FA2046094C02
:108D9000094A0A490DF050FAFF21204604F020FE4E
:108DA0002046054A0649BDE810400DF045BA00BF0F
:108DB000B8D60020A4D5002090A10020BF720200E8
:108DC000AD8902002DE9F04F012187B0222011F07A
:108DD000AFFC0121232011F0ABFC0121242011F074
:108DE000A7FCA948A94E11F02BFB03F021F9307024
:108DF00068B1A749A7480EF032F8A648012103F050
:108E00004BF9A54803F04AFAA44803F047FA0021B9
:108E1000222011F0A4FC0223A14806224FF4E131E4
:108E200010F0BCFD4FF08043D3F83834032B6DD1E4
:108E30004FF4FA601BF080FA0523022203AC994933
:108E400000939448984D994F00230DF0D1FF91491C
:108E5000204611F04BFA2146954811F08DF8204636
:108E600011F0FEF90121232011F079FC00212320CB
:108E700011F075FC0021242011F071FC02F0D8F9EA
:108E800002F0C0F902F050F902F064F902F078F94A
:108E900002F0E4F902F08EFB00F034FA002000F05A
:108EA00053F96B7A023B012B57D8012002F02EFCBC
:108EB00038703B7813B17F4803F0F0F903F008FFF6
:108EC0007D4F387060B103F0E9FF94E8030029F0AA
:108ED000E4FD02F081F93B7813B1784803F0DEF944
:108EE00004F040F8764F387048B104F0B3F83870A9
:108EF00002F05CF93B7813B1724803F0CFF96B7A5A
:108F0000032B2ED8DFE803F051A7B0BD11F033FCDE
:108F1000DFF88CA107464FF0000B41F287384FF085
:108F20000009504610F01FFD002885D111F023FCE8
:108F3000C41B6BEB4B05A04579EB0503FFF67CAF3B
:108F400064201BF0F9F9232011F00EFCB0FA80F137
:108F50004909232011F003FCE3E7E87A0028A4D1B3
:108F6000A4E733780BB358494A480DF078FF4949D4
:108F7000204611F0BBF900212246084603F008FA0A
:108F8000204611F06DF9514942480DF068FF414902
:108F9000204611F0ABF922460021012003F0F8F938
:108FA000204611F05DF903F00DFA494803F076F917
:108FB000484810F0BBFE10B9474803F06FF9FFF7BF
:108FC00001FE4FF47A7345496A683248B2FBF3F206
:108FD0000DF00EFF2F4803F061F9414A414801238B
:108FE000002111F020F86A6822B100233D4819469B
:108FF00011F023F83C4A3B480023012111F013F8FB
:1090000000233A4A3748022111F00DF8AB7A33B108
:10901000344800234EF66022022111F00EF801239D
:10902000334A3048032110F0FEFF324B1B785BB10E
:10903000284810F07BFE38B93223012200932E48D5
:109040000A23114610F0BDFD01212C4811F067FBE9
:1090500007B0BDE8F08FFFF70DFE294803F01EF9B9
:10906000284803F01BF9ACE7274803F017F9194823
:1090700010F05CFE10B9184803F010F9FFF726FE57
:109080009FE72248F1E700BF8CE30020AED5002027
:10909000F2120700B5D500202C160700391607007C
:1090A00030E20020A719070004A30020ADD500205E
:1090B000B8E2002045160700DCD900204D16070055
:1090C000AFD50020541607005F1607007116070081
:1090D0009B14070054E3002081160700CF140700FB
:1090E0009974020011E300206978020019C402009B
:1090F00015BC0200A1A1002049E30020A9E2002044
:109100003A1307008F160700AA140700BB140700C4
:109110007047000008B5054804F0DCFD034804F082
:10912000F8FDBDE80840014804F012BED8D6002082
:1091300007B531220DF10701024804F013FE03B018
:109140005DF804FBD8D6002073B500210446112039
:1091500011F0EEFA524811F073F9524B002C00F066
:10916000848000229A800A22DA804FF481721A8168
:1091700040F201125A814B4804F084FE0546002853
:1091800040F08B80002C38D02A22302145488DF8C1
:109190000720012604F090FC0822322141488DF876
:1091A000072004F089FC324633213E488DF80760E1
:1091B00004F082FC24220DF107013A4804F0D2FDAC
:1091C0009DF80720374822F00C0242F008022421C3
:1091D0008DF8072004F070FC6022222131488DF8C0
:1091E000072004F069FC2A4625212E4804F064FC7F
:1091F0002C483246212104F05FFC002520220DF18D
:10920000070128488DF8075004F0ACFD9DF80720B1
:10921000244842F0080220218DF8072004F04CFC7D
:1092200064201BF089F81E220DF107011D488DF8FE
:10923000075004F097FD9DF807201A4842F090026D
:109240001E218DF8072004F037FC64201BF074F811
:109250008CB1FFF76DFF14490422112010F056FB6A
:10926000FFF758FF204602B070BD02229C80DC80D0
:109270001A815C817FE720220DF10701094804F083
:1092800071FD9DF80720074802F0400220218DF86B
:109290000720012404F010FCE4E70024E2E700BF0B
:1092A0008CE30020D8D60020119102000248182239
:1092B000002104F0BBBB00BFD8D60020D0B511F010
:1092C0005AFA0D4C0D4B0021C3E9000111F053FA7D
:1092D000D4E90032C61A62EB4207C92E77F10003C7
:1092E00009DB11F048FA064A206000236360137816
:1092F0000133DBB21370D0BDF0D60020F8D60020C9
:1093000001D7002008B50221092011F011FA064901
:109310000322092010F0FAFA0449054801236422C7
:10932000FDF7E0FF012008BDBD920200199902007F
:10933000B8D600202DE9F04FC74D91B011F01BFABF
:10934000D5E900230024811A64EB03030091019303
:10935000DDE9002340F6B8300021904271EB0303B1
:10936000A346A246A146A0462746264677DB11F033
:1093700002FAD5E90023811A63EB430302910393B8
:10938000DDE90223B2F5C87F73F1000373DA11F04F
:10939000F2F9D5E90023811A63EB430304910593A5
:1093A000DDE90434B3F5C87F74F1000380F28580F1
:1093B00011F0E1F9D5E90023811A63EB430306912B
:1093C0000793DDE90634B3F5167F74F1000380F2EC
:1093D000998011F0D0F9D5E90023811A63EB43039A
:1093E00008910993DDE90834B3F5487F74F100036F
:1093F00080F2AE8011F0BFF9D5E90023811A63EB4A
:1094000043030A910B93DDE90A34B3F5966F74F1C7
:10941000000380F2C08011F0AEF9D5E90023811A73
:1094200063EB43030C910D93DDE90C34B3F5AF6F9F
:1094300074F1000380F2D28011F09DF9D5E9002388
:10944000811A63EB43030E910F93DDE90E34B3F5FC
:10945000C86F74F1000380F2E280082474E00920F0
:1094600011F082F9002882D17C4B1B78002B3FF44D
:109470007EAF022468E0794B1B78012B87D109204D
:1094800011F072F9012882D10023C82C10D00920D4
:10949000009311F069F9009B012804BF0133DBB28E
:1094A000012001340093E4B21AF046FF009BECE780
:1094B000C62B7FF66CAF002446E0684B1B78022B6E
:1094C0007FF476AF092011F04FF901287FF470AFD7
:1094D0000024BBF1C80F10D0092011F045F9012874
:1094E00008BF01344FF001000BF1010B08BFE4B2DB
:1094F0005FFA8BFB1AF020FFEBE7C62C7FF658AF24
:10950000012421E0554B1B78032BDCB27FF461AFC3
:109510004FF0000BBAF1C80F12D0092011F024F956
:10952000012808BF0BF1010B4FF001000AF1010AFD
:1095300008BF5FFA8BFB5FFA8AFA1AF0FDFEE9E7D3
:10954000BBF1C60F7FF645AF204611B0BDE8F08FE6
:10955000424B1B78042BDCB27FF44CAF4FF0000A77
:10956000B9F1C80F12D0092011F0FEF8012808BF88
:109570000AF1010A4FF0010009F1010908BF5FFA81
:109580008AFA5FFA89F91AF0D7FEE9E7BAF1C60F4D
:109590007FF630AFD8E7314B1B78052BDCB27FF478
:1095A0003AAF4FF00009B8F1C80F12D0092011F0FE
:1095B000DBF8012808BF09F101094FF0010008F1AB
:1095C000010808BF5FFA89F95FFA88F81AF0B4FE5B
:1095D000E9E7B9F1C60F7FF61EAFB5E71F4B1B7861
:1095E000062BDCB27FF428AF4FF00008C82F11D053
:1095F000092011F0B9F8012808BF08F101084FF05F
:10960000010007F1010708BF5FFA88F8FFB21AF0FE
:1096100093FEEBE7B8F1C60F7FF60EAF94E70F4B62
:109620001B78072BDCB27FF418AF0025C82E0FD0B3
:10963000092011F099F8012808BF01354FF0010009
:1096400006F1010608BFEDB2F6B21AF075FEEDE7BD
:10965000C62D7FF602AF77E7F8D6002001D70020AD
:1096600073B58B4D8B4C6A7A637A9A4231D002F093
:1096700073FE0021884802F00FFD6B6863606B7A0F
:10968000864863726B89638102F008FE844802F0A9
:1096900005FE02F097FE01F007FE40F6B8301AF022
:1096A0004BFE637A7F48012B4FF000014FF03206EA
:1096B00040F0998010F02DFA00227B4800960A2392
:1096C000114610F07EFA794810F05DFA784810F0F3
:1096D0007DFCEA7AE37A9A4207D06B7A023B012B4F
:1096E00094BF0120002002F011F86A6863689A4272
:1096F00003D16A8963899A4213D002F02DFE67482C
:1097000002F0CCFD664802F0C9FD02F05BFE6B681A
:1097100063606B89638101F0C7FD40F6B8301AF0D1
:109720000BFE644810F078FB002869D0624810F006
:10973000FFFA624B1978884205D000395E4818BF9D
:10974000012110F0F7FA5E4810F004FB5D4B197828
:10975000884202D05A4810F0FFFA5B4810F00CFB28
:109760005A4B1978884202D0574810F007FB584DE1
:1097700058482E7810F012FB86420BD029785548B5
:1097800010F018FB32230122009347480A231146A8
:1097900010F017FA02F0E0FD637A012B71D06CD95A
:1097A000023B012B6FD94FF47A7362684A49B2FBCE
:1097B000F3F24A480DF01CFB484802F06FFD626866
:1097C00022B100234648194610F037FCA37A002B3B
:1097D0005BD0434800234EF66022022102B0BDE870
:1097E000704010F02ABC10F094F9012200960A2370
:1097F00011462D4810F0E5F92E4810F011FB65E7F1
:10980000384D3948296810F03EF9374810F039F9D9
:109810002968884202D0344810F035F9334810F0F6
:1098200041F9334B1978884202D0304810F03CF9A6
:10983000304D31482E7810F046F9864203D0297811
:109840002D4810F042F92D4810F04EF92C4B1978A4
:10985000884202D0294810F049F92A4810F057F9F7
:10986000294B1978884202D0264810F061F94FF64A
:10987000FD710C4810F04DF98CE7244802F00EFD04
:1098800091E72348FAE72348F8E702B070BD00BF2C
:10989000D0A1002004A300209D160700A4160700F5
:1098A000B41607006EE3002049E3002084E30020A3
:1098B000A8E200206DE3002055E3002003D700203C
:1098C00058E3002005D7002060E3002006D70020E1
:1098D00004D700206AE30020CF140700B5D500208C
:1098E00011E3002010D7002079E300207AE3002064
:1098F00014D700200BD700207BE300207CE300205E
:109900000CD700207EE3002015D700209B14070011
:109910003A130700BB1407002DE9F04F87B0FFF79B
:1099200009FD072800F2CC81DFE810F0B4044203FF
:109930000800CD01B00053002D001A00914B00200B
:109940001870914B00240025C3E900458F4B1B780C
:1099500023B107B0BDE8F04F02F03CBD0120F8E7AD
:10996000884B00221A70884B00200021C3E90001B7
:10997000874B1C783CB902F0EFFC8648214602F088
:109980008BFB1AF0F0FC7F4B00221A707E4B0020FC
:109990000021C3E900017E4B1C7874B17E4B1A781C
:1099A000052A40F08D8110221A707C4BD97A0191E2
:1099B0009B7A00937A4B1B785BE002F0CDFC7948F0
:1099C000214602F069FB784807B0BDE8F04F10F07F
:1099D000FDBA6C4B00221A706B4B00200021C3E9CA
:1099E00000016B4B1B78002B00F06A816A4C2378D6
:1099F000052B00F26581DFE813F0060063016301C7
:109A0000220030004000694810F006FA0128634B3C
:109A10000AD104222270D97A01919B7A6449009379
:109A200009786448FF2315E005222270D97A019154
:109A30009B7A6149009309786048FF230AE0574BFD
:109A40000322D97A5A7201919B7A009305235C49CB
:109A50005C48097802F0E4FC32E107235A4823709D
:109A600010F09CF94D4AD37A0193937A0093C3B2D4
:109A70002278564956480978ECE7484B0E22D97AA5
:109A8000227001919B7A0093524B94E73D4B002248
:109A90001A703D4B00200021C3E900013C4B1B78AC
:109AA000002B00F0A5803C4C2378062B00F20881A7
:109AB000DFE813F007001703120020002A00570008
:109AC0006000364903224B7AC87A22700190897A65
:109AD00000910233DBB2BAE7304A937A83F0010394
:109AE0009372D27A019200930222FF233A493B48B3
:109AF0000978AFE7294B02225A72DA7A01929B7AEF
:109B0000009304230322A2E70A232F48237010F0B6
:109B100045F9C0B20C280ED8DFE800F00717171D72
:109B2000171D1D17171717171D002D4B00221A7030
:109B30002C4B05221A70194A2B4BD17A1B780191B4
:109B4000927A00920A33DBB292E7254B00221A7018
:109B5000244B0722EEE7224B00221A70214B0A22E7
:109B6000E8E70E4B0D22D97A227001919B7A00937F
:109B70001E4B20E7094BDA7A01929B7A009300236F
:109B80003AE100BF01D70020F8D600204CA5002004
:109B900000D70020C516070002D70020D0A1002062
:109BA00015D70020D0160700A8E200206DE30020A2
:109BB000B8A20020A4A20020E8A20020D0A2002089
:109BC00078A2002064A200206AE30020CCA100203B
:109BD000C8A100200CD70020CCA20020BCA20020ED
:109BE0000AD7002008D7002005D700200BD7002077
:109BF0009E4810F011F9012862D19D4D6A7A012A20
:109C00005ED09C4E3278002A5AD19B4C9B4B2070E0
:109C10001B7804940BB902F0DDFB00219848DFF8B3
:109C20006CB210F014FA974810F0B8F8964B53F84D
:109C300020309648039310F08DF84FF0000A074645
:109C4000039B33F81A2042B35FFA8AF1584610F0AA
:109C500083F864201AF070FB0020FDF71DFC10F063
:109C60008AFD02463078059298B14FF47A701AF066
:109C700063FB10F080FD059A42F21073B0EB02080E
:109C80004FF0000161EB01090024434574EB090327
:109C9000E8DA4FF4FA601AF04FFB0AF1010ABAF160
:109CA000100FCDD17948394610F056F86A6822B1C4
:109CB00000237348194610F0C0F9049A002313706A
:109CC00007B0BDE8F08F724B00221A70714B002470
:109CD0000025C3E90045704B1B78002B00F0418143
:109CE0006E4C2278102AEBD801A353F822F000BF63
:109CF000359D0200E3A00200479D0200579D02002F
:109D0000699D0200C59D0200D79D0200FD9D0200D5
:109D1000C19C02001B9E0200419E0200C59E0200E3
:109D2000E99E0200099F0200279F0200C19C0200D9
:109D3000439F020002222270594BD97A01919B7AEB
:109D40000093FF23D2E6564AD37A83F00103D372FD
:109D50000193937AC7E6524B01225A72DA7A019242
:109D60009B7A00930323CDE609234648237010F025
:109D700015F8C0B20C2814D8DFE800F00707070771
:109D8000070D1B07212121211B00464B00221A70C1
:109D9000454B052204E0434B00221A70424B04223B
:109DA0001A703F4BDA7A01929B7A00933F4B1B78F3
:109DB0005EE63C4B00221A703B4B0622F0E7394B23
:109DC0000222E4E7364B0C22D97A227001919B7A69
:109DD0000093374BEFE5324B5A6842B142F20F71B4
:109DE0008A428ABFA2F51C520022103A5A60DA7ADF
:109DF00001929B7A0093FF2306223AE62D4A1378BC
:109E000013B1013BDBB200E00C231370244AD17A7A
:109E10000191927A009207222BE6244A2149137875
:109E20000978994209D1204B1B7813701C4AD17ACA
:109E30000191927A009209221BE6013BDBB2F4E722
:109E40001D4A1E491378097899420BBF1C4B03F138
:109E5000FF331B78DBB21370114BDA7A01929B7AD5
:109E60000093124B1B780A2203E600BF6DE300202B
:109E700004A30020D1D6002081D500204CA50020CD
:109E800011E300206AE30020FCA4002058E3002036
:109E900001D70020F8D6002000D7002002D70020EC
:109EA000D0A1002009D7002007D7002005D7002027
:109EB00014D7002004D7002006D700200AD700209E
:109EC00008D70020A34AA4491368A3F5C333A03BD5
:109ED0008B4298BFA14B1360A14BDA7A01929B7A17
:109EE00000930B22FF23C4E59E490B78062B1CBF71
:109EF00003F1FF33DAB29A4B0A70D97A01919B7A57
:109F0000009313460C22B4E5974A137813B1013B32
:109F1000DBB200E009231370914AD17A0191927A61
:109F200000920D22A5E5914A117809B1481EC0B2F0
:109F300010708B4AD37A0193937A009303460E22D2
:109F400097E58B4A1378052B02D0013BDBB200E08A
:109F500016231370824AD17A0191927A00921022CC
:109F600087E584480FF058FF01287FF4A9AE824BA3
:109F70001B78002B7FF4A4AE804B1B780BB902F04A
:109F800029FA00217E4810F062F87E4B0122002061
:109F90001A70FDF781FA7C4B5A68002A3FF490AEA4
:109FA00000237748194607B0BDE8F04F10F045B8D8
:109FB000764B774D774C00221A70774B00210020AA
:109FC000C3E900012978002959D16D4810F03FF804
:109FD00001216B4810F03BF86948022110F037F876
:109FE000664B1B7813B9012002F0F4F90123664A8D
:109FF0002B70002323705A4B51685960517A528953
:10A000005C485A8159720FF007FF0146D8B1634886
:10A010000FF0A0FE624B187062480FF0BFFE624B5B
:10A02000187062480FF084FE614B187061480FF0A1
:10A03000A3FE614B18700023CDE9003322785F49FD
:10A040005F48097806E55F480FF063FD5E480FF052
:10A0500018FD404B18605D480FF024FD414B18700F
:10A060005B480FF030FD404B18705A480FF03CFD34
:10A070003E4B187058480FF04AFD3D4BDAE7237805
:10A08000102B3FF61DAE01A252F823F0D1A0020022
:10A09000E3A00200F5A00200F9A002000BA102005B
:10A0A00023A1020081A2020027A1020037A1020021
:10A0B000DDA10200F1A1020013A2020029A2020008
:10A0C00045A2020055A20200C19C020071A202003A
:10A0D0000122234B2270D97A01919B7A0093FF23AE
:10A0E000C7E4002222701E4BD97A01919B7A00931B
:10A0F000FF23A4E70622ECE7194B00225A72DA7A12
:10A1000001929B7A00930223FCE41549284BC87AFC
:10A110001B78082222700190897A00910A33DBB201
:10A12000A7E40B22D5E7204A13780C2B01D001338A
:10A1300068E6002369E61E4A1378B3FA83F35B09E5
:10A140001370074AD17A0191927A00920A33082259
:10A150008FE400BF10D700207F47A1198047A119C5
:10A16000D0A1002014D700200BD700200CD700204E
:10A1700015D700206DE30020D1D600204CA500208B
:10A1800011E30020A2D5002004A3002001D7002065
:10A1900000D7002002D70020F8D6002058E3002086
:10A1A00005D700206AE3002004D7002055E30020F3
:10A1B00003D7002060E3002006D7002000A3002082
:10A1C000ECA200206EE3002079E300207AE3002077
:10A1D0007BE300207CE300207EE30020554A5649C3
:10A1E00013780978994201D1544B1DE6013325E6D5
:10A1F000534A54491378097899420BBF524B0133A3
:10A200001B78DBB21370514AD17A0191927A009295
:10A2100029E64F4A4F49136803F5C333A0338B42F5
:10A2200094BF1360116057E64B4A13780C2B1ABF8A
:10A230000133DBB206231370444AD17A0191927A3A
:10A2400000925FE6454A1378092B01D001335FE69F
:10A25000002360E6424A1378032B1ABF0133DBB2B6
:10A2600000231370394AD17A0191927A009266E6FE
:10A270003C4A1378162B01D0013367E6052368E6C4
:10A28000324A536803F51C5310335360D37A019359
:10A29000937A73E4344B00221A70344B344A002111
:10A2A0000020C3E90001117800293FF409AD314BCA
:10A2B000197810293FF604AD01A050F821F000BF35
:10A2C00005A3020013A3020013A3020013A30200BC
:10A2D00013A3020013A302002DA3020019A302007E
:10A2E00019A3020019A3020019A3020023A302006C
:10A2F00023A3020023A3020023A30200C19C0200A7
:10A3000023A302000023137007B0BDE8F04FFFF74E
:10A31000A7B900221A70E6E604221A700B4BFFF769
:10A320007ABB05221A70094BFFF780BB02221A7014
:10A3300002E500BF05D7002007D7002009D700207D
:10A3400006D7002008D700200AD70020D0A100207F
:10A3500010D700200070383914D700200BD7002008
:10A360000CD7002015D7002001D70020F8D60020F8
:10A3700000D7002002D70020024B01221A700920CA
:10A38000704700BF16D7002070B598B014460A4930
:10A390000EA80FF0ABFF0023CDE91433CDE916333F
:10A3A000636E012B0CD1054920680CF04EFD48B1BD
:10A3B000022400F0EDBC00BFAA5807002E78070069
:10A3C000002BF5D1B649B748B74CB84DB84E10F090
:10A3D00013F9B849B34810F00FF9B149B64810F075
:10A3E0000BF9B449B44810F007F9642019F0A4FF40
:10A3F000637AB24955F82320AA4810F0FDF8AD4918
:10A40000A84810F0F9F8637AAC4955F82320AA4817
:10A4100010F0F2F8A749A84810F0EEF8642019F0FF
:10A420008BFFA74911A80FF0B1FD11A90EA80FF0DD
:10A4300070FF11A80FF014FF0EA80FF0ADFF0E9AD9
:10A44000A049984810F0D8F89A49964810F0D4F8E6
:10A450000E9A9C49984810F0CFF89649964810F00B
:10A46000CBF8642019F068FF974911A80FF06EFD32
:10A47000119A96498B4810F0BFF811A80FF0F0FE22
:10A480008C49884810F0B8F88F4911A80FF05EFD8C
:10A49000119A8E49884810F0AFF811A80FF0E0FE2D
:10A4A0008449854810F0A8F8642019F045FF4FF45E
:10A4B0007A7562688649B2FBF5F27A4810F09CF82A
:10A4C0007C49784810F098F862688149B2FBF5F24F
:10A4D000794810F091F87749774810F08DF86420AA
:10A4E00019F02AFF7B480FF097FC7B4956F8202093
:10A4F00005466C4810F080F86E496A4810F07CF808
:10A5000056F8252074496C4810F076F869496A4875
:10A5100010F072F8642019F00FFF012D40F04E8307
:10A520006E486F4E6F4D0FF001FC6F49002814BF4D
:10A5300032462A465B4810F05FF85E49594810F0F1
:10A540005BF866480FF0F2FB6749002814BF3246FB
:10A550002A465948654E10F04FF85649564810F0B3
:10A560004BF8642019F0E8FE61480FF017FC6149D0
:10A57000054602464B4810F03FF84E49494810F056
:10A580003BF82A465B494C4810F036F849494A489E
:10A5900010F032F8642019F0CFFE56F82520564905
:10A5A000404810F029F843493E4810F025F856F885
:10A5B00025205149404810F01FF83E493E4810F010
:10A5C0001BF8642019F0B8FE4C480FF0A8FB0028D7
:10A5D00000F0BE814A49334810F00EF83549314841
:10A5E00010F00AF84649344810F006F8314932486C
:10A5F00010F002F8642019F09FFE082214A94148C7
:10A600000FF06CFB9DF8573005939DF8563004937E
:10A610009DF8553003939DF8543002939DF85330C4
:10A6200001939DF852309DF85020374900931D4802
:10A630009DF851300FF0E0FF1E491A480FF0DCFF83
:10A640009DF8573005939DF8563004939DF855308A
:10A6500003939DF8543002939DF8533001939DF875
:10A6600052309DF850202849009313489DF85130EE
:10A670000FF0C2FF0F4910480FF0BEFF642019F021
:10A680005BFE082214A921480FF004FB9DF8573007
:10A6900005939DF8563004939DF8553038E000BF7F
:10A6A0004017070030E2002004A3002070A400201F
:10A6B000CCA30020A858070094E200204F17070001
:10A6C000E8E200205D170700ACE2002039460700F1
:10A6D000681707006DE300207817070054E3002097
:10A6E0009D550700321707008817070098A3002020
:10A6F0006AE30020931707009E17070053E300202A
:10A70000A91707004EE30020B31707004AE3002013
:10A7100003939DF8543002939DF8533001939DF8B4
:10A7200052309DF850207D4900937D489DF851306E
:10A730000FF062FF7B497A480FF05EFF9DF85730BB
:10A7400005939DF8563004939DF8553003939DF87A
:10A75000543002939DF8533001939DF852309DF888
:10A7600050206E49009370489DF851300FF044FF1F
:10A770006C496D480FF040FF642019F0DDFD102298
:10A7800014A96A480FF08FFA9DF85F300D939DF879
:10A790005E300C939DF85D300B939DF85C300A930E
:10A7A0009DF85B3009939DF85A3008939DF8593015
:10A7B00007939DF8583006939DF8573005939DF800
:10A7C000563004939DF8553003939DF8543002930E
:10A7D0009DF8533001939DF852309DF85020544914
:10A7E00000934F489DF851300FF006FF4D494C48FB
:10A7F0000FF002FF9DF85F300D939DF85E300C93D3
:10A800009DF85D300B939DF85C300A939DF85B30AA
:10A8100009939DF85A3008939DF8593007939DF895
:10A82000583006939DF8573005939DF856300493A1
:10A830009DF8553003939DF8543002939DF85330A2
:10A8400001939DF8523000939DF850209DF85130AF
:10A85000374935480FF0D0FE32493348354E364D32
:10A860000FF0CAFE642019F067FD34492C480FF040
:10A87000C3FE2C492A480FF0BFFE30492A480FF08A
:10A88000BBFE284928480FF0B7FE642019F054FD9C
:10A89000627A2B4922480FF0AFFE224920480FF080
:10A8A000ABFE627A264920480FF0A6FE1D491E48DD
:10A8B0000FF0A2FE642019F03FFDA27A214918484A
:10A8C000002A14BF32462A460FF096FE1549144856
:10A8D0000FF092FEA27A1B491348002A14BF324699
:10A8E0002A460FF089FE0F490F48174E0FF084FEDD
:10A8F000642019F021FD15481AF036F80025B4F847
:10A900008E20EBB2934205F1010580F23D82234493
:10A910003046197B1AF028F8F1E700BFDB17070073
:10A9200030E20020A858070094E200204BE300200A
:10A93000031807003D170700C11607006419070038
:10A940007419070082190700E3990700931907009B
:10A95000904991480FF050FE90498F480FF04CFEFF
:10A960008C498F480FF048FE8C498D480FF044FE0B
:10A97000642019F0E1FC14A910228A480FF09CF918
:10A980009DF85F300D939DF85E300C939DF85D301F
:10A990000B939DF85C300A939DF85B3009939DF80A
:10A9A0005A3008939DF8593007939DF85830069314
:10A9B0009DF8573005939DF8563004939DF8553017
:10A9C00003939DF8543002939DF8533001939DF802
:10A9D00052309DF85020009373499DF851306E48D5
:10A9E0000FF00AFE6D496C480FF006FE9DF85F30CF
:10A9F0000D939DF85E300C939DF85D300B939DF8A0
:10AA00005C300A939DF85B3009939DF85A300893A7
:10AA10009DF8593007939DF8583006939DF85730AC
:10AA200005939DF8563004939DF8553003939DF897
:10AA3000543002939DF8533001939DF852309DF8A5
:10AA40005020009358499DF8513055480FF0D4FDDF
:10AA5000524953480FF0D0FD642019F06DFC14A941
:10AA6000102252480FF043F99DF85F300D939DF886
:10AA70005E300C939DF85D300B939DF85C300A932B
:10AA80009DF85B3009939DF85A3008939DF8593032
:10AA900007939DF8583006939DF8573005939DF81D
:10AAA000563004939DF8553003939DF8543002932B
:10AAB0009DF8533001939DF852309DF8502000933B
:10AAC0003B499DF8513034480FF096FD33493248E8
:10AAD0000FF092FD9DF85F300D939DF85E300C9362
:10AAE0009DF85D300B939DF85C300A939DF85B30C8
:10AAF00009939DF85A3008939DF8593007939DF8B3
:10AB0000583006939DF8573005939DF856300493BE
:10AB10009DF8553003939DF8543002939DF85330BF
:10AB200001939DF852309DF85020009320499DF8E4
:10AB300051301B480FF060FD184919480FF05CFDBB
:10AB4000642019F0F9FB14A904221A480FF0BDF88B
:10AB50009DF8533001939DF852309DF8502000939A
:10AB600015499DF851300C480FF046FD0B490A4835
:10AB70000FF042FD9DF8533001939DF85230009341
:10AB80009DF850209DF851300B4905480FF034FDD9
:10AB900062E600BF4B18070030E20020A85807000B
:10ABA00094E200204CE300205418070050E30020FA
:10ABB0009D1807004DE30020E61807007748002D98
:10ABC00040F09B800EF05DFF7549024675480FF01E
:10ABD00013FD754973480FF00FFD70480EF051FFDB
:10ABE0006F49024671480FF007FD6F496F480FF03B
:10ABF00003FD642019F0A0FB6D480EF053FF6D4972
:10AC0000024668480FF0F8FC674966480FF0F4FC0C
:10AC100067480EF047FF6749024664480FF0ECFCB6
:10AC2000614962480FF0E8FC642019F085FB624836
:10AC30000EF049FF614902465A480FF0DDFC5A49BF
:10AC400058480FF0D9FC5C480EF03DFF5B490246C6
:10AC500056480FF0D1FC544954480FF0CDFC642005
:10AC600019F06AFB56480EF03FFF564902464D4820
:10AC70000FF0C2FC4C494B480FF0BEFC50480EF0A0
:10AC800033FF5049024649480FF0B6FC4649474851
:10AC90000FF0B2FC642019F04FFB4B480EF035FF6B
:10ACA0004A4902463F480FF0A7FC3F493D480FF094
:10ACB000A3FC45480EF029FF444902463B480FF0EB
:10ACC0009BFC394939480FF097FC642019F034FB9C
:10ACD0003F480EF01CFF3F49024632480FF08CFC03
:10ACE000314930480FF088FC39480EF010FF3949DF
:10ACF00002462E480FF080FCAEE50EF0C2FE284959
:10AD0000024628480FF078FC274926480FF074FCCB
:10AD100022480EF0B6FE2249024624480FF06CFC91
:10AD2000214922480FF068FC642019F005FB2A48ED
:10AD30000EF021FF294902461A480FF05DFC1A491E
:10AD400018480FF059FC24480EF015FF234902461D
:10AD500016480FF051FC144914480FF04DFC6420C4
:10AD600019F0EAFA1E480EF008FF1E4902460D4887
:10AD70000FF042FC0C490B480FF03EFC18480EF057
:10AD8000FCFE18490246B4E7074819F0EDFD00241F
:10AD90000EA80FF065FA204618B070BD79E30020C8
:10ADA000FF18070030E20020A858070094E20020B6
:10ADB0007AE300200E1907007BE300201619070034
:10ADC0007CE300201E1907007DE300202619070000
:10ADD0007EE300203B19070082E3002049190700A9
:10ADE00083E300205619070073B5556E012D0E46FA
:10ADF00025D1144910680CF028F80446E0B905255F
:10AE0000CDE90005022332460F4910480FF0F4FB4C
:10AE10000F490E480FF0F0FB02233246CDE9004502
:10AE200009490C480FF0E8FB09490A480FF0E4FB18
:10AE3000642019F081FA2546284602B070BD01252C
:10AE4000FAE700BF2E780700A419070030E20020BF
:10AE5000A858070094E200202DE9F84F614B1B78B9
:10AE6000002B00F0BD80604B1B78002B40F0B680BB
:10AE7000556E012D40F0B480D2F800A05B495046D9
:10AE80000BF0E3FF0446002866D1594B59495A4854
:10AE90001D700FF0B1FB57495748DFF880B10FF034
:10AEA000ABFB544955480FF0A7FB524953480FF0EC
:10AEB000A3FB642019F040FA214651480FF0C7F86F
:10AEC00029464F480FF0C3F802214D480FF0BFF854
:10AED00001F042FA21464B4801F0DEF84A4801F001
:10AEE000DDF94A4801F0DAF901F06CFA0FF043FCA1
:10AEF0004FF0000A054642F2107600279BF800301A
:10AF00008BB94FF47A7019F017FA0FF034FCB0EBEC
:10AF100005086AEB4A09464577EB0903EEDA032494
:10AF20002046BDE8F88F02F075FB324932480FF039
:10AF300063FB304930480FF05FFB2E492F480FF07C
:10AF40005BFB2C492D480FF057FB642019F0F4F9F6
:10AF50002F480FF03BF8E3E72E4950460BF075FF02
:10AF6000044600283CD1224BDFF8B0B01D700146EA
:10AF700023480FF06CF8294621480FF068F80221A9
:10AF80001F480FF064F801F0E7F921461D4801F071
:10AF900083F8214801F082F91C4801F07FF901F0A3
:10AFA00011FA0FF0E8FB4FF0000A054644F620685E
:10AFB0004FF000099BF800306BB94FF47A7019F02C
:10AFC000BBF90FF0D8FB461B6AEB4A07B04579EB9B
:10AFD0000703EFDAA3E701F0F1FFB9E700249FE7E9
:10AFE00002249DE7AFD5002016D700202E78070059
:10AFF00000D70020A858070030E2002094E200208B
:10B0000011E300209D160700BD190700B4160700C4
:10B01000A8E20020295E0700CD190700D8A3002070
:10B020002DE9FF41536E012B0D46144624D13949B9
:10B0300010680BF00AFF044620B10224204604B039
:10B04000BDE8F08101F02AFF294633480FF0A0FA4D
:10B05000324931480FF08AFA314A3249D3790393A1
:10B0600093790293537901931379009393782A4843
:10B0700012880FF0C1FAE1E7052BDED1161F02F1AD
:10B08000100756F8045F28460BF0F1FE2B462844C3
:10B09000984205D013F8012B303A092AF8D9CCE7A9
:10B0A000BE42EED10022114620680CF04DF840F26D
:10B0B000D233A0F2E6729A420546BED800226068FA
:10B0C00011460CF041F8431E0B2B0646B5D8002262
:10B0D000A06811460CF038F8431E1E2B0746ACD86A
:10B0E0000022E06811460CF02FF818288046A4D8FA
:10B0F0000022206911460CF027F83B289DD8C2B2E7
:10B1000000925FFA88F3FAB2F1B2A8B201F038FE09
:10B11000002493E72E78070030E20020DF2C0700A0
:10B12000D4D90020DD19070007B503230193054B8F
:10B130000093054B054A064819460EF052FF03B02E
:10B140005DF804FB21B30200F8190700001A07009C
:10B150000EE3002007B503230193054B0093054B35
:10B16000054A064819460EF03CFF03B05DF804FBA3
:10B17000EDB30200581A07005D1A07000EE3002025
:10B1800007B503230193054B0093054B054A064879
:10B1900019460EF026FF03B05DF804FBEDB4020083
:10B1A000BB1A0700C01A07000EE3002007B50323EF
:10B1B0000193054B0093054B054A064819460EF0CE
:10B1C00010FF03B05DF804FB59AE0200E71A070058
:10B1D000EC1A07000EE3002007B503230193054B8B
:10B1E0000093054B054A064819460EF0FAFE03B0D7
:10B1F0005DF804FB21B00200021B0700061B0700DC
:10B200000EE3002007B502230193054B0093054B85
:10B21000054A064819460EF0E4FE03B05DF804FB4B
:10B2200089A302002D1B0700341B07000EE300203A
:10B2300007B502230193054B0093054B054A0648C9
:10B2400019460EF0CEFE03B05DF804FBE9AD020036
:10B250004B1B0700521B07000EE3002010B50D4CDE
:10B260000D4986B003A80FF041F803A920460EF05F
:10B27000A3FE03A80EF0F4FF02230193074B0093F3
:10B28000074B084A194604F126000EF0AAFE06B044
:10B2900010BD00BFE8E200206A1B070079A302008E
:10B2A000721B07007B1B070070B5194C19491A4E19
:10B2B000C2B09022201D0BF02DF89021201D19F016
:10B2C00095FE00252060FE22294602A801950BF07C
:10B2D0002FF8B4F88E30E8B2984205F1010508DA8B
:10B2E000231831461A7B01AB03EB40000BF080FDC5
:10B2F000EFE7074A0948942300210EF08AFE28B997
:10B300000146034A054894230EF083FE42B070BD07
:10B31000DCA3002008A30020E39907000FE300202E
:10B32000F8B5536E012B0E4602D002242046F8BD1C
:10B330001568274928460BF088FD044660B1284669
:10B340000BF095FD2A462844904224D012F8013B88
:10B35000303B092BF8D9E8E71E4F1F497B681F488F
:10B3600032464FF47A75B3FBF5F30FF045F91C49FB
:10B370001A480FF041F97B681749B3FBF5F33246E1
:10B3800018480FF039F9164916480FF035F96420BE
:10B3900018F0D2FFCAE70A22002128460BF0D4FE9B
:10B3A000B0F5E15FC1D80B4C4FF47A73584360603D
:10B3B00000210D480EF04BFE626822B100230A48BE
:10B3C00019460EF03AFEFFF76FFF0024AEE700BF0C
:10B3D0002E78070004A300209E1B070030E2002007
:10B3E000A858070094E2002011E30020536E012BBF
:10B3F00070B50E4602D00224204670BD1568334950
:10B4000028460BF022FD044660B128460BF02FFDC4
:10B410002A46284490421ED012F8013B303B092BAB
:10B42000F8D9E8E72A4D2B496B7A2B4832460FF0C2
:10B43000E3F82A4928480FF0DFF86B7A25492848B5
:10B4400032460FF0D9F8254925480FF0D5F8642089
:10B4500018F072FFD0E70A22002128460BF074FE94
:10B460000328C8D81A4C637A984223D06072FFF739
:10B470001BFF637A012B22D01ED9023B012B21D95D
:10B48000184915480FF0B8F8144913480FF0B4F8EC
:10B49000144913480FF0B0F8104911480FF0ACF8F8
:10B4A000642018F049FF41F2883018F045FF0E483B
:10B4B0000EF08CFD00249FE7FDF784FBE0E7FDF72D
:10B4C000D9FBDDE7FDF702FCDAE700BF2E780700C5
:10B4D00004A30020A51B070030E20020A8580700A5
:10B4E00094E20020AB1B0700A8E20020F8B5536EE1
:10B4F000012B0D4602D002242046F8BD17682549CD
:10B50000254E38460BF0A1FC044678BBB6F88E30C9
:10B51000ABB92A46214922480FF06EF8214920484C
:10B520000FF06AF82A461D491F480FF065F81D49BB
:10B530001D480FF061F8642018F0FEFEDCE7294694
:10B540001A481B4F19F010FA2546B6F88E20EBB2B8
:10B55000934205F1010505DA33443846197B19F0A9
:10B5600003FAF2E70F4819F0FFF9C5E738460BF088
:10B570007EFC06F10C0201460546384613F0E4FC59
:10B5800004460028B7D16D08A6F88E50FFF78CFE50
:10B59000B2E700BF2E78070004A30020C81B0700F5
:10B5A00030E20020A858070094E20020D41B0700D6
:10B5B000E3990700F0B52E4D2E48C3B094232A46D8
:10B5C00000210EF01CFD0646B8B12B7AAA2B17D12C
:10B5D0009021281D19F00AFD2B68274C834211D0B9
:10B5E00047F23052AA23C4E90123244BE360042329
:10B5F000A4F88E30FFF758FE0026304643B0F0BD69
:10B600000020E9E76B6863606B7AB5F88E20032B46
:10B6100086BF0023374600276372802A6B896381C7
:10B6200006D900232373A4F88E30FFF73DFE07E010
:10B6300013491448A4F88E200AF06CFE002FF4D1B0
:10B640000025FE22294602A801950AF071FE0E4F40
:10B65000B4F88E30E8B2984205F10105CDDA23182E
:10B6600039461A7B01AB03EB40000BF0C1FBEFE75F
:10B67000DCA300200FE3002004A300200102030448
:10B68000E8A3002010A30020E399070010B5074BA2
:10B6900053F82020002332F813408C42D8B203D84C
:10B6A0000133102BF7D1184610BD00BFFCA40020B9
:10B6B00013B501900F480EF071FB019980B2FFF7AE
:10B6C000E5FF04460C480EF045FBA0420FD20B48A4
:10B6D00000F0E4FD0A490B4822460BF089FB0948BB
:10B6E00000F0DCFD084B0020187002B010BD0120F6
:10B6F000FBE700BF6AE3002058E30020411C07007D
:10B70000531C0700B5D50020D1D600202DE9F34108
:10B710000121754E074622200FF021F84FF4FA70F0
:10B7200018F00AFE3478002C7ED1704970480094DD
:10B7300040F24C43422207F061FC054620B9002448
:10B74000204602B0BDE8F08169484FF0020840F29F
:10B750004C42012186F8008007F06AFA654E002FFE
:10B7600057D040F24C4322460121614807F0D8FAF5
:10B7700040F24C43424601215D4807F0D1FA40F2C5
:10B780004C43062201215A4807F0CAFA0122114609
:10B7900040F24C43564807F0C3FA40F24C430322B0
:10B7A0000121534807F0BCFA40F24C430422012126
:10B7B0004F4807F0B5FA40F24C4305224C480121AE
:10B7C00007F0AEFAF37A40F24C42E3B10521484863
:10B7D00007F075FC464840F24C432246012107F031
:10B7E00075FB434840F24C4107F028FA737A023B5C
:10B7F000012B02D8F47A002CA2D1002122200EF0D5
:10B80000AEFF2C469CE74FF4FA71394807F098FCDC
:10B81000E7E740F24C424FF0FF31354807F02EFA8F
:10B82000FA2018F089FDE1E70025304930480095FD
:10B8300040F24C43422207F0E1FB044600283FF46B
:10B840007EAF40F24C420121294807F0F1F940F265
:10B850004C432A460121264807F062FA40F24C4345
:10B8600002220121224807F05BFA40F24C430622F3
:10B8700001211F4807F054FA0122114640F24C43BF
:10B880001B4807F04DFA40F24C43032201211848AF
:10B8900007F046FA40F24C4304220121144807F015
:10B8A0003FFA40F24C4305221148012107F038FAD3
:10B8B000104BDB7A40F24C4283B105210C4807F073
:10B8C000FEFB0B4840F24C432A46012107F0FEFAEA
:10B8D00040F24C41064807F0B1F931E74FF4FA71F4
:10B8E000034807F02DFCF3E724D700208CE3002069
:10B8F00054D7002004A300202DE9F04FDFF80C837B
:10B90000A94FAA4CAA4DDFF80893AA4E8BB000238A
:10B9100000220021C8E90023C7E900234FF0000AF4
:10B920001C2203A82970C9F8001021700291C6F8E2
:10B9300000A00AF0FDFCA04902A80BF090FA9F4B72
:10B940009F48DB7AA34640F24C41002B66D007F0BB
:10B95000C0FCC117C8E9000140F24C41984807F00B
:10B960009DFCC117C7E9000140F24C41944807F023
:10B97000CBFC40F24C41C9F80000914807F01FFC95
:10B9800007EE900AF8EE677A40F24C418C48C6ED1B
:10B99000007A07F068FC40F24C412070884807F0BC
:10B9A00026FC012829D1874902A80BF058FA96ED08
:10B9B000007ADFED857AB4EEE77AF1EE10FA05D57C
:10B9C0007A4B1B78052B01D901232B702B7803F0C0
:10B9D000FF04002B00F0D280D7E900E31A46D8F824
:10B9E0000430D8F800C01A434CEA0E00114650EA61
:10B9F000010378D100242C70AAE0022801D17349F8
:10BA0000D2E7032801D17249CEE7042801D1714958
:10BA1000CAE705280CBF70496749C5E707F004FC71
:10BA20000028D3D0012124200EF099FE644840F272
:10BA30004C4107F0DCFB044600283DD15E4902A8DA
:10BA40000BF00DFA5E4840F24C4107F00CFC634BE2
:10BA50008BF800001A78904242D1614A1378013382
:10BA60001370022CB2D95E4B1B78012BAED9012387
:10BA700040F24C4152482B7007F02BFCC117C8E92B
:10BA8000000140F24C414E4807F008FCC117C7E9DD
:10BA9000000140F24C414A4807F036FC40F24C416C
:10BAA000C9F80000464807F08AFB07EE900AF8EE56
:10BAB000677AC6ED007A89E7012801D14949BEE7D6
:10BAC000022801D14849BAE7032801D14749B6E71E
:10BAD000042801D13F49B2E70528B3D13E49AEE77A
:10BAE00088BF1870BDE7354B304D5B7A032B33D1DF
:10BAF0003F4B40481B6872461BB2614601F0C0FED6
:10BB0000D8E9000144F0BEFE25A3D3E9002345F0A7
:10BB100011F845F0DDF9384B1860D7E9000144F021
:10BB2000B1FE1FA3D3E9002345F004F845F0D0F996
:10BB3000324B32681860324B1A604FF47A72D9F87F
:10BB4000003093FBF2F32F4A13602F4B2A781A70C0
:10BB500020460BB0BDE8F08FD9F8003096ED000A12
:10BB600024484FF47A7193FBF1F395F9001000919A
:10BB70001BB27246614601F0B7FDC1E71E4BC3F828
:10BB800000A01E4BC3F800A01D4B4FF07E521A6060
:10BB90001C4B1C601C4B1C702DE700BFAFF30080DA
:10BBA00000000000D012634148D70020D8D8002000
:10BBB00039D7002018D70020611C070004A30020FB
:10BBC00054D70020681C070000009643771C07002C
:10BBD000831C07008F1C0700981C070050D700200B
:10BBE00051D70020A11C0700AB1C0700B21C0700A6
:10BBF000C8D60020A4D5002030D7002034D700209C
:10BC000028D700202CD7002038D7002040D700208C
:10BC10001CD700202DE9F041012186B023200EF031
:10BC20009EFDFFF769FE6B4F6B4E0446002800F047
:10BC30009B806A4BD97A11B922200EF090FD684B97
:10BC4000002264201A7018F077FB664803210EF07A
:10BC5000FEF93B78002B36D0634B1B78002B32D19A
:10BC600000F07AFB614800F019FB614B1868614BEA
:10BC70001D68614BD3F8008044F0DAFD02460B46A4
:10BC80002846CDE90423CDF8088044F0D1FDDDE954
:10BC90000423CDE90001594959480BF0A9F8584847
:10BCA00000F0FCFA574B1868574B1D7844F0C0FD64
:10BCB000EDB202460B465248544900950BF098F8F5
:10BCC0004F4800F0EBFA524B1B781BB95148012149
:10BCD0000EF093F85048DFF8588101F097FE80B2DB
:10BCE000FFF7E6FC0546D8B14B4801F08FFE049003
:10BCF000494801F08DFE01240246CDE90044049933
:10BD0000464823460DF078FF38B988F80000444AC9
:10BD10001368013313602C4604E088F80040F6E70E
:10BD200088F800003B78002B49D0002C47D12E4BDF
:10BD30001B78002B43D100F00FFB314B1C70274BBD
:10BD4000DB7A002B30D0374800F0A8FA364B1A784F
:10BD500062BB34882A4B2A20114694422ADD18708F
:10BD6000013203F8011FF8E7304B32881B889A42F2
:10BD7000D8D3642018F0E0FA194B1A481C702C4BE9
:10BD800003211C700EF063F93D785DB1164B1C78F1
:10BD9000002CC7D127491A480BF061F8184800F069
:10BDA0007DFAB8E70124BDE72348CDE723491448CD
:10BDB0000BF01EF8124800F071FA00F003FB338814
:10BDC000002101332320338006B0BDE8F0410EF09E
:10BDD000C6BC00BFAED5002020D7002004A30020A1
:10BDE000ACD5002011E3002000D70020B91C0700CB
:10BDF00030D7002034D700202CD70020C31C0700E8
:10BE0000B5D5002028D7002038D70020D31C070044
:10BE1000D0D600206CE30020A4D5002049E3002008
:10BE2000C8D60020FD1C0700D8D8002022D700204B
:10BE3000D1D60020E51C0700131D0700261D0700B2
:10BE400010B5054C204602F045F82046034A044947
:10BE5000BDE810400AF0F0B954D7002090A10020AE
:10BE6000E1E402000020704738B590F83330044612
:10BE70000D4613B1406B0EF0E3FA94F83010606B8E
:10BE80000EF022FB606B802100F02DF8606B0368E0
:10BE900029461B689847606B0121BDE838400EF0C9
:10BEA0001FBB000010B5034B0360044607F024FBE2
:10BEB000204610BD981E070010B50446406B0EF0DA
:10BEC000BFFA606B02490EF0CFFA012010BD00BF2F
:10BED000801A060010B50446FFF7E4FF20460CF078
:10BEE000FDFC204610BD0368C9B21B6818472DE948
:10BEF000F84F90F83330044613B1406B0EF0A0FABF
:10BF0000658AC5F180054FF0000A05EBD575FF275E
:10BF10006D10D146D0463E46A38A5FFA8AF1B1EB56
:10BF2000D30F28DA4FF0000C638A5FFA8CF0984246
:10BF30001CDA11FB03F30344A2689BB212F803E07E
:10BF4000E26812F803B0F3450BD08E4228BF0E46CC
:10BF5000884538BF8846874228BF0746814538BF95
:10BF6000814602F803E00CF1010CDDE70EF077F8F2
:10BF70000AF1010AD0E7FF2E57D0236821219B69DF
:10BF800020469847236857FA85F19B69C9B2204635
:10BF900098475FFA85FA23680AEB09019B69C9B2E1
:10BFA00020469847236822219B69204698472368AA
:10BFB00031469B6920469847236841469B69204645
:10BFC00098470025B04529D3BA46CA4521D845B976
:10BFD00094F83010606B0EF077FA606B4021FFF739
:10BFE00082FFA268606B638A06FB0323026813F872
:10BFF0000A1012680135EDB29047102D04D1606B24
:10C0000001210EF06DFA00250AF1010A5FFA8AFAA1
:10C01000DBE701360EF023F8F6B2D3E72DB1606B03
:10C020000121BDE8F84F0EF05BBABDE8F88F0000C3
:10C0300038B51648164C0EF003FA4FF4FA7018F0A3
:10C040007BF90125204684F8335007F00CFE20468A
:10C0500007F0BFFC204607F03AFD204607F0A7FC9A
:10C06000C821204607F0FCFC204607F023FD4023B2
:10C07000F1222046642107F0BEFC0649204607F065
:10C0800094FC2046FFF733FF284638BD8CE30020A0
:10C090009CD90020B81E070030B52DED028B044658
:10C0A00097B04F480D464F4907F07FFC4C480021A0
:10C0B00007F02CFA00220B231146494800938023F5
:10C0C00007F03CFB4648012107F020FA44480021D4
:10C0D00007F069FC444B1B787BB1444B1B7863B180
:10C0E0005DB1434906A80EF001F906AB00223C48B9
:10C0F000114607F0F5FD06A81AE03E4BDD7A002D4B
:10C100002FD03D4B3D4918783D4A2346002808BFB3
:10C110000A463C4906A80AF06BFE06A903A80EF0E1
:10C12000E5F800222E4803AB114607F0D9FD03A81D
:10C130000EF096F84FF08043D3F8384414F0FF0423
:10C1400016D0032C46D00B2200927F2300212448D6
:10C1500007F013FA2248FFF7CAFE17B0BDEC028BB6
:10C1600030BD214606A80EF0C1F806AB2A46BEE750
:10C1700025489FED268A244C0DF02AFF0A252046EB
:10C180000DF026FF013D38EE008AF8D1F2EE047A78
:10C19000C8EE277A17EE900A44F04AFB02460B4697
:10C1A00006A81B490AF024FE82B206A90C4807F033
:10C1B000DDFB06A9044603A80EF098F8C4F17F0140
:10C1C000074803AB002209B207F08AFD03A80EF06E
:10C1D00047F8B8E70F4906A80AF041FE2246E4E70F
:10C1E0009CD90020B81E07000CDA0020AFD5002033
:10C1F000311D070004A3002039D7002095990700BE
:10C20000CE5C07003F1D07000DE30020000000008A
:10C21000451D07004B1D0700F0B51C481C4F1D4E67
:10C220001A4D87B0002107F071F940230C221748FE
:10C2300000930021802307F081FA1749134807F083
:10C24000B4FB1248012107F061F91048002107F002
:10C25000AAFB00243B78A34213DD06EB441103A89C
:10C260000EF044F804EB840252000C3203AB12B21D
:10C270000021284607F034FD03A80DF0F1FF01343A
:10C28000E8E70248FFF733FE07B0F0BD9CD9002075
:10C29000D9D80020DAD80020B81E070070B5274C86
:10C2A000274D2278052A034638D105F12002294678
:10C2B00005F1400052F8046B41F8046B8242F9D159
:10C2C000204AA2F1200102F1200052F8046B41F84B
:10C2D000046B8242F9D11C4AA2F1200102F1200034
:10C2E00052F8046B41F8046B8242F9D1174AA2F16B
:10C2F000200102F1200052F8046B41F8046B8242E5
:10C30000F9D1134AA2F1200102F1200052F8046B86
:10C3100041F8046B8242F9D10422227020780D4A40
:10C3200005EB401020210AF02FFD2378052B1CBFC0
:10C3300001332370BDE87040FFF76EBFD9D80020ED
:10C34000DAD800201AD900203AD900205AD9002082
:10C350007AD900201A78070007B50B48002107F0AA
:10C36000D5F8402300930C2280230748002107F0D2
:10C37000E5F90548012107F0C9F8044B00221A70BD
:10C3800003B05DF804FB00BF9CD90020D9D8002081
:10C3900030B585B004460D4601A811460DF0C8FF22
:10C3A00004EB840252000C3201AB12B2294604485D
:10C3B00007F096FC01A80DF053FF05B030BD00BF9B
:10C3C0009CD9002008B50248FFF791FD08BD00BFC9
:10C3D0009CD9002070B504460B4D0C487CB107F089
:10C3E000E6FA01232B700A4B9B7A5BB1BDE87040E3
:10C3F000084800234EF6602202210DF01EBE07F011
:10C40000E8FA2C7070BD00BF4CA500209CD900201C
:10C4100004A3002011E300200020FFF7DBBF000091
:10C420002DE9F04F89B015461C469DF848309DF81F
:10C430004CA0029180460193FFF78EFF012D6BD136
:10C440008C498D4C05A80DF051FF002105AA084626
:10C45000FFF79EFF05A80DF003FF627A032A0FD8AD
:10C46000DFE802F002545658844905A80DF03EFF5B
:10C47000012005AA0021FFF78BFF05A80DF0F0FEB3
:10C480004FF47A7362687E49B2FBF3F27D487E4DC9
:10C490007E4C0AF0ADFC7B4905A80DF027FF05AAEC
:10C4A00000210220FFF774FF05A80DF0D9FEBAF1B4
:10C4B000000F14BF2A462246754972480AF098FCBC
:10C4C000704905A80DF012FF05AA00210320FFF70F
:10C4D0005FFF05A80DF0C4FE019B6E49002B14BF41
:10C4E0002A46224667480AF083FC664905A80DF0F3
:10C4F000FDFE05AA00210420FFF74AFF05A80DF064
:10C50000AFFEFFF75FFF09B0BDE8F08F6249ACE70F
:10C510006249AAE76249A8E7062D2BD1554905A82B
:10C520000DF0E4FE002105AA0846FFF731FF05A83B
:10C530000DF096FE5B4905A80DF0D8FE05AA002176
:10C540000120FFF725FF05A80DF08AFE564905A832
:10C550000DF0CCFE05AA00210220FFF719FF05A867
:10C560000DF07EFE444B51495A684FF47A73B2FB8A
:10C57000F3F2B7E7072D60D13E4905A80DF0B6FEEE
:10C58000002105AA0846FFF703FF05A80DF068FE85
:10C59000474905A80DF0AAFE05AA00210120FFF7D2
:10C5A000F7FE05A80DF05CFE424905A80DF09EFEC1
:10C5B000022005AA0021FFF7EBFE05A80DF050FEB2
:10C5C000002C35D0631E0C2CDBB233D0651CEDB2D1
:10C5D000394E2C4856F823100AF041FC294905A889
:10C5E0000DF084FE05AA40210220FFF7D1FE05A828
:10C5F0000DF036FE56F82420304922480AF0F8FBA8
:10C60000204905A80DF072FE402105AA0320FFF77E
:10C61000BFFE05A80DF024FE56F8251019480AF0B3
:10C620001EFC184905A80DF061FE05AA402162E72D
:10C630000C23CBE70B230025CAE7082D44D10D4975
:10C6400005A80DF053FE0021084605AAFFF7A0FE3D
:10C6500005A80DF005FE0A2C0CBF19491949094817
:10C660000AF0FDFB074905A80DF040FE05AA0021D0
:10C67000012041E74F1D0700D0A100209A130700B9
:10C68000611D0700B5D50020761E0700C116070002
:10C69000731D070082190700581D0700AA14070020
:10C6A000BB1407007F1D0700931D0700A71D07008F
:10C6B000C01D0700C91D070098A30020D21D070058
:10C6C000DA1D0700E61D0700092D5CD1A449A54C21
:10C6D00005A80DF00BFE002105AA0846FFF758FE3D
:10C6E00005A80DF0BDFDA04905A80DF0FFFD05AAA8
:10C6F00000210120FFF74CFE05A80DF0B1FD9B497C
:10C7000005A80DF0F3FD05AA00210220FFF740FE69
:10C7100005A80DF0A5FD964923780D789549964812
:10C72000AB4208BF0A7809781CBF03F1FF32D2B2CE
:10C73000994218BF0133914918BFDDB20AF058FB86
:10C740008D4905A80DF0D2FD05AA40210220FFF772
:10C750001FFE05A80DF084FD2278894986480AF05D
:10C7600047FB854905A80DF0C1FD05AA402103201E
:10C77000FFF70EFE05A80DF073FD80492A467E489E
:10C780000AF036FB4DE70A2D59D175497D4C05A8B5
:10C790000DF0ACFD002105AA0846FFF7F9FD05A83C
:10C7A0000DF05EFD704905A80DF0A0FD05AA002161
:10C7B0000120FFF7EDFD05A80DF052FD6B4905A81E
:10C7C0000DF094FD05AA00210220FFF7E1FD05A868
:10C7D0000DF046FD6C4923780D786C496648AB42F4
:10C7E00008BF0A7809781CBF03F1FF32D2B2994220
:10C7F00018BF0133664918BFDDB20AF0F9FA5E4985
:10C8000005A80DF073FD05AA40210220FFF7C0FD29
:10C8100005A80DF025FD22785E4957480AF0E8FA90
:10C82000554905A80DF062FD05AA40210320FFF738
:10C83000AFFD05A80DF014FD55492A469FE70B2DC5
:10C8400033D1474905A80DF051FD002105AA08463E
:10C85000FFF79EFD05A80DF003FD4F4905A80DF05B
:10C8600045FD05AA00210120FFF792FD05A80DF066
:10C87000F7FC4A4905A80DF039FD05AA0021022060
:10C88000FFF786FD05A80DF0EBFC454B186843F05B
:10C89000BDFF31A3D3E9002344F04CF902460B4617
:10C8A000354840490AF0A4FA1FE60C2D40F080807C
:10C8B0002B4905A80DF01AFD002105AA0846FFF72F
:10C8C00067FD05A80DF0CCFC274905A80DF00EFD6D
:10C8D00005AA00210120FFF75BFD05A80DF0C0FCB3
:10C8E000224905A80DF002FD05AA00210220FFF74C
:10C8F0004FFD05A80DF0B4FC062C03D0651E0C2CD2
:10C90000EDB226D0661CF6B22A4627491A480AF02C
:10C910006FFA194905A80DF0E9FC05AA402102208B
:10C92000FFF736FD05A80DF09BFC22461F49124873
:10C930000AF05EFA104905A80DF0D8FC05AA4021BE
:10C940000320FFF725FD05A80DF08AFC16493246A5
:10C9500015E70B250626D7E70000000080842E414E
:10C960004F1D070005D70020C01D0700C91D070087
:10C9700009D7002007D70020B5D50020F61D0700F5
:10C98000F11D070006D700200AD7002008D7002095
:10C99000001E0700FB1D0700071E0700151E0700ED
:10C9A00010D70020251E0700461E0700411E070065
:10C9B0000D2D62D1A44905A80DF098FC002105AA0F
:10C9C0000846FFF7E5FC05A80DF04AFC9F4905A8BD
:10C9D0000DF08CFC05AA00210120FFF7D9FC05A869
:10C9E0000DF03EFC9A4905A80DF080FC022005AA36
:10C9F0000021FFF7CDFC05A80DF032FC002C37D04C
:10CA0000631E092CDBB235D0651CEDB2914E924904
:10CA100056F8232091480AF0EBF9904905A80DF04B
:10CA200065FC05AA2C210220FFF7B2FC05A80DF039
:10CA300017FC56F824208A4988480AF0D9F9874912
:10CA400005A80DF053FC05AA2C210320FFF7A0FC3C
:10CA500005A80DF005FC56F825207F497F480AF00F
:10CA6000C7F97E4905A80DF041FC05AA2C2142E535
:10CA70000923C9E708230025C8E70E2D54D17249C0
:10CA800005A80DF033FC002105AA0846FFF780FC3D
:10CA900005A80DF0E5FB6D4905A80DF027FC05AADA
:10CAA00000210120FFF774FC05A80DF0D9FB6849AF
:10CAB00005A80DF01BFC022005AA0021FFF768FC69
:10CAC00005A80DF0CDFB54B3621E032CD2B228D0C2
:10CAD000651CEDB20532634960480AF089F95F4987
