:020000022000DC
:10700000000004203DA7030065A7030067A7030055
:1070100069A703006BA703006DA703000000000031
:107020000000000000000000000000006FA7030047
:1070300071A7030000000000000000000000000035
:107040000196050073A7030081B40500D99B0500D4
:1070500073A70300419205001990050031780600DE
:1070600073A70300199B05002D9B050073A7030060
:1070700073A7030073A7030073A7030073A703009C
:10708000358506001968050073A7030073A7030080
:1070900073A7030073A70300B96E060073A703006C
:1070A00073A7030073A70300419B0500559B0500D0
:1070B00073A7030073A70300000000000000000096
:1070C00073A7030073A7030073A703006D7D060079
:1070D0003198050073A7030073A7030091B1050061
:1070E00009B2060073A7030049D90600000000009A
:1070F0000000000073A70300000000003D810600AF
:10710000000000000000000000000000000000007F
:10711000000000000000000000000000000000006F
:10712000000000000000000000000000000000005F
:10713000000000000000000000000000000000004F
:10714000000000000000000000000000000000003F
:10715000000000000000000000000000000000002F
:10716000000000000000000000000000000000001F
:10717000000000000000000000000000000000000F
:1071800000000000000000000000000000000000FF
:1071900000000000000000000000000000000000EF
:1071A00000000000000000000000000000000000DF
:1071B00000000000000000000000000000000000CF
:1071C00000000000000000000000000000000000BF
:1071D00000000000000000000000000000000000AF
:1071E000000000000000000000000000000000009F
:1071F000000000000000000000000000000000008F
:1072000010B5054C237833B9044B13B10448AFF3E0
:1072100000800123237010BDC0D4002000000000B6
:10722000C820080008B5034B1BB103490348AFF35E
:10723000008008BD00000000C4D40020C820080061
:10724000154B002B08BF134B9D46A3F5803A002138
:107250008B460F461348144A121A10F061FF0F4B69
:10726000002B00D098470E4B002B00D098470020F1
:10727000002104000D000D48002802D00C48AFF397
:10728000008010F0FDFE2000290010F083FC10F0BB
:10729000E3FE00BF00000800000004200000000022
:1072A00000000000C0D400209CC6012000000000A7
:1072B000000000000022C0E900220172704738B5CA
:1072C0000446006820B1856913F000FA2846F9E702
:1072D000204638BD006820B143688B4201D08069E8
:1072E000F9E77047F8B504460F4616461D46FFF706
:1072F000F1FF20B10123826005704370F8BD1C20AE
:1073000013F0E8F9012343700023C0E90333C0E917
:10731000053323680570C0E9017613B92060606009
:10732000ECE763689861FAE72DE9F8430468164FC3
:1073300005460E464FF000081CB363680BB9A469FC
:10734000FAE72378002BFAD0E368A268F31A9A428E
:1073500002D961780029F2D09B1A636184F8018018
:10736000E66015F069F863688146984715F064F89F
:107370003B68A0EB0900206118442B7A3860002B91
:10738000DDD0BDE8F88300BFDCD4002008B5074B92
:1073900050B103221A700648FA22012114F0A9FC08
:1073A000044B00221A7008BD0522F3E7E0D4002048
:1073B00071E400202DD60020054B064800221A70EB
:1073C000054B08221A700121FA2214F092BC00BF6A
:1073D0002DD6002071E40020E0D4002084B004AB5E
:1073E00003E907000B4BBDF90A201A800A4B9DF9EF
:1073F0000C201A70094A0A48136801331360094BBC
:1074000000221A70084B0121FA22197004B014F0FE
:1074100070BC00BF10D5002012D5002028D6002057
:1074200071E400202DD60020E0D40020124B002271
:107430001A70124B5B7A022B1DD0114B90F906206B
:107440001A70104BB0F904201A800F4A0378137099
:107450000E4A417811700E4A817811701BB10D4AA5
:107460001368013313600C4B0C4804221A7001217D
:10747000FA2214F03EBC70472DD60020FCA200205A
:1074800012D5002010D5002015D6002013D60020DC
:1074900014D6002024D60020E0D4002071E400207F
:1074A0002DE9F04F2DED028B00218BB0AC4E044640
:1074B000242014F0B0FF0021232014F0ACFF337817
:1074C00063B1A84B1B784BB906F030FCA649A7481E
:1074D00011F0BDFBA548012107F0EAF844B9A44921
:1074E000A44814F0D1FE0BB0BDEC028BBDE8F08FC8
:1074F0002378012B40F08A819F4BA04F1B78A04D31
:10750000002B2DD09F4B1B78002B00F0968007F0AE
:1075100005FA9D4A9D4B11881980917899701179CF
:10752000D9705179927919715A7101229A719849D9
:107530000022DA710968996096490968D9601A745D
:107540005A74398849B29974297849B2D9749A829F
:10755000DA821A83904A126812B25A8307F0B8FD91
:1075600033788E4E002B00F0BF807E4B1C78002CB1
:1075700040F0BA808A497D4811F069FB7B4907A831
:1075800014F010FD07AA2146204606F0EBFB07A8E1
:1075900014F0C2FC32688349744811F021FB73492E
:1075A00007A814F0FFFC07AA2146012006F0DAFB29
:1075B00007A814F0B1FC7C4814F0C9F84AF04AFF5F
:1075C00065A3D3E900234BF0E9F80B46024677495F
:1075D000664811F005FB654907A814F0E3FC07AA0B
:1075E0002146022006F0BEFB07A814F095FC704867
:1075F00014F0BEF86F4902465C4811F0F1FA5B499D
:1076000007A814F0CFFC07AA2146032006F0AAFB26
:1076100007A814F081FC684814F0BBF8092800F2B0
:10762000F380DFE810F00D00930095009700E5006F
:10763000E700E900EB00ED00EF0007F0E7FA68E78C
:107640005E4905A811F003FB5B4814F0A2F85C4BFF
:107650005C4953F82020454811F0C2FA434907A875
:1076600014F0A0FC07AA4021032006F07BFB07A82A
:1076700014F052FC544814F09DF85449421D3B4804
:1076800011F0AEFA394907A814F08CFC07AA402182
:10769000022006F067FB07A814F03EFC3A884C492C
:1076A000324812B211F09CFA304907A814F07AFC63
:1076B00007AA0021042006F055FB07A814F02CFCB3
:1076C0002A784449294852B211F08AFA274907A872
:1076D00014F068FC07AA4021042006F043FB07A829
:1076E00014F01AFC06F058FB3B49224814F0CCFD7C
:1076F00032683B8829781F4849B21BB2009137494C
:1077000014F0D6FD284814F022F808EE100A284894
:1077100014F02EF80446284814F03BF8F8EE487AA6
:10772000054617EE900A4AF0B7FE0BA3D3E90023F3
:107730004BF034F87D2305FB0333CDE900430246CB
:107740000B460C48264914F0B3FDCCE6254978E7F2
:10775000254976E7254974E70000000080842E4122
:107760000DD5002058D80020EC2E070013D500209E
:10777000FD2E070090E300200ED5002010D500203C
:1077800012D5002034DB00202CDB0020A4A1002037
:1077900088D800208CD8002024D6002028D60020AD
:1077A0000A2F0700182F0700D9E40020F53707003B
:1077B000DAE400204C430700DBE400202C2F070014
:1077C00074A20020622F0700DCE40020654307005C
:1077D000682F0700702F0700772F0700842F0700FE
:1077E000A12F0700302F0700342F0700382F070084
:1077F0005C4926E75C4924E75C4922E75C4920E7CD
:107800005C491EE75C491CE75C491AE7032B62D11F
:107810003378002B3FF467AE594B1E78002E7FF46F
:1078200062AE584C657A002D41D0022D4CD04FF4F9
:107830007A7362685449B2FBF3F2544811F0D0F9FC
:10784000524907A814F0AEFB07AA0021012006F058
:1078500089FA07A814F060FB4D4907A814F0A2FBB1
:10786000002107AA022006F07DFA07A814F054FBB5
:107870004849464811F0EBF9444907A814F092FB37
:10788000002107AA032006F06DFA07A814F044FBB4
:107890003F4907A814F086FB07AA0021042006F040
:1078A00061FA07A814F038FB06F076FA1BE63A49AD
:1078B00007A814F077FB07AA2946084606F052FAF3
:1078C00007A814F029FBB2E7344907A814F06AFBB3
:1078D00007AA3146F1E7052B64D13378002B3FF43A
:1078E00002AE274B1E78002E7FF4FDAD254C657A45
:1078F00025B3022D2FD04FF47A7362682249B2FB70
:10790000F3F2224811F06CF9204907A814F04AFB61
:1079100007AA0021012006F025FA07A814F0FCFAB6
:107920001B4907A814F03EFB002107AA022006F01D
:1079300019FA07A814F0F0FA19499AE7164907A8A6
:1079400014F030FB07AA2946084606F00BFA07A8F0
:1079500014F0E2FACFE7114907A814F023FB07AAB5
:107960003146F1E73C2F0700412F0700472F070062
:107970004D2F0700532F0700592F07005E2F0700D8
:1079800058D80020FCA20020D72F070013D50020D4
:107990008BE20700EA2F0700B62F0700C52F07006C
:1079A000F62F0700042B40F00182854B854C1B7895
:1079B000DFF87892DFF87882834F002B35D0834B45
:1079C0001B78002B00F0F98006F0A8FF804A814B5D
:1079D00011881980917899701179D97051799279BB
:1079E00019715A7100229A7198F80010C9B2D971B0
:1079F00079490968996079490968D960218849B24B
:107A00001974218849B25974218849B2997499F836
:107A1000001049B2D9749A82DA823A781A83704A8D
:107A2000126812B25A8307F053FB3378DFF804A2CE
:107A30006C4D002B00F0A3806B4B1E78002E40F0A5
:107A40009E806A4B29786A4A6A48002918BF1A46FC
:107A5000694911F0C5F8674907A814F0A3FA07AA05
:107A60003146304606F07EF907A814F055FA2A7818
:107A700002F0FF0B002A40F0DF803A785F495D4852
:107A800011F0AEF85B4907A814F08CFA07AA594622
:107A9000012006F067F907A814F03EFADAF8002092
:107AA0005749544811F09CF8524907A814F07AFA43
:107AB00007AA5946022006F055F907A814F02CFA37
:107AC000474B50491A684B4811F08AF8494907A8B2
:107AD00014F068FA07AA4021022006F043F907A82B
:107AE00014F01AFA98F800204749424811F078F843
:107AF000404907A814F056FA07AA5946032006F091
:107B000031F907A814F008FA404813F089FF4049FA
:107B10000246384811F064F8364907A814F042FAD2
:107B200007AA4021032006F01DF907A814F0F4F974
:107B3000228838492F4812B211F052F82D4907A86F
:107B400014F030FA07AA5946042006F00BF907A8EA
:107B500014F0E2F999F800202F49264852B211F0AA
:107B60003FF8244907A814F01DFA042007AA402171
:107B700006F0F8F807A814F0CFF906F00DF9297807
:107B80001A4B1B4A2548002918BF1A46244914F0ED
:107B90008FFBDAF80020238899F800101F4849B2BB
:107BA00000911BB21F4914F083FB98F800201E4976
:107BB0003B781A4814F07CFB95E407F027F805E7BA
:107BC0000ED5002010D5002013D6002034DB002075
:107BD0002CDB0020A4A1002088D800208CD8002015
:107BE00024D6002015D6002058D80020E82E070003
:107BF000E92E070013D500200C3007001D300700C8
:107C0000303007003830070040300700B8E400206B
:107C10003D310700682F0700702F070090E3002018
:107C200043310700842F07005231070012D500208E
:107C300014D6002028D60020DAF800204349444812
:107C400010F0CEFF424907A814F0ACF907AA31465C
:107C5000012006F087F807A814F05EF93D4B3E4975
:107C60001A683B4810F0BCFF394907A814F09AF98C
:107C700007AA4021012006F075F807A814F04CF976
:107C80002A783649324810F0ABFF314907A814F082
:107C900089F907AA3146022006F064F807A814F013
:107CA0003BF92B78013B0F2B4ED8DFE803F0082F70
:107CB00031333537393B3D3F41434547494B2849EF
:107CC000234810F0C4FF224907A814F06BF907AA53
:107CD0000021032006F046F807A814F01DF92148FA
:107CE00013F09EFE20490246194810F079FF18490A
:107CF00007A814F057F907AA0021042006F032F86B
:107D000007A814F009F906F047F836E71749D7E74E
:107D10001749D5E71749D3E71749D1E71749CFE7FF
:107D20001749CDE71749CBE71749C9E71749C7E70F
:107D30001749C5E71749C3E71749C1E71749BFE71F
:107D40001749BDE71749BBE71749B9E730300700C6
:107D500013D5002024D60020383007004930070012
:107D60005E300700B8E400203A3107006C300700AD
:107D700077300700833007008F3007009930070005
:107D8000EA2F0700A3300700B7300700CA3007000A
:107D9000DA300700E7300700F13007000131070053
:107DA0000F3107001B3107002C310700AB4B1B784C
:107DB000062B40F08D81AA4BAA49DD781C7993F8F7
:107DC00001809F7893F905B0A748C5EB451205EBF4
:107DD0008205A8F1C808C4EB4412C83F04EB820432
:107DE0001FFA88F85A790292BFB25A466D006400B1
:107DF0000FFA88FA0FFA87F914F05AFA2DB29B4954
:107E000099484B46524624B214F052FA23469849F8
:107E100095482A4614F04CFA964B1B78002B34D028
:107E2000954B1B78002B00F0F48006F077FD934A09
:107E3000934B11881980917899701179D970517983
:107E4000927919715A7102229A71029ADA718D4AE5
:107E500012689A608C4A1268DA604FFA88F88B4A86
:107E600083F810807FB25F74128852B29A74884A85
:107E7000127852B2DA7400229D82DC821A83854A1B
:107E8000126812B25A8307F023F93378002B3FF4BB
:107E90002AAB814B1E78002E7FF425AB05F046FF00
:107EA0007E48012106F004FC794B7D491A78774B16
:107EB0007C481B8852B21BB210F092FE794907A889
:107EC00014F070F807AA3146304605F04BFF07A8BA
:107ED00014F022F85A467449724810F081FE714934
:107EE00007A814F05FF807AA3146012005F03AFF11
:107EF00007A814F011F86D4907A814F053F807AA61
:107F00003221012005F02EFF07A814F005F868497A
:107F100007A814F047F807AA5021012005F022FF16
:107F200007A813F0F9FF634907A814F03BF807AA64
:107F30003146022005F016FF07A813F0EDFF5E4959
:107F400007A814F02FF807AA3146032005F00AFF0E
:107F500007A813F0E1FF52465849524810F040FE7E
:107F6000504907A814F01EF807AA3221022005F094
:107F7000F9FE07A813F0D0FF4A465049494810F0CF
:107F80002FFE484907A814F00DF807AA3221032054
:107F900005F0E8FE07A813F0BFFF494BDF7A002F7A
:107FA0003AD02A4645493F4810F01AFE3D4907A8F5
:107FB00013F0F8FF07AA5021022005F0D3FE07A80E
:107FC00013F0AAFF22463D49364810F009FE354914
:107FD00007A813F0E7FF07AA5021032005F0C2FE0F
:107FE00007A813F099FF274B1868274B1C684AF025
:107FF00053FA02460B46CDE9022320464AF04CFADA
:10800000DDE90223CDE900012E49264810F0E8FD04
:1080100022E006F0FBFD0AE72B49224810F017FE8C
:10802000204907A813F0BEFF07AA5021022005F03F
:1080300099FE07A813F070FF1A4907A813F0B2FFC2
:10804000502107AA032005F08DFE07A813F064FF56
:108050001E49144810F0FBFD12491AE4E0D4002038
:10806000E1D400206C31070090E300208B31070041
:10807000A53107000ED5002034DB00202CDB0020CA
:10808000A4A1002088D800208CD8002010D5002082
:1080900012D5002024D6002058D80020C331070074
:1080A000D331070013D50020EA310700C68E070040
:1080B000F5310700FE310700023207002D300700BE
:1080C000FCA20020063207001B3207001232070014
:1080D000072B5ED14249434814F0EAF8424B1B7823
:1080E000002B28D0414B1B78002B4FD006F016FCFC
:1080F0003F4A404B11881980917899701179D97055
:108100005179927919715A7102229A713A49002271
:10811000DA710968996039490968D9601A745A7422
:108120009A74DA749A82DA821A83354A126812B221
:108130005A8306F0CDFF3378002B3FF4D4A9314B9E
:108140001C78002C7FF4CFA905F0F0FD2E4801210A
:1081500006F0AEFA2D492E4810F079FD2C4907A8FB
:1081600013F020FF07AA2146204605F0FBFD07A8D3
:1081700013F0D2FE204B1868204B1D684AF08CF992
:1081800002460B46CDE90223284637E706F03EFDBE
:10819000AEE7082B7FF4A7A91E49124814F088F80F
:1081A0001D4B00221A703378002B3FF49CA9154B0D
:1081B0001B78002B7FF497A905F0B8FD1748012123
:1081C00006F076FA1649124810F041FD104907A84A
:1081D00013F0E8FE002107AA0846FFF760BB00BFC6
:1081E0001E32070090E300200ED5002034DB002073
:1081F0002CDB0020A4A1002088D800208CD80020EF
:1082000024D6002058D80020C33107003D32070093
:1082100013D50020523207002DD60020EC2E070087
:108220006932070010B5044607F0DCFA204610BD9D
:1082300008B5064B1B783BB114F0F9F8BDE80840CF
:1082400001460348FFF770B808BD00BF59D80020A9
:1082500018D600201F4B07B501221F481A7013F0D3
:10826000F4FA18B11D48002113F0B9FA1C4813F0B4
:108270003DFC1C491C4813F04BFB1C491A4813F0E9
:1082800057FB1B49184813F04BFB1A49164813F0CB
:1082900057FB1949144813F05BFB0021174813F0F2
:1082A00095FB0021164813F0FFFB322301220093B7
:1082B0000D480A23114613F0EAFA124BDB7A33B168
:1082C0000121222003B05DF804EB14F0A4B803B040
:1082D0005DF804FBA1A10020E4E40020CEE400202E
:1082E000CDE40020AD880200A9E40020C589020089
:1082F0008D7302002D740200798A0200B1E400201F
:10830000CBE40020FCA2002010B50B4C002120463D
:10831000FEF7D0FF2046094C094A0A490FF084FEB7
:10832000FF21204607F052FA2046054A0649BDE8DB
:1083300010400FF079BE00BF18D6002004D50020F1
:1083400090A10020BF720200258202002DE9FF41AA
:10835000974C984D637A984F0126022B2E7040F06F
:108360009D81964807F045FAE37A002B00F05A8188
:10837000934A3B7811789046002940F0EE805BB13B
:10838000904B1B7843B905F0D1FC8F48314606F07D
:108390008FF98E4805F06CFC04F00EFF002856D0D3
:1083A0008B4B1B78F3B98B4A8B498C4813F080FFB9
:1083B0008B498A4813F07CFF8A49884813F078FF7C
:1083C000864813F04BF98649874813F071FF8549B9
:1083D000854813F06DFF64201DF0E0FD8348012106
:1083E00013F071FBB4F88E0004F0D4FC60B3734852
:1083F00007F002FA0390714807F000FA01230246E1
:10840000CDE9003303997A4813F05CFA0446D8B9F1
:10841000704A7149714813F04BFF76496F4813F069
:1084200047FF70496D4813F043FF6C4813F016F98D
:1084300070496D4813F03CFF6A496B4813F038FFF0
:1084400064201DF0ABFD2C7004B0BDE8F0816A4BD8
:108450001A7802F0FF06002A62D018703B784BB100
:10846000584B1B7833B96549654810F0F0FB6448F8
:1084700005F0FEFB002300931A4619464F48B7EE5D
:10848000000A07F0D9F8524B1B78F3B95D4A5249FC
:10849000524813F00DFF5249504813F009FF51495B
:1084A0004E4813F005FF4D4813F0D8F84C494E489C
:1084B00013F0FEFE4B494C4813F0FAFE64201DF009
:1084C0006DFD4A48012113F0FEFAB4F88E0004F065
:1084D00061FC0028B8D0394807F08EF9039037487E
:1084E00007F08CF901240246CDE900440399404885
:1084F000234613F0E7F90028A5D1424A28703649EF
:10850000364813F0D5FE3B49344813F0D1FE3549C7
:10851000324813F0CDFE314813F0A0F835493AE067
:108520000123264888F8003007F063F9364B3748B6
:108530001E8041F288326368B3FBF2F3344A138041
:10854000344B1E70344B40F6C4121E700321334668
:1085500004B0BDE8F04113F0CCBB5BB1194B1B7804
:1085600043B905F0E3FB1848314606F0A1F82B4863
:1085700005F07EFB174A1849184813F099FE284960
:10858000164813F095FE1749144813F091FE13484E
:1085900013F064F82249144813F08AFE1149124876
:1085A00013F086FE642004B0BDE8F0411DF0F6BC77
:1085B000FCA200202DD600200DD5002004D50020DF
:1085C0000CD5002058D80020793207008A320700E5
:1085D0002CD60020A5320700A932070090E3002026
:1085E000AF320700187E0700F4E30020CCE400203F
:1085F000A9E40020BC32070001D50020D8320700D2
:1086000013D50020EE32070078D8002071E4002056
:108610007AD80020A8D80020A9D80020F33207007B
:10862000073307003B785BB1874B1B7843B905F0F4
:108630007DFB8648314606F03BF8854805F018FB7F
:10864000002300931A4619468248B7EE000A06F046
:10865000F3FF814B1B78002B7FF4C4AE01217F48D0
:1086600013F031FA7E4A7F497F4813F021FE7F499B
:108670007D4813F01DFE7E497B4813F019FE7A48B1
:1086800012F0ECFF79497B4813F012FE78497948E3
:1086900013F00EFE64201DF081FCA3E63B7853B17D
:1086A000694B1F783FB905F041FB7348314605F02F
:1086B000FFFF724B1F70674807F09BF8704813F07C
:1086C00011FA002800F093806E4813F095F9002805
:1086D0007AD00121242013F09EFE614A614962484C
:1086E00013F0E6FD6849604813F0E2FD60495E481A
:1086F00013F0DEFD5C4812F0B1FF63495D4813F0F2
:10870000D7FD5B495B4813F0D3FD64201DF046FCA8
:108710005E4805F0ADFA504B1B78F3B9504A514909
:10872000514813F0C5FD51494F4813F0C1FD504960
:108730004D4813F0BDFD4C4812F090FF4B494D4899
:1087400013F0B6FD4A494B4813F0B2FD64201DF00A
:1087500025FC4248012113F0B6F9E37A2BB304F06B
:108760002BFD20B94A4A002313604A4A1360394856
:1087700007F042F880B204F00DFB00283FF464AE2D
:10878000344807F039F80390324807F037F80123EE
:10879000CDE90033039902463F4813F093F80028CF
:1087A0007FF452AE2E4A2870A9E6B4F88E0004F089
:1087B000F1FA00283FF448AE0123CDE90033374AEF
:1087C00094F88E100223E7E7254A264928702648A8
:1087D00013F06EFD3249244813F06AFD2449224803
:1087E00013F066FD204812F039FF2D49D3E6012130
:1087F000232013F010FE1A4A1A491B4813F058FDA3
:108800002849194813F054FD1949174813F050FD31
:10881000154812F023FF2349164813F049FD144967
:10882000144813F045FD64201DF0B8FB174805F00F
:108830001FFA0123194A94F88E101B4812F0EDFF1D
:1088400001232B7000E600BF58D8002079320700C2
:108850001B33070004D500202CD60020CCE40020D8
:10886000A5320700A932070090E30020AF320700CD
:10887000187E0700F4E30020EC2E070001D500204D
:10888000CDE40020B4E40020273307003333070091
:108890008CD8002088D80020A9E4002008A300205C
:1088A000413307005F330700CEE4002070B5344B3E
:1088B000B0F90A201A80334B90F90C201A70324B11
:1088C00042781A70314A136801331360304B00222A
:1088D0001A7003780446E3B92E4A2F492F4813F043
:1088E000E7FC2F492D4813F0E3FC2E492B4813F0E9
:1088F000DFFC2A4812F0B2FE29492B4813F0D8FCBD
:108900002849294813F0D4FCBDE8704064201DF0CC
:1089100045BB264A527A022A28D1022B0FD1244D78
:10892000027A4168234806232B700FF0EBFB2B469D
:10893000FA220121BDE870401F4813F0DAB9154A48
:108940001549164813F0B4FC22781C49134813F05B
:10895000AFFC1449114813F0ABFC104812F07EFE36
:1089600022781649104813F0A3FCC9E7144B1B7872
:1089700023B90F4B01211970FA22DBE770BD00BF4C
:1089800010D5002012D500200FD5002028D60020B9
:108990002DD600206F330700A932070090E3002096
:1089A00075330700187E0700F4E30020FCA20020C6
:1089B000E0D40020E1D4002071E400207D330700E2
:1089C000C0A1002070B50446002839D01D4B1E4AB6
:1089D0001E491F4800251D7013F06AFC2A461D49D8
:1089E0001B4813F065FC1C49194813F061FC18483A
:1089F00012F034FE2A461749184813F059FC16495C
:108A0000164813F055FC64201DF0C8FA144B1C6086
:108A1000144B5B7A022B09D1134B07221A70BDE865
:108A200070401248FA22012113F063B9104B1B78F1
:108A300033B9104A1368013313600B4B0222EDE780
:108A400070BD00BF2DD60020A5320700A932070057
:108A500090E300208C330700187E0700F4E3002029
:108A600030D60020FCA20020E0D4002071E40020D9
:108A7000C0A1002024D6002030B5504A5049514DA5
:108A800099B00446504813F013FC22464F494E4813
:108A900013F00EFC4E494C4813F00AFC4A4812F001
:108AA000DDFD224649494B4813F002FC484949483C
:108AB00013F0FEFB64201DF071FA297800297AD1A9
:108AC00001231A2208A82B7007910FF029FB05A893
:108AD0002BF036FE0598404C00F5E0400FA96E30B3
:108AE0002BF0A2FE149B3D4903F26C730393129B7F
:108AF0000293139B013301930F9B009307A8DDE9B9
:108B0000103210F06DF82D4A2D492F4813F0D0FB8C
:108B100007AA33492C4813F0CBFB2D492A4813F000
:108B2000C7FB294812F09AFD07AA2D49294813F0DE
:108B3000BFFB2749274813F0BBFB64201DF02EFA2A
:108B4000149B03F26C732380139B0133A370129B5D
:108B50002371119B6371109BA3710F9BE371214BD8
:108B60001B7843B3154A1649174813F0A1FB1E4959
:108B7000154813F09DFB1649134813F099FB124852
:108B800012F06CFD1849134813F092FB104911487C
:108B900013F08EFB64201DF001FA02232B70E379A1
:108BA0000193A379009363792279A178208805F055
:108BB000B3FF05F0B3FE19B030BD00BF9B33070013
:108BC000A93207002CD6002090E30020A033070034
:108BD000187E0700F4E300202CDB0020B7330700E9
:108BE000E451070034DB0020D9330700F0B54FF023
:108BF00080432DED028BD3F83834032B85B020D180
:108C0000364A3749374813F053FB3749354813F094
:108C10004FFB3649334813F04BFB324812F01EFD30
:108C20003149334813F044FB3049314813F040FBDD
:108C300064201DF0B3F90024204605B0BDEC028B82
:108C4000F0BD2C482B4D13F01FF80A24B0EE408ADB
:108C5000284613F019F8013C38EE008AF8D1B2EE3C
:108C6000067AC8EE077A1D4A1D491E489FED228AE2
:108C7000DFED226A27EE888ADFED217A68EE277A17
:108C800087EEA67AFCEEC77ACDED037A9DF80C400C
:108C900013F00EFB18EE100A49F0FEFB06460F46D5
:108CA0002246CDE9006717490E4813F001FB0F4932
:108CB0000C4813F0FDFA0B4812F0D0FC2246CDE927
:108CC000006710490A4813F0F3FA0849084813F0FE
:108CD000EFFA64201DF062F9AEE700BFE381070000
:108CE000A932070090E30020EF330700187E070049
:108CF000F4E300206DE4002000007A440040834546
:108D000000007F43F633070007B52C4A2C492D4855
:108D100013F0CEFA2C492B4813F0CAFA2B492948F4
:108D200013F0C6FA274812F099FC2749284813F097
:108D3000BFFA2649264813F0BBFA64201DF02EF92D
:108D4000244A254801231370244A137012F07DFD34
:108D500018B12348002112F042FD224812F0C6FE4D
:108D60002149224812F0D4FD2149204812F0E0FDAB
:108D700020491E4812F0D4FD1F491C4812F0E0FDA6
:108D80001E491A4812F0E4FD00211D4812F01EFE93
:108D900002211C4812F088FE322301220093114662
:108DA0000A23124812F073FD174BD97A01B1012141
:108DB000222003B05DF804EB13F02DBBA5320700B1
:108DC000A932070090E3002010340700187E070046
:108DD000F4E30020C0A10020E4E40020A1A10020D1
:108DE000CEE40020CDE40020AD880200A9E40020FC
:108DF000C58902008D7302002D740200798A020079
:108E0000B1E40020CBE40020FCA2002008B52B4AEE
:108E10002B492C4813F04CFA2B492A4813F048FAF6
:108E20002A49284813F044FA264812F017FC26492C
:108E3000274813F03DFA2549254813F039FA6420F4
:108E40001DF0ACF8234B24480021197012F0C7FC28
:108E5000224812F0FEFCD0B9184A1949194813F0FB
:108E600027FA1F49174813F023FA1849154813F039
:108E70001FFA144812F0F2FB1949154813F018FABA
:108E80001249134813F014FA64201DF087F81549AD
:108E9000114812F0EBFC14490F4812F0EFFC4FF6AA
:108EA000FD710D4812F09BFC104BD97A01B10121E4
:108EB000BDE80840222013F0AEBA00BFA53207007B
:108EC000A932070090E3002025340700187E070030
:108ED000F4E30020A1A10020CEE40020E4E400207F
:108EE00034340700DD730200B9730200FCA20020D5
:108EF0002DE9F04F012187B0222013F075FA0121EE
:108F0000232013F071FA0121242013F06DFAB248E6
:108F1000B24E13F0F1F804F035FE307068B1B0498C
:108F2000B0480FF094FEAF48012105F0C1FBAE48F8
:108F300004F09EFEAD4804F09BFE0021222013F0B9
:108F40006AFA0223AA4806224FF4E13112F08CFBA0
:108F50004FF08043D3F83834032B40F0468241F27F
:108F600088301DF01BF801250023022203ACA14923
:108F70009C4800950FF034FE9A49204613F012F8F1
:108F800021469D4812F05EFE204612F0C5FF337860
:108F90004BB104F0CBFE924992480FF058FE914835
:108FA000294605F085FB0121232013F034FA002126
:108FB000232013F030FA0021242013F02CFA337808
:108FC000D3B98E4A8E498A4813F072F98D49884880
:108FD00013F06EF98C49864813F06AF9844812F050
:108FE0003DFB8849894813F063F98749874813F0A6
:108FF0005FF964201CF0D2FF02F0CCFFD0B97F4AA9
:109000007F497B4813F054F98149794813F050F9AE
:109010007D49774813F04CF9754812F01FFB7C49E5
:109020007A4813F045F97849784813F041F96420FB
:109030001CF0B4FF02F040FFD0B9704A70496C4890
:1090400013F036F973496A4813F032F96E496848EB
:1090500013F02EF9664812F001FB6E496B4813F0CD
:1090600027F96949694813F023F964201CF096FF39
:1090700002F038FFD0B9614A61495D4813F018F930
:1090800065495B4813F014F95F49594813F010F92A
:10909000574812F0E3FA60495C4813F009F95A495D
:1090A0005A4813F005F964201CF078FF02F030FFF5
:1090B000D0B9524A52494E4813F0FAF857494C4831
:1090C00013F0F6F850494A4813F0F2F8484812F005
:1090D000C5FA52494D4813F0EBF84B494B4813F091
:1090E000E7F864201CF05AFF03F026FCD0B9434A8D
:1090F00043493F4813F0DCF849493D4813F0D8F89C
:1091000041493B4813F0D4F8394812F0A7FA4449D2
:109110003E4813F0CDF83C493C4813F0C9F86420B0
:109120001CF03CFF00F0F0FDD0B9344A344930481F
:1091300013F0BEF83B492E4813F0BAF832492C48D8
:1091400013F0B6F82A4812F089FA36492F4813F07E
:10915000AFF82D492D4813F0ABF864201CF01EFF2A
:10916000314D002000F0ACFC6B7A244A24492048A1
:10917000022B40F0628113F09BF82C491C4813F03D
:1091800097F821491A4813F093F8194812F066FA33
:1091900026491E4813F08CF81B491C4813F088F828
:1091A00064201CF0FBFE012003F09EFE05F0E0FBB6
:1091B0001F4B124A12491870002800F05C810C48BD
:1091C00013F076F81B490A4813F072F80E49084864
:1091D00013F06EF830E000BFECE400200DD5002065
:1091E000EC2E070013D50020563407006334070027
:1091F00090E300206F34070018E40020A532070038
:10920000A932070085340700187E0700F4E3002028
:1092100093340700BA340700E8340700123507001A
:109220004035070065350700FCA2002081350700A6
:1092300034DB0020AE3507009C4812F00FFA9C4941
:109240009C4813F035F89C499A4813F031F8642093
:109250001CF0A4FE05F062FB94E803002BF04FFA2B
:1092600002F082FE05F054FD944F3870002840F063
:109270005381934A93498D4813F01AF892498B48C9
:1092800013F016F88C49894813F012F8874812F049
:10929000E5F98D49874813F00BF88749854813F0A5
:1092A00007F864201CF07AFE6B7A012B00F07F81B6
:1092B000022B00F085813BB384497C4812F0E4FF27
:1092C00033780BB3824983480FF0C1FC81492046B3
:1092D00012F068FE00212246084604F043FD2046B5
:1092E00012F01AFE7C497B480FF0B1FC7949204608
:1092F00012F058FE22460021012004F033FD2046E2
:1093000012F00AFE04F048FD744804F0B1FC744801
:1093100012F072FB10B9734804F0AAFCFFF7F4FCDA
:109320004FF47A7370496A686A48B2FBF3F20FF03F
:1093300057FC684804F09CFC6C4A6D4801230021EE
:1093400012F0CDFC6A6822B100236948194612F078
:10935000D0FC684A66480023012112F0C0FC0023BB
:10936000654A6348022112F0BAFCAB7A33B1604817
:1093700000234EF66022022112F0BBFC01235F4A5B
:109380005B48032112F0ABFC5D4B1B785BB154488A
:1093900012F032FB38B932230122009359480A23D4
:1093A000114612F074FA464A4649404812F080FFCE
:1093B00055493E4812F07CFF3F493C4812F078FF87
:1093C0003A4812F04BF950493A4812F071FF3A49C5
:1093D000384812F06DFF64201CF0E0FD01214B487D
:1093E00012F0F9FF07B0BDE8F08F13F020F8DFF8B6
:1093F000BCA007464FF0000B41F287384FF0000940
:10940000504612F016F900287FF4ADAD13F00FF8B6
:10941000C41B6BEB4B05A04579EB0503FFF6A3AD31
:1094200064201CF0BBFD232012F0FAFFB0FA80F19B
:109430004909232012F0EFFFE2E7EF7A002F7FF4D3
:109440009AAE12F035FF3249184812F031FF1A492E
:10945000164812F02DFF154812F000F92C49154856
:1094600012F026FF1449134812F022FF64201CF06A
:1094700095FD384698E60D4812F01AFF25490B482D
:1094800012F016FF0C49094812F012FF074812F0BB
:10949000E5F82049074812F00BFF0749054812F08C
:1094A00007FF64201CF07AFDDCE600BF90E300209B
:1094B000AE350700F4E30020187E07000ED500202B
:1094C000A5320700A9320700B8350700FC350700B0
:1094D0001D36070013D500202F360700B62F0700D2
:1094E000B4E400203F360700D72F07004D83020069
:1094F00071E40020A1740200EDDD020091D60200AB
:10950000A1A10020A9E400204D36070009E40020B5
:1095100095350700AB35070005F0B2FC3870D0B9BF
:109520002E4A2F492F4812F0C3FE2F492D4812F022
:10953000BFFE2E492B4812F0BBFE2A4812F08EF8CF
:1095400029492B4812F0B4FE2849294812F0B0FEF0
:1095500064201CF023FD214A21492248DFF8AC9009
:10956000DFF8AC8012F0A4FE3A7822491D48002AA8
:1095700014BF4A46424612F09BFE1C49194812F09D
:1095800097FE184812F06AF83A781A491848002AE3
:1095900014BF4A46424612F08BFE1449144812F09A
:1095A00087FE64201CF0FAFC02F0C8FC7CE6FFF7A2
:1095B0002DFC114804F05CFB104804F059FBAFE6A9
:1095C0000F4804F055FB0F4812F016FA10B90E4878
:1095D00004F04EFBFEF73EFEA2E600BFA5320700F8
:1095E000A932070090E30020C9350700187E070064
:1095F000F4E30020DF3507007B2F07004D3607001E
:10960000C52F0700B4E400203F3607004B340700A5
:10961000503407007047000002481822002106F06D
:10962000FBB800BF34D600202DE9F04F994C9A4D7D
:10963000DFF87CA2DFF87CB289B0204606F040FA61
:10964000204610EE107A06F05AFA20468DED050AF3
:1096500006F074FA914A92498DED060A284612F0F6
:1096600027FE204606F02CFA204610EE108A06F05F
:1096700027FA384610EE106A48F00EFF894B002298
:1096800048F062FF49F010FA07B2404648F004FF84
:10969000804630468946029748F0FEFE814B824E56
:1096A000002248F051FF42464B46CDE900015146A9
:1096B000284612F0FDFD3146284612F0F9FD2846F5
:1096C00011F0CCFF204606F0FBF9204610EE108A80
:1096D00006F0F6F940468DED070A48F0DDFE079BDF
:1096E000029780461846894648F0D6FE6D4B002208
:1096F00048F02AFF4B464246CDE900015146584604
:1097000012F0D6FD3146584612F0D2FD64201CF00E
:1097100045FC624A6249284612F0CAFD204606F01E
:10972000EEF9204610EE107A06F0E9F9059810EEF1
:1097300010AA48F0B1FE00225A4B48F005FF49F04C
:10974000B3F903B23846059348F0A6FE059B029391
:1097500080465046894648F09FFE524B534FDFF8F3
:1097600058A1002248F0F0FE42464B46CDE90001E8
:109770003946284612F09CFD3146284612F098FDE5
:10978000284611F06BFF204606F0B9F9204610EE8E
:10979000108A06F0B4F940468DED070A48F07CFEC9
:1097A000059B0293079B80461846894648F074FE45
:1097B0003C4B002248F0C8FE4B464246CDE9000132
:1097C0003946584612F074FD3146584612F070FD85
:1097D00064201CF0E3FB314A3149284612F068FD51
:1097E000204606F0ABF9204610EE108A06F0A6F9E6
:1097F00006988DED050A48F04FFE2A4B002248F0EE
:10980000A3FE49F051F907B2404648F045FE8046B4
:1098100005980297894648F03FFE224B002248F007
:1098200093FE42464B46CDE900015146284612F0D0
:109830003FFD3146284612F03BFD284611F00EFF51
:10984000204606F07BF9204610EE105A06F076F915
:10985000284610EE108A48F01FFE044640460D468A
:10986000029748F019FE0F4B002248F06DFE224689
:10987000CDE900012B465146584612F019FD3146FC
:10988000584612F015FD642009B0BDE8F04F1CF0F9
:1098900085BB00BF34D6002090E300205B36070074
:1098A000A932070000408F40187E07006E3607007F
:1098B0005F360700F4E300207D36070007B57348E4
:1098C0000DF10701312206F043F99DF807305906E2
:1098D0001BD56F4A6F49704812F0EAFC9DF80720CB
:1098E0006E496D4812F0E4FC6D496B4812F0E0FCE3
:1098F000694811F0B3FE69499DF80720694812F0E4
:10990000D7FC6749674812F0D3FC64201CF046FB83
:109910009DF807309A0617D55D4A5E495E4812F0F9
:10992000C7FC61495C4812F0C3FC5D495A4812F01B
:10993000BFFC594811F092FE5B495A4812F0B8FC3E
:109940005749584812F0B4FC64201CF027FB9DF8DE
:109950000730DB0617D54E4A4E494F4812F0A8FC97
:1099600052494D4812F0A4FC4D494B4812F0A0FC5E
:10997000494811F073FE4D494A4812F099FC484994
:10998000484812F095FC64201CF008FB9DF8073055
:10999000180717D53E4A3F493F4812F089FC444911
:1099A0003D4812F085FC3E493B4812F081FC3A48A4
:1099B00011F054FE3E493B4812F07AFC38493948D0
:1099C00012F076FC64201CF0E9FA9DF80730590784
:1099D00017D52F4A2F49304812F06AFC35492E48D6
:1099E00012F066FC2E492C4812F062FC2A4811F055
:1099F00035FE30492B4812F05BFC2949294812F00A
:109A000057FC64201CF0CAFA9DF807309A0717D556
:109A10001F4A2049204812F04BFC27491E4812F0EB
:109A200047FC1F491C4812F043FC1B4811F016FE6E
:109A300021491C4812F03CFC19491A4812F038FC24
:109A400064201CF0ABFA9DF80730DB0717D5104AED
:109A50001049114812F02CFC18490F4812F028FC4C
:109A60000F490D4812F024FC0B4811F0F7FD134983
:109A70000C4812F01DFC0A490A4812F019FC642037
:109A80001CF08CFA03B05DF804FB00BF34D6002054
:109A90005B360700A932070090E300208C360700F0
:109AA000187E0700F4E30020A3360700AA3607005B
:109AB000B0360700B7360700BD360700C4360700CA
:109AC00073B500210446112012F08EFC5D4812F09F
:109AD00013FB5D4B6CB300229A800A22DA804FF4AC
:109AE00081721A8140F201125A81574806F0C0F87B
:109AF000054620B3554A5649564812F0D9FB5649F7
:109B0000544812F0D5FB5549524812F0D1FB514848
:109B100011F0A4FD5049524812F0CAFB4F49504879
:109B200012F0C6FB64201CF039FA0024204602B073
:109B300070BD02229C80DC801A815C81D5E7002CFC
:109B400038D02A22302140488DF80720012605F020
:109B5000A9FE082232213C488DF8072005F0A2FE1C
:109B60003246332138488DF8076005F09BFE2422E9
:109B70000DF10701344805F0EBFF9DF8072032484E
:109B800022F00C0242F0080224218DF8072005F093
:109B900089FE602222212C488DF8072005F082FEE4
:109BA0002A462521284805F07DFE274832462121F6
:109BB00005F078FE002520220DF1070122488DF8DE
:109BC000075005F0C5FF9DF807201F4842F0080226
:109BD00020218DF8072005F065FE64201CF0DEF9D9
:109BE0001E220DF1070118488DF8075005F0B0FF4F
:109BF0009DF80720144842F090021E218DF807209E
:109C000005F050FE64201CF0C9F94CB1FFF756FE78
:109C100014490422112011F0DFFCFFF705FD85E750
:109C200020220DF10701084805F092FF9DF807205A
:109C3000054802F0400220218DF80720012405F09C
:109C400031FE73E7ECE4002034D600205B360700D9
:109C5000A932070090E30020CA360700187E0700EB
:109C6000F4E300201596020010B50023012210F045
:109C7000010F01F1FF311CBF02FA01F42343400838
:109C80000029F4D1184610BD0D4810B5002148F246
:109C900005040B029BB2082213F4004F02F1FF32BD
:109CA0004FEA430318BF634012F0FF029BB2F3D1A7
:109CB0000131B1F5807F20F8023BEAD110BD00BF31
:109CC00048D600202DE9F0410025DFF8388006460F
:109CD0000F462C46BD420DDA705D0821FFF7C4FF28
:109CE00080EA1423DBB2013538F8133083EA042408
:109CF000A4B2EFE710212046FFF7B6FF80B2BDE81F
:109D0000F08100BF48D6002008B50221092012F0DA
:109D10006BFB06490322092011F05EFC044905484B
:109D200001236422FDF7DEFA012008BD15A302001D
:109D3000B1A3020018D600202DE9F04FC74D91B015
:109D400012F075FBD5E900230024811A64EB0303AC
:109D500000910193DDE9002340F6B83000219042E4
:109D600071EB0303A346A246A146A046274626461A
:109D700077DB12F05CFBD5E90023811A63EB430328
:109D800002910393DDE90223B2F5C87F73F100036A
:109D900073DA12F04CFBD5E90023811A63EB43031D
:109DA00004910593DDE90434B3F5C87F74F1000331
:109DB00080F2858012F03BFBD5E90023811A63EB2A
:109DC000430306910793DDE90634B3F5167F74F17A
:109DD000000380F2998012F02AFBD5E90023811A52
:109DE00063EB430308910993DDE90834B3F5487F39
:109DF00074F1000380F2AE8012F019FBD5E9002364
:109E0000811A63EB43030A910B93DDE90A34B3F53E
:109E1000966F74F1000380F2C08012F008FBD5E960
:109E20000023811A63EB43030C910D93DDE90C349D
:109E3000B3F5AF6F74F1000380F2D28012F0F7FA3D
:109E4000D5E90023811A63EB43030E910F93DDE9FB
:109E50000E34B3F5C86F74F1000380F2E280082479
:109E600074E0092012F0DCFA002882D17C4B1B78C8
:109E7000002B3FF47EAF022468E0794B1B78012B66
:109E800087D1092012F0CCFA012882D10023C82CF6
:109E900010D00920009312F0C3FA009B012804BFE0
:109EA0000133DBB2012001340093E4B21CF076F8F8
:109EB000009BECE7C62B7FF66CAF002446E0684BB6
:109EC0001B78022B7FF476AF092012F0A9FA012843
:109ED0007FF470AF0024BBF1C80F10D0092012F03E
:109EE0009FFA012808BF01344FF001000BF1010B6C
:109EF00008BFE4B25FFA8BFB1CF050F8EBE7C62C0E
:109F00007FF658AF012421E0554B1B78032BDCB2C0
:109F10007FF461AF4FF0000BBAF1C80F12D00920E7
:109F200012F07EFA012808BF0BF1010B4FF001007F
:109F30000AF1010A08BF5FFA8BFB5FFA8AFA1CF08C
:109F40002DF8E9E7BBF1C60F7FF645AF204611B00B
:109F5000BDE8F08F424B1B78042BDCB27FF44CAF92
:109F60004FF0000AB9F1C80F12D0092012F058FAC8
:109F7000012808BF0AF1010A4FF0010009F10109A7
:109F800008BF5FFA8AFA5FFA89F91CF007F8E9E777
:109F9000BAF1C60F7FF630AFD8E7314B1B78052BEF
:109FA000DCB27FF43AAF4FF00009B8F1C80F12D01D
:109FB000092012F035FA012808BF09F101094FF014
:109FC000010008F1010808BF5FFA89F95FFA88F813
:109FD0001BF0E4FFE9E7B9F1C60F7FF61EAFB5E766
:109FE0001F4B1B78062BDCB27FF428AF4FF0000824
:109FF000C82F11D0092012F013FA012808BF08F168
:10A0000001084FF0010007F1010708BF5FFA88F867
:10A01000FFB21BF0C3FFEBE7B8F1C60F7FF60EAF40
:10A0200094E70F4B1B78072BDCB27FF418AF0025A9
:10A03000C82E0FD0092012F0F3F9012808BF01350E
:10A040004FF0010006F1010608BFEDB2F6B21BF0B9
:10A05000A5FFEDE7C62D7FF602AF77E750D80020C9
:10A0600059D8002073B5894D894C6A7A637A9A422F
:10A0700031D003F05BFE0021864804F019FB6B68C9
:10A0800063606B7A844863726B89638103F0F0FDCF
:10A09000824803F0EDFD03F07FFE02F04BF840F63E
:10A0A000B8301BF07BFF637A7D48012B4FF0000135
:10A0B0004FF0320640F09A8011F091FB002279486F
:10A0C00000960A23114611F0E2FB774811F0C1FB1C
:10A0D000764811F0D7FDEA7AE37A9A4206D06B7A95
:10A0E000022B0CBF0120002002F0FEFE6A686368AC
:10A0F0009A4203D16A8963899A4213D003F016FE0B
:10A10000654803F0B5FD654803F0B2FD03F044FE79
:10A110006B6863606B89638102F00CF840F6B830BD
:10A120001BF03CFF624811F0DDFC00286BD0614859
:10A1300011F064FC604B1978884205D000395D4805
:10A1400018BF012111F05CFC5C4811F069FC5C4B0C
:10A150001978884202D0594811F064FC594811F02E
:10A1600071FC594B1978884202D0564811F06CFCAA
:10A17000564D57482E7811F077FC86420BD029783F
:10A18000534811F07DFC32230122009345480A23F5
:10A19000114611F07CFB03F0C9FD637A012B6FD0EF
:10A1A000022B6FD013B94B4803F062FD4FF47A7362
:10A1B00062684949B2FBF3F248480EF011FD474886
:10A1C00003F056FD626822B100234548194611F09C
:10A1D00090FDA37A002B57D0414800234EF6602211
:10A1E000022102B0BDE8704011F083BD11F0F7FA12
:10A1F000012200960A2311462A4811F048FB2C48F8
:10A2000011F074FC64E7374D3748296811F0A1FA62
:10A21000354811F09CFA2968884202D0324811F082
:10A2200098FA324811F0A4FA314B1978884202D0DA
:10A230002E4811F09FFA2F4D2F482E7811F0A9FAD1
:10A24000864203D029782C4811F0A5FA2B4811F04A
:10A25000B1FA2B4B1978884202D0284811F0ACFA99
:10A26000284811F0BAFA284B1978884202D02548BC
:10A2700011F0C4FA4FF6FD71094811F0B0FA8AE7FF
:10A28000224891E722488FE702B070BDCCA10020A0
:10A29000FCA20020EB360700F23607000237070069
:10A2A000CEE40020A9E40020E4E4002008E400203B
:10A2B000CDE40020B5E400205BD80020B8E4002005
:10A2C0005DD80020C0E400205ED800205CD80020CB
:10A2D000CAE40020B62F0700D72F070013D50020AF
:10A2E00071E4002068D80020D9E40020DAE40020DE
:10A2F0006CD8002063D80020DBE40020DCE40020E0
:10A3000064D80020DEE400206DD800207B2F0700F9
:10A31000C52F0700F8B512F08AF81C4D1C4B1D4CD8
:10A320000021C3E9000112F082F8D5E90032C61A13
:10A3300062EB4207C92E77F1000308DB12F077F8D1
:10A3400000236B60237828600133DBB22370124A4C
:10A350001249134811F0ACFF22781249104811F04D
:10A36000A7FF11490E4811F0A3FF0D4811F076F92F
:10A3700022780C490D4811F09BFF0B490B4811F056
:10A3800097FFBDE8F84064201BF008BE48D80020C5
:10A3900050D8002059D8002013370700A9320700F1
:10A3A00090E3002017370700187E0700F4E3002031
:10A3B0002DE9F04F85B0FFF7BFFC072800F2A98711
:10A3C000DFE810F00607990408009502F2009300F8
:10A3D00049003600A04BA14A00241C70A04B00206D
:10A3E0000021C3E900019F499F4811F061FF9F4987
:10A3F0009D4811F05DFF9E499B4811F059FF9A4816
:10A4000011F02CF999499B4811F052FF984999484D
:10A4100011F04EFF64201BF0C1FD974B1B782BB150
:10A42000204605B0BDE8F04F03F0BEBC0120F8E7C0
:10A43000894B00221A708A4B00200021C3E90001D9
:10A440008E4B1C783CB903F071FC8D48214604F01A
:10A450002FF91BF0BAFD804B00221A70804B0020B0
:10A460000021C3E90001854B1C78002C31D0854CBC
:10A470002378052B0DD1844B8448D97A1022227081
:10A4800001919B7A00938249824B09781B7803F0F3
:10A49000B3FC724A7349744811F00AFF22787E496E
:10A4A000714811F005FF72496F4811F001FF6E48C5
:10A4B00011F0D4F8227878496E4811F0F9FE6C4911
:10A4C0006C4811F0F5FE642005B0BDE8F04F1BF0BC
:10A4D00065BD03F02BFC7148214604F0E9F8704893
:10A4E00005B0BDE8F04F11F0CDBB5B4B00221A70F8
:10A4F0005B4B00200021C3E90001604B1B78002B5F
:10A5000000F007875F4C2378042B33D0052B41D014
:10A510008BB9644811F0E6FA01285B4B1FD1D97A58
:10A5200061480422227001919B7A60490093097866
:10A53000FF2303F061FC494A4A494B4811F0B8FE39
:10A5400022785B49484811F0B3FE4949464811F06A
:10A55000AFFE454811F082F822785549ACE7D97A28
:10A5600054480522227001919B7A5349009309783F
:10A57000FF23DEE707235148237011F075FA424AA2
:10A58000D37A0193937A00932278C3B240493F482B
:10A590000978CEE73C4B0E22D97A227001919B7A42
:10A5A0000093474B1B78F1E72B4B00221A702C4B82
:10A5B00000200021C3E90001304B1B78002B00F084
:10A5C000DC80304C2378062B23D8DFE813F007001B
:10A5D0001500360089009300C400CE002A490322EA
:10A5E0004B7AC87A22700190897A00910233DBB2EB
:10A5F0003449354809780AE0234B3448D97A002297
:10A60000227001919B7A324900930978FF2303F06D
:10A61000F3FB124A1349144811F04AFE22782D49DF
:10A62000114811F045FE12490F4811F041FE0E4845
:10A6300011F014F8227827493EE7134A2649937A05
:10A64000264883F001039372D27ACDE90032FF23CA
:10A6500009780222DBE700BF59D800201337070032
:10A6600050D80020A932070090E3002027370700C8
:10A67000187E0700F4E30020ACA4002058D8002086
:10A68000313707005AD80020CCA10020C4A10020F7
:10A69000C8A100206DD800203C3707004D370700C7
:10A6A00008E40020CDE400209CA20020B0A20020FD
:10A6B00053370700C8A20020E0A20020CAE400200F
:10A6C00064D8002070A2002060A20020E4A2002034
:10A6D000F8A2002064370700C4A20020B4A2002022
:10A6E0009B4B02225A72DA7A01929B7A00930322E0
:10A6F00004237DE70A239748237011F0B5F9C0B20F
:10A700000C280ED8DFE800F0071B1B211B21211BA2
:10A710001B1B1B1B2100904B00221A708F4B052224
:10A720001A708B4A8E4BD17A1B780191927A0092E3
:10A730000A332278DBB28B498B48097867E7864B6E
:10A7400000221A70854B0722EAE7834B00221A7019
:10A75000824B0A22E4E77E4B0D22D97A22700191C6
:10A760009B7A0093814B1B78E5E7794BDA7A01926B
:10A770009B7A009306220023DDE77D4811F0B2F9B1
:10A78000012840F0C6857B4D6B7A012B00F0C18516
:10A79000794E3378002B40F0BC85784B1B780BB991
:10A7A00003F002FB764A77497748DFF8D4A111F02D
:10A7B0007FFD7649744811F07BFD7549724811F0B0
:10A7C00077FD714810F04AFF7049724811F070FD32
:10A7D0006F49704811F06CFD64201BF0DFFB002115
:10A7E0006D4811F090FA5B4811F03EF96B4B53F84D
:10A7F00020306B48029311F013F900240746029BA6
:10A8000033F81430002B5FD05E495F48524611F098
:10A810004FFD224663495C4811F04AFD5C495A48A5
:10A8200011F046FD584810F019FF22465D4959487D
:10A8300011F03EFD5649574811F03AFD64201BF0D7
:10A84000ADFBE1B2564811F0EDF864201BF0A6FB19
:10A850000020FDF77BFD11F0EAFD4FF0000B0346F1
:10A860003178039361B34FF47A701BF097FB11F0CA
:10A87000DEFD039B42F21071B0EB03086BEB4B095A
:10A880000022414572EB0902EADA52463D493E4850
:10A8900011F00EFD44493C4811F00AFD3C493A488C
:10A8A00011F006FD384810F0D9FE3F49394811F043
:10A8B000FFFC3749374811F0FBFC64201BF06EFBAE
:10A8C0004FF4FA601BF06AFB0134102C97D1344826
:10A8D000394611F0A7F86A68002A00F01A850023AB
:10A8E0002D48194605B0BDE8F04F11F002BA2F4BC4
:10A8F00000221A702E4B00240025C3E900452D4B81
:10A900001B78002B00F0C4812B4C2278102A66D8CB
:10A91000DFE812F011005800790084009100C200B5
:10A92000CF00E20065000E01210136014801580107
:10A9300067016500AE01064B0222D97A22700191AF
:10A940009B7A0093FF231D491D48097845E000BF0D
:10A95000CCA10020CAE4002062D8002060D80020EA
:10A960005DD80020C8A10020C4A1002063D8002029
:10A97000CDE40020FCA200202DD60020ACA40020B5
:10A9800013370700A932070090E30020753707004E
:10A99000187E0700F4E3002071E400205CA400208E
:10A9A000B8E40020883707009637070059D8002000
:10A9B00050D8002058D800205AD80020C4A2002027
:10A9C000B4A200208E4B8F48D97A002222700191C8
:10A9D0009B7A8D4900930978FF2303F00DFA8B4A87
:10A9E0008B498C4811F064FC22788B49894811F01E
:10A9F0005FFC8A49874811F05BFC864810F02EFE08
:10AA00002278854958E57E4AD37A83F00103D372D0
:10AA10000193937A00930222FF2394E7784B8049B5
:10AA2000804801225A72DA7A01929B7A00930323BA
:10AA300009781A46D1E709237B48237011F014F8EE
:10AA4000C0B20C2814D8DFE800F007070707070D8D
:10AA50001E07242424241E00744B00221A70744BF9
:10AA6000052204E0714B00221A70714B04221A7007
:10AA7000634A704BD17A1B780191927A00920A3323
:10AA8000DBB2227811E0694B00221A70684B062273
:10AA9000EDE7664B0222E1E7594B0C22D97A22708E
:10AAA00001919B7A0093644B1B7864496448097850
:10AAB00093E7534B5A6842B142F20F718A428ABF00
:10AAC000A2F51C520022103A5A60DA7A01929B7A5F
:10AAD00000930622FF23E8E75A4D2B7833B3013B5E
:10AAE000DBB24A4A4A494B482B7011F0E1FB2A7805
:10AAF0005549484811F0DCFB4849464811F0D8FB5D
:10AB0000444810F0ABFD2A784F49504811F0D0FB73
:10AB100042494E4811F0CCFB64201BF03FFA384B01
:10AB2000DA7A01929B7A00932B78AAE70C23D8E774
:10AB3000404A3E491378097899420BBF3C4B03F1D8
:10AB4000FF331B78DBB213702D4AD17A0191927AD0
:10AB500000920922A9E73E4A3E49137809789942B2
:10AB60000BBF3D4B03F1FF331B78DBB21370244B5B
:10AB7000DA7A01929B7A00932E4B0A221B7894E793
:10AB8000364A37491368A3F5C333A03B8B4298BFBD
:10AB9000344B13601A4BDA7A01929B7A00930B22A2
:10ABA000FF2382E724490B78062B1CBF03F1FF33F8
:10ABB000DAB2134B0A70D97A01919B7A009313464B
:10ABC0000C2272E7284A13784BB1013BDBB21370B9
:10ABD0000B4AD17A0191927A00920D2265E70923FE
:10ABE000F5E7224A117809B1481EC0B21070044A34
:10ABF000D37A0193937A00930E22034655E700BF60
:10AC0000CCA10020E4A20020F8A200201337070006
:10AC1000A932070090E30020B2370700187E070032
:10AC200070A2002060A20020CAE4002061D80020A9
:10AC30005FD800205DD800206CD80020C8A100207B
:10AC4000C4A100205CD80020A8370700F4E300204E
:10AC50005ED8002062D8002060D8002068D800208C
:10AC60007F47A1198047A11963D8002064D800202C
:10AC7000A34A1378052B1ABF03F1FF33DBB2162367
:10AC80001370A04AD17A0191927A009210220CE7B7
:10AC90009D4B1B78002B40F03C839C4B1B7813B9D9
:10ACA000012003F081F89A4A9A499B4811F000FB71
:10ACB0009A49994811F0FCFA9949974811F0F8FA25
:10ACC000954810F0CBFC9549964811F0F1FA94495B
:10ACD000944811F0EDFA64201BF060F900219248CD
:10ACE00011F011F8914B012200201A70FDF72EFB94
:10ACF0008F4B5A68F0E58F4B8F4D904C00221A70A5
:10AD00008F4B00210020C3E900012978002940F081
:10AD10004981854810F0F7FF0121834810F0F3FFC7
:10AD20008148022110F0EFFF784B1B7813B9012006
:10AD300003F03AF801237E4A2B7000232370714BF5
:10AD400051685960517A52895A817E48597210F07F
:10AD5000C9FE05466E4A6F496F48002D49D011F073
:10AD6000A7FA79496C4811F0A3FA6D496A4811F0C5
:10AD70009FFA694810F072FC73496A4811F098FA1A
:10AD80006749684811F094FA64201BF007F96F488E
:10AD900010F046FE6E4B18706E4810F065FE6E4B5C
:10ADA00018706E4810F02AFE6D4B18706D4810F048
:10ADB00049FE6D4B18700023CDE9003322786B49B2
:10ADC0006B48097803F018F8514A5249524811F07B
:10ADD0006FFA22786749504811F06AFA50494E4894
:10ADE00011F066FA4C4810F039FC22786149FFF7FF
:10ADF00063BB11F05DFA5449474811F059FA4849CC
:10AE0000454811F055FA444810F028FC4E49454891
:10AE100011F04EFA4249434811F04AFA64201BF0FF
:10AE2000BDF829465448554D10F0D9FC544810F04F
:10AE30008EFC2860534810F09BFC534B187053480D
:10AE400010F0A7FC524B1870524810F0B3FC524B54
:10AE50001870524810F0C1FC294B2D4A18702D492A
:10AE60002D4811F025FA286847F004FB22A3D3E906
:10AE7000002347F093FC064641480F4610F067FC5C
:10AE800047F0F8FA1CA3D3E9002347F087FC3246C9
:10AE90003B46CDE9000142491F4811F009FA20491B
:10AEA0001D4811F005FA1C4810F0D8FB286847F03F
:10AEB000E1FA11A3D3E9002347F070FC06463048BD
:10AEC0000F4610F044FC47F0D5FA0BA3D3E900235A
:10AED00047F064FC3246CDE900013B463049114859
:10AEE00011F0E6F90E490F4811F0E2F964201BF069
:10AEF00055F860E7AFF300800000000084D7974169
:10AF00006DD80020CCA100202DD60020ACA40020BC
:10AF100013370700A932070090E30020C33707006A
:10AF2000187E0700F4E3002071E4002001D5002022
:10AF3000FCA2002059D8002058D800205AD8002060
:10AF400050D80020CDE40020D9370700B8E4002015
:10AF50005DD80020CAE400205CD80020B5E40020C1
:10AF60005BD80020C0E400205ED80020F8A20020BA
:10AF7000E4A20020FC370700CEE4002068D80020BF
:10AF8000D9E40020DAE400206CD80020DBE40020C3
:10AF900063D80020DCE4002064D80020DEE4002038
:10AFA000EE3707002378102B3FF60EAF01A252F8C0
:10AFB00023F000BFF9AF02000BB002001DB0020089
:10AFC00021B002003BB0020059B00200B7B102004C
:10AFD0005DB00200B7B00200D3B00200F7B00200CB
:10AFE0001BB102003FB102005DB102007BB1020063
:10AFF000C9AD020099B102000122834B2270D97AB7
:10B0000001919B7A0093FF2322E07F4B0022D97AA3
:10B01000227001919B7A0093FF23D0E60622ECE791
:10B02000794B7A497A4800225A72DA7A01929B7AED
:10B030000093097802230322C4E67349754BC87A4A
:10B040001B78082222700190897A00910A33DBB2C2
:10B05000714972480978B5E60B22CEE7704D714A06
:10B060002B78714971480C2B1ABF0133DBB20023D6
:10B070002B7011F01DF92A786D496C4811F018F900
:10B080006C496A4811F014F9684810F0E7FA2A7818
:10B090006749694811F00CF96649674811F008F9E9
:10B0A00064201AF07BFF584BDA7A01929B7A009366
:10B0B0002B782278CCE7574A1378B3FA83F35B09ED
:10B0C0001370514AD17A0191927A00920A33082280
:10B0D000BEE75A4A5A491378097899420BBF594B2F
:10B0E00001331B78DBB21370474AD17A0191927A0F
:10B0F00000920922ACE7544A5449137809789942DE
:10B100000BBF534B01331B78DBB213703E4AD17A2D
:10B110000191927A00920A229AE74E4A4E491368A8
:10B1200003F5C333A0338B4294BF13601160364BD9
:10B13000DA7A01929B7A00930B22FF2388E7474A31
:10B1400013780C2B1ABF0133DBB2062313702E4A7F
:10B15000D17A0191927A00920C2279E7404A1378D1
:10B16000092B1ABF0133DBB200231370264AD17AB0
:10B170000191927A00920D226AE73A4A1378032BE2
:10B180001ABF0133DBB2002313701F4AD17A019139
:10B19000927A00920E225BE7334A1378162B1ABF7D
:10B1A0000133DBB205231370174AD17A0191927AE9
:10B1B000009210224CE7144A536803F51C531033D5
:10B1C0005360D37A0193937A0093062200233FE7DA
:10B1D000264B00221A70264B00200021C3E90001F3
:10B1E000244B1A78002A00F09480234C2278102AED
:10B1F00048D8DFE802F0435C5C5C5C5C826A6A6AA7
:10B200006A76767676477600CCA1002070A2002080
:10B2100060A200205BD80020C8A10020C4A10020AB
:10B220005CD8002013370700A932070090E3002004
:10B23000A8370700187E0700F4E300205DD800203F
:10B240005FD8002061D800205ED8002060D80020A0
:10B2500062D8002068D80020007038396CD80020EF
:10B2600063D8002064D800206DD8002059D8002071
:10B2700050D8002058D800205AD8002000221A7038
:10B28000FEF7F0FE244A2549254811F011F82278EE
:10B290002449234811F00CF82349214811F008F8FB
:10B2A0001F4810F0DBF922781E49FFF705B91F4B44
:10B2B0001F48D97A0022227001919B7A1D49009380
:10B2C0000978FF2302F098FDDCE7184B1A48D97A79
:10B2D0000422227001919B7A184900930978FF2378
:10B2E000F0E7124B1648D97A0522227001919B7A19
:10B2F000144900930978FF23E4E70C4B1248D97AEC
:10B300000222227001919B7A104900930978FF2351
:10B31000D8E705B0BDE8F08F13370700A932070062
:10B3200090E300200D380700187E0700CCA1002014
:10B33000E4A20020F8A200209CA20020B0A20020DD
:10B34000C8A20020E0A20020B4A20020C4A20020D5
:10B3500070B598B014460A490EA810F023FE0023D9
:10B36000CDE91433CDE91633636E012B0CD10549B9
:10B3700020680DF062FC48B1022400F0EDBC00BF73
:10B38000104F0700999D0700002BF5D1B649B7482B
:10B39000B74CB84DB84E10F08BFFB849B34810F019
:10B3A00087FFB149B64810F083FFB449B44810F0A4
:10B3B0007FFF64201AF0F2FD637AB24955F823202A
:10B3C000AA4810F075FFAD49A84810F071FF637AE4
:10B3D000AC4955F82320AA4810F06AFFA749A848AD
:10B3E00010F066FF64201AF0D9FDA74911A810F0EB
:10B3F00033FC11A90EA810F0E8FD11A810F08CFD87
:10B400000EA810F025FE0E9AA049984810F050FFA3
:10B410009A49964810F04CFF0E9A9C49984810F0B3
:10B4200047FF9649964810F043FF64201AF0B6FD96
:10B43000974911A810F0F0FB119A96498B4810F02B
:10B4400037FF11A810F068FD8C49884810F030FFD4
:10B450008F4911A810F0E0FB119A8E49884810F02E
:10B4600027FF11A810F058FD8449854810F020FFEF
:10B4700064201AF093FD4FF47A7562688649B2FB36
:10B48000F5F27A4810F014FF7C49784810F010FF6C
:10B4900062688149B2FBF5F2794810F009FF7749FB
:10B4A000774810F005FF64201AF078FD7B4810F013
:10B4B00019FB7B4956F8202005466C4810F0F8FE31
:10B4C0006E496A4810F0F4FE56F8252074496C481D
:10B4D00010F0EEFE69496A4810F0EAFE64201AF0A6
:10B4E0005DFD012D40F04E836E486F4E6F4D10F0A4
:10B4F00083FA6F49002814BF32462A465B4810F091
:10B50000D7FE5E49594810F0D3FE664810F074FA31
:10B510006749002814BF32462A465948654E10F044
:10B52000C7FE5649564810F0C3FE64201AF036FD97
:10B53000614810F099FA6149054602464B4810F0FF
:10B54000B7FE4E49494810F0B3FE2A465B494C48C5
:10B5500010F0AEFE49494A4810F0AAFE64201AF0E5
:10B560001DFD56F825205649404810F0A1FE4349DC
:10B570003E4810F09DFE56F825205149404810F0F5
:10B5800097FE3E493E4810F093FE64201AF006FDF7
:10B590004C4810F02AFA002800F0BE814A4933488E
:10B5A00010F086FE3549314810F082FE4649344895
:10B5B00010F07EFE3149324810F07AFE64201AF015
:10B5C000EDFC082214A9414810F0EEF99DF857301F
:10B5D00005939DF8563004939DF8553003939DF8DC
:10B5E000543002939DF8533001939DF852309DF8EA
:10B5F0005020374900931D489DF8513010F058FEF7
:10B600001E491A4810F054FE9DF8573005939DF8D6
:10B61000563004939DF8553003939DF854300293AF
:10B620009DF8533001939DF852309DF850202849E1
:10B63000009313489DF8513010F03AFE0F4910481E
:10B6400010F036FE64201AF0A9FC082214A9214843
:10B6500010F086F99DF8573005939DF85630049305
:10B660009DF8553038E000BF8838070090E300208F
:10B67000FCA20020D0A30020C4A30020187E070055
:10B68000F4E300209738070048E40020A5380700BD
:10B690000CE40020C16B0700B0380700CDE40020A7
:10B6A000C0380700B4E400200D7B07007A3807009B
:10B6B000D038070090A30020CAE40020DB38070040
:10B6C000E6380700B3E40020F1380700AEE40020BC
:10B6D000FB380700AAE4002003939DF8543002933E
:10B6E0009DF8533001939DF852309DF850207D49CC
:10B6F00000937D489DF8513010F0DAFD7B497A487F
:10B7000010F0D6FD9DF8573005939DF85630049300
:10B710009DF8553003939DF8543002939DF85330B3
:10B7200001939DF852309DF850206E490093704867
:10B730009DF8513010F0BCFD6C496D4810F0B8FD1B
:10B7400064201AF02BFC102214A96A4810F011F999
:10B750009DF85F300D939DF85E300C939DF85D3041
:10B760000B939DF85C300A939DF85B3009939DF82C
:10B770005A3008939DF8593007939DF85830069336
:10B780009DF8573005939DF8563004939DF8553039
:10B7900003939DF8543002939DF8533001939DF824
:10B7A00052309DF85020544900934F489DF8513035
:10B7B00010F07EFD4D494C4810F07AFD9DF85F3049
:10B7C0000D939DF85E300C939DF85D300B939DF8C2
:10B7D0005C300A939DF85B3009939DF85A300893CA
:10B7E0009DF8593007939DF8583006939DF85730CF
:10B7F00005939DF8563004939DF8553003939DF8BA
:10B80000543002939DF8533001939DF852300093C9
:10B810009DF850209DF851303749354810F048FDCB
:10B8200032493348354E364D10F042FD64201AF04F
:10B83000B5FB34492C4810F03BFD2C492A4810F048
:10B8400037FD30492A4810F033FD2849284810F0C8
:10B850002FFD64201AF0A2FB627A2B49224810F0D7
:10B8600027FD2249204810F023FD627A264920480E
:10B8700010F01EFD1D491E4810F01AFD64201AF03C
:10B880008DFBA27A21491848002A14BF32462A4665
:10B8900010F00EFD1549144810F00AFDA27A1B495C
:10B8A0001348002A14BF32462A4610F001FD0F4902
:10B8B0000F48174E10F0FCFC64201AF06FFB15487F
:10B8C0001AF084FE0025B4F88E20EBB2934205F105
:10B8D000010580F23D8223443046197B1AF076FE42
:10B8E000F1E700BF2339070090E30020187E07002E
:10B8F000F4E30020ABE400204B3907008538070053
:10B900000F370700AC3A0700BC3A0700CA3A0700F5
:10B9100053BF0700DB3A07009049914810F0C8FC7C
:10B9200090498F4810F0C4FC8C498F4810F0C0FC3F
:10B930008C498D4810F0BCFC64201AF02FFB14A930
:10B9400010228A4810F01EF89DF85F300D939DF884
:10B950005E300C939DF85D300B939DF85C300A933C
:10B960009DF85B3009939DF85A3008939DF8593043
:10B9700007939DF8583006939DF8573005939DF82E
:10B98000563004939DF8553003939DF8543002933C
:10B990009DF8533001939DF852309DF8502000934C
:10B9A00073499DF851306E4810F082FC6D496C4827
:10B9B00010F07EFC9DF85F300D939DF85E300C9387
:10B9C0009DF85D300B939DF85C300A939DF85B30D9
:10B9D00009939DF85A3008939DF8593007939DF8C4
:10B9E000583006939DF8573005939DF856300493D0
:10B9F0009DF8553003939DF8543002939DF85330D1
:10BA000001939DF852309DF85020009358499DF8BD
:10BA10005130554810F04CFC5249534810F048FC46
:10BA200064201AF0BBFA14A9102252480FF0C5FF87
:10BA30009DF85F300D939DF85E300C939DF85D305E
:10BA40000B939DF85C300A939DF85B3009939DF849
:10BA50005A3008939DF8593007939DF85830069353
:10BA60009DF8573005939DF8563004939DF8553056
:10BA700003939DF8543002939DF8533001939DF841
:10BA800052309DF8502000933B499DF85130344886
:10BA900010F00EFC3349324810F00AFC9DF85F307C
:10BAA0000D939DF85E300C939DF85D300B939DF8DF
:10BAB0005C300A939DF85B3009939DF85A300893E7
:10BAC0009DF8593007939DF8583006939DF85730EC
:10BAD00005939DF8563004939DF8553003939DF8D7
:10BAE000543002939DF8533001939DF852309DF8E5
:10BAF0005020009320499DF851301B4810F0D8FB8E
:10BB00001849194810F0D4FB64201AF047FA14A918
:10BB100004221A480FF03FFF9DF8533001939DF81F
:10BB200052309DF85020009315499DF851300C4833
:10BB300010F0BEFB0B490A4810F0BAFB9DF85330D9
:10BB400001939DF8523000939DF850209DF851309C
:10BB50000B49054810F0ACFB62E600BF93390700C3
:10BB600090E30020187E0700F4E30020ACE40020FE
:10BB70009C390700B0E40020E5390700ADE400205F
:10BB80002E3A07007748002D40F09B800FF0DFFD34
:10BB900075490246754810F08BFB7549734810F0E3
:10BBA00087FB70480FF0D3FD6F490246714810F0D3
:10BBB0007FFB6F496F4810F07BFB64201AF0EEF9B1
:10BBC0006D480FF0D5FD6D490246684810F070FBD6
:10BBD0006749664810F06CFB67480FF0C9FD67497C
:10BBE0000246644810F064FB6149624810F060FB53
:10BBF00064201AF0D3F962480FF0CBFD6149024688
:10BC00005A4810F055FB5A49584810F051FB5C480F
:10BC10000FF0BFFD5B490246564810F049FB5449FE
:10BC2000544810F045FB64201AF0B8F956480FF05C
:10BC3000C1FD564902464D4810F03AFB4C494B486D
:10BC400010F036FB50480FF0B5FD50490246494808
:10BC500010F02EFB4649474810F02AFB64201AF0EA
:10BC60009DF94B480FF0B7FD4A4902463F4810F096
:10BC70001FFB3F493D4810F01BFB45480FF0ABFD53
:10BC8000444902463B4810F013FB3949394810F04B
:10BC90000FFB64201AF082F93F480FF09EFD3F49E8
:10BCA0000246324810F004FB3149304810F000FBE6
:10BCB00039480FF092FD394902462E4810F0F8FA43
:10BCC000AEE50FF044FD28490246284810F0F0FA8E
:10BCD0002749264810F0ECFA22480FF038FD224997
:10BCE0000246244810F0E4FA2149224810F0E0FA14
:10BCF00064201AF053F92A480FF0A3FD294902469F
:10BD00001A4810F0D5FA1A49184810F0D1FA244808
:10BD10000FF097FD23490246164810F0C9FA14495E
:10BD2000144810F0C5FA64201AF038F91E480FF0D4
:10BD30008AFD1E4902460D4810F0BAFA0C490B481C
:10BD400010F0B6FA18480FF07EFD18490246B4E725
:10BD500007481AF03BFC00240EA810F0DDF820463E
:10BD600018B070BDD9E40020473A070090E30020E6
:10BD7000187E0700F4E30020DAE40020563A0700BA
:10BD8000DBE400205E3A0700DCE40020663A0700AE
:10BD9000DDE400206E3A0700DEE40020833A07006D
:10BDA000E2E40020913A0700E3E400209E3A070015
:10BDB0002DE9FF41536E012B0D46144624D139491C
:10BDC00010680CF03AFF044620B10224204604B06B
:10BDD000BDE8F08102F0A2FD2946334810F034FAA4
:10BDE0003249314810F01EFA314A3249D37903936F
:10BDF00093790293537901931379009393782A48A6
:10BE0000128810F055FAE1E7052BDED1161F02F17A
:10BE1000100756F8045F28460CF021FF2B462844F3
:10BE2000984205D013F8012B303A092AF8D9CCE70B
:10BE3000BE42EED10022114620680DF07DF840F29E
:10BE4000D233A0F2E6729A420546BED8002260685C
:10BE500011460DF071F8431E0B2B0646B5D8002293
:10BE6000A06811460DF068F8431E1E2B0746ACD89B
:10BE70000022E06811460DF05FF818288046A4D82B
:10BE80000022206911460DF057F83B289DD8C2B218
:10BE900000925FFA88F3FAB2F1B2A8B202F0F8FCAD
:10BEA000002493E7999D070090E300204752070084
:10BEB0002CDB0020EC3A070007B503230193054B68
:10BEC0000093054B054A064819460FF0E6FE03B0FD
:10BED0005DF804FBD1C30200073B07000F3B0700DE
:10BEE0006EE4002007B503230193054B0093054B37
:10BEF000054A064819460FF0D0FE03B05DF804FB72
:10BF000099C50200623B0700673B07006EE4002012
:10BF100007B503230193054B0093054B054A0648DB
:10BF200019460FF0BAFE03B05DF804FBEDC702003E
:10BF3000B23B0700B73B07006EE4002007B50323C0
:10BF40000193054B0093054B054A064819460FF02F
:10BF5000A4FE03B05DF804FBC1BF0200DE3B070096
:10BF6000E33B07006EE4002007B503230193054B74
:10BF70000093054B054A064819460FF08EFE03B0A4
:10BF80005DF804FBB1BD0200F93B0700FD3B070073
:10BF90006EE4002007B502230193054B0093054B87
:10BFA000054A064819460FF078FE03B05DF804FB19
:10BFB00051B30200243C07002B3C07006EE4002034
:10BFC0004C4B1B7870B5E3B94B4A4C494C4810F0C8
:10BFD0006FF94C494A4810F06BF94B49484810F04A
:10BFE00067F947480FF03AFB4649484810F060F9B6
:10BFF0004549464810F05CF9642019F0CFFF02244F
:10C000004FE0556E012DFAD11668414930460CF0CB
:10C0100014FE0446002846D13B49394810F048F93F
:10C020003949374810F044F93749384810F040F999
:10C030003549364810F03CF9642019F0AFFF21462D
:10C0400034480FF060FE294632480FF05CFE0221B2
:10C0500030480FF058FE01F069FE21462E4802F0EC
:10C0600027FB2E4801F004FE2D4801F001FE01F0EF
:10C0700093FE03F031FA2449214810F019F92249BE
:10C080001F4810F015F92049204810F011F91E49F9
:10C090001E4810F00DF9642019F080FF21480FF0C0
:10C0A000F1FD204670BD204930460CF0C6FD044627
:10C0B0000028A4D11D4B014616481D700FF023FE29
:10C0C000294614480FF01FFE022112480FF01BFEF4
:10C0D00001F02CFE2146104802F0EAFA144801F063
:10C0E000C7FD0F4801F0C4FD01F056FE02F04EFE00
:10C0F000D4E700BF0ED50020423C0700A93207005C
:10C1000090E30020493C0700187E0700F4E300207C
:10C11000999D070071E40020EB3607005D3C0700A5
:10C120000237070008E400209983070058D8002050
:10C130006D3C070030B5944CE7B060689421FDF782
:10C14000C1FD924A92490546924810F0B1F82A463C
:10C150009149904810F0ACF890498E4810F0A8F83A
:10C160008C480FF07BFA2A468B498D4810F0A0F8D6
:10C170008A498B4810F09CF8642019F00FFF894918
:10C18000942268460BF0BEFFADF80050B4F88E5014
:10C19000636801932A46A368029304F10C0103A883
:10C1A0000BF0B0FF794A7A497A48ADF88E5010F01A
:10C1B0007FF8019A7C4977487C4D7D4C10F078F8E7
:10C1C0007649744810F074F872480FF047FA019AF3
:10C1D0007549734810F06CF87049714810F068F8B0
:10C1E000642019F0DBFE694A69496A4810F060F87A
:10C1F0009DF809206F49674810F05AF8674965486B
:10C2000010F056F863480FF029FA9DF809206949A3
:10C21000634810F04DF86149614810F049F8642016
:10C2200019F0BCFE594A5A495A4810F041F89DF895
:10C230000A2061495748002A14BF2A46224610F0B6
:10C2400037F85649534810F033F852480FF006FAC1
:10C250009DF80A2058495248002A14BF2A4622460F
:10C2600010F026F84D494E4810F022F8642019F0DD
:10C2700095FE464A4649474810F01AF89DF80B20AB
:10C280004E494448002A14BF2A46224610F010F8AE
:10C290004249404810F00CF83E480FF0DFF99DF895
:10C2A0000B2046493E48002A14BF2A4622460FF07A
:10C2B000FFFF3A493A48424D0FF0FAFF002464204C
:10C2C00019F06CFEFE22214626A825940BF028FFCB
:10C2D000BDF88E30E0B2984204F1010409DA0DEBAA
:10C2E000000329461A7B25AB03EB40000CF078FCD9
:10C2F000EEE7264A264927480FF0DAFF25AA3149FA
:10C3000024480FF0D5FF254922480FF0D1FF2148DE
:10C310000FF0A4F925AA2B4921480FF0C9FF1F49A6
:10C320001F480FF0C5FF642019F038FE174A18495E
:10C3300018480FF0BDFFBDF88E20234915480FF0B7
:10C34000B7FF164913480FF0B3FF12480FF086F9F4
:10C35000BDF88E201C4912480FF0AAFF0F49104863
:10C360000FF0A6FF642019F019FE184894236A46BE
:10C3700000210FF0AAFC28B90146942313486A460D
:10C380000FF0A3FC67B030BDFCA20020423C0700C8
:10C39000A932070090E30020813C0700187E0700C7
:10C3A000F4E30020A03F0700953C07008538070014
:10C3B0007D3C0700B33C0700C93C0700E23C070096
:10C3C00053BF0700FC3C0700153D07006FE4002049
:10C3D000F8B5536E012B0E4615466AD161491068B7
:10C3E0000CF02BFC0446F8B95F4F60497B6860484D
:10C3F00032464FF47A75B3FBF5F30FF059FF5D4900
:10C400005B480FF055FF7B685849B3FBF5F33246A4
:10C4100059480FF04DFF574957480FF049FF642026
:10C4200019F0BCFD2046F8BD544A554950480FF05C
:10C430003FFF2A6853494E480FF03AFF4D494C4898
:10C440000FF036FF4A480FF009F92A684D494A486B
:10C450000FF02EFF474948480FF02AFF642019F0DB
:10C460009DFD2D6828460CF0FAFB0024844224D060
:10C470002B5D303B092B1ED9404A41493C480FF007
:10C4800017FF224640493A480FF012FF3949384811
:10C490000FF00EFF36480FF0E1F83B4936482246D0
:10C4A0000FF006FF334934480FF002FF642019F003
:10C4B00075FD0224B6E70134D8E70A220021284698
:10C4C0000CF03AFD2D4A2E49274D044628480FF01E
:10C4D000EFFE22462D4926480FF0EAFE2549244862
:10C4E0000FF0E6FE22480FF0B9F82246274922480D
:10C4F0000FF0DEFE1F4920480FF0DAFE642019F02D
:10C500004DFD4FF47A701D4A1D49444318486C6034
:10C510000FF0CEFE6A681E4915480FF0C9FE154996
:10C5200013480FF0C5FE12480FF098F86A681849D2
:10C5300011480FF0BDFE0F490F480FF0B9FE6420FF
:10C5400019F02CFD134800210FF0DDFB6A6822B1C1
:10C550000023104819460FF0CCFBFFF7EBFD002439
:10C5600060E700BF999D0700FCA20020323D070054
:10C5700090E30020187E0700F4E30020423C07000F
:10C58000A9320700393D07004E3D07005D3D070019
:10C59000743D070071E40020536E012B70B50E4608
:10C5A000154601D002241DE0814910680CF045FBBE
:10C5B0000446C8B97F4D80496B7A804832460FF0F7
:10C5C00077FE7F497D480FF073FE6B7A7A497D488C
:10C5D00032460FF06DFE7A497A480FF069FE64200A
:10C5E00019F0DCFC204670BD774A784973480FF09B
:10C5F0005FFE2A68764971480FF05AFE70496F480D
:10C600000FF056FE6D480FF029F82A6870496D4802
:10C610000FF04EFE6A496B480FF04AFE642019F095
:10C62000BDFC2D6828460CF01AFB0024844223D060
:10C630002B5D303B092B1DD9634A64495F480FF0DD
:10C6400037FE224663495D480FF032FE5C495B4885
:10C650000FF02EFE59480FF001F822465D49594867
:10C660000FF026FE564957480FF022FE642019F0BD
:10C6700095FC97E70134D9E70A22002128460CF0FF
:10C680005BFC4C4E504A5149747A05464B480FF0BA
:10C690000FFE2A46504949480FF00AFE48494748CC
:10C6A0000FF006FE45480EF0D9FF2A464A49454894
:10C6B0000FF0FEFD424943480FF0FAFD642019F0E7
:10C6C0006DFC022D3FF66EAFA54201D1002489E733
:10C6D0001CB9012D04D001241EE0012CFBD1DDB9D1
:10C6E000394A3A4935480FF0E3FD3C4933480FF0E9
:10C6F000DFFD334931480FF0DBFD30480EF0AEFF6F
:10C70000364930480FF0D4FD2D492E480FF0D0FDAA
:10C71000642019F043FC00242B4A2C4927487572E9
:10C720000FF0C6FD727A2E4924480FF0C1FD24494E
:10C7300022480FF0BDFD21480EF090FF727A284983
:10C7400020480FF0B5FD1E491E480FF0B1FD6420D2
:10C7500019F024FCFFF7EEFC737A012B21D0022B99
:10C7600022D00BB9FCF7D0FA002CAFD01D491348EA
:10C770000FF09EFD124911480FF09AFD194911481A
:10C780000FF096FD0E490F480FF092FD642019F04E
:10C7900005FC41F2883019F001FC13480FF072FAE1
:10C7A00094E7FCF733FBDFE7FBF754FDDCE700BF62
:10C7B000999D0700FCA20020853D070090E3002022
:10C7C000187E0700F4E30020423C0700A93207006E
:10C7D000393D07004E3D07008B3D07009E3D070099
:10C7E000B83D0700CA3D070008E40020536E012B46
:10C7F0002DE9F0410E4615467ED1D2F8008042491F
:10C80000424F40460CF019FA044688BBB7F88E3008
:10C81000BBB932463E493F480FF04AFD3E493D48CC
:10C820000FF046FD3A493D4832460FF041FD3A4986
:10C830003A480FF03DFD642019F0B0FB2046BDE8FA
:10C84000F08131463648374E19F0C0FE2546B7F81C
:10C850008E20EBB2934205F1010505DA3B443046E8
:10C86000197B19F0B3FEF2E72B4819F0AFFEE5E7AC
:10C8700040460CF0F4F92C4A2C49064625480FF0A6
:10C8800017FD2A682A4923480FF012FD2249214842
:10C890000FF00EFD1F480EF0E1FE2A6824491F48E4
:10C8A0000FF006FD1C491D480FF002FD642019F031
:10C8B00075FB286807F10C02314614F0A1F9044613
:10C8C000E0B1194A194913480FF0F2FC194911480F
:10C8D0000FF0EEFC10490F480FF0EAFC0D480EF087
:10C8E000BDFE14490D480FF0E3FC0B490B480FF057
:10C8F000DFFC642019F052FB02249FE77608A7F8BA
:10C900008E60FFF717FC99E7999D0700FCA20020B5
:10C91000E73D070090E30020187E0700F4E30020C5
:10C92000F33D070053BF0700423C0700A932070050
:10C93000393D0700F73D0700F0B5554C2378E7B0C7
:10C940001BB9FDF7A1F901232370524A52495348FC
:10C950000FF0AEFC9422524950480FF0A9FC514907
:10C960004E480FF0A5FC4D480EF078FE94224C493D
:10C970004D480FF09DFC4B494B480FF099FC64204B
:10C9800019F00CFB4949942268460BF0BBFB6A4640
:10C990000021474894230FF08EF906463D4A3E4950
:10C9A0003E48C6B90FF084FC42493C480FF080FC79
:10C9B0003C493A480FF07CFC38480EF04FFE3D49A8
:10C9C00039480FF075FC374937480FF071FC642087
:10C9D00019F0E4FA57E00FF06BFCBDF8002036497F
:10C9E0002E480FF065FC2F492C480FF061FC2B48B6
:10C9F0000EF034FEBDF800202F492B480FF058FCF4
:10CA0000284929480FF054FC642019F0C7FA9DF812
:10CA10000830AA2B3AD101989421FDF753F9054625
:10CA2000BDF80030254CAB424ED01A4A1A491B487B
:10CA30000FF03EFCBDF80030214918482A460FF09F
:10CA400037FC184915480FF033FC14480EF006FE69
:10CA5000BDF800301A4914482A460FF029FC114944
:10CA600011480FF025FC642019F098FA47F2305273
:10CA7000AA23C4E90123134BE3600423A4F88E30F6
:10CA8000FFF758FB0026304667B0F0BD0025C7E72A
:10CA90006ED80020423C0700A932070090E3002036
:10CAA000103E0700187E0700F4E30020A03F0700B7
:10CAB0006FE400202D3E0700593E0700FCA2002035
:10CAC000673E070001020304019B63609DF8093083
:10CAD000022B40F2EC80954A954996480FF0E8FB0E
