:020000022000DC
:1070000000000420FDA4030025A5030027A503001C
:1070100029A503002BA503002DA5030000000000F7
:107020000000000000000000000000002FA5030089
:1070300031A5030000000000000000000000000077
:10704000C193050033A5030041B2050099990500DD
:1070500033A5030001900500D98D0500F1750600E8
:1070600033A50300D9980500ED98050033A503006A
:1070700033A5030033A5030033A5030033A50300A4
:10708000F5820600D965050033A5030033A503008A
:1070900033A5030033A50300796C060033A5030074
:1070A00033A5030033A503000199050015990500D8
:1070B00033A5030033A5030000000000000000001A
:1070C00033A5030033A5030033A503002D7B060081
:1070D000F195050033A5030033A5030051AF05006A
:1070E000C9AF060033A5030009D706000000000061
:1070F0000000000033A5030000000000FD7E060034
:10710000000000000000000000000000000000007F
:10711000000000000000000000000000000000006F
:10712000000000000000000000000000000000005F
:10713000000000000000000000000000000000004F
:10714000000000000000000000000000000000003F
:10715000000000000000000000000000000000002F
:10716000000000000000000000000000000000001F
:10717000000000000000000000000000000000000F
:1071800000000000000000000000000000000000FF
:1071900000000000000000000000000000000000EF
:1071A00000000000000000000000000000000000DF
:1071B00000000000000000000000000000000000CF
:1071C00000000000000000000000000000000000BF
:1071D00000000000000000000000000000000000AF
:1071E000000000000000000000000000000000009F
:1071F000000000000000000000000000000000008F
:1072000010B5054C237833B9044B13B10448AFF3E0
:1072100000800123237010BDC0D4002000000000B6
:10722000381E080008B5034B1BB103490348AFF3F0
:10723000008008BD00000000C4D40020381E0800F3
:10724000154B002B08BF134B9D46A3F5803A002138
:107250008B460F461348144A121A10F03DFE0F4B8E
:10726000002B00D098470E4B002B00D098470020F1
:10727000002104000D000D48002802D00C48AFF397
:10728000008010F0D9FD2000290010F05FFB10F005
:10729000BFFD00BF00000800000004200000000047
:1072A00000000000C0D400209CC6012000000000A7
:1072B000000000000022C0E900220172704738B5CA
:1072C0000446006820B1856913F0E0F82846F9E724
:1072D000204638BD006820B143688B4201D08069E8
:1072E000F9E77047F8B504460F4616461D46FFF706
:1072F000F1FF20B10123826005704370F8BD1C20AE
:1073000013F0C8F8012343700023C0E90333C0E938
:10731000053323680570C0E9017613B92060606009
:10732000ECE763689861FAE72DE9F8430468164FC3
:1073300005460E464FF000081CB363680BB9A469FC
:10734000FAE72378002BFAD0E368A268F31A9A428E
:1073500002D961780029F2D09B1A636184F8018018
:10736000E66014F049FF63688146984714F044FFD3
:107370003B68A0EB0900206118442B7A3860002B91
:10738000DDD0BDE8F88300BFDCD4002008B5074B92
:1073900050B103221A700648FA22012114F089FB29
:1073A000044B00221A7008BD0522F3E7E0D4002048
:1073B00071E400202DD60020054B064800221A70EB
:1073C000054B08221A700121FA2214F072BB00BF8B
:1073D0002DD6002071E40020E0D4002084B004AB5E
:1073E00003E907000B4BBDF90A201A800A4B9DF9EF
:1073F0000C201A70094A0A48136801331360094BBC
:1074000000221A70084B0121FA22197004B014F0FE
:1074100050BB00BF10D5002012D5002028D6002078
:1074200071E400202DD60020E0D40020124B002271
:107430001A70124B5B7A022B1DD0114B90F906206B
:107440001A70104BB0F904201A800F4A0378137099
:107450000E4A417811700E4A817811701BB10D4AA5
:107460001368013313600C4B0C4804221A7001217D
:10747000FA2214F01EBB70472DD60020FCA200207B
:1074800012D5002010D5002015D6002013D60020DC
:1074900014D6002024D60020E0D4002071E400207F
:1074A0002DE9F04F2DED028B00218BB0AC4E044640
:1074B000242014F090FE0021232014F08CFE337859
:1074C00063B1A84B1B784BB906F00CFBA649A74843
:1074D00011F099FAA548012106F0C6FF44B9A44964
:1074E000A44814F0B1FD0BB0BDEC028BBDE8F08FE9
:1074F0002378012B40F08A819F4BA04F1B78A04D31
:10750000002B2DD09F4B1B78002B00F0968007F0AE
:10751000E1F89D4A9D4B11881980917899701179F5
:10752000D9705179927919715A7101229A719849D9
:107530000022DA710968996096490968D9601A745D
:107540005A74398849B29974297849B2D9749A829F
:10755000DA821A83904A126812B25A8307F094FCB6
:1075600033788E4E002B00F0BF807E4B1C78002CB1
:1075700040F0BA808A497D4811F045FA7B4907A856
:1075800014F0F0FB07AA2146204606F0C7FA07A828
:1075900014F0A2FB32688349744811F0FDF9734975
:1075A00007A814F0DFFB07AA2146012006F0B6FA6F
:1075B00007A814F091FB7C4813F0A9FF4AF02AFEBB
:1075C00065A3D3E900234AF0C9FF0B460246774979
:1075D000664811F0E1F9654907A814F0C3FB07AA52
:1075E0002146022006F09AFA07A814F075FB7048AD
:1075F00013F09EFF6F4902465C4811F0CDF95B49DC
:1076000007A814F0AFFB07AA2146032006F086FA6C
:1076100007A814F061FB684813F09BFF092800F2EB
:10762000F380DFE810F00D00930095009700E5006F
:10763000E700E900EB00ED00EF0007F0C3F968E7B1
:107640005E4905A811F0DFF95B4813F082FF5C4B3F
:107650005C4953F82020454811F09EF9434907A89A
:1076600014F080FB07AA4021032006F057FA07A870
:1076700014F032FB544813F07DFF5449421D3B483F
:1076800011F08AF9394907A814F06CFB07AA4021C8
:10769000022006F043FA07A814F01EFB3A884C4972
:1076A000324812B211F078F9304907A814F05AFBA9
:1076B00007AA0021042006F031FA07A814F00CFBF9
:1076C0002A784449294852B211F066F9274907A897
:1076D00014F048FB07AA4021042006F01FFA07A86F
:1076E00014F0FAFA06F034FA3B49224814F0ACFCE4
:1076F00032683B8829781F4849B21BB2009137494C
:1077000014F0B6FC284813F002FF08EE100A2848CF
:1077100013F00EFF0446284813F01BFFF8EE487ADA
:10772000054617EE900A4AF097FD0BA3D3E9002314
:107730004AF014FF7D2305FB0333CDE900430246E5
:107740000B460C48264914F093FCCCE6254978E713
:10775000254976E7254974E70000000080842E4122
:107760000DD5002058D80020AC2C070013D50020E0
:10777000BD2C070090E300200ED5002010D500207E
:1077800012D5002034DB00202CDB0020A4A1002037
:1077900088D800208CD8002024D6002028D60020AD
:1077A000CA2C0700D82C0700D9E40020693507004F
:1077B000DAE40020C0400700DBE40020EC2C0700E6
:1077C00074A20020222D0700DCE40020D94007002D
:1077D000282D0700302D0700372D0700442D070006
:1077E000612D0700F02C0700F42C0700F82C07008F
:1077F0005C4926E75C4924E75C4922E75C4920E7CD
:107800005C491EE75C491CE75C491AE7032B62D11F
:107810003378002B3FF467AE594B1E78002E7FF46F
:1078200062AE584C657A002D41D0022D4CD04FF4F9
:107830007A7362685449B2FBF3F2544811F0ACF821
:10784000524907A814F08EFA07AA0021012006F079
:1078500065F907A814F040FA4D4907A814F082FA18
:10786000002107AA022006F059F907A814F034FAFB
:107870004849464811F0C7F8444907A814F072FA7D
:10788000002107AA032006F049F907A814F024FAFA
:107890003F4907A814F066FA07AA0021042006F061
:1078A0003DF907A814F018FA06F052F91BE63A4918
:1078B00007A814F057FA07AA2946084606F02EF939
:1078C00007A814F009FAB2E7344907A814F04AFAF5
:1078D00007AA3146F1E7052B64D13378002B3FF43A
:1078E00002AE274B1E78002E7FF4FDAD254C657A45
:1078F00025B3022D2FD04FF47A7362682249B2FB70
:10790000F3F2224811F048F8204907A814F02AFAA7
:1079100007AA0021012006F001F907A814F0DCF9FC
:107920001B4907A814F01EFA002107AA022006F03E
:10793000F5F807A814F0D0F919499AE7164907A8ED
:1079400014F010FA07AA2946084606F0E7F807A837
:1079500014F0C2F9CFE7114907A814F003FA07AAF7
:107960003146F1E7FC2C0700012D0700072D070029
:107970000D2D0700132D0700192D07001E2D0700E0
:1079800058D80020FCA20020972D070013D5002016
:10799000FBDF0700AA2D0700762D0700852D0700C5
:1079A000B62D0700042B40F00182854B854C1B78D7
:1079B000DFF87892DFF87882834F002B35D0834B45
:1079C0001B78002B00F0F98006F084FE804A814B82
:1079D00011881980917899701179D97051799279BB
:1079E00019715A7100229A7198F80010C9B2D971B0
:1079F00079490968996079490968D960218849B24B
:107A00001974218849B25974218849B2997499F836
:107A1000001049B2D9749A82DA823A781A83704A8D
:107A2000126812B25A8307F02FFA3378DFF804A2F3
:107A30006C4D002B00F0A3806B4B1E78002E40F0A5
:107A40009E806A4B29786A4A6A48002918BF1A46FC
:107A5000694910F0A1FF674907A814F083F907AA44
:107A60003146304606F05AF807A814F035F92A785E
:107A700002F0FF0B002A40F0DF803A785F495D4852
:107A800010F08AFF5B4907A814F06CF907AA594661
:107A9000012006F043F807A814F01EF9DAF80020D8
:107AA0005749544810F078FF524907A814F05AF982
:107AB00007AA5946022006F031F807A814F00CF97D
:107AC000474B50491A684B4810F066FF494907A8D0
:107AD00014F048F907AA4021022006F01FF807A871
:107AE00014F0FAF898F800204749424810F054FF83
:107AF000404907A814F036F907AA5946032006F0B2
:107B00000DF807A814F0E8F8404813F069FE404962
:107B10000246384810F040FF364907A814F022F911
:107B200007AA4021032005F0F9FF07A814F0D4F8B4
:107B3000228838492F4812B210F02EFF2D4907A88D
:107B400014F010F907AA5946042005F0E7FF07A82A
:107B500014F0C2F899F800202F49264852B210F0CC
:107B60001BFF244907A814F0FDF8042007AA4021B0
:107B700005F0D4FF07A814F0AFF805F0E9FF297865
:107B80001A4B1B4A2548002918BF1A46244914F0ED
:107B90006FFADAF80020238899F800101F4849B2DC
:107BA00000911BB21F4914F063FA98F800201E4997
:107BB0003B781A4814F05CFA95E406F003FF05E7F9
:107BC0000ED5002010D5002013D6002034DB002075
:107BD0002CDB0020A4A1002088D800208CD8002015
:107BE00024D6002015D6002058D80020A82C070045
:107BF000A92C070013D50020CC2D0700DD2D070090
:107C0000F02D0700F82D0700002E0700B8E4002033
:107C1000FD2E0700282D0700302D070090E30020DF
:107C2000032F0700442D0700122F070012D5002054
:107C300014D6002028D60020DAF800204349444812
:107C400010F0AAFE424907A814F08CF807AA3146A2
:107C5000012005F063FF07A814F03EF83D4B3E49B4
:107C60001A683B4810F098FE394907A814F07AF8D2
:107C700007AA4021012005F051FF07A814F02CF8B5
:107C80002A783649324810F087FE314907A814F0A7
:107C900069F807AA3146022005F040FF07A814F052
:107CA0001BF82B78013B0F2B4ED8DFE803F0082F91
:107CB00031333537393B3D3F41434547494B2849EF
:107CC000234810F0A0FE224907A814F04BF807AA99
:107CD0000021032005F022FF07A813F0FDFF214833
:107CE00013F07EFD20490246194810F055FE184950
:107CF00007A814F037F807AA0021042005F00EFFAA
:107D000007A813F0E9FF05F023FF36E71749D7E787
:107D10001749D5E71749D3E71749D1E71749CFE7FF
:107D20001749CDE71749CBE71749C9E71749C7E70F
:107D30001749C5E71749C3E71749C1E71749BFE71F
:107D40001749BDE71749BBE71749B9E7F02D070009
:107D500013D5002024D60020F82D0700092E070097
:107D60001E2E0700B8E40020FA2E07002C2E070074
:107D7000372E0700432E07004F2E0700592E07000D
:107D8000AA2D0700632E0700772E07008A2E070012
:107D90009A2E0700A72E0700B12E0700C12E07005C
:107DA000CF2E0700DB2E0700EC2E0700AB4B1B7815
:107DB000062B40F08D81AA4BAA49DD781C7993F8F7
:107DC00001809F7893F905B0A748C5EB451205EBF4
:107DD0008205A8F1C808C4EB4412C83F04EB820432
:107DE0001FFA88F85A790292BFB25A466D006400B1
:107DF0000FFA88FA0FFA87F914F03AF92DB29B4975
:107E000099484B46524624B214F032F92346984919
:107E100095482A4614F02CF9964B1B78002B34D049
:107E2000954B1B78002B00F0F48006F053FC934A2E
:107E3000934B11881980917899701179D970517983
:107E4000927919715A7102229A71029ADA718D4AE5
:107E500012689A608C4A1268DA604FFA88F88B4A86
:107E600083F810807FB25F74128852B29A74884A85
:107E7000127852B2DA7400229D82DC821A83854A1B
:107E8000126812B25A8306F0FFFF3378002B3FF4DA
:107E90002AAB814B1E78002E7FF425AB05F022FE25
:107EA0007E48012106F0E0FA794B7D491A78774B3C
:107EB0007C481B8852B21BB210F06EFD794907A8AE
:107EC00013F050FF07AA3146304605F027FE07A8F9
:107ED00013F002FF5A467449724810F05DFD714973
:107EE00007A813F03FFF07AA3146012005F016FE50
:107EF00007A813F0F1FE6D4907A813F033FF07AA96
:107F00003221012005F00AFE07A813F0E5FE6849BA
:107F100007A813F027FF07AA5021012005F0FEFD56
:107F200007A813F0D9FE634907A813F01BFF07AA9F
:107F30003146022005F0F2FD07A813F0CDFE5E49A0
:107F400007A813F00FFF07AA3146032005F0E6FD4E
:107F500007A813F0C1FE52465849524810F01CFDC4
:107F6000504907A813F0FEFE07AA3221022005F0AF
:107F7000D5FD07A813F0B0FE4A465049494810F015
:107F80000BFD484907A813F0EDFE07AA3221032094
:107F900005F0C4FD07A813F09FFE494BDF7A002FC0
:107FA0003AD02A4645493F4810F0F6FC3D4907A81B
:107FB00013F0D8FE07AA5021022005F0AFFD07A854
:107FC00013F08AFE22463D49364810F0E5FC35495B
:107FD00007A813F0C7FE07AA5021032005F09EFD55
:107FE00007A813F079FE274B1868274B1C684AF046
:107FF00033F902460B46CDE9022320464AF02CF91C
:10800000DDE90223CDE900012E49264810F0C4FC29
:1080100022E006F0D7FC0AE72B49224810F0F3FCD7
:10802000204907A813F09EFE07AA5021022005F060
:1080300075FD07A813F050FE1A4907A813F092FE29
:10804000502107AA032005F069FD07A813F044FE9C
:108050001E49144810F0D7FC12491AE4E0D400205D
:10806000E1D400202C2F070090E300204B2F0700C5
:10807000652F07000ED5002034DB00202CDB00200C
:10808000A4A1002088D800208CD8002010D5002082
:1080900012D5002024D6002058D80020832F0700B6
:1080A000932F070013D50020AA2F0700368C070056
:1080B000B52F0700BE2F0700C22F0700ED2D0700C8
:1080C000FCA20020C62F0700DB2F0700D22F0700DD
:1080D000072B5ED14249434813F0CAFF424B1B783D
:1080E000002B28D0414B1B78002B4FD006F0F2FA22
:1080F0003F4A404B11881980917899701179D97055
:108100005179927919715A7102229A713A49002271
:10811000DA710968996039490968D9601A745A7422
:108120009A74DA749A82DA821A83354A126812B221
:108130005A8306F0A9FE3378002B3FF4D4A9314BC3
:108140001C78002C7FF4CFA905F0CCFC2E4801212F
:1081500006F08AF92D492E4810F055FC2C4907A845
:1081600013F000FE07AA2146204605F0D7FC07A819
:1081700013F0B2FD204B1868204B1D684AF06CF8D4
:1081800002460B46CDE90223284637E706F01AFCE3
:10819000AEE7082B7FF4A7A91E49124813F068FF29
:1081A0001D4B00221A703378002B3FF49CA9154B0D
:1081B0001B78002B7FF497A905F094FC1748012148
:1081C00006F052F91649124810F01DFC104907A894
:1081D00013F0C8FD002107AA0846FFF760BB00BFE7
:1081E000DE2F070090E300200ED5002034DB0020B6
:1081F0002CDB0020A4A1002088D800208CD80020EF
:1082000024D6002058D80020832F0700FD2F070018
:1082100013D50020123007002DD60020AC2C07000B
:108220002930070010B5044607F0B8F9204610BD04
:1082300008B5064B1B783BB113F0D9FFBDE80840E9
:1082400001460348FFF770B808BD00BF59D80020A9
:1082500018D600201F4B07B501221F481A7013F0D3
:10826000D4F918B11D48002113F099F91C4813F0F6
:108270001DFB1C491C4813F02BFA1C491A4813F02B
:1082800037FA1B49184813F02BFA1A49164813F00D
:1082900037FA1949144813F03BFA0021174813F034
:1082A00075FA0021164813F0DFFA322301220093F9
:1082B0000D480A23114613F0CAF9124BDB7A33B189
:1082C0000121222003B05DF804EB13F084BF03B05A
:1082D0005DF804FBA1A10020E4E40020CEE400202E
:1082E000CDE40020AD880200A9E40020C589020089
:1082F0008D7302002D740200798A0200B1E400201F
:10830000CBE40020FCA2002010B50B4C002120463D
:10831000FEF7D0FF2046094C094A0A490FF060FDDC
:10832000FF21204607F02EF92046054A0649BDE800
:1083300010400FF055BD00BF18D6002004D5002016
:1083400090A10020BF720200258202002DE9FF41AA
:10835000974C984D637A984F0126022B2E7040F06F
:108360009D81964807F021F9E37A002B00F05A81AD
:10837000934A3B7811789046002940F0EE805BB13B
:10838000904B1B7843B905F0ADFB8F48314606F0A2
:108390006BF88E4805F048FB04F0EAFD002856D043
:1083A0008B4B1B78F3B98B4A8B498C4813F060FEDA
:1083B0008B498A4813F05CFE8A49884813F058FEBE
:1083C000864813F02BF88649874813F051FE8549FB
:1083D000854813F04DFE64201DF0C0FC8348012148
:1083E00013F051FAB4F88E0004F0AEFB60B373489A
:1083F00007F0DEF80390714807F0DCF8012302462D
:10840000CDE9003303997A4813F03CF90446D8B912
:10841000704A7149714813F02BFE76496F4813F08A
:1084200027FE70496D4813F023FE6C4812F0F6FFEA
:1084300070496D4813F01CFE6A496B4813F018FE32
:1084400064201DF08BFC2C7004B0BDE8F0816A4BF9
:108450001A7802F0FF06002A62D018703B784BB100
:10846000584B1B7833B96549654810F0CCFA64481D
:1084700005F0DAFA002300931A4619464F48B7EE82
:10848000000A06F0B5FF524B1B78F3B95D4A52491A
:10849000524813F0EDFD5249504813F0E9FD51499F
:1084A0004E4813F0E5FD4D4812F0B8FF4C494E48D8
:1084B00013F0DEFD4B494C4813F0DAFD64201DF04B
:1084C0004DFC4A48012113F0DEF9B4F88E0004F0A7
:1084D0003BFB0028B8D0394807F06AF803903748CA
:1084E00007F068F801240246CDE9004403994048AA
:1084F000234613F0C7F80028A5D1424A2870364910
:10850000364813F0B5FD3B49344813F0B1FD354909
:10851000324813F0ADFD314812F080FF35493AE0A2
:108520000123264888F8003007F03FF8364B3748DB
:108530001E8041F288326368B3FBF2F3344A138041
:10854000344B1E70344B40F6C4121E700321334668
:1085500004B0BDE8F04113F0ACBA5BB1194B1B7825
:1085600043B905F0BFFA1848314605F07DFF2B48A6
:1085700005F05AFA174A1849184813F079FD2849A6
:10858000164813F075FD1749144813F071FD134890
:1085900012F044FF2249144813F06AFD11491248B1
:1085A00013F066FD642004B0BDE8F0411DF0D6BBB9
:1085B000FCA200202DD600200DD5002004D50020DF
:1085C0000CD5002058D80020393007004A30070069
:1085D0002CD60020653007006930070090E30020AA
:1085E0006F300700887B0700F4E30020CCE4002014
:1085F000A9E400207C30070001D500209830070056
:1086000013D50020AE30070078D8002071E4002098
:108610007AD80020A8D80020A9D80020B3300700BD
:10862000C73007003B785BB1874B1B7843B905F037
:1086300059FA8648314605F017FF854805F0F4F9E8
:10864000002300931A4619468248B7EE000A06F046
:10865000CFFE814B1B78002B7FF4C4AE01217F48F5
:1086600013F011F97E4A7F497F4813F001FD7F49DD
:108670007D4813F0FDFC7E497B4813F0F9FC7A48F5
:1086800012F0CCFE79497B4813F0F2FC7849794826
:1086900013F0EEFC64201DF061FBA3E63B7853B1C0
:1086A000694B1F783FB905F01DFA7348314605F054
:1086B000DBFE724B1F70674806F077FF704813F0BF
:1086C000F1F8002800F093806E4813F075F8002848
:1086D0007AD00121242013F07EFD614A614962486D
:1086E00013F0C6FC6849604813F0C2FC60495E485C
:1086F00013F0BEFC5C4812F091FE63495D4813F034
:10870000B7FC5B495B4813F0B3FC64201DF026FB0B
:108710005E4805F089F9504B1B78F3B9504A51492E
:10872000514813F0A5FC51494F4813F0A1FC5049A2
:108730004D4813F09DFC4C4812F070FE4B494D48DB
:1087400013F096FC4A494B4813F092FC64201DF04C
:1087500005FB4248012113F096F8E37A2BB304F0AD
:1087600007FC20B94A4A002313604A4A136039487B
:1087700006F01EFF80B204F0E7F900283FF464AE73
:10878000344806F015FF0390324806F013FF01232A
:10879000CDE90033039902463F4812F073FF0028E9
:1087A0007FF452AE2E4A2870A9E6B4F88E0004F089
:1087B000CBF900283FF448AE0123CDE90033374A16
:1087C00094F88E100223E7E7254A264928702648A8
:1087D00013F04EFC3249244813F04AFC2449224845
:1087E00013F046FC204812F019FE2D49D3E6012172
:1087F000232013F0F0FC1A4A1A491B4813F038FCE6
:108800002849194813F034FC1949174813F030FC73
:10881000154812F003FE2349164813F029FC1449A9
:10882000144813F025FC64201DF098FA174805F051
:10883000FBF80123194A94F88E101B4812F0CDFE64
:1088400001232B7000E600BF58D800203930070004
:10885000DB30070004D500202CD60020CCE400201B
:10886000653007006930070090E300206F30070093
:10887000887B0700F4E30020AC2C070001D5002022
:10888000CDE40020B4E40020E7300700F330070017
:108890008CD8002088D80020A9E4002008A300205C
:1088A000013107001F310700CEE4002070B5344BC2
:1088B000B0F90A201A80334B90F90C201A70324B11
:1088C00042781A70314A136801331360304B00222A
:1088D0001A7003780446E3B92E4A2F492F4813F043
:1088E000C7FB2F492D4813F0C3FB2E492B4813F02B
:1088F000BFFB2A4812F092FD29492B4813F0B8FB20
:108900002849294813F0B4FBBDE8704064201DF0ED
:1089100025BA264A527A022A28D1022B0FD1244D99
:10892000027A4168234806232B700FF0C7FA2B46C2
:10893000FA220121BDE870401F4813F0BAB8154A69
:108940001549164813F094FB22781C49134813F07C
:108950008FFB1449114813F08BFB104812F05EFD99
:1089600022781649104813F083FBC9E7144B1B7893
:1089700023B90F4B01211970FA22DBE770BD00BF4C
:1089800010D5002012D500200FD5002028D60020B9
:108990002DD600202F3107006930070090E300201A
:1089A00035310700887B0700F4E30020FCA200209B
:1089B000E0D40020E1D4002071E400203D31070024
:1089C000C0A1002070B50446002839D01D4B1E4AB6
:1089D0001E491F4800251D7013F04AFB2A461D49F9
:1089E0001B4813F045FB1C49194813F041FB18487C
:1089F00012F014FD2A461749184813F039FB16499E
:108A0000164813F035FB64201DF0A8F9144B1C60C8
:108A1000144B5B7A022B09D1134B07221A70BDE865
:108A200070401248FA22012113F043B8104B1B7812
:108A300033B9104A1368013313600B4B0222EDE780
:108A400070BD00BF2DD600206530070069300700DB
:108A500090E300204C310700887B0700F4E30020FE
:108A600030D60020FCA20020E0D4002071E40020D9
:108A7000C0A1002024D6002030B5504A5049514DA5
:108A800099B00446504813F0F3FA22464F494E4835
:108A900013F0EEFA4E494C4813F0EAFA4A4812F045
:108AA000BDFC224649494B4813F0E2FA484949487F
:108AB00013F0DEFA64201DF051F9297800297AD1EB
:108AC00001231A2208A82B7007910FF005FA05A8B8
:108AD0002BF016FD0598404C00F5E0400FA96E30D4
:108AE0002BF082FD149B3D4903F26C730393129BA0
:108AF0000293139B013301930F9B009307A8DDE9B9
:108B000010320FF049FF2D4A2D492F4813F0B0FACB
:108B100007AA33492C4813F0ABFA2D492A4813F021
:108B2000A7FA294812F07AFC07AA2D49294813F020
:108B30009FFA2749274813F09BFA64201DF00EF98D
:108B4000149B03F26C732380139B0133A370129B5D
:108B50002371119B6371109BA3710F9BE371214BD8
:108B60001B7843B3154A1649174813F081FA1E497A
:108B7000154813F07DFA1649134813F079FA124894
:108B800012F04CFC1849134813F072FA10491148BE
:108B900013F06EFA64201DF0E1F802232B70E379E4
:108BA0000193A379009363792279A178208805F055
:108BB0008FFE05F08FFD19B030BD00BF5B3107009F
:108BC000693007002CD6002090E3002060310700B8
:108BD000887B0700F4E300202CDB002077310700BE
:108BE000584F070034DB002099310700F0B54FF0F3
:108BF00080432DED028BD3F83834032B85B020D180
:108C0000364A3749374813F033FA3749354813F0B5
:108C10002FFA3649334813F02BFA324812F0FEFB94
:108C20003149334813F024FA3049314813F020FA1F
:108C300064201DF093F80024204605B0BDEC028BA3
:108C4000F0BD2C482B4D12F0FFFE0A24B0EE408AF6
:108C5000284612F0F9FE013C38EE008AF8D1B2EE57
:108C6000067AC8EE077A1D4A1D491E489FED228AE2
:108C7000DFED226A27EE888ADFED217A68EE277A17
:108C800087EEA67AFCEEC77ACDED037A9DF80C400C
:108C900013F0EEF918EE100A49F0DEFA06460F4618
:108CA0002246CDE9006717490E4813F0E1F90F4954
:108CB0000C4813F0DDF90B4812F0B0FB2246CDE969
:108CC000006710490A4813F0D3F90849084813F01F
:108CD000CFF964201DF042F8AEE700BF537F0700D4
:108CE0006930070090E30020AF310700887B070060
:108CF000F4E300206DE4002000007A440040834546
:108D000000007F43B631070007B52C4A2C492D4897
:108D100013F0AEF92C492B4813F0AAF92B49294836
:108D200013F0A6F9274812F079FB2749284813F0D9
:108D30009FF92649264813F09BF964201DF00EF890
:108D4000244A254801231370244A137012F05DFC55
:108D500018B12348002112F022FC224812F0A6FD8F
:108D60002149224812F0B4FC2149204812F0C0FCED
:108D700020491E4812F0B4FC1F491C4812F0C0FCE8
:108D80001E491A4812F0C4FC00211D4812F0FEFCD6
:108D900002211C4812F068FD322301220093114683
:108DA0000A23124812F053FC174BD97A01B1012162
:108DB000222003B05DF804EB13F00DBA6530070014
:108DC0006930070090E30020D0310700887B07005E
:108DD000F4E30020C0A10020E4E40020A1A10020D1
:108DE000CEE40020CDE40020AD880200A9E40020FC
:108DF000C58902008D7302002D740200798A020079
:108E0000B1E40020CBE40020FCA2002008B52B4AEE
:108E10002B492C4813F02CF92B492A4813F028F938
:108E20002A49284813F024F9264812F0F7FA26496F
:108E3000274813F01DF92549254813F019F9642036
:108E40001CF08CFF234B24480021197012F0A7FB63
:108E5000224812F0DEFBD0B9184A1949194813F01C
:108E600007F91F49174813F003F91849154813F07B
:108E7000FFF8144812F0D2FA1949154813F0F8F81F
:108E80001249134813F0F4F864201CF067FF1549E9
:108E9000114812F0CBFB14490F4812F0CFFB4FF6EC
:108EA000FD710D4812F07BFB104BD97A01B1012105
:108EB000BDE80840222013F08EB900BF65300700DE
:108EC0006930070090E30020E5310700887B070048
:108ED000F4E30020A1A10020CEE40020E4E400207F
:108EE000F4310700DD730200B9730200FCA2002018
:108EF0002DE9F047012186B0222013F055F9012118
:108F0000232013F051F90121242013F04DF9002101
:108F1000222013F060F90223B14806224FF4E13118
:108F200012F082FA4FF08043D3F83834032B40F02C
:108F3000468241F288301CF011FF012500230222F5
:108F400003ACA849A84800950FF026FDA649A74FF5
:108F5000204612F007FF2146A54812F053FD204697
:108F600012F0BAFEA34812F0A7FF04F0E7FC387035
:108F700038B1A1499C480FF046FD9B48294605F0B1
:108F800073FA0121232013F026F90021232013F086
:108F900022F90021242013F01EF93B78D3B9974A17
:108FA00097498F4813F064F896498D4813F060F89C
:108FB00095498B4813F05CF8894812F02FFA9149D3
:108FC000924813F055F89049904813F051F86420F6
:108FD0001CF0C4FE02F0B8FED0B9884A8849804827
:108FE00013F046F88A497E4813F042F886497C48D7
:108FF00013F03EF87A4812F011FA8549834813F0CD
:1090000037F88149814813F033F864201CF0A6FE3C
:1090100002F02CFED0B9794A7949714813F028F84A
:109020007C496F4813F024F877496D4813F020F815
:109030006B4812F0F3F97749744813F019F8724944
:10904000724813F015F864201CF088FE02F024FE2C
:10905000D0B96A4A6A49624813F00AF86E49604812
:1090600013F006F868495E4813F002F85C4812F005
:10907000D5F96949654812F0FBFF6349634812F06E
:10908000F7FF64201CF06AFE02F01CFED0B95B4AB8
:109090005B49534812F0ECFF6049514812F0E8FF79
:1090A00059494F4812F0E4FF4D4812F0B7F95B49B7
:1090B000564812F0DDFF5449544812F0D9FF64209D
:1090C0001CF04CFE03F012FBD0B94C4A4C4944480A
:1090D00012F0CEFF5249424812F0CAFF4A494048B6
:1090E00012F0C6FF3E4812F099F94D49474812F078
:1090F000BFFF4549454812F0BBFF64201CF02EFE1F
:1091000000F0E8FDD0B93D4A3D49354812F0B0FFC6
:109110004449334812F0ACFF3B49314812F0A8FFF4
:109120002F4812F07BF93F49384812F0A1FF364929
:10913000364812F09DFF64201CF010FE3A4D0020CE
:1091400000F0A4FC6B7A2D4A2D492548022B40F0F3
:109150005D8112F08DFF3549214812F089FF2A49BF
:109160001F4812F085FF1E4812F058F92F49274872
:1091700012F07EFF2449254812F07AFF64201CF08B
:10918000EDFD012003F08AFD05F0CEFA284B1B4AC5
:109190001B491870002800F05781114812F068FF31
:1091A00024490F4812F064FF17490D4812F060FF80
:1091B0000B4812F033F91F49144812F059FF1249B5
:1091C000124812F055FF64201CF0C8FD05F082FA29
:1091D00094E803002BF073F902F0A0FD2CE000BF2F
:1091E00090E300201632070013D500200DD5002093
:1091F00018E40020ECE40020AC2C070065300700E8
:10920000693007002C320700887B0700F4E3002058
:109210003A320700613207008F320700B932070087
:10922000E73207000C330700FCA2002028330700B8
:1092300034DB00205533070005F046FC8F4E3070BC
:10924000002840F04F818E4A8E498F4812F010FF5F
:109250008E498D4812F00CFF8D498B4812F008FFA3
:10926000894812F0DBF889498A4812F001FF8849E1
:10927000884812F0FDFE64201CF070FD6B7A012B13
:1092800000F07B81022B00F081813BB382497E4854
:1092900012F0DAFE3B780BB3804981480FF0B3FB44
:1092A0007F49204612F05EFD00212246084604F068
:1092B00035FC204612F010FD7A4979480FF0A3FBE7
:1092C0007749204612F04EFD22460021012004F08D
:1092D00025FC204612F000FD04F03AFC724804F030
:1092E000A3FB724812F068FA10B9714804F09CFBB5
:1092F000FFF70AFD4FF47A736E496A686848B2FB5B
:10930000F3F20FF049FB664804F08EFB6A4A6B48A3
:109310000123002112F0C3FB6A6822B100236748D1
:10932000194612F0C6FB664A64480023012112F078
:10933000B6FB0023634A6148022112F0B0FBAB7A0E
:1093400033B15E4800234EF66022022112F0B1FBD9
:1093500001235D4A5948032112F0A1FB5B4B1B78A6
:109360005BB1524812F028FA38B932230122009337
:1093700057480A23114612F06AF9414A41494248C6
:1093800012F076FE5349404812F072FE40493E48C2
:1093900012F06EFE3C4812F041F84E493D4812F082
:1093A00067FE3B493B4812F063FE64201CF0D6FC8C
:1093B0000121494812F0EFFE06B0BDE8F08712F037
:1093C00016FF314D04464FF0000A41F287384FF046
:1093D0000009284612F00DF800287FF4AEAD12F017
:1093E00006FF061B6AEB4A07B04579EB0703FFF659
:1093F000A4AD64201CF0B2FC232012F0F1FEB0FA00
:1094000080F14909232012F0E6FEE2E7EE7A002E11
:109410007FF49FAE12F02CFE30491B4812F028FE5C
:109420001B49194812F024FE174811F0F7FF2B4989
:10943000184812F01DFE1649164812F019FE642055
:109440001CF08CFC30469DE60F4812F011FE2449BA
:109450000D4812F00DFE0E490B4812F009FE0A48A5
:1094600011F0DCFF1E490B4812F002FE08490948C2
:1094700012F0FEFD64201CF071FCDDE60ED500202C
:10948000653007006930070090E300205F33070074
:10949000887B0700F4E30020A3330700C4330700F0
:1094A00013D50020D6330700762D0700B4E4002042
:1094B000E6330700972D07004D83020071E400207A
:1094C000A1740200A5DB020049D40200A1A1002082
:1094D000A9E40020F433070009E400203C3307002E
:1094E0005233070005F0A8FB3070D0B92E4A2F493F
:1094F0002F4812F0BDFD2F492D4812F0B9FD2E491D
:109500002B4812F0B5FD2A4811F088FF29492B4855
:1095100012F0AEFD2849294812F0AAFD64201CF083
:109520001DFC214A21492248DFF8AC90DFF8AC80CD
:1095300012F09EFD327822491D48002A14BF4A4687
:10954000424612F095FD1C49194812F091FD184849
:1095500011F064FF32781A491848002A14BF4A46AD
:10956000424612F085FD1449144812F081FD642032
:109570001CF0F4FB02F0BCFB80E6FFF747FC11484F
:1095800004F052FA104804F04FFAB3E60F4804F022
:109590004BFA0F4812F010F910B90E4804F044FAD3
:1095A000FEF758FEA6E600BF6530070069300700E9
:1095B00090E3002070330700887B0700F4E300206D
:1095C000863307003B2D0700F4330700852D070085
:1095D000B4E40020E63307000B3207001032070026
:1095E0007047000002481822002105F0F1BF00BFBB
:1095F00034D600202DE9F04F994C9A4DDFF87CA22B
:10960000DFF87CB289B0204606F036F9204610EE2D
:10961000107A06F050F920468DED050A06F06AF939
:10962000914A92498DED060A284612F021FD204606
:1096300006F022F9204610EE108A06F01DF9384691
:1096400010EE106A48F008FE894B002248F05CFEDC
:1096500049F00AF907B2404648F0FEFD8046304620
:109660008946029748F0F8FD814B824E002248F06F
:109670004BFE42464B46CDE900015146284612F0CA
:10968000F7FC3146284612F0F3FC284611F0C6FEDE
:10969000204606F0F1F8204610EE108A06F0ECF8AD
:1096A00040468DED070A48F0D7FD079B029780469C
:1096B0001846894648F0D0FD6D4B002248F024FE44
:1096C0004B464246CDE900015146584612F0D0FCC7
:1096D0003146584612F0CCFC64201CF03FFB624A35
:1096E0006249284612F0C4FC204606F0E4F8204601
:1096F00010EE107A06F0DFF8059810EE10AA48F088
:10970000ABFD00225A4B48F0FFFD49F0ADF803B223
:109710003846059348F0A0FD059B029380465046CD
:10972000894648F099FD524B534FDFF858A100226B
:1097300048F0EAFD42464B46CDE90001394628464D
:1097400012F096FC3146284612F092FC284611F0A1
:1097500065FE204606F0AFF8204610EE108A06F0AF
:10976000AAF840468DED070A48F076FD059B029366
:10977000079B80461846894648F06EFD3C4B002208
:1097800048F0C2FD4B464246CDE9000139465846F5
:1097900012F06EFC3146584612F06AFC64201CF050
:1097A000DDFA314A3149284612F062FC204606F0C3
:1097B000A1F8204610EE108A06F09CF806988DED70
:1097C000050A48F049FD2A4B002248F09DFD49F06A
:1097D0004BF807B2404648F03FFD80460598029797
:1097E000894648F039FD224B002248F08DFD424663
:1097F0004B46CDE900015146284612F039FC31466E
:10980000284612F035FC284611F008FE204606F0E6
:1098100071F8204610EE105A06F06CF8284610EE4B
:10982000108A48F019FD044640460D46029748F05C
:1098300013FD0F4B002248F067FD2246CDE90001E1
:109840002B465146584612F013FC3146584612F04A
:109850000FFC642009B0BDE8F04F1CF07FBA00BFD8
:1098600034D6002090E3002002340700693007005E
:1098700000408F40887B070015340700063407003E
:10988000F4E300202434070007B573480DF1070105
:10989000312206F039F89DF8073059061BD56F4A7A
:1098A0006F49704812F0E4FB9DF807206E496D483F
:1098B00012F0DEFB6D496B4812F0DAFB694811F0DB
:1098C000ADFD69499DF80720694812F0D1FB674951
:1098D000674812F0CDFB64201CF040FA9DF8073079
:1098E0009A0617D55D4A5E495E4812F0C1FB614990
:1098F0005C4812F0BDFB5D495A4812F0B9FB59486B
:1099000011F08CFD5B495A4812F0B2FB5749584898
:1099100012F0AEFB64201CF021FA9DF80730DB0644
:1099200017D54E4A4E494F4812F0A2FB52494D48B6
:1099300012F09EFB4D494B4812F09AFB494811F03A
:109940006DFD4D494A4812F093FB4849484812F0D2
:109950008FFB64201CF002FA9DF80730180717D51A
:109960003E4A3F493F4812F083FB44493D4812F0CC
:109970007FFB3E493B4812F07BFB3A4811F04EFD1D
:109980003E493B4812F074FB3849394812F070FBED
:1099900064201CF0E3F99DF80730590717D52F4ACA
:1099A0002F49304812F064FB35492E4812F060FB15
:1099B0002E492C4812F05CFB2A4811F02FFD30494B
:1099C0002B4812F055FB2949294812F051FB64201D
:1099D0001CF0C4F99DF807309A0717D51F4A204993
:1099E000204812F045FB27491E4812F041FB1F4951
:1099F0001C4812F03DFB1B4811F010FD21491C488A
:109A000012F036FB19491A4812F032FB64201CF0A0
:109A1000A5F99DF80730DB0717D5104A1049114802
:109A200012F026FB18490F4812F022FB0F490D488F
:109A300012F01EFB0B4811F0F1FC13490C4812F018
:109A400017FB0A490A4812F013FB64201CF086F940
:109A500003B05DF804FB00BF34D6002002340700D9
:109A60006930070090E3002033340700887B07004B
:109A7000F4E300204A34070051340700573407004C
:109A80005E340700643407006B34070073B50021AF
:109A90000446112012F088FB5D4812F00DFA5D4B70
:109AA0006CB300229A800A22DA804FF481721A8104
:109AB00040F201125A81574805F0B6FF054620B31F
:109AC000554A5649564812F0D3FA5649544812F0AE
:109AD000CFFA5549524812F0CBFA514811F09EFC8A
:109AE0005049524812F0C4FA4F49504812F0C0FA97
:109AF00064201CF033F90024204602B070BD02221D
:109B00009C80DC801A815C81D5E7002C38D02A2229
:109B1000302140488DF80720012605F09FFD0822DE
:109B200032213C488DF8072005F098FD324633215C
:109B300038488DF8076005F091FD24220DF10701EA
:109B4000344805F0E1FE9DF80720324822F00C026F
:109B500042F0080224218DF8072005F07FFD6022E5
:109B600022212C488DF8072005F078FD2A46252172
:109B7000284805F073FD27483246212105F06EFD87
:109B8000002520220DF1070122488DF8075005F02D
:109B9000BBFE9DF807201F4842F0080220218DF8E7
:109BA000072005F05BFD64201CF0D8F81E220DF1A3
:109BB000070118488DF8075005F0A6FE9DF807200C
:109BC000144842F090021E218DF8072005F046FD52
:109BD00064201CF0C3F84CB1FFF756FE1449042270
:109BE000112011F0D9FBFFF705FD85E720220DF1CB
:109BF0000701084805F088FE9DF80720054802F097
:109C0000400220218DF80720012405F027FD73E78D
:109C1000ECE4002034D6002002340700693007004D
:109C200090E3002071340700887B0700F4E30020F4
:109C3000E195020010B50023012210F0010F01F19F
:109C4000FF311CBF02FA01F4234340080029F4D17C
:109C5000184610BD0D4810B5002148F205040B024E
:109C60009BB2082213F4004F02F1FF324FEA430384
:109C700018BF634012F0FF029BB2F3D10131B1F57E
:109C8000807F20F8023BEAD110BD00BF48D60020FB
:109C90002DE9F0410025DFF8388006460F462C46B6
:109CA000BD420DDA705D0821FFF7C4FF80EA14237E
:109CB000DBB2013538F8133083EA0424A4B2EFE7AD
:109CC00010212046FFF7B6FF80B2BDE8F08100BF4B
:109CD00048D6002008B50221092012F065FA06498D
:109CE0000322092011F058FB04490548012364228E
:109CF000FDF7F8FA012008BD75A2020011A30200C9
:109D000018D600202DE9F04FAC4D8FB0CDE90C23D3
:109D100012F06DFAD5E900BC0024B0EB0B0240F65E
:109D2000B83064EB0C030021904271EB0303A246B0
:109D3000A146A0462746264665DB12F058FAD5E92B
:109D40000023811A63EB430300910193DDE90023B3
:109D5000B2F5C87F73F1000360DA12F048FAD5E972
:109D60000023811A63EB430302910393DDE902347C
:109D7000B3F5C87F74F1000375DA12F038FAD5E94B
:109D80000023811A63EB430304910593DDE9043456
:109D9000B3F5167F74F1000380F2888012F027FA81
:109DA000D5E90023811A63EB430306910793DDE9AC
:109DB0000634B3F5487F74F1000380F29D8012F001
:109DC00016FAD5E90023811A63EB4303089109933E
:109DD000DDE90834B3F5966F74F1000380F2AF80CB
:109DE00012F005FAD5E90023811A63EB43030A91C7
:109DF0000B93DDE90A34B3F5AF6F74F1000380F221
:109E0000BF80072474E0092012F0EAF9002894D1F9
:109E10006B4B1B78002B90D0022469E0684B1B78B9
:109E2000012B9AD1092012F0DBF9012895D14FF0CE
:109E3000000BC82C11D0092012F0D2F9012808BF5C
:109E40000BF1010B4FF0010004F1010408BF5FFAB0
:109E50008BFBE4B21BF082FFEBE7BBF1C60F7FF692
:109E60007CAF002444E0564B1B78022B85D109209F
:109E700012F0B6F9012880D10024BAF1C80F10D031
:109E8000092012F0ADF9012808BF01344FF001009C
:109E90000AF1010A08BFE4B25FFA8AFA1BF05EFF1A
:109EA000EBE7C62C7FF669AF012421E0444B1B7819
:109EB000032BDCB27FF472AF4FF0000AB9F1C80F88
:109EC00012D0092012F08CF9012808BF0AF1010A0A
:109ED0004FF0010009F1010908BF5FFA8AFA5FFA41
:109EE00089F91BF03BFFE9E7BAF1C60F7FF656AFE1
:109EF00020460FB0BDE8F08F314B1B78042BDCB24D
:109F00007FF45DAF4FF00009B8F1C80F12D00920FF
:109F100012F066F9012808BF09F101094FF00100AC
:109F200008F1010808BF5FFA89F95FFA88F81BF0A9
:109F300015FFE9E7B9F1C60F7FF641AFD8E7204B2F
:109F40001B78052BDCB27FF44BAF4FF00008C82F15
:109F500011D0092012F044F9012808BF08F10108C6
:109F60004FF0010007F1010708BF5FFA88F8FFB260
:109F70001BF0F4FEEBE7B8F1C60F7FF631AFB7E7A1
:109F80000F4B1B78062BDCB27FF43BAF0025C82EAD
:109F90000FD0092012F024F9012808BF01354FF035
:109FA000010006F1010608BFEDB2F6B21BF0D6FEC5
:109FB000EDE7C62D7FF625AF9AE700BF50D8002009
:109FC00059D8002073B5894D894C6A7A637A9A42D0
:109FD00031D003F087FD0021864804F045FA6B6814
:109FE00063606B7A844863726B89638103F01CFD44
:109FF000824803F019FD03F0ABFD01F075FF40F658
:10A00000B8301BF0ABFE637A7D48012B4FF00001A6
:10A010004FF0320640F09A8011F0C1FA00227948E0
:10A0200000960A23114611F012FB774811F0F1FA5D
:10A03000764811F007FDEA7AE37A9A4206D06B7A05
:10A04000022B0CBF0120002002F028FE6A68636822
:10A050009A4203D16A8963899A4213D003F042FD80
:10A06000654803F0E1FC654803F0DEFC03F070FD99
:10A070006B6863606B89638101F036FF40F6B8302E
:10A080001BF06CFE624811F00DFC00286BD061489B
:10A0900011F094FB604B1978884205D000395D4877
:10A0A00018BF012111F08CFB5C4811F099FB5C4B4F
:10A0B0001978884202D0594811F094FB594811F0A0
:10A0C000A1FB594B1978884202D0564811F09CFBED
:10A0D000564D57482E7811F0A7FB86420BD02978B1
:10A0E000534811F0ADFB32230122009345480A2367
:10A0F000114611F0ACFA03F0F5FC637A012B6FD036
:10A10000022B6FD013B94B4803F08EFC4FF47A73D7
:10A1100062684949B2FBF3F248480EF03DFC4748FB
:10A1200003F082FC626822B100234548194611F011
:10A13000C0FCA37A002B57D0414800234EF6602282
:10A14000022102B0BDE8704011F0B3BC11F027FA53
:10A15000012200960A2311462A4811F078FA2C4869
:10A1600011F0A4FB64E7374D3748296811F0D1F9A5
:10A17000354811F0CCF92968884202D0324811F0F4
:10A18000C8F9324811F0D4F9314B1978884202D01D
:10A190002E4811F0CFF92F4D2F482E7811F0D9F914
:10A1A000864203D029782C4811F0D5F92B4811F0BC
:10A1B000E1F92B4B1978884202D0284811F0DCF9DC
:10A1C000284811F0EAF9284B1978884202D025482E
:10A1D00011F0F4F94FF6FD71094811F0E0F98AE742
:10A1E000224891E722488FE702B070BDCCA1002041
:10A1F000FCA200209234070099340700A93407001C
:10A20000CEE40020A9E40020E4E4002008E40020DB
:10A21000CDE40020B5E400205BD80020B8E40020A5
:10A220005DD80020C0E400205ED800205CD800206B
:10A23000CAE40020762D0700972D070013D50020D3
:10A2400071E4002068D80020D9E40020DAE400207E
:10A250006CD8002063D80020DBE40020DCE4002080
:10A2600064D80020DEE400206DD800203B2D0700DC
:10A27000852D0700F8B511F0BAFF1C4D1C4B1D4C85
:10A280000021C3E9000111F0B2FFD5E90032C61A7E
:10A2900062EB4207C92E77F1000308DB11F0A7FF3C
:10A2A00000236B60237828600133DBB22370124AED
:10A2B0001249134811F0DCFE22781249104811F0BF
:10A2C000D7FE11490E4811F0D3FE0D4811F0A6F843
:10A2D00022780C490D4811F0CBFE0B490B4811F0C8
:10A2E000C7FEBDE8F84064201BF038BD48D8002008
:10A2F00050D8002059D80020BA3407006930070030
:10A3000090E30020BE340700887B0700F4E30020C0
:10A31000F7B5FFF7F7FC062800F2EC86DFE810F04F
:10A320004206D6030700CD01DD00740035009B4BCB
:10A330009B4A00241C709B4B00200021C3E90001B4
:10A3400099499A4811F094FE9949984811F090FE65
:10A350009849964811F08CFE944811F05FF89449A2
:10A36000954811F085FE9349934811F081FE6420D1
:10A370001BF0F4FC914B1B782BB1204603B0BDE8D9
:10A38000F04003F0EDBB0120F8E7844B00221A7087
:10A39000844B00200021C3E90001894B1B78002B6E
:10A3A00000F0A886874C2378052B0DD1864B874873
:10A3B000D97A1022227001919B7A00938449854BAF
:10A3C00009781B7803F0F4FB754A7749774811F058
:10A3D0004FFE22788049754811F04AFE754973484E
:10A3E00011F046FE714811F019F822787A49724846
:10A3F00011F03EFE6F49704811F03AFE642003B040
:10A40000BDE8F0401BF0AABC644B00221A70654BFB
:10A4100000200021C3E90001694B1C78002C51D0B9
:10A42000684C2378042B33D0052B41D08BB96B4873
:10A4300011F038FA0128644B1FD1D97A68480422F8
:10A44000227001919B7A674900930978FF2303F0FA
:10A45000AFFB534A5449554811F00AFE227862492D
:10A46000524811F005FE5349504811F001FE4F4883
:10A4700010F0D4FF22785C49B9E7D97A5B4805220D
:10A48000227001919B7A5A4900930978FF23DEE7F5
:10A4900007235848237011F0C7F94B4AD37A019328
:10A4A000937A00932278C3B2494948480978CEE7A5
:10A4B000454B0E22D97A227001919B7A00934E4B24
:10A4C0001B78F1E703F00EFB4C48214603F0CCFF6C
:10A4D00003B0BDE8F0401BF058BC304B00221A70AE
:10A4E000304B00200021C3E90001354B1C78002CC3
:10A4F00000F0D780334C2378062B23D8DFE813F005
:10A5000007001500360044008E00BF00C9002E4928
:10A5100003224B7AC87A22700190897A0091023323
:10A52000DBB23749374809780AE0274B3648D97AF1
:10A530000022227001919B7A344900930978FF230D
:10A5400003F036FB164A1849184811F091FD22789D
:10A550002F49164811F08CFD1649144811F088FD5A
:10A56000124810F05BFF2278294940E7164A294932
:10A57000937A294883F001039372D27ACDE90032AD
:10A58000FF2309780222DBE70F4B02225A72DA7AA4
:10A5900001929B7A009303220423C2E759D800203A
:10A5A000BA34070050D800206930070090E300203B
:10A5B000CE340700887B0700F4E30020ACA4002021
:10A5C00058D800205AD80020CCA10020C4A10020D7
:10A5D000C8A100206DD80020D8340700CDE40020A9
:10A5E0009CA20020B0A20020E9340700C8A20020ED
:10A5F000E0A20020CAE4002064D80020FA3407005A
:10A6000070A2002060A20020E4A20020F8A2002096
:10A6100005350700C4A20020B4A200200A23844804
:10A62000237011F001F9C0B20C280ED8DFE800F059
:10A63000071B1B211B21211B1B1B1B1B21007D4BEF
:10A6400000221A707C4B05221A707C4A7C4BD17A0E
:10A650001B780191927A00920A332278DBB2794911
:10A66000794809786CE7734B00221A70724B072205
:10A67000EAE7704B00221A706F4B0A22E4E76F4B37
:10A680000D22D97A227001919B7A00936F4B1B782F
:10A69000E5E76A4BDA7A01929B7A0093062200235F
:10A6A000DDE703F01FFA6A48214603F0DDFE694842
:10A6B00003B0BDE8F04011F0C5B9674B00221A7035
:10A6C000664B00240025C3E90045654B1B78002B31
:10A6D00000F08981634C2278102A2BD8DFE812F031
:10A6E00011001D003E004900560087009400E00064
:10A6F0002A000C011F0134014601560165012A00A0
:10A7000073014E4B0222D97A227001919B7A0093F9
:10A71000FF235549554809780AE0484B5448D97AEF
:10A720000022227001919B7A524900930978FF23FD
:10A7300003F03EFA504A5149514811F099FC2278F1
:10A7400050494F4811F094FC4F494D4811F090FC8E
:10A750004B4810F063FE22784A4948E6374AD37ADC
:10A7600083F00103D3720193937A00930222FF23B3
:10A77000CFE7324B4549464801225A72DA7A0192B4
:10A780009B7A0093032309781A46D1E709232848C6
:10A79000237011F049F8C0B20C2814D8DFE800F09B
:10A7A00007070707070D1E07242424241E00394B22
:10A7B00000221A70384B052204E0364B00221A7032
:10A7C000354B04221A701D4A1D4BD17A1B7801911A
:10A7D000927A00920A33DBB2227811E02D4B0022EC
:10A7E0001A702D4B0622EDE72A4B0222E1E7134BAC
:10A7F0000C22D97A227001919B7A0093274B1B7807
:10A8000010491148097893E70C4B5A6842B142F25B
:10A810000F718A428ABFA2F51C520022103A5A6078
:10A82000DA7A01929B7A00930622FF23E8E700BFC1
:10A83000CAE4002062D8002060D80020CCA100200B
:10A840005DD80020C8A10020C4A1002063D800204A
:10A850001635070008E4002059D8002050D8002001
:10A8600058D800205AD80020C4A20020B4A200204A
:10A87000E4A20020F8A20020BA34070069300700E3
:10A8800090E3002026350700887B070070A2002097
:10A8900060A2002061D800205FD800206CD8002082
:10A8A0006F4D2B7833B3013BDBB26E4A6E496F4874
:10A8B0002B7011F0DDFB2A786D496C4811F0D8FB44
:10A8C0006C496A4811F0D4FB684810F0A7FD2A785B
:10A8D0006749694811F0CCFB6649674811F0C8FB2D
:10A8E00064201BF03BFA654BDA7A01929B7A009365
:10A8F0002B7871E70C23D8E7614A6249137809780D
:10A9000099420BBF604B03F1FF331B78DBB213702E
:10A910005A4AD17A0191927A0092092270E75B4AF1
:10A920005B491378097899420BBF5A4B03F1FF3307
:10A930001B78DBB21370514BDA7A01929B7A009349
:10A940004F4B0A221B785BE7534A54491368A3F51F
:10A95000C333A03B8B4298BF514B1360474BDA7A0D
:10A9600001929B7A00930B22FF2349E74D490B7814
:10A97000062B1CBF03F1FF33DAB2404B0A70D97AC1
:10A9800001919B7A009313460C2239E7464A1378CB
:10A990004BB1013BDBB21370384AD17A0191927A04
:10A9A00000920D222CE70923F5E7404A117809B1FE
:10A9B000481EC0B21070314AD37A0193937A009343
:10A9C0000E2203461CE73A4A1378052B1ABF03F1FF
:10A9D000FF33DBB216231370284AD17A0191927AA1
:10A9E000009210220CE7334B1B78002B40F082833F
:10A9F000314B1B7813B9012003F0B2F8194A1A49F8
:10AA00001A4811F035FB2D49184811F031FB19494E
:10AA1000164811F02DFB154810F000FD2749164887
:10AA200011F026FB1349144811F022FB64201BF09F
:10AA300095F90021224811F046F8224B012200200E
:10AA40001A70FDF783FC204B5A68002A00F05283ED
:10AA500000231B48194603B0BDE8F04011F029B8A7
:10AA60005CD80020BA3407006930070090E300206A
:10AA70001C350700887B0700F4E30020CCA10020F0
:10AA80005DD8002061D800205FD800205ED800206B
:10AA900062D8002060D8002068D800207F47A11924
:10AAA0008047A1196CD8002063D8002064D800200A
:10AAB0006DD800202DD60020ACA40020373507002B
:10AAC00071E4002001D50020FCA20020AE4BAF4D68
:10AAD000AF4C00221A70AF4B00210020C3E90001E7
:10AAE0002978002940F0F080AB4810F0ECFF0121FC
:10AAF000A94810F0E8FFA848022110F0E4FFA74B96
:10AB00001B7813B9012003F02BF80123A44A2B7002
:10AB100000232370A34B51685960517A52895A819E
:10AB2000A148597210F0BEFE0546A04AA049A148AE
:10AB3000002D48D011F09CFA9F499E4811F098FAD8
:10AB40009E499C4811F094FA9A4810F067FC9A4983
:10AB50009B4811F08DFA9949994811F089FA6420BF
:10AB60001BF0FCF8974810F03BFE974B1870974885
:10AB700010F05AFE964B1870964810F01FFE964B38
:10AB80001870964810F03EFE954B18700023CDE9E2
:10AB90000033227893499448097803F009F8834AEE
:10ABA0008349844811F064FA22789049814811F071
:10ABB0005FFA82497F4811F05BFA7E4810F02EFC64
:10ABC00022788A4913E411F053FA7B49794811F04D
:10ABD0004FFA7A49774811F04BFA764810F01EFC8C
:10ABE0007549774811F044FA7449754811F040FAF4
:10ABF00064201BF0B3F829467D487E4D10F0CFFC51
:10AC00007D4810F084FC28607C4810F091FC7C4B5F
:10AC100018707C4810F09DFC7B4B18707B4810F03E
:10AC2000A9FC7B4B18707B4810F0B7FC7A4B5F4A4D
:10AC300018705F495F4811F01BFA286847F0FAFA6C
:10AC40004FA3D3E9002347F089FC06466A480F4624
:10AC500010F05DFC47F0EEFA49A3D3E9002347F07A
:10AC60007DFC32463B46CDE900016C49514811F06C
:10AC7000FFF952494F4811F0FBF94E4810F0CEFB56
:10AC8000286847F0D7FA3EA3D3E9002347F066FCD3
:10AC9000064659480F4610F03AFC47F0CBFA38A365
:10ACA000D3E9002347F05AFC3246CDE900013B4688
:10ACB0005A49434811F0DCF94049414811F0D8F9AC
:10ACC00064201BF04BF861E72378102B3FF667AF49
:10ACD00001A252F823F000BF1DAD02002FAD02000B
:10ACE00041AD020045AD02005FAD02007DAD020046
:10ACF0008BAF020031AE02008BAE0200A7AE0200A5
:10AD0000CBAE0200EFAE020013AF020031AF020083
:10AD10004FAF02009FAB02006DAF02000122214B3A
:10AD20002270D97A01919B7A0093FF2322E01D4B78
:10AD30000022D97A227001919B7A0093FF2329E7A0
:10AD40000622ECE7174B3649364800225A72DA7A67
:10AD500001929B7A00930978022303221DE711498F
:10AD60001D4BC87A1B78082222700190897A0091C5
:10AD70000A33DBB22C492D4809780EE70B22CEE7C7
:10AD80000000000084D7974159D8002058D80020EF
:10AD90005AD8002050D8002071E40020ACA4002034
:10ADA000FCA20020CCA10020CDE40020BA34070092
:10ADB0006930070090E300204D350700887B0700CD
:10ADC000F4E30020B8E400205DD80020CAE40020AD
:10ADD0005CD80020B5E400205BD80020C0E400204F
:10ADE0005ED80020F8A20020E4A200207035070001
:10ADF000CEE4002068D80020D9E40020DAE4002066
:10AE00006CD80020DBE4002063D80020DCE40020C4
:10AE100064D80020DEE400206DD8002062350700F1
:10AE200070A2002060A20020C8A10020C4A10020C0
:10AE30008A4D8B4A2B788B498B480C2B1ABF0133D8
:10AE4000DBB200232B7011F013F92A78874986486A
:10AE500011F00EF98649844811F00AF9824810F081
:10AE6000DDFA2A788149834811F002F98049814846
:10AE700011F0FEF864201AF071FF7F4BDA7A01922C
:10AE80009B7A00932B78227874E77C4A1378B3FA84
:10AE900083F35B091370784AD17A0191927A009218
:10AEA0000A33082266E7764A764913780978994288
:10AEB0000BBF754B01331B78DBB213706E4AD17A2E
:10AEC0000191927A0092092254E7704A70491378EE
:10AED000097899420BBF6F4B01331B78DBB21370BB
:10AEE000654AD17A0191927A00920A2242E76A4A2F
:10AEF0006A49136803F5C333A0338B4294BF1360D0
:10AF000011605D4BDA7A01929B7A00930B22FF234A
:10AF100030E7634A13780C2B1ABF0133DBB20623E8
:10AF20001370554AD17A0191927A00920C2221E74E
:10AF30005C4A1378092B1ABF0133DBB2002313706C
:10AF40004D4AD17A0191927A00920D2212E7564A27
:10AF50001378032B1ABF0133DBB200231370464A68
:10AF6000D17A0191927A00920E2203E74F4A137828
:10AF7000162B1ABF0133DBB2052313703E4AD17A78
:10AF80000191927A00921022F4E63B4A536803F54D
:10AF90001C5310335360D37A0193937A00930622A3
:10AFA0000023E7E6424B00221A70424B00200021AA
:10AFB000C3E90001404B1A78002A00F09B803F4C07
:10AFC0002278102A0ED8DFE802F00922222222225B
:10AFD00089303030303C3C3C3C0D3C0000221A7043
:10AFE000FEF7F0FF1E4A1F491F4811F041F8227872
:10AFF00033491D4811F03CF81D491B4811F038F841
:10B00000194810F00BFA22782D49FFF7F0B91A4BC6
:10B010002C48D97A0022227001919B7A2A49009308
:10B020000978FF2302F0C4FDDCE7134B2748D97AE7
:10B030000422227001919B7A254900930978FF230D
:10B04000F0E70D4B2348D97A0522227001919B7AB3
:10B05000214900930978FF23E4E700BF5CD8002072
:10B06000BA3407006930070090E300201C35070060
:10B07000887B0700F4E30020CCA100205BD80020EF
:10B080005DD800205FD8002061D800205ED8002065
:10B0900060D8002062D8002068D8002000703839BD
:10B0A0006CD8002063D8002064D800206DD8002020
:10B0B00059D8002050D8002058D800205AD8002055
:10B0C00081350700E4A20020F8A200209CA2002005
:10B0D000B0A20020C8A20020E0A20020064B074832
:10B0E000D97A0222227001919B7A0549009309784E
:10B0F000FF2397E703B0F0BDCCA10020B4A200204D
:10B10000C4A2002070B598B014460A490EA810F0E9
:10B1100029FE0023CDE91433CDE91633636E012BEC
:10B120000CD1054920680DF064FC48B1022400F000
:10B13000EDBC00BF844C0700099B0700002BF5D134
:10B14000B649B748B74CB84DB84E10F091FFB84962
:10B15000B34810F08DFFB149B64810F089FFB449EB
:10B16000B44810F085FF64201AF0F8FD637AB24904
:10B1700055F82320AA4810F07BFFAD49A84810F0ED
:10B1800077FF637AAC4955F82320AA4810F070FF86
:10B19000A749A84810F06CFF64201AF0DFFDA7490A
:10B1A00011A810F039FC11A90EA810F0EEFD11A89D
:10B1B00010F092FD0EA810F02BFE0E9AA0499848B0
:10B1C00010F056FF9A49964810F052FF0E9A9C498B
:10B1D000984810F04DFF9649964810F049FF6420BA
:10B1E0001AF0BCFD974911A810F0F6FB119A964988
:10B1F0008B4810F03DFF11A810F06EFD8C49884877
:10B2000010F036FF8F4911A810F0E6FB119A8E4915
:10B21000884810F02DFF11A810F05EFD8449854884
:10B2200010F026FF64201AF099FD4FF47A756268D9
:10B230008649B2FBF5F27A4810F01AFF7C4978484B
:10B2400010F016FF62688149B2FBF5F2794810F000
:10B250000FFF7749774810F00BFF64201AF07EFD4E
:10B260007B4810F01FFB7B4956F8202005466C48B0
:10B2700010F0FEFE6E496A4810F0FAFE56F82520DE
:10B2800074496C4810F0F4FE69496A4810F0F0FE09
:10B2900064201AF063FD012D40F04E836E486F4E1E
:10B2A0006F4D10F089FA6F49002814BF32462A46C4
:10B2B0005B4810F0DDFE5E49594810F0D9FE664843
:10B2C00010F07AFA6749002814BF32462A465948D6
:10B2D000654E10F0CDFE5649564810F0C9FE642068
:10B2E0001AF03CFD614810F09FFA6149054602469C
:10B2F0004B4810F0BDFE4E49494810F0B9FE2A46B1
:10B300005B494C4810F0B4FE49494A4810F0B0FE81
:10B3100064201AF023FD56F825205649404810F0C5
:10B32000A7FE43493E4810F0A3FE56F82520514998
:10B33000404810F09DFE3E493E4810F099FE6420C2
:10B340001AF00CFD4C4810F030FA002800F0BE81D5
:10B350004A49334810F08CFE3549314810F088FED8
:10B360004649344810F084FE3149324810F080FEDE
:10B3700064201AF0F3FC082214A9414810F0F4F9F3
:10B380009DF8573005939DF8563004939DF855303D
:10B3900003939DF8543002939DF8533001939DF828
:10B3A00052309DF85020374900931D489DF8513088
:10B3B00010F05EFE1E491A4810F05AFE9DF85730F4
:10B3C00005939DF8563004939DF8553003939DF8EE
:10B3D000543002939DF8533001939DF852309DF8FC
:10B3E00050202849009313489DF8513010F040FE3A
:10B3F0000F49104810F03CFE64201AF0AFFC082200
:10B4000014A9214810F08CF99DF8573005939DF848
:10B41000563004939DF8553038E000BFFC350700E6
:10B4200090E30020FCA20020D0A30020C4A30020B1
:10B43000887B0700F4E300200B36070048E4002077
:10B44000193607000CE40020356907002436070090
:10B45000CDE4002034360700B4E400207D780700F6
:10B46000EE3507004436070090A30020CAE4002010
:10B470004F3607005A360700B3E400206536070050
:10B48000AEE400206F360700AAE4002003939DF885
:10B49000543002939DF8533001939DF852309DF83B
:10B4A00050207D4900937D489DF8513010F0E0FD1B
:10B4B0007B497A4810F0DCFD9DF8573005939DF8E4
:10B4C000563004939DF8553003939DF85430029301
:10B4D0009DF8533001939DF852309DF850206E49ED
:10B4E000009370489DF8513010F0C2FD6C496D48D2
:10B4F00010F0BEFD64201AF031FC102214A96A4835
:10B5000010F017F99DF85F300D939DF85E300C93A5
:10B510009DF85D300B939DF85C300A939DF85B308D
:10B5200009939DF85A3008939DF8593007939DF878
:10B53000583006939DF8573005939DF85630049384
:10B540009DF8553003939DF8543002939DF8533085
:10B5500001939DF852309DF85020544900934F4874
:10B560009DF8513010F084FD4D494C4810F080FD9D
:10B570009DF85F300D939DF85E300C939DF85D3023
:10B580000B939DF85C300A939DF85B3009939DF80E
:10B590005A3008939DF8593007939DF85830069318
:10B5A0009DF8573005939DF8563004939DF855301B
:10B5B00003939DF8543002939DF8533001939DF806
:10B5C000523000939DF850209DF85130374935484E
:10B5D00010F04EFD32493348354E364D10F048FDDF
:10B5E00064201AF0BBFB34492C4810F041FD2C4973
:10B5F0002A4810F03DFD30492A4810F039FD28490D
:10B60000284810F035FD64201AF0A8FB627A2B4917
:10B61000224810F02DFD2249204810F029FD627AC1
:10B620002649204810F024FD1D491E4810F020FD39
:10B6300064201AF093FBA27A21491848002A14BF0B
:10B6400032462A4610F014FD1549144810F010FD3A
:10B65000A27A1B491348002A14BF32462A4610F02A
:10B6600007FD0F490F48174E10F002FD64201AF035
:10B6700075FB15481AF08AFE0025B4F88E20EBB24F
:10B68000934205F1010580F23D8223443046197B47
:10B690001AF07CFEF1E700BF9736070090E3002028
:10B6A000887B0700F4E30020ABE40020BF360700EE
:10B6B000F9350700B6340700203807003038070096
:10B6C0003E380700C3BC07004F3807009049914837
:10B6D00010F0CEFC90498F4810F0CAFC8C498F487E
:10B6E00010F0C6FC8C498D4810F0C2FC64201AF0A2
:10B6F00035FB14A910228A4810F024F89DF85F3019
:10B700000D939DF85E300C939DF85D300B939DF882
:10B710005C300A939DF85B3009939DF85A3008938A
:10B720009DF8593007939DF8583006939DF857308F
:10B7300005939DF8563004939DF8553003939DF87A
:10B74000543002939DF8533001939DF852309DF888
:10B750005020009373499DF851306E4810F088FCDA
:10B760006D496C4810F084FC9DF85F300D939DF896
:10B770005E300C939DF85D300B939DF85C300A931E
:10B780009DF85B3009939DF85A3008939DF8593025
:10B7900007939DF8583006939DF8573005939DF810
:10B7A000563004939DF8553003939DF8543002931E
:10B7B0009DF8533001939DF852309DF8502000932E
:10B7C00058499DF85130554810F052FC52495348A1
:10B7D00010F04EFC64201AF0C1FA14A9102252484D
:10B7E0000FF0CBFF9DF85F300D939DF85E300C930A
:10B7F0009DF85D300B939DF85C300A939DF85B30AB
:10B8000009939DF85A3008939DF8593007939DF895
:10B81000583006939DF8573005939DF856300493A1
:10B820009DF8553003939DF8543002939DF85330A2
:10B8300001939DF852309DF8502000933B499DF8AC
:10B840005130344810F014FC3349324810F010FCE9
:10B850009DF85F300D939DF85E300C939DF85D3040
:10B860000B939DF85C300A939DF85B3009939DF82B
:10B870005A3008939DF8593007939DF85830069335
:10B880009DF8573005939DF8563004939DF8553038
:10B8900003939DF8543002939DF8533001939DF823
:10B8A00052309DF85020009320499DF851301B489C
:10B8B00010F0DEFB1849194810F0DAFB64201AF08A
:10B8C0004DFA14A904221A480FF045FF9DF8533091
:10B8D00001939DF852309DF85020009315499DF832
:10B8E00051300C4810F0C4FB0B490A4810F0C0FB63
:10B8F0009DF8533001939DF8523000939DF85020ED
:10B900009DF851300B49054810F0B2FB62E600BFCC
:10B910000737070090E30020887B0700F4E300204E
:10B92000ACE4002010370700B0E4002059370700CE
:10B93000ADE40020A23707007748002D40F09B803F
:10B940000FF0E5FD75490246754810F091FB754909
:10B95000734810F08DFB70480FF0D9FD6F49024617
:10B96000714810F085FB6F496F4810F081FB64202F
:10B970001AF0F4F96D480FF0DBFD6D490246684896
:10B9800010F076FB6749664810F072FB67480FF0CD
:10B99000CFFD67490246644810F06AFB614962487E
:10B9A00010F066FB64201AF0D9F962480FF0D1FD5F
:10B9B000614902465A4810F05BFB5A49584810F05A
:10B9C00057FB5C480FF0C5FD5B490246564810F036
:10B9D0004FFB5449544810F04BFB64201AF0BEF959
:10B9E00056480FF0C7FD564902464D4810F040FB3F
:10B9F0004C494B4810F03CFB50480FF0BBFD504900
:10BA00000246494810F034FB4649474810F030FBE5
:10BA100064201AF0A3F94B480FF0BDFD4A490246D5
:10BA20003F4810F025FB3F493D4810F021FB4548B9
:10BA30000FF0B1FD444902463B4810F019FB39496B
:10BA4000394810F015FB64201AF088F93F480FF0D0
:10BA5000A4FD3F490246324810F00AFB3149304804
:10BA600010F006FB39480FF098FD394902462E4880
:10BA700010F0FEFAAEE50FF04AFD284902462848CC
:10BA800010F0F6FA2749264810F0F2FA22480FF093
:10BA90003EFD22490246244810F0EAFA2149224894
:10BAA00010F0E6FA64201AF059F92A480FF0A9FDBF
:10BAB000294902461A4810F0DBFA1A49184810F0D2
:10BAC000D7FA24480FF09DFD23490246164810F08E
:10BAD000CFFA1449144810F0CBFA64201AF03EF95A
:10BAE0001E480FF090FD1E4902460D4810F0C0FAA6
:10BAF0000C490B4810F0BCFA18480FF084FD1849A7
:10BB00000246B4E707481AF041FC00240EA810F0E2
:10BB1000E3F8204618B070BDD9E40020BB37070019
:10BB200090E30020887B0700F4E30020DAE40020A3
:10BB3000CA370700DBE40020D2370700DCE400202E
:10BB4000DA370700DDE40020E2370700DEE40020FA
:10BB5000F7370700E2E4002005380700E3E400209F
:10BB6000123807002DE9FF41536E012B0D46144694
:10BB700024D1394910680CF03CFF044620B102245E
:10BB8000204604B0BDE8F08102F0A4FD2946334808
:10BB900010F03AFA3249314810F024FA314A324969
:10BBA000D379039393790293537901931379009393
:10BBB00093782A48128810F05BFAE1E7052BDED172
:10BBC000161F02F1100756F8045F28460CF023FFF9
:10BBD0002B462844984205D013F8012B303A092A05
:10BBE000F8D9CCE7BE42EED10022114620680DF014
:10BBF0007FF840F2D233A0F2E6729A420546BED8F0
:10BC00000022606811460DF073F8431E0B2B0646A8
:10BC1000B5D80022A06811460DF06AF8431E1E2B0D
:10BC20000746ACD80022E06811460DF061F81828EC
:10BC30008046A4D80022206911460DF059F83B280F
:10BC40009DD8C2B200925FFA88F3FAB2F1B2A8B2FC
:10BC500002F0FAFC002493E7099B070090E3002020
:10BC6000BB4F07002CDB00206038070007B503231B
:10BC70000193054B0093054B054A064819460FF002
:10BC8000ECFE03B05DF804FB85C102007B380700C1
:10BC9000833807006EE4002007B503230193054BAA
:10BCA0000093054B054A064819460FF0D6FE03B02F
:10BCB0005DF804FB4DC30200D6380700DB380700EF
:10BCC0006EE4002007B503230193054B0093054B59
:10BCD000054A064819460FF0C0FE03B05DF804FBA4
:10BCE000A1C50200263907002B3907006EE40020A9
:10BCF00007B503230193054B0093054B054A0648FE
:10BD000019460FF0AAFE03B05DF804FB75BD0200F2
:10BD100052390700573907006EE4002007B50323A6
:10BD20000193054B0093054B054A064819460FF051
:10BD300094FE03B05DF804FB65BB02006D3907009B
:10BD4000713907006EE4002007B502230193054B0B
:10BD50000093054B054A064819460FF07EFE03B0D6
:10BD60005DF804FB05B10200983907009F39070010
:10BD70006EE400204C4B1B7870B5E3B94B4A4C493C
:10BD80004C4810F075F94C494A4810F071F94B498C
:10BD9000484810F06DF947480FF040FB46494848C5
:10BDA00010F066F94549464810F062F9642019F030
:10BDB000D5FF02244FE0556E012DFAD11668414996
:10BDC00030460CF016FE0446002846D13B4939485F
:10BDD00010F04EF93949374810F04AF937493848D8
:10BDE00010F046F93549364810F042F9642019F050
:10BDF000B5FF214634480FF066FE294632480FF061
:10BE000062FE022130480FF05EFE01F06BFE21461B
:10BE10002E4802F029FB2E4801F006FE2D4801F0C5
:10BE200003FE01F095FE03F033FA2449214810F097
:10BE30001FF922491F4810F01BF92049204810F033
:10BE400017F91E491E4810F013F9642019F086FFF7
:10BE500021480FF0F7FD204670BD204930460CF018
:10BE6000C8FD04460028A4D11D4B014616481D708C
:10BE70000FF029FE294614480FF025FE0221124832
:10BE80000FF021FE01F02EFE2146104802F0ECFAE0
:10BE9000144801F0C9FD0F4801F0C6FD01F058FE3D
:10BEA00002F050FED4E700BF0ED50020B6390700DF
:10BEB0006930070090E30020BD390700887B070048
:10BEC000F4E30020099B070071E40020923407008E
:10BED000D1390700A934070008E4002009810700D0
:10BEE00058D80020E139070030B5944CE7B06068BD
:10BEF0009421FDF7CDFE924A92490546924810F0F2
:10BF0000B7F82A469149904810F0B2F890498E4807
:10BF100010F0AEF88C480FF081FA2A468B498D4814
:10BF200010F0A6F88A498B4810F0A2F8642019F0A6
:10BF300015FF8949942268460BF0C0FFADF8005008
:10BF4000B4F88E50636801932A46A368029304F103
:10BF50000C0103A80BF0B2FF794A7A497A48ADF890
:10BF60008E5010F085F8019A7C4977487C4D7D4CC5
:10BF700010F07EF87649744810F07AF872480FF0A5
:10BF80004DFA019A7549734810F072F8704971487A
:10BF900010F06EF8642019F0E1FE694A69496A48B8
:10BFA00010F066F89DF809206F49674810F060F8B6
:10BFB0006749654810F05CF863480FF02FFA9DF868
:10BFC00009206949634810F053F86149614810F04D
:10BFD0004FF8642019F0C2FE594A5A495A4810F0E5
:10BFE00047F89DF80A2061495748002A14BF2A469D
:10BFF000224610F03DF85649534810F039F852489F
:10C000000FF00CFA9DF80A2058495248002A14BF34
:10C010002A46224610F02CF84D494E4810F028F8D8
:10C02000642019F09BFE464A4649474810F020F824
:10C030009DF80B204E494448002A14BF2A46224648
:10C0400010F016F84249404810F012F83E480FF040
:10C05000E5F99DF80B2046493E48002A14BF2A46C0
:10C06000224610F005F83A493A48424D10F000F8DF
:10C070000024642019F072FEFE22214626A8259491
:10C080000BF02AFFBDF88E30E0B2984204F10104B3
:10C0900009DA0DEB000329461A7B25AB03EB4000C0
:10C0A0000CF07AFCEEE7264A264927480FF0E0FF1D
:10C0B00025AA314924480FF0DBFF254922480FF01B
:10C0C000D7FF21480FF0AAF925AA2B4921480FF0E4
:10C0D000CFFF1F491F480FF0CBFF642019F03EFE31
:10C0E000174A184918480FF0C3FFBDF88E2023499E
:10C0F00015480FF0BDFF164913480FF0B9FF12485D
:10C100000FF08CF9BDF88E201C4912480FF0B0FFDB
:10C110000F4910480FF0ACFF642019F01FFE1848BB
:10C1200094236A4600210FF0B0FC28B901469423FD
:10C1300013486A460FF0A9FC67B030BDFCA200208E
:10C14000B63907006930070090E30020F539070091
:10C15000887B0700F4E30020143D0700093A07003C
:10C16000F9350700F1390700273A07003D3A070083
:10C17000563A0700C3BC0700703A0700893A070027
:10C180006FE40020F8B5536E012B0E4615466AD1B8
:10C19000614910680CF02DFC0446F8B95F4F604906
:10C1A0007B68604832464FF47A75B3FBF5F30FF0C5
:10C1B0005FFF5D495B480FF05BFF7B685849B3FB4D
:10C1C000F5F3324659480FF053FF574957480FF0DF
:10C1D0004FFF642019F0C2FD2046F8BD544A55496E
:10C1E00050480FF045FF2A6853494E480FF040FF72
:10C1F0004D494C480FF03CFF4A480FF00FF92A68B0
:10C200004D494A480FF034FF474948480FF030FF86
:10C21000642019F0A3FD2D6828460CF0FCFB0024D7
:10C22000844224D02B5D303B092B1ED9404A414922
:10C230003C480FF01DFF224640493A480FF018FFD6
:10C24000394938480FF014FF36480FF0E7F83B49FA
:10C25000364822460FF00CFF334934480FF008FFF0
:10C26000642019F07BFD0224B6E70134D8E70A22E6
:10C27000002128460CF03CFD2D4A2E49274D04464E
:10C2800028480FF0F5FE22462D4926480FF0F0FE13
:10C29000254924480FF0ECFE22480FF0BFF8224653
:10C2A000274922480FF0E4FE1F4920480FF0E0FE26
:10C2B000642019F053FD4FF47A701D4A1D49444320
:10C2C00018486C600FF0D4FE6A681E4915480FF0DC
:10C2D000CFFE154913480FF0CBFE12480FF09EF821
:10C2E0006A68184911480FF0C3FE0F490F480FF054
:10C2F000BFFE642019F032FD134800210FF0E3FB6C
:10C300006A6822B10023104819460FF0D2FBFFF7EC
:10C31000EBFD002460E700BF099B0700FCA20020A2
:10C32000A63A070090E30020887B0700F4E3002092
:10C33000B639070069300700AD3A0700C23A070076
:10C34000D13A0700E83A070071E40020536E012B50
:10C3500070B50E46154601D002241DE081491068D3
:10C360000CF047FB0446C8B97F4D80496B7A804882
:10C3700032460FF07DFE7F497D480FF079FE6B7AE3
:10C380007A497D4832460FF073FE7A497A480FF0B9
:10C390006FFE642019F0E2FC204670BD774A7849B0
:10C3A00073480FF065FE2A68764971480FF060FE09
:10C3B00070496F480FF05CFE6D480FF02FF82A6847
:10C3C00070496D480FF054FE6A496B480FF050FEFB
:10C3D000642019F0C3FC2D6828460CF01CFB0024D7
:10C3E000844223D02B5D303B092B1DD9634A64491D
:10C3F0005F480FF03DFE224663495D480FF038FE6E
:10C400005C495B480FF034FE59480FF007F82246AC
:10C410005D4959480FF02CFE564957480FF028FE49
:10C42000642019F09BFC97E70134D9E70A22002128
:10C4300028460CF05DFC4C4E504A5149747A054632
:10C440004B480FF015FE2A46504949480FF010FEA0
:10C45000484947480FF00CFE45480EF0DFFF2A46DA
:10C460004A4945480FF004FE424943480FF000FE98
:10C47000642019F073FC022D3FF66EAFA54201D186
:10C48000002489E71CB9012D04D001241EE0012CF1
:10C49000FBD1DDB9394A3A4935480FF0E9FD3C494D
:10C4A00033480FF0E5FD334931480FF0E1FD3048E6
:10C4B0000EF0B4FF364930480FF0DAFD2D492E4812
:10C4C0000FF0D6FD642019F049FC00242B4A2C49BA
:10C4D000274875720FF0CCFD727A2E4924480FF070
:10C4E000C7FD244922480FF0C3FD21480EF096FFF6
:10C4F000727A284920480FF0BBFD1E491E480FF0F4
:10C50000B7FD642019F02AFCFFF7EEFC737A012BCB
:10C5100021D0022B22D00BB9FCF7F6FB002CAFD0B8
:10C520001D4913480FF0A4FD124911480FF0A0FD5A
:10C53000194911480FF09CFD0E490F480FF098FD66
:10C54000642019F00BFC41F2883019F007FC134805
:10C550000FF078FA94E7FCF759FCDFE7FBF77AFE77
:10C56000DCE700BF099B0700FCA20020F93A0700A6
:10C5700090E30020887B0700F4E30020B639070031
:10C5800069300700AD3A0700C23A0700FF3A0700DA
:10C59000123B07002C3B07003E3B070008E400204D
:10C5A000536E012B2DE9F0410E4615467ED1D2F88F
:10C5B00000804249424F40460CF01BFA044688BBBB
:10C5C000B7F88E30BBB932463E493F480FF050FDB8
:10C5D0003E493D480FF04CFD3A493D4832460FF088
:10C5E00047FD3A493A480FF043FD642019F0B6FB85
:10C5F0002046BDE8F08131463648374E19F0C6FE78
:10C600002546B7F88E20EBB2934205F1010505DA15
:10C610003B443046197B19F0B9FEF2E72B4819F07C
:10C62000B5FEE5E740460CF0F6F92C4A2C490646E3
:10C6300025480FF01DFD2A682A4923480FF018FDF0
:10C64000224921480FF014FD1F480EF0E7FE2A682A
:10C6500024491F480FF00CFD1C491D480FF008FD30
:10C66000642019F07BFB286807F10C02314614F0B6
:10C67000A7F90446E0B1194A194913480FF0F8FC2C
:10C68000194911480FF0F4FC10490F480FF0F0FC65
:10C690000D480EF0C3FE14490D480FF0E9FC0B499C
:10C6A0000B480FF0E5FC642019F058FB02249FE7CB
:10C6B0007608A7F88E60FFF717FC99E7099B07003B
:10C6C000FCA200205B3B070090E30020887B070072
:10C6D000F4E30020673B0700C3BC0700B63907003E
:10C6E00069300700AD3A07006B3B0700F0B5554CC9
:10C6F0002378E7B01BB9FDF7ADFA01232370524A46
:10C70000524953480FF0B4FC9422524950480FF05C
:10C71000AFFC51494E480FF0ABFC4D480EF07EFE89
:10C7200094224C494D480FF0A3FC4B494B480FF065
:10C730009FFC642019F012FB4949942268460BF0D3
:10C74000BDFB6A460021474894230FF094F9064642
:10C750003D4A3E493E48C6B90FF08AFC42493C4832
:10C760000FF086FC3C493A480FF082FC38480EF046
:10C7700055FE3D4939480FF07BFC374937480FF0EB
:10C7800077FC642019F0EAFA57E00FF071FCBDF86D
:10C79000002036492E480FF06BFC2F492C480FF033
:10C7A00067FC2B480EF03AFEBDF800202F492B48BD
:10C7B0000FF05EFC284929480FF05AFC642019F05C
:10C7C000CDFA9DF80830AA2B3AD101989421FDF7B3
:10C7D0005FFA0546BDF80030254CAB424ED01A4AF0
:10C7E0001A491B480FF044FCBDF800302149184895
:10C7F0002A460FF03DFC184915480FF039FC144843
:10C800000EF00CFEBDF800301A4914482A460FF00D
:10C810002FFC114911480FF02BFC642019F09EFAEF
:10C8200047F23052AA23C4E90123134BE3600423E7
:10C83000A4F88E30FFF758FB0026304667B0F0BDF5
:10C840000025C7E76ED80020B63907006930070019
:10C8500090E30020843B0700887B0700F4E300207E
:10C86000143D07006FE40020A13B0700CD3B07000B
:10C87000FCA20020DB3B070001020304019B636074
:10C880009DF80930022B40F2EC80954A9549964874
:10C890000FF0EEFB9DF80920944993480FF0E8FB58
:10C8A000934991480FF0E4FB8F480EF0B7FD9DF8D7
:10C8B00009208E498F480FF0DBFB8D498D480FF022
:10C8C000D7FB642019F04AFA00236372FFF70CFBD0
:10C8D000BDF88E20BDF80A306381802A40F2C38003
:10C8E0007F4A804980480FF0C3FBBDF88E20824903
:10C8F0007D480FF0BDFB7E497B480FF0B9FB7A48BD
:10C900000EF08CFDBDF88E207B497A480FF0B0FB0D
:10C91000774978480FF0ACFB642019F01FFA002328
:10C920002373A4F88E306E4A6E496F48734F744D6E
:10C930000FF09EFB626873496B480FF099FB6C49DE
:10C9400069480FF095FB68480EF068FD62686D4914
:10C9500068480FF08DFB664966480FF089FB64203C
:10C9600019F0FCF95E4A5F495F480FF081FB627A7B
:10C9700065495D480FF07CFB5D495B480FF078FB33
:10C9800059480EF04BFD627A5F495A480FF070FB30
:10C99000574958480FF06CFB642019F0DFF9504AF2
:10C9A000504951480FF064FBA27A58494E48002A7A
:10C9B00014BF3A462A460FF05BFB4D494A480FF038
:10C9C00057FB49480EF02AFDA27A50494948002AEF
:10C9D00014BF3A462A460FF04BFB454945480FF035
:10C9E00047FB642019F0BAF93D4A3E493E480FF032
:10C9F0003FFBE27A46493C48002A14BF3A462A46A1
:10CA00000FF036FB3A4938480FF032FB36480EF04B
:10CA100005FDE27A3E493748002A14BF3A462A46C5
:10CA20000FF026FB324933483A4F0FF021FB002527
:10CA3000642019F093F9FE22294626A825950BF0CB
:10CA40004BFAB4F88E30E8B2984205F1010511DADC
:10CA5000231839461A7B25AB03EB40000BF09CFFF3
:10CA6000EFE7637234E703A92B48A4F88E200BF09C
:10CA700025FA58E71A4A1B491B480FF0F9FA25AA6C
:10CA8000264919480FF0F4FA194917480FF0F0FA3F
:10CA900015480EF0C3FC25AA204916480FF0E8FA05
:10CAA000134914480FF0E4FA642019F057F90C4ABE
:10CAB0000C490D480FF0DCFAB4F88E2018490A48EA
:10CAC0000FF0D6FA0A4908480FF0D2FA06480EF0DD
:10CAD000A5FCB4F88E20124906480FF0C9FA4CE6BE
