:020000022000DC
:1070000000000420DD9F030005A0030007A003008B
:1070100009A003000BA003000DA003000000000066
:107020000000000000000000000000000FA00300AE
:1070300011A003000000000000000000000000009C
:10704000BD83050013A003003DA20500958905003E
:1070500013A00300FD7F0500D57D0500ED6506004A
:1070600013A00300D5880500E988050013A00300DC
:1070700013A0030013A0030013A0030013A0030038
:10708000F1720600D555050013A0030013A00300FC
:1070900013A0030013A00300755C060013A00300F7
:1070A00013A0030013A00300FD880500118905004B
:1070B00013A0030013A00300000000000000000064
:1070C00013A0030013A0030013A00300296B060004
:1070D000ED85050013A0030013A003004D9F0500DC
:1070E000C59F060013A0030005C7060000000000AE
:1070F0000000000013A0030000000000F96E06006D
:10710000000000000000000000000000000000007F
:10711000000000000000000000000000000000006F
:10712000000000000000000000000000000000005F
:10713000000000000000000000000000000000004F
:10714000000000000000000000000000000000003F
:10715000000000000000000000000000000000002F
:10716000000000000000000000000000000000001F
:10717000000000000000000000000000000000000F
:1071800000000000000000000000000000000000FF
:1071900000000000000000000000000000000000EF
:1071A00000000000000000000000000000000000DF
:1071B00000000000000000000000000000000000CF
:1071C00000000000000000000000000000000000BF
:1071D00000000000000000000000000000000000AF
:1071E000000000000000000000000000000000009F
:1071F000000000000000000000000000000000008F
:1072000010B5054C237833B9044B13B10448AFF3E0
:1072100000800123237010BDC0D4002000000000B6
:10722000380D080008B5034B1BB103490348AFF301
:10723000008008BD00000000C4D40020380D080004
:10724000154B002B08BF134B9D46A3F5803A002138
:107250008B460F461348144A121A10F0B1FB0F4B1D
:10726000002B00D098470E4B002B00D098470020F1
:10727000002104000D000D48002802D00C48AFF397
:10728000008010F04DFB2000290010F0D3F810F022
:1072900033FB00BF000008000000042000000000D5
:1072A00000000000C0D4002074C6012000000000CF
:1072B000000000000022C0E900220172704738B5CA
:1072C0000446006820B1856912F050FE2846F9E7AF
:1072D000204638BD006820B143688B4201D08069E8
:1072E000F9E77047F8B504460F4616461D46FFF706
:1072F000F1FF20B10123826005704370F8BD1C20AE
:1073000012F038FE012343700023C0E90333C0E9C3
:10731000053323680570C0E9017613B92060606009
:10732000ECE763689861FAE72DE9F8430468164FC3
:1073300005460E464FF000081CB363680BB9A469FC
:10734000FAE72378002BFAD0E368A268F31A9A428E
:1073500002D961780029F2D09B1A636184F8018018
:10736000E66014F0B9FC63688146984714F0B4FCF9
:107370003B68A0EB0900206118442B7A3860002B91
:10738000DDD0BDE8F88300BFDCD4002008B5074B92
:1073900050B103221A700648FA22012114F0F9F8BC
:1073A000044B00221A7008BD0522F3E7E0D4002048
:1073B00051E400202DD60020054B064800221A700B
:1073C000054B08221A700121FA2214F0E2B800BF1E
:1073D0002DD6002051E40020E0D4002084B004AB7E
:1073E00003E907000B4BBDF90A201A800A4B9DF9EF
:1073F0000C201A70094A0A48136801331360094BBC
:1074000000221A70084B0121FA22197004B014F0FE
:10741000C0B800BF10D5002012D5002028D600200B
:1074200051E400202DD60020E0D40020124B002291
:107430001A70124B1B7A022B1DD0114B90F90620AB
:107440001A70104BB0F904201A800F4A0378137099
:107450000E4A417811700E4A817811701BB10D4AA5
:107460001368013313600C4B0C4804221A7001217D
:10747000FA2214F08EB870472DD60020F8A2002012
:1074800012D5002010D5002015D6002013D60020DC
:1074900014D6002024D60020E0D4002051E400209F
:1074A000F0B5864C864D237A864F0126022B85B097
:1074B0002E7040F03981844807F0EBFDA37A002B51
:1074C00000F0C4803B78814F3978002940F09780E4
:1074D00043B37F4B1B782BBB06F0E2F97D4806F0E7
:1074E000B9F87D4806F07EF9A37ADBB97B4A7C497E
:1074F0007C4814F02DFB7C497A4814F029FB7B4929
:10750000784814F025FB7849794814F021FB774935
:10751000774814F01DFB64201EF08AF931462220C2
:1075200014F0C9FB05F024FB064600284BD0714B34
:107530001B78DBB9694A6A496A4814F009FB6E494D
:10754000684814F005FB6949664814F001FB6A4974
:10755000674814F0FDFA6549654814F0F9FA6420AB
:107560001EF066F96548012113F0FDFE564807F04C
:1075700093FD0390544807F091FD01230721CDE9C5
:107580000031024603995E4813F0ECFD0446C0B991
:10759000524A5349534814F0DBFA5A49514814F0FF
:1075A000D7FA52494F4814F0D3FA5649504814F0CC
:1075B000CFFA4E494E4814F0CBFA64201EF038F949
:1075C0002C7005B0F0BD01233F483B7007F061FD12
:1075D0004D4B4E481E8041F288326368B3FBF2F394
:1075E0004B4A13804B4B1E704B4B40F6C4121E701F
:1075F0000321334605B0BDE8F04013F0CABF53B1D4
:10760000334B1B783BB906F04BF9324806F022F8B1
:10761000424806F0E7F8314A3149324814F098FA06
:107620003F49304814F094FA30492E4814F090FA4B
:107630003B492F4814F08CFA2C492D4814F088FA55
:10764000642005B0BDE8F0401EF0F2B83B7853B1BD
:107650001F4B1B783BB906F023F91E4805F0FAFFD3
:10766000304806F0BFF8002300931A461946164822
:10767000B7EE000A07F030FC1E4B1B78002B7FF49E
:1076800075AF01211D4813F06EFE144A14491548C8
:1076900014F05EFA1849134814F05AFA13491148C5
:1076A00014F056FA1449124814F052FA0F491048CF
:1076B00014F04EFA64201EF0BBF857E7F8A2002041
:1076C0002DD600200DD5002004D500200CD500209B
:1076D00058D80020A01C0700B11C0700CC1C0700D4
:1076E000D01C070070E30020D61C0700E86A0700E2
:1076F000D4E300202CD60020E41C0700ACE40020DA
:1077000089E40020F11C070078D8002051E4002013
:107710007AD80020A8D80020A9D800200D1D070085
:10772000211D0700351D07003B784BB1AB4B1E7880
:1077300036B906F0B5F8AA4805F08CFFA94B1E70C3
:10774000A37A3BB105F014FA20B9A74A00231360CD
:10775000A64A1360A64813F015FE002800F0148115
:10776000A44813F099FD002800F0FE800121242098
:1077700014F0A1FAA04AA149A14814F0E9F9A149DD
:107780009F4814F0E5F9A0499D4814F0E1F99D499E
:107790009E4814F0DDF99C499C4814F0D9F9642006
:1077A0001EF046F89A4806F01DF89A4813F0ACFD12
:1077B000B4F88C1080B205F06DF89049964A0646F0
:1077C0008F4814F0C5F9B4F88C209448039213F054
:1077D00077FD3346039A92490090894814F0B8F92E
:1077E0008949874814F0B4F9B4F88C208B48039287
:1077F00013F066FD039A8A4900903346834814F0DB
:10780000A7F98149814814F0A3F964201EF010F80B
:10781000824813F055FDB04254D37F4A77497848E7
:1078200014F096F97F49764814F092F97649744835
:1078300014F08EF97B49754814F08AF9724973483F
:1078400014F086F964201DF0F3FF774B1B78DBB949
:10785000694A6A496A4814F07BF97449684814F027
:1078600077F96949664814F073F97049674814F06C
:107870006FF96549654814F06BF964201DF0D8FF75
:107880006B48012113F06FFD01230722CDE900327F
:107890006848694A94F88C10022313F063FC0028AE
:1078A0007FF48FAE544A55492870554814F050F96A
:1078B0006249534814F04CF95349514814F048F9BF
:1078C0005E49B6E63146554813F0FCFC4FF4FA70B9
:1078D0001DF0AEFF504A4949494814F039F94F4864
:1078E00013F0EEFC56490246454814F031F946497A
:1078F000434814F02DF9494813F0E2FC5049024680
:10790000424814F025F94049404814F021F9642018
:107910001DF08EFF3B786BB1304B1B7853B9494853
:1079200005F060FF48494948324610F0A9FD474834
:1079300005F058FF384A3149314814F009F9374801
:1079400013F0BEFC3E4902462D4814F001F92E49C1
:107950002B4814F0FDF8314813F0B2FC38490246C8
:107960002A4814F0F5F869E7234A24492870244886
:1079700014F0EEF83649224814F0EAF8224920487B
:1079800014F0E6F8324954E60121232014F093F96B
:10799000194A1A491A4814F0DBF82E49184814F00D
:1079A000D7F81949164814F0D3F82A49174814F0A3
:1079B000CFF81549154814F0CBF864201DF038FFB6
:1079C000134805F00FFF01231B4A94F88C1022483E
:1079D00013F073FB01232B70F3E500BF58D8002090
:1079E000411D070001D500208CD8002088D8002038
:1079F000ADE4002094E40020CC1C0700D01C07005C
:107A000070E30020521D0700E86A0700D4E300205D
:107A10005E1D0700AAE400206C1D070098E400200A
:107A2000731D0700A71D07002CD60020E41C0700CB
:107A3000ACE4002089E4002003A30020F11C07002F
:107A4000D71D0700EE1D0700001E070013D50020FC
:107A5000091E0700271E0700AEE4002000000000FA
:107A60002DE9F04F2DED028B00218DB0AE4E044676
:107A7000242014F020F90021232014F01CF933787D
:107A80005BB1AA4B1B7843B905F00AFFA849A94886
:107A900010F02DFDA74805F0DDFD44B9A649A74823
:107AA00014F042F80DB0BDEC028BBDE8F08F2478E5
:107AB000012C40F092813378DFF8FC82A04FA14E78
:107AC000002B00F0BD80994B1D78002D40F0B88050
:107AD0009D49984810F00BFD964909A813F0B2FE95
:107AE00009AA2946284605F0F7FE09A813F064FE06
:107AF000D8F8002095498F4810F0C2FC8D4909A89C
:107B000013F0A0FE09AA2946204605F0E5FE09A8C3
:107B100013F052FE8E4813F06AFA49F077FB80A307
:107B2000D3E9002349F016FD0B46024689498148F6
:107B300010F0A6FC7F4909A813F084FE09AA294683
:107B4000022005F0C9FE09A813F036FE824813F0A2
:107B50005FFA82490246774810F092FC754909A8FD
:107B600013F070FE09AA2946032005F0B5FE09A806
:107B700013F022FE7A4813F05CFA092800F22881FB
:107B8000DFE810F00A00C300C500C700C9001C01EF
:107B90001E01200122012401724907A810F0A7FC50
:107BA0006F4813F046FA704B704953F82020614833
:107BB00010F066FC5F4909A813F044FE09AA4021B1
:107BC000032005F089FE09A813F0F6FD684813F0BC
:107BD00041FA6849421D574810F052FC554909A81E
:107BE00013F030FE09AA4021022005F075FE09A815
:107BF00013F0E2FD3A8860494E4812B210F040FCA2
:107C00004C4909A813F01EFE09AA0021042005F022
:107C100063FE09A813F0D0FD32785849454852B2A6
:107C200010F02EFC434909A813F00CFE09AA4021CC
:107C3000042005F051FE09A813F0BEFD05F066FE14
:107C40004F4B1B78002B2DD04E4B1B78002B00F098
:107C5000C18006F06BFC4C4A4C4B1188198091781E
:107C600099701179D9705179927919715A710122EB
:107C70009A7147490022DA71096899604549096893
:107C8000D9601A745A74398849B29974317849B2F2
:107C9000D9749A82DA821A833F4A126812B25A83DE
:107CA00006F0A6FE3D49254813F03EFFD8F8002017
:107CB0003B883178214849B21BB20091384913F012
:107CC00047FF234813F093F908EE100A224813F0F7
:107CD0009FF90446224813F0ACF9F8EE487A0546BD
:107CE00017EE900A49F0B4FA0DA3D3E9002349F046
:107CF00031FC7D2305FB0333CDE9004302460B46EF
:107D00000E48284913F024FFCCE6274945E72749C8
:107D100043E7274941E727493FE700BFAFF300802A
:107D20000000000080842E410DD5002058D800208E
:107D3000411D070013D500203B1E070070E3002003
:107D400010D5002012D50020481E0700561E07003F
:107D5000B9E40020C7250700BAE400206C30070012
:107D6000BBE400206A1E070070A20020A01E0700CE
:107D7000BCE4002085300700A61E0700AE1E0700E9
:107D80000ED5002034DB00202CDB0020A4A1002035
:107D900088D800208CD8002024D60020B51E0700EB
:107DA000C21E0700DE1E07006E1E0700721E0700BF
:107DB000761E07007A1E070028D600205D49ECE6F3
:107DC0005D49EAE65D49E8E65D49E6E65D49E4E6E7
:107DD0005D49E2E606F0CEFB3DE7032C62D1337845
:107DE000002B3FF45FAE594B1E78002E7FF45AAE45
:107DF000574C257A002D41D0022D4CD04FF47A7388
:107E000062685449B2FBF3F2534810F039FB52490F
:107E100009A813F017FD09AA0021012005F05CFD57
:107E200009A813F0C9FC4D4909A813F00BFD002166
:107E300009AA022005F050FD09A813F0BDFC48492D
:107E4000454810F054FB444909A813F0FBFC09AA6B
:107E50000021032005F040FD09A813F0ADFC3F49C7
:107E600009A813F0EFFC09AA0021042005F034FD55
:107E700009A813F0A1FC05F049FD13E6394909A84A
:107E800013F0E0FC09AA2946084605F025FD09A8DB
:107E900013F092FCB2E7344909A813F0D3FC09AA05
:107EA0003146F1E7052C63D13378002B3FF4FAAD6E
:107EB000264B1E78002E7FF4F5AD254C257A25B390
:107EC000022D2FD04FF47A7362682249B2FBF3F28D
:107ED000214810F0D5FA204909A813F0B3FC09AAEB
:107EE0000021012005F0F8FC09A813F065FC1B49EE
:107EF00009A813F0A7FC002109AA022005F0ECFC58
:107F000009A813F059FC19499AE7164909A813F072
:107F100099FC09AA2946084605F0DEFC09A813F0D9
:107F20004BFCCFE7104909A813F08CFC09AA314695
:107F3000F1E700BF7F1E0700851E07008B1E0700AC
:107F4000911E0700971E07009C1E070058D80020AE
:107F5000F8A20020131F070013D50020FBCE070056
:107F6000261F0700F21E0700011F0700321F07002F
:107F7000042C40F0FF813378DFF808A3A54DDFF82B
:107F80000893A54EDFF804B3002B00F0A480A34BA8
:107F90001F78002F40F09F80A14B3178A14AA24862
:107FA000002918BF1A46A14910F06AFA9E4909A88B
:107FB00013F048FC09AA3946384605F08DFC09A89B
:107FC00013F0FAFB327802F0FF08002A40F0DD805F
:107FD0009BF800209649944810F052FA924909A85B
:107FE00013F030FC09AA4146012005F075FC09A8F0
:107FF00013F0E2FBDAF800208E498B4810F040FACB
:10800000894909A813F01EFC09AA4146022005F07F
:1080100063FC09A813F0D0FB874B88491A68824893
:1080200010F02EFA804909A813F00CFC09AA40218F
:10803000022005F051FC09A813F0BEFB804B8149DA
:108040001A78794810F01CFA774909A813F0FAFB5E
:1080500009AA4146032005F03FFC09A813F0ACFB38
:10806000794813F02DF9794902466F4810F008FA63
:108070006D4909A813F0E6FB09AA4021032005F089
:108080002BFC09A813F098FB2A887149664812B2A4
:1080900010F0F6F9644909A813F0D4FB09AA414687
:1080A000204605F019FC09A813F086FB99F800207A
:1080B00068495D4852B210F0E3F95B4909A813F032
:1080C000C1FB204609AA402105F006FC09A813F0CF
:1080D00073FB05F01BFC604B1B78002B36D05F4B0D
:1080E0001B78002B00F01B8106F020FA5C4A5D4BE8
:1080F00011881980917899701179D9705179927994
:1081000019715A714E4900229A710978C9B2D97110
:1081100055490968996055490968D960298849B263
:108120001974298849B25974298849B2997499F8FF
:10813000001049B2D9749A82DA829BF800201A831F
:108140003D4A126812B25A8306F052FC3178344B21
:10815000344A4748002918BF1A46464913F0F8FC2C
:10816000DAF800202B8899F80010414849B20091B4
:108170001BB2414913F0ECFC314B40491A783C48A2
:108180009BF8003013F0E4FC8CE4DAF80020294975
:10819000254810F075F9244909A813F053FB09AAE2
:1081A0003946012005F098FB09A813F005FB224B86
:1081B00022491A681C4810F063F91B4909A813F0FA
:1081C00041FB09AA4021012005F086FB09A813F014
:1081D000F3FA32782A49144810F052F9124909A8E2
:1081E00013F030FB09AA3946022005F075FB09A8F7
:1081F00013F0E2FA3378013B0F2B00F28E80DFE8B8
:1082000003F0476E70727476787A7C7E8082848602
:10821000888A00BF10D5002015D6002058D800202D
:10822000371E0700381E070013D50020481F07001F
:10823000591F07006C1F070024D60020741F070079
:1082400014D600207C1F070098E400207920070046
:10825000A61E0700AE1E07000ED5002034DB00204E
:108260002CDB0020A4A1002088D800208CD800207E
:1082700070E300207F200700C21E07008D2007004A
:10828000851F070028D6002012D5002013D6002015
:108290002449254810F02BF9234909A813F0D2FAF4
:1082A00009AA0021032005F017FB09A813F084FA9E
:1082B0001E4813F005F81E4902461B4810F0E0F86E
:1082C000194909A813F0BEFA09AA0021042005F0F3
:1082D00003FB09A813F070FA05F018FBF9E615493D
:1082E000D7E71549D5E71549D3E71549D1E715492A
:1082F000CFE71549CDE71549CBE71549C9E715493A
:10830000C7E71549C5E71549C3E71549C1E7154949
:10831000BFE71549BDE71549BBE71549B9E706F0C1
:1083200029F9E3E69A1F070013D5002098E40020FE
:1083300076200700A81F0700B31F0700BF1F070014
:10834000CB1F0700D51F0700261F0700DF1F0700F0
:10835000F31F070006200700162007002320070050
:108360002D2007003D2007004B2007005720070065
:1083700068200700A24B1B78062B40F0A181A14B7F
:10838000A149DD781C7993F801809F7893F905B0B5
:108390009E48C5EB451205EB8205A8F1C808C4EB61
:1083A0004412C83F04EB82041FFA88F85A790292FB
:1083B000BFB25A466D0064000FFA88FA0FFA87F9C7
:1083C00013F0C6FB2DB2924990484B46524624B258
:1083D00013F0BEFB23468F498C482A4613F0B8FBA6
:1083E0003378002B00F0D0808B4B1E78002E40F0AD
:1083F000CB8005F055FA894805F02CF9884B89495E
:108400001A78894B89481B8852B21BB210F038F891
:10841000864909A813F016FA09AA3146304605F034
:108420005BFA09A813F0C8F95A4681497F4810F051
:1084300027F87E4909A813F005FA09AA3146012058
:1084400005F04AFA09A813F0B7F97A4909A813F018
:10845000F9F909AA3221012005F03EFA09A813F022
:10846000ABF9754909A813F0EDF909AA50210120CB
:1084700005F032FA09A813F09FF9704909A813F022
:10848000E1F909AA3146022005F026FA09A813F0FD
:1084900093F96B4909A813F0D5F909AA31460320CD
:1084A00005F01AFA09A813F087F9524665495F48A2
:1084B0000FF0E6FF5D4909A813F0C4F909AA3221BB
:1084C000022005F009FA09A813F076F94A465D4939
:1084D00056480FF0D5FF554909A813F0B3F909AA7A
:1084E0003221032005F0F8F909A813F065F9564B7D
:1084F00093F80A90B9F1000F00F0B8802A4651496C
:108500004A480FF0BDFF494909A813F09BF909AA91
:108510005021022005F0E0F909A813F04DF9224698
:10852000484942480FF0ACFF404909A813F08AF9C6
:1085300009AA5021032005F0CFF909A813F03CF94E
:10854000424B1868424BD3F8009048F081FE024637
:108550000B464846CDE9042348F07AFEDDE90423C2
:10856000CDE900013B4931480FF08AFF2F4909A8A6
:1085700013F068F909AA3146042005F0ADF909A8FD
:1085800013F01AF905F0C2F9334B1B78002B3FF4B6
:1085900089AA324B1B78002B00F08F8005F0C6FFB4
:1085A0002F4A304B11881980917899701179D970C0
:1085B0005179927919715A7102229A71029ADA717B
:1085C000224A12689A60224A1268DA604FFA88F8E2
:1085D000154A83F810807FB25F74128852B29A7481
:1085E0000F4A127852B2DA749D820022DC821A831A
:1085F0001D4A126812B25A8306F0FAF9FFF752BA0E
:10860000E0D40020E1D40020A620070070E3002081
:10861000C4200700DD20070058D80020FA200700FA
:1086200012D500200A21070010D5002013D5002004
:1086300021210700967B07002C2107003521070028
:1086400039210700691F0700F8A2002088D8002000
:108650008CD800203D2107000ED5002034DB0020FF
:108660002CDB0020A4A1002024D600205E495F4816
:108670000FF03DFF5D4909A813F0E4F809AA502165
:10868000022005F029F909A813F096F8574909A81E
:1086900013F0D8F809AA5021032005F01DF909A804
:1086A00013F08AF8524951480FF021FF4F4909A8A9
:1086B00013F0C8F809AA49465EE705F05BFF6FE7CB
:1086C000072B6CD14B494C4813F042FA3378002BFE
:1086D0003BD04A4B1C78002C37D105F0E1F84848D4
:1086E00004F0B8FF474941480FF001FF3F4909A88E
:1086F00013F0A8F809AA2146204605F0EDF809A8CC
:1087000013F05AF8404B1868404B1D6848F0A0FD24
:1087100002460B462846CDE9022348F099FDDDE9E3
:108720000223CDE900013A4930480FF0A9FE2F4954
:1087300009A813F087F809AA2146042005F0CCF80F
:1087400009A813F039F805F0E1F8324B1B78002B3B
:108750003FF4A8A9304B1B78F3B105F0E7FE2F4A90
:108760002F4B11881980917899701179D9705179AE
:10877000927919715A7102229A7123490022DA7191
:108780000968996021490968D9601A745A749A7401
:10879000DA749A82DA822AE705F0ECFEDFE7082B2A
:1087A0007FF480A91F49144813F0D2F91E4B002210
:1087B0001A703378002B3FF475A9104B1B78002BEF
:1087C0007FF470A905F06CF8184804F043FF1849CD
:1087D00006480FF08CFE054909A813F033F8002174
:1087E00009AA0846FFF742BB5221070013D5002013
:1087F000492107005521070070E3002058D80020C8
:10880000FA2007007321070088D800208CD80020A8
:108810003D2107000ED5002034DB00202CDB00209A
:10882000A4A10020882107002DD60020411D0700AB
:108830009E21070070B5314BB0F90A201A80304BE9
:1088400090F90C201A702F4B42781A702E4A136838
:10885000013313602D4B00221A7003780446CBB904
:108860002B4A2C492C4813F073F92C492A4813F051
:108870006FF92B49284813F06BF92849294813F060
:1088800067F92749274813F063F9BDE87040642071
:108890001CF0CEBF244A127A022A25D1022B0FD116
:1088A000224D027A4168224806232B700FF07AF895
:1088B0002B46FA220121BDE870401E4812F069BE25
:1088C000134A1449144813F043F922781A491248FC
:1088D00013F03EF91249104813F03AF9227816497C
:1088E000104813F035F9CCE7144B1B7823B90F4B24
:1088F00001211970FA22DEE770BD00BF10D50020FB
:1089000012D500200FD5002028D600202DD600201B
:10891000AE210700D01C070070E30020B42107003F
:10892000E86A0700D4E30020F8A20020E0D4002089
:10893000E1D4002051E40020BC210700C0A10020A8
:1089400010B5044606F09EFB204610BD70B50446E7
:10895000002836D01B4B1C4A1C491D4800251D70A1
:1089600013F0F6F82A461B49194813F0F1F81A4992
:10897000174813F0EDF82A461649184813F0E8F89E
:108980001549164813F0E4F864201CF051FF144B0D
:108990001C60144B1B7A022B09D1134B07221A704F
:1089A000BDE870401148FA22012112F0F2BD104BCF
:1089B0001B7833B90F4A1368013313600A4B022244
:1089C000EDE770BD2DD60020CC1C0700D01C0700A1
:1089D00070E30020CB210700E86A0700D4E3002001
:1089E00030D60020F8A20020E0D4002051E400207E
:1089F000C0A1002024D6002030B54B4A4B494C4D35
:108A000099B004464B4813F0A3F822464A49494816
:108A100013F09EF84949474813F09AF82246464910
:108A2000474813F095F84549454813F091F86420FC
:108A30001CF0FEFE2978002974D101231A2208A80F
:108A40002B7007910EF0BCFF05A82AF057FD059882
:108A50003C4C00F5E0400FA96E302AF0C3FD149B9A
:108A6000394903F26C730393129B0293139B0133F6
:108A700001930F9B009307A8DDE910320FF000FD72
:108A8000294A2A492B4813F063F807AA2F49294895
:108A900013F05EF82949274813F05AF807AA2B4922
:108AA000274813F055F82549254813F051F864205C
:108AB0001CF0BEFE149B03F26C732380139B0133E6
:108AC000A370129B2371119B6371109BA3710F9B69
:108AD000E3711F4B1B782BB3134A1449154813F04D
:108AE00037F81C49134813F033F81449114813F0B0
:108AF0002FF81849124813F02BF81049104813F0BA
:108B000027F864201CF094FE02232B70E379019374
:108B1000A379009363792279A178208805F090FCED
:108B200005F004FD19B030BDDA210700D01C0700A4
:108B30002CD6002070E30020DF210700E86A070040
:108B4000D4E300202CDB0020F6210700D03E0700F4
:108B500034DB00201822070008B5064B1B783BB118
:108B600013F0B5F8BDE8084001460348FEF7DCBB4A
:108B700008BD00BF59D8002018D6002007B52B4AE1
:108B80002B492C4812F0E4FF2B492A4812F0E0FF51
:108B90002A49284812F0DCFF2749294812F0D8FF5B
:108BA0002649274812F0D4FF64201CF041FE254AD4
:108BB000254801231370254A137012F096FA18B154
:108BC0002348002112F05BFA224812F0DFFB224911
:108BD000224812F0EDFA2249204812F0F9FA214910
:108BE0001E4812F0EDFA20491C4812F0F9FA1F490C
:108BF0001A4812F0FDFA00211D4812F037FB02213D
:108C00001C4812F0A1FB32230122009311460A23D3
:108C1000124812F08CFA184B997A01B101212220E6
:108C200003B05DF804EB13F046B800BFCC1C07009E
:108C3000D01C070070E300202E220700E86A07001E
:108C4000D4E30020C0A10020C4E40020A1A10020A2
:108C5000AEE40020ADE400203588020089E4002065
:108C60004D8902008D7302002D740200F989020003
:108C700091E40020ABE40020F8A2002008B5284AC7
:108C80002849294812F064FF2849274812F060FF5C
:108C90002749254812F05CFF2449264812F058FF66
:108CA0002349244812F054FF64201CF0C1FD224BDC
:108CB00022480021197012F0E2F9214812F019FA45
:108CC000B8B9174A1749184812F042FF1D4916480B
:108CD00012F03EFF1649144812F03AFF19491548A0
:108CE00012F036FF1249134812F032FF64201CF0D4
:108CF0009FFD1549114812F009FA14490F4812F066
:108D00000DFA4FF6FD710D4812F0B9F9104B997A32
:108D100001B10121BDE80840222012F0CCBF00BF04
:108D2000CC1C0700D01C070070E300204322070082
:108D3000E86A0700D4E30020A1A10020AEE40020EF
:108D4000C4E4002052220700DD730200B973020060
:108D5000F8A200201F4B07B501221F481A7012F01D
:108D6000C4F918B11D48002112F089F91C4812F00D
:108D70000DFB1C491C4812F01BFA1C491A4812F042
:108D800027FA1B49184812F01BFA1A49164812F024
:108D900027FA1949144812F02BFA0021174812F04B
:108DA00065FA0021164812F0CFFA3223012200930F
:108DB0000D480A23114612F0BAF9124B9B7A33B1CF
:108DC0000121222003B05DF804EB12F074BF03B060
:108DD0005DF804FBA1A10020C4E40020AEE4002063
:108DE000ADE400203588020089E400204D890200AE
:108DF0008D7302002D740200F989020091E40020B5
:108E0000ABE40020F8A2002010B50B4C0021204656
:108E1000FEF750FA2046094C094A0A490EF054FD63
:108E2000FF21204606F022F92046054A0649BDE802
:108E300010400EF049BD00BF18D6002004D5002018
:108E400090A10020BF720200418902002DE9F04785
:108E5000012186B0222012F017FF0121232012F0F9
:108E600013FF0121242012F00FFF0021222012F015
:108E700022FF0223B14806224FF4E13112F044F8F8
:108E80004FF08043D3F83834032B40F027824FF45F
:108E9000FA601CF0CDFC0123022203ACA849009328
:108EA000A848A94F00230FF0EBFAA649204612F07C
:108EB000C9FC2146A54812F015FB204612F07CFCA7
:108EC000A34812F069FD04F091FB387030B1A1495C
:108ED0009C480FF00CFB9B4804F0BCFB01212320B5
:108EE00012F0E9FE0021232012F0E5FE00212420EB
:108EF00012F0E1FE3B78BBB9974A98498F4812F0CF
:108F000027FE97498D4812F023FE96498B4812F0B0
:108F10001FFE9349944812F01BFE9249924812F0AA
:108F200017FE64201CF084FC02F0F4FEB8B98A4AF3
:108F30008A49824812F00CFE8C49804812F008FEE3
:108F400088497E4812F004FE8849874812F000FEE6
:108F50008449854812F0FCFD64201CF069FC02F095
:108F60006BFEB8B97C4A7D49744812F0F1FD804926
:108F7000724812F0EDFD7B49704812F0E9FD7C4922
:108F8000794812F0E5FD7749774812F0E1FD642059
:108F90001CF04EFC02F066FEB8B96F4A6F49674894
:108FA00012F0D6FD7349654812F0D2FD6D49634851
:108FB00012F0CEFD6F496C4812F0CAFD69496A484B
:108FC00012F0C6FD64201CF033FC02F061FEB8B95B
:108FD000614A6249594812F0BBFD6749574812F08F
:108FE000B7FD6049554812F0B3FD63495E4812F081
:108FF000AFFD5C495C4812F0ABFD64201CF018FC2E
:1090000003F06EFAB8B9544A54494C4812F0A0FD26
:109010005A494A4812F09CFD5249484812F098FDBE
:109020005649514812F094FD4E494F4812F090FDB8
:1090300064201CF0FDFB00F0EDFDB8B9464A47493D
:109040003E4812F085FD4E493C4812F081FD4549ED
:109050003A4812F07DFD4A49434812F079FD4149F2
:10906000414812F075FD64201CF0E2FB454D0020E4
:1090700000F05AFC2B7A032B40F05781364A3749CF
:109080002E4812F065FD40492C4812F061FD35492B
:109090002A4812F05DFD3C49334812F059FD314930
:1090A000314812F055FD64201CF0C2FB012003F092
:1090B00003FC05F0B5F8354B274A284918700028FD
:1090C00000F05B811D4812F043FD31491B4812F04E
:1090D0003FFD2449194812F03BFD2D49224812F06A
:1090E00037FD2049204812F033FD64201CF0A0FB1E
:1090F00005F01CFA94E803002AF0DFF902F0F4FD11
:1091000005F0A2FA234E3070002840F04D81124A3B
:1091100012490A4812F01CFD1F49084812F018FDB8
:109120001049064812F014FD1B490F4812F010FDBB
:109130000C490D4812F00CFD64202FE070E3002074
:109140007422070013D500200DD50020F8E300207D
:10915000CCE40020411D0700CC1C0700D01C0700F8
:109160008A220700E86A0700D4E30020982207005B
:10917000BF220700ED220700172307004523070041
:109180006A230700F8A200208623070034DB0020B2
:10919000B32307000ED50020BD2307001CF048FBB9
:1091A0002B7A012B00F03E81022B00F044813BB36F
:1091B000A749A84812F0B8FC3B780BB3A649A748CA
:1091C0000FF095F9A549204612F03CFB00212246FC
:1091D000084604F081FB204612F0EEFAA0499F48B1
:1091E0000FF085F99D49204612F02CFB2246002104
:1091F000012004F071FB204612F0DEFA04F086FB39
:10920000984804F0EFFA984812F046F810B99748D9
:1092100004F0E8FAFFF7B2FC4FF47A7394496A68F5
:109220008E48B2FBF3F20FF02BF98C4804F0DAFA17
:10923000904A91480123002112F0A1F96A6822B1F5
:1092400000238D48194612F0A4F98C4A8A4800235D
:10925000012112F094F90023894A8748022112F073
:109260008EF96B7A33B1844800234EF660220221D6
:1092700012F08FF90123834A7F48032112F07FF90E
:10928000814B1B785BB1784812F006F838B932236D
:10929000012200937D480A23114611F048FF7C4AC1
:1092A0007C496C4812F054FC7B496A4812F050FC2F
:1092B0007A49684812F04CFC7749794812F048FC2A
:1092C0007649774812F044FC64201CF0B1FA012181
:1092D000744812F0D0FC06B0BDE8F08712F0F7FC3D
:1092E0005C4D04464FF0000A41F287384FF0000908
:1092F000284611F0EEFD00287FF4CDAD12F0E7FC1A
:10930000061B6AEB4A07B04579EB0703FFF6C3ADCE
:1093100064201CF08DFA232012F0D2FCB0FA80F108
:109320004909232012F0C7FCE2E7AE7A584A5949AE
:109330004848B6B912F00CFC5B49464812F008FCEC
:109340005649444812F004FC5749554812F000FCB5
:109350005249534812F0FCFB64201CF069FA0020CB
:10936000A5E612F0F5FB51493A4812F0F1FB4B49E2
:10937000384812F0EDFB4D49E7E7364812F0E8FBBC
:109380004B49344812F0E4FB4449324812F0E0FB08
:109390004749434812F0DCFB4049414812F0D8FBF2
:1093A00064201CF045FAABE602F088FC05F010FAE8
:1093B0003070B8B9364A3749264812F0C9FB3D49E2
:1093C000244812F0C5FB3549224812F0C1FB394947
:1093D000334812F0BDFB3149314812F0B9FB64202B
:1093E0001CF026FA2A4A2B491A48DFF8D890DFF8F1
:1093F000D88012F0ADFB32782F491648002A14BFEE
:109400004A46424612F0A4FB2449124812F0A0FB3F
:10941000327829492248002A14BF4A46424612F0AF
:1094200097FB85E6FFF72AFC244804F0DBF91A488D
:1094300004F0D8F9F0E6224804F0D4F90A4811F013
:109440002BFF10B9094804F0CDF9FFF783FCE3E6E0
:109450000124070070E300202224070013D5002018
:1094600034240700F21E070094E40020442407007F
:10947000131F0700A174020051E40020617A02006A
:1094800061D9020031D00200A1A1002089E40020AE
:10949000CC1C0700D01C070052240700E86A070014
:1094A000D4E30020E9E300209A2307008623070085
:1094B000B0230700CE230700E4230700B91E0700EE
:1094C000011F0700692207006E2207007047000095
:1094D0002DE9F04F944C954DDFF868A2DFF868B2A3
:1094E00089B0204605F03CFF204610EE107A05F0CA
:1094F00056FF20468DED050A05F070FF8C4A8D4918
:109500008DED060A284612F023FB204605F028FFC1
:10951000204610EE108A05F023FF384610EE106A40
:1095200047F096FE844B002247F0EAFE48F098F997
:1095300007B2404647F08CFE804630468946029787
:1095400047F086FE7C4B7D4E002247F0D9FE424616
:109550004B46CDE900015146284612F0F9FA314652
:10956000284612F0F5FA204605F0FAFE204610EEE5
:10957000108A05F0F5FE40468DED070A47F068FEBB
:10958000079B029780461846894647F061FE6A4B62
:10959000002247F0B5FE4B464246CDE90001514658
:1095A000584612F0D5FA3146584612F0D1FA6420E6
:1095B0001CF03EF95E4A5F49284612F0C9FA20467F
:1095C00005F0EDFE204610EE107A05F0E8FE059855
:1095D00010EE10AA47F03CFE0022574B47F090FED9
:1095E00048F03EF903B23846059347F031FE059B3B
:1095F000029380465046894647F02AFE4E4B504F14
:10960000DFF848A1002247F07BFE42464B46CDE9F9
:1096100000013946284612F09BFA3146284612F0DE
:1096200097FA204605F0BBFE204610EE108A05F0A2
:10963000B6FE40468DED070A47F00AFE059B0293F1
:10964000079B80461846894647F002FE3A4B0022A7
:1096500047F056FE4B464246CDE900013946584692
:1096600012F076FA3146584612F072FA64201CF075
:10967000DFF82F4A2F49284612F06AFA204605F0F3
:10968000ADFE204610EE108A05F0A8FE06988DED7E
:10969000050A47F0DDFD284B002247F031FE48F077
:1096A000DFF807B2404647F0D3FD804605980297A1
:1096B000894647F0CDFD204B002247F021FE42466F
:1096C0004B46CDE900015146284612F041FA314699
:1096D000284612F03DFA204605F080FE204610EEA6
:1096E000105A05F07BFE284610EE108A47F0B0FDB8
:1096F000044640460D46029747F0AAFD0E4B002255
:1097000047F0FEFD2246CDE900012B465146584662
:1097100012F01EFA3146584612F01AFA642009B0C7
:10972000BDE8F04F1CF084B834D6002070E3002070
:1097300060240700D01C070000408F40E86A070043
:109740007324070064240700D4E300208224070068
:1097500007B568480DF10701312205F049FE9DF873
:109760000730590618D5644A6449654812F0F0F983
:109770009DF807206349624812F0EAF9624960489F
:1097800012F0E6F95F499DF80720604812F0E0F911
:109790005D495E4812F0DCF964201CF049F89DF840
:1097A00007309A0614D5544A5449554812F0D0F956
:1097B0005749534812F0CCF95349514812F0C8F9AF
:1097C0005349524812F0C4F94F49504812F0C0F9B9
:1097D00064201CF02DF89DF80730DB0614D5464AAE
:1097E0004649474812F0B4F94A49454812F0B0F9E1
:1097F0004549434812F0ACF94649444812F0A8F9EB
:109800004149424812F0A4F964201CF011F89DF877
:109810000730180714D5384A3849394812F098F9F2
:109820003D49374812F094F93749354812F090F91C
:109830003949364812F08CF93349344812F088F926
:1098400064201BF0F5FF9DF80730590714D52A4A0C
:109850002A492B4812F07CF93049294812F078F94E
:109860002949274812F074F92C49284812F070F958
:109870002549264812F06CF964201BF0D9FF9DF8A9
:1098800007309A0714D51C4A1C491D4812F060F98C
:1098900023491B4812F05CF91B49194812F058F98A
:1098A0001F491A4812F054F91749184812F050F994
:1098B00064201BF0BDFF9DF80730DB0714D50E4A6E
:1098C0000E490F4812F044F916490D4812F040F9BC
:1098D0000D490B4812F03CF912490C4812F038F9C6
:1098E00009490A4812F034F964201BF0A1FF03B0C3
:1098F0005DF804FB34D6002060240700D01C07006C
:1099000070E3002091240700E86A0700D4E30020F8
:10991000A8240700AF240700B5240700BC240700D3
:10992000C2240700C924070073B500210446112092
:1099300012F0AAF95C4812F02FF85C4B54B30022E5
:109940009A800A22DA804FF481721A8140F2011261
:109950005A81564805F0DCFD054608B3544A55497E
:10996000554812F0F5F85549534812F0F1F85449AA
:10997000514812F0EDF85149524812F0E9F85049B7
:10998000504812F0E5F864201BF052FF00242046F6
:1099900002B070BD02229C80DC801A815C81D8E715
:1099A000002C38D02A22302140488DF8072001268B
:1099B00005F0C8FB082232213C488DF8072005F04D
:1099C000C1FB3246332139488DF8076005F0BAFBF8
:1099D00024220DF10701354805F00AFD9DF8072006
:1099E000324822F00C0242F0080224218DF80720B0
:1099F00005F0A8FB602222212C488DF8072005F0F5
:109A0000A1FB2A462521294805F09CFB2748324620
:109A1000212105F097FB002520220DF107012348A5
:109A20008DF8075005F0E4FC9DF807201F4842F030
:109A3000080220218DF8072005F084FB64201BF02C
:109A4000F7FE1E220DF1070118488DF8075005F0AA
:109A5000CFFC9DF80720154842F090021E218DF89A
:109A6000072005F06FFB64201BF0E2FE4CB1FFF70E
:109A70006FFE15490422112011F0FEF9FFF728FDB1
:109A800085E720220DF10701084805F0B1FC9DF89B
:109A90000720064802F0400220218DF8072001240B
:109AA00005F050FB73E700BFCCE4002034D6002063
:109AB00060240700D01C070070E30020CF240700BB
:109AC000E86A0700D4E30020CD940200024818227F
:109AD000002105F0F1BA00BF34D6002010B50023F4
:109AE000012210F0010F01F1FF311CBF02FA01F455
:109AF000234340080029F4D1184610BD0D4810B585
:109B0000002148F205040B029BB2082213F4004F17
:109B100002F1FF324FEA430318BF634012F0FF0225
:109B20009BB2F3D10131B1F5807F20F8023BEAD13D
:109B300010BD00BF48D600202DE9F0410025DFF818
:109B4000388006460F462C46BD420DDA705D08216E
:109B5000FFF7C4FF80EA1423DBB2013538F8133075
:109B600083EA0424A4B2EFE710212046FFF7B6FFF2
:109B700080B2BDE8F08100BF48D60020F8B512F0F1
:109B8000A6F81B4D1B4B1C4C0021C3E9000112F031
:109B90009EF8D5E90032C61A62EB4207C92E77F16A
:109BA000000308DB12F093F800236B602378286031
:109BB0000133DBB22370114A1149124811F0C8FF7A
:109BC000227811490F4811F0C3FF10490D4811F0D8
:109BD000BFFF22780C490E4811F0BAFF0B490C4820
:109BE00011F0B6FFBDE8F84064201BF021BE00BFB5
:109BF00048D8002050D8002059D80020F024070071
:109C0000D01C070070E30020F4240700E86A070076
:109C1000D4E3002008B50221092012F035F80649E6
:109C20000322092011F028F9044905480123642280
:109C3000FDF758FB012008BD7D9B0200C1A1020079
:109C400018D600202DE9F04FAC4D8FB0CDE90C2394
:109C500012F03DF8D5E900BC0024B0EB0B0240F651
:109C6000B83064EB0C030021904271EB0303A24671
:109C7000A146A0462746264665DB12F028F8D5E91E
:109C80000023811A63EB430300910193DDE9002374
:109C9000B2F5C87F73F1000360DA12F018F8D5E965
:109CA0000023811A63EB430302910393DDE902343D
:109CB000B3F5C87F74F1000375DA12F008F8D5E93E
:109CC0000023811A63EB430304910593DDE9043417
:109CD000B3F5167F74F1000380F2888011F0F7FF6E
:109CE000D5E90023811A63EB430306910793DDE96D
:109CF0000634B3F5487F74F1000380F29D8011F0C3
:109D0000E6FFD5E90023811A63EB43030891099329
:109D1000DDE90834B3F5966F74F1000380F2AF808B
:109D200011F0D5FFD5E90023811A63EB43030A91B3
:109D30000B93DDE90A34B3F5AF6F74F1000380F2E1
:109D4000BF80072474E0092011F0BAFF002894D1E5
:109D50006B4B1B78002B90D0022469E0684B1B787A
:109D6000012B9AD1092011F0ABFF012895D14FF0BA
:109D7000000BC82C11D0092011F0A2FF012808BF48
:109D80000BF1010B4FF0010004F1010408BF5FFA71
:109D90008BFBE4B21BF04CFDEBE7BBF1C60F7FF68B
:109DA0007CAF002444E0564B1B78022B85D1092060
:109DB00011F086FF012880D10024BAF1C80F10D01D
:109DC000092011F07DFF012808BF01344FF0010088
:109DD0000AF1010A08BFE4B25FFA8AFA1BF028FD13
:109DE000EBE7C62C7FF669AF012421E0444B1B78DA
:109DF000032BDCB27FF472AF4FF0000AB9F1C80F49
:109E000012D0092011F05CFF012808BF0AF1010AF5
:109E10004FF0010009F1010908BF5FFA8AFA5FFA01
:109E200089F91BF005FDE9E7BAF1C60F7FF656AFD9
:109E300020460FB0BDE8F08F314B1B78042BDCB20D
:109E40007FF45DAF4FF00009B8F1C80F12D00920C0
:109E500011F036FF012808BF09F101094FF0010098
:109E600008F1010808BF5FFA89F95FFA88F81BF06A
:109E7000DFFCE9E7B9F1C60F7FF641AFD8E7204B29
:109E80001B78052BDCB27FF44BAF4FF00008C82FD6
:109E900011D0092011F014FF012808BF08F10108B2
:109EA0004FF0010007F1010708BF5FFA88F8FFB221
:109EB0001BF0BEFCEBE7B8F1C60F7FF631AFB7E79A
:109EC0000F4B1B78062BDCB27FF43BAF0025C82E6E
:109ED0000FD0092011F0F4FE012808BF01354FF022
:109EE000010006F1010608BFEDB2F6B21BF0A0FCBE
:109EF000EDE7C62D7FF625AF9AE700BF50D80020CA
:109F000059D8002073B58C4D8C4C2A7A237A9A420A
:109F100030D003F0C5FC8A4803F09CFB6A68AB7A3A
:109F2000884862602A89A372228103F05BFC86481C
:109F300003F058FC03F0EAFC01F002FF40F6B830F1
:109F40001BF076FC237A8148012B4FF000014FF083
:109F5000320640F0A08011F092F800227C48009672
:109F60000A23114611F0E3F87A4811F0C2F87A4852
:109F700011F0D8FAAA7AA37A9A4206D02B7A022B49
:109F80000CBF0120002002F097FC6A6863689A42C7
:109F900007D1AB68A268534023F07F4323F0FF034F
:109FA000ABB103F07DFC674803F01CFC664803F08E
:109FB00019FC03F0ABFC6B6863606B7A6372AB7A7D
:109FC000A37201F0BDFE40F6B8301BF031FC6348CF
:109FD00011F0D8F900286BD0614811F05FF9614B9E
:109FE0001978884205D000395D4818BF012111F069
:109FF00057F95D4811F064F95C4B1978884202D03A
:10A00000594811F05FF95A4811F06CF9594B197819
:10A01000884202D0564811F067F9574D57482E78BC
:10A0200011F072F986420BD02978544811F078F972
:10A0300032230122009346480A23114611F077F893
:10A0400003F02EFC237A012B6FD0022B6FD013B9B3
:10A050004B4803F0C7FB4FF47A7362684949B2FB7F
:10A06000F3F249480EF00CFA474803F0BBFB626874
:10A0700022B100234548194611F08BFA637A002B70
:10A0800057D0424800234EF66022022102B0BDE8BC
:10A09000704011F07EBA10F0F2FF012200960A2300
:10A0A00011462B4811F043F82C4811F06FF95EE788
:10A0B000374D3848296810F09CFF364810F097FF5C
:10A0C0002968884202D0334810F093FF324810F0DC
:10A0D0009FFF324B1978884202D02F4810F09AFF28
:10A0E0002F4D30482E7810F0A4FF864203D02978F7
:10A0F0002C4810F0A0FF2C4810F0ACFF2B4B197827
:10A10000884202D0284810F0A7FF294810F0B5FF78
:10A11000284B1978884202D0254810F0BFFF4FF62F
:10A12000FD710A4810F0ABFF8AE7234891E7234806
:10A130008FE702B070BD00BFCCA10020F8A20020C4
:10A14000042507000B2507001B250700AEE40020AF
:10A1500089E40020C4E40020E8E30020ADE400200E
:10A1600095E400205BD8002098E400205DD8002012
:10A17000A0E400205ED800205CD80020AAE40020E3
:10A18000F21E0700131F070013D5002051E4002022
:10A1900068D80020B9E40020BAE400206CD8002080
:10A1A00063D80020BBE40020BCE4002064D8002079
:10A1B000BEE400206DD80020B91E0700011F070073
:10A1C000F7B5FFF73FFD062800F2C686DFE810F07E
:10A1D0001F06C0030700C001D3006E003200954B7C
:10A1E000954A00241C70954B00200021C3E9000112
:10A1F0009349944811F0ACFC9349924811F0A8FCA3
:10A200009249904811F0A4FC8F49914811F0A0FCAC
:10A210008E498F4811F09CFC64201BF009FB8D4B8C
:10A220001B782BB1204603B0BDE8F04003F076BBAD
:10A230000120F8E77F4B00221A70804B002000219C
:10A24000C3E90001844B1B78002B00F08586834C0A
:10A250002378052B0DD1824B8248997A10222270E7
:10A2600001915B7A00938049804B09781B7803F059
:10A270007BFB714A7249734811F06AFC22787C4971
:10A28000704811F065FC71496E4811F061FC22784C
:10A2900077496F4811F05CFC6C496D4811F058FC2F
:10A2A000642003B0BDE8F0401BF0C2BA614B00224D
:10A2B0001A70624B00200021C3E90001664B1B7835
:10A2C000002B4ED0654C2378042B30D0052B3ED08C
:10A2D0008BB9684811F056F80128614B1CD1997A66
:10A2E00065480422227001915B7A644900930978E1
:10A2F000FF2303F039FB504A5149524811F028FC22
:10A3000022785F494F4811F023FC50494D4811F025
:10A310001FFC22785A49BCE7997A5A4805222270D4
:10A3200001915B7A584900930978FF23E1E70723FD
:10A330005648237010F0E8FF494A937A0193537A04
:10A3400000932278C3B2484946480978D1E7444B84
:10A350000E22997A227001915B7A00934C4B1B7804
:10A36000F1E703F09DFA4B4803F074F903B0BDE840
:10A37000F0401BF074BA2F4B00221A702F4B0020B4
:10A380000021C3E90001344B1B78002B00F0D5807D
:10A39000324C2378062B23D8DFE813F00700150092
:10A3A000330041008C00BD00C7002D4903220B7A09
:10A3B000887A22700190497A00910233DBB23649E3
:10A3C000364809780AE0264B3548997A00222270EF
:10A3D00001915B7A334900930978FF2303F0C4FAB3
:10A3E000154A1749174811F0B3FB22782E49154832
:10A3F00011F0AEFB1549134811F0AAFB22782A4947
:10A4000047E7174A2949537A294883F001035372D1
:10A41000927ACDE90032FF2309780222DEE7104B61
:10A4200002221A729A7A01925B7A00930322042321
:10A43000C5E700BF59D80020F024070050D80020FD
:10A44000D01C070070E300202C250700E86A0700F5
:10A45000D4E30020A4A4002058D800205AD800201B
:10A46000CCA10020C4A10020C8A100206DD80020EC
:10A4700036250700ADE4002098A20020ACA2002001
:10A4800047250700C4A20020DCA20020AAE4002087
:10A4900064D80020582507006CA200205CA2002090
:10A4A000E0A20020F4A2002063250700C0A2002043
:10A4B000B0A200200A238248237010F025FFC0B20A
:10A4C0000C280ED8DFE800F0071B1B211B21211BE5
:10A4D0001B1B1B1B21007B4B00221A707A4B052291
:10A4E0001A707A4A7A4B917A1B780191527A0092CB
:10A4F0000A332278DBB27749774809786EE7714BE7
:10A5000000221A70704B0722EAE76E4B00221A7085
:10A510006D4B0A22E4E76D4B0D22997A227001916E
:10A520005B7A00936D4B1B78E5E7684B9A7A019252
:10A530005B7A009306220023DDE703F0B1F9684857
:10A5400003F088F8674803B0BDE8F04010F0EABFB8
:10A55000654B00221A70654B00240025C3E90045B5
:10A56000634B1B78002B00F08381624C2278102A09
:10A570002BD8DFE812F011001D003B00460053000D
:10A5800084009100DD002A00060119012E0140011E
:10A5900050015F012A006D014C4B0222997A227012
:10A5A00001915B7A0093FF235349544809780AE0EC
:10A5B000464B5348997A0022227001915B7A5149A7
:10A5C00000930978FF2303F0CFF94F4A4F495048D1
:10A5D00011F0BEFA22784F494D4811F0B9FA4E49B0
:10A5E0004B4811F0B5FA22784A4952E6374A937A35
:10A5F00083F0010393720193537A00930222FF23A5
:10A60000D2E7324B4549464801221A729A7A0192A2
:10A610005B7A0093032309781A46D4E70923284874
:10A62000237010F071FEC0B20C2814D8DFE800F0DF
:10A6300007070707070D1E07242424241E00394B93
:10A6400000221A70384B052204E0364B00221A70A3
:10A65000354B04221A701D4A1D4B917A1B780191CB
:10A66000527A00920A33DBB2227811E02D4B00229D
:10A670001A702D4B0622EDE72A4B0222E1E7134B1D
:10A680000C22997A227001915B7A0093274B1B78F8
:10A6900010491148097896E70C4B5A6842B142F2CA
:10A6A0000F718A428ABFA2F51C520022103A5A60EA
:10A6B0009A7A01925B7A00930622FF23E8E700BFB3
:10A6C000AAE4002062D8002060D80020CCA100209D
:10A6D0005DD80020C8A10020C4A1002063D80020BC
:10A6E00074250700E8E3002059D8002050D8002046
:10A6F00058D800205AD80020C0A20020B0A20020C4
:10A70000E0A20020F4A20020F0240700D01C0700E3
:10A7100070E3002084250700E86A07006CA200208F
:10A720005CA2002061D800205FD800206CD80020F7
:10A730006C4D2B781BB3013BDBB26B4A6B496C4809
:10A740002B7011F005FA2A786A49694811F000FA6D
:10A750006949674811F0FCF92A786649674811F0A1
:10A76000F7F96549654811F0F3F964201BF060F8CA
:10A77000634B9A7A01925B7A00932B7874E70C23EF
:10A78000DBE7604A60491378097899420BBF5F4B59
:10A7900003F1FF331B78DBB21370594A917A0191B0
:10A7A000527A0092092273E7594A5A491378097874
:10A7B00099420BBF584B03F1FF331B78DBB2137088
:10A7C0004F4B9A7A01925B7A00934E4B0A221B7888
:10A7D0005EE7524A52491368A3F5C333A03B8B424C
:10A7E00098BF504B1360464B9A7A01925B7A009364
:10A7F0000B22FF234CE74C490B78062B1CBF03F1BF
:10A80000FF33DAB23E4B0A70997A01915B7A00937A
:10A8100013460C223CE7454A13784BB1013BDBB2AF
:10A820001370374A917A0191527A00920D222FE7E4
:10A830000923F5E73E4A117809B1481EC0B21070ED
:10A840002F4A937A0193537A00930E2203461FE70F
:10A85000384A1378052B1ABF03F1FF33DBB21623F6
:10A860001370274A917A0191527A009210220FE7D1
:10A87000314B1B78002B40F06F83304B1B7813B9A2
:10A88000012003F04BF8184A1849194811F060F9F3
:10A890002B49174811F05CF91749154811F058F980
:10A8A0002749164811F054F91349144811F050F98A
:10A8B00064201AF0BDFF0021224810F074FE224BE4
:10A8C000012200201A70FCF7EBFD204B5A68002A89
:10A8D00000F0428300231B48194603B0BDE8F04056
:10A8E00010F057BE5CD80020F0240700D01C0700F1
:10A8F00070E300207A250700E86A0700D4E300200F
:10A90000CCA100205DD8002061D800205FD80020B5
:10A910005ED8002062D8002060D8002068D80020CF
:10A920007F47A1198047A1196CD8002063D8002067
:10A9300064D800206DD800202DD60020A4A40020CB
:10A940009525070051E4002001D50020F8A2002041
:10A95000A94BAA4DAA4C00221A70AA4B0021002034
:10A96000C3E900012978002940F0E480A64810F0EE
:10A970001AFE0121A44810F016FEA348022110F08F
:10A9800012FEA24B1B7813B9012002F0C7FF01236E
:10A990009F4A2B70002323709E4B917A5068128936
:10A9A00058601A819C48997210F0ECFC05469B4A4D
:10A9B0009B499C48002D42D011F0CAF89A49994809
:10A9C00011F0C6F89949974811F0C2F8964998488D
:10A9D00011F0BEF89549964811F0BAF864201AF0C3
:10A9E00027FF944810F06CFC934B1870934810F0BC
:10A9F0008BFC934B1870934810F050FC924B1870DE
:10AA0000924810F06FFC924B18700023CDE9003390
:10AA1000227890499048097802F0A6FF7F4A804941
:10AA2000804811F095F822788C497E4811F090F812
:10AA30007E497C4811F08CF82278884929E411F08D
:10AA400087F87949774811F083F87849754811F00B
:10AA50007FF87549764811F07BF87449744811F015
:10AA600077F864201AF0E4FE29467D487D4D10F009
:10AA700006FB7D4810F0BBFA28607C4810F0C8FA4D
:10AA80007B4B18707B4810F0D4FA7B4B18707B48D6
:10AA900010F0E0FA7A4B18707A4810F0EEFA7A4B20
:10AAA0005E4A18705E495F4811F052F8286846F017
:10AAB000BDFB4FA3D3E9002346F04CFD06466A4890
:10AAC0000F4610F094FA46F0B1FB49A3D3E90023F6
:10AAD00046F040FD32463B46CDE900016B49514806
:10AAE00011F036F851494F4811F032F8286846F015
:10AAF0009DFB3FA3D3E9002346F02CFD06465A48B0
:10AB00000F4610F074FA46F091FB39A3D3E9002305
:10AB100046F020FD3246CDE900013B465B49444802
:10AB200011F016F84149424811F012F864201AF069
:10AB30007FFE6AE72378102B3FF670AF01A252F830
:10AB400023F000BF89AB02009BAB0200ADAB02005B
:10AB5000B1AB0200CBAB0200E9AB0200F5AD0200E5
:10AB6000A1AC0200F5AC020011AD020035AD02004F
:10AB700059AD02007DAD02009BAD0200B9AD0200EF
:10AB80001DAA0200D7AD02000122224B2270997A41
:10AB900001915B7A0093FF2322E01E4B0022997AF9
:10ABA000227001915B7A0093FF2332E70622ECE7E3
:10ABB000184B3749374800221A729A7A01925B7A09
:10ABC000009309780223032226E712491E4B887A54
:10ABD0001B78082222700190497A00910A33DBB277
:10ABE0002D492E48097817E70B22CEE7AFF30080F6
:10ABF0000000000084D7974159D8002058D8002081
:10AC00005AD8002050D8002051E40020A4A40020ED
:10AC1000F8A20020CCA10020ADE40020F024070021
:10AC2000D01C070070E30020AB250700E86A07008E
:10AC3000D4E3002098E400205DD80020AAE400209E
:10AC40005CD8002095E400205BD80020A0E4002020
:10AC50005ED80020F4A20020E0A20020CE2507004C
:10AC6000AEE4002068D80020B9E40020BAE4002057
:10AC70006CD80020BBE4002063D80020BCE4002096
:10AC800064D80020BEE400206DD80020C025070055
:10AC90006CA200205CA20020C8A10020C4A100205A
:10ACA000874D884A2B78884988480C2B1ABF013376
:10ACB000DBB200232B7010F04BFF2A7884498348C5
:10ACC00010F046FF8349814810F042FF2A788049FE
:10ACD000814810F03DFF7F497F4810F039FF642024
:10ACE0001AF0A6FD7D4B9A7A01925B7A00932B783D
:10ACF000227875E77A4A1378B3FA83F35B09137005
:10AD0000764A917A0191527A00920A33082267E7D3
:10AD1000744A75491378097899420BBF734B013314
:10AD20001B78DBB213706D4A917A0191527A0092CE
:10AD3000092255E76E4A6F491378097899420BBF8B
:10AD40006D4B01331B78DBB21370644A917A019129
:10AD5000527A00920A2243E7684A6949136803F568
:10AD6000C333A0338B4294BF136011605B4B9A7A5C
:10AD700001925B7A00930B22FF2331E7614A13783B
:10AD80000C2B1ABF0133DBB206231370534A917A9E
:10AD90000191527A00920C2222E75B4A1378092B28
:10ADA0001ABF0133DBB2002313704C4A917A019130
:10ADB000527A00920D2213E7544A1378032B1ABFDC
:10ADC0000133DBB200231370444A917A0191527A25
:10ADD00000920E2204E74E4A1378162B1ABF013355
:10ADE000DBB2052313703D4A917A0191527A0092A9
:10ADF0001022F5E6394A536803F51C5310335360AB
:10AE0000937A0193537A009306220023E8E6414B9C
:10AE100000221A70404B00200021C3E900013F4B83
:10AE20001A78002A00F098803D4C2278102A0ED81B
:10AE3000DFE802F0091F1F1F1F1F862D2D2D2D3942
:10AE40003939390D390000221A70FFF75BF81D4AB5
:10AE50001D491E4810F07CFE227832491B4810F034
:10AE600077FE1C49194810F073FE22782D49FFF730
:10AE700010BA1A4B2C48997A0022227001915B7A01
:10AE80002A4900930978FF2302F06EFDDFE7134B98
:10AE90002748997A0422227001915B7A2549009310
:10AEA0000978FF23F0E70D4B2348997A0522227099
:10AEB00001915B7A214900930978FF23E4E700BF01
:10AEC0005CD80020F0240700D01C070070E30020AD
:10AED0007A250700E86A0700D4E30020CCA100200F
:10AEE0005BD800205DD800205FD8002061D800200A
:10AEF0005ED8002060D8002062D8002068D80020EA
:10AF0000007038396CD8002063D8002064D8002045
:10AF10006DD8002059D8002050D8002058D80020E3
:10AF20005AD80020DF250700E0A20020F4A200206C
:10AF300098A20020ACA20020C4A20020DCA2002025
:10AF4000064B0748997A0222227001915B7A0549E3
:10AF500000930978FF2397E703B0F0BDCCA1002050
:10AF6000B0A20020C0A20020494B1B7870B5CBB91D
:10AF7000484A4949494810F0EBFD4949474810F013
:10AF8000E7FD4849454810F0E3FD4549464810F0C3
:10AF9000DFFD4449444810F0DBFD64201AF048FC12
:10AFA00002244EE0556E012DFAD116683F49304615
:10AFB0000DF093FA0446002845D13A49374810F07D
:10AFC000C7FD3849354810F0C3FD3649364810F002
:10AFD000BFFD3449344810F0BBFD64201AF028FC52
:10AFE0002146334810F0DFFA2946314810F0DBFAE9
:10AFF00002212F4810F0D7FA02F052FC2D4802F03F
:10B0000029FB2D4802F0EEFB2C4802F0EBFB02F08E
:10B010007DFC03F0B7FE2349204810F099FD21493B
:10B020001E4810F095FD1F491F4810F091FD1D4965
:10B030001D4810F08DFD64201AF0FAFB204810F036
:10B0400071FA204670BD1F4930460DF046FA04469D
:10B050000028A5D11C4B014615481D7010F0A3FA1D
:10B060002946134810F09FFA0221114810F09BFA6C
:10B0700002F016FC0F4802F0EDFA144802F0B2FBA1
:10B080000E4802F0AFFB02F041FC03F02DFBD5E7C8
:10B090000ED500204C260700D01C070070E30020CE
:10B0A00053260700E86A0700D4E30020698A0700F6
:10B0B00051E4002004250700672607001B25070030
:10B0C000E8E300206970070058D8002077260700C1
:10B0D00070B598B014460A490EA810F0B3FB0023CF
:10B0E000CDE91433CDE91633636E012B0CD105493C
:10B0F00020680DF0F2F948B1022400F0EDBC00BF69
:10B10000473C0700698A0700002BF5D1B649B748CC
:10B11000B74CB84DB84E10F01BFDB849B34810F00D
:10B1200017FDB149B64810F013FDB449B44810F00A
:10B130000FFD64201AF07CFB237AB24955F82320D6
:10B14000AA4810F005FDAD49A84810F001FD237A8A
:10B15000AC4955F82320AA4810F0FAFCA749A848A2
:10B1600010F0F6FC64201AF063FBA74911A810F058
:10B17000C3F911A90EA810F078FB11A810F01CFB60
:10B180000EA810F0B5FB0E9AA049984810F0E0FC0C
:10B190009A49964810F0DCFC0E9A9C49984810F0A9
:10B1A000D7FC9649964810F0D3FC64201AF040FB77
:10B1B000974911A810F080F9119A96498B4810F020
:10B1C000C7FC11A810F0F8FA8C49884810F0C0FCB0
:10B1D0008F4911A810F070F9119A8E49884810F023
:10B1E000B7FC11A810F0E8FA8449854810F0B0FCCB
:10B1F00064201AF01DFB4FF47A7562688649B2FB31
:10B20000F5F27A4810F0A4FC7C49784810F0A0FCD4
:10B2100062688149B2FBF5F2794810F099FC7749F0
:10B22000774810F095FC64201AF002FB7B4810F080
:10B23000A9F87B4956F8202005466C4810F088FC98
:10B240006E496A4810F084FC56F8252074496C4811
:10B2500010F07EFC69496A4810F07AFC64201AF00C
:10B26000E7FA012D40F04E836E486F4E6F4D10F09F
:10B2700013F86F49002814BF32462A465B4810F085
:10B2800067FC5E49594810F063FC664810F004F80A
:10B290006749002814BF32462A465948654E10F0C7
:10B2A00057FC5649564810F053FC64201AF0C0FA77
:10B2B000614810F029F86149054602464B4810F0F4
:10B2C00047FC4E49494810F043FC2A465B494C482C
:10B2D00010F03EFC49494A4810F03AFC64201AF04C
:10B2E000A7FA56F825205649404810F031FC43494A
:10B2F0003E4810F02DFC56F825205149404810F0EA
:10B3000027FC3E493E4810F023FC64201AF090FAD6
:10B310004C480FF0BAFF002800F0BE814A4933487C
:10B3200010F016FC3549314810F012FC46493448FB
:10B3300010F00EFC3149324810F00AFC64201AF07B
:10B3400077FA082214A941480FF07EFF9DF8573084
:10B3500005939DF8563004939DF8553003939DF85E
:10B36000543002939DF8533001939DF852309DF86C
:10B370005020374900931D489DF8513010F0E8FBEC
:10B380001E491A4810F0E4FB9DF8573005939DF8CC
:10B39000563004939DF8553003939DF85430029332
:10B3A0009DF8533001939DF852309DF85020284964
:10B3B000009313489DF8513010F0CAFB0F49104814
:10B3C00010F0C6FB64201AF033FA082214A92148B1
:10B3D0000FF016FF9DF8573005939DF856300493F3
:10B3E0009DF8553038E000BF9526070070E3002037
:10B3F000F8A20020C8A30020BCA30020E86A070030
:10B40000D4E30020A426070028E40020B226070089
:10B41000ECE3002095580700BD260700ADE40020AE
:10B42000CD26070094E40020DD670700872607008B
:10B43000DD26070088A30020AAE40020E8260700F4
:10B44000F326070093E40020FE2607008EE4002088
:10B45000082707008AE4002003939DF854300293E4
:10B460009DF8533001939DF852309DF850207D494E
:10B4700000937D489DF8513010F06AFB7B497A4873
:10B4800010F066FB9DF8573005939DF856300493F5
:10B490009DF8553003939DF8543002939DF8533036
:10B4A00001939DF852309DF850206E4900937048EA
:10B4B0009DF8513010F04CFB6C496D4810F048FB82
:10B4C00064201AF0B5F9102214A96A480FF0A1FE01
:10B4D0009DF85F300D939DF85E300C939DF85D30C4
:10B4E0000B939DF85C300A939DF85B3009939DF8AF
:10B4F0005A3008939DF8593007939DF858300693B9
:10B500009DF8573005939DF8563004939DF85530BB
:10B5100003939DF8543002939DF8533001939DF8A6
:10B5200052309DF85020544900934F489DF85130B7
:10B5300010F00EFB4D494C4810F00AFB9DF85F30AF
:10B540000D939DF85E300C939DF85D300B939DF844
:10B550005C300A939DF85B3009939DF85A3008934C
:10B560009DF8593007939DF8583006939DF8573051
:10B5700005939DF8563004939DF8553003939DF83C
:10B58000543002939DF8533001939DF8523000934C
:10B590009DF850209DF851303749354810F0D8FAC1
:10B5A00032493348354E364D10F0D2FA64201AF045
:10B5B0003FF934492C4810F0CBFA2C492A4810F0B6
:10B5C000C7FA30492A4810F0C3FA2849284810F031
:10B5D000BFFA64201AF02CF9227A2B49224810F085
:10B5E000B7FA2249204810F0B3FA227A26492048B7
:10B5F00010F0AEFA1D491E4810F0AAFA64201AF0A5
:10B6000017F9627A21491848002A14BF32462A469F
:10B6100010F09EFA1549144810F09AFA627A1B4904
:10B620001348002A14BF32462A4610F091FA0F49F7
:10B630000F48174E10F08CFA64201AF0F9F81548EC
:10B640001AF00EFC0025B4F88C20EBB2934205F101
:10B65000010580F23D8223443046D97A1AF000FC7D
:10B66000F1E700BF3027070070E30020E86A070019
:10B67000D4E300208BE4002058270700922607001F
:10B6800028250700B9280700C9280700D728070080
:10B69000C3AB0700E82807009049914810F058FA1A
:10B6A00090498F4810F054FA8C498F4810F050FAA6
:10B6B0008C498D4810F04CFA64201AF0B9F814A99E
:10B6C00010228A480FF0AEFD9DF85F300D939DF873
:10B6D0005E300C939DF85D300B939DF85C300A93BF
:10B6E0009DF85B3009939DF85A3008939DF85930C6
:10B6F00007939DF8583006939DF8573005939DF8B1
:10B70000563004939DF8553003939DF854300293BE
:10B710009DF8533001939DF852309DF850200093CE
:10B7200073499DF851306E4810F012FA6D496C481B
:10B7300010F00EFA9DF85F300D939DF85E300C937B
:10B740009DF85D300B939DF85C300A939DF85B305B
:10B7500009939DF85A3008939DF8593007939DF846
:10B76000583006939DF8573005939DF85630049352
:10B770009DF8553003939DF8543002939DF8533053
:10B7800001939DF852309DF85020009358499DF840
:10B790005130554810F0DCF95249534810F0D8F9AF
:10B7A00064201AF045F814A9102252480FF055FDF4
:10B7B0009DF85F300D939DF85E300C939DF85D30E1
:10B7C0000B939DF85C300A939DF85B3009939DF8CC
:10B7D0005A3008939DF8593007939DF858300693D6
:10B7E0009DF8573005939DF8563004939DF85530D9
:10B7F00003939DF8543002939DF8533001939DF8C4
:10B8000052309DF8502000933B499DF85130344808
:10B8100010F09EF93349324810F09AF99DF85F30E4
:10B820000D939DF85E300C939DF85D300B939DF861
:10B830005C300A939DF85B3009939DF85A30089369
:10B840009DF8593007939DF8583006939DF857306E
:10B8500005939DF8563004939DF8553003939DF859
:10B86000543002939DF8533001939DF852309DF867
:10B870005020009320499DF851301B4810F068F982
:10B880001849194810F064F9642019F0D1FF14A97F
:10B8900004221A480FF0CFFC9DF8533001939DF815
:10B8A00052309DF85020009315499DF851300C48B6
:10B8B00010F04EF90B490A4810F04AF99DF8533040
:10B8C00001939DF8523000939DF850209DF851301F
:10B8D0000B49054810F03CF962E600BFA0270700BD
:10B8E00070E30020E86A0700D4E300208CE4002025
:10B8F000A927070090E40020F22707008DE400202C
:10B900003B2807007748002D40F09B800FF06FFB2D
:10B9100075490246754810F01BF97549734810F0D7
:10B9200017F970480FF063FB6F490246714810F039
:10B930000FF96F496F4810F00BF9642019F078FF88
:10B940006D480FF065FB6D490246684810F000F93C
:10B950006749664810F0FCF867480FF059FB6749E3
:10B960000246644810F0F4F86149624810F0F0F8BB
:10B97000642019F05DFF62480FF05BFB61490246ED
:10B980005A4810F0E5F85A49584810F0E1F85C4878
:10B990000FF04FFB5B490246564810F0D9F8544966
:10B9A000544810F0D5F8642019F042FF56480FF0C3
:10B9B00051FB564902464D4810F0CAF84C494B48D5
:10B9C00010F0C6F850480FF045FB50490246494870
:10B9D00010F0BEF84649474810F0BAF8642019F054
:10B9E00027FF4B480FF047FB4A4902463F4810F0FB
:10B9F000AFF83F493D4810F0ABF845480FF03BFB2E
:10BA0000444902463B4810F0A3F83949394810F040
:10BA10009FF8642019F00CFF3F480FF02EFB3F49C0
:10BA20000246324810F094F83149304810F090F84E
:10BA300039480FF022FB394902462E4810F088F8A9
:10BA4000AEE50FF0D4FA28490246284810F080F8F5
:10BA50002749264810F07CF822480FF0C8FA2249FE
:10BA60000246244810F074F82149224810F070F87A
:10BA7000642019F0DDFE2A480FF033FB2949024605
:10BA80001A4810F065F81A49184810F061F824486F
:10BA90000FF027FB23490246164810F059F81449C5
:10BAA000144810F055F8642019F0C2FE1E480FF03B
:10BAB0001AFB1E4902460D4810F04AF80C490B4883
:10BAC00010F046F818480FF00EFB18490246B4E78C
:10BAD00007481AF0C5F900240EA80FF06DFE2046A5
:10BAE00018B070BDB9E400205428070070E30020AE
:10BAF000E86A0700D4E30020BAE4002063280700C6
:10BB0000BBE400206B280700BCE40020732807007A
:10BB1000BDE400207B280700BEE400209028070039
:10BB2000C2E400209E280700C3E40020AB280700E1
:10BB30002DE9FF41536E012B0D46144624D139499E
:10BB400010680CF0CAFC044620B10224204604B060
:10BB5000BDE8F08102F0EAFC294633480FF0C4FF4B
:10BB6000324931480FF0AEFF314A3249D37903935D
:10BB700093790293537901931379009393782A4828
:10BB800012880FF0E5FFE1E7052BDED1161F02F169
:10BB9000100756F8045F28460CF0B1FC2B462844E9
:10BBA000984205D013F8012B303A092AF8D9CCE78E
:10BBB000BE42EED10022114620680CF00DFE40F28C
:10BBC000D233A0F2E6729A420546BED800226068DF
:10BBD00011460CF001FE431E0B2B0646B5D8002281
:10BBE000A06811460CF0F8FD431E1E2B0746ACD88A
:10BBF0000022E06811460CF0EFFD18288046A4D81A
:10BC00000022206911460CF0E7FD3B289DD8C2B206
:10BC100000925FFA88F3FAB2F1B2A8B202F0C8FB60
:10BC2000002493E7698A070070E300201B3F0700A8
:10BC30002CDB0020F928070007B503230193054BEF
:10BC40000093054B054A064819460FF076FC03B0F1
:10BC50005DF804FBBDBF0200142907001C29070082
:10BC60004EE4002007B503230193054B0093054BD9
:10BC7000054A064819460FF060FC03B05DF804FB66
:10BC80006DC102006F290700742907004EE40020EF
:10BC900007B503230193054B0093054B054A06485E
:10BCA00019460FF04AFC03B05DF804FBA1C3020083
:10BCB000BF290700C42907004EE4002007B503236D
:10BCC0000193054B0093054B054A064819460FF0B2
:10BCD00034FC03B05DF804FB69AF0200EB290700F8
:10BCE000F02907004EE4002007B503230193054B1C
:10BCF0000093054B054A064819460FF01EFC03B099
:10BD00005DF804FB31BB0200062A07000A2A07007F
:10BD10004EE4002007B502230193054B0093054B29
:10BD2000054A064819460FF008FC03B05DF804FB0D
:10BD3000D1B00200312A0700382A07004EE4002063
:10BD400030B58C4CE7B060680B21FDF7F5FE8A4AF0
:10BD50008A4905468A480FF0FBFE2A4689498848E9
:10BD60000FF0F6FE884986480FF0F2FE2A46854914
:10BD700086480FF0EDFE844984480FF0E9FE642008
:10BD800019F056FD8249902201A80BF00BFE626863
:10BD9000ADF80450B4F88C5002922289A37AADF821
:10BDA0000C2004F10B012A460DF10F008DF80E3026
:10BDB0000BF0F8FD704A71497148ADF890500FF0E2
:10BDC000C7FE029A73496E48734D744C0FF0C0FE63
:10BDD0006D496B480FF0BCFE029A6E496B480FF03C
:10BDE000B7FE694969480FF0B3FE642019F020FDE1
:10BDF000614A624962480FF0ABFE9DF80C20684929
:10BE00005F480FF0A5FE60495D480FF0A1FE9DF868
:10BE10000C2063495D480FF09BFE5B495B480FF0C7
:10BE200097FE642019F004FD534A544954480FF01A
:10BE30008FFE9DF80D205B495148002A14BF2A4609
:10BE400022460FF085FE50494D480FF081FE9DF8C7
:10BE50000D2054494D48002A14BF2A4622460FF0AF
:10BE600077FE494949480FF073FE642019F0E0FC61
:10BE7000414A424942480FF06BFE9DF80E204A4964
:10BE80003F48002A14BF2A4622460FF061FE3E4971
:10BE90003B480FF05DFE9DF80E2043493B48002AC9
:10BEA00014BF2A4622460FF053FE374937483F4D0C
:10BEB0000FF04EFE0024642019F0BAFCFE22214649
:10BEC00026A825940BF07CFDBDF89030E0B2984296
:10BED00004F1010409DA01AB03442946DA7A25ABFF
:10BEE00003EB40000CF0CCFAEEE7234A2349244848
:10BEF0000FF02EFE25AA2E4921480FF029FE2249D7
:10BF00001F480FF025FE25AA294920480FF020FEE2
:10BF10001D491E480FF01CFE642019F089FC164ACA
:10BF2000164917480FF014FEBDF890202149144817
:10BF30000FF00EFE144912480FF00AFEBDF89020D3
:10BF40001C4912480FF004FE0F4910480FF000FE84
:10BF5000642019F06DFC1848902301AA00210FF00D
:10BF600004FB28B901469023134801AA0FF0FDFAFB
:10BF700067B030BDF8A200204C260700D01C070097
:10BF800070E30020532A0700E86A0700D4E300208A
:10BF9000682D0700672A0700922607004F2A07002E
:10BFA000852A07009B2A0700B42A0700C3AB0700B5
:10BFB000CE2A0700E72A07004FE40020F8B5536EA9
:10BFC000012B0E46154664D15B4910680CF085FACA
:10BFD0000446F8B9594F5A497B685A4832464FF4DB
:10BFE0007A75B3FBF5F30FF0B3FD574955480FF0E1
:10BFF000AFFD7B685249B3FBF5F3324653480FF06F
:10C00000A7FD514951480FF0A3FD642019F010FC21
:10C010002046F8BD4E4A4F494A480FF099FD2A681C
:10C020004D4948480FF094FD474946480FF090FDB0
:10C030002A68494945480FF08BFD434943480FF0B2
:10C0400087FD642019F0F4FB2D6828460CF057FAA0
:10C050000024844221D02B5D303B092B1BD93C4A64
:10C060003C4938480FF074FD22463C4935480FF0F2
:10C070006FFD354933480FF06BFD38493348224690
:10C080000FF066FD304931480FF062FD642019F071
:10C09000CFFB0224BCE70134DBE70A22002128465B
:10C0A0000CF09AFB2A4A2B49244D044625480FF0F0
:10C0B0004FFD22462A4923480FF04AFD22492148D4
:10C0C0000FF046FD2246264920480FF041FD1E494B
:10C0D0001E480FF03DFD642019F0AAFB4FF47A7062
:10C0E0001B4A1C49444317486C600FF031FD6A68D5
:10C0F0001C4914480FF02CFD134912480FF028FD7D
:10C100006A68184911480FF023FD0F490F480FF0D6
:10C110001FFD642019F08CFB134800210FF043FA37
:10C120006A6822B10023104819460FF032FAFFF76F
:10C1300007FE00246CE700BF698A0700F8A2002010
:10C14000042B070070E30020E86A0700D4E3002016
:10C150004C260700D01C07000B2B0700202B0700E4
:10C160002F2B0700462B070051E40020536E012BB4
:10C1700070B50E46154601D002241DE079491068BD
:10C180000CF0ABF90446C8B9774D78492B7A78485A
:10C1900032460FF0DDFC774975480FF0D9FC2B7A59
:10C1A0007249754832460FF0D3FC724972480FF05D
:10C1B000CFFC642019F03CFB204670BD6F4A7049EB
:10C1C0006B480FF0C5FC2A686E4969480FF0C0FC47
:10C1D000684967480FF0BCFC2A686A4966480FF056
:10C1E000B7FC644964480FF0B3FC642019F020FBED
:10C1F0002D6828460CF083F90024844220D02B5D62
:10C20000303B092B1AD95D4A5D4959480FF0A0FC13
:10C2100022465D4956480FF09BFC564954480FF0A2
:10C2200097FC2246584954480FF092FC5149524815
:10C230000FF08EFC642019F0FBFA9DE70134DCE777
:10C240000A22002128460CF0C7FA474E4B4A4C49B7
:10C25000347A054646480FF07BFC2A464B49444851
:10C260000FF076FC434942480FF072FC2A464749DA
:10C2700041480FF06DFC3F493F480FF069FC6420D6
:10C2800019F0D6FA022D3FF677AFA54201D100246E
:10C2900092E71CB9012D04D001241BE0012CFBD135
:10C2A000C5B9364A364932480FF052FC3849304851
:10C2B0000FF04EFC2F492E480FF04AFC34492E480F
:10C2C0000FF046FC2B492C480FF042FC642019F07B
:10C2D000AFFA0024294A2A49254835720FF038FC64
:10C2E000327A2C4922480FF033FC224920480FF0C3
:10C2F0002FFC327A274920480FF02AFC1D491E489E
:10C300000FF026FC642019F093FAFFF719FD337A39
:10C31000012B21D0022B22D00BB9FCF72FFC002CD3
:10C32000B5D01D4912480FF013FC124910480FF008
:10C330000FFC194910480FF00BFC0E490E480FF086
:10C3400007FC642019F074FA41F2883019F070FA91
:10C3500012480FF0E7F89AE7FCF790FCDFE7FCF7EC
:10C36000F9FCDCE7698A0700F8A20020572B0700D8
:10C3700070E30020E86A0700D4E300204C260700A1
:10C38000D01C07000B2B0700202B07005D2B07009C
:10C39000702B07008A2B07009C2B0700E8E3002086
:10C3A000536E012B2DE9F0410E46154678D1D2F897
:10C3B00000803F493F4F40460CF08FF8044688BB51
:10C3C000B7F88C30BBB932463B493C480FF0C0FB54
:10C3D0003B493A480FF0BCFB37493A4832460FF028
:10C3E000B7FB374937480FF0B3FB642019F020FA48
:10C3F0002046BDE8F08131463348344E19F030FD17
:10C400002546B7F88C20EBB2934205F1010505DA19
:10C410003B443046D97A19F023FDF2E7284819F059
:10C420001FFDE5E740460CF06AF8294A294906460F
:10C4300022480FF08DFB2A68274920480FF088FB1F
:10C440001F491E480FF084FB2A6823491D480FF03E
:10C450007FFB1B491B480FF07BFB642019F0E8F9B8
:10C46000286807F10B02314614F014F80446C8B1ED
:10C47000174A184911480FF06BFB18490F480FF085
:10C4800067FB0F490D480FF063FB14490D480FF08F
:10C490005FFB0B490B480FF05BFB642019F0C8F9F8
:10C4A0000224A5E77608A7F88C60FFF749FC9FE710
:10C4B000698A0700F8A20020B92B070070E300206A
:10C4C000E86A0700D4E30020C52B0700C3AB0700D0
:10C4D0004C260700D01C07000B2B0700C92B0700B8
:10C4E000F0B5B34C2378E7B01BB9FDF707FB012388
:10C4F0002370B049902201A80BF054FA01AA002140
:10C50000AD4890230FF027F80546AC4AAC49AD483A
:10C51000ADB90FF01DFBAC49AA480FF019FBAB49B0
:10C52000A8480FF015FBA849A9480FF011FBA7492F
:10C53000A7480FF00DFB642019F07AF94EE00FF0D8
:10C5400007FBBDF80420A3499E48A34C0FF000FB55
:10C550009E499C480FF0FCFABDF804209D499C4878
:10C560000FF0F6FA99499A480FF0F2FA642019F0A0
:10C570005FF902980B21FDF7DFFABDF80430834222
:10C5800006462ED08D4A8E498E480FF0E1FABDF84E
:10C59000043092498B4832460FF0DAFA8B498948C9
:10C5A0000FF0D6FABDF804308C49894832460FF0B6
:10C5B000CFFA864986480FF0CBFA642019F038F993
:10C5C00000254FF08073C4E9015340F20233A38188
:10C5D0000423A373A4F88C30FFF7B2FB284667B09E
:10C5E000F0BD029B63609DF80C30022B40F2DD80B1
:10C5F000724A734973480FF0ABFA9DF80C207849E2
:10C6000070480FF0A5FA71496E480FF0A1FA9DF835
:10C610000C2073496E480FF09BFA6C496C480FF080
:10C6200097FA642019F004F900232372FFF788FBBE
:10C63000BDF890209DF80D306372802A9DF80E3071
:10C64000A37240F2DF805D4A5D495E480FF080FAD8
:10C65000BDF8902063495B480FF07AFA5B4959486E
:10C660000FF076FABDF890205E4959480FF070FA45
:10C67000564957480FF06CFA642019F0D9F8002396
:10C68000E372A4F88C304D4A4D494E48564F574EF0
:10C690000FF05EFA626856494A480FF059FA4B4962
:10C6A00048480FF055FA6268514949480FF050FA6E
:10C6B000464947480FF04CFA642019F0B9F83F4A50
:10C6C0003F4940480FF044FA227A4A493D480FF06A
:10C6D0003FFA3E493B480FF03BFA227A45493C4835
:10C6E0000FF036FA39493A480FF032FA642019F05F
:10C6F0009FF8324A324933480FF02AFA627A3E49AB
:10C700003048002A14BF3A4632460FF021FA2F492A
:10C710002C480FF01DFA627A37492D48002A14BFC1
:10C720003A4632460FF014FA284929480FF010FA19
:10C73000642019F07DF8214A214922480FF008FAB7
:10C74000A27A2E491F48002A14BF3A4632460FF0FB
:10C75000FFF91E491B480FF0FBF9A27A27491C4834
:10C76000002A14BF3A4632460FF0F2F9174918482A
:10C77000234F0FF0EDF90026642019F059F8FE223E
:10C78000314626A825960BF01BF9B4F88C30F0B290
:10C79000984206F101063DDA23183946DA7A25ABCC
:10C7A00003EB40000BF06CFEEFE7237240E700BFA5
:10C7B0006ED80020682D07004FE400204C260700AB
:10C7C000D01C070070E30020E22B0700E86A070096
:10C7D000D4E300200E2C0700F8A200201C2C070038
:10C7E0003F2C07005A2C0700922607004F2A07000B
:10C7F000762C07008E2C0700A12C0700B72C070011
:10C80000C3AB07000DF10F011A48A4F88C200BF000
:10C81000C9F838E7184A194919480FF099F925AAB3
:10C82000184917480FF094F9174915480FF090F977
:10C8300025AA144915480FF08BF9134913480FF036
:10C8400087F9642018F0F4FF0B4A0C490C480FF0EC
:10C850007FF9B4F88C200E4909480FF079F90A499C
:10C8600007480FF075F9B4F88C20094907480FF014
:10C870006FF95CE603A300204C260700D01C0700DC
:10C8800070E30020CE2C0700E86A0700D4E3002004
:10C89000DF2C070010B5074B53F82020002332F897
:10C8A00013408C42D8B203D80133102BF7D118466D
:10C8B00010BD00BF54A400202DE9F34101219F4E7B
:10C8C000074622200FF0F7F94FF4FA7018F0B0FF86
:10C8D0003578002D40F0AD8099499A48009540F296
:10C8E0004C43422207F0D0FE0446C0B9964A97490D
:10C8F00097480FF02DF9974995480FF029F9964977
:10C9000093480FF025F9934994480FF021F9924983
:10C9100092480FF01DF9642018F08AFF74E08A4AEB
:10C920008A498B484FF0020886F800800FF010F912
:10C930008B4987488B4E0FF00BF9874984480FF0DD
:10C9400007F9874985480FF003F9834983480FF0B9
:10C95000FFF8642018F06CFF7A4840F24C42012145
:10C9600007F0ACFC002F59D040F24C432A4601217D
:10C97000744807F01BFD40F24C43424601217148C8
:10C9800007F014FD40F24C43062201216D4807F0E8
:10C990000DFD0122114640F24C436A4807F006FDA6
:10C9A00040F24C4303220121664807F0FFFC40F2AD
:10C9B0004C4304220121634807F0F8FC40F24C4349
:10C9C00005226048012107F0F1FCB37A40F24C42A5
:10C9D000F3B105215B4807F0B8FE5A4840F24C43DA
:10C9E0002A46012107F0B8FD564840F24C4107F0B5
:10C9F0006BFC337A022B03D1B37A002B40F09B807F
:10CA0000002122200FF057F9204602B0BDE8F08146
:10CA10004FF4FA714B4807F0D9FEE5E740F24C427B
:10CA20004FF0FF31474807F06FFCFA2018F000FF85
:10CA3000DFE70025424943480095422240F24C433B
:10CA400007F022FE0446404A404941485CB90FF0D5
:10CA50007FF845493E480FF07BF83F493C480FF0CE
:10CA600077F8414950E70FF073F8404938480FF024
:10CA70006FF8394936480FF06BF83C4937480FF0EA
:10CA800067F8354935480FF063F8642018F0D0FE98
:10CA900040F24C4201212B4807F010FC40F24C437D
:10CAA0002A460121274807F081FC40F24C4302222C
:10CAB0000121244807F07AFC40F24C430622012170
:10CAC000204807F073FC0122114640F24C431D48F8
:10CAD00007F06CFC40F24C4303220121194807F097
