:020000022000DC
:10700000000004204D9F0300759F0300779F03003D
:10701000799F03007B9F03007D9F03000000000019
:107020000000000000000000000000007F9F03003F
:10703000819F03000000000000000000000000002D
:107040002D830500839F0300ADA105000589050080
:10705000839F03006D7F0500457D05005D6506008B
:10706000839F03004588050059880500839F03001E
:10707000839F0300839F0300839F0300839F03007C
:107080006172060045550500839F0300839F03003E
:10709000839F0300839F0300E55B0600839F03003B
:1070A000839F0300839F03006D880500818805008E
:1070B000839F0300839F0300000000000000000086
:1070C000839F0300839F0300839F0300996A060048
:1070D0005D850500839F0300839F0300BD9E05001F
:1070E000359F0600839F030075C606000000000060
:1070F00000000000839F030000000000696E06008E
:10710000000000000000000000000000000000007F
:10711000000000000000000000000000000000006F
:10712000000000000000000000000000000000005F
:10713000000000000000000000000000000000004F
:10714000000000000000000000000000000000003F
:10715000000000000000000000000000000000002F
:10716000000000000000000000000000000000001F
:10717000000000000000000000000000000000000F
:1071800000000000000000000000000000000000FF
:1071900000000000000000000000000000000000EF
:1071A00000000000000000000000000000000000DF
:1071B00000000000000000000000000000000000CF
:1071C00000000000000000000000000000000000BF
:1071D00000000000000000000000000000000000AF
:1071E000000000000000000000000000000000009F
:1071F000000000000000000000000000000000008F
:1072000010B5054C237833B9044B13B10448AFF3E0
:1072100000800123237010BDC0D4002000000000B6
:10722000C80C080008B5034B1BB103490348AFF372
:10723000008008BD00000000C4D40020C80C080075
:10724000154B002B08BF134B9D46A3F5803A002138
:107250008B460F461348144A121A10F069FB0F4B65
:10726000002B00D098470E4B002B00D098470020F1
:10727000002104000D000D48002802D00C48AFF397
:10728000008010F005FB2000290010F08BF810F0B2
:10729000EBFA00BF0000080000000420000000001E
:1072A00000000000C0D4002074C4012000000000D1
:1072B000000000000022C0E900220172704738B5CA
:1072C0000446006820B1856912F008FE2846F9E7F7
:1072D000204638BD006820B143688B4201D08069E8
:1072E000F9E77047F8B504460F4616461D46FFF706
:1072F000F1FF20B10123826005704370F8BD1C20AE
:1073000012F0F0FD012343700023C0E90333C0E90C
:10731000053323680570C0E9017613B92060606009
:10732000ECE763689861FAE72DE9F8430468164FC3
:1073300005460E464FF000081CB363680BB9A469FC
:10734000FAE72378002BFAD0E368A268F31A9A428E
:1073500002D961780029F2D09B1A636184F8018018
:10736000E66014F071FC63688146984714F06CFC89
:107370003B68A0EB0900206118442B7A3860002B91
:10738000DDD0BDE8F88300BFDCD4002008B5074B92
:1073900050B103221A700648FA22012114F0B1F804
:1073A000044B00221A7008BD0522F3E7E0D4002048
:1073B00051E200202DD60020054B064800221A700D
:1073C000054B08221A700121FA2214F09AB800BF66
:1073D0002DD6002051E20020E0D4002084B004AB80
:1073E00003E907000B4BBDF90A201A800A4B9DF9EF
:1073F0000C201A70094A0A48136801331360094BBC
:1074000000221A70084B0121FA22197004B014F0FE
:1074100078B800BF10D5002012D5002028D6002053
:1074200051E200202DD60020E0D40020124B002293
:107430001A70124B1B7A022B1DD0114B90F90620AB
:107440001A70104BB0F904201A800F4A0378137099
:107450000E4A417811700E4A817811701BB10D4AA5
:107460001368013313600C4B0C4804221A7001217D
:10747000FA2214F046B870472DD60020F8A200205A
:1074800012D5002010D5002015D6002013D60020DC
:1074900014D6002024D60020E0D4002051E20020A1
:1074A000F0B5864C864D237A864F0126022B85B097
:1074B0002E7040F03981844807F0A3FDA37A002B99
:1074C00000F0C4803B78814F3978002940F09780E4
:1074D00043B37F4B1B782BBB06F09AF97D4806F02F
:1074E00071F87D4806F036F9A37ADBB97B4A7C490E
:1074F0007C4814F0E5FA7C497A4814F0E1FA7B49BB
:10750000784814F0DDFA7849794814F0D9FA7749C7
:10751000774814F0D5FA64201EF042F93146222053
:1075200014F081FB05F0DCFA064600284BD0714BC5
:107530001B78DBB9694A6A496A4814F0C1FA6E4996
:10754000684814F0BDFA6949664814F0B9FA6A4906
:10755000674814F0B5FA6549654814F0B1FA64203B
:107560001EF01EF96548012113F0B5FE564807F0DC
:107570004BFD0390544807F049FD01230721CDE955
:107580000031024603995E4813F0A4FD0446C0B9D9
:10759000524A5349534814F093FA5A49514814F047
:1075A0008FFA52494F4814F08BFA5649504814F05C
:1075B00087FA4E494E4814F083FA64201EF0F0F822
:1075C0002C7005B0F0BD01233F483B7007F019FD5A
:1075D0004D4B4E481E8041F288326368B3FBF2F394
:1075E0004B4A13804B4B1E704B4B40F6C4121E701F
:1075F0000321334605B0BDE8F04013F082BF53B11C
:10760000334B1B783BB906F003F9324805F0DAFF3B
:10761000424806F09FF8314A3149324814F050FA96
:107620003F49304814F04CFA30492E4814F048FADB
:107630003B492F4814F044FA2C492D4814F040FAE5
:10764000642005B0BDE8F0401EF0AAB83B7853B105
:107650001F4B1B783BB906F0DBF81E4805F0B2FF64
:10766000304806F077F8002300931A46194616486A
:10767000B7EE000A07F0E8FB1E4B1B78002B7FF4E7
:1076800075AF01211D4813F026FE144A1449154810
:1076900014F016FA1849134814F012FA1349114855
:1076A00014F00EFA1449124814F00AFA0F4910485F
:1076B00014F006FA64201EF073F857E7F8A20020D1
:1076C0002DD600200DD5002004D500200CD500209B
:1076D00058D60020101C0700211C07003C1C070086
:1076E000401C070070E10020461C0700786A070074
:1076F000D4E100202CD60020541C0700ACE200206E
:1077000089E20020611C070078D6002051E20020A9
:107710007AD60020A8D60020A9D600207D1C07001C
:10772000911C0700A51C07003B784BB1AB4B1E78A2
:1077300036B906F06DF8AA4805F044FFA94B1E7053
:10774000A37A3BB105F0CCF920B9A74A0023136016
:10775000A64A1360A64813F0CDFD002800F014815E
:10776000A44813F051FD002800F0FE8001212420E0
:1077700014F059FAA04AA149A14814F0A1F9A1496D
:107780009F4814F09DF9A0499D4814F099F99D492E
:107790009E4814F095F99C499C4814F091F9642096
:1077A0001DF0FEFF9A4805F0D5FF9A4813F064FDDE
:1077B000B4F88C1080B205F025F89049964A064638
:1077C0008F4814F07DF9B4F88C209448039213F09C
:1077D0002FFD3346039A92490090894814F070F9BE
:1077E0008949874814F06CF9B4F88C208B480392CF
:1077F00013F01EFD039A8A4900903346834814F023
:107800005FF98149814814F05BF964201DF0C8FFDD
:10781000824813F00DFDB04254D37F4A774978482F
:1078200014F04EF97F49764814F04AF976497448C5
:1078300014F046F97B49754814F042F972497348CF
:1078400014F03EF964201DF0ABFF774B1B78DBB9D9
:10785000694A6A496A4814F033F97449684814F06F
:107860002FF96949664814F02BF97049674814F0FC
:1078700027F96549654814F023F964201DF090FF4D
:107880006B48012113F027FD01230722CDE90032C7
:107890006848694A94F88C10022313F01BFC0028F6
:1078A0007FF48FAE544A55492870554814F008F9B2
:1078B0006249534814F004F95349514814F000F94F
:1078C0005E49B6E63146554813F0B4FC4FF4FA7001
:1078D0001DF066FF504A4949494814F0F1F84F48F5
:1078E00013F0A6FC56490246454814F0E9F846490B
:1078F000434814F0E5F8494813F09AFC5049024611
:10790000424814F0DDF84049404814F0D9F86420AA
:107910001DF046FF3B786BB1304B1B7853B949489B
:1079200005F018FF48494948324610F061FD4748C4
:1079300005F010FF384A3149314814F0C1F8374892
:1079400013F076FC3E4902462D4814F0B9F82E4952
:107950002B4814F0B5F8314813F06AFC3849024658
:107960002A4814F0ADF869E7234A244928702448CE
:1079700014F0A6F83649224814F0A2F8224920480B
:1079800014F09EF8324954E60121232014F04BF9FB
:10799000194A1A491A4814F093F82E49184814F055
:1079A0008FF81949164814F08BF82A49174814F033
:1079B00087F81549154814F083F864201DF0F0FE8F
:1079C000134805F0C7FE01231B4A94F88C10224887
:1079D00013F02BFB01232B70F3E500BF58D60020DA
:1079E000B11C070001D500208CD6002088D60020CD
:1079F000ADE2002094E200203C1C0700401C070080
:107A000070E10020C21C0700786A0700D4E1002062
:107A1000CE1C0700AAE20020DC1C070098E2002030
:107A2000E31C0700171D07002CD60020541C07007C
:107A3000ACE2002089E2002003A30020611C0700C3
:107A4000471D07005E1D0700701D070013D50020AD
:107A5000791D0700971D0700AEE20020000000001E
:107A60002DE9F04F2DED028B00218DB0AE4E044676
:107A7000242014F0D8F80021232014F0D4F833780F
:107A80005BB1AA4B1B7843B905F0C2FEA849A948CF
:107A900010F0E5FCA74805F095FD44B9A649A748B4
:107AA00013F0FAFF0DB0BDEC028BBDE8F08F247827
:107AB000012C40F092813378DFF8FC82A04FA14E78
:107AC000002B00F0BD80994B1D78002D40F0B88050
:107AD0009D49984810F0C3FC964909A813F06AFE26
:107AE00009AA2946284605F0AFFE09A813F01CFE96
:107AF000D8F8002095498F4810F07AFC8D4909A8E4
:107B000013F058FE09AA2946204605F09DFE09A853
:107B100013F00AFE8E4813F022FA49F02FFB80A3DF
:107B2000D3E9002349F0CEFC0B460246894981483F
:107B300010F05EFC7F4909A813F03CFE09AA294613
:107B4000022005F081FE09A813F0EEFD824813F033
:107B500017FA82490246774810F04AFC754909A88D
:107B600013F028FE09AA2946032005F06DFE09A896
:107B700013F0DAFD7A4813F014FA092800F228818C
:107B8000DFE810F00A00C300C500C700C9001C01EF
:107B90001E01200122012401724907A810F05FFC98
:107BA0006F4813F0FEF9704B704953F8202061487C
:107BB00010F01EFC5F4909A813F0FCFD09AA402142
:107BC000032005F041FE09A813F0AEFD684813F04C
:107BD000F9F96849421D574810F00AFC554909A8AF
:107BE00013F0E8FD09AA4021022005F02DFE09A8A6
:107BF00013F09AFD3A8860494E4812B210F0F8FB33
:107C00004C4909A813F0D6FD09AA0021042005F06B
:107C10001BFE09A813F088FD32785849454852B236
:107C200010F0E6FB434909A813F0C4FD09AA40215E
:107C3000042005F009FE09A813F076FD05F01EFEEC
:107C40004F4B1B78002B2DD04E4B1B78002B00F098
:107C5000C18006F023FC4C4A4C4B11881980917866
:107C600099701179D9705179927919715A710122EB
:107C70009A7147490022DA71096899604549096893
:107C8000D9601A745A74398849B29974317849B2F2
:107C9000D9749A82DA821A833F4A126812B25A83DE
:107CA00006F05EFE3D49254813F0F6FED8F80020A8
:107CB0003B883178214849B21BB20091384913F012
:107CC000FFFE234813F04BF908EE100A224813F088
:107CD00057F90446224813F064F9F8EE487A05464D
:107CE00017EE900A49F06CFA0DA3D3E9002349F08E
:107CF000E9FB7D2305FB0333CDE9004302460B4638
:107D00000E48284913F0DCFECCE6274945E7274911
:107D100043E7274941E727493FE700BFAFF300802A
:107D20000000000080842E410DD5002058D6002090
:107D3000B11C070013D50020AB1D070070E1002027
:107D400010D5002012D50020B81D0700C61D070061
:107D5000B9E2002037250700BAE200200030070012
:107D6000BBE20020DA1D070070A20020101E0700F1
:107D7000BCE2002019300700161E07001E1E070077
:107D80000ED5002034D900202CD90020A4A1002039
:107D900088D600208CD6002024D60020251E07007F
:107DA000321E07004E1E0700DE1D0700E21D070001
:107DB000E61D0700EA1D070028D600205D49ECE615
:107DC0005D49EAE65D49E8E65D49E6E65D49E4E6E7
:107DD0005D49E2E606F086FB3DE7032C62D133788D
:107DE000002B3FF45FAE594B1E78002E7FF45AAE45
:107DF000574C257A002D41D0022D4CD04FF47A7388
:107E000062685449B2FBF3F2534810F0F1FA524958
:107E100009A813F0CFFC09AA0021012005F014FDE8
:107E200009A813F081FC4D4909A813F0C3FC0021F7
:107E300009AA022005F008FD09A813F075FC4849BD
:107E4000454810F00CFB444909A813F0B3FC09AAFB
:107E50000021032005F0F8FC09A813F065FC3F4958
:107E600009A813F0A7FC09AA0021042005F0ECFCE6
:107E700009A813F059FC05F001FD13E6394909A8DA
:107E800013F098FC09AA2946084605F0DDFC09A86C
:107E900013F04AFCB2E7344909A813F08BFC09AA95
:107EA0003146F1E7052C63D13378002B3FF4FAAD6E
:107EB000264B1E78002E7FF4F5AD254C257A25B390
:107EC000022D2FD04FF47A7362682249B2FBF3F28D
:107ED000214810F08DFA204909A813F06BFC09AA7B
:107EE0000021012005F0B0FC09A813F01DFC1B497E
:107EF00009A813F05FFC002109AA022005F0A4FCE8
:107F000009A813F011FC19499AE7164909A813F0BA
:107F100051FC09AA2946084605F096FC09A813F069
:107F200003FCCFE7104909A813F044FC09AA314625
:107F3000F1E700BFEF1D0700F51D0700FB1D07005F
:107F4000011E0700071E07000C1E070058D6002060
:107F5000F8A20020831E070013D500208BCE070057
:107F6000961E0700621E0700711E0700A21E070072
:107F7000042C40F0FF813378DFF808A3A54DDFF82B
:107F80000893A54EDFF804B3002B00F0A480A34BA8
:107F90001F78002F40F09F80A14B3178A14AA24862
:107FA000002918BF1A46A14910F022FA9E4909A8D3
:107FB00013F000FC09AA3946384605F045FC09A82B
:107FC00013F0B2FB327802F0FF08002A40F0DD80A7
:107FD0009BF800209649944810F00AFA924909A8A3
:107FE00013F0E8FB09AA4146012005F02DFC09A881
:107FF00013F09AFBDAF800208E498B4810F0F8F95C
:10800000894909A813F0D6FB09AA4146022005F0C8
:108010001BFC09A813F088FB874B88491A68824823
:1080200010F0E6F9804909A813F0C4FB09AA402121
:10803000022005F009FC09A813F076FB804B81496A
:108040001A78794810F0D4F9774909A813F0B2FBEF
:1080500009AA4146032005F0F7FB09A813F064FBC9
:10806000794813F0E5F8794902466F4810F0C0F9F5
:108070006D4909A813F09EFB09AA4021032005F0D1
:10808000E3FB09A813F050FB2A887149664812B235
:1080900010F0AEF9644909A813F08CFB09AA414617
:1080A000204605F0D1FB09A813F03EFB99F800200B
:1080B00068495D4852B210F09BF95B4909A813F07A
:1080C00079FB204609AA402105F0BEFB09A813F060
:1080D0002BFB05F0D3FB604B1B78002B36D05F4B9E
:1080E0001B78002B00F01B8106F0D8F95C4A5D4B31
:1080F00011881980917899701179D9705179927994
:1081000019715A714E4900229A710978C9B2D97110
:1081100055490968996055490968D960298849B263
:108120001974298849B25974298849B2997499F8FF
:10813000001049B2D9749A82DA829BF800201A831F
:108140003D4A126812B25A8306F00AFC3178344B69
:10815000344A4748002918BF1A46464913F0B0FC74
:10816000DAF800202B8899F80010414849B20091B4
:108170001BB2414913F0A4FC314B40491A783C48EA
:108180009BF8003013F09CFC8CE4DAF800202949BD
:10819000254810F02DF9244909A813F00BFB09AA72
:1081A0003946012005F050FB09A813F0BDFA224B17
:1081B00022491A681C4810F01BF91B4909A813F042
:1081C000F9FA09AA4021012005F03EFB09A813F0A5
:1081D000ABFA32782A49144810F00AF9124909A872
:1081E00013F0E8FA09AA3946022005F02DFB09A888
:1081F00013F09AFA3378013B0F2B00F28E80DFE800
:1082000003F0476E70727476787A7C7E8082848602
:10821000888A00BF10D5002015D6002058D600202F
:10822000A71D0700A81D070013D50020B81E0700D2
:10823000C91E0700DC1E070024D60020E41E07002C
:1082400014D60020EC1E070098E20020E91F07006A
:10825000161E07001E1E07000ED5002034D9002070
:108260002CD90020A4A1002088D600208CD6002084
:1082700070E10020EF1F0700321E0700FD1F0700FE
:10828000F51E070028D6002012D5002013D60020A6
:108290002449254810F0E3F8234909A813F08AFA85
:1082A00009AA0021032005F0CFFA09A813F03CFA2F
:1082B0001E4812F0BDFF1E4902461B4810F098F8F8
:1082C000194909A813F076FA09AA0021042005F03B
:1082D000BBFA09A813F028FA05F0D0FAF9E6154917
:1082E000D7E71549D5E71549D3E71549D1E715492A
:1082F000CFE71549CDE71549CBE71549C9E715493A
:10830000C7E71549C5E71549C3E71549C1E7154949
:10831000BFE71549BDE71549BBE71549B9E706F0C1
:10832000E1F8E3E60A1F070013D5002098E20020D9
:10833000E61F0700181F0700231F07002F1F070055
:108340003B1F0700451F0700961E07004F1F070031
:10835000631F0700761F0700861F0700931F070093
:108360009D1F0700AD1F0700BB1F0700C71F0700A9
:10837000D81F0700A24B1B78062B40F0A181A14B10
:10838000A149DD781C7993F801809F7893F905B0B5
:108390009E48C5EB451205EB8205A8F1C808C4EB61
:1083A0004412C83F04EB82041FFA88F85A790292FB
:1083B000BFB25A466D0064000FFA88FA0FFA87F9C7
:1083C00013F07EFB2DB2924990484B46524624B2A0
:1083D00013F076FB23468F498C482A4613F070FB36
:1083E0003378002B00F0D0808B4B1E78002E40F0AD
:1083F000CB8005F00DFA894805F0E4F8884B8949EF
:108400001A78894B89481B8852B21BB20FF0F0FFD3
:10841000864909A813F0CEF909AA3146304605F07D
:1084200013FA09A813F080F95A4681497F480FF0E2
:10843000DFFF7E4909A813F0BDF909AA31460120E2
:1084400005F002FA09A813F06FF97A4909A813F0A8
:10845000B1F909AA3221012005F0F6F909A813F0B3
:1084600063F9754909A813F0A5F909AA502101205B
:1084700005F0EAF909A813F057F9704909A813F0B3
:1084800099F909AA3146022005F0DEF909A813F08E
:108490004BF96B4909A813F08DF909AA314603205D
:1084A00005F0D2F909A813F03FF9524665495F4833
:1084B0000FF09EFF5D4909A813F07CF909AA32214B
:1084C000022005F0C1F909A813F02EF94A465D49CA
:1084D00056480FF08DFF554909A813F06BF909AA0A
:1084E0003221032005F0B0F909A813F01DF9564B0D
:1084F00093F80A90B9F1000F00F0B8802A4651496C
:108500004A480FF075FF494909A813F053F909AA21
:108510005021022005F098F909A813F005F9224628
:10852000484942480FF064FF404909A813F042F956
:1085300009AA5021032005F087F909A813F0F4F8DF
:10854000424B1868424BD3F8009048F039FE02467F
:108550000B464846CDE9042348F032FEDDE904230A
:10856000CDE900013B4931480FF042FF2F4909A8EE
:1085700013F020F909AA3146042005F065F909A88D
:1085800013F0D2F805F07AF9334B1B78002B3FF447
:1085900089AA324B1B78002B00F08F8005F07EFFFC
:1085A0002F4A304B11881980917899701179D970C0
:1085B0005179927919715A7102229A71029ADA717B
:1085C000224A12689A60224A1268DA604FFA88F8E2
:1085D000154A83F810807FB25F74128852B29A7481
:1085E0000F4A127852B2DA749D820022DC821A831A
:1085F0001D4A126812B25A8306F0B2F9FFF752BA56
:10860000E0D40020E1D400201620070070E1002013
:10861000342007004D20070058D600206A200700AC
:1086200012D500207A20070010D5002013D5002095
:1086300091200700267B07009C200700A52007004B
:10864000A9200700D91E0700F8A2002088D6002024
:108650008CD60020AD2007000ED5002034D9002094
:108660002CD90020A4A1002024D600205E495F4818
:108670000FF0F5FE5D4909A813F09CF809AA5021F6
:10868000022005F0E1F809A813F04EF8574909A8AF
:1086900013F090F809AA5021032005F0D5F809A895
:1086A00013F042F8524951480FF0D9FE4F4909A83A
:1086B00013F080F809AA49465EE705F013FF6FE75B
:1086C000072B6CD14B494C4813F0FAF93378002B47
:1086D0003BD04A4B1C78002C37D105F099F848481C
:1086E00004F070FF474941480FF0B9FE3F4909A81F
:1086F00013F060F809AA2146204605F0A5F809A85C
:1087000013F012F8404B1868404B1D6848F058FDB4
:1087100002460B462846CDE9022348F051FDDDE92B
:108720000223CDE900013A4930480FF061FE2F499C
:1087300009A813F03FF809AA2146042005F084F89F
:1087400009A812F0F1FF05F099F8324B1B78002BC5
:108750003FF4A8A9304B1B78F3B105F09FFE2F4AD8
:108760002F4B11881980917899701179D9705179AE
:10877000927919715A7102229A7123490022DA7191
:108780000968996021490968D9601A745A749A7401
:10879000DA749A82DA822AE705F0A4FEDFE7082B72
:1087A0007FF480A91F49144813F08AF91E4B002258
:1087B0001A703378002B3FF475A9104B1B78002BEF
:1087C0007FF470A905F024F8184804F0FBFE18495E
:1087D00006480FF044FE054909A812F0EBFF0021FE
:1087E00009AA0846FFF742BBC220070013D50020A4
:1087F000B9200700C520070070E1002058D60020EE
:108800006A200700E320070088D600208CD60020CD
:10881000AD2007000ED5002034D900202CD900202F
:10882000A4A10020F82007002DD60020B11C0700CD
:108830000E21070070B5314BB0F90A201A80304B79
:1088400090F90C201A702F4B42781A702E4A136838
:10885000013313602D4B00221A7003780446CBB904
:108860002B4A2C492C4813F02BF92C492A4813F099
:1088700027F92B49284813F023F92849294813F0F0
:108880001FF92749274813F01BF9BDE87040642001
:108890001CF086BF244A127A022A25D1022B0FD15E
:1088A000224D027A4168224806232B700FF032F8DD
:1088B0002B46FA220121BDE870401E4812F021BE6D
:1088C000134A1449144813F0FBF822781A49124845
:1088D00013F0F6F81249104813F0F2F8227816490E
:1088E000104813F0EDF8CCE7144B1B7823B90F4B6D
:1088F00001211970FA22DEE770BD00BF10D50020FB
:1089000012D500200FD5002028D600202DD600201B
:108910001E210700401C070070E1002024210700F1
:10892000786A0700D4E10020F8A20020E0D40020FB
:10893000E1D4002051E200202C210700C0A100203A
:1089400010B5044606F056FB204610BD70B504462F
:10895000002836D01B4B1C4A1C491D4800251D70A1
:1089600013F0AEF82A461B49194813F0A9F81A4922
:10897000174813F0A5F82A461649184813F0A0F82E
:108980001549164813F09CF864201CF009FF144B9D
:108990001C60144B1B7A022B09D1134B07221A704F
:1089A000BDE870401148FA22012112F0AABD104B17
:1089B0001B7833B90F4A1368013313600A4B022244
:1089C000EDE770BD2DD600203C1C0700401C0700C1
:1089D00070E100203B210700786A0700D4E1002005
:1089E00030D60020F8A20020E0D4002051E2002080
:1089F000C0A1002024D6002030B54B4A4B494C4D35
:108A000099B004464B4813F05BF822464A4949485E
:108A100013F056F84949474813F052F822464649A0
:108A2000474813F04DF84549454813F049F864208C
:108A30001CF0B6FE2978002974D101231A2208A857
:108A40002B7007910EF074FF05A82AF00FFD059812
:108A50003C4C00F5E0400FA96E302AF07BFD149BE2
:108A6000394903F26C730393129B0293139B0133F6
:108A700001930F9B009307A8DDE910320FF0B8FCBB
:108A8000294A2A492B4813F01BF807AA2F492948DD
:108A900013F016F82949274813F012F807AA2B49B2
:108AA000274813F00DF82549254813F009F86420EC
:108AB0001CF076FE149B03F26C732380139B01332E
:108AC000A370129B2371119B6371109BA3710F9B69
:108AD000E3711F4B1B782BB3134A1449154812F04E
:108AE000EFFF1C49134812F0EBFF1449114812F034
:108AF000E7FF1849124812F0E3FF1049104812F03E
:108B0000DFFF64201CF04CFE02232B70E3790193FD
:108B1000A379009363792279A178208805F048FC35
:108B200005F0BCFC19B030BD4A210700401C07000D
:108B30002CD6002070E100204F210700786A070042
:108B4000D4E100202CD9002066210700643E0700F4
:108B500034D900208821070008B5064B1B783BB1AB
:108B600013F06DF8BDE8084001460348FEF7DCBB92
:108B700008BD00BF59D6002018D6002007B52B4AE3
:108B80002B492C4812F09CFF2B492A4812F098FFE1
:108B90002A49284812F094FF2749294812F090FFEB
:108BA0002649274812F08CFF64201CF0F9FD254A65
:108BB000254801231370254A137012F04EFA18B19C
:108BC0002348002112F013FA224812F097FB2249A1
:108BD000224812F0A5FA2249204812F0B1FA2149A0
:108BE0001E4812F0A5FA20491C4812F0B1FA1F499C
:108BF0001A4812F0B5FA00211D4812F0EFFA0221CE
:108C00001C4812F059FB32230122009311460A231B
:108C1000124812F044FA184B997A01B1012122202E
:108C200003B05DF804EB12F0FEBF00BF3C1C070070
:108C3000401C070070E100209E210700786A0700B1
:108C4000D4E10020C0A10020C4E20020A1A10020A6
:108C5000AEE20020ADE200203588020089E200206B
:108C60004D8902008D7302002D740200F989020003
:108C700091E20020ABE20020F8A2002008B5284ACB
:108C80002849294812F01CFF2849274812F018FFEC
:108C90002749254812F014FF2449264812F010FFF6
:108CA0002349244812F00CFF64201CF079FD224B6C
:108CB00022480021197012F09AF9214812F0D1F9D6
:108CC000B8B9174A1749184812F0FAFE1D49164854
:108CD00012F0F6FE1649144812F0F2FE1949154832
:108CE00012F0EEFE1249134812F0EAFE64201CF066
:108CF00057FD1549114812F0C1F914490F4812F0F7
:108D0000C5F94FF6FD710D4812F071F9104B997AC3
:108D100001B10121BDE80840222012F084BF00BF4C
:108D20003C1C0700401C070070E10020B321070035
:108D3000786A0700D4E10020A1A10020AEE2002063
:108D4000C4E20020C2210700DD730200B9730200F3
:108D5000F8A200201F4B07B501221F481A7012F01D
:108D60007CF918B11D48002112F041F91C4812F09D
:108D7000C5FA1C491C4812F0D3F91C491A4812F0D4
:108D8000DFF91B49184812F0D3F91A49164812F0B6
:108D9000DFF91949144812F0E3F90021174812F0DD
:108DA0001DFA0021164812F087FA3223012200939F
:108DB0000D480A23114612F072F9124B9B7A33B117
:108DC0000121222003B05DF804EB12F02CBF03B0A8
:108DD0005DF804FBA1A10020C4E20020AEE2002067
:108DE000ADE200203588020089E200204D890200B2
:108DF0008D7302002D740200F989020091E20020B7
:108E0000ABE20020F8A2002010B50B4C0021204658
:108E1000FEF750FA2046094C094A0A490EF00CFDAB
:108E2000FF21204606F0DAF82046054A0649BDE84B
:108E300010400EF001BD00BF18D6002004D5002060
:108E400090A10020BF720200418902002DE9F04785
:108E5000012186B0222012F0CFFE0121232012F042
:108E6000CBFE0121242012F0C7FE0021222012F0A7
:108E7000DAFE2C482C4D022306224FF4E13111F08A
:108E8000FBFF0123022203AC28490093284800235A
:108E90000FF0AEFA2649204612F08CFC21462548F8
:108EA00012F0D8FA204612F03FFC234812F02CFDB5
:108EB00004F054FB287030B120491D480FF0CFFA60
:108EC0001B4804F07FFB0121232012F0ACFE4FF081
:108ED0008043D3F83834032B32D012F0B0FE114F58
:108EE00006464FF0000A384611F0ABFF40BB12F0C7
:108EF000A6FE41F28732B0EB06086AEB4A0900236E
:108F0000424573EB09031BDB64201CF049FC232062
:108F100012F08EFEB0FA80F14909232012F083FE90
:108F2000E1E700BF70E100200DD50020E42107003B
:108F300013D50020F8E10020CCE20020B11C07008E
:108F40000021232012F06FFE0021242012F06BFE7E
:108F50002B78BBB9AF4AB049B04812F0B1FDB04967
:108F6000AE4812F0ADFDAF49AC4812F0A9FDAC49D6
:108F7000AD4812F0A5FDAB49AB4812F0A1FD64204D
:108F80001CF00EFC02F07AFEB8B9A24AA249A3482E
:108F900012F096FDA549A14812F092FDA1499F4803
:108FA00012F08EFDA149A04812F08AFD9D499E480D
:108FB00012F086FD64201CF0F3FB02F0F1FDB8B95D
:108FC000944A9549954812F07BFD9949934812F0CF
:108FD00077FD9449914812F073FD9549924812F03B
:108FE0006FFD9049904812F06BFD64201CF0D8FB97
:108FF00002F0ECFDB8B9874A8749884812F060FD55
:109000008C49864812F05CFD8649844812F058FD70
:109010008849854812F054FD8249834812F050FD7A
:1090200064201CF0BDFB02F0E7FDB8B9794A7A492B
:109030007A4812F045FD8049784812F041FD79499F
:10904000764812F03DFD7C49774812F039FD7549AC
:10905000754812F035FD64201CF0A2FB03F0EEF918
:10906000B8B96C4A6C496D4812F02AFD73496B48D7
:1090700012F026FD6B49694812F022FD6F496A48DB
:1090800012F01EFD6749684812F01AFD64201CF0BA
:1090900087FB00F071FDB8B95E4A5F495F4812F086
:1090A0000FFD67495D4812F00BFD5E495B4812F009
:1090B00007FD63495C4812F003FD5A495A4812F013
:1090C000FFFC64201CF06CFB5E4E002000F02EFCC8
:1090D000337A032B40F032814E4A4F494F4812F009
:1090E000EFFC59494D4812F0EBFC4E494B4812F049
:1090F000E7FC55494C4812F0E3FC4A494A4812F053
:10910000DFFC64201CF04CFB012003F08DFB05F01C
:109110003FF84E4B3F4A40491870002800F0368116
:109120003E4812F0CDFC4A493C4812F0C9FC3D498A
:109130003A4812F0C5FC46493B4812F0C1FC394997
:10914000394812F0BDFC64201CF02AFB05F0A6F99A
:1091500094E803002AF069F902F07AFD05F02CFA90
:109160003C4F3870002840F028812A4A2A492B4871
:1091700012F0A6FC3849294812F0A2FC29492748D8
:1091800012F09EFC3449284812F09AFC25492648E2
:1091900012F096FC64201CF003FB337A012B00F0E4
:1091A0004A81022B00F050813BB32C491B4812F03E
:1091B00073FC2B780BB32A492A480FF050F9294940
:1091C000204612F0F7FA00212246084604F03CFB44
:1091D000204612F0A9FA244922480FF040F921490B
:1091E000204612F0E7FA22460021012004F02CFB71
:1091F000204612F099FA04F041FB1C4804F0AAFA48
:109200001B4812F001F810B91A4804F0A3FAFFF74E
:10921000B5FC31E03C1C0700401C070070E1002059
:10922000FA210700786A0700D4E10020082207002D
:109230002F2207005D22070087220700B5220700C2
:10924000DA220700F8A20020F622070034D9002015
:10925000232307000ED500202D23070071230700CC
:109260009223070013D50020A4230700621E0700E5
:1092700094E20020B42307004FF47A7379497268AE
:109280007948B2FBF3F20FF0B3F8774804F062FAD2
:10929000764A77480123002112F029F9726822B139
:1092A00000237348194612F02CF9724A70480023C3
:1092B000012112F01CF900236F4A6D48022112F0BF
:1092C00016F9737A33B16A4800234EF66022022100
:1092D00012F017F90123694A6548032112F007F9D2
:1092E000674B1B785BB1674811F08EFF38B93223AA
:1092F0000122009364480A23114611F0D0FE634A0C
:109300006349644812F0DCFB6349624812F0D8FB01
:109310006249604812F0D4FB5F49614812F0D0FB0B
:109320005E495F4812F0CCFB64201CF039FA012141
:109330005C4812F058FC06B0BDE8F087B77A534A93
:1093400053495448B7B912F0BBFB5749514812F082
:10935000B7FB52494F4812F0B3FB5349504812F043
:10936000AFFB4E494E4812F0ABFB64201CF018FADC
:109370000020CAE612F0A4FB4C49464812F0A0FBBC
:109380004649444812F09CFB4849E7E7414812F03F
:1093900097FB47493F4812F093FB40493D4812F084
:1093A0008FFB43493E4812F08BFB3C493C4812F08E
:1093B00087FB64201CF0F4F9D0E602F033FC05F0E2
:1093C000BFF93870B8B9314A3149324812F078FBE8
:1093D0003849304812F074FB30492E4812F070FBC7
:1093E00034492F4812F06CFB2C492D4812F068FBD1
:1093F00064201CF0D5F9254A25492648DFF8C89095
:10940000DFF8C88012F05CFB3A782B492148002A2B
:1094100014BF4A46424612F053FB20491D4812F041
:109420004FFB3A7824491E48002A14BF4A46424658
:1094300012F046FBAAE6FFF721FC204804F08AF967
:10944000154804F087F917E71D4804F083F90D4823
:1094500011F0DAFE10B91B4804F07CF9FFF77AFC32
:109460000AE700BF831E070013D50020A174020085
:1094700051E20020617A0200D1D80200A1CF02009F
:10948000A1A1002094E2002089E200203C1C0700FA
:10949000401C070070E10020C2230700786A070023
:1094A000D4E10020E9E100200A230700F6220700AA
:1094B000202307003E23070054230700291E07002E
:1094C000711E0700B4230700D9210700DE21070021
:1094D000704700002DE9F04F944C954DDFF868A2DD
:1094E000DFF868B289B0204605F0F2FE204610EEA3
:1094F000107A05F00CFF20468DED050A05F026FFD9
:109500008C4A8D498DED060A284612F0D9FA20467C
:1095100005F0DEFE204610EE108A05F0D9FE384632
:1095200010EE106A47F04CFE844B002247F0A0FE7C
:1095300048F04EF907B2404647F042FE80463046BA
:109540008946029747F03CFE7C4B7D4E002247F057
:109550008FFE42464B46CDE900015146284612F0A7
:10956000AFFA3146284612F0ABFA204605F0B0FEBD
:10957000204610EE108A05F0ABFE40468DED070A3E
:1095800047F01EFE079B029780461846894647F023
:1095900017FE6A4B002247F06BFE4B464246CDE970
:1095A00000015146584612F08BFA3146584612F0E7
:1095B00087FA64201CF0F4F85E4A5F49284612F0EE
:1095C0007FFA204605F0A3FE204610EE107A05F043
:1095D0009EFE059810EE10AA47F0F2FD0022574BB0
:1095E00047F046FE48F0F4F803B23846059347F0DA
:1095F000E7FD059B029380465046894647F0E0FD13
:109600004E4B504FDFF848A1002247F031FE424652
:109610004B46CDE900013946284612F051FA314651
:10962000284612F04DFA204605F071FE204610EE55
:10963000108A05F06CFE40468DED070A47F0C0FD2C
:10964000059B0293079B80461846894647F0B8FD64
:109650003A4B002247F00CFE4B464246CDE9000152
:109660003946584612F02CFA3146584612F028FA7C
:1096700064201CF095F82F4A2F49284612F020FA52
:10968000204605F063FE204610EE108A05F05EFECF
:1096900006988DED050A47F093FD284B002247F010
:1096A000E7FD48F095F807B2404647F089FD80464F
:1096B00005980297894647F083FD204B002247F02A
:1096C000D7FD42464B46CDE900015146284612F0EF
:1096D000F7F93146284612F0F3F9204605F036FE38
:1096E000204610EE105A05F031FE284610EE108A82
:1096F00047F066FD044640460D46029747F060FD80
:109700000E4B002247F0B4FD2246CDE900012B4666
:109710005146584612F0D4F93146584612F0D0F965
:10972000642009B0BDE8F04F1CF03AB834D60020F0
:1097300070E10020D0230700401C070000408F404C
:10974000786A0700E3230700D4230700D4E1002050
:10975000F223070007B568480DF10701312205F033
:10976000FFFD9DF80730590618D5644A64496548DD
:1097700012F0A6F99DF807206349624812F0A0F99B
:109780006249604812F09CF95F499DF807206048E3
:1097900012F096F95D495E4812F092F964201BF0D0
:1097A000FFFF9DF807309A0614D5544A544955488E
:1097B00012F086F95749534812F082F9534951483B
:1097C00012F07EF95349524812F07AF94F49504845
:1097D00012F076F964201BF0E3FF9DF80730DB06FA
:1097E00014D5464A4649474812F06AF94A4945485D
:1097F00012F066F94549434812F062F94649444877
:1098000012F05EF94149424812F05AF964201BF007
:10981000C7FF9DF80730180714D5384A384939482A
:1098200012F04EF93D49374812F04AF937493548A8
:1098300012F046F93949364812F042F933493448B2
:1098400012F03EF964201BF0ABFF9DF8073059077A
:1098500014D52A4A2A492B4812F032F930492948AE
:1098600012F02EF92949274812F02AF92C492848E4
:1098700012F026F92549264812F022F964201BF03F
:109880008FFF9DF807309A0714D51C4A1C491D48C4
:1098900012F016F923491B4812F012F91B49194816
:1098A00012F00EF91F491A4812F00AF91749184820
:1098B00012F006F964201BF073FF9DF80730DB07F8
:1098C00014D50E4A0E490F4812F0FAF816490D4801
:1098D00012F0F6F80D490B4812F0F2F812490C4854
:1098E00012F0EEF809490A4812F0EAF864201BF079
:1098F00057FF03B05DF804FB34D60020D0230700E7
:10990000401C070070E1002001240700786A07006E
:10991000D4E10020182407001F2407002524070095
:109920002C240700322407003924070073B50021D6
:109930000446112012F060F95C4811F0E5FF5C4B21
:1099400054B300229A800A22DA804FF481721A817D
:1099500040F201125A81564805F092FD054608B3BF
:10996000544A5549554812F0ABF85549534812F03E
:10997000A7F85449514812F0A3F85149524812F03F
:109980009FF85049504812F09BF864201BF008FFE4
:109990000024204602B070BD02229C80DC801A8127
:1099A0005C81D8E7002C38D02A22302140488DF83D
:1099B0000720012605F07EFB082232213C488DF865
:1099C000072005F077FB3246332139488DF80760D0
:1099D00005F070FB24220DF10701354805F0C0FCAD
:1099E0009DF80720324822F00C0242F008022421A0
:1099F0008DF8072005F05EFB602222212C488DF8AF
:109A0000072005F057FB2A462521294805F052FB7F
:109A100027483246212105F04DFB002520220DF17B
:109A2000070123488DF8075005F09AFC9DF80720A0
:109A30001F4842F0080220218DF8072005F03AFB6C
:109A400064201BF0ADFE1E220DF1070118488DF8B1
:109A5000075005F085FC9DF80720154842F090025C
:109A60001E218DF8072005F025FB64201BF098FED1
:109A70004CB1FFF76FFE15490422112011F0B4F923
:109A8000FFF728FD85E720220DF10701084805F0C2
:109A900067FC9DF80720064802F0400220218DF85F
:109AA0000720012405F006FB73E700BFCCE200208D
:109AB00034D60020D0230700401C070070E10020AE
:109AC0003F240700786A0700D4E10020D194020007
:109AD00002481822002105F0A7BA00BF34D60020A2
:109AE000F8B512F0ACF81B4D1B4B1C4C0021C3E920
:109AF000000112F0A4F8D5E90032C61A62EB420761
:109B0000C92E77F1000308DB12F099F800236B608F
:109B1000237828600133DBB22370114A11491248BF
:109B200011F0CEFF227811490F4811F0C9FF1049FA
:109B30000D4811F0C5FF22780C490E4811F0C0FF06
:109B40000B490C4811F0BCFFBDE8F84064201BF045
:109B500027BE00BF48D6002050D6002059D600208E
:109B600060240700401C070070E100206424070007
:109B7000786A0700D4E1002008B50221092012F01C
:109B80003BF806490322092011F02EF90449054843
:109B900001236422FDF7A6FB012008BDE19A020023
:109BA00029A1020018D600202DE9F04FAC4D8FB04E
:109BB000CDE90C2312F043F8D5E900BC0024B0EB4A
:109BC0000B0240F6B83064EB0C030021904271EBBD
:109BD0000303A246A146A0462746264665DB12F0AF
:109BE0002EF8D5E90023811A63EB4303009101931A
:109BF000DDE90023B2F5C87F73F1000360DA12F0EB
:109C00001EF8D5E90023811A63EB43030291039305
:109C1000DDE90234B3F5C87F74F1000375DA12F0A0
:109C20000EF8D5E90023811A63EB430304910593F1
:109C3000DDE90434B3F5167F74F1000380F2888007
:109C400011F0FDFFD5E90023811A63EB4303069170
:109C50000793DDE90634B3F5487F74F1000380F221
:109C60009D8011F0ECFFD5E90023811A63EB4303DB
:109C700008910993DDE90834B3F5966F74F1000398
:109C800080F2AF8011F0DBFFD5E90023811A63EB8E
:109C900043030A910B93DDE90A34B3F5AF6F74F116
:109CA000000380F2BF80072474E0092011F0C0FF98
:109CB000002894D16B4B1B78002B90D0022469E0D4
:109CC000684B1B78012B9AD1092011F0B1FF0128B4
:109CD00095D14FF0000BC82C11D0092011F0A8FF2E
:109CE000012808BF0BF1010B4FF0010004F1010442
:109CF00008BF5FFA8BFBE4B21BF052FDEBE7BBF150
:109D0000C60F7FF67CAF002444E0564B1B78022B35
:109D100085D1092011F08CFF012880D10024BAF1EF
:109D2000C80F10D0092011F083FF012808BF0134AB
:109D30004FF001000AF1010A08BFE4B25FFA8AFAA3
:109D40001BF02EFDEBE7C62C7FF669AF012421E066
:109D5000444B1B78032BDCB27FF472AF4FF0000A48
:109D6000B9F1C80F12D0092011F062FF012808BF15
:109D70000AF1010A4FF0010009F1010908BF5FFA79
:109D80008AFA5FFA89F91BF00BFDE9E7BAF1C60F11
:109D90007FF656AF20460FB0BDE8F08F314B1B78F1
:109DA000042BDCB27FF45DAF4FF00009B8F1C80FAF
:109DB00012D0092011F03CFF012808BF09F1010968
:109DC0004FF0010008F1010808BF5FFA89F95FFA56
:109DD00088F81BF0E5FCE9E7B9F1C60F7FF641AF63
:109DE000D8E7204B1B78052BDCB27FF44BAF4FF04C
:109DF0000008C82F11D0092011F01AFF012808BF50
:109E000008F101084FF0010007F1010708BF5FFAF0
:109E100088F8FFB21BF0C4FCEBE7B8F1C60F7FF681
:109E200031AFB7E70F4B1B78062BDCB27FF43BAFAB
:109E30000025C82E0FD0092011F0FAFE012808BF16
:109E400001354FF0010006F1010608BFEDB2F6B290
:109E50001BF0A6FCEDE7C62D7FF625AF9AE700BF05
:109E600050D6002059D6002073B58C4D8C4C2A7AE0
:109E7000237A9A4230D003F0CBFC8A4803F0A2FB4D
:109E80006A68AB7A884862602A89A372228103F0EB
:109E900061FC864803F05EFC03F0F0FC01F004FF77
:109EA00040F6B8301BF07CFC237A8148012B4FF040
:109EB00000014FF0320640F0A08011F098F8002227
:109EC0007C4800960A23114611F0E9F87A4811F00F
:109ED000C8F87A4811F0DEFAAA7AA37A9A4206D034
:109EE0002B7A022B0CBF0120002002F09DFC6A6837
:109EF00063689A4207D1AB68A268534023F07F435E
:109F000023F0FF03ABB103F083FC674803F022FCAE
:109F1000664803F01FFC03F0B1FC6B6863606B7A6A
:109F20006372AB7AA37201F0BFFE40F6B8301BF04B
:109F300037FC634811F0DEF900286BD0614811F05E
:109F400065F9614B1978884205D000395D4818BF22
:109F5000012111F05DF95D4811F06AF95C4B197847
:109F6000884202D0594811F065F95A4811F072F947
:109F7000594B1978884202D0564811F06DF9574D67
:109F800057482E7811F078F986420BD0297854483A
:109F900011F07EF932230122009346480A2311462C
:109FA00011F07DF803F034FC237A012B6FD0022BE3
:109FB0006FD013B94B4803F0CDFB4FF47A7362684E
:109FC0004949B2FBF3F249480EF012FA474803F050
:109FD000C1FB626822B100234548194611F091FA8D
:109FE000637A002B57D0424800234EF660220221AC
:109FF00002B0BDE8704011F084BA10F0F8FF012201
:10A0000000960A2311462B4811F049F82C4811F00C
:10A0100075F95EE7374D3848296810F0A2FF3648D9
:10A0200010F09DFF2968884202D0334810F099FF54
:10A03000324810F0A5FF324B1978884202D02F48E1
:10A0400010F0A0FF2F4D30482E7810F0AAFF864266
:10A0500003D029782C4810F0A6FF2C4810F0B2FF4E
:10A060002B4B1978884202D0284810F0ADFF2948C0
:10A0700010F0BBFF284B1978884202D0254810F019
:10A08000C5FF4FF6FD710A4810F0B1FF8AE723487B
:10A0900091E723488FE702B070BD00BFCCA100203C
:10A0A000F8A20020742407007B2407008B240700FB
:10A0B000AEE2002089E20020C4E20020E8E10020B6
:10A0C000ADE2002095E200205BD6002098E200205F
:10A0D0005DD60020A0E200205ED600205CD60020E5
:10A0E000AAE20020621E0700831E070013D500208D
:10A0F00051E2002068D60020B9E20020BAE2002038
:10A100006CD6002063D60020BBE20020BCE2002019
:10A1100064D60020BEE200206DD60020291E070074
:10A12000711E070000000000F7B5FFF73DFD06288F
:10A1300000F2C686DFE810F01F06C0030700C0016A
:10A14000D3006E003200954B954A00241C70954B4D
:10A1500000200021C3E900019349944811F0B0FCAC
:10A160009349924811F0ACFC9249904811F0A8FC38
:10A170008F49914811F0A4FC8E498F4811F0A0FC42
:10A1800064201BF00DFB8D4B1B782BB1204603B0D8
:10A19000BDE8F04003F07ABB0120F8E77F4B0022D6
:10A1A0001A70804B00200021C3E90001844B1B780A
:10A1B000002B00F08586834C2378052B0DD1824B34
:10A1C0008248997A1022227001915B7A009380492B
:10A1D000804B09781B7803F07FFB714A7249734802
:10A1E00011F06EFC22787C49704811F069FC7149CD
:10A1F0006E4811F065FC227877496F4811F060FCD9
:10A200006C496D4811F05CFC642003B0BDE8F0407F
:10A210001BF0C6BA614B00221A70624B002000216D
:10A22000C3E90001664B1B78002B4ED0654C2378A8
:10A23000042B30D0052B3ED08BB9684811F05AF86A
:10A240000128614B1CD1997A654804222270019142
:10A250005B7A644900930978FF2303F03DFB504A81
:10A260005149524811F02CFC22785F494F4811F0B7
:10A2700027FC50494D4811F023FC22785A49BCE78D
:10A28000997A5A480522227001915B7A58490093C5
:10A290000978FF23E1E707235648237010F0ECFF0D
:10A2A000494A937A0193537A00932278C3B248497A
:10A2B00046480978D1E7444B0E22997A22700191E1
:10A2C0005B7A00934C4B1B78F1E703F0A1FA4B4803
:10A2D00003F078F903B0BDE8F0401BF078BA2F4BDB
:10A2E00000221A702F4B00200021C3E90001344BDB
:10A2F0001B78002B00F0D580324C2378062B23D816
:10A30000DFE813F007001500330041008C00BD00AA
:10A31000C7002D4903220B7A887A22700190497A6E
:10A3200000910233DBB23649364809780AE0264B01
:10A330003548997A0022227001915B7A3349009363
:10A340000978FF2303F0C8FA154A1749174811F096
:10A35000B7FB22782E49154811F0B2FB1549134876
:10A3600011F0AEFB22782A4947E7174A2949537A68
:10A37000294883F001035372927ACDE90032FF231A
:10A3800009780222DEE7104B02221A729A7A0192B1
:10A390005B7A009303220423C5E700BF59D600204F
:10A3A0006024070050D60020401C070070E1002008
:10A3B0009C240700786A0700D4E10020A4A40020B0
:10A3C00058D600205AD60020CCA10020C4A10020DD
:10A3D000C8A100206DD60020A6240700ADE2002011
:10A3E00098A20020ACA20020B7240700C4A200203D
:10A3F000DCA20020AAE2002064D60020C8240700C6
:10A400006CA200205CA20020E0A20020F4A20020A8
:10A41000D3240700C0A20020B0A200200A23824853
:10A42000237010F029FFC0B20C280ED8DFE800F02E
:10A43000071B1B211B21211B1B1B1B1B21007B4BF3
:10A4400000221A707A4B05221A707A4A7A4B917A56
:10A450001B780191527A00920A332278DBB2774955
:10A46000774809786EE7714B00221A70704B07220B
:10A47000EAE76E4B00221A706D4B0A22E4E76D4B3F
:10A480000D22997A227001915B7A00936D4B1B78B3
:10A49000E5E7684B9A7A01925B7A009306220023E3
:10A4A000DDE703F0B5F9684803F08CF8674803B0BE
:10A4B000BDE8F04010F0EEBF654B00221A70654B0E
:10A4C00000240025C3E90045634B1B78002B00F0F6
:10A4D0008381624C2278102A2BD8DFE812F0110019
:10A4E0001D003B004600530084009100DD002A005F
:10A4F000060119012E01400150015F012A006D0182
:10A500004C4B0222997A227001915B7A0093FF23CF
:10A510005349544809780AE0464B5348997A002237
:10A52000227001915B7A514900930978FF2303F06F
:10A53000D3F94F4A4F49504811F0C2FA22784F4997
:10A540004D4811F0BDFA4E494B4811F0B9FA227846
:10A550004A4952E6374A937A83F001039372019392
:10A56000537A00930222FF23D2E7324B45494648F3
:10A5700001221A729A7A01925B7A00930323097876
:10A580001A46D4E709232848237010F075FEC0B29C
:10A590000C2814D8DFE800F007070707070D1E078F
:10A5A000242424241E00394B00221A70384B052223
:10A5B00004E0364B00221A70354B04221A701D4AF3
:10A5C0001D4B917A1B780191527A00920A33DBB2CB
:10A5D000227811E02D4B00221A702D4B0622EDE758
:10A5E0002A4B0222E1E7134B0C22997A2270019147
:10A5F0005B7A0093274B1B7810491148097896E73E
:10A600000C4B5A6842B142F20F718A428ABFA2F5DE
:10A610001C520022103A5A609A7A01925B7A009397
:10A620000622FF23E8E700BFAAE2002062D600204E
:10A6300060D60020CCA100205DD60020C8A100205B
:10A64000C4A1002063D60020E4240700E8E1002034
:10A6500059D6002050D6002058D600205AD60020C7
:10A66000C0A20020B0A20020E0A20020F4A200209E
:10A6700060240700401C070070E10020F42407005C
:10A68000786A07006CA200205CA2002061D600203E
:10A690005FD600206CD600206C4D2B781BB3013B9D
:10A6A000DBB26B4A6B496C482B7011F009FA2A78BF
:10A6B0006A49694811F004FA6949674811F000FADB
:10A6C0002A786649674811F0FBF96549654811F039
:10A6D000F7F964201BF064F8634B9A7A01925B7A75
:10A6E00000932B7874E70C23DBE7604A604913780A
:10A6F000097899420BBF5F4B03F1FF331B78DBB244
:10A700001370594A917A0191527A0092092273E7A3
:10A71000594A5A491378097899420BBF584B03F1AB
:10A72000FF331B78DBB213704F4B9A7A01925B7A3E
:10A7300000934E4B0A221B785EE7524A5249136837
:10A74000A3F5C333A03B8B4298BF504B1360464BDD
:10A750009A7A01925B7A00930B22FF234CE74C49D3
:10A760000B78062B1CBF03F1FF33DAB23E4B0A70A5
:10A77000997A01915B7A009313460C223CE7454A93
:10A7800013784BB1013BDBB21370374A917A0191D8
:10A79000527A00920D222FE70923F5E73E4A1178FD
:10A7A00009B1481EC0B210702F4A937A0193537AB0
:10A7B00000930E2203461FE7384A1378052B1ABF71
:10A7C00003F1FF33DBB216231370274A917A01910C
:10A7D000527A009210220FE7314B1B78002B40F089
:10A7E0006F83304B1B7813B9012003F04FF8184AE0
:10A7F0001849194811F064F92B49174811F060F90C
:10A800001749154811F05CF92749164811F058F915
:10A810001349144811F054F964201AF0C1FF0021C3
:10A82000224810F078FE224B012200201A70FCF71B
:10A8300037FE204B5A68002A00F0428300231B4851
:10A84000194603B0BDE8F04010F05BBE5CD60020B6
:10A8500060240700401C070070E10020EA24070084
:10A86000786A0700D4E10020CCA100205DD600204A
:10A8700061D600205FD600205ED6002062D6002080
:10A8800060D6002068D600207F47A1198047A11913
:10A890006CD6002063D6002064D600206DD6002040
:10A8A0002DD60020A4A400200525070051E2002099
:10A8B00001D50020F8A20020A94BAA4DAA4C0022E5
:10A8C0001A70AA4B00210020C3E900012978002951
:10A8D00040F0E480A64810F01EFE0121A44810F0CC
:10A8E0001AFEA348022110F016FEA24B1B7813B9E2
:10A8F000012002F0CBFF01239F4A2B70002323701D
:10A900009E4B917A5068128958601A819C489972BE
:10A9100010F0F0FC05469B4A9B499C48002D42D014
:10A9200011F0CEF89A49994811F0CAF89949974818
:10A9300011F0C6F89649984811F0C2F89549964822
:10A9400011F0BEF864201AF02BFF944810F070FC50
:10A95000934B1870934810F08FFC934B18709348EA
:10A9600010F054FC924B1870924810F073FC924B0C
:10A9700018700023CDE90033227890499048097877
:10A9800002F0AAFF7F4A8049804811F099F82278A6
:10A990008C497E4811F094F87E497C4811F090F87B
:10A9A0002278884929E411F08BF87949774811F029
:10A9B00087F87849754811F083F87549764811F0A1
:10A9C0007FF87449744811F07BF864201AF0E8FEAF
:10A9D00029467D487D4D10F00AFB7D4810F0BFFAF6
:10A9E00028607C4810F0CCFA7B4B18707B4810F044
:10A9F000D8FA7B4B18707B4810F0E4FA7A4B187049
:10AA00007A4810F0F2FA7A4B5E4A18705E495F4855
:10AA100011F056F8286846F0C1FB4FA3D3E9002394
:10AA200046F050FD06466A480F4610F098FA46F088
:10AA3000B5FB49A3D3E9002346F044FD32463B462B
:10AA4000CDE900016B49514811F03AF851494F489E
:10AA500011F036F8286846F0A1FB3FA3D3E90023A4
:10AA600046F030FD06465A480F4610F078FA46F098
:10AA700095FB39A3D3E9002346F024FD3246CDE906
:10AA800000013B465B49444811F01AF841494248ED
:10AA900011F016F864201AF083FE6AE72378102B71
:10AAA0003FF670AF01A252F823F000BFF1AA0200F6
:10AAB00003AB020015AB020019AB020033AB02007E
:10AAC00051AB02005DAD020009AC02005DAC0200BA
:10AAD00079AC02009DAC0200C1AC0200E5AC020002
:10AAE00003AD020021AD020085A902003FAD0200C6
:10AAF0000122224B2270997A01915B7A0093FF2305
:10AB000022E01E4B0022997A227001915B7A009319
:10AB1000FF2332E70622ECE7184B3749374800227B
:10AB20001A729A7A01925B7A0093097802230322BF
:10AB300026E712491E4B887A1B7808222270019062
:10AB4000497A00910A33DBB22D492E48097817E77C
:10AB50000B22CEE7AFF300800000000084D79741BE
:10AB600059D6002058D600205AD6002050D60020B2
:10AB700051E20020A4A40020F8A20020CCA10020D3
:10AB8000ADE2002060240700401C070070E10020B7
:10AB90001B250700786A0700D4E1002098E2002016
:10ABA0005DD60020AAE200205CD6002095E20020BD
:10ABB0005BD60020A0E200205ED60020F4A2002098
:10ABC000E0A200203E250700AEE2002068D600206B
:10ABD000B9E20020BAE200206CD60020BBE20020DF
:10ABE00063D60020BCE2002064D60020BEE2002034
:10ABF0006DD60020302507006CA200205CA200204A
:10AC0000C8A10020C4A10020874D884A2B7888491C
:10AC100088480C2B1ABF0133DBB200232B7010F0D5
:10AC20004FFF2A788449834810F04AFF83498148BE
:10AC300010F046FF2A788049814810F041FF7F4993
:10AC40007F4810F03DFF64201AF0AAFD7D4B9A7AF0
:10AC500001925B7A00932B78227875E77A4A137811
:10AC6000B3FA83F35B091370764A917A0191527AB1
:10AC700000920A33082267E7744A75491378097805
:10AC800099420BBF734B01331B78DBB213706D4AD3
:10AC9000917A0191527A0092092255E76E4A6F49E2
:10ACA0001378097899420BBF6D4B01331B78DBB2E7
:10ACB0001370644A917A0191527A00920A2243E712
:10ACC000684A6949136803F5C333A0338B4294BFC4
:10ACD000136011605B4B9A7A01925B7A00930B22AE
:10ACE000FF2331E7614A13780C2B1ABF0133DBB223
:10ACF00006231370534A917A0191527A00920C22E2
:10AD000022E75B4A1378092B1ABF0133DBB2002319
:10AD100013704C4A917A0191527A00920D2213E7F6
:10AD2000544A1378032B1ABF0133DBB2002313708C
:10AD3000444A917A0191527A00920E2204E74E4AD7
:10AD40001378162B1ABF0133DBB2052313703D4A6B
:10AD5000917A0191527A00921022F5E6394A5368AD
:10AD600003F51C5310335360937A0193537A009385
:10AD700006220023E8E6414B00221A70404B0020D7
:10AD80000021C3E900013F4B1A78002A00F09880A7
:10AD90003D4C2278102A0ED8DFE802F0091F1F1F51
:10ADA0001F1F862D2D2D2D393939390D39000022DF
:10ADB0001A70FFF759F81D4A1D491E4810F080FE11
:10ADC000227832491B4810F07BFE1C49194810F0CC
:10ADD00077FE22782D49FFF710BA1A4B2C48997A42
:10ADE0000022227001915B7A2A4900930978FF239F
:10ADF00002F072FDDFE7134B2748997A0422227094
:10AE000001915B7A254900930978FF23F0E70D4B08
:10AE10002348997A0522227001915B7A2149009397
:10AE20000978FF23E4E700BF5CD600206024070018
:10AE3000401C070070E10020EA240700786A070040
:10AE4000D4E10020CCA100205BD600205DD60020FC
:10AE50005FD6002061D600205ED6002060D600209C
:10AE600062D6002068D60020007038396CD60020E9
:10AE700063D6002064D600206DD6002059D600206D
:10AE800050D6002058D600205AD600204F25070063
:10AE9000E0A20020F4A2002098A20020ACA2002092
:10AEA000C4A20020DCA20020064B0748997A0222A7
:10AEB000227001915B7A054900930978FF2397E797
:10AEC00003B0F0BDCCA10020B0A20020C0A20020A1
:10AED000494B1B7870B5CBB9484A4949494810F0ED
:10AEE000EFFD4949474810F0EBFD4849454810F04F
:10AEF000E7FD4549464810F0E3FD4449444810F059
:10AF0000DFFD64201AF04CFC02244EE0556E012D4A
:10AF1000FAD116683F4930460DF097FA04460028EA
:10AF200045D13A49374810F0CBFD3849354810F043
:10AF3000C7FD3649364810F0C3FD3449344810F097
:10AF4000BFFD64201AF02CFC2146334810F0E3FAD0
:10AF50002946314810F0DFFA02212F4810F0DBFAC1
:10AF600002F056FC2D4802F02DFB2D4802F0F2FBBA
:10AF70002C4802F0EFFB02F081FC03F0BBFE2349FA
:10AF8000204810F09DFD21491E4810F099FD1F49F1
:10AF90001F4810F095FD1D491D4810F091FD6420DB
:10AFA0001AF0FEFB204810F075FA204670BD1F49CC
:10AFB00030460DF04AFA04460028A5D11C4B014644
:10AFC00015481D7010F0A7FA2946134810F0A3FA8F
:10AFD0000221114810F09FFA02F01AFC0F4802F00B
:10AFE000F1FA144802F0B6FB0E4802F0B3FB02F08F
:10AFF00045FC03F031FBD5E70ED50020BC2507004A
:10B00000401C070070E10020C3250700786A070094
:10B01000D4E10020F989070051E2002074240700E0
:10B02000D72507008B240700E8E10020F96F07000F
:10B0300058D60020E725070070B598B014460A4995
:10B040000EA810F0B7FB0023CDE91433CDE9163379
:10B05000636E012B0CD1054920680DF0F6F948B15B
:10B06000022400F0EDBC00BFDB3B0700F9890700BC
:10B07000002BF5D1B649B748B74CB84DB84E10F0D3
:10B080001FFDB849B34810F01BFDB149B64810F098
:10B0900017FDB449B44810F013FD64201AF080FB8A
:10B0A000237AB24955F82320AA4810F009FDAD498A
:10B0B000A84810F005FD237AAC4955F82320AA488A
:10B0C00010F0FEFCA749A84810F0FAFC64201AF022
:10B0D00067FBA74911A810F0C7F911A90EA810F035
:10B0E0007CFB11A810F020FB0EA810F0B9FB0E9A03
:10B0F000A049984810F0E4FC9A49964810F0E0FC0A
:10B100000E9A9C49984810F0DBFC9649964810F03E
:10B11000D7FC64201AF044FB974911A810F084F979
:10B12000119A96498B4810F0CBFC11A810F0FCFA4C
:10B130008C49884810F0C4FC8F4911A810F074F9AC
:10B14000119A8E49884810F0BBFC11A810F0ECFA57
:10B150008449854810F0B4FC64201AF021FB4FF4B8
:10B160007A7562688649B2FBF5F27A4810F0A8FC5D
:10B170007C49784810F0A4FC62688149B2FBF5F282
:10B18000794810F09DFC7749774810F099FC6420CD
:10B190001AF006FB7B4810F0ADF87B4956F82020EA
:10B1A00005466C4810F08CFC6E496A4810F088FC2B
:10B1B00056F8252074496C4810F082FC69496A48A9
:10B1C00010F07EFC64201AF0EBFA012D40F04E8363
:10B1D0006E486F4E6F4D10F017F86F49002814BF7E
:10B1E00032462A465B4810F06BFC5E49594810F025
:10B1F00067FC664810F008F86749002814BF32461B
:10B200002A465948654E10F05BFC5649564810F0E6
:10B2100057FC64201AF0C4FA614810F02DF8614917
:10B22000054602464B4810F04BFC4E49494810F089
:10B2300047FC2A465B494C4810F042FC49494A48C1
:10B2400010F03EFC64201AF0ABFA56F8252056495F
:10B25000404810F035FC43493E4810F031FC56F8A8
:10B2600025205149404810F02BFC3E493E4810F043
:10B2700027FC64201AF094FA4C480FF0BEFF002817
:10B2800000F0BE814A49334810F01AFC3549314874
:10B2900010F016FC4649344810F012FC314932488F
:10B2A00010F00EFC64201AF07BFA082214A9414821
:10B2B0000FF082FF9DF8573005939DF856300493A8
:10B2C0009DF8553003939DF8543002939DF8533008
:10B2D00001939DF852309DF85020374900931D4846
:10B2E0009DF8513010F0ECFB1E491A4810F0E8FBB5
:10B2F0009DF8573005939DF8563004939DF85530CE
:10B3000003939DF8543002939DF8533001939DF8B8
:10B3100052309DF850202849009313489DF8513031
:10B3200010F0CEFB0F49104810F0CAFB64201AF051
:10B3300037FA082214A921480FF01AFF9DF8573058
:10B3400005939DF8563004939DF8553038E000BFC2
:10B350000526070070E10020F8A20020C8A3002005
:10B36000BCA30020786A0700D4E10020142607005F
:10B3700028E2002022260700ECE1002029580700DF
:10B380002D260700ADE200203D26070094E20020B4
:10B390006D670700F72507004D26070088A30020EA
:10B3A000AAE20020582607006326070093E2002047
:10B3B0006E2607008EE20020782607008AE2002031
:10B3C00003939DF8543002939DF8533001939DF8F8
:10B3D00052309DF850207D4900937D489DF85130B2
:10B3E00010F06EFB7B497A4810F06AFB9DF85730ED
:10B3F00005939DF8563004939DF8553003939DF8BE
:10B40000543002939DF8533001939DF852309DF8CB
:10B4100050206E49009370489DF8513010F050FB59
:10B420006C496D4810F04CFB64201AF0B9F91022F9
:10B4300014A96A480FF0A5FE9DF85F300D939DF8A2
:10B440005E300C939DF85D300B939DF85C300A9351
:10B450009DF85B3009939DF85A3008939DF8593058
:10B4600007939DF8583006939DF8573005939DF843
:10B47000563004939DF8553003939DF85430029351
:10B480009DF8533001939DF852309DF85020544957
:10B4900000934F489DF8513010F012FB4D494C4835
:10B4A00010F00EFB9DF85F300D939DF85E300C930D
:10B4B0009DF85D300B939DF85C300A939DF85B30EE
:10B4C00009939DF85A3008939DF8593007939DF8D9
:10B4D000583006939DF8573005939DF856300493E5
:10B4E0009DF8553003939DF8543002939DF85330E6
:10B4F00001939DF8523000939DF850209DF85130F3
:10B500003749354810F0DCFA32493348354E364D6C
:10B5100010F0D6FA64201AF043F934492C4810F0A0
:10B52000CFFA2C492A4810F0CBFA30492A4810F0BB
:10B53000C7FA2849284810F0C3FA64201AF030F9F5
:10B54000227A2B49224810F0BBFA2249204810F0F9
:10B55000B7FA227A2649204810F0B2FA1D491E484F
:10B5600010F0AEFA64201AF01BF9627A21491848EB
:10B57000002A14BF32462A4610F0A2FA1549144890
:10B5800010F09EFA627A1B491348002A14BF324613
:10B590002A4610F095FA0F490F48174E10F090FA0E
:10B5A00064201AF0FDF815481AF012FC0025B4F8D2
:10B5B0008C20EBB2934205F1010580F23D822344D9
:10B5C0003046D97A1AF004FCF1E700BFA026070044
:10B5D00070E10020786A0700D4E100208BE20020AF
:10B5E000C82607000226070098240700292807001C
:10B5F000392807004728070053AB070058280700E1
:10B600009049914810F05CFA90498F4810F058FA30
:10B610008C498F4810F054FA8C498D4810F050FA3C
:10B6200064201AF0BDF814A910228A480FF0B2FD68
:10B630009DF85F300D939DF85E300C939DF85D3062
:10B640000B939DF85C300A939DF85B3009939DF84D
:10B650005A3008939DF8593007939DF85830069357
:10B660009DF8573005939DF8563004939DF855305A
:10B6700003939DF8543002939DF8533001939DF845
:10B6800052309DF85020009373499DF851306E4818
:10B6900010F016FA6D496C4810F012FA9DF85F3000
:10B6A0000D939DF85E300C939DF85D300B939DF8E3
:10B6B0005C300A939DF85B3009939DF85A300893EB
:10B6C0009DF8593007939DF8583006939DF85730F0
:10B6D00005939DF8563004939DF8553003939DF8DB
:10B6E000543002939DF8533001939DF852309DF8E9
:10B6F0005020009358499DF85130554810F0E0F91A
:10B700005249534810F0DCF964201AF049F814A9A2
:10B71000102252480FF059FD9DF85F300D939DF8AF
:10B720005E300C939DF85D300B939DF85C300A936E
:10B730009DF85B3009939DF85A3008939DF8593075
:10B7400007939DF8583006939DF8573005939DF860
:10B75000563004939DF8553003939DF8543002936E
:10B760009DF8533001939DF852309DF8502000937E
:10B770003B499DF85130344810F0A2F93349324822
:10B7800010F09EF99DF85F300D939DF85E300C939C
:10B790009DF85D300B939DF85C300A939DF85B300B
:10B7A00009939DF85A3008939DF8593007939DF8F6
:10B7B000583006939DF8573005939DF85630049302
:10B7C0009DF8553003939DF8543002939DF8533003
:10B7D00001939DF852309DF85020009320499DF828
:10B7E00051301B4810F06CF91849194810F068F9ED
:10B7F000642019F0D5FF14A904221A480FF0D3FCD5
:10B800009DF8533001939DF852309DF850200093DD
:10B8100015499DF851300C4810F052F90B490A486F
:10B8200010F04EF99DF8533001939DF8523000937B
:10B830009DF850209DF851300B49054810F040F913
:10B8400062E600BF1027070070E10020786A070059
:10B85000D4E100208CE200201927070090E20020AC
:10B86000622707008DE20020AB2707007748002DF4
:10B8700040F09B800FF073FB75490246754810F04D
:10B880001FF97549734810F01BF970480FF067FBFA
:10B890006F490246714810F013F96F496F4810F074
:10B8A0000FF9642019F07CFF6D480FF069FB6D49BA
:10B8B0000246684810F004F96749664810F000F93C
:10B8C00067480FF05DFB67490246644810F0F8F8DE
:10B8D0006149624810F0F4F8642019F061FF624891
:10B8E0000FF05FFB614902465A4810F0E9F85A49E7
:10B8F000584810F0E5F85C480FF053FB5B490246EE
:10B90000564810F0DDF85449544810F0D9F8642036
:10B9100019F046FF56480FF055FB564902464D4870
:10B9200010F0CEF84C494B4810F0CAF850480FF0D0
:10B9300049FB50490246494810F0C2F84649474879
:10B9400010F0BEF8642019F02BFF4B480FF04BFBB2
:10B950004A4902463F4810F0B3F83F493D4810F0CD
:10B96000AFF845480FF03FFB444902463B4810F012
:10B97000A7F83949394810F0A3F8642019F010FFEE
:10B980003F480FF032FB3F490246324810F098F82A
:10B990003149304810F094F839480FF026FB394906
:10B9A00002462E4810F08CF8AEE50FF0D8FA284980
:10B9B0000246284810F084F82749264810F080F8FD
:10B9C00022480FF0CCFA22490246244810F078F8B9
:10B9D0002149224810F074F8642019F0E1FE2A4849
:10B9E0000FF037FB294902461A4810F069F81A4946
:10B9F000184810F065F824480FF02BFB2349024645
:10BA0000164810F05DF81449144810F059F86420F5
:10BA100019F0C6FE1E480FF01EFB1E4902460D48D7
:10BA200010F04EF80C490B4810F04AF818480FF087
:10BA300012FB18490246B4E707481AF0C9F9002476
:10BA40000EA80FF071FE204618B070BDB9E20020BC
:10BA5000C427070070E10020786A0700D4E10020C5
:10BA6000BAE20020D3270700BBE20020DB27070053
:10BA7000BCE20020E3270700BDE20020EB2707001F
:10BA8000BEE2002000280700C2E200200E280700C6
:10BA9000C3E200201B2807002DE9FF41536E012B54
:10BAA0000D46144624D1394910680CF0CEFC0446EA
:10BAB00020B10224204604B0BDE8F08102F0EEFC83
:10BAC000294633480FF0C8FF324931480FF0B2FF22
:10BAD000314A3249D379039393790293537901938D
:10BAE0001379009393782A4812880FF0E9FFE1E771
:10BAF000052BDED1161F02F1100756F8045F284609
:10BB00000CF0B5FC2B462844984205D013F8012BC5
:10BB1000303A092AF8D9CCE7BE42EED100221146CC
:10BB200020680CF011FE40F2D233A0F2E6729A4285
:10BB30000546BED80022606811460CF005FE431E83
:10BB40000B2B0646B5D80022A06811460CF0FCFD70
:10BB5000431E1E2B0746ACD80022E06811460CF0AD
:10BB6000F3FD18288046A4D80022206911460CF065
:10BB7000EBFD3B289DD8C2B200925FFA88F3FAB27F
:10BB8000F1B2A8B202F0CCFB002493E7F9890700D8
:10BB900070E10020AF3E07002CD900206928070083
:10BBA00007B503230193054B0093054B054A06484F
:10BBB00019460FF07AFC03B05DF804FB19BF0200D0
:10BBC000842807008C2807004EE2002007B50323D5
:10BBD0000193054B0093054B054A064819460FF0A3
:10BBE00064FC03B05DF804FBC9C00200DF28070055
:10BBF000E42807004EE2002007B503230193054B1C
:10BC00000093054B054A064819460FF04EFC03B059
:10BC10005DF804FBFDC202002F290700342907004C
:10BC20004EE2002007B503230193054B0093054B1B
:10BC3000054A064819460FF038FC03B05DF804FBCE
:10BC4000D1AE02005B290700602907004EE2002008
:10BC500007B503230193054B0093054B054A06489E
:10BC600019460FF022FC03B05DF804FB99BA0200FC
:10BC7000762907007A2907004EE2002007B5022343
:10BC80000193054B0093054B054A064819460FF0F2
:10BC90000CFC03B05DF804FB39B00200A1290700D9
:10BCA000A82907004EE2002030B5E7B08849894D49
:10BCB000902201A80BF02EFE8749B1F88C404A680B
:10BCC00002920A898B7AADF80C200B3122460DF1D5
:10BCD0000F008DF80E300BF01DFE804A8049814820
:10BCE000ADF890400FF0ECFE9DF804207E497D48B1
:10BCF0007E4C0FF0E5FE7E497A480FF0E1FE9DF89C
:10BD0000042079497B480FF0DBFE794979480FF030
:10BD1000D7FE642019F044FD704A714971480FF054
:10BD2000CFFE029A74496F480FF0CAFE70496D4801
:10BD30000FF0C6FE029A70496E480FF0C1FE6C49C2
:10BD40006C480FF0BDFE642019F02AFD634A644977
:10BD500064480FF0B5FE9DF80C20684961480FF06B
:10BD6000AFFE63495F480FF0ABFE9DF80C206349BE
:10BD700060480FF0A5FE5E495E480FF0A1FE64200A
:10BD800019F00EFD554A564956480FF099FE9DF898
:10BD90000D205B495348002A14BF2A4622460FF063
:10BDA0008FFE53494F480FF08BFE9DF80D205449EC
:10BDB0005048002A14BF2A4622460FF081FE4C4903
:10BDC0004C480FF07DFE642019F0EAFC434A4449D8
:10BDD00044480FF075FE9DF80E204A494148002A5C
:10BDE00014BF2A4622460FF06BFE41493D480FF032
:10BDF00067FE9DF80E2043493E48002A14BF2A469C
:10BE000022460FF05DFE3A493A483F4D0FF058FE8A
:10BE10000024642019F0C4FCFE22214626A82594A3
:10BE20000BF086FDBDF89030E0B2984204F10104B9
:10BE300009DA01AB03442946DA7A25AB03EB40006B
:10BE40000CF0D6FAEEE7254A254926480FF038FED1
:10BE500025AA2E4923480FF033FE254921480FF02B
:10BE60002FFE25AA294923480FF02AFE2049214800
:10BE70000FF026FE642019F093FC184A184919485F
:10BE80000FF01EFEBDF89020214916480FF018FE55
:10BE9000174914480FF014FEBDF890201C491548AE
:10BEA0000FF00EFE124913480FF00AFE642019F03D
:10BEB00077FC1848902301AA00210FF00EFB28B947
:10BEC00001469023134801AA0FF007FB67B030BD6D
:10BED000FC2C070002260700F8A20020BC25070062
:10BEE000401C070070E10020C3290700BF2907009C
:10BEF000786A0700D4E10020D6290700F42907005A
:10BF00000A2A0700232A070053AB07003D2A07002F
:10BF1000562A07004FE20020F8B5536E012B0E465B
:10BF2000154664D15B4910680CF08FFA0446F8B9E5
:10BF3000594F5A497B685A4832464FF47A75B3FBD9
:10BF4000F5F30FF0BDFD574955480FF0B9FD7B687B
:10BF50005249B3FBF5F3324653480FF0B1FD514956
:10BF600051480FF0ADFD642019F01AFC2046F8BDD1
:10BF70004E4A4F494A480FF0A3FD2A684D494848A8
:10BF80000FF09EFD474946480FF09AFD2A6849493F
:10BF900045480FF095FD434943480FF091FD64205B
:10BFA00019F0FEFB2D6828460CF061FA002484424B
:10BFB00021D02B5D303B092B1BD93C4A3C493848EA
:10BFC0000FF07EFD22463C4935480FF079FD35499A
:10BFD00033480FF075FD3849334822460FF070FDA5
:10BFE000304931480FF06CFD642019F0D9FB022470
:10BFF000BCE70134DBE70A22002128460CF0A4FB51
:10C000002A4A2B49244D044625480FF059FD224663
:10C010002A4923480FF054FD224921480FF050FDD2
:10C020002246264920480FF04BFD1E491E480FF0BE
:10C0300047FD642019F0B4FB4FF47A701B4A1C4989
:10C04000444317486C600FF03BFD6A681C49144874
:10C050000FF036FD134912480FF032FD6A68184997
:10C0600011480FF02DFD0F490F480FF029FD6420F6
:10C0700019F096FB134800210FF04DFA6A6822B1BF
:10C080000023104819460FF03CFAFFF70DFE00247C
:10C090006CE700BFF9890700F8A20020732A0700A7
:10C0A00070E10020786A0700D4E10020BC25070079
:10C0B000401C07007A2A07008F2A07009E2A0700E3
:10C0C000B52A070051E20020536E012B70B50E46D1
:10C0D000154601D002241DE0794910680CF0B5F92D
:10C0E0000446C8B9774D78492B7A784832460FF024
:10C0F000E7FC774975480FF0E3FC2B7A72497548E5
:10C1000032460FF0DDFC724972480FF0D9FC642012
:10C1100019F046FB204670BD6F4A70496B480FF01E
:10C12000CFFC2A686E4969480FF0CAFC6849674825
:10C130000FF0C6FC2A686A4966480FF0C1FC6449E2
:10C1400064480FF0BDFC642019F02AFB2D682846D6
:10C150000CF08DF90024844220D02B5D303B092B5C
:10C160001AD95D4A5D4959480FF0AAFC22465D493B
:10C1700056480FF0A5FC564954480FF0A1FC224642
:10C18000584954480FF09CFC514952480FF098FC14
:10C19000642019F005FB9DE70134DCE70A22002149
:10C1A00028460CF0D1FA474E4B4A4C49347A0546A2
:10C1B00046480FF085FC2A464B4944480FF080FC66
:10C1C000434942480FF07CFC2A46474941480FF05A
:10C1D00077FC3F493F480FF073FC642019F0E0FA08
:10C1E000022D3FF677AFA54201D1002492E71CB99A
:10C1F000012D04D001241BE0012CFBD1C5B9364A26
:10C20000364932480FF05CFC384930480FF058FC92
:10C210002F492E480FF054FC34492E480FF050FCA3
:10C220002B492C480FF04CFC642019F0B9FA00247B
:10C23000294A2A49254835720FF042FC327A2C49A6
:10C2400022480FF03DFC224920480FF039FC327A99
:10C25000274920480FF034FC1D491E480FF030FCE0
:10C26000642019F09DFAFFF71FFD337A012B21D0CE
:10C27000022B22D00BB9FCF781FC002CB5D01D4954
:10C2800012480FF01DFC124910480FF019FC194913
:10C2900010480FF015FC0E490E480FF011FC6420F9
:10C2A00019F07EFA41F2883019F07AFA12480FF04C
:10C2B000F1F89AE7FCF7E2FCDFE7FCF74BFDDCE77F
:10C2C000F9890700F8A20020C62A070070E10020C3
:10C2D000786A0700D4E10020BC250700401C070055
:10C2E0007A2A07008F2A0700CC2A0700DF2A0700D6
:10C2F000F92A07000B2B0700E8E10020536E012B01
:10C300002DE9F0410E46154678D1D2F800803F491C
:10C310003F4F40460CF099F8044688BBB7F88C3084
:10C32000BBB932463B493C480FF0CAFB3B493A484F
:10C330000FF0C6FB37493A4832460FF0C1FB374988
:10C3400037480FF0BDFB642019F02AFA2046BDE8FB
:10C35000F08131463348344E19F03AFD2546B7F89E
:10C360008C20EBB2934205F1010505DA3B443046DF
:10C37000D97A19F02DFDF2E7284819F029FDE5E7F3
:10C3800040460CF074F8294A2949064622480FF025
:10C3900097FB2A68274920480FF092FB1F491E4847
:10C3A0000FF08EFB2A6823491D480FF089FB1B49BB
:10C3B0001B480FF085FB642019F0F2F9286807F19B
:10C3C0000B02314614F01EF80446C8B1174A18494A
:10C3D00011480FF075FB18490F480FF071FB0F491A
:10C3E0000D480FF06DFB14490D480FF069FB0B4928
:10C3F0000B480FF065FB642019F0D2F90224A5E781
:10C400007608A7F88C60FFF74FFC9FE7F9890700D3
:10C41000F8A20020282B070070E10020786A0700AE
:10C42000D4E10020342B070053AB0700BC250700E4
:10C43000401C07007A2A0700382B0700F0B5E7B048
:10C440004449902201A80BF065FA01AA0021424854
:10C4500090230FF038F80546404A41494148ADB9AC
:10C460000FF02EFB40493F480FF02AFB3F493D4863
:10C470000FF026FB3C493E480FF022FB3B493C486D
:10C480000FF01EFB642019F08BF95FE00FF018FB32
:10C490009DF8042037493348374C0FF011FB3349DE
:10C4A00030480FF00DFB9DF80420324930480FF062
:10C4B00007FB2E492E480FF003FB642019F070F99A
:10C4C000264A274927480FF0FBFA029A2B492548AC
:10C4D0000FF0F6FA254923480FF0F2FA029A27499D
:10C4E00023480FF0EDFA214921480FF0E9FA6420C2
:10C4F00019F056F99DF80430AA2B43D0174A184971
:10C5000018480FF0DDFA029A1D4916480FF0D8FAC4
:10C51000164914480FF0D4FA029A194914480FF03A
:10C52000CFFA124912480FF0CBFA642019F038F90B
:10C5300000254FF08073C4E9015340F20233A38118
:10C540000423A373A4F88C30FFF7AEFB284667B032
:10C55000F0BD00BFFC2C07004FE20020BC25070007
:10C56000401C070070E10020512B0700786A07008B
:10C57000D4E10020792B0700F8A20020882B0700C7
:10C58000A02B0700029B63609DF80C30022B40F249
:10C59000DD808B4A8B498C480FF092FA9DF80C2075
:10C5A0008A4989480FF08CFA894987480FF088FA40
:10C5B0009DF80C20854987480FF082FA8449854808
:10C5C0000FF07EFA642019F0EBF800232372FFF7D6
:10C5D0006BFBBDF890209DF80D306372802A9DF8AA
:10C5E0000E30A37240F2B480754A764976480FF057
:10C5F00067FABDF89020784973480FF061FA7449E2
:10C6000071480FF05DFABDF89020734971480FF042
:10C6100057FA6F496F480FF053FA642019F0C0F8C9
:10C620000023E372A4F88C30654A664966486B4F74
:10C630006B4E0FF045FA62686A4963480FF040FAA2
:10C64000634961480FF03CFA6268664961480FF03F
:10C6500037FA5F495F480FF033FA642019F0A0F809
:10C66000574A584958480FF02BFA227A5E495648E3
:10C670000FF026FA564954480FF022FA227A5A4906
:10C6800054480FF01DFA524952480FF019FA64202D
:10C6900019F086F84A4A4B494B480FF011FA627A72
:10C6A00052494948002A14BF3A4632460FF008FA68
:10C6B000474945480FF004FA627A4C494548002A38
:10C6C00014BF3A4632460FF0FBF9414941480FF09A
:10C6D000F7F9642019F064F8394A3A493A480FF0FA
:10C6E000EFF9A27A42493848002A14BF3A46324646
:10C6F0000FF0E6F9364934480FF0E2F9A27A3C49E6
:10C700003448002A14BF3A4632460FF0D9F930496E
:10C710003048384F0FF0D4F90026642019F040F863
:10C72000FE22314626A825960BF002F9B4F88C308B
:10C73000F0B2984206F1010612DA23183946DA7A85
:10C7400025AB03EB40000BF053FEEFE7237240E70D
:10C750000DF10F012848A4F88C200BF0DBF863E7FB
:10C76000174A184918480FF0ABF925AA234916486B
:10C770000FF0A6F9164914480FF0A2F925AA1F498F
:10C7800014480FF09DF9124912480FF099F96420EE
:10C7900019F006F80A4A0B490B480FF091F9B4F862
:10C7A0008C20174908480FF08BF9094906480FF00B
:10C7B00087F9B4F88C20124906480FF081F95DE63C
:10C7C000BC250700401C070070E10020D52B0700A6
:10C7D000786A0700D4E10020F02B0700022607004A
:10C7E000BF2907000C2C0700242C0700372C07005A
:10C7F0004D2C070053AB070003A30020642C070057
:10C80000752C070010B5074B53F82020002332F891
:10C8100013408C42D8B203D80133102BF7D11846FD
:10C8200010BD00BF54A400202DE9F34101219F4E0B
:10C83000074622200FF0F7F94FF4FA7018F0B0FF16
:10C840003578002D40F0AD8099499A48009540F226
:10C850004C43422207F0D0FE0446C0B9964A97499D
:10C8600097480FF02DF9974995480FF029F9964907
:10C8700093480FF025F9934994480FF021F9924914
:10C8800092480FF01DF9642018F08AFF74E08A4A7C
:10C890008A498B484FF0020886F800800FF010F9A3
:10C8A0008B4987488B4E0FF00BF9874984480FF06E
:10C8B00007F9874985480FF003F9834983480FF04A
:10C8C000FFF8642018F06CFF7A4840F24C420121D6
:10C8D00007F0ACFC002F59D040F24C432A4601210E
:10C8E000744807F01BFD40F24C4342460121714859
:10C8F00007F014FD40F24C43062201216D4807F079
:10C900000DFD0122114640F24C436A4807F006FD36
:10C9100040F24C4303220121664807F0FFFC40F23D
:10C920004C4304220121634807F0F8FC40F24C43D9
:10C9300005226048012107F0F1FCB37A40F24C4235
:10C94000F3B105215B4807F0B8FE5A4840F24C436A
:10C950002A46012107F0B8FD564840F24C4107F045
:10C960006BFC337A022B03D1B37A002B40F09B800F
:10C97000002122200FF057F9204602B0BDE8F081D7
:10C980004FF4FA714B4807F0D9FEE5E740F24C420C
:10C990004FF0FF31474807F06FFCFA2018F000FF16
:10C9A000DFE70025424943480095422240F24C43CC
:10C9B00007F022FE0446404A404941485CB90FF066
:10C9C0007FF845493E480FF07BF83F493C480FF05F
:10C9D00077F8414950E70FF073F8404938480FF0B5
:10C9E0006FF8394936480FF06BF83C4937480FF07B
:10C9F00067F8354935480FF063F8642018F0D0FE29
:10CA000040F24C4201212B4807F010FC40F24C430D
:10CA10002A460121274807F081FC40F24C430222BC
:10CA20000121244807F07AFC40F24C430622012100
:10CA3000204807F073FC0122114640F24C431D4888
:10CA400007F06CFC40F24C4303220121194807F027
:10CA500065FC40F24C4304220121164807F05EFCBD
:10CA600040F24C4305221348012107F057FC194BB3
:10CA70009B7A40F24C4283B105210E4807F01DFE1F
:10CA80000C4840F24C432A46012107F01DFD40F2BC
:10CA90004C41084807F0D0FB6EE74FF4FA710548A7
:10CAA00007F04CFEF3E71C4666E700BF7CD600208B
:10CAB000CCE20020ACD600204F1C0700401C070031
:10CAC00070E100208C2D0700786A0700D4E1002077
:10CAD000A82D0700F8A20020BB2D0700D02D0700CD
