:020000022000DC
:10700000000004205DAD030085AD030087AD0300E3
:1070100089AD03008BAD03008DAD030000000000BF
:107020000000000000000000000000008FAD030021
:1070300091AD03000000000000000000000000000F
:10704000219C050093AD0300A1BA0500F9A105003C
:1070500093AD03006198050039960500517E060046
:1070600093AD030039A105004DA1050093AD0300C8
:1070700093AD030093AD030093AD030093AD030004
:10708000558B0600396E050093AD030093AD0300E8
:1070900093AD030093AD0300D974060093AD0300D4
:1070A00093AD030093AD030061A1050075A1050038
:1070B00093AD030093AD030000000000000000004A
:1070C00093AD030093AD030093AD03008D830600E1
:1070D000519E050093AD030093AD0300B1B70500C9
:1070E00029B8060093AD030069DF06000000000028
:1070F0000000000093AD0300000000005D87060063
:10710000000000000000000000000000000000007F
:10711000000000000000000000000000000000006F
:10712000000000000000000000000000000000005F
:10713000000000000000000000000000000000004F
:10714000000000000000000000000000000000003F
:10715000000000000000000000000000000000002F
:10716000000000000000000000000000000000001F
:10717000000000000000000000000000000000000F
:1071800000000000000000000000000000000000FF
:1071900000000000000000000000000000000000EF
:1071A00000000000000000000000000000000000DF
:1071B00000000000000000000000000000000000CF
:1071C00000000000000000000000000000000000BF
:1071D00000000000000000000000000000000000AF
:1071E000000000000000000000000000000000009F
:1071F000000000000000000000000000000000008F
:1072000010B5054C237833B9044B13B10448AFF3E0
:1072100000800123237010BDC0D4002000000000B6
:107220002827080008B5034B1BB103490348AFF3F7
:10723000008008BD00000000C4D4002028270800FA
:10724000154B002B08BF134B9D46A3F5803A002138
:107250008B460F461348144A121A11F071FA0F4B5D
:10726000002B00D098470E4B002B00D098470020F1
:10727000002104000D000D48002802D00C48AFF397
:10728000008011F00DFA2000290010F093FF11F09A
:10729000F3F900BF00000800000004200000000017
:1072A00000000000C0D400209CC6012000000000A7
:1072B000000000000022C0E900220172704738B5CA
:1072C0000446006820B1856913F010FD2846F9E7EF
:1072D000204638BD006820B143688B4201D08069E8
:1072E000F9E77047F8B504460F4616461D46FFF706
:1072F000F1FF20B10123826005704370F8BD1C20AE
:1073000013F0F8FC012343700023C0E90333C0E904
:10731000053323680570C0E9017613B92060606009
:10732000ECE763689861FAE72DE9F8430468164FC3
:1073300005460E464FF000081CB363680BB9A469FC
:10734000FAE72378002BFAD0E368A268F31A9A428E
:1073500002D961780029F2D09B1A636184F8018018
:10736000E66015F079FB63688146984715F074FB79
:107370003B68A0EB0900206118442B7A3860002B91
:10738000DDD0BDE8F88300BFDCD4002008B5074B92
:1073900050B103221A700648FA22012114F0B9FFF5
:1073A000044B00221A7008BD0522F3E7E0D4002048
:1073B00071E400202DD60020054B064800221A70EB
:1073C000054B08221A700121FA2214F0A2BF00BF57
:1073D0002DD6002071E40020E0D4002084B004AB5E
:1073E00003E907000B4BBDF90A201A800A4B9DF9EF
:1073F0000C201A70094A0A48136801331360094BBC
:1074000000221A70084B0121FA22197004B014F0FE
:1074100080BF00BF10D5002012D5002028D6002044
:1074200071E400202DD60020E0D40020124B002271
:107430001A70124B5B7A022B1DD0114B90F906206B
:107440001A70104BB0F904201A800F4A0378137099
:107450000E4A417811700E4A817811701BB10D4AA5
:107460001368013313600C4B0C4804221A7001217D
:10747000FA2214F04EBF70472DD6002000A3002042
:1074800012D5002010D5002015D6002013D60020DC
:1074900014D6002024D60020E0D4002071E400207F
:1074A00010B5044608F0AEFC204610BD08B5064BEA
:1074B0001B783BB115F0CBFABDE808400146034804
:1074C000FFF732BF08BD00BF59D8002018D60020F2
:1074D0001F4B07B501221F481A7014F0C6FC18B1E3
:1074E0001D48002114F08BFC1C4814F00FFE1C49B1
:1074F0001C4814F01DFD1C491A4814F029FD1B49B5
:10750000184814F01DFD1A49164814F029FD1949B0
:10751000144814F02DFD0021174814F067FD0021D8
:10752000164814F0D1FD3223012200930D480A239E
:10753000114614F0BCFC124BDB7A33B1012122203E
:1075400003B05DF804EB15F076BA03B05DF804FB08
:10755000A1A10020E4E40020CEE40020CDE400203E
:107560002D8E0200A9E40020318F02008D730200ED
:107570002D740200DD8F0200B1E40020CBE4002076
:1075800000A3002010B50B4C00212046FFF792FE0F
:107590002046094C094A0A4911F056F8FF212046B5
:1075A00008F024FC2046054A0649BDE8104011F0C9
:1075B0004BB800BF18D6002004D5002090A10020B1
:1075C000BF720200A17402002DE9FF41994C9A4D4F
:1075D000637A9A4F0126022B2E7040F0A3819848BF
:1075E00008F017FCE37A002B00F06081954A3B78A5
:1075F00011789046002940F0F1805BB1924B1B78E6
:1076000043B906F067FE9148314607F025FB9048E4
:1076100006F002FE06F0A4F8002856D08D4B1B7829
:10762000F3B98D4A8D498E4815F052F98D498C4831
:1076300015F04EF98C498A4815F04AF9884814F03B
:107640001DFB8849894815F043F98749874815F09B
:107650003FF964201EF0B2FF8548012114F043FD7C
:10766000B4F88E0005F068FE60B3754808F0D4FBEE
:107670000390734808F0D2FB01230246CDE90033A2
:1076800003997C4814F02EFC0446D8B9724A734919
:10769000734815F01DF97849714815F019F97249C8
:1076A0006F4815F015F96E4814F0E8FA72496F4802
:1076B00015F00EF96C496D4815F00AF964201EF0BA
:1076C0007DFF2C7004B0BDE8F0816C4A117809BBD5
:1076D0006B4B1B7803F0FF06E3B90123584888F889
:1076E000003008F096FB674B67481E8041F28832F5
:1076F0006368B3FBF2F3654A1380654B1E70654BFC
:1077000040F6C4121E700321334604B0BDE8F041B8
:1077100014F0FFBD002313703B784BB14A4B1B782C
:1077200033B95D495D4811F0A2FD5C4806F074FD77
:10773000002300931A4619464148B7EE000A08F0A4
:107740008BFA444B1B78F3B9554A4449444815F029
:10775000BFF84449424815F0BBF84349404815F08A
:10776000B7F83F4814F08AFA3E49404815F0B0F89F
:107770003D493E4815F0ACF864201EF01FFF3C4820
:10778000012114F0B0FCB4F88E0005F0D5FD0028FE
:1077900098D02B4808F040FB0390294808F03EFBA6
:1077A00001240246CDE9004403993248234614F0EF
:1077B00099FB002885D13A4A28702849284815F0B5
:1077C00087F82D49264815F083F82749244815F0F5
:1077D0007FF8234814F052FA27491DE05BB11A4B99
:1077E0001B7843B906F076FD1848314607F034FAA5
:1077F0002C4806F011FD184A1849194815F068F888
:107800002949174815F064F81749154815F060F82C
:10781000134814F033FA2449144815F059F8124962
:10782000124815F055F8642004B0BDE8F0411EF090
:10783000C5BE00BF00A300202DD600200DD500201E
:1078400004D500200CD5002058D8002008350700AA
:10785000193507002CD600203435070038350700CD
:1078600090E300203E35070078840700F4E3002011
:10787000CCE40020A9E400204B35070002D500200D
:10788000E1D4002078D8002071E400207AD80020CC
:10789000A8D80020A9D800206735070013D50020FC
:1078A0007D35070082350700963507003B785BB1D0
:1078B0008D4B1B7843B906F00DFD8C48314607F01F
:1078C000CBF98B4806F0A8FC002300931A46194612
:1078D0008848B7EE000A08F0BFF9874B1B78002BE9
:1078E0007FF4BEAE0121854814F0FDFB844A854932
:1078F000854814F0EDFF8549834814F0E9FF844979
:10790000814814F0E5FF804814F0B8F97F498148B8
:1079100014F0DEFF7E497F4814F0DAFF64201EF089
:107920004DFE9DE63B7853B16F4B1F783FB906F093
:10793000D1FC7948314607F08FF9784B1F706D48BC
:1079400008F067FA764814F0DDFB002800F09F800D
:10795000744814F061FB002800F086800121242087
:1079600015F069F8664A6749674814F0B1FF6E4937
:10797000654814F0ADFF6649634814F0A9FF6248FA
:1079800014F07CF96849634814F0A2FF604961482B
:1079900014F09EFF64201EF011FE644B1B78002B38
:1079A0004CD0634806F038FC534B1B78F3B9544A6B
:1079B0005449554814F08CFF5449534814F088FF3B
:1079C0005349514814F084FF4F4814F057F94F4978
:1079D000504814F07DFF4E494E4814F079FF642062
:1079E0001EF0ECFD4548012114F07DFBE37A63B302
:1079F00005F0B6FE20B94F4A002313604E4A1360CB
:107A00003C4808F009FA80B205F096FC00283FF4E3
:107A100059AE384808F000FA0390364808F0FEF9ED
:107A20000123CDE9003303990246444814F05AFA81
:107A300000287FF447AE324A2870BEE6374B1B78E9
:107A40000BB13F48AEE73F48ACE7B4F88E0005F015
:107A500073FC00283FF436AE0123CDE900333A4AE7
:107A600094F88E100223E0E7254A2649287026481C
:107A700014F02EFF3549244814F02AFF24492248E7
:107A800014F026FF204814F0F9F83049C4E601212B
:107A9000232014F0D0FF1A4A1A491B4814F018FF8B
:107AA0002B49194814F014FF1949174814F010FF16
:107AB000154814F0E3F82649164814F009FF144954
:107AC000144814F005FF64201EF078FD1D4806F0F0
:107AD000A3FB01231C4A94F88E101E4814F0ADF944
:107AE00001232B70EEE500BF58D8002008350700B1
:107AF000AA35070004D500202CD60020CCE40020B5
:107B0000343507003835070090E300203E35070084
:107B100078840700F4E30020B635070002D5002082
:107B2000CDE40020B4E40020C7350700E1D40020F4
:107B3000D33507008CD8002088D80020A9E4002085
:107B4000E4350700F33507000CA3002001360700D9
:107B50001F360700CEE400202DE9F04F2DED028BFB
:107B600000218BB0744E0446242014F064FF0021E1
:107B7000232014F060FF337863B1704B1B784BB94E
:107B800006F0A8FB6E496F4811F071FB6D480121AA
:107B900007F062F8FCB96C4A6C496D4814F098FE25
:107BA0006C496B4814F094FE6B49694814F090FEE0
:107BB000674814F063F86749684814F089FE66491D
:107BC000664814F085FE64201EF0F8FC0BB0BDEC96
:107BD000028BBDE8F08F2278012A40F01F82604BB3
:107BE000604F1B78604D002B2FD0604B1B78002B13
:107BF00000F0988007F066F95D4A5E4B11881980A5
:107C0000917899701179D970517919719179D279E6
:107C100059719A710122DA71574900221A72096862
:107C2000D9605649096819611A755A75398849B277
:107C30009975297849B2D9751A835A839A83504A1B
:107C4000126812B2DA8307F017FD33784D4E002B1D
:107C500000F0FC80394B1C78002C40F0F7804A493A
:107C6000384811F004FB374907A814F0ABFC07AA09
:107C70002146204606F04AFB07A814F05DFC326856
:107C80004249304811F0BCFA2E4907A814F09AFC7A
:107C900007AA2146012006F039FB07A814F04CFC86
:107CA0003B4814F064F84AF0E5FE21A3D3E9002331
:107CB0004BF084F80B4602463649224811F0A0FAF0
:107CC000204907A814F07EFC07AA2146022006F0EE
:107CD0001DFB07A814F030FC2F4814F059F82F4969
:107CE0000246184811F08CFA164907A814F06AFCED
:107CF00007AA2146032006F009FB07A814F01CFC84
:107D0000274814F056F8092800F24681DFE810F001
:107D10004A0032013401360138013A013C013E018A
:107D20004001420107F046FA66E700BFAFF300806A
:107D30000000000080842E410DD5002058D800207E
:107D4000B635070013D50020343507003835070055
:107D500090E300203336070078840700F4E3002026
:107D60000ED5002010D5002012D5002034DB0020D5
:107D70002CDB0020A4A1002088D800208CD8002073
:107D800024D6002028D60020403607004E360700B3
:107D9000D9E40020173E0700DAE40020704907000C
:107DA000DBE40020804905A811F061FA7F4814F057
:107DB00000F87F4B7F4953F820207F4811F020FACC
:107DC0007D4907A814F0FEFB07AA4021032006F016
:107DD0009DFA07A814F0B0FB784813F0FBFF784930
:107DE000421D754811F00CFA734907A814F0EAFB1C
:107DF00007AA4021022006F089FA07A814F09CFB8C
:107E00003A8870496C4812B211F0FAF96A4907A829
:107E100014F0D8FB07AA0021042006F077FA07A87F
:107E200014F08AFB2A786849634852B211F0E8F9E5
:107E3000614907A814F0C6FB07AA4021042006F0F8
:107E400065FA07A814F078FB06F07AFA5F4A6049F1
:107E5000604814F03DFD60495E4814F039FD5F490B
:107E60005C4814F035FD5B4813F008FF5A495C4844
:107E700014F02EFD59495A4814F02AFD64201EF0D2
:107E80009DFB524A5249534814F022FD32683B8808
:107E90002978504849B21BB20091524914F018FD9C
:107EA0004E494C4814F014FD4A4813F0E7FE32687E
:107EB0003B8829784A4849B21BB20091494914F0DD
:107EC00007FD4649464814F003FD64201EF076FB8A
:107ED0003E4A3F493F4814F0FBFC434813F047FF3C
:107EE00008EE100A414813F053FF06462F4813F0DE
:107EF00060FFF8EE487A054617EE900A4AF0DCFD7E
:107F000027A3D3E900234AF059FF7D2405FB04454C
:107F100002460B46CDE9006535492E4814F0D8FCE1
:107F20002E492C4814F0D4FC2A4813F0A7FE2E4802
:107F300013F01DFF08EE100A2C4813F029FF054628
:107F40001A4813F036FFF8EE487A064617EE900A04
:107F50004AF0B2FD12A3D3E900234AF02FFF06FB3B
:107F6000044402460B46CDE9005421491C4814F054
:107F7000AFFC24E61F4916E71F4914E71F4912E723
:107F80001F4910E71F490EE71F490CE71F490AE781
:107F90001F4908E71F4906E71F4904E7AFF30080C0
:107FA0000000000080842E4162360700DBE40020E0
:107FB00078A200209836070013D50020DCE40020CA
:107FC000894907004938070054380700343507004D
:107FD0003835070090E300209E36070078840700BC
:107FE000F4E30020AB360700D9E40020DAE40020F7
:107FF000C6360700663607006A3607006E36070089
:1080000072360700773607007D3607008336070093
:10801000893607008F36070094360700844B1B789B
:10802000022B40F0AC80834B00221A70824B1B78ED
:10803000002B2FD0814B1B78002B6AD006F042FF1B
:108040007F4B804C1A8822809A78A2701A79E2704D
:108050005A7922719A79DB796271A3717A4A7B48E5
:108060000023E37123721268E260794A1268226188
:1080700023756375A375E37523836383A383754BAE
:108080001B681BB2E38313F0DBFF40B284F82000CF
:1080900007F0F2FA3378002B3FF498AD6E4B1C7862
:1080A000002C7FF493AD06F015F96C486C4D01215E
:1080B00006F0D2FD6B496C4811F0D9F86A4907A85F
:1080C00014F080FA07AA2146204606F01FF907A8F7
:1080D00014F032FA2A686549634811F091F8624950
:1080E00007A814F06FFA07AA2146022006F00EF93D
:1080F00007A814F021FA2B68013B0F2B3DD8DFE8CD
:1081000003F00B1E20222426282A2C2E303234364F
:10811000383A07F04FF893E75549534811F0A7F85C
:10812000514907A814F04EFA07AA0021042006F0CE
:10813000EDF807A814F000FA06F002F946E54D49FB
:10814000EBE74D49E9E74D49E7E74D49E5E74D499B
:10815000E3E74D49E1E74D49DFE74D49DDE74D49AB
:10816000DBE74D49D9E74D49D7E74D49D5E74D49BB
:10817000D3E74D49D1E74D49CFE74D49CDE7032A34
:1081800040F0A2803378002B3FF420AD324B1E78B4
:10819000002E7FF41BAD474C657A002D34D0022DA4
:1081A0003FD04FF47A7362684349B2FBF3F22E4832
:1081B00011F026F82C4907A814F004FA07AA0021A8
:1081C000012006F0A3F807A814F0B6F93B4907A868
:1081D00014F0F8F9002107AA022006F097F807A882
:1081E00014F0AAF92849204811F041F81E4907A8BF
:1081F00014F0E8F9002107AA032006F087F807A881
:1082000014F09AF92D498CE72D4907A814F0DAF9F2
:1082100007AA2946084606F079F807A814F08CF951
:10822000BFE7284907A814F0CDF907AA3146F1E7BE
:10823000E0D400202DD600200ED5002034DB002015
:108240002CDB0020A4A1002088D80020B8E4002066
:108250008CD8002024D6002058D80020B63507003E
:1082600030D60020383A070013D50020D936070051
:10827000E3360700F1360700FC3607000837070031
:10828000143707001E370700283707003437070068
:10829000483707005B3707006B3707007837070060
:1082A0008237070092370700A0370700AC37070076
:1082B000BD37070000A30020EC370700EBE80700FC
:1082C000CB370700DA370700042A40F03382AD4B82
:1082D000AD4D1B78DFF82893DFF82883AB4F002BD8
:1082E0003DD0AB4B1B78002B00F0978106F0EAFDE8
:1082F000A84BA94C1A8822809A78A2701A79E27049
:108300005A7922719A79DB796271A3710023E37142
:1083100098F80020A148D2B22272A14A1268E26005
:10832000A04A126822612A8852B222752A8852B263
:1083300062752A8852B2A27599F8002052B2E2758D
:10834000238363833B78A383974B1B681BB2E38330
:1083500013F076FE40B284F8200007F08DF93378F0
:10836000DFF8A4A2914C002B00F0A380904B1E7864
:10837000002E40F09E808F4B21788F4A8F48002935
:1083800018BF1A468E4910F03BFF8C4907A814F01D
:1083900019F907AA3146304605F0B8FF07A814F0CE
:1083A000CBF8227802F0FF0B002A40F039813A78AE
:1083B0008449824810F024FF804907A814F002F98C
:1083C00007AA5946012005F0A1FF07A814F0B4F848
:1083D000724813F035FE7C490246784810F010FFD1
:1083E000764907A814F0EEF807AA5946022005F0CE
:1083F0008DFF07A814F0A0F898F8002073496F4883
:1084000010F0FEFE6D4907A814F0DCF807AA402121
:10841000022005F07BFF07A814F08EF8DAF80020A0
:108420006B49664810F0ECFE644907A814F0CAF8DE
:1084300007AA5946032005F069FF07A814F07CF845
:10844000594B64491A685D4810F0DAFE5B4907A889
:1084500014F0B8F807AA4021032005F057FF07A839
:1084600014F06AF82A885C49544812B210F0C8FE29
:10847000524907A814F0A6F807AA5946042005F0A7
:1084800045FF07A814F058F899F8002053494B48C5
:1084900052B210F0B5FE494907A814F093F8042031
:1084A00007AA402105F032FF07A814F045F805F0AF
:1084B00047FF4B4A4B494C48DFF8FCB03D4E14F0A7
:1084C00007FA227849494848002A0CBF5A463246E2
:1084D00014F0FEF94649444814F0FAF9424813F002
:1084E000CDFB227841494348002A0CBF5A46324608
:1084F00014F0EEF93E493F4814F0EAF964201EF00A
:108500005DF8374A3749384814F0E2F9DAF80020C4
:108510002B8899F80010344849B21BB200913649B3
:1085200014F0D6F93249304814F0D2F92E4813F03D
:10853000A5FBDAF800202B8899F800102D4849B2E5
:108540001BB200912C4914F0C3F92949294814F0B1
:10855000BFF964201EF032F8214A2249224814F063
:10856000B7F998F8002025493B781F4814F0B0F976
:108570001F491D4814F0ACF91B4813F07FFB98F815
:10858000002043E00ED5002010D5002013D6002097
:1085900034DB00202CDB0020A4A10020B8E4002064
:1085A00088D800208CD8002024D6002015D60020A2
:1085B00058D800202F3607003036070013D500208A
:1085C000FF37070010380700243807002D38070050
:1085D000363807003E380700463807005138070094
:1085E000343507003835070090E3002003380700D2
:1085F00078840700F4E30020AB36070079380700E1
:1086000012D5002014D6002028D600206B493B78D4
:108610006B4814F05DF9FFF7D2BA06F0CBFD67E6C0
:10862000DAF800206749684810F0EAFD664907A8B3
:1086300013F0C8FF07AA3146012005F067FE07A81E
:1086400013F07AFF614B62491A685F4810F0D8FD59
:108650005D4907A813F0B6FF07AA4021012005F0E5
:1086600055FE07A813F068FF22785A49564810F0C3
:10867000C7FD554907A813F0A5FF07AA31460220F8
:1086800005F044FE07A813F057FF2378013B0F2B9A
:108690004ED8DFE803F0082F31333537393B3D3F03
:1086A00041434547494B4C49474810F0E0FD464996
:1086B00007A813F087FF07AA0021032005F026FE74
:1086C00007A813F039FF454813F0BAFC44490246A5
:1086D0003D4810F095FD3C4907A813F073FF07AA29
:1086E0000021042005F012FE07A813F025FF05F075
:1086F00027FEDCE63B49D7E73B49D5E73B49D3E7D3
:108700003B49D1E73B49CFE73B49CDE73B49CBE785
:108710003B49C9E73B49C7E73B49C5E73B49C3E795
:108720003B49C1E73B49BFE73B49BDE73B49BBE7A5
:108730003B49B9E7052A40F083803378002B3FF4AA
:1087400045AA384B1B78002B7FF440AA364C657A3B
:1087500025B3022D2FD04FF47A7362683349B2FBF0
:10876000F3F2194810F04CFD174907A813F02AFF3F
:1087700007AA0021012005F0C9FD07A813F0DCFEBF
:108780002B4907A813F01EFF002107AA022005F0BD
:10879000BDFD07A813F0D0FE264924E5264907A809
:1087A00013F010FF0021084607AA05F0AFFD07A847
:1087B00013F0C2FECFE72149F1E700BF7938070087
:1087C000F4E300203638070013D5002024D600201B
:1087D0003E3807005B380700E3360700B8E40020A6
:1087E00070380700F1360700FC360700083707002D
:1087F000143707001E3707002837070034370700F3
:10880000483707005B3707006B37070078370700EA
:108810008237070092370700A0370700AC37070000
:10882000BD37070058D8002000A30020EC37070010
:10883000EBE8070091380700CB370700DA3707006D
:10884000062B40F0E781B14BB1499A78DD781C796D
:1088500093F805B0AF485F78C83A92B20292C5EB80
:10886000451205EB8205C4EB441204EB82044FFA77
:108870008BFAA94A14F02CF85246A849A54814F0DE
:1088800027F8A749A34814F023F8A24813F0F6F9F3
:108890005246A249A34814F01BF8A149A14814F07C
:1088A00017F864201DF08AFEC83F9B4A98499948F2
:1088B00014F00EF8BFB2BDF908809B4995480FFA35
:1088C00087F943464A4614F003F89549914813F056
:1088D000FFFF904813F0D2F943464A469249914827
:1088E00013F0F6FF8E498F4813F0F2FF6D006420FD
:1088F00064001DF063FE2DB2874A8549854824B285
:1089000013F0E6FF23462A468849824813F0E0FF29
:108910008349804813F0DCFF7E4813F0AFF923460B
:108920002A4682497F4813F0D3FF7D497D4813F0E2
:10893000CFFF64201DF042FE7D4B1B78002B3CD006
:108940007C4B1B78002B00F03A8106F0BBFA7A4A88
:108950007A4B11881980917899701179D970517971
:1089600019719179D27959719A710222DA71744A26
:1089700083F808B01268DA60724A734812681A61A4
:108980007FB29DF908201F755A75704A128852B23D
:108990009A756F4A127852B2DA7500221D835C8391
:1089A0009A836C4A126812B2DA8313F049FB634B64
:1089B00040B283F8200006F05FFE3378002B3FF4CE
:1089C00005A9654B1E78002E7FF400A905F082FCF6
:1089D0006248012106F040F95D4B61491A785B4B12
:1089E00060481B8852B21BB210F00AFC5D4907A810
:1089F00013F0E8FD07AA3146304605F087FC07A8CA
:108A000013F09AFD52465849564810F0F9FB554963
:108A100007A813F0D7FD07AA3146012005F076FC20
:108A200007A813F089FD514907A813F0CBFD07AA49
:108A30003221012005F06AFC07A813F07DFD4C49A6
:108A400007A813F0BFFD07AA5021012005F05EFC26
:108A500007A813F071FD474907A813F0B3FD07AA53
:108A60003146022005F052FC07A813F065FD42498B
:108A700007A813F0A7FD07AA3146032005F046FC1E
:108A800007A813F059FD4A463C49364810F0B8FB98
:108A9000344907A813F096FD07AA3221022005F0F9
:108AA00035FC07A813F048FD424634492D4810F024
:108AB000A7FB2C4907A813F085FD07AA3221032044
:108AC00005F024FC07A813F037FD2D4BDF7A002FAB
:108AD00078D02A462949234810F092FB214907A85B
:108AE00013F070FD07AA5021022005F00FFC07A823
:108AF00013F022FD224621491A4810F081FB194942
:108B000007A813F05FFD07AA50213BE0E2D4002044
:108B10003835070090E3002034350700A7380700F8
:108B200078840700F4E30020C4380700DC3807002D
:108B30000ED5002034DB00202CDB0020A4A1002077
:108B400088D800208CD80020B8E4002010D5002060
:108B500012D5002024D6002058D80020F83807006D
:108B60000839070013D500201F3907002695070094
:108B70002A39070033390700373907002138070041
:108B800000A30020032005F0C1FB07A813F0D4FCCC
:108B90008B4B18688B4B1C6849F08EFF02460B46C6
:108BA000CDE90223204649F087FFDDE90223CDE924
:108BB00000018549854810F023FBFFF7B1BA06F0A4
:108BC000F9FAC4E68249814810F051FB7F4907A8B1
:108BD00013F0F8FC07AA5021022005F097FB07A824
:108BE00013F0AAFC794907A813F0ECFC07AA50215E
:108BF000032005F08BFB07A813F09EFC7549734812
:108C000010F035FB714907A813F0DCFC07AA3946C0
:108C1000FFF78CBA072B7DD16F4A7049704813F06B
:108C200057FE70496E4813F053FE6F496C4813F0BD
:108C30004FFE6B4813F022F86A496C4813F048FE67
:108C400069496A4813F044FE64201DF0B7FC684B84
:108C50001B78002B30D0674B1B78002B57D006F0C9
:108C600031F9654B654C1A8822809A78A2701A797E
:108C7000E2705A7922719A79DB796271A3710223C9
:108C8000E3714F4A5E48002323721268E2604D4A46
:108C90001268226123756375A375E375238363836B
:108CA000A383584B1B681BB2E38313F0C9F940B28E
:108CB00084F8200006F0E0FC3378002B3EF486AF09
:108CC000514B1C78002C7EF481AF05F003FB4F481C
:108CD000012105F0C1FF4E493C4810F0C8FA3B495C
:108CE00007A813F06FFC07AA2146204605F00EFBEB
:108CF00007A813F021FC324B1868324B1D6849F06D
:108D0000DBFE02460B46CDE9022328464BE706F080
:108D100051FAA6E7082B7EF459AF3E4B5D7A35B188
:108D2000012D29D03C4B00221A70FEF74FBF05F0F1
:108D3000D1FA3A48012105F08FFF394907A813F00D
:108D400041FC002107AA084605F0E0FA07A813F045
:108D5000F3FB34491D4810F08AFA1C4907A813F0A8
:108D600031FC07AA0021032005F0D0FA07A813F070
:108D7000E3FB05F0E5FAD5E73378002BD2D0224BA0
:108D80001C78002CCED105F0A5FA2448294605F020
:108D900063FF254907A813F015FC07AA21462046C2
:108DA00005F0B4FA07A813F0C7FB1E49074810F0F6
:108DB0005EFA064907A813F005FC07AA2146D2E788
:108DC00088D800208CD800203B39070013D500201C
:108DD0005039070047390700343507003835070098
:108DE00090E300205339070078840700F4E3002063
:108DF0000ED5002034DB00202CDB0020A4A10020B5
:108E0000B8E4002024D6002058D80020F838070005
:108E10007039070000A300202DD60020B6350700CA
:108E2000CB370700853907004036070070B5304B57
:108E3000B0F90A201A802F4B90F90C201A702E4B93
:108E400042781A702D4A1368013313602C4B0022AC
:108E50001A7003780446E3B92A4A2B492B4813F0C9
:108E600037FD2B49294813F033FD2A49274813F0D1
:108E70002FFD264812F002FF2549274813F028FD50
:108E80002449254813F024FDBDE8704064201DF0FE
:108E900095BB224A527A022A28D1022B0FD1204DAB
:108EA000027A41681F4806232B700FF03BFC2B46CB
:108EB0001D48BDE87040FA22012113F02ABA114A78
:108EC0001149124813F004FD227818490F4813F095
:108ED000FFFC10490D4813F0FBFC0C4812F0CEFECD
:108EE000227812490C4813F0F3FCC9E770BD00BFAB
:108EF00010D5002012D500200FD5002028D6002044
:108F00002DD60020913907003835070090E3002066
:108F10009739070078840700F4E3002000A30020BD
:108F2000E0D40020E2D4002071E400209F39070043
:108F300070B51E4C0546002835D01D4B1D491E48F6
:108F400000221A701D4A13F0C3FC2A461C491A4815
:108F500013F0BEFC1B49184813F0BAFC164812F077
:108F60008DFE2A461649184813F0B2FC15491648DA
:108F700013F0AEFC64201DF021FB144B1D60144B5C
:108F80005B7A022B134B1A6802F101021A600CBFC4
:108F900007230223237010482346FA22BDE87040BD
:108FA000012113F0B6B90823F4E700BFE0D4002094
:108FB0002DD600203835070090E300203435070017
:108FC000AE39070078840700F4E3002030D6002093
:108FD00000A3002024D6002071E4002030B5504AC0
:108FE0005049514D99B00446504813F071FC224647
:108FF0004F494E4813F06CFC4E494C4813F068FC46
:109000004A4812F03BFE224649494B4813F060FCA7
:109010004849494813F05CFC64201DF0CFFA2978D8
:1090200000297AD101231A2208A82B7007910FF08A
:1090300087FB05A82BF094FE0598404C00F5E04016
:109040000FA96E302BF000FF149B3D4903F26C73A7
:109050000393129B0293139B013301930F9B009385
:1090600007A8DDE9103210F0CBF82D4A2D492F4822
:1090700013F02EFC07AA33492C4813F029FC2D4984
:109080002A4813F025FC294812F0F8FD07AA2D49BB
:10909000294813F01DFC2749274813F019FC6420C8
:1090A0001DF08CFA149B03F26C732380139B013325
:1090B000A370129B2371119B6371109BA3710F9B73
:1090C000E371214B1B7843B3154A1649174813F037
:1090D000FFFB1E49154813F0FBFB1649134813F01C
:1090E000F7FB124812F0CAFD1849134813F0F0FBC1
:1090F0001049114813F0ECFB64201DF05FFA0223C5
:109100002B70E3790193A379009363792279A17895
:10911000208805F0D5FF05F0D5FE19B030BD00BFA1
:10912000BD390700383507002CD6002090E3002019
:10913000C239070078840700F4E300202CDB00200C
:10914000D93907004958070034DB0020FB390700F4
:10915000F0B54FF080432DED028BD3F83834032B5C
:1091600085B020D1364A3749374813F0B1FB37492B
:10917000354813F0ADFB3649334813F0A9FB3248AC
:1091800012F07CFD3149334813F0A2FB30493148DD
:1091900013F09EFB64201DF011FA0024204605B058
:1091A000BDEC028BF0BD2C482B4D13F07DF80A244A
:1091B000B0EE408A284613F077F8013C38EE008A7A
:1091C000F8D1B2EE067AC8EE077A1D4A1D491E484C
:1091D0009FED228ADFED226A27EE888ADFED217A71
:1091E00068EE277A87EEA67AFCEEC77ACDED037A91
:1091F0009DF80C4013F06CFB18EE100A49F05CFC73
:1092000006460F462246CDE9006717490E4813F07F
:109210005FFB0F490C4813F05BFB0B4812F02EFD6F
:109220002246CDE9006710490A4813F051FB08496E
:10923000084813F04DFB64201DF0C0F9AEE700BFF5
:10924000438807003835070090E30020113A0700F3
:1092500078840700F4E300206DE4002000007A44E5
:109260000040834500007F43183A070007B52B4AAA
:109270002B492C4813F02CFB2B492A4813F028FBD0
:109280002A49284813F024FB264812F0F7FC264907
:10929000274813F01DFB2549254813F019FB6420CE
:1092A0001DF08CF9234B244801221A7012F0DDFDC9
:1092B00018B12248002112F0A2FD214812F026FF29
:1092C0002049214812F034FE20491F4812F040FE88
:1092D0001F491D4812F034FE1E491B4812F040FE83
:1092E0001D49194812F044FE00211C4812F07EFE70
:1092F00002211B4812F0E8FE32230122009311469E
:109300000A23114812F0D3FD164BD97A01B101217D
:10931000222003B05DF804EB13F08DBB3435070059
:109320003835070090E30020323A070078840700C0
:10933000F4E30020A1A10020E4E40020CEE400201A
:10934000CDE400202D8E0200A9E40020318F020020
:109350008D7302002D740200DD8F0200B1E4002045
:10936000CBE4002000A3002008B52B4A2B492C4851
:1093700013F0AEFA2B492A4813F0AAFA2A492848D2
:1093800013F0A6FA264812F079FC2649274813F074
:109390009FFA2549254813F09BFA64201DF00EF929
:1093A000234B24480021197012F029FD224812F0A5
:1093B00060FDD0B9184A1949194813F089FA1F49B4
:1093C000174813F085FA1849154813F081FA144824
:1093D00012F054FC1949154813F07AFA124913484F
:1093E00013F076FA64201DF0E9F81549114812F0DF
:1093F0004DFD14490F4812F051FD4FF6FD710D4817
:1094000012F0FDFC104BD97A01B10121BDE80840F2
:10941000222013F010BB00BF343507003835070099
:1094200090E30020473A070078840700F4E3002027
:10943000A1A10020CEE40020E4E40020563A070079
:10944000DD730200B973020000A300202DE9F04F84
:10945000012187B0222013F0D7FA0121232013F035
:10946000D3FA0121242013F0CFFAB248B24E13F000
:1094700053F904F05BFE307068B1B049B0480FF0AA
:10948000F6FEAF48012105F0E7FBAE4804F0C4FE4C
:10949000AD4804F0C1FE0021222013F0CCFA0223D3
:1094A000AA4806224FF4E13112F0EEFB4FF0804360
:1094B000D3F83834032B40F05E8241F288301DF03F
:1094C0007DF801250023022203ACA1499C480095A8
:1094D0000FF096FE9A49204613F074F821469D48F5
:1094E00012F0C0FE204613F027F833784BB104F099
:1094F000F1FE924992480FF0BAFE9148294605F0D4
:10950000ABFB0121232013F096FA0021232013F056
:1095100092FA0021242013F08EFA3378D3B98E4AC0
:109520008E498A4813F0D4F98D49884813F0D0F950
:109530008C49864813F0CCF9844812F09FFB884987
:10954000894813F0C5F98749874813F0C1F96420A9
:109550001DF034F802F0F0FFD0B97F4A7F497B4814
:1095600013F0B6F98149794813F0B2F97D4977488B
:1095700013F0AEF9754812F081FB7C497A4813F07C
:10958000A7F97849784813F0A3F964201DF016F87C
:1095900002F064FFD0B9704A70496C4813F098F932
:1095A00073496A4813F094F96E49684813F090F9CA
:1095B000664812F063FB6E496B4813F089F96949FC
:1095C000694813F085F964201CF0F8FF02F05CFF95
:1095D000D0B9614A61495D4813F07AF965495B4841
:1095E00013F076F95F49594813F072F9574812F0B1
:1095F00045FB60495C4813F06BF95A495A4813F02F
:1096000067F964201CF0DAFF02F054FFD0B9524A27
:1096100052494E4813F05CF957494C4813F058F939
:1096200050494A4813F054F9484812F027FB524970
:109630004D4813F04DF94B494B4813F049F964205C
:109640001CF0BCFF03F04AFCD0B9434A43493F48F1
:1096500013F03EF949493D4813F03AF941493B4876
:1096600013F036F9394812F009FB44493E4813F02B
:109670002FF93C493C4813F02BF964201CF09EFF65
:1096800000F008FED0B9344A3449304813F020F9CC
:109690003B492E4813F01CF932492C4813F018F9B5
:1096A0002A4812F0EBFA36492F4813F011F92D49E8
:1096B0002D4813F00DF964201CF080FF314D00207F
:1096C00000F0C4FC6B7A244A24492048022B40F065
:1096D0007A8113F0FDF82C491C4813F0F9F8214960
:1096E0001A4813F0F5F8194812F0C8FA26491E482E
:1096F00013F0EEF81B491C4813F0EAF864201CF044
:109700005DFF012003F0C2FE05F006FC1F4B124A6C
:1097100012491870002800F074810C4813F0D8F832
:109720001B490A4813F0D4F80E49084813F0D0F842
:1097300030E000BFECE400200DD50020B635070076
:1097400013D50020783A0700853A070090E30020FF
:10975000913A070018E40020343507003835070037
:10976000A73A070078840700F4E30020B53A070021
:10977000DC3A07000A3B0700343B0700623B070066
:10978000873B070000A30020A33B070034DB002039
:10979000D03B0700A84812F071FAA849A84813F076
:1097A00097F8A849A64813F093F864201CF006FF28
:1097B00005F088FB94E803002BF0B1FA02F0A6FE56
:1097C00005F07AFDA04F3870002840F06B819F4A69
:1097D0009F49994813F07CF89E49974813F078F810
:1097E0009849954813F074F8934812F047FA99494C
:1097F000934813F06DF89349914813F069F8642089
:109800001CF0DCFE6B7A012B00F09781022B00F03C
:109810009D81002B3ED08D4A8D49874813F058F822
:109820008D49854813F054F88649834813F050F861
:10983000814812F023FA8849814813F049F8814998
:109840007F4813F045F864201CF0B8FE33780BB362
:10985000824983480FF00BFD8149204612F0B2FE89
:1098600000212246084604F051FD204612F064FE15
:109870007C497B480FF0FBFC7949204612F0A2FEA0
:1098800022460021012004F041FD204612F054FE42
:1098900004F056FD744804F0BFFC744812F0BCFBA1
:1098A00010B9734804F0B8FCFFF7E0FC4FF47A738A
:1098B00070496A686A48B2FBF3F20FF0A1FC68488D
:1098C00004F0AAFC6C4A6D480123002112F017FD38
:1098D0006A6822B100236948194612F01AFD684AE5
:1098E00066480023012112F00AFD0023654A6348FF
:1098F000022112F004FDAB7A33B1604800234EF62A
:109900006022022112F005FD01235F4A5B4803211A
:1099100012F0F5FC5D4B1B785BB1544812F07CFBF8
:1099200038B932230122009359480A23114612F014
:10993000BEFA464A4649404812F0CAFF55493E48D9
:1099400012F0C6FF3F493C4812F0C2FF3A4812F0FD
:1099500095F950493A4812F0BBFF3A49384812F09D
:10996000B7FF64201CF02AFE01214B4813F043F896
:1099700007B0BDE8F08F13F06AF8DFF8BCA0074627
:109980004FF0000B41F287384FF00009504612F0BB
:1099900060F900287FF495AD13F059F8C41B6BEB08
:1099A0004B05A04579EB0503FFF68BAD64201CF059
:1099B00005FE232013F044F8B0FA80F14909232072
:1099C00013F039F8E2E7EF7A002F7FF482AE12F05D
:1099D0007FFF3249184812F07BFF1A49164812F0EF
:1099E00077FF154812F04AF92C49154812F070FF1C
:1099F0001449134812F06CFF64201CF0DFFD384658
:109A000080E60D4812F064FF25490B4812F060FF14
:109A10000C49094812F05CFF074812F02FF9204961
:109A2000074812F055FF0749054812F051FF64201E
:109A30001CF0C4FDC4E600BF90E30020D03B07004B
:109A4000F4E30020788407000ED5002034350700A9
:109A500038350700DA3B07001E3C07003F3C070093
:109A600013D50020513C0700CB370700B4E4002099
:109A7000613C0700EC370700C975020071E4002063
:109A8000597B020095E3020039DC0200A1A100200D
:109A9000A9E400206F3C070009E40020B73B070061
:109AA000CD3B070005F0C0FC3870D0B92E4A2F49D5
:109AB0002F4812F00DFF2F492D4812F009FF2E49B3
:109AC0002B4812F005FF2A4812F0D8F829492B48F4
:109AD00012F0FEFE2849294812F0FAFE64201CF01C
:109AE0006DFD214A21492248DFF8AC90DFF8AC80B7
:109AF00012F0EEFE3A7822491D48002A14BF4A4669
:109B0000424612F0E5FE1C49194812F0E1FE1848E1
:109B100012F0B4F83A781A491848002A14BF4A4695
:109B2000424612F0D5FE1449144812F0D1FE6420CA
:109B30001CF044FD02F0D4FC64E6FFF715FC11486C
:109B400004F06AFB104804F067FBAFE60F4804F02E
:109B500063FB0F4812F060FA10B90E4804F05CFB8A
:109B6000FDF7B6FCA2E600BF343507003835070024
:109B700090E30020EB3B070078840700F4E300202B
:109B8000013C0700A23607006F3C0700DA370700E8
:109B9000B4E40020613C07006D3A0700723A070008
:109BA0007047000002481822002106F045B900BFA6
:109BB00034D600202DE9F04F994C9A4DDFF87CA265
:109BC000DFF87CB289B0204606F08AFA204610EE13
:109BD000107A06F0A4FA20468DED050A06F0BEFACA
:109BE000914A92498DED060A284612F071FE2046F0
:109BF00006F076FA204610EE108A06F071FA384622
:109C000010EE106A48F058FF894B002248F0ACFF74
:109C100049F05AFA07B2404648F04EFF80463046B7
:109C20008946029748F048FF814B824E002248F057
:109C30009BFF42464B46CDE900015146284612F0B3
:109C400047FE3146284612F043FE284612F016F829
:109C5000204606F045FA204610EE108A06F040FA3B
:109C600040468DED070A48F027FF079B0297804684
:109C70001846894648F020FF6D4B002248F074FFDB
:109C80004B464246CDE900015146584612F020FEAF
:109C90003146584612F01CFE64201CF08FFC624ACC
:109CA0006249284612F014FE204606F038FA204693
:109CB00010EE107A06F033FA059810EE10AA48F06C
:109CC000FBFE00225A4B48F04FFF49F0FDF903B26A
:109CD0003846059348F0F0FE059B029380465046B7
:109CE000894648F0E9FE524B534FDFF858A1002255
:109CF00048F03AFF42464B46CDE900013946284636
:109D000012F0E6FD3146284612F0E2FD284611F039
:109D1000B5FF204606F003FA204610EE108A06F042
:109D2000FEF940468DED070A48F0C6FE059B0293FA
:109D3000079B80461846894648F0BEFE3C4B0022F1
:109D400048F012FF4B464246CDE9000139465846DD
:109D500012F0BEFD3146584612F0BAFD64201CF0E8
:109D60002DFC314A3149284612F0B2FD204606F05A
:109D7000F5F9204610EE108A06F0F0F906988DED00
:109D8000050A48F099FE2A4B002248F0EDFE49F002
:109D90009BF907B2404648F08FFE8046059802972F
:109DA000894648F089FE224B002248F0DDFE4246FB
:109DB0004B46CDE900015146284612F089FD314657
:109DC000284612F085FD284611F058FF204606F07F
:109DD000C5F9204610EE105A06F0C0F9284610EEDC
:109DE000108A48F069FE044640460D46029748F046
:109DF00063FE0F4B002248F0B7FE2246CDE900017A
:109E00002B465146584612F063FD3146584612F033
:109E10005FFD642009B0BDE8F04F1CF0CFBB00BF70
:109E200034D6002090E300207D3C07003835070041
:109E300000408F4078840700903C0700813C070079
:109E4000F4E300209F3C070007B573480DF10701BC
:109E5000312206F08DF99DF8073059061BD56F4A5F
:109E60006F49704812F034FD9DF807206E496D4827
:109E700012F02EFD6D496B4812F02AFD694811F071
:109E8000FDFE69499DF80720694812F021FD6749E8
:109E9000674812F01DFD64201CF090FB9DF8073010
:109EA0009A0617D55D4A5E495E4812F011FD614978
:109EB0005C4812F00DFD5D495A4812F009FD594801
:109EC00011F0DCFE5B495A4812F002FD5749584830
:109ED00012F0FEFC64201CF071FB9DF80730DB06DD
:109EE00017D54E4A4E494F4812F0F2FC52494D48A0
:109EF00012F0EEFC4D494B4812F0EAFC494811F0D3
:109F0000BDFE4D494A4812F0E3FC4849484812F06A
:109F1000DFFC64201CF052FB9DF80730180717D5B2
:109F20003E4A3F493F4812F0D3FC44493D4812F0B5
:109F3000CFFC3E493B4812F0CBFC3A4811F09EFE64
:109F40003E493B4812F0C4FC3849394812F0C0FC85
:109F500064201CF033FB9DF80730590717D52F4AB2
:109F60002F49304812F0B4FC35492E4812F0B0FCAD
:109F70002E492C4812F0ACFC2A4811F07FFE3049E3
:109F80002B4812F0A5FC2949294812F0A1FC6420B5
:109F90001CF014FB9DF807309A0717D51F4A20497B
:109FA000204812F095FC27491E4812F091FC1F49E9
:109FB0001C4812F08DFC1B4811F060FE21491C4822
:109FC00012F086FC19491A4812F082FC64201CF039
:109FD000F5FA9DF80730DB0717D5104A10491148EC
:109FE00012F076FC18490F4812F072FC0F490D4828
:109FF00012F06EFC0B4811F041FE13490C4812F0B0
:10A0000067FC0A490A4812F063FC64201CF0D6FA87
:10A0100003B05DF804FB00BF34D600207D3C070090
:10A020003835070090E30020AE3C07007884070035
:10A03000F4E30020C53C0700CC3C0700D23C0700FD
:10A04000D93C0700DF3C0700E63C070073B5002160
:10A050000446112012F0D8FC5D4812F05DFB5D4B08
:10A060006CB300229A800A22DA804FF481721A813E
:10A0700040F201125A81574806F00AF9054620B30A
:10A08000554A5649564812F023FC5649544812F096
:10A090001FFC5549524812F01BFC514811F0EEFDCF
:10A0A0005049524812F014FC4F49504812F010FC2D
:10A0B00064201CF083FA0024204602B070BD022206
:10A0C0009C80DC801A815C81D5E7002C38D02A2264
:10A0D000302140488DF80720012605F0F3FE0822C4
:10A0E00032213C488DF8072005F0ECFE3246332142
:10A0F00038488DF8076005F0E5FE24220DF10701D0
:10A10000344806F035F89DF80720324822F00C025A
:10A1100042F0080224218DF8072005F0D3FE6022CA
:10A1200022212C488DF8072005F0CCFE2A46252157
:10A13000284805F0C7FE27483246212105F0C2FE17
:10A14000002520220DF1070122488DF8075006F066
:10A150000FF89DF807201F4842F0080220218DF8D3
:10A16000072005F0AFFE64201CF028FA1E220DF136
:10A17000070118488DF8075005F0FAFF9DF80720F1
:10A18000144842F090021E218DF8072005F09AFE37
:10A1900064201CF013FA4CB1FFF756FE1449042258
:10A1A000112011F029FDFFF705FD85E720220DF1B3
:10A1B0000701084805F0DCFF9DF80720054802F07C
:10A1C000400220218DF80720012405F07BFE73E773
:10A1D000ECE4002034D600207D3C07003835070031
:10A1E00090E30020EC3C070078840700F4E30020B3
:10A1F000A19B020010B50023012210F0010F01F114
:10A20000FF311CBF02FA01F4234340080029F4D1B6
:10A21000184610BD0D4810B5002148F205040B0288
:10A220009BB2082213F4004F02F1FF324FEA4303BE
:10A2300018BF634012F0FF029BB2F3D10131B1F5B8
:10A24000807F20F8023BEAD110BD00BF48D6002035
:10A250002DE9F0410025DFF8388006460F462C46F0
:10A26000BD420DDA705D0821FFF7C4FF80EA1423B8
:10A27000DBB2013538F8133083EA0424A4B2EFE7E7
:10A2800010212046FFF7B6FF80B2BDE8F08100BF85
:10A2900048D6002008B50221092012F0B5FB064976
:10A2A0000322092011F0A8FC044905480123642277
:10A2B000FDF718F8012008BDA1A8020041A902007D
:10A2C00018D600202DE9F04FC74D91B012F0BFFB1A
:10A2D000D5E900230024811A64EB03030091019364
:10A2E000DDE9002340F6B8300021904271EB030312
:10A2F000A346A246A146A0462746264677DB12F093
:10A30000A6FBD5E90023811A63EB43030291039373
:10A31000DDE90223B2F5C87F73F1000373DA12F0AE
:10A3200096FBD5E90023811A63EB4303049105935F
:10A33000DDE90434B3F5C87F74F1000380F2858051
:10A3400012F085FBD5E90023811A63EB43030691E4
:10A350000793DDE90634B3F5167F74F1000380F24C
:10A36000998012F074FBD5E90023811A63EB430353
:10A3700008910993DDE90834B3F5487F74F10003CF
:10A3800080F2AE8012F063FBD5E90023811A63EB03
:10A3900043030A910B93DDE90A34B3F5966F74F128
:10A3A000000380F2C08012F052FBD5E90023811A2D
:10A3B00063EB43030C910D93DDE90C34B3F5AF6F00
:10A3C00074F1000380F2D28012F041FBD5E9002342
:10A3D000811A63EB43030E910F93DDE90E34B3F55D
:10A3E000C86F74F1000380F2E280082474E0092051
:10A3F00012F026FB002882D17C4B1B78002B3FF407
:10A400007EAF022468E0794B1B78012B87D10920AD
:10A4100012F016FB012882D10023C82C10D009208D
:10A42000009312F00DFB009B012804BF0133DBB247
:10A43000012001340093E4B21CF0C0F8009BECE76B
:10A44000C62B7FF66CAF002446E0684B1B78022BCE
:10A450007FF476AF092012F0F3FA01287FF470AF91
:10A460000024BBF1C80F10D0092012F0E9FA01282E
:10A4700008BF01344FF001000BF1010B08BFE4B23B
:10A480005FFA8BFB1CF09AF8EBE7C62C7FF658AF0F
:10A49000012421E0554B1B78032BDCB27FF461AF24
:10A4A0004FF0000BBAF1C80F12D0092012F0C8FA11
:10A4B000012808BF0BF1010B4FF001000AF1010A5E
:10A4C00008BF5FFA8BFB5FFA8AFA1CF077F8E9E7BE
:10A4D000BBF1C60F7FF645AF204611B0BDE8F08F47
:10A4E000424B1B78042BDCB27FF44CAF4FF0000AD8
:10A4F000B9F1C80F12D0092012F0A2FA012808BF42
:10A500000AF1010A4FF0010009F1010908BF5FFAE1
:10A510008AFA5FFA89F91CF051F8E9E7BAF1C60F37
:10A520007FF630AFD8E7314B1B78052BDCB27FF4D8
:10A530003AAF4FF00009B8F1C80F12D0092012F05D
:10A540007FFA012808BF09F101094FF0010008F165
:10A55000010808BF5FFA89F95FFA88F81CF02EF845
:10A56000E9E7B9F1C60F7FF61EAFB5E71F4B1B78C1
:10A57000062BDCB27FF428AF4FF00008C82F11D0B3
:10A58000092012F05DFA012808BF08F101084FF018
:10A59000010007F1010708BF5FFA88F8FFB21CF05D
:10A5A0000DF8EBE7B8F1C60F7FF60EAF94E70F4B4F
:10A5B0001B78072BDCB27FF418AF0025C82E0FD014
:10A5C000092012F03DFA012808BF01354FF00100C3
:10A5D00006F1010608BFEDB2F6B21BF0EFFFEDE7A2
:10A5E000C62D7FF602AF77E750D8002059D800205B
:10A5F00073B5894D894C6A7A637A9A4231D003F0F7
:10A6000069FE0021864804F027FB6B6863606B7A63
:10A61000844863726B89638103F0FEFD824803F016
:10A62000FBFD03F08DFE02F057F840F6B8301BF04A
:10A63000C5FF637A7D48012B4FF000014FF03206D1
:10A6400040F09A8011F0DBFB0022794800960A2343
:10A65000114611F02CFC774811F00BFC764811F0F4
:10A6600021FEEA7AE37A9A4206D06B7A022B0CBF7B
:10A670000120002002F00AFF6A6863689A4203D151
:10A680006A8963899A4213D003F024FE654803F077
:10A69000C3FD654803F0C0FD03F052FE6B686360C4
:10A6A0006B89638102F018F840F6B8301BF086FF22
:10A6B000624811F027FD00286BD0614811F0AEFC14
:10A6C000604B1978884205D000395D4818BF0121D8
:10A6D00011F0A6FC5C4811F0B3FC5C4B1978884281
:10A6E00002D0594811F0AEFC594811F0BBFC594B4F
:10A6F0001978884202D0564811F0B6FC564D57489A
:10A700002E7811F0C1FC86420BD02978534811F005
:10A71000C7FC32230122009345480A23114611F059
:10A72000C6FB03F0D7FD637A012B6FD0022B6FD0ED
:10A7300013B94B4803F070FD4FF47A7362684949CE
:10A74000B2FBF3F248480EF05BFD474803F064FDAE
:10A75000626822B100234548194611F0DAFDA37A58
:10A76000002B57D0414800234EF66022022102B050
:10A77000BDE8704011F0CDBD11F041FB0122009603
:10A780000A2311462A4811F092FB2C4811F0BEFC16
:10A7900064E7374D3748296811F0EBFA354811F076
:10A7A000E6FA2968884202D0324811F0E2FA3248CB
:10A7B00011F0EEFA314B1978884202D02E4811F090
:10A7C000E9FA2F4D2F482E7811F0F3FA864203D084
:10A7D00029782C4811F0EFFA2B4811F0FBFA2B4B9B
:10A7E0001978884202D0284811F0F6FA284811F06A
:10A7F00004FB284B1978884202D0254811F00EFB43
:10A800004FF6FD71094811F0FAFA8AE7224891E7FC
:10A8100022488FE702B070BDD0A1002000A3002025
:10A820000D3D0700143D0700243D0700CEE4002045
:10A83000A9E40020E4E4002008E40020CDE40020A6
:10A84000B5E400205BD80020B8E400205DD80020EB
:10A85000C0E400205ED800205CD80020CAE40020BC
:10A86000CB370700EC37070013D5002071E4002038
:10A8700068D80020D9E40020DAE400206CD8002059
:10A8800063D80020DBE40020DCE4002064D8002052
:10A89000DEE400206DD80020A2360700DA3707007A
:10A8A000F8B512F0D4F81C4D1C4B1D4C0021C3E927
:10A8B000000112F0CCF8D5E90032C61A62EB42076B
:10A8C000C92E77F1000308DB12F0C1F800236B609A
:10A8D000237828600133DBB22370124A12491348EF
:10A8E00011F0F6FF22781249104811F0F1FF1149DA
:10A8F0000E4811F0EDFF0D4811F0C0F922780C4917
:10A900000D4811F0E5FF0B490B4811F0E1FFBDE8E0
:10A91000F84064201BF052BE48D8002050D80020D8
:10A9200059D80020353D07003835070090E3002056
:10A93000393D070078840700F4E3002000000000A0
:10A940002DE9F04F87B0FFF7BDFC072800F2978292
:10A95000DFE810F01207A70408009802F200930045
:10A9600049003600A04BA14A00241C70A04B0020D7
:10A970000021C3E900019F499F4811F0A9FF9F49A9
:10A980009D4811F0A5FF9E499B4811F0A1FF9A48F0
:10A9900011F074F999499B4811F09AFF9849994828
:10A9A00011F096FF64201BF009FE974B1B782BB12A
:10A9B000204607B0BDE8F04F03F0CABC0120F8E71D
:10A9C000894B00221A708A4B00200021C3E9000144
:10A9D0008E4B1C783CB903F07DFC8D48214604F079
:10A9E0003BF91BF002FE804B00221A70804B0020C6
:10A9F0000021C3E90001854B1C78002C31D0854C27
:10AA00002378052B0DD1844B8448D97A10222270EB
:10AA100001919B7A00938249824B09781B7803F05D
:10AA2000BFFC724A7349744811F052FF22787E4984
:10AA3000714811F04DFF72496F4811F049FF6E489F
:10AA400011F01CF9227878496E4811F041FF6C49E9
:10AA50006C4811F03DFF642007B0BDE8F04F1BF0DB
:10AA6000ADBD03F037FC7148214604F0F5F870489D
:10AA700007B0BDE8F04F11F015BC5B4B00221A7017
:10AA80005B4B00200021C3E90001604B1B78002BC9
:10AA900000F0F5815F4C2378042B33D0052B41D097
:10AAA0008BB9644811F02EFB01285B4B1FD1D97A7A
:10AAB00061480422227001919B7A604900930978D1
:10AAC000FF2303F06DFC494A4A494B4811F000FF4F
:10AAD00022785B49484811F0FBFE4949464811F08D
:10AAE000F7FE454811F0CAF822785549ACE7D97A03
:10AAF00054480522227001919B7A534900930978AA
:10AB0000FF23DEE707235148237011F0BDFA424AC4
:10AB1000D37A0193937A00932278C3B240493F4895
:10AB20000978CEE73C4B0E22D97A227001919B7AAC
:10AB30000093474B1B78F1E72B4B00221A702C4BEC
:10AB400000200021C3E90001304B1B78002B00F0EE
:10AB5000DC80304C2378062B23D8DFE813F0070085
:10AB60001500360089009300C400CE002A49032254
:10AB70004B7AC87A22700190897A00910233DBB255
:10AB80003449354809780AE0234B3448D97A002201
:10AB9000227001919B7A324900930978FF2303F0D8
:10ABA000FFFB124A1349144811F092FE22782D49F6
:10ABB000114811F08DFE12490F4811F089FE0E4820
:10ABC00011F05CF8227827493EE7134A2649937A28
:10ABD000264883F001039372D27ACDE90032FF2335
:10ABE00009780222DBE700BF59D80020353D070075
:10ABF00050D800203835070090E30020493D070079
:10AC000078840700F4E30020B0A4002058D8002086
:10AC1000533D07005AD80020D0A10020C8A1002031
:10AC2000CCA100206DD800205E3D07006F3D0700DD
:10AC300008E40020CDE40020A0A20020B4A200205F
:10AC4000753D0700CCA20020E4A20020CAE4002049
:10AC500064D8002074A2002064A20020E8A2002092
:10AC6000FCA20020863D0700C8A20020B8A2002058
:10AC70009C4B02225A72DA7A01929B7A0093032249
:10AC800004237DE70A239848237011F0FDF9C0B230
:10AC90000C280ED8DFE800F0071B1B211B21211B0D
:10ACA0001B1B1B1B2100914B00221A70904B05228D
:10ACB0001A708C4A8F4BD17A1B780191927A00924C
:10ACC0000A332278DBB28C498C48097867E7874BD6
:10ACD00000221A70864B0722EAE7844B00221A7082
:10ACE000834B0A22E4E77F4B0D22D97A227001912F
:10ACF0009B7A0093824B1B78E5E77A4BDA7A0192D4
:10AD00009B7A009306220023DDE77E4811F0FAF9D2
:10AD1000012840F0B4807C4E727A012A00F0AF80A6
:10AD20007A4F3A78002A40F0AA80794D794B287002
:10AD30001B780BB903F00CFB774A78497848DFF8A9
:10AD4000D89111F0C5FD7749754811F0C1FD7649DC
:10AD5000734811F0BDFD724810F090FF71497348BF
:10AD600011F0B6FD7049714811F0B2FD64201BF07E
:10AD700025FC00216E4811F0D6FA5B4811F084F9E9
:10AD80006C4B53F820306C48059311F059F90024AE
:10AD90008046059B33F81430002B60D05F49604833
:10ADA0004A4611F095FD224664495D4811F090FD38
:10ADB0005D495B4811F08CFD594810F05FFF224659
:10ADC0005E495A4811F084FD5749584811F080FDFA
:10ADD00064201BF0F3FBE1B2574811F033F9642013
:10ADE0001BF0ECFB0020FCF7EFFB11F030FE4FF006
:10ADF000000A83463A7872B34FF47A701BF0DEFB98
:10AE000011F025FEB0EB0B0302936AEB4A030393A8
:10AE1000DDE9020142F21072002382428B41E9DA3D
:10AE20004A463E493E4811F053FD45493C4811F021
:10AE30004FFD3D493A4811F04BFD394810F01EFFD7
:10AE40003F493A4811F044FD3749384811F040FD78
:10AE500064201BF0B3FB4FF4FA601BF0AFFB01342E
:10AE6000102C96D13448414611F0ECF8726822B1AA
:10AE700000232F48194611F04CFA00232B7007B01D
:10AE8000BDE8F08F2F4B00221A702F4B00240025B5
:10AE9000C3E900452D4B1B78002B00F0C5812C4CDD
:10AEA0002278102A67D8DFE812F0110059007A00E2
:10AEB00085009200C300D000E30066000F0122016C
:10AEC00037014901590168016600AF01054B0222B3
:10AED000D97A227001919B7A0093FF231D491E4865
:10AEE000097846E0D0A10020CAE4002062D8002002
:10AEF00060D800205DD80020CCA10020C8A100208F
:10AF000063D80020CDE4002000A300202DD600202F
:10AF1000E1D40020B0A40020353D070038350700FB
:10AF200090E30020973D070078840700F4E30020B9
:10AF300071E4002060A40020B8E40020AA3D0700CE
:10AF4000B83D070059D8002050D8002058D800201C
:10AF50005AD80020C8A20020B8A200208E4B8F48EB
:10AF6000D97A0022227001919B7A8D490093097849
:10AF7000FF2303F015FA8B4A8B498C4811F0A8FC8B
:10AF800022788B49894811F0A3FC8A49874811F03F
:10AF90009FFC864810F072FE2278854954E57E4A6F
:10AFA000D37A83F00103D3720193937A0093022240
:10AFB000FF2393E7784B8049804801225A72DA7A5E
:10AFC00001929B7A0093032309781A46D1E709235B
:10AFD0007B48237011F058F8C0B20C2814D8DFE871
:10AFE00000F007070707070D1E07242424241E006E
:10AFF000744B00221A70744B052204E0714B00223E
:10B000001A70714B04221A70634A704BD17A1B7804
:10B010000191927A00920A33DBB2227811E0694BF7
:10B0200000221A70684B0622EDE7664B0222E1E728
:10B03000594B0C22D97A227001919B7A0093644B70
:10B040001B7864496448097893E7534B5A6842B1C6
:10B0500042F20F718A428ABFA2F51C520022103AB6
:10B060005A60DA7A01929B7A00930622FF23E8E77E
:10B070005A4D2B7833B3013BDBB24A4A4A494B481D
:10B080002B7011F025FC2A785549484811F020FC16
:10B090004849464811F01CFC444810F0EFFD2A785E
:10B0A0004F49504811F014FC42494E4811F010FC31
:10B0B00064201BF083FA384BDA7A01929B7A009372
:10B0C0002B78AAE70C23D8E7404A3E491378097841
:10B0D00099420BBF3C4B03F1FF331B78DBB213707B
:10B0E0002D4AD17A0191927A00920922A9E73E4A2B
:10B0F0003E491378097899420BBF3D4B03F1FF336A
:10B100001B78DBB21370244BDA7A01929B7A00939E
:10B110002E4B0A221B7894E7364A37491368A3F569
:10B12000C333A03B8B4298BF344B13601A4BDA7A7F
:10B1300001929B7A00930B22FF2382E724490B782C
:10B14000062B1CBF03F1FF33DAB2134B0A70D97A16
:10B1500001919B7A009313460C2272E7284A1378D8
:10B160004BB1013BDBB213700B4AD17A0191927A59
:10B1700000920D2265E70923F5E7224A117809B10B
:10B18000481EC0B21070044AD37A0193937A009398
:10B190000E22034655E700BFD0A10020E8A2002000
:10B1A000FCA20020353D07003835070090E3002061
:10B1B000D43D07007884070074A2002064A2002018
:10B1C000CAE4002061D800205FD800205DD80020AC
:10B1D0006CD80020CCA10020C8A100205CD80020A1
:10B1E000CA3D0700F4E300205ED8002062D80020AA
:10B1F00060D8002068D800207F47A1198047A11996
:10B2000063D8002064D80020A74A1378052B1ABF02
:10B2100003F1FF33DBB216231370A44AD17A0191F4
:10B22000927A009210220CE7A14B1B78002B7FF43E
:10B2300026AEA04B1B7813B9012003F089F89E4A73
:10B240009E499F4811F044FB9E499D4811F040FBE8
:10B250009D499B4811F03CFB994810F00FFD99491E
:10B260009A4811F035FB9849984811F031FB642059
:10B270001BF0A4F90021964811F055F8954B0122D6
:10B2800000201A70FCF7A0F9934B5A68002A3FF48B
:10B29000F6AD00238E48194607B0BDE8F04F11F017
:10B2A00038B88E4B8E4D8F4C00221A708E4B002179
:10B2B0000020C3E900012978002940F04781844833
:10B2C00011F031F80121824811F02DF88048022157
:10B2D00011F029F8774B1B7813B9012003F038F8E7
:10B2E00001237D4A2B7000232370704B51685960F5
:10B2F000517A52895A817D48597210F003FF0546F0
:10B300006D4A6E496E48002D49D011F0E1FA784936
:10B310006B4811F0DDFA6C49694811F0D9FA6848B8
:10B3200010F0ACFC7249694811F0D2FA66496748DE
:10B3300011F0CEFA64201BF041F96E4810F080FE47
:10B340006D4B18706D4810F09FFE6D4B18706D4876
:10B3500010F064FE6C4B18706C4810F083FE6C4B60
:10B3600018700023CDE9003322786A496A480978C9
:10B3700003F016F8504A5149514811F0A9FA2278C1
:10B3800066494F4811F0A4FA4F494D4811F0A0FA10
:10B390004B4810F073FC22786049FFF755BB11F061
:10B3A00097FA5349464811F093FA4749444811F037
:10B3B0008FFA434810F062FC4D49444811F088FA76
:10B3C0004149424811F084FA64201BF0F7F82946FD
:10B3D0005348544D10F013FD534810F0C8FC28603A
:10B3E000524810F0D5FC524B1870524810F0E1FC56
:10B3F000514B1870514810F0EDFC514B18705148EA
:10B4000010F0FBFC284B2C4A18702C492C4811F0EA
:10B410005FFA286847F03EFB21A3D3E9002347F0F9
:10B42000CDFC064640480F4610F0A1FC47F032FB29
:10B430001BA3D3E9002347F0C1FC32463B46CDE9CC
:10B44000000141491E4811F043FA1F491C4811F000
:10B450003FFA1B4810F012FC286847F01BFB10A3B2
:10B46000D3E9002347F0AAFC06462F480F4610F008
:10B470007EFC47F00FFB0AA3D3E9002347F09EFCB4
:10B480003246CDE900013B462F49104811F020FA21
:10B490000D490E4811F01CFA64201BF08FF860E78C
:10B4A0000000000084D797416DD80020D0A1002073
:10B4B0002DD60020B0A40020353D07003835070008
:10B4C00090E30020E53D070078840700F4E30020C6
:10B4D00071E4002002D5002000A3002059D80020EC
:10B4E00058D800205AD8002050D80020CDE40020A1
:10B4F000FB3D0700B8E400205DD80020CAE400202E
:10B500005CD80020B5E400205BD80020C0E4002017
:10B510005ED80020FCA20020E8A200201E3E07000A
:10B52000CEE4002068D80020D9E40020DAE400202E
:10B530006CD80020DBE4002063D80020DCE400208D
:10B5400064D80020DEE40020103E07002378102B92
:10B550003FF610AF01A252F823F000BFA1B50200E0
:10B56000B3B50200C5B50200C9B50200E3B50200DB
:10B5700001B602005FB7020005B602005FB6020026
:10B580007BB602009FB60200C3B60200E7B6020017
:10B5900005B7020023B7020075B3020041B70200ED
:10B5A0000122834B2270D97A01919B7A0093FF2369
:10B5B00022E07F4B0022D97A227001919B7A00937E
:10B5C000FF23D2E60622ECE7794B7A497A4800223B
:10B5D0005A72DA7A01929B7A009309780223032245
:10B5E000C6E67349754BC87A1B7808222270019011
:10B5F000897A00910A33DBB2714972480978B7E65B
:10B600000B22CEE7704D714A2B78714971480C2B93
:10B610001ABF0133DBB200232B7011F059F92A78DD
:10B620006D496C4811F054F96C496A4811F050F9B1
:10B63000684810F023FB2A786749694811F048F9F7
:10B640006649674811F044F964201AF0B7FF584B77
:10B65000DA7A01929B7A00932B782278CCE7574ACA
:10B660001378B3FA83F35B091370514AD17A0191CD
:10B67000927A00920A330822BEE75A4A5A4913784E
:10B68000097899420BBF594B01331B78DBB2137019
:10B69000474AD17A0191927A00920922ACE7544A42
:10B6A00054491378097899420BBF534B01331B78E7
:10B6B000DBB213703E4AD17A0191927A00920A224B
:10B6C0009AE74E4A4E49136803F5C333A0338B42C1
:10B6D00094BF13601160364BDA7A01929B7A009323
:10B6E0000B22FF2388E7474A13780C2B1ABF01333C
:10B6F000DBB2062313702E4AD17A0191927A00921E
:10B700000C2279E7404A1378092B1ABF0133DBB2C8
:10B7100000231370264AD17A0191927A00920D2269
:10B720006AE73A4A1378032B1ABF0133DBB20023CE
:10B7300013701F4AD17A0191927A00920E225BE730
:10B74000334A1378162B1ABF0133DBB2052313706B
:10B75000174AD17A0191927A009210224CE7144A4A
:10B76000536803F51C5310335360D37A0193937AD3
:10B770000093062200233FE7264B00221A70264B37
:10B7800000200021C3E90001244B1A78002A3FF46D
:10B7900076AB234C2278102A48D8DFE802F0435CCD
:10B7A0005C5C5C5C826A6A6A6A767676764776006A
:10B7B000D0A1002074A2002064A200205BD8002049
:10B7C000CCA10020C8A100205CD80020353D070096
:10B7D0003835070090E30020CA3D07007884070051
:10B7E000F4E300205DD800205FD8002061D800205D
:10B7F0005ED8002060D8002062D8002068D80020E1
:10B80000007038396CD8002063D8002064D800203C
:10B810006DD8002059D8002050D8002058D80020DA
:10B820005AD8002000221A70FEF7E2FE234A24496B
:10B83000244811F04DF822782349224811F048F8A5
:10B840002249204811F044F81E4810F017FA2278D7
:10B850001D49FFF7F9B81E4B1E48D97A0022227005
:10B8600001919B7A1C4900930978FF2302F098FD0F
:10B87000DCE7174B1948D97A0422227001919B7A90
:10B88000174900930978FF23F0E7114B1548D97A3F
:10B890000522227001919B7A134900930978FF23B6
:10B8A000E4E70B4B1148D97A0222227001919B7A6E
:10B8B0000F4900930978FF23D8E700BF353D070003
:10B8C0003835070090E300202F3E070078840700FA
:10B8D000D0A10020E8A20020FCA20020A0A200200D
:10B8E000B4A20020CCA20020E4A20020B8A2002034
:10B8F000C8A2002070B598B014460A490EA810F0EE
:10B9000061FE0023CDE91433CDE91633636E012BBC
:10B910000CD1054920680DF0A0FC48B1022400F0CC
:10B92000EDBC00BF7A840700F9A30700002BF5D116
:10B93000B649B748B74CB84DB84E10F0C9FFB84932
:10B94000B34810F0C5FFB149B64810F0C1FFB44983
:10B95000B44810F0BDFF64201AF030FE637AB2499B
:10B9600055F82320AA4810F0B3FFAD49A84810F0BD
:10B97000AFFF637AAC4955F82320AA4810F0A8FF1E
:10B98000A749A84810F0A4FF64201AF017FEA749A1
:10B9900011A810F071FC11A90EA810F026FE11A834
:10B9A00010F0CAFD0EA810F063FE0E9AA049984848
:10B9B00010F08EFF9A49964810F08AFF0E9A9C4923
:10B9C000984810F085FF9649964810F081FF642052
:10B9D0001AF0F4FD974911A810F02EFC119A96491F
:10B9E0008B4810F075FF11A810F0A6FD8C4988480F
:10B9F00010F06EFF8F4911A810F01EFC119A8E49AD
:10BA0000884810F065FF11A810F096FD844985481C
:10BA100010F05EFF64201AF0D1FD4FF47A75626871
:10BA20008649B2FBF5F27A4810F052FF7C4978481B
:10BA300010F04EFF62688149B2FBF5F2794810F0D0
:10BA400047FF7749774810F043FF64201AF0B6FDAE
:10BA50007B4810F057FB7B4956F8202005466C4880
:10BA600010F036FF6E496A4810F032FF56F8252074
:10BA700074496C4810F02CFF69496A4810F028FF9F
:10BA800064201AF09BFD012D40F04E836E486F4EEE
:10BA90006F4D10F0C1FA6F49002814BF32462A4694
:10BAA0005B4810F015FF5E49594810F011FF6648D9
:10BAB00010F0B2FA6749002814BF32462A465948A6
:10BAC000654E10F005FF5649564810F001FF6420FE
:10BAD0001AF074FD614810F0D7FA61490546024634
:10BAE0004B4810F0F5FE4E49494810F0F1FE2A4649
:10BAF0005B494C4810F0ECFE49494A4810F0E8FE1A
:10BB000064201AF05BFD56F825205649404810F095
:10BB1000DFFE43493E4810F0DBFE56F82520514930
:10BB2000404810F0D5FE3E493E4810F0D1FE64205A
:10BB30001AF044FD4C4810F068FA002800F0BE816D
:10BB40004A49334810F0C4FE3549314810F0C0FE70
:10BB50004649344810F0BCFE3149324810F0B8FE76
:10BB600064201AF02BFD082214A9414810F02CFA89
:10BB70009DF8573005939DF8563004939DF8553045
:10BB800003939DF8543002939DF8533001939DF830
:10BB900052309DF85020374900931D489DF8513090
:10BBA00010F096FE1E491A4810F092FE9DF857308C
:10BBB00005939DF8563004939DF8553003939DF8F6
:10BBC000543002939DF8533001939DF852309DF804
:10BBD00050202849009313489DF8513010F078FE0A
:10BBE0000F49104810F074FE64201AF0E7FC082298
:10BBF00014A9214810F0C4F99DF8573005939DF819
:10BC0000563004939DF8553038E000BFAA3E070037
:10BC100090E3002000A30020D4A30020C8A30020AC
:10BC200078840700F4E30020B93E070048E40020D0
:10BC3000C73E07000CE4002025720700D23E070033
:10BC4000CDE40020E23E0700B4E400206D8107004F
:10BC50009C3E0700F23E070094A30020CAE40020A7
:10BC6000FD3E0700083F0700B3E40020133F070034
:10BC7000AEE400201D3F0700AAE4002003939DF8D6
:10BC8000543002939DF8533001939DF852309DF843
:10BC900050207D4900937D489DF8513010F018FEEA
:10BCA0007B497A4810F014FE9DF8573005939DF8B3
:10BCB000563004939DF8553003939DF85430029309
:10BCC0009DF8533001939DF852309DF850206E49F5
:10BCD000009370489DF8513010F0FAFD6C496D48A2
:10BCE00010F0F6FD64201AF069FC102214A96A48CD
:10BCF00010F04FF99DF85F300D939DF85E300C9376
:10BD00009DF85D300B939DF85C300A939DF85B3095
:10BD100009939DF85A3008939DF8593007939DF880
:10BD2000583006939DF8573005939DF8563004938C
:10BD30009DF8553003939DF8543002939DF853308D
:10BD400001939DF852309DF85020544900934F487C
:10BD50009DF8513010F0BCFD4D494C4810F0B8FD35
:10BD60009DF85F300D939DF85E300C939DF85D302B
:10BD70000B939DF85C300A939DF85B3009939DF816
:10BD80005A3008939DF8593007939DF85830069320
:10BD90009DF8573005939DF8563004939DF8553023
:10BDA00003939DF8543002939DF8533001939DF80E
:10BDB000523000939DF850209DF851303749354856
:10BDC00010F086FD32493348354E364D10F080FD77
:10BDD00064201AF0F3FB34492C4810F079FD2C490B
:10BDE0002A4810F075FD30492A4810F071FD2849A5
:10BDF000284810F06DFD64201AF0E0FB627A2B49B0
:10BE0000224810F065FD2249204810F061FD627A59
:10BE10002649204810F05CFD1D491E4810F058FDD1
:10BE200064201AF0CBFBA27A21491848002A14BFDB
:10BE300032462A4610F04CFD1549144810F048FDD2
:10BE4000A27A1B491348002A14BF32462A4610F032
:10BE50003FFD0F490F48174E10F03AFD64201AF0CD
:10BE6000ADFB15481AF0C2FE0025B4F88E20EBB2E7
:10BE7000934205F1010580F23D8223443046197B4F
:10BE80001AF0B4FEF1E700BF453F070090E3002041
:10BE900078840700F4E30020ABE400206D3F070046
:10BEA000A73E0700313D0700CE400700DE400700F7
:10BEB000EC400700B3C50700FD40070090499148DA
:10BEC00010F006FD90498F4810F002FD8C498F4814
:10BED00010F0FEFC8C498D4810F0FAFC64201AF03A
:10BEE0006DFB14A910228A4810F05CF89DF85F30B1
:10BEF0000D939DF85E300C939DF85D300B939DF88B
:10BF00005C300A939DF85B3009939DF85A30089392
:10BF10009DF8593007939DF8583006939DF8573097
:10BF200005939DF8563004939DF8553003939DF882
:10BF3000543002939DF8533001939DF852309DF890
:10BF40005020009373499DF851306E4810F0C0FCAA
:10BF50006D496C4810F0BCFC9DF85F300D939DF866
:10BF60005E300C939DF85D300B939DF85C300A9326
:10BF70009DF85B3009939DF85A3008939DF859302D
:10BF800007939DF8583006939DF8573005939DF818
:10BF9000563004939DF8553003939DF85430029326
:10BFA0009DF8533001939DF852309DF85020009336
:10BFB00058499DF85130554810F08AFC5249534871
:10BFC00010F086FC64201AF0F9FA14A910225248E5
:10BFD00010F003F89DF85F300D939DF85E300C93E0
:10BFE0009DF85D300B939DF85C300A939DF85B30B3
:10BFF00009939DF85A3008939DF8593007939DF89E
:10C00000583006939DF8573005939DF856300493A9
:10C010009DF8553003939DF8543002939DF85330AA
:10C0200001939DF852309DF8502000933B499DF8B4
:10C030005130344810F04CFC3349324810F048FC81
:10C040009DF85F300D939DF85E300C939DF85D3048
:10C050000B939DF85C300A939DF85B3009939DF833
:10C060005A3008939DF8593007939DF8583006933D
:10C070009DF8573005939DF8563004939DF8553040
:10C0800003939DF8543002939DF8533001939DF82B
:10C0900052309DF85020009320499DF851301B48A4
:10C0A00010F016FC1849194810F012FC64201AF020
:10C0B00085FA14A904221A480FF07DFF9DF8533029
:10C0C00001939DF852309DF85020009315499DF83A
:10C0D00051300C4810F0FCFB0B490A4810F0F8FBFB
:10C0E0009DF8533001939DF8523000939DF85020F5
:10C0F0009DF851300B49054810F0EAFB62E600BF9D
:10C10000B53F070090E3002078840700F4E30020A7
:10C11000ACE40020BE3F0700B0E400200740070069
:10C12000ADE40020504007007748002D40F09B8090
:10C130000FF01DFE75490246754810F0C9FB7549A0
:10C14000734810F0C5FB70480FF011FE6F490246AE
:10C15000714810F0BDFB6F496F4810F0B9FB6420C7
:10C160001AF02CFA6D480FF013FE6D49024668482C
:10C1700010F0AEFB6749664810F0AAFB67480FF065
:10C1800007FE67490246644810F0A2FB6149624815
:10C1900010F09EFB64201AF011FA62480FF009FEBD
:10C1A000614902465A4810F093FB5A49584810F02A
:10C1B0008FFB5C480FF0FDFD5B490246564810F0CE
:10C1C00087FB5449544810F083FB64201AF0F6F9B9
:10C1D00056480FF0FFFD564902464D4810F078FBD7
:10C1E0004C494B4810F074FB50480FF0F3FD504998
:10C1F0000246494810F06CFB4649474810F068FB7E
:10C2000064201AF0DBF94B480FF0F5FD4A4902466D
:10C210003F4810F05DFB3F493D4810F059FB454851
:10C220000FF0E9FD444902463B4810F051FB394903
:10C23000394810F04DFB64201AF0C0F93F480FF068
:10C24000DCFD3F490246324810F042FB314930489C
:10C2500010F03EFB39480FF0D0FD394902462E4818
:10C2600010F036FBAEE50FF082FD28490246284863
:10C2700010F02EFB2749264810F02AFB22480FF029
:10C2800076FD22490246244810F022FB214922482B
:10C2900010F01EFB64201AF091F92A480FF0E1FD1E
:10C2A000294902461A4810F013FB1A49184810F0A1
:10C2B0000FFB24480FF0D5FD23490246164810F025
:10C2C00007FB1449144810F003FB64201AF076F9B8
:10C2D0001E480FF0C8FD1E4902460D4810F0F8FA3E
:10C2E0000C490B4810F0F4FA18480FF0BCFD18493F
:10C2F0000246B4E707481AF079FC00240EA810F0B3
:10C300001BF9204618B070BDD9E400206940070031
:10C3100090E3002078840700F4E30020DAE40020B2
:10C3200078400700DBE4002080400700DCE40020C8
:10C3300088400700DDE4002090400700DEE4002094
:10C34000A5400700E2E40020B3400700E3E400203A
:10C35000C04007002DE9FF41536E012B0D461446E6
:10C3600024D1394910680CF078FF044620B102242A
:10C37000204604B0BDE8F08102F0A4FD2946334810
:10C3800010F072FA3249314810F05CFA314A324901
:10C39000D37903939379029353790193137900939B
:10C3A00093782A48128810F093FAE1E7052BDED142
:10C3B000161F02F1100756F8045F28460CF05FFFC5
:10C3C0002B462844984205D013F8012B303A092A0D
:10C3D000F8D9CCE7BE42EED10022114620680DF01C
:10C3E000BBF840F2D233A0F2E6729A420546BED8BC
:10C3F0000022606811460DF0AFF8431E0B2B064675
:10C40000B5D80022A06811460DF0A6F8431E1E2BD9
:10C410000746ACD80022E06811460DF09DF81828B8
:10C420008046A4D80022206911460DF095F83B28DB
:10C430009DD8C2B200925FFA88F3FAB2F1B2A8B204
:10C4400002F0FAFC002493E7F9A3070090E3002030
:10C45000AC5807002CDB00200E41070007B5032372
:10C460000193054B0093054B054A064819460FF00A
:10C4700024FF03B05DF804FB75C9020029410700E1
:10C48000314107006EE4002007B503230193054BFB
:10C490000093054B054A064819460FF00EFF03B0FE
:10C4A0005DF804FB3DCB0200844107008941070091
:10C4B0006EE4002007B503230193054B0093054B61
:10C4C000054A064819460FF0F8FE03B05DF804FB74
:10C4D00091CD0200D4410700D94107006EE400204D
:10C4E00007B503230193054B0093054B054A064806
:10C4F00019460FF0E2FE03B05DF804FB65C50200CB
:10C5000000420700054207006EE4002007B5032340
:10C510000193054B0093054B054A064819460FF059
:10C52000CCFE03B05DF804FB55C302001B420700BC
:10C530001F4207006EE4002007B502230193054B5C
:10C540000093054B054A064819460FF0B6FE03B0A6
:10C550005DF804FBF5B80200464207004D420700B3
:10C560006EE400204C4B1B7870B5E3B94B4A4C4944
:10C570004C4810F0ADF94C494A4810F0A9F94B4924
:10C58000484810F0A5F947480FF078FB464948485D
:10C5900010F09EF94549464810F09AF964201AF0C7
:10C5A0000DF802244FE0556E012DFAD1166841496D
:10C5B00030460CF052FE0446002846D13B4939482B
:10C5C00010F086F93949374810F082F93749384870
:10C5D00010F07EF93549364810F07AF9642019F0E8
:10C5E000EDFF214634480FF09EFE294632480FF0F9
:10C5F0009AFE022130480FF096FE01F06BFE2146B4
:10C600002E4802F029FB2E4801F006FE2D4801F0CD
:10C6100003FE01F095FE03F06FFA2449214810F063
:10C6200057F922491F4810F053F92049204810F0CB
:10C630004FF91E491E4810F04BF9642019F0BEFF57
:10C6400021480FF02FFE204670BD204930460CF0E7
:10C6500004FE04460028A4D11D4B014616481D7057
:10C660000FF061FE294614480FF05DFE02211248CA
:10C670000FF059FE01F02EFE2146104802F0ECFAB0
:10C68000144801F0C9FD0F4801F0C6FD01F058FE45
:10C6900002F050FED4E700BF0ED500206442070030
:10C6A0003835070090E300206B42070078840700CC
:10C6B000F4E30020F9A3070071E400200D3D07001A
:10C6C0007F420700243D070008E40020F9890700A5
:10C6D00058D800208F42070030B5944CE7B060680E
:10C6E0009421FDF7B5FD924A92490546924810F013
:10C6F000EFF82A469149904810F0EAF890498E48A0
:10C7000010F0E6F88C480FF0B9FA2A468B498D48AC
:10C7100010F0DEF88A498B4810F0DAF8642019F03E
:10C720004DFF8949942268460BF0FCFFADF800509C
:10C73000B4F88E50636801932A46A368029304F10B
:10C740000C0103A80BF0EEFF794A7A497A48ADF85C
:10C750008E5010F0BDF8019A7C4977487C4D7D4C95
:10C7600010F0B6F87649744810F0B2F872480FF03D
:10C7700085FA019A7549734810F0AAF87049714812
:10C7800010F0A6F8642019F019FF694A69496A484F
:10C7900010F09EF89DF809206F49674810F098F84E
:10C7A0006749654810F094F863480FF067FA9DF800
:10C7B00009206949634810F08BF86149614810F01D
:10C7C00087F8642019F0FAFE594A5A495A4810F07D
:10C7D0007FF89DF80A2061495748002A14BF2A466D
:10C7E000224610F075F85649534810F071F8524837
:10C7F0000FF044FA9DF80A2058495248002A14BF05
:10C800002A46224610F064F84D494E4810F060F870
:10C81000642019F0D3FE464A4649474810F058F8BC
:10C820009DF80B204E494448002A14BF2A46224650
:10C8300010F04EF84249404810F04AF83E480FF0D8
:10C840001DFA9DF80B2046493E48002A14BF2A468F
:10C85000224610F03DF83A493A48424D10F038F877
:10C860000024642019F0AAFEFE22214626A8259461
:10C870000BF066FFBDF88E30E0B2984204F101047F
:10C8800009DA0DEB000329461A7B25AB03EB4000C8
:10C890000CF0B6FCEEE7264A2649274810F018F8B7
:10C8A00025AA3149244810F013F82549224810F0F0
:10C8B0000FF821480FF0E2F925AA2B49214810F082
:10C8C00007F81F491F4810F003F8642019F076FE9E
:10C8D000174A184918480FF0FBFFBDF88E2023496E
:10C8E00015480FF0F5FF164913480FF0F1FF1248F5
:10C8F0000FF0C4F9BDF88E201C4912480FF0E8FF74
:10C900000F4910480FF0E4FF642019F057FE184853
:10C9100094236A4600210FF0E8FC28B901469423CD
:10C9200013486A460FF0E1FC67B030BD00A3002059
:10C93000644207003835070090E30020A342070057
:10C9400078840700F4E30020C4450700B7420700DD
:10C95000A73E07009F420700D5420700EB420700B1
:10C9600004430700B3C507001E4307003743070011
:10C970006FE40020F8B5536E012B0E4615466AD1C0
:10C98000614910680CF069FC0446F8B95F4F6049D2
:10C990007B68604832464FF47A75B3FBF5F30FF0CD
:10C9A00097FF5D495B480FF093FF7B685849B3FBE5
:10C9B000F5F3324659480FF08BFF574957480FF0AF
:10C9C00087FF642019F0FAFD2046F8BD544A554906
:10C9D00050480FF07DFF2A6853494E480FF078FF0A
:10C9E0004D494C480FF074FF4A480FF047F92A6848
:10C9F0004D494A480FF06CFF474948480FF068FF1F
:10CA0000642019F0DBFD2D6828460CF038FC00246A
:10CA1000844224D02B5D303B092B1ED9404A41492A
:10CA20003C480FF055FF224640493A480FF050FF6E
:10CA3000394938480FF04CFF36480FF01FF93B4991
:10CA4000364822460FF044FF334934480FF040FF88
:10CA5000642019F0B3FD0224B6E70134D8E70A22B6
:10CA6000002128460CF078FD2D4A2E49274D04461A
:10CA700028480FF02DFF22462D4926480FF028FFA9
:10CA8000254924480FF024FF22480FF0F7F82246EA
:10CA9000274922480FF01CFF1F4920480FF018FFBC
:10CAA000642019F08BFD4FF47A701D4A1D494443F0
:10CAB00018486C600FF00CFF6A681E4915480FF0AB
:10CAC00007FF154913480FF003FF12480FF0D6F87F
:10CAD0006A68184911480FF0FBFE0F490F480FF024
