:020000022000DC
:107000000000042071B7030099B703009BB7030089
:107010009DB703009FB70300A1B703000000000065
:10702000000000000000000000000000A3B7030003
:10703000A5B70300000000000000000000000000F1
:1070400035A60500A7B70300B5C405000DAC0500C3
:10705000A7B7030075A205004DA0050065880600CE
:10706000A7B703004DAB050061AB0500A7B7030050
:10707000A7B70300A7B70300A7B70300A7B703008C
:10708000699506004D780500A7B70300A7B7030070
:10709000A7B70300A7B70300ED7E0600A7B703005C
:1070A000A7B70300A7B7030075AB050089AB0500C0
:1070B000A7B70300A7B7030000000000000000000E
:1070C000A7B70300A7B70300A7B70300A18D060069
:1070D00065A80500A7B70300A7B70300C5C1050051
:1070E0003DC20600A7B703007DE9060000000000CE
:1070F00000000000A7B70300000000007191060027
:10710000000000000000000000000000000000007F
:10711000000000000000000000000000000000006F
:10712000000000000000000000000000000000005F
:10713000000000000000000000000000000000004F
:10714000000000000000000000000000000000003F
:10715000000000000000000000000000000000002F
:10716000000000000000000000000000000000001F
:10717000000000000000000000000000000000000F
:1071800000000000000000000000000000000000FF
:1071900000000000000000000000000000000000EF
:1071A00000000000000000000000000000000000DF
:1071B00000000000000000000000000000000000CF
:1071C00000000000000000000000000000000000BF
:1071D00000000000000000000000000000000000AF
:1071E000000000000000000000000000000000009F
:1071F000000000000000000000000000000000008F
:1072000010B5054C237833B9044B13B10448AFF3E0
:1072100000800123237010BD60D500200000000015
:10722000B832080008B5034B1BB103490348AFF35C
:10723000008008BD0000000064D50020B8320800BE
:10724000154B002B08BF134B9D46A3F5803A002138
:107250008B460F461348144A121A11F0E9FE0F4BE1
:10726000002B00D098470E4B002B00D098470020F1
:10727000002104000D000D48002802D00C48AFF397
:10728000008011F085FE2000290011F00BFC11F0A8
:107290006BFE00BF0000080000000420000000009A
:1072A0000000000060D500203CC501200000000067
:1072B000000000000022C0E900220172704738B5CA
:1072C0000446006820B1856914F088F92846F9E77A
:1072D000204638BD006820B143688B4201D08069E8
:1072E000F9E77047F8B504460F4616461D46FFF706
:1072F000F1FF20B10123826005704370F8BD1C20AE
:1073000014F070F9012343700023C0E90333C0E98E
:10731000053323680570C0E9017613B92060606009
:10732000ECE763689861FAE72DE9F8430468164FC3
:1073300005460E464FF000081CB363680BB9A469FC
:10734000FAE72378002BFAD0E368A268F31A9A428E
:1073500002D961780029F2D09B1A636184F8018018
:10736000E66016F083F863688146984716F07EF869
:107370003B68A0EB0900206118442B7A3860002B91
:10738000DDD0BDE8F88300BF7CD5002008B5074BF1
:1073900050B103221A700648FA22012115F0C3FCED
:1073A000044B00221A7008BD0522F3E780D50020A7
:1073B00011E30020CDD60020054B064800221A70AC
:1073C000054B08221A700121FA2215F0ACBC00BF4F
:1073D000CDD6002011E3002080D5002084B004AB7E
:1073E00003E907000B4BBDF90A201A800A4B9DF9EF
:1073F0000C201A70094A0A48136801331360094BBC
:1074000000221A70084B0121FA22197004B015F0FD
:107410008ABC00BFB2D50020B4D50020C8D6002059
:1074200011E30020CDD6002080D50020134B002290
:107430001A70134B5B7A023B012B1DD9114B90F94B
:1074400006201A70104BB0F904201A800F4A0378F6
:1074500013700F4A417811700E4A817811701BB178
:107460000D4A1368013313600C4B0D4804221A7047
:107470000121FA2215F057BC704700BFCDD600207D
:1074800004A30020B4D50020B2D50020B7D6002038
:10749000B5D60020B6D60020C4D6002080D5002066
:1074A00011E3002010B5044609F026F9204610BD6E
:1074B00008B5064B1B783BB115F0D3FFBDE808407B
:1074C00001460348FFF730BF08BD00BFF9D60020D2
:1074D000B8D600201F4B07B501221F481A7015F0BF
:1074E000CEF918B11D48002115F093F91C4815F08C
:1074F00017FB1C491C4815F025FA1C491A4815F0C1
:1075000031FA1B49184815F025FA1A49164815F0A2
:1075100031FA1949144815F035FA0021174815F0C9
:107520006FFA0021164815F0D9FA32230122009390
:107530000D480A23114615F0C4F9124BDB7A33B11A
:107540000121222003B05DF804EB15F07EBF03B0EB
:107550005DF804FBA1A1002084E300206EE300207D
:107560006DE300209592020049E300209993020008
:107570008D7302002D7402004594020051E3002037
:107580006BE3002004A3002010B50B4C0021204623
:10759000FFF790FE2046094C094A0A4911F0CCFC3D
:1075A000FF21204609F09CF82046054A0649BDE81F
:1075B000104011F0C1BC00BFB8D60020A4D50020F7
:1075C00090A10020BF720200A57402002DE9F043D3
:1075D000964D974E974CDFF8CC82012700232F70F1
:1075E0003370637A023BBB4285B000F20582924859
:1075F00009F089F8E37A002B00F081818F4A98F82E
:10760000003011789146002940F04E817BB18C4BBF
:107610001B7863B907F07AF9637A022B0CBF8948AB
:107620008948394607F030FE884807F011F906F01E
:107630009FFB002858D0864B1B78F3B9854A8649B2
:10764000864815F04FFE8649844815F04BFE854963
:10765000824815F047FE814815F01AF880498248A3
:1076600015F040FE7F49804815F03CFE64201FF075
:10767000AFFC7E48012115F040FAB4F88E0006F008
:1076800063F970B36C4809F041F803906A4809F057
:107690003FF801240246CDE900440399744823468B
:1076A00015F02AF90746E0B96A4A6B496B4815F0AC
:1076B00019FE7049694815F015FE6A49674815F0CA
:1076C00011FE664814F0E4FF6A49674815F00AFEA7
:1076D0006449654815F006FE64201FF079FC2F70A0
:1076E000347005B0BDE8F083634A117809BB634B81
:1076F0001B7803F0FF07E3B901234F4889F80030F6
:1077000009F001F85E4B5F481F8041F288326368E0
:10771000B3FBF2F35C4A13805C4B1F705C4B40F68A
:10772000C4121F7003213B4605B0BDE8F04315F0BD
:10773000FABA0023137098F800304BB1404B1B7815
:1077400033B95449544812F00AFA534807F080F804
:10775000637A032B5FD1514B37481B6800221BB261
:10776000114608F00DFF3A4B1B78F3B94C4A3A49E1
:107770003A4815F0B7FD3A49384815F0B3FD394994
:10778000364815F0AFFD354814F082FF34493648CD
:1077900015F0A8FD3349344815F0A4FD64201FF00E
:1077A00017FC3248012115F0A8F9B4F88E0006F054
:1077B000CBF8002895D0204808F0A8FF03901E4879
:1077C00008F0A6FF01240246CDE9004403992848A9
:1077D000234615F091F8002840F00281304A2870C5
:1077E0001D491E4815F07EFD22491C4815F07AFD02
:1077F0001C491A4815F076FD184814F049FF1D4938
:10780000194815F06FFD1749174815F06BFD6420F6
:107810001FF0DEFB64E700230093B7EE000A1A4670
:107820001946054808F0E0FD9DE700BFCDD60020D1
:10783000D8A3002004A30020A4D50020ACD50020AC
:10784000F8D60020183F0700283F07003B3F0700FD
:10785000CCD60020563F07005A3F070030E20020F8
:10786000603F07000890070094E200206CE30020CE
:1078700049E300206D3F0700A2D5002081D50020FC
:1078800018D7002011E300201AD7002048D7002085
:1078900049D70020893F0700B5D50020C8D6002071
:1078A0009F3F0700AED500205BB1A04B1B7843B9CA
:1078B00007F02CF89E48394607F0E6FC9D4806F094
:1078C000C7FF9D4A9D499E4815F00CFD9D499C4867
:1078D00015F008FD9C499A4815F004FD984814F0ED
:1078E000D7FE9849994815F0FDFC9749974815F03F
:1078F000F9FC642005B0BDE8F0431FF069BB98F8BF
:1079000000305BB1894B1B7843B906F0FFFF884814
:10791000394607F0B9FC8E4806F09AFF637A032BCC
:1079200060D18C4B8C481B6800221BB2114608F0BA
:1079300027FE8A4B1B78F3B90121894815F0DDF841
:107940007D4A7E497E4815F0CDFC86497C4815F07D
:10795000C9FC7D497A4815F0C5FC794814F098FEB9
:1079600080497A4815F0BEFC7749784815F0BAFC92
:1079700064201FF02DFBB4F88E0005F0E5FF002811
:107980003FF4AFAE744808F0C1FE0390724808F0AF
:10799000BFFE01230246CDE900330399724814F07B
:1079A000ABFF044600287FF49CAE634A63496448F9
:1079B00015F098FC6D49624815F094FC62496048E6
:1079C00015F090FC5E4814F063FE68495F4815F0BE
:1079D00089FC5D495D4815F085FC64201FF0F8FACC
:1079E0002C707EE600230093B7EE000A1A46194673
:1079F000594808F0F9FC9CE798F8003073B14B4BFC
:107A000093F80080B8F1000F08D106F07FFF5848C6
:107A1000394607F039FC574B83F800804E4808F090
:107A200072FE554815F078F8002800F00881534898
:107A300014F0FCFF002800F0E3800121242015F061
:107A400004FD3D4A3D493E4815F04CFC4C493C483C
:107A500015F048FC3C493A4815F044FC384814F00D
:107A600017FE4749394815F03DFC3749374815F0AE
:107A700039FC64201FF0ACFA424B1B78002B4ED02F
:107A8000414806F0E5FE354B1B78F3B92A4A2B49ED
:107A90002B4815F027FC3349294815F023FC2A49C7
:107AA000274815F01FFC264814F0F2FD2D49274801
:107AB00015F018FC2449254815F014FC64201FF02B
:107AC00087FA2748012115F018F8E37A002B65D0D2
:107AD00006F04EF920B92D4A002313602C4A13609A
:107AE0001D4808F013FE80B205F02EFF00283FF479
:107AF000F8AD194808F00AFE0390174808F008FE90
:107B000001240246CDE9004403991748234614F0A6
:107B1000F3FE00287FF4E5AD074A287060E6154BB8
:107B20001B780BB11B48ACE71B48AAE7F8D600202E
:107B3000183F0700A43F0700563F07005A3F0700C1
:107B400030E20020B83F07000890070094E20020D0
:107B5000CC3F0700C8D60020A4D50020CCD60020FA
:107B60006CE30020603F070049E300206D3F070001
:107B7000D83F0700A2D500206DE3002054E3002089
:107B8000E93F070081D50020F53F07002CD70020F2
:107B900028D700200640070015400700B4F88E00E3
:107BA00005F0D2FE00283FF49CAD0127CDE9007717
:107BB000394A94F88E103948022314F09DFE0028AB
:107BC0007FF48FAD364A37492870374815F08AFB65
:107BD0003649354815F086FB3549334815F082FBA8
:107BE000314814F055FD3149324815F07BFB3049DE
:107BF000304815F077FB64201FF0EAF9377070E524
:107C0000274A28492870284815F06CFB2A4926483D
:107C100015F068FB2649244815F064FB224814F04F
:107C200037FD2549234815F05DFB2149214815F012
:107C300059FB64201FF0CCF90123337051E5012179
:107C4000232015F002FC164A1649174815F04AFB86
:107C50001A49154815F046FB1549134815F042FB23
:107C6000114814F015FD1549124815F03BFB104959
:107C7000104815F037FB64201FF0AAF9104806F0F1
:107C8000E7FD0123044A94F88E100E4814F0DFFD3E
:107C900001232B7025E500BF10A3002049E300203D
:107CA000563F07005A3F070030E200206D3F0700B3
:107CB0000890070094E2002023400700414007009D
:107CC000154007006EE300202DE9F04F2DED028BEB
:107CD00000218DB0784E0446242015F0B6FB00211B
:107CE000232015F0B2FB337883B1744B1B786BB94A
:107CF00006F00CFE724B5B7A022B28D17149724858
:107D000011F02DFF7048012107F0BEFA24BB6F4A25
:107D10006F49704815F0E6FA6F496E4815F0E2FABF
:107D20006E496C4815F0DEFA6A4814F0B1FC6A49F5
:107D30006B4815F0D7FA6949694815F0D3FA642001
:107D40001FF046F90DB0BDEC028BBDE8F08F032BA0
:107D50000CBF64496449D2E72278012A40F02282AC
:107D6000624B634F1B78634D002B2FD0624B1B7807
:107D7000002B00F0988007F0BDFB604A604B118833
:107D80001980917899701179D97051791971917917
:107D9000D27959719A710122DA715A4900221A7204
:107DA0000968D9605849096819611A755A7539887E
:107DB00049B2D975297849B219765A839A83DA83F8
:107DC000524A126812B21A8407F0FCFF3378504E00
:107DD000002B00F00181394B1C78002C40F0FC8016
:107DE0004C49394811F0BBFE374909A815F0F4F8A1
:107DF00009AA2146204606F0A5FD09A815F0A6F817
:107E000032684549304811F073FE2F4909A815F032
:107E1000E3F809AA2146012006F094FD09A815F00F
:107E200095F83E4814F0ADFC4BF02CFB20A3D3E9B1
:107E300000234BF0CBFC0B4602463949224811F097
:107E400057FE214909A815F0C7F809AA21460220C2
:107E500006F078FD09A815F079F8324814F0A2FC74
:107E600031490246184811F043FE174909A815F098
:107E7000B3F809AA2146032006F064FD09A815F00D
:107E800065F82A4814F09FFC092800F24B81DFE8CE
:107E900010F04F00370139013B013D013F01410125
:107EA00043014501470107F09DFC66E7AFF3008001
:107EB0000000000080842E41AED50020F8D60020BE
:107EC00004A30020183F0700B5D50020563F070047
:107ED0005A3F070030E20020554007000890070095
:107EE00094E20020283F0700D83F0700AFD50020CC
:107EF000B2D50020B4D50020D4D90020CCD90020A0
:107F0000A4A1002028D700202CD70020C4D6002010
:107F1000C8D60020624007007040070079E30020C7
:107F2000B54807007AE300200A5407007BE30020ED
:107F30007F4907A811F013FE7E4814F044FC7E4BE5
:107F40007E4953F820207E4811F0D2FD7C4909A8D3
:107F500015F042F809AA4021032006F0F3FC09A815
:107F600014F0F4FF774814F03FFC7749421D744841
:107F700011F0BEFD724909A815F02EF809AA40219A
:107F8000022006F0DFFC09A814F0E0FF3A886F49F0
:107F90006B4812B211F0ACFD694909A815F01CF844
:107FA00009AA0021042006F0CDFC09A814F0CEFF98
:107FB0002A786749624852B211F09AFD604909A8CF
:107FC00015F00AF809AA4021042006F0BBFC09A814
:107FD00014F0BCFF06F0D0FC5E4A5F495F4815F024
:107FE00081F95F495D4815F07DF95E495B4815F000
:107FF00079F95A4814F04CFB59495B4815F072F96D
:108000005849594815F06EF964201EF0E1FF514AB5
:108010005149524815F066F932683B8829784F4833
:1080200049B21BB20091514915F05CF94D494B48DA
:1080300015F058F9494814F02BFB32683B88297831
:10804000494849B21BB20091484915F04BF94549DE
:10805000454815F047F964201EF0BAFF3D4A3E49F5
:108060003E4815F03FF9424814F08BFB08EE100A29
:10807000404814F097FB06462E4814F0A4FBF8EE97
:10808000487A054617EE900A4BF01EFA26A3D3E96C
:1080900000234BF09BFB7D2405FB044502460B4669
:1080A000CDE9006534492D4815F01CF92D492B48C0
:1080B00015F018F9294814F0EBFA2D4814F061FB7B
:1080C00008EE100A2B4814F06DFB0546194814F011
:1080D0007AFBF8EE487A064617EE900A4BF0F4F970
:1080E00011A3D3E900234BF071FB06FB04440246C5
:1080F0000B46CDE9005420491B4815F0F3F81AE669
:108100001E4916E71E4914E71E4912E71E4910E7EB
:108110001E490EE71E490CE71E490AE71E4908E7FB
:108120001E4906E71E4904E70000000080842E4136
:10813000844007007BE300207CA20020BA400700B7
:10814000B5D500207CE30020235407007F420700C0
:108150008A420700563F07005A3F070030E20020DE
:10816000C04007000890070094E20020CD400700BF
:1081700079E300207AE30020E84007008840070008
:108180008C4007009040070094400700994007008A
:108190009F400700A5400700AB400700B140070023
:1081A000B6400700824B1B78022B40F09980814B30
:1081B00000221A70804B1B78002B2FD07F4B1B782E
:1081C000002B64D007F096F97D4B7E4C1A882280F4
:1081D0009A78A2701A79E2705A7922719A79DB79C9
:1081E0006271A371784A79480023E371237212689F
:1081F000E260774A1268226123756375E37523761E
:108200006383A383E383734B1B681BB2238414F043
:1082100021FC40B284F8220007F0D4FD3378002B13
:108220003FF490AD6C4B1C78002C7FF48BAD6B4908
:108230006B486C4D11F093FC694909A814F0CCFE11
:1082400009AA2146204606F07DFB09A814F07EFE0F
:108250002A686549624811F04BFC614909A814F08D
:10826000BBFE09AA2146022006F06CFB09A814F007
:108270006DFE2B68013B0F2B30D8DFE803F00B11AC
:10828000131517191B1D1F21232527292B2D07F037
:10829000A9FA99E75549524811F061FC504970E03C
:1082A0005349F8E75349F6E75349F4E75349F2E7EE
:1082B0005349F0E75349EEE75349ECE75349EAE7FE
:1082C0005349E8E75349E6E75349E4E75349E2E70E
:1082D0005349E0E75349DEE75349DCE75349DAE71E
:1082E000032A40F0B1803378002B3FF42BAD3A4B9A
:1082F0001E78002E7FF426AD4D4C657A022D4ED0AF
:10830000032D53D05DB94B4909A814F065FE09AAA5
:108310002946084606F016FB09A814F017FE4FF48C
:108320007A7362684449B2FBF3F22D4811F0E0FB26
:108330002B4909A814F050FE09AA0021012006F0DB
:1083400001FB09A814F002FE3C4909A814F044FE00
:10835000002109AA022006F0F5FA09A814F0F6FD9A
:1083600028491F4811F0FBFB1D4909A814F034FEF1
:10837000002109AA032006F0E5FA09A814F0E6FD99
:108380002E4909A814F028FE09AA0021042006F0AD
:10839000D9FA09A814F0DAFD06F0EEFAD2E4284979
:1083A00009A814F019FE09AA3146B2E72549F7E7F2
:1083B00080D50020CDD60020AFD50020D4D9002014
:1083C000CCD90020A4A1002028D7002058E3002009
:1083D0002CD70020C4D60020F8D60020A6440700E1
:1083E000B5D50020D0D60020FB400700054107008E
:1083F000134107001E4107002A41070036410700CC
:10840000404107004A410700564107006A41070002
:108410007D4107008D4107009A410700A4410700F4
:10842000B4410700C2410700CE410700DF41070009
:1084300004A30020ED410700214207007BF4070060
:10844000FC4107000D420700042A40F03382AD4B87
:10845000AD4D1B78DFF82893DFF82883AB4F002B56
:108460003DD0AB4B1B78002B00F0978107F042F812
:10847000A84BA94C1A8822809A78A2701A79E270C7
:108480005A7922719A79DB796271A3710023E371C1
:1084900098F80020A148D2B22272A14A1268E26084
:1084A000A04A126822612A8852B222752A8852B2E2
:1084B00062752A8852B2E27599F8002052B222768B
:1084C0006383A3833B78E383974B1B681BB22384AE
:1084D00014F0C0FA40B284F8220007F073FC33783D
:1084E000DFF8A4A2914C002B00F0A380904B1E78E3
:1084F000002E40F09E808F4B21788F4A8F480029B4
:1085000018BF1A468E4911F0F3FA8C4909A814F0E5
:1085100063FD09AA3146304606F014FA09A814F0A2
:1085200015FD227802F0FF0B002A40F039813A78DD
:108530008449824811F0DCFA804909A814F04CFD06
:1085400009AA5946012006F0FDF909A814F0FEFC1D
:10855000724814F07FFA7C490246784811F0C8FA54
:10856000764909A814F038FD09AA5946022006F0F8
:10857000E9F909A814F0EAFC98F8002073496F485B
:1085800011F0B6FA6D4909A814F026FD09AA402198
:10859000022006F0D7F909A814F0D8FCDAF8002078
:1085A0006B49664811F0A4FA644909A814F014FD57
:1085B00009AA5946032006F0C5F909A814F0C6FC1B
:1085C000594B64491A685D4811F092FA5B4909A851
:1085D00014F002FD09AA4021032006F0B3F909A80E
:1085E00014F0B4FC2A885C49544812B211F080FAA5
:1085F000524909A814F0F0FC09AA5946042006F0D3
:10860000A1F909A814F0A2FC99F8002053494B489D
:1086100052B211F06DFA494909A814F0DDFC0420AA
:1086200009AA402106F08EF909A814F08FFC06F083
:10863000A3F94B4A4B494C48DFF8FCB03D4E14F0CF
:1086400051FE227849494848002A0CBF5A46324612
:1086500014F048FE4649444814F044FE424814F0E1
:1086600017F8227841494348002A0CBF5A4632463F
:1086700014F038FE3E493F4814F034FE64201EF0EA
:10868000A7FC374A3749384814F02CFEDAF80020A6
:108690002B8899F80010344849B21BB20091364932
:1086A00014F020FE3249304814F01CFE2E4813F01E
:1086B000EFFFDAF800202B8899F800102D4849B216
:1086C0001BB200912C4914F00DFE2949294814F0E1
:1086D00009FE64201EF07CFC214A2249224814F045
:1086E00001FE98F8002025493B781F4814F0FAFD58
:1086F0001F491D4814F0F6FD1B4813F0C9FF98F8F8
:10870000002043E0AFD50020B2D50020B5D6002030
:10871000D4D90020CCD90020A4A1002058E3002007
:1087200028D700202CD70020C4D60020B7D60020A0
:10873000F8D60020514007006A460700B5D5002052
:1087400035420700464207005A42070063420700CD
:108750006C420700744207007C4207008742070012
:10876000563F07005A3F070030E200203942070019
:108770000890070094E20020CD400700AF420700B8
:10878000B4D50020B6D60020C8D600206C493B786E
:108790006C4814F0A7FDFFF7CEBA07F023F867E6A0
:1087A000DAF800206849694811F0A2F9674909A878
:1087B00014F012FC09AA3146012006F0C3F809A8FA
:1087C00014F0C4FB624B63491A68604811F090F9D9
:1087D0005E4909A814F000FC09AA4021012006F016
:1087E000B1F809A814F0B2FB22785B49574811F0A0
:1087F0007FF9564909A814F0EFFB09AA3146022077
:1088000006F0A0F809A814F0A1FB2378013B0F2B78
:108810004ED8DFE803F0082F31333537393B3D3F81
:1088200041434547494B4D49484811F098F947495C
:1088300009A814F0D1FB09AA0021032006F082F850
:1088400009A814F083FB464814F004F94549024690
:108850003E4811F04DF93D4909A814F0BDFB09AAA5
:108860000021042006F06EF809A814F06FFB06F052
:1088700083F8DCE63C49D7E73C49D5E73C49D3E7F8
:108880003C49D1E73C49CFE73C49CDE73C49CBE700
:108890003C49C9E73C49C7E73C49C5E73C49C3E710
:1088A0003C49C1E73C49BFE73C49BDE73C49BBE720
:1088B0003C49B9E7052A40F087803378002B3FF424
:1088C00041AA394B1E78002E7FF43CAA374C657ABA
:1088D000022D31D0032D31D05DB9354909A814F0EE
:1088E0007BFB0021084609AA06F02CF809A814F021
:1088F0002DFB4FF47A7362682E49B2FBF3F21348F2
:1089000011F0F6F8114909A814F066FB09AA002134
:10891000012006F017F809A814F018FB264909A849
:1089200014F05AFB002109AA022006F00BF809A84E
:1089300014F00CFB214914E52149CFE72149CDE78B
:10894000AF42070094E200206C420700B5D500203A
:10895000C4D6002074420700914207000541070079
:1089600058E30020A6420700134107001E410700FC
:108970002A41070036410700404107004A410700ED
:10898000564107006A4107007D4107008D410700FD
:108990009A410700A4410700B4410700C241070003
:1089A000CE410700DF410700F8D6002004A30020D5
:1089B000ED410700214207007BF40700C742070092
:1089C000FC4107000D420700062B40F06583B44BC5
:1089D000DD781C795F7893F8029093F80580C5EBF9
:1089E000451205EB8205C4EB441204EB8204AD4A48
:1089F0000592517A6D00640003292DB224B240F033
:108A0000C181A94AA949AA4893F907B093F800A0DF
:108A10004FEA281814F066FC4246A649A44814F010
:108A200061FCA549A24814F05DFCA14813F030FE9A
:108A30004246A049A14814F055FC9F499F4814F0B4
:108A400051FC09F1380964201EF0C2FA4FFA89F985
:108A5000954A9649964814F045FC5B464A46984923
:108A6000934814F03FFC9449914814F03BFC904823
:108A700013F00EFE5B464A469149904814F032FCD2
:108A80008D498E4814F02EFC64201EF0A1FA864A0F
:108A90008649874814F026FC23462A46894984489B
:108AA00014F020FC8449824814F01CFC804813F028
:108AB000EFFD23462A468349804814F013FC7E4983
:108AC0007E4814F00FFC64201EF082FA7E4B1B7867
:108AD000002B3FD07D4B1B78002B00F0228106F04D
:108AE00009FD7B4A7B4B1188198091789970117927
:108AF000D970517919719179D27959719A7103228A
:108B0000DA715FFA88F21A72734A74481268DA608E
:108B1000734A12681A610021724A197583F8159018
:108B200083F816B0128852B2DA756F4A127807EBE2
:108B30000A2A52B20FFA8AFA1A765D839C83D98385
:108B4000A3F820A013F086FF624B40B283F8220006
:108B500007F038F93378002B3FF4F4A8634B1E7804
:108B6000002E7FF4EFA805F0D1FE6148012106F048
:108B70008BFB5D4B5F491A785A4B5F481B8852B29A
:108B80001BB210F0B5FF5C4909A814F025FA09AA38
:108B90003146304605F0D6FE09A814F0D7F94B4609
:108BA0005A465649544810F0A3FF534909A814F0F7
:108BB00013FA09AA3146012005F0C4FE09A814F0F1
:108BC000C5F942464E494C4810F092FF4A4909A85F
:108BD00014F002FA09AA3146022005F0B3FE09A8F2
:108BE00014F0B4F9474909A814F0F6F909AA32219A
:108BF000022005F0A7FE09A814F0A8F9424909A827
:108C000014F0EAF909AA5021022005F09BFE09A8F8
:108C100014F09CF93D4909A814F0DEF909AA31467F
:108C2000032005F08FFE09A814F090F9059BDF7A68
:108C3000002F79D02A4636492F4810F059FF2E4987
:108C400009A814F0C9F909AA3221032005F07AFE17
:108C500009A814F07BF922462D49274810F048FF57
:108C6000254909A814F0B8F909AA5021032005F0F4
:108C700069FE09A814F06AF9174B1868184B1C68AC
:108C80004AF022FC02460B462046CDE902234AF078
:108C90001BFCDDE90223CDE900011E493CE000BFD9
:108CA00082D5002004A30020563F07005A3F07004A
:108CB00030E20020DD4207000890070094E2002027
:108CC000FD4207001A430700AFD50020D4D9002089
:108CD000CCD90020A4A1002028D7002058E30020F0
:108CE0002CD70020B2D50020B4D50020F8D6002023
:108CF000283F070036430700B5D500204D43070045
:108D0000644307006F43070073430700774307007E
:108D10005742070080430700174810F0E9FEFFF7AD
:108D2000BDBA06F05FFDDCE61449134810F017FFEA
:108D3000114909A814F050F909AA3221032005F0BD
:108D400001FE09A814F002F90B4909A814F044F92E
:108D500009AA5021032005F0F5FD09A814F0F6F842
:108D60000749054810F0FBFE034909A814F034F93F
:108D700009AA3946FFF70ABBB5D50020954307007D
:108D80008C430700A9F1C8091FFA89F3A54AA6492F
:108D9000A64802934FFA88FB14F0A4FA5A46A44955
:108DA000A24814F09FFAA349A04814F09BFA9F48E8
:108DB00013F06EFC5A469E499F4814F093FA9D4961
:108DC0009D4814F08FFA64201EF002F9C83F954ABE
:108DD0009549964814F086FABFB2BDF908909749B4
:108DE00092480FFA87FA4B46524614F07BFA9149A3
:108DF0008E4814F077FA8D4813F04AFC4B465246E1
:108E00008E498D4814F06EFA8A498B4814F06AFA3C
:108E100064201EF0DDF8834A8349844814F062FA26
:108E200023462A468649814814F05CFA81497F48E6
:108E300014F058FA7D4813F02BFC23462A4680494B
:108E40007D4814F04FFA7B497B4814F04BFA6420BC
:108E50001EF0BEF87B4B1B78002B3CD07A4B1B7866
:108E6000002B00F0D08006F045FB784A784B118843
:108E70001980917899701179D97051791971917916
:108E8000D27959719A710222DA71724A83F8088094
:108E90001268DA60704A714812681A617FB29DF9EF
:108EA00008201F755A756E4A128852B2DA756D4ADB
:108EB000127852B21A7600225D839C83DA836A4A62
:108EC000126812B21A8413F0C5FD614B40B283F8E8
:108ED000220006F077FF3378002B3EF433AF634B6C
:108EE0001E78002E7EF42EAF05F010FD60480121A3
:108EF00006F0CAF95B4B5F491A78594B5E481B88EC
:108F000052B21BB210F0F4FD5B4909A814F064F8EA
:108F100009AA3146304605F015FD09A814F016F8E7
:108F20005A465649544810F0E3FD534909A814F035
:108F300053F809AA3146012005F004FD09A814F0F0
:108F400005F84F4909A814F047F809AA3221012071
:108F500005F0F8FC09A813F0F9FF4A4909A814F034
:108F60003BF809AA5021012005F0ECFC09A813F0F8
:108F7000EDFF454909A814F02FF809AA314602204F
:108F800005F0E0FC09A813F0E1FF404909A814F03E
:108F900023F809AA3146032005F0D4FC09A813F0F0
:108FA000D5FF52463A49344810F0A2FD324909A88B
:108FB00014F012F809AA3221022005F0C3FC09A816
:108FC00013F0C4FF4A4632492B4810F091FD2A495C
:108FD00009A814F001F809AA3221032005F0B2FC17
:108FE00009A813F0B3FF059BDF7A7FB12A46284911
:108FF000214810F07DFD204909A813F0EDFF09AAD2
:109000005021022022E606F0EDFB2EE721491A4806
:1090100010F0A5FD184909A813F0DEFF09AA502198
:1090200002208CE6563F07005A3F070030E200203E
:10903000984307000890070094E20020B54307001A
:109040001A430700AFD50020D4D90020CCD9002086
:10905000A4A1002028D700202CD7002058E300200E
:10906000B2D50020B4D50020C4D60020F8D6002008
:10907000183F070036430700B5D5002064430700BA
:10908000B6A00700774307006F430700734307004C
:109090005742070095430700072B72D1644A654980
:1090A000654814F01FF96549634814F01BF96449D9
:1090B000614814F017F9604813F0EAFA5F49614813
:1090C00014F010F95E495F4814F00CF964201DF0AB
:1090D0007FFF5D4B1B78002B30D05C4B1B78002B47
:1090E0004CD006F007FA5A4B5A4C1A8822809A78CC
:1090F000A2701A79E2705A7922719A79DB796271D9
:10910000A3710223E371544A544800232372126866
:10911000E260534A1268226123756375E375237612
:109120006383A383E3834F4B1B681BB2238413F039
:1091300091FC40B284F8220006F044FE3378002B04
:109140003EF400AE484B1B78002B7EF4FBAD05F0DF
:10915000DDFB464B5B7A032B0CBF4548454801219C
:1091600006F092F84449454810F0F9FC434909A833
:1091700013F032FF002109AA084678E506F032FB19
:10918000B1E7082B7EF4DEAD384B5D7A35B1012DA9
:1091900029D03B4B00221A70FEF7D4BD05F0B6FB78
:1091A0003848012106F070F8374909A813F014FF78
:1091B000002109AA084605F0C5FB09A813F0C6FE60
:1091C00032492E4810F0CBFC2C4909A813F004FFBB
:1091D00009AA0021032005F0B5FB09A813F0B6FE8B
:1091E00005F0CAFBD5E73378002BD2D01E4B1C7894
:1091F000002CCED105F08AFB2248294606F044F81F
:10920000234909A813F0E8FE09AA2146204605F0E3
:1092100099FB09A813F09AFE1C49184810F09FFC0E
:10922000164909A813F0D8FE09AA2146D2E700BFC3
:10923000563F07005A3F070030E20020CD430700A9
:109240000890070094E20020AFD50020D4D9002078
:10925000CCD90020A4A1002028D7002058E300206A
:109260002CD70020C4D60020F8D6002004A300206C
:10927000183F0700283F0700EA430700B5D5002044
:10928000CDD60020D83F0700ED410700954D0700DF
:109290006240070070B5304BB0F90A201A802F4B9E
:1092A00090F90C201A702E4B42781A702D4A1368D0
:1092B000013313602C4B00221A7002780446E2B985
:1092C0002A4A2B492B4814F00DF82B49294814F051
:1092D00009F82A49274814F005F8264813F0D8F968
:1092E0002549274813F0FEFF2449254813F0FAFFCB
:1092F000BDE8704064201DF06BBE224B5B7A023BE0
:10930000012B28D8022A0FD11F4D027A41681F482D
:1093100006232B700FF07EFE2B461D48BDE87040E3
:10932000FA22012113F0FFBC104A1149114813F031
:10933000D9FF227817490F4813F0D4FF0F490D4881
:1093400013F0D0FF0B4813F0A3F9227811490C4811
:1093500013F0C8FFC8E770BDB2D50020B4D5002017
:10936000B0D50020C8D60020CDD60020FF4307008E
:109370005A3F070030E2002005440700089007002C
:1093800094E2002004A3002080D5002082D5002094
:1093900011E300200D44070070B51E4C054600285F
:1093A00036D01D4B1D491E4800221A701D4A13F06D
:1093B00099FF2A461C491A4813F094FF1B49184884
:1093C00013F090FF164813F063F92A46164918481F
:1093D00013F088FF1549164813F084FF64201DF030
:1093E000F7FD144B1D60144B5B7A023B012B134BB2
:1093F0001A6802F101021A6094BF07230223237046
:109400000F482346FA22BDE87040012113F08BBCBF
:109410000823F4E780D50020CDD600205A3F07006E
:1094200030E20020563F07001C4407000890070068
:1094300094E20020D0D6002004A30020C4D600204F
:1094400011E3002030B5504A5049514D99B00446BF
:10945000504813F047FF22464F494E4813F042FF51
:109460004E494C4813F03EFF4A4813F011F922468A
:1094700049494B4813F036FF4849494813F032FF39
:1094800064201DF0A5FD297800297AD101231A2234
:1094900008A82B7007910FF0CBFD05A82CF06AF9F6
:1094A0000598404C00F5E0400FA96E302CF0D6F93D
:1094B000149B3D4903F26C730393129B0293139B1D
:1094C000013301930F9B009307A8DDE9103210F0E0
:1094D0000FFB2D4A2D492F4813F004FF07AA3349EB
:1094E0002C4813F0FFFE2D492A4813F0FBFE2948B3
:1094F00013F0CEF807AA2D49294813F0F3FE2749A7
:10950000274813F0EFFE64201DF062FD149B03F268
:109510006C732380139B0133A370129B2371119BE7
:109520006371109BA3710F9BE371214B1B7843B3B5
:10953000154A1649174813F0D5FE1E49154813F071
:10954000D1FE1649134813F0CDFE124813F0A0F8CF
:109550001849134813F0C6FE1049114813F0C2FE13
:1095600064201DF035FD02232B70E3790193A3796C
:10957000009363792279A178208806F0B9F805F084
:10958000B9FF19B030BD00BF2B4407005A3F070098
:10959000CCD6002030E200203044070008900700BD
:1095A00094E20020CCD9002047440700B1630700B3
:1095B000D4D9002069440700F0B54FF080432DED69
:1095C000028BD3F83834032B85B020D1364A374983
:1095D000374813F087FE3749354813F083FE364984
:1095E000334813F07FFE324813F052F831493348C4
:1095F00013F078FE3049314813F074FE64201DF0FA
:10960000E7FC0024204605B0BDEC028BF0BD2C48E1
:109610002B4D13F053FB0A24B0EE408A284613F07A
:109620004DFB013C38EE008AF8D1B2EE067AC8EE66
:10963000077A1D4A1D491E489FED228ADFED226AE6
:1096400027EE888ADFED217A68EE277A87EEA67A00
:10965000FCEEC77ACDED037A9DF80C4013F042FE84
:1096600018EE100A49F030FF06460F462246CDE9B3
:10967000006717490E4813F035FE0F490C4813F0E8
:1096800031FE0B4813F004F82246CDE9006710497B
:109690000A4813F027FE0849084813F023FE642007
:1096A0001DF096FCAEE700BFD39307005A3F0700BA
:1096B00030E200207F4407000890070094E2002079
:1096C0000DE3002000007A440040834500007F4302
:1096D0008644070007B52B4A2B492C4813F002FE9D
:1096E0002B492A4813F0FEFD2A49284813F0FAFDB9
:1096F000264812F0CDFF2649274813F0F3FD2549EF
:10970000254813F0EFFD64201DF062FC234B244834
:1097100001221A7013F0B3F818B12248002113F097
:1097200078F8214813F0FCF92049214813F00AF990
:1097300020491F4813F016F91F491D4813F00AF974
:109740001E491B4813F016F91D49194813F01AF960
:1097500000211C4813F054F902211B4813F0BEF9F4
:1097600032230122009311460A23114813F0A9F86D
:10977000164BD97A01B10121222003B05DF804EB28
:1097800013F063BE563F07005A3F070030E2002047
:10979000A04407000890070094E20020A1A1002047
:1097A00084E300206EE300206DE300209592020028
:1097B00049E30020999302008D7302002D7402008A
:1097C0004594020051E300206BE3002004A3002035
:1097D00008B52B4A2B492C4813F084FD2B492A4805
:1097E00013F080FD2A49284813F07CFD264812F02A
:1097F0004FFF2649274813F075FD2549254813F0EA
:1098000071FD64201DF0E4FB234B244800211970F6
:1098100012F0FFFF224813F036F8D0B9184A194960
:10982000194813F05FFD1F49174813F05BFD1849F5
:10983000154813F057FD144812F02AFF194915482E
:1098400013F050FD1249134813F04CFD64201DF035
:10985000BFFB1549114813F023F814490F4813F0C2
:1098600027F84FF6FD710D4812F0D3FF104BD97A4F
:1098700001B10121BDE80840222013F0E6BD00BF80
:10988000563F07005A3F070030E20020B54407006A
:109890000890070094E20020A1A100206EE30020C0
:1098A00084E30020C4440700DD730200B9730200A2
:1098B00004A300202DE9F04F012187B0222013F0EE
:1098C000ADFD0121232013F0A9FD0121242013F077
:1098D000A5FDB348B34F13F029FC04F043FF3870E3
:1098E000002800F0DA81B049B04810F038F9AF48EC
:1098F000012105F0C9FCAE4804F0AAFFAD4804F010
:10990000A7FF0021222013F0A0FD0223AA4806226F
:109910004FF4E13112F0C2FE4FF08043D3F83834F7
:10992000032B40F0DA814FF4FA601DF051FB042361
:10993000022203ACA14900939C48002310F0D8F800
:109940009A49204613F048FB21469D4813F094F9AC
:10995000204613F0FBFA0121232013F076FD0021AD
:10996000232013F072FD0021242013F06EFD03F07C
:109970005DF8D0B9934A94498F4813F0B3FC9349EA
:109980008D4813F0AFFC92498B4813F0ABFC8A482A
:1099900012F07EFE8D498F4813F0A4FC8C498D484F
:1099A00013F0A0FC64201DF013FB03F029F8D0B9DC
:1099B000844A8549804813F095FC87497E4813F016
:1099C00091FC83497C4813F08DFC7B4812F060FECB
:1099D0008149804813F086FC7D497E4813F082FC63
:1099E00064201DF0F5FA02F09DFFD0B9754A764962
:1099F000714813F077FC79496F4813F073FC744990
:109A00006D4813F06FFC6C4812F042FE73497148C8
:109A100013F068FC6E496F4813F064FC64201DF07D
:109A2000D7FA02F095FFD0B9664A6749624813F049
:109A300059FC6B49604813F055FC65495E4813F0CA
:109A400051FC5D4812F024FE6549624813F04AFC5F
:109A50005F49604813F046FC64201DF0B9FA02F03B
:109A60008DFFD0B9574A5849534813F03BFC5D4924
:109A7000514813F037FC56494F4813F033FC4E4819
:109A800012F006FE5749534813F02CFC5049514838
:109A900013F028FC64201DF09BFA03F0FDFCD0B904
:109AA000484A4949444813F01DFC4F49424813F0C5
:109AB00019FC4749404813F015FC3F4812F0E8FDF7
:109AC0004949444813F00EFC4149424813F00AFC4E
:109AD00064201DF07DFA00F0F3FDD0B9394A3A490F
:109AE000354813F0FFFB4149334813F0FBFB38497D
:109AF000314813F0F7FB304812F0CAFD3B493548B6
:109B000013F0F0FB3249334813F0ECFB64201DF0F6
:109B10005FFA374D374E002000F0FEFC6B7A294A81
:109B200029492548023B012B00F2FF8013F0DAFBA4
:109B30003149214813F0D6FB25491F4813F0D2FBC9
:109B40001D4812F0A5FD2C49224813F0CBFB2049FB
:109B5000204813F0C7FB64201DF03AFA012003F0FF
:109B60009DFF3070337813B1244804F071FE05F086
:109B7000EBFC234E134A14493070002800F0F580A6
:109B80000D4813F0AFFB1F490B4813F0ABFB104916
:109B9000094813F0A7FB084812F07AFD34E000BF33
:109BA0008CE30020AED50020D83F0700B5D50020BB
:109BB000E6440700F344070030E20020AF4B070003
:109BC000B8E20020563F07005A3F07000D45070046
:109BD0000890070094E2002039450700604507001F
:109BE0008E450700B8450700E64507000B4607000D
:109BF00004A30020ADD500202746070051460700EA
:109C0000D4D900205C4607008A498B4813F06AFBD0
:109C10008A49894813F066FB64201DF0D9F905F0E4
:109C200069FC94E803002BF084FD02F0D3FE337846
:109C300013B1834804F00CFE05F056FE814E3070DF
:109C4000002840F0AC80804A8049814813F04AFBEC
:109C500080497F4813F046FB78497D4813F042FB6A
:109C60007B4812F015FD7B49734813F03BFB7349A9
:109C7000714813F037FB64201DF0AAF9337813B153
:109C8000754804F0E5FD6B7A032B00F2F580DFE800
:109C900013F03201A301AC01B9016B4A6B496C4866
:109CA00013F020FB6D496A4813F01CFB63496848B8
:109CB00013F018FB664812F0EBFC68495E4813F09D
:109CC00011FB5E495C4813F00DFB64201DF080F928
:109CD0003B78002B3FF415AE05E613F0C2FBDFF82E
:109CE00070A106464FF0000B41F287384FF0000993
:109CF000504612F0B8FC00287FF419AE13F0B1FB07
:109D0000841B6BEB4B05A04579EB0503FFF60FAE0B
:109D100064201DF05DF9232013F09CFBB0FA80F164
:109D20004909232013F091FBE2E795F80B80B8F185
:109D3000000F7FF4FBAE13F0D5FA4949444813F005
:109D4000D1FA3E49424813F0CDFA414812F0A0FC46
:109D50004349394813F0C6FA3849374813F0C2FA74
:109D600064201DF035F94046F9E6394813F0BAFA97
:109D70003C49374813F0B6FA3049354813F0B2FA87
:109D8000334812F085FC37492B4813F0ABFA2B49C6
:109D9000294813F0A7FA64201DF01AF947E705F0E7
:109DA0006DFE3070D0B9284A2849294813F09AFA34
:109DB0002D49274813F096FA2049254813F092FAC6
:109DC000234812F065FC28491B4813F08BFA1B4905
:109DD000194813F087FA64201DF0FAF81A4A1B4953
:109DE0001B48DFF88C90DFF88C8013F07BFA327818
:109DF0001E491748002A14BF4A46424613F072FA19
:109E00000E49134813F06EFA114812F041FC3278F3
:109E100016490948002A14BF4A46424613F062FA1E
:109E20000649054813F05EFA64201DF0D1F802F0EF
:109E3000BBFD23E75C46070094E200200890070082
:109E400066460700AFD50020563F07005A3F07007F
:109E500030E200206D460700B1460700FF440700CE
:109E60003B460700594607007E4607009446070018
:109E7000DB440700E0440700634A6449644813F088
:109E800031FA6449624813F02DFA6349604813F0CF
:109E900029FA5F4812F0FCFB5E49604813F022FA91
:109EA0005D495E4813F01EFA64201DF091F83B787E
:109EB0000BB35B495B480FF052FE5A49204613F042
:109EC0008BF800212246084604F03CFD204613F0A2
:109ED0003DF8554953480FF042FE5249204613F0D1
:109EE0007BF822460021012004F02CFD204613F0CF
:109EF0002DF804F041FD4D4804F0AAFC4C4812F046
:109F000095FD10B94B4804F0A3FCFFF7E3FB4FF4B9
:109F10007A7349496A684348B2FBF3F20FF0E8FDEF
:109F2000404804F095FC454A45480123002112F0C1
:109F3000F0FE6A6822B100234148194612F0F3FE90
:109F4000404A3F480023012112F0E3FE00233E4A2D
:109F50003B48022112F0DDFEAB7A33B138480023D2
:109F60004EF66022022112F0DEFE0123374A344809
:109F7000032112F0CEFE364B1B785BB12C4812F059
:109F800055FD38B932230122009332480A23114685
:109F900012F097FC1C4A1D491D4813F0A3F92E49E5
:109FA0001B4813F09FF91C49194813F09BF91848F6
:109FB00012F06EFB2849194813F094F91649174816
:109FC00013F090F964201DF003F80121234813F0E9
:109FD0001CFA07B0BDE8F08FFFF7FAFB204804F049
:109FE00037FC1D4804F034FC91E71E4804F030FCB7
:109FF0000F4812F01BFD10B90E4804F029FCFDF7C4
:10A0000069FA84E71848F1E7563F07005A3F07000E
:10A0100030E20020BC4607000890070094E20020D0
:10A02000DD460700B5D50020EF460700ED410700EB
:10A0300054E30020FF46070021420700CD750200CF
:10A0400011E30020C97C0200CDE9020071E20200A8
:10A05000A1A1002049E300200D470700A9E200204C
:10A06000C4400700FC4107000D4207007047000094
:10A0700002481822002106F059BB00BFD4D60020A8
:10A080002DE9F04F994C9A4DDFF87CA2DFF87CB2B5
:10A0900089B0204606F09EFC204610EE107A06F0AD
:10A0A000B8FC20468DED050A06F0D2FC914A924993
:10A0B0008DED060A284613F015F9204606F08AFCB5
:10A0C000204610EE108A06F085FC384610EE106A25
:10A0D00049F0FAF9894B002249F04EFA49F0FCFCAC
:10A0E00007B2404649F0F0F980463046894602976B
:10A0F00049F0EAF9814B824E002249F03DFA42468E
:10A100004B46CDE900015146284613F0EBF83146A5
:10A11000284613F0E7F8284612F0BAFA204606F06F
:10A1200059FC204610EE108A06F054FC40468DED96
:10A13000070A49F0C9F9079B0297804618468946E5
:10A1400049F0C2F96D4B002249F016FA4B464246DF
:10A15000CDE900015146584613F0C4F8314658463F
:10A1600013F0C0F864201CF033FF624A62492846AD
:10A1700013F0B8F8204606F04CFC204610EE107A9A
:10A1800006F047FC059810EE10AA49F09DF9002250
:10A190005A4B49F0F1F949F09FFC03B23846059358
:10A1A00049F092F9059B029380465046894649F052
:10A1B0008BF9524B534FDFF858A1002249F0DCF9DC
:10A1C00042464B46CDE900013946284613F08AF84D
:10A1D0003146284613F086F8284612F059FA2046F0
:10A1E00006F017FC204610EE108A06F012FC4046DE
:10A1F0008DED070A49F068F9059B0293079B80469D
:10A200001846894649F060F93C4B002249F0B4F900
:10A210004B464246CDE900013946584613F062F8F4
:10A220003146584613F05EF864201CF0D1FE314AE6
:10A230003149284613F056F8204606F009FC20461E
:10A2400010EE108A06F004FC06988DED050A49F020
:10A250003BF92A4B002249F08FF949F03DFC07B247
:10A26000404649F031F9804605980297894649F001
:10A270002BF9224B002249F07FF942464B46CDE9AB
:10A2800000015146284613F02DF83146284613F0B8
:10A2900029F8284612F0FCF9204606F0D9FB2046A2
:10A2A00010EE105A06F0D4FB284610EE108A49F042
:10A2B0000BF9044640460D46029749F005F90F4B4D
:10A2C000002249F059F92246CDE900012B465146BA
:10A2D000584613F007F83146584613F003F8642047
:10A2E00009B0BDE8F04F1CF073BE00BFD4D600200B
:10A2F00030E200201B4707005A3F070000408F4014
:10A30000089007002E4707001F47070094E200202F
:10A310003D47070007B573480DF10701312206F0EC
:10A32000A1FB9DF8073059061BD56F4A6F4970484D
:10A3300012F0D8FF9DF807206E496D4812F0D2FF49
:10A340006D496B4812F0CEFF694812F0A1F96949D6
:10A350009DF80720694812F0C5FF6749674812F069
:10A36000C1FF64201CF034FE9DF807309A0617D513
:10A370005D4A5E495E4812F0B5FF61495C4812F0E3
:10A38000B1FF5D495A4812F0ADFF594812F080F90B
:10A390005B495A4812F0A6FF5749584812F0A2FFED
:10A3A00064201CF015FE9DF80730DB0617D54E4AD9
:10A3B0004E494F4812F096FF52494D4812F092FF15
:10A3C0004D494B4812F08EFF494812F061F94D4952
:10A3D0004A4812F087FF4849484812F083FF64203A
:10A3E0001CF0F6FD9DF80730180717D53E4A3F4987
:10A3F0003F4812F077FF44493D4812F073FF3E4951
:10A400003B4812F06FFF3A4812F042F93E493B4890
:10A4100012F068FF3849394812F064FF64201CF0DC
:10A42000D7FD9DF80730590717D52F4A2F493048D7
:10A4300012F058FF35492E4812F054FF2E492C488F
:10A4400012F050FF2A4812F023F930492B4812F03D
:10A4500049FF2949294812F045FF64201CF0B8FD46
:10A460009DF807309A0717D51F4A2049204812F057
:10A4700039FF27491E4812F035FF1F491C4812F0CA
:10A4800031FF1B4812F004F921491C4812F02AFF41
:10A4900019491A4812F026FF64201CF099FD9DF816
:10A4A0000730DB0717D5104A1049114812F01AFF80
:10A4B00018490F4812F016FF0F490D4812F012FF0D
:10A4C0000B4812F0E5F813490C4812F00BFF0A494B
:10A4D0000A4812F007FF64201CF07AFD03B05DF813
:10A4E00004FB00BFD4D600201B4707005A3F0700DB
:10A4F00030E200204C4707000890070094E200205B
:10A50000634707006A47070070470700774707005F
:10A510007D4707008447070073B5002104461120DA
:10A5200012F07CFF5D4812F001FE5D4B6CB300221F
:10A530009A800A22DA804FF481721A8140F2011265
:10A540005A81574806F01EFB054620B3554A564926
:10A55000564812F0C7FE5649544812F0C3FE5549FA
:10A56000524812F0BFFE514812F092F8504952483A
:10A5700012F0B8FE4F49504812F0B4FE64201CF0AF
:10A5800027FD0024204602B070BD02229C80DC80A2
:10A590001A815C81D5E7002C38D02A22302140482E
:10A5A0008DF80720012606F007F9082232213C48E1
:10A5B0008DF8072006F000F93246332138488DF82F
:10A5C000076006F0F9F824220DF10701344806F07F
:10A5D00049FA9DF80720324822F00C0242F00802A6
:10A5E00024218DF8072006F0E7F8602222212C486C
:10A5F0008DF8072006F0E0F82A462521284806F0C5
:10A60000DBF827483246212106F0D6F80025202223
:10A610000DF1070122488DF8075006F023FA9DF846
:10A6200007201F4842F0080220218DF8072006F07D
:10A63000C3F864201CF0CCFC1E220DF10701184861
:10A640008DF8075006F00EFA9DF80720144842F0E6
:10A6500090021E218DF8072006F0AEF864201CF051
:10A66000B7FC4CB1FFF756FE14490422112011F03B
:10A67000CDFFFFF705FD85E720220DF10701084812
:10A6800006F0F0F99DF80720054802F0400220216D
:10A690008DF80720012406F08FF873E78CE3002083
:10A6A000D4D600201B4707005A3F070030E20020A5
:10A6B0008A4707000890070094E200206DA002007E
:10A6C00008B50221092012F0A9FE0649032209203B
:10A6D00011F09CFF0449054801236422FCF702FEA7
:10A6E000012008BDD5AC020071AD0200B8D6002033
:10A6F0002DE9F04FC74D91B012F0B3FED5E900231C
:10A700000024811A64EB030300910193DDE9002327
:10A7100040F6B8300021904271EB0303A346A246F5
:10A72000A146A0462746264677DB12F09AFED5E9D9
:10A730000023811A63EB430302910393DDE90223B3
:10A74000B2F5C87F73F1000373DA12F08AFED5E91F
:10A750000023811A63EB430304910593DDE904347C
:10A76000B3F5C87F74F1000380F2858012F079FEA2
:10A77000D5E90023811A63EB430306910793DDE9D2
:10A780000634B3F5167F74F1000380F2998012F05D
:10A7900068FED5E90023811A63EB4303089109930E
:10A7A000DDE90834B3F5487F74F1000380F2AE8030
:10A7B00012F057FED5E90023811A63EB43030A9197
:10A7C0000B93DDE90A34B3F5966F74F1000380F260
:10A7D000C08012F046FED5E90023811A63EB4303E3
:10A7E0000C910D93DDE90C34B3F5AF6F74F10003F8
:10A7F00080F2D28012F035FED5E90023811A63EB96
:10A8000043030E910F93DDE90E34B3F5C86F74F175
:10A81000000380F2E280082474E0092012F01AFE9E
:10A82000002882D17C4B1B78002B3FF47EAF0224A2
:10A8300068E0794B1B78012B87D1092012F00AFEC2
:10A84000012882D10023C82C10D00920009312F0D7
:10A8500001FE009B012804BF0133DBB2012001345B
:10A860000093E4B21CF0B4FB009BECE7C62B7FF630
:10A870006CAF002446E0684B1B78022B7FF476AF68
:10A88000092012F0E7FD01287FF470AF0024BBF12E
:10A89000C80F10D0092012F0DDFD012808BF0134D7
:10A8A0004FF001000BF1010B08BFE4B25FFA8BFB24
:10A8B0001CF08EFBEBE7C62C7FF658AF012421E09D
:10A8C000554B1B78032BDCB27FF461AF4FF0000BCC
:10A8D000BAF1C80F12D0092012F0BCFD012808BF40
:10A8E0000BF1010B4FF001000AF1010A08BF5FFAFA
:10A8F0008BFB5FFA8AFA1CF06BFBE9E7BBF1C60F32
:10A900007FF645AF204611B0BDE8F08F424B1B7873
:10A91000042BDCB27FF44CAF4FF0000AB9F1C80F42
:10A9200012D0092012F096FD012808BF0AF1010A91
:10A930004FF0010009F1010908BF5FFA8AFA5FFAD6
:10A9400089F91CF045FBE9E7BAF1C60F7FF630AF95
:10A95000D8E7314B1B78052BDCB27FF43AAF4FF0D0
:10A960000009B8F1C80F12D0092012F073FD0128B8
:10A9700008BF09F101094FF0010008F1010808BF03
:10A980005FFA89F95FFA88F81CF022FBE9E7B9F170
:10A99000C60F7FF61EAFB5E71F4B1B78062BDCB248
:10A9A0007FF428AF4FF00008C82F11D0092012F013
:10A9B00051FD012808BF08F101084FF0010007F11F
:10A9C000010708BF5FFA88F8FFB21CF001FBEBE754
:10A9D000B8F1C60F7FF60EAF94E70F4B1B78072B2D
:10A9E000DCB27FF418AF0025C82E0FD0092012F07A
:10A9F00031FD012808BF01354FF0010006F10106C5
:10AA000008BFEDB2F6B21CF0E3FAEDE7C62D7FF613
:10AA100002AF77E7F0D60020F9D6002073B58B4D52
:10AA20008B4C6A7A637A9A4231D003F06FFF00212F
:10AA3000884804F029FC6B6863606B7A864863720F
:10AA40006B89638103F004FF844803F001FF03F086
:10AA500093FF02F01BF940F6B8301CF0B9FA637AA4
:10AA60007F48012B4FF000014FF0320640F09980F3
:10AA700011F0CFFE00227B4800960A23114611F008
:10AA800020FF794811F0FFFE784812F015F9EA7AB4
:10AA9000E37A9A4207D06B7A023B012B94BF0120E4
:10AAA000002002F0FBFF6A6863689A4203D16A895A
:10AAB00063899A4213D003F029FF674803F0C8FE68
:10AAC000664803F0C5FE03F057FF6B6863606B894F
:10AAD000638102F0DBF840F6B8301CF079FA644884
:10AAE00012F01AF8002869D0624811F0A1FF624BF9
:10AAF0001978884205D000395E4818BF012111F04D
:10AB000099FF5E4811F0A6FF5D4B1978884202D08C
:10AB10005A4811F0A1FF5B4811F0AEFF5A4B19786B
:10AB2000884202D0574811F0A9FF584D58482E7856
:10AB300011F0B4FF86420BD02978554811F0BAFFC6
:10AB400032230122009347480A23114611F0B9FE2F
:10AB500003F0DCFE637A012B71D06CD9023B012B30
:10AB60006FD94FF47A7362684A49B2FBF3F24A48EC
:10AB70000EF0BEFF484803F06BFE626822B100236E
:10AB80004648194612F0CFF8A37A002B5BD0434811
:10AB900000234EF66022022102B0BDE8704012F0A0
:10ABA000C2B811F036FE012200960A2311462D4844
:10ABB00011F087FE2E4811F0B3FF65E7384D394894
:10ABC000296811F0E0FD374811F0DBFD2968884263
:10ABD00002D0344811F0D7FD334811F0E3FD334B78
:10ABE0001978884202D0304811F0DEFD304D3148EE
:10ABF0002E7811F0E8FD864203D029782D4811F017
:10AC0000E4FD2D4811F0F0FD2C4B1978884202D05C
:10AC1000294811F0EBFD2A4811F0F9FD294B19786C
:10AC2000884202D0264811F003FE4FF6FD710C4811
:10AC300011F0EFFD8CE7244803F00AFE91E723486A
:10AC4000FAE72348F8E702B070BD00BFD0A10020AA
:10AC500004A30020AB470700B2470700C247070024
:10AC60006EE3002049E3002084E30020A8E20020F6
:10AC70006DE3002055E30020FBD6002058E30020C0
:10AC8000FDD6002060E30020FED60020FCD6002088
:10AC90006AE3002021420700B5D5002011E300201F
:10ACA00008D7002079E300207AE300200CD70020A9
:10ACB00003D700207BE300207CE3002004D70020A2
:10ACC0007EE300200DD70020ED410700C4400700BF
:10ACD0000D420700F8B512F0C4FB1C4D1C4B1D4C77
:10ACE0000021C3E9000112F0BCFBD5E90032C61A0D
:10ACF00062EB4207C92E77F1000308DB12F0B1FBCB
:10AD000000236B60237828600133DBB22370124A82
:10AD10001249134812F0E6FA22781249104812F04C
:10AD2000E1FA11490E4812F0DDFA0D4811F0B0FCBD
:10AD300022780C490D4812F0D5FA0B490B4812F055
:10AD4000D1FABDE8F84064201CF042B9E8D60020F2
:10AD5000F0D60020F9D60020D34707005A3F07005D
:10AD600030E20020D74707000890070094E2002057
:10AD70002DE9F04F87B0FFF7BBFC072800F29A825D
:10AD8000DFE810F05107B2040800D602000193007A
:10AD9000490036008F4B904A00241C708F4B0020D6
:10ADA0000021C3E900018E498E4812F09BFA8E49BA
:10ADB0008C4812F097FA8D498A4812F093FA894824
:10ADC00011F066FC88498A4812F08CFA8749884855
:10ADD00012F088FA64201CF0FBF8864B1B782BB12C
:10ADE000204607B0BDE8F04F03F0CEBD0120F8E7E4
:10ADF000784B00221A70794B00200021C3E9000132
:10AE00007D4B1C783CB903F081FD7C48214604F061
:10AE10003BFA1CF0F4F86F4B00221A706F4B0020C5
:10AE20000021C3E90001744B1C78002C31D0744C14
:10AE30002378052B0DD1734B7348D97A10222270D9
:10AE400001919B7A00937149714B09781B7803F04B
:10AE5000C3FD614A6249634812F044FA22786D49A1
:10AE6000604812F03FFA61495E4812F03BFA5D48D3
:10AE700011F00EFC227867495D4812F033FA5B4905
:10AE80005B4812F02FFA642007B0BDE8F04F1CF0C9
:10AE90009FB803F03BFD6048214604F0F5F95F4898
:10AEA00007B0BDE8F04F11F007BF4A4B00221A70FF
:10AEB0004A4B00200021C3E900014F4B1B78002BB7
:10AEC00000F0F8814E4C2378052B16D8DFE803F00C
:10AED000031515344050524811F01EFE0128494B0D
:10AEE0001FD1D97A4F480422227001919B7A4E4992
:10AEF00000930978FF2303F06FFD374A384939483A
:10AF000012F0F0F922784949364812F0EBF9374946
:10AF1000344812F0E7F9334811F0BAFB227843497C
:10AF2000AAE7D97A42480522227001919B7A4149C9
:10AF300000930978FF23DEE7324B3F48D97A03229A
:10AF40005A7201919B7A3D49009309780523D2E713
:10AF500007233B48237011F0A1FD2A4AD37A0193BD
:10AF6000937A00932278C3B2284927480978C2E728
:10AF7000244B0E22D97A227001919B7A0093314B97
:10AF80001B78F1E7134B00221A70144B00200021AC
:10AF9000C3E90001184B1B78002B00F0D180184C3E
:10AFA0002378062B5DD8DFE813F007004F00700010
:10AFB0007E008800B900C300124903224B7AC87A88
:10AFC00022700190897A00910233DBB21B491A4842
:10AFD000097844E0F9D60020D3470700F0D60020D6
:10AFE0005A3F070030E20020E747070008900700BB
:10AFF00094E200204CA50020F8D60020F14707007D
:10B00000FAD60020D0A10020C8A10020CCA10020A9
:10B010000DD70020FC4707000D480700A8E20020DC
:10B020006DE30020A4A20020B8A20020134807006E
:10B03000D0A20020E8A2002064A2002078A2002074
:10B040006AE3002004D700209C4B9D48D97A002257
:10B05000227001919B7A9B4900930978FF2303F0AA
:10B06000BBFC994A99499A4812F03CF922789949CF
:10B07000974812F037F99849954812F033F99448F7
:10B0800011F006FB22789349F6E68C4A9349937AAD
:10B09000934883F001039372D27ACDE90032FF2303
:10B0A00009780222DBE7854B02225A72DA7A019292
:10B0B0009B7A00930322042388E70A23894823709C
:10B0C00011F0ECFCC0B20C280ED8DFE800F0071B32
:10B0D0001B211B21211B1B1B1B1B2100824B002240
:10B0E0001A70824B05221A70744A814BD17A1B78F0
:10B0F0000191927A00920A332278DBB27D497E4830
:10B100000978ACE7784B00221A70784B0722EAE7FF
:10B11000754B00221A70754B0A22E4E7674B0D222B
:10B12000D97A227001919B7A0093744B1B78E5E7E2
:10B13000624BDA7A01929B7A009306220023DDE7C4
:10B140006F4811F0E9FC012840F0B4806D4E727A2E
:10B15000012A00F0AF806C4F3A78002A40F0AA80B4
:10B160006A4D6B4B28701B780BB903F00DFC564AE7
:10B1700056495748DFF8509112F0B4F865495448E1
:10B1800012F0B0F85449524812F0ACF8504811F09F
:10B190007FFA6049604812F0A5F84F495E4812F006
:10B1A000A1F864201BF014FF00215C4811F0C5FDDC
:10B1B0004C4811F073FC5A4B53F820305948059312
:10B1C00011F048FC00248046059B33F81430002B16
:10B1D00060D03E493E484A4612F084F82246524921
:10B1E0003B4812F07FF83C49394812F07BF8384868
:10B1F00011F04EFA22464C49474812F073F836498E
:10B20000454812F06FF864201BF0E2FEE1B24548B9
:10B2100011F022FC64201BF0DBFE0020FCF7D6F9C5
:10B2200012F01FF94FF0000A83463A7872B34FF4D8
:10B230007A701BF0CDFE12F014F9B0EB0B03029301
:10B240006AEB4A030393DDE9020142F21072002324
:10B2500082428B41E9DA4A461C491D4812F042F805
:10B2600032491B4812F03EF81B49194812F03AF8CF
:10B27000174811F00DFA2D49274812F033F81649F6
:10B28000254812F02FF864201BF0A2FE4FF4FA605C
:10B290001BF09EFE0134102C96D12248414611F03D
:10B2A000DBFB726822B100231C48194611F03BFDFC
:10B2B00000232B7007B0BDE8F08F00BFD0A10020A5
:10B2C000ECA2002000A30020D34707005A3F07004C
:10B2D00030E200202448070008900700CCA200209C
:10B2E000BCA200206AE3002002D7002000D7002083
:10B2F000FDD60020CCA10020C8A1002003D700204B
:10B300006DE3002004A30020CDD6002081D50020CD
:10B310004CA500203548070094E2002011E30020EE
:10B32000FCA4002058E300204848070056480700C6
:10B330008E4B00221A708E4B00240025C3E9004575
:10B340008C4B1B78002B00F08D818B4C2378102BBD
:10B350002BD8DFE813F011001D003E004900560015
:10B3600085009200A5002A00D100E400F9004B01FD
:10B370005A0169012A007701804B0222D97A227092
:10B3800001919B7A0093FF237D497E4809780AE06A
:10B390007A4B7D48D97A0022227001919B7A7B49B1
:10B3A00000930978FF2303F017FB794A79497A481B
:10B3B00011F098FF22787949774811F093FF784986
:10B3C000754811F08FFF744811F062F922787349C3
:10B3D00052E56A4AD37A83F00103D3720193937AD8
:10B3E00000930222FF23CFE7644B6E496E4801228F
:10B3F0005A72DA7A01929B7A0093032309781A46EB
:10B40000D1E709236948237011F048FBC0B20C282A
:10B4100014D8DFE800F007070707070D1C072222F2
:10B4200022221C00624B00221A70624B052204E0AB
:10B430005F4B00221A705F4B04221A704F4BDA7A6E
:10B4400001929B7A00935C4B1B78227811E0584B59
:10B4500000221A70574B0622EFE7554B0222E3E712
:10B46000464B0C22D97A227001919B7A0093534B60
:10B470001B7853495348097895E7404B5A6842B1C5
:10B4800042F20F718A428ABFA2F51C520022103A82
:10B490005A60DA7A01929B7A00930622FF23E8E74A
:10B4A000494D2B7833B3013BDBB2394A39493A482D
:10B4B0002B7011F017FF2A784449374811F012FF1A
:10B4C0003749354811F00EFF334811F0E1F82A787A
:10B4D0003E493F4811F006FF31493D4811F002FF57
:10B4E00064201BF075FD254BDA7A01929B7A00935C
:10B4F0002B78AAE70C23D8E72F4A2D49137809782F
:10B5000099420BBF2B4B03F1FF331B78DBB2137057
:10B510001A4AD17A0191927A00920922A9E72D4A1A
:10B520002D491378097899420BBF2C4B03F1FF3357
:10B530001B78DBB21370114BDA7A01929B7A00937D
:10B540001D4B0A221B7894E7254A26491368A3F568
:10B55000C333A03B8B4298BF234B1360074BDA7A6F
:10B5600001929B7A00930B22FF2382E7F9D60020F9
:10B57000F0D60020F8D60020FAD60020D0A1002076
:10B58000CCA20020BCA20020ECA2002000A300203E
:10B59000D34707005A3F070030E2002072480700F7
:10B5A0000890070078A2002064A200206AE300202F
:10B5B00001D70020FFD60020FDD600200CD70020A8
:10B5C000CCA10020C8A10020FCD6002068480700BC
:10B5D00094E20020FED6002002D7002000D70020F1
:10B5E00008D700207F47A1198047A1197E4A11780A
:10B5F00006291CBF01F1FF33DBB213707B4AD17AFD
:10B600000191927A00920C2233E7794A13784BB178
:10B61000013BDBB21370754AD17A0191927A0092A4
:10B620000D2226E70923F5E7724A13780BB1581E5D
:10B63000C0B26E4B1070DA7A01929B7A00930E22A0
:10B64000034616E76C4A1378052B1ABF03F1FF3344
:10B65000DBB216231370654AD17A0191927A009277
:10B66000102206E7654811F057FA01287FF422AE50
:10B67000634B1B78002B7FF41DAE624B1B780BB91C
:10B6800003F082F9604A6149614811F02BFE61497B
:10B690005F4811F027FE60495D4811F023FE5C48C9
:10B6A00010F0F6FF5B495D4811F01CFE5A495B48FB
:10B6B00011F018FE64201BF08BFC0021584811F09B
:10B6C0003CFB584B012200201A70FBF77FFF564BC2
:10B6D0005A68002A3FF4EEAD00235148194607B0DE
:10B6E000BDE8F04F11F01FBB504B514D514C0022A3
:10B6F0001A70514B00210020C3E90001297800296C
:10B7000040F03581464811F018FB0121444811F002
:10B7100014FB4348022111F010FB3A4B1B7813B97C
:10B72000012003F031F901233F4A2B7000232370DD
:10B730002E4B51685960517A52895A812F4859725B
:10B7400011F0EAF90546304A30493148002D00F041
:10B750008D8011F0C7FD39492D4811F0C3FD2E49E8
:10B760002B4811F0BFFD2A4810F092FF33492B48B7
:10B7700011F0B8FD2849294811F0B4FD64201BF0F0
:10B7800027FC2F4811F066F92E4B18702E4811F047
:10B7900085F92E4B18702E4811F04AF92D4B187070
:10B7A0002D4811F069F92D4B18700023CDE90033B5
:10B7B00022782B492B48097803F00EF9124A1349D5
:10B7C000134811F08FFD22782749114811F08AFDA6
:10B7D00011490F4811F086FD0D4810F059FF2278ED
:10B7E0002149FFF749BB00BF0CD70020D0A10020A2
:10B7F00003D7002004D700200DD700206DE30020E0
:10B80000CDD600204CA50020D34707005A3F0700A3
:10B8100030E20020834807000890070094E20020EF
:10B8200011E30020A2D5002004A30020F9D60020B7
:10B83000F8D60020FAD60020F0D60020994807005C
:10B8400058E30020FDD600206AE30020FCD600204B
:10B8500055E30020FBD6002060E30020FED6002048
:10B8600000A30020ECA20020BC48070011F03AFD24
:10B87000A749A84811F036FDA749A64811F032FDA6
:10B88000A44810F005FFA249A44811F02BFDA249DD
:10B89000A24811F027FD64201BF09AFB2946A0481E
:10B8A000A04D10F0B6FFA04810F06BFF28609F4835
:10B8B00010F078FF9E4B18709E4810F084FF9E4B4E
:10B8C00018709E4810F090FF9D4B18709D4810F026
:10B8D0009EFF9D4B9D4A18709D498E4811F002FDB8
:10B8E000286847F0DFFD88A3D3E9002347F06EFF07
:10B8F00006468D480F4610F044FF47F0D3FD82A363
:10B90000D3E9002347F062FF32463B46CDE9000110
:10B910009049804811F0E6FC7F497E4811F0E2FC36
:10B920007C4810F0B5FE286847F0BCFD76A3D3E94B
:10B93000002347F04BFF06467B480F4610F021FFDF
:10B9400047F0B0FD70A3D3E9002347F03FFF324634
:10B95000CDE900013B467F49704811F0C3FC6E49B8
:10B960006E4811F0BFFC64201BF032FB1DE723780A
:10B97000102B3FF623AF01A252F823F0C1B9020009
:10B98000D3B90200E5B90200E9B9020003BA020026
:10B9900021BA02000DBC020025BA02007FBA0200E3
:10B9A0009BBA0200BFBA0200E3BA020095BB0200D4
:10B9B000B3BB0200D1BB0200BDB70200EFBB020067
:10B9C0000122654B2270D97A01919B7A0093FF2363
:10B9D00022E0614B0022D97A227001919B7A009378
:10B9E000FF23E6E60622ECE75B4B5C495C4800225D
:10B9F0005A72DA7A01929B7A009309780223032221
:10BA0000DAE65549574BC87A1B7808222270019014
:10BA1000897A00910A33DBB2534954480978CBE65E
:10BA20000B22CEE7524D494A2B78494939480C2B15
:10BA30001ABF0133DBB200232B7011F053FC2A78BC
:10BA40004C49344811F04EFC3349324811F04AFC5D
:10BA5000304810F01DFE2A784649304811F042FC6B
:10BA60002D492E4811F03EFC64201BF0B1FA3A4BF0
:10BA7000DA7A01929B7A00932B782278CCE7394AC4
:10BA80001378B3FA83F35B091370334AD17A0191C7
:10BA9000927A00920A330822BEE7374A3749137870
:10BAA000097899420BBF364B01331B78DBB2137018
:10BAB000294AD17A0191927A00920922ACE7314A5F
:10BAC00031491378097899420BBF304B01331B7809
:10BAD000DBB21370204AD17A0191927A00920A2245
:10BAE0009AE7104A2A49136803F5C333A0338B42FF
:10BAF00094BF13601160184BDA7A01929B7A00931D
:10BB00000B22FF2388E700BF0000000084D7974185
:10BB10009948070030E200200890070094E20020D6
:10BB20006EE3002008D7002079E300207AE30020AC
:10BB30000CD700207BE3002003D700207CE300200B
:10BB400004D700207EE300200DD70020D347070054
:10BB50005A3F0700AE480700D0A1002078A200207D
:10BB600064A20020FBD60020CCA10020C8A10020A8
:10BB7000FCD6002068480700FDD60020FFD6002034
:10BB800001D70020FED6002000D7002002D70020D9
:10BB900000703839574A13780C2B1ABF0133DBB2C7
:10BBA00006231370544AD17A0191927A00920C22A2
:10BBB00032E7524A1378092B1ABF0133DBB2002354
:10BBC00013704D4AD17A0191927A00920D2223E7A7
:10BBD0004B4A1378032B1ABF0133DBB200231370D7
:10BBE000454AD17A0191927A00920E2214E7454A91
:10BBF0001378162B1ABF0133DBB2052313703E4AAC
:10BC0000D17A0191927A0092102205E73A4A53685C
:10BC100003F51C5310335360D37A0193937A009346
:10BC200006220023F8E6384B00221A70374B00201A
:10BC30000021C3E90001364B1A78002A3FF43AABE1
:10BC4000344C2278102A0ED8DFE802F00922222292
:10BC5000222248303030303C3C3C3C0D3C0000223D
:10BC60001A70FEF7DBFE2C4A2C492D4811F03AFBE6
:10BC700022782C492A4811F035FB2B49284811F02D
:10BC800031FB274810F004FD22782649FFF7F4B86D
:10BC9000194B2648D97A0022227001919B7A2449B7
:10BCA00000930978FF2302F097FEDCE7124B21484E
:10BCB000D97A0422227001919B7A1F490093097856
:10BCC000FF23F0E70C4B1D48D97A05222270019121
:10BCD0009B7A1B4900930978FF23E4E7064B194838
:10BCE000D97A0222227001919B7A17490093097830
:10BCF000FF23D8E70CD70020D0A1002003D70020D5
:10BD000004D700200DD70020F9D60020F0D600205F
:10BD1000F8D60020FAD60020D34707005A3F070084
:10BD200030E20020CD48070008900700ECA2002078
:10BD300000A30020A4A20020B8A20020D0A20020CE
:10BD4000E8A20020BCA20020CCA2002070B598B0D0
:10BD500014460A490EA811F03FF90023CDE9143327
:10BD6000CDE91633636E012B0CD1054920680DF027
:10BD7000ECFE48B1022400F0EDBC00BF0A900700C1
:10BD800089AF0700002BF5D1B649B748B74CB84D7D
:10BD9000B84E11F0A7FAB849B34811F0A3FAB14967
:10BDA000B64811F09FFAB449B44811F09BFA6420E8
:10BDB0001BF00EF9637AB24955F82320AA4811F016
:10BDC00091FAAD49A84811F08DFA637AAC4955F85B
:10BDD0002320AA4811F086FAA749A84811F082FA50
:10BDE00064201BF0F5F8A74911A810F04FFF11A926
:10BDF0000EA811F004F911A811F0A8F80EA811F07E
:10BE000041F90E9AA049984811F06CFA9A4996485F
:10BE100011F068FA0E9A9C49984811F063FA964915
:10BE2000964811F05FFA64201BF0D2F8974911A8E8
:10BE300010F00CFF119A96498B4811F053FA11A893
:10BE400011F084F88C49884811F04CFA8F4911A8F8
:10BE500010F0FCFE119A8E49884811F043FA11A89F
:10BE600011F074F88449854811F03CFA64201BF005
:10BE7000AFF84FF47A7562688649B2FBF5F27A48FA
:10BE800011F030FA7C49784811F02CFA6268814947
:10BE9000B2FBF5F2794811F025FA7749774811F0AD
:10BEA00021FA64201BF094F87B4810F035FE7B49A2
:10BEB00056F8202005466C4811F014FA6E496A487D
:10BEC00011F010FA56F8252074496C4811F00AFA5E
:10BED00069496A4811F006FA64201BF079F8012DCF
:10BEE00040F04E836E486F4E6F4D10F09FFD6F49CE
:10BEF000002814BF32462A465B4811F0F3F95E4928
:10BF0000594811F0EFF9664810F090FD6749002894
:10BF100014BF32462A465948654E11F0E3F9564996
:10BF2000564811F0DFF964201BF052F8614810F018
:10BF3000B5FD6149054602464B4811F0D3F94E491B
:10BF4000494811F0CFF92A465B494C4811F0CAF92B
:10BF500049494A4811F0C6F964201BF039F856F8EF
:10BF600025205649404811F0BDF943493E4811F09B
:10BF7000B9F956F825205149404811F0B3F93E4926
:10BF80003E4811F0AFF964201BF022F84C4810F045
:10BF900046FD002800F0BE814A49334811F0A2F95D
:10BFA0003549314811F09EF94649344811F09AF963
:10BFB0003149324811F096F964201BF009F8082243
:10BFC00014A9414810F00AFD9DF8573005939DF8DB
:10BFD000563004939DF8553003939DF854300293E6
:10BFE0009DF8533001939DF852309DF85020374909
:10BFF00000931D489DF8513011F074F91E491A48FC
:10C0000011F070F99DF8573005939DF85630049360
:10C010009DF8553003939DF8543002939DF85330AA
:10C0200001939DF852309DF8502028490093134801
:10C030009DF8513011F056F90F49104811F052F99E
:10C0400064201AF0C5FF082214A9214810F0A2FCB0
:10C050009DF8573005939DF8563004939DF8553060
:10C0600038E000BF4849070030E2002004A3002068
:10C0700070A40020CCA300200890070094E20020C8
:10C0800057490700E8E2002065490700ACE20020BC
:10C090009D7D0700704907006DE30020804907007F
:10C0A00054E30020FD8C07003A490700904907003F
:10C0B00098A300206AE300209B490700A6490700D7
:10C0C00053E30020B14907004EE30020BB490700BD
:10C0D0004AE3002003939DF8543002939DF85330B7
:10C0E00001939DF852309DF850207D4900937D4882
:10C0F0009DF8513011F0F6F87B497A4811F0F2F8CA
:10C100009DF8573005939DF8563004939DF85530AF
:10C1100003939DF8543002939DF8533001939DF89A
:10C1200052309DF850206E49009370489DF8513070
:10C1300011F0D8F86C496D4811F0D4F864201AF069
:10C1400047FF102214A96A4810F02DFC9DF85F30BB
:10C150000D939DF85E300C939DF85D300B939DF828
:10C160005C300A939DF85B3009939DF85A30089330
:10C170009DF8593007939DF8583006939DF8573035
:10C1800005939DF8563004939DF8553003939DF820
:10C19000543002939DF8533001939DF852309DF82E
:10C1A0005020544900934F489DF8513011F09AF8AF
:10C1B0004D494C4811F096F89DF85F300D939DF86D
:10C1C0005E300C939DF85D300B939DF85C300A93C4
:10C1D0009DF85B3009939DF85A3008939DF85930CB
:10C1E00007939DF8583006939DF8573005939DF8B6
:10C1F000563004939DF8553003939DF854300293C4
:10C200009DF8533001939DF8523000939DF85020D3
:10C210009DF851303749354811F064F832493348B8
:10C22000354E364D11F05EF864201AF0D1FE3449D7
:10C230002C4811F057F82C492A4811F053F830498E
:10C240002A4811F04FF82849284811F04BF864208B
:10C250001AF0BEFE627A2B49224811F043F82249B7
:10C26000204811F03FF8627A2649204811F03AF848
:10C270001D491E4811F036F864201AF0A9FEA27A72
:10C2800021491848002A14BF32462A4611F02AF8DC
:10C290001549144811F026F8A27A1B491348002AC0
:10C2A00014BF32462A4611F01DF80F490F48174EA9
:10C2B00011F018F864201AF08BFE15481BF0A0F955
:10C2C0000025B4F88E20EBB2934205F1010580F20F
:10C2D0003D8223443046197B1BF092F9F1E700BF01
:10C2E000E349070030E200200890070094E20020B4
:10C2F0004BE300200B4A070045490700CF470700E2
:10C300006C4B07007C4B07008A4B070043D10700AA
:10C310009B4B07009049914810F0E4FF90498F48EB
:10C3200010F0E0FF8C498F4810F0DCFF8C498D48FD
:10C3300010F0D8FF64201AF04BFE14A910228A488E
:10C3400010F03AFB9DF85F300D939DF85E300C9332
:10C350009DF85D300B939DF85C300A939DF85B303F
:10C3600009939DF85A3008939DF8593007939DF82A
:10C37000583006939DF8573005939DF85630049336
:10C380009DF8553003939DF8543002939DF8533037
:10C3900001939DF852309DF85020009373499DF809
:10C3A00051306E4810F09EFF6D496C4810F09AFFB6
:10C3B0009DF85F300D939DF85E300C939DF85D30D5
:10C3C0000B939DF85C300A939DF85B3009939DF8C0
:10C3D0005A3008939DF8593007939DF858300693CA
:10C3E0009DF8573005939DF8563004939DF85530CD
:10C3F00003939DF8543002939DF8533001939DF8B8
:10C4000052309DF85020009358499DF851305548BE
:10C4100010F068FF5249534810F064FF64201AF08E
:10C42000D7FD14A91022524810F0E1FA9DF85F30B0
:10C430000D939DF85E300C939DF85D300B939DF845
:10C440005C300A939DF85B3009939DF85A3008934D
:10C450009DF8593007939DF8583006939DF8573052
:10C4600005939DF8563004939DF8553003939DF83D
:10C47000543002939DF8533001939DF852309DF84B
:10C48000502000933B499DF85130344810F02AFF6A
:10C490003349324810F026FF9DF85F300D939DF828
:10C4A0005E300C939DF85D300B939DF85C300A93E1
:10C4B0009DF85B3009939DF85A3008939DF85930E8
:10C4C00007939DF8583006939DF8573005939DF8D3
:10C4D000563004939DF8553003939DF854300293E1
:10C4E0009DF8533001939DF852309DF850200093F1
:10C4F00020499DF851301B4810F0F4FE18491948A6
:10C5000010F0F0FE64201AF063FD14A904221A480A
:10C5100010F05BFA9DF8533001939DF852309DF86E
:10C520005020009315499DF851300C4810F0DAFE68
:10C530000B490A4810F0D6FE9DF8533001939DF840
:10C54000523000939DF850209DF851300B4905481A
:10C5500010F0C8FE62E600BF534A070030E2002038
:10C560000890070094E200204CE300205C4A07009A
:10C5700050E30020A54A07004DE30020EE4A0700E3
:10C580007748002D40F09B8010F0FBF8754902467B
:10C59000754810F0A7FE7549734810F0A3FE704867
:10C5A00010F0EFF86F490246714810F09BFE6F499A
:10C5B0006F4810F097FE64201AF00AFD6D4810F0E5
:10C5C000F1F86D490246684810F08CFE67496648EC
:10C5D00010F088FE674810F0E5F8674902466448A5
:10C5E00010F080FE6149624810F07CFE64201AF071
:10C5F000EFFC624810F0E7F8614902465A4810F033
:10C6000071FE5A49584810F06DFE5C4810F0DBF896
:10C610005B490246564810F065FE5449544810F0F4
:10C6200061FE64201AF0D4FC564810F0DDF856493B
:10C6300002464D4810F056FE4C494B4810F052FE51
:10C64000504810F0D1F850490246494810F04AFECF
:10C650004649474810F046FE64201AF0B9FC4B48A2
:10C6600010F0D3F84A4902463F4810F03BFE3F49DC
:10C670003D4810F037FE454810F0C7F844490246DF
:10C680003B4810F02FFE3949394810F02BFE64204A
:10C690001AF09EFC3F4810F0BAF83F490246324873
:10C6A00010F020FE3149304810F01CFE394810F0DF
:10C6B000AEF8394902462E4810F014FEAEE510F0EF
:10C6C00060F828490246284810F00CFE2749264801
:10C6D00010F008FE224810F054F82249024624487F
:10C6E00010F000FE2149224810F0FCFD64201AF0F1
:10C6F0006FFC2A4810F0BFF8294902461A4810F08A
:10C70000F1FD1A49184810F0EDFD244810F0B3F877
:10C7100023490246164810F0E5FD1449144810F06C
:10C72000E1FD64201AF054FC1E4810F0A6F81E49E2
:10C7300002460D4810F0D6FD0C490B4810F0D2FD12
:10C74000184810F09AF818490246B4E707481AF05A
:10C7500057FF00240EA810F0F9FB204618B070BD5A
:10C7600079E30020074B070030E200200890070023
:10C7700094E200207AE30020164B07007BE30020C0
:10C780001E4B07007CE30020264B07007DE30020C2
:10C790002E4B07007EE30020434B070082E300207E
:10C7A000514B070083E300205E4B070073B5556EC5
:10C7B000012D0E4625D1144910680DF0C6F9044626
:10C7C000E0B90425CDE90005022332460F4910489F
:10C7D00010F088FD0F490E4810F084FD0223324608
:10C7E000CDE9004509490C4810F07CFD09490A488B
:10C7F00010F078FD64201AF0EBFB2546284602B0C5
:10C8000070BD0125FAE700BF89AF0700AC4B0700F8
:10C8100030E200200890070094E200202DE9FF415B
:10C82000536E012B0D46144624D1394910680DF082
:10C830008CF9044620B10224204604B0BDE8F08102
:10C8400002F058FE2946334810F018FD32493148AD
:10C8500010F002FD314A3249D37903939379029360
:10C86000537901931379009393782A48128810F032
:10C8700039FDE1E7052BDED1161F02F1100756F84E
:10C88000045F28460DF073F92B462844984205D0E2
:10C8900013F8012B303A092AF8D9CCE7BE42EED181
:10C8A0000022114620680DF0CFFA40F2D233A0F2F8
:10C8B000E6729A420546BED80022606811460DF025
:10C8C000C3FA431E0B2B0646B5D80022A0681146BA
:10C8D0000DF0BAFA431E1E2B0746ACD80022E068C2
:10C8E00011460DF0B1FA18288046A4D8002220691C
:10C8F00011460DF0A9FA3B289DD8C2B200925FFA0A
:10C9000088F3FAB2F1B2A8B202F0AEFD002493E7C8
:10C9100089AF070030E2002014640700CCD9002062
:10C92000C54B070007B503230193054B0093054B47
:10C93000054A0648194610F0CAF903B05DF804FB31
:10C9400039CF0200E04B0700E84B07000EE3002060
:10C9500007B503230193054B0093054B054A064891
:10C96000194610F0B4F903B05DF804FB49D1020098
:10C97000404C0700454C07000EE3002007B5032399
:10C980000193054B0093054B054A0648194610F0E4
:10C990009EF903B05DF804FB4DD30200A34C0700E1
:10C9A000A84C07000EE3002007B503230193054BB5
:10C9B0000093054B054A0648194610F088F903B064
:10C9C0005DF804FB59CA0200CF4C0700D44C0700A5
:10C9D0000EE3002007B503230193054B0093054B9D
:10C9E000054A0648194610F072F903B05DF804FBD9
:10C9F0001DC80200EA4C0700EE4C07000EE30020C1
:10CA000007B502230193054B0093054B054A0648E1
:10CA1000194610F05CF903B05DF804FB4DBD02004F
:10CA2000154D07001C4D07000EE3002007B502233B
:10CA30000193054B0093054B054A0648194610F033
:10CA400046F903B05DF804FBADC70200334D0700A3
:10CA50003A4D07000EE300202DE9F84F784B1B7884
:10CA6000E3B9784A7849794810F03CFC784977482E
:10CA700010F038FC7749754810F034FC73480FF01B
:10CA800007FE7349744810F02DFC7249724810F08B
:10CA900029FC64201AF09CFA022472E0556E012DE4
:10CAA000FAD1D2F800A06D4950460DF04EF8044678
:10CAB000002840F082806A4B664964481D7010F07F
:10CAC00011FC64496148DFF8C0B110F00BFC61490A
:10CAD000614810F007FC5F495F4810F003FC6420D8
