:020000022000DC
:10700000000004202DA8030055A8030057A8030082
:1070100059A803005BA803005DA80300000000005E
:107020000000000000000000000000005FA8030056
:1070300061A8030000000000000000000000000044
:10704000F196050063A8030071B50500C99C050011
:1070500063A803003193050009910500217906001A
:1070600063A80300099C05001D9C050063A803009C
:1070700063A8030063A8030063A8030063A80300D8
:10708000258606000969050063A8030063A80300BC
:1070900063A8030063A80300A96F060063A80300A8
:1070A00063A8030063A80300319C0500459C05000C
:1070B00063A8030063A803000000000000000000B4
:1070C00063A8030063A8030063A803005D7E0600B5
:1070D0002199050063A8030063A8030081B205009D
:1070E000F9B2060063A8030039DA060000000000C8
:1070F0000000000063A80300000000002D820600CD
:10710000000000000000000000000000000000007F
:10711000000000000000000000000000000000006F
:10712000000000000000000000000000000000005F
:10713000000000000000000000000000000000004F
:10714000000000000000000000000000000000003F
:10715000000000000000000000000000000000002F
:10716000000000000000000000000000000000001F
:10717000000000000000000000000000000000000F
:1071800000000000000000000000000000000000FF
:1071900000000000000000000000000000000000EF
:1071A00000000000000000000000000000000000DF
:1071B00000000000000000000000000000000000CF
:1071C00000000000000000000000000000000000BF
:1071D00000000000000000000000000000000000AF
:1071E000000000000000000000000000000000009F
:1071F000000000000000000000000000000000008F
:1072000010B5054C237833B9044B13B10448AFF3E0
:1072100000800123237010BDC0D4002000000000B6
:107220000822080008B5034B1BB103490348AFF31C
:10723000008008BD00000000C4D40020082208001F
:10724000154B002B08BF134B9D46A3F5803A002138
:107250008B460F461348144A121A10F0D5FF0F4BF5
:10726000002B00D098470E4B002B00D098470020F1
:10727000002104000D000D48002802D00C48AFF397
:10728000008010F071FF2000290010F0F7FC10F0D2
:1072900057FF00BF000008000000042000000000AD
:1072A00000000000C0D400209CC6012000000000A7
:1072B000000000000022C0E900220172704738B5CA
:1072C0000446006820B1856913F078FA2846F9E78A
:1072D000204638BD006820B143688B4201D08069E8
:1072E000F9E77047F8B504460F4616461D46FFF706
:1072F000F1FF20B10123826005704370F8BD1C20AE
:1073000013F060FA012343700023C0E90333C0E99E
:10731000053323680570C0E9017613B92060606009
:10732000ECE763689861FAE72DE9F8430468164FC3
:1073300005460E464FF000081CB363680BB9A469FC
:10734000FAE72378002BFAD0E368A268F31A9A428E
:1073500002D961780029F2D09B1A636184F8018018
:10736000E66015F0E1F863688146984715F0DCF8AF
:107370003B68A0EB0900206118442B7A3860002B91
:10738000DDD0BDE8F88300BFDCD4002008B5074B92
:1073900050B103221A700648FA22012114F021FD8F
:1073A000044B00221A7008BD0522F3E7E0D4002048
:1073B00071E400202DD60020054B064800221A70EB
:1073C000054B08221A700121FA2214F00ABD00BFF1
:1073D0002DD6002071E40020E0D4002084B004AB5E
:1073E00003E907000B4BBDF90A201A800A4B9DF9EF
:1073F0000C201A70094A0A48136801331360094BBC
:1074000000221A70084B0121FA22197004B014F0FE
:10741000E8BC00BF10D5002012D5002028D60020DF
:1074200071E400202DD60020E0D40020124B002271
:107430001A70124B5B7A022B1DD0114B90F906206B
:107440001A70104BB0F904201A800F4A0378137099
:107450000E4A417811700E4A817811701BB10D4AA5
:107460001368013313600C4B0C4804221A7001217D
:10747000FA2214F0B6BC70472DD6002004A30020D9
:1074800012D5002010D5002015D6002013D60020DC
:1074900014D6002024D60020E0D4002071E400207F
:1074A0002DE9F04F2DED028B00218BB0AE4E04463E
:1074B000242015F028F80021232015F024F8337833
:1074C00063B1AA4B1B784BB906F080FCA849A948C8
:1074D00011F031FCA748012107F03AF944B9A64957
:1074E000A64814F049FF0BB0BDEC028BBDE8F08F4D
:1074F0002378012B40F09081A14BA24F1B78A24D25
:10750000002B35D0A14B1B78002B00F09E8007F09C
:1075100055FA9F4B9F4C1A8822809A78A2701A794C
:10752000E2705A7922719A79DB796271A371012331
:10753000E371994A9948002323721268E260984ADD
:1075400012682261237563753A8852B2A2752A784F
:1075500052B2E27523836383A383924B1B681BB2F1
:10756000E38314F0D5FA40B284F8200007F000FE5F
:1075700033788D4E002B00F0BF807C4B1C78002CA4
:1075800040F0BA8089497B4811F0D5FB794907A8BA
:1075900014F080FD07AA2146204606F033FC07A818
:1075A00014F032FD32688249724811F08DFB714946
:1075B00007A814F06FFD07AA2146012006F022FC5F
:1075C00007A814F021FD7B4814F039F94AF0BAFFFE
:1075D00063A3D3E900234BF059F90B4602467649E1
:1075E000644811F071FB634907A814F053FD07AA22
:1075F0002146022006F006FC07A814F005FD6F489E
:1076000014F02EF96E4902465A4811F05DFB5949B3
:1076100007A814F03FFD07AA2146032006F0F2FB5D
:1076200007A814F0F1FC674814F02BF9092800F2C0
:10763000F180DFE810F00D00DD00DF00E100E30085
:10764000E500E700E900EB00ED0007F02FFB60E745
:107650005D4905A811F06FFB5A4814F012F95B4B15
:107660005B4953F82020434811F02EFB414907A8FD
:1076700014F010FD07AA4021032006F0C3FB07A861
:1076800014F0C2FC534814F00DF95349421D394817
:1076900011F01AFB374907A814F0FCFC07AA402197
:1076A000022006F0AFFB07A814F0AEFC3A884B4965
:1076B000304812B211F008FB2E4907A814F0EAFC7A
:1076C00007AA0021042006F09DFB07A814F09CFCEB
:1076D0002A784349274852B211F0F6FA254907A8FB
:1076E00014F0D8FC07AA4021042006F08BFB07A861
:1076F00014F08AFC06F0A0FB3A49204814F03CFE46
:1077000032683B8829781D4849B21BB2009136493E
:1077100014F046FE274814F092F808EE100A2748A5
:1077200014F09EF80446274814F0ABF8F8EE487AB7
:10773000054617EE900A4AF027FF09A3D3E9002374
:107740004BF0A4F87D2305FB0333CDE9004302464B
:107750000B460A48254914F023FEC4E6AFF3008027
:107760000000000080842E410DD5002058D8002054
:10777000DC2F070013D50020ED2F070090E3002039
:107780000ED5002010D5002012D5002034DB0020BB
:107790002CDB0020A4A1002088D80020B8E4002021
:1077A0008CD8002024D6002028D60020FA2F0700ED
:1077B00008300700D9E4002005390700DAE400208A
:1077C0005C440700DBE400201C3007007CA20020A2
:1077D00052300700DCE400207544070058300700F1
:1077E00060300700673007007430070091300700F1
:1077F0005F492EE75F492CE75F492AE75F4928E7A1
:107800005F4926E75F4924E75F4922E75F4920E7B0
:107810005F491EE75F491CE7032B62D13378002BD9
:107820003FF461AE5C4B1E78002E7FF45CAE5B4C87
:10783000657A002D41D0022D4CD04FF47A736268E6
:107840005749B2FBF3F2574811F03EFA554907A8E1
:1078500014F020FC07AA0021012006F0D3FA07A8A3
:1078600014F0D2FB504907A814F014FC002107AA19
:10787000022006F0C7FA07A814F0C6FB4B49494896
:1078800011F059FA474907A814F004FC002107AA8F
:10789000032006F0B7FA07A814F0B6FB424907A880
:1078A00014F0F8FB07AA0021042006F0ABFA07A8A1
:1078B00014F0AAFB06F0C0FA15E63D4907A814F03B
:1078C000E9FB07AA2946084606F09CFA07A814F027
:1078D0009BFBB2E7374907A814F0DCFB07AA314647
:1078E000F1E7052B6AD13378002B3FF4FCAD2A4B2E
:1078F0001E78002E7FF4F7AD284C657A25B3022D53
:107900002FD04FF47A7362682549B2FBF3F2254811
:1079100011F0DAF9234907A814F0BCFB07AA0021EB
:10792000012006F06FFA07A814F06EFB1E4907A8A5
:1079300014F0B0FB002107AA022006F063FA07A8A2
:1079400014F062FB1C499AE7194907A814F0A2FB3E
:1079500007AA2946084606F055FA07A814F054FB72
:10796000CFE7144907A814F095FB07AA3146F1E7C1
:107970002030070024300700283007002C30070093
:1079800031300700373007003D3007004330070033
:10799000493007004E30070058D8002004A30020CB
:1079A000C730070013D50020CBE30700DA3007000B
:1079B000A6300700B5300700E6300700042B40F082
:1079C0000982894B894D1B78DFF88892DFF888821D
:1079D000874F002B3DD0874B1B78002B00F0018197
:1079E00006F0ECFF844B854C1A8822809A78A270AE
:1079F0001A79E2705A7922719A79DB796271A371EE
:107A00000023E37198F800207D48D2B222727D4AAB
:107A10001268E2607C4A126822612A8852B222759A
:107A20002A8852B262752A8852B2A27599F800204B
:107A300052B2E275238363833B78A383734B1B6845
:107A40001BB2E38314F064F840B284F8200007F01E
:107A50008FFB3378DFF804A26D4C002B00F0A3807D
:107A60006C4B1E78002E40F09E806B4B21786B4A49
:107A70006B48002918BF1A466A4911F025F9684970
:107A800007A814F007FB07AA3146304606F0BAF9FA
:107A900007A814F0B9FA227802F0FF0B002A40F090
:107AA000DF803A7860495E4811F00EF95C4907A81A
:107AB00014F0F0FA07AA5946012006F0A3F907A826
:107AC00014F0A2FADAF800205849554811F0FCF8F1
:107AD000534907A814F0DEFA07AA5946022006F017
:107AE00091F907A814F090FA484B51491A684C488C
:107AF00011F0EAF84A4907A814F0CCFA07AA402185
:107B0000022006F07FF907A814F07EFA98F800200A
:107B10004849434811F0D8F8414907A814F0BAFA87
:107B200007AA5946032006F06DF907A814F06CFA6D
:107B3000334813F0EDFF40490246394811F0C4F8CC
:107B4000374907A814F0A6FA07AA4021032006F037
:107B500059F907A814F058FA2A883849304812B25F
:107B600011F0B2F82E4907A814F094FA07AA594662
:107B7000042006F047F907A814F046FA99F8002007
:107B80002F49274852B211F09FF8254907A814F051
:107B900081FA042007AA402106F034F907A814F05E
:107BA00033FA06F049F921781B4B1C4A2548002975
:107BB00018BF1A46244914F0F3FBDAF800202B888A
:107BC00099F800101F4849B200911BB21F4914F0E8
:107BD000E7FB98F800201E493B781A4814F0E0FBB8
:107BE00081E407F063F8FDE60ED5002010D50020F3
:107BF00013D6002034DB00202CDB0020A4A10020C1
:107C0000B8E4002088D800208CD8002024D600209A
:107C100015D6002058D80020D82F0700D92F0700EC
:107C200013D50020FC3007000D310700203107007C
:107C300028310700303107002D3207005830070087
:107C40006030070090E300203332070074300700F3
:107C50004232070012D5002014D6002028D600207A
:107C6000DAF800204349444811F02EF8424907A8A9
:107C700014F010FA07AA3146012006F0C3F807A84D
:107C800014F0C2F93D4B3E491A683B4811F01CF80C
:107C9000394907A814F0FEF907AA4021012006F08F
:107CA000B1F807A814F0B0F922783649324811F03B
:107CB0000BF8314907A814F0EDF907AA3146022064
:107CC00006F0A0F807A814F09FF92378013B0F2BCA
:107CD0004ED8DFE803F0082F31333537393B3D3FCD
:107CE00041434547494B2849234811F024F822498C
:107CF00007A814F0CFF907AA0021032006F082F8A4
:107D000007A814F081F9214813F002FF2049024628
:107D1000194810F0D9FF184907A814F0BBF907AAB1
:107D20000021042006F06EF807A814F06DF906F0A3
:107D300083F836E71749D7E71749D5E71749D3E757
:107D40001749D1E71749CFE71749CDE71749CBE7DF
:107D50001749C9E71749C7E71749C5E71749C3E7EF
:107D60001749C1E71749BFE71749BDE71749BBE7FF
:107D70001749B9E72031070013D5002024D6002089
:107D800028310700393107004E310700B8E40020E0
:107D90002A3207005C3107006731070073310700A2
:107DA0007F31070089310700DA300700933107007F
:107DB000A7310700BA310700CA310700D7310700E1
:107DC000E1310700F1310700FF3107000B320700F6
:107DD0001C320700B04B1B78062B40F09981AF4B4B
:107DE000AF49DD781C7993F801809F7893F905B04D
:107DF000AC48C5EB451205EB8205A8F1C808C4EBF9
:107E00004412C83F04EB82041FFA88F85A790292A0
:107E1000BFB25A466D0064000FFA88FA0FFA87F96C
:107E200014F0BEFA2DB2A0499E484B46524624B2E9
:107E300014F0B6FA23469D499A482A4614F0B0FA3F
:107E40009B4B1B78002B3DD09A4B1B78002B00F0EE
:107E5000FD8006F0B3FD984A984B118819809178FF
:107E600099701179D970517919719179D2795971C3
:107E70009A710222DA71029A1A72914A9148126832
:107E8000DA60914A12681A614FFA88F88F4A83F8CB
:107E900014807FB25F75128852B29A758C4A12783C
:107EA00052B2DA7500221D835C839A83894A126874
:107EB00012B2DA8313F02CFE804B40B283F820001C
:107EC00007F056F93378002B3FF40DAB824B1E7848
:107ED000002E7FF408AB05F079FF8048012106F001
:107EE00037FC7B4B7E491A78784B7E481B8852B210
:107EF0001BB210F0E9FE7B4907A814F0CBF807AAE3
:107F00003146304605F07EFF07A814F07DF85A464A
:107F10007549744810F0D8FE724907A814F0BAF8F1
:107F200007AA3146012005F06DFF07A814F06CF890
:107F30006E4907A814F0AEF807AA3221012005F017
:107F400061FF07A814F060F8694907A814F0A2F8C7
:107F500007AA5021012005F055FF07A814F054F896
:107F6000644907A814F096F807AA3146022005F0E4
:107F700049FF07A814F048F85F4907A814F08AF8E9
:107F800007AA3146032005F03DFF07A814F03CF88E
:107F900052465A49534810F097FE524907A814F028
:107FA00079F807AA3221022005F02CFF07A814F067
:107FB0002BF84A4651494B4810F086FE494907A81C
:107FC00014F068F807AA3221032005F01BFF07A868
:107FD00014F01AF84A4BDF7A002F3AD02A46474964
:107FE000404810F071FE3F4907A814F053F807AA63
:107FF0005021022005F006FF07A814F005F82246DC
:108000003E49384810F060FE364907A814F042F89F
:1080100007AA5021032005F0F5FE07A813F0F4FF8E
:10802000274B1868284B1C684AF0AEFA02460B46EC
:10803000CDE9022320464AF0A7FADDE90223CDE983
:1080400000013049274810F03FFE22E006F02EFEE6
:1080500001E72D49234810F06EFE224907A814F0CD
:1080600019F807AA5021022005F0CCFE07A813F04A
:10807000CBFF1C4907A814F00DF8502107AA0320D4
:1080800005F0C0FE07A813F0BFFF2049154810F007
:1080900052FE144903E400BFE0D40020E2D40020E3
:1080A0005C32070090E300207B3207009532070026
:1080B0000ED5002034DB00202CDB0020A4A1002002
:1080C00088D80020B8E400208CD8002010D50020EB
:1080D00012D5002024D6002058D80020B332070043
:1080E000C332070013D50020DA32070006900700DC
:1080F000E5320700EE320700F23207001D310700BB
:1081000004A30020F63207000B33070002330700F8
:10811000072B66D14649474814F042F9464B1B7875
:10812000002B30D0454B1B78002B57D006F046FC77
:10813000434B444C1A8822809A78A2701A79E270D4
:108140005A7922719A79DB796271A3710223E37102
:108150003D4A3E48002323721268E2603C4A12689E
:10816000226123756375A375E37523836383A383FA
:10817000384B1B681BB2E38313F0CAFC40B284F88F
:10818000200006F0F5FF3378002B3FF4ACA9324B0A
:108190001C78002C7FF4A7A905F018FE2F480121B8
:1081A00006F0D6FA2E492F4810F0C5FD2D4907A834
:1081B00013F070FF07AA2146204605F023FE07A80A
:1081C00013F022FF204B1868214B1D684AF0DCF9A0
:1081D00002460B46CDE9022328462CE706F066FD51
:1081E000A6E7082B7FF47FA91F49124814F0D8F89E
:1081F0001E4B00221A703378002B3FF474A9164BE3
:108200001B78002B7FF46FA905F0E0FD18480121D1
:1082100006F09EFA1749134810F08DFD114907A882
:1082200013F038FF002107AA0846FFF73EBB00BF46
:108230000E33070090E300200ED5002034DB002031
:108240002CDB0020A4A1002088D80020B8E4002066
:108250008CD8002024D6002058D80020B332070044
:108260002D33070013D50020423307002DD6002000
:10827000DC2F07005933070010B5044607F026FB32
:10828000204610BD08B5064B1B783BB114F047F9EA
:10829000BDE8084001460348FFF746B808BD00BFE7
:1082A00059D8002018D600201F4B07B501221F48BF
:1082B0001A7013F042FB18B11D48002113F007FBA0
:1082C0001C4813F08BFC1C491C4813F099FB1C49FB
:1082D0001A4813F0A5FB1B49184813F099FB1A49DB
:1082E000164813F0A5FB1949144813F0A9FB002107
:1082F000174813F0E3FB0021164813F04DFC32231E
:10830000012200930D480A23114613F038FB124B4B
:10831000DB7A33B10121222003B05DF804EB14F0C5
:10832000F2B803B05DF804FBA1A10020E4E4002052
:10833000CEE40020CDE4002031890200A9E4002031
:10834000498A02008D7302002D740200FD8A02002A
:10835000B1E40020CBE4002004A3002010B50B4CB6
:1083600000212046FEF7A6FF2046094C094A0A498B
:108370000FF0CEFEFF21204607F09CFA2046054A6A
:108380000649BDE810400FF0C3BE00BF18D600205C
:1083900004D5002090A10020BF7202007982020063
:1083A0002DE9FF41994C9A4D637A9A4F0126022B91
:1083B0002E7040F0A381984807F08FFAE37A002BE3
:1083C00000F06081954A3B7811789046002940F092
:1083D000F1805BB1924B1B7843B905F0F7FC9148F3
:1083E000314606F0B5F9904805F092FC04F034FFF0
:1083F000002856D08D4B1B78F3B98D4A8D498E4895
:1084000013F0CEFF8D498C4813F0CAFF8C498A487F
:1084100013F0C6FF884813F099F98849894813F08A
:10842000BFFF8749874813F0BBFF64201DF02EFE75
:108430008548012113F0BFFBB4F88E0004F0F8FC6E
:1084400060B3754807F04CFA0390734807F04AFA96
:1084500001230246CDE9003303997C4813F0AAFAC0
:108460000446D8B9724A7349734813F099FF7849A2
:10847000714813F095FF72496F4813F091FF6E48F1
:1084800013F064F972496F4813F08AFF6C496D4824
:1084900013F086FF64201DF0F9FD2C7004B0BDE8D8
:1084A000F0816C4A117809BB6B4B1B7803F0FF0617
:1084B000E3B90123584888F8003007F00EFA674BFB
:1084C00067481E8041F288326368B3FBF2F3654A65
:1084D0001380654B1E70654B40F6C4121E7003215D
:1084E000334604B0BDE8F04113F07BBC00231370A9
:1084F0003B784BB14A4B1B7833B95D495D4810F06E
:108500001AFC5C4805F004FC002300931A46194647
:108510004148B7EE000A07F003F9444B1B78F3B962
:10852000554A4449444813F03BFF4449424813F03C
:1085300037FF4349404813F033FF3F4813F006F933
:108540003E49404813F02CFF3D493E4813F028FFB8
:1085500064201DF09BFD3C48012113F02CFBB4F876
:108560008E0004F065FC002898D02B4807F0B8F97D
:108570000390294807F0B6F901240246CDE90044EA
:1085800003993248234613F015FA002885D13A4A58
:1085900028702849284813F003FF2D49264813F076
:1085A000FFFE2749244813F0FBFE234813F0CEF8C2
:1085B00027491DE05BB11A4B1B7843B905F006FC57
:1085C0001848314606F0C4F82C4805F0A1FB184ABB
:1085D0001849194813F0E4FE2949174813F0E0FE42
:1085E0001749154813F0DCFE134813F0AFF824497F
:1085F000144813F0D5FE1249124813F0D1FE64203E
:1086000004B0BDE8F0411DF041BD00BF04A300204F
:108610002DD600200DD5002004D500200CD500203B
:1086200058D80020693307007A3307002CD6002081
:10863000953307009933070090E300209F3307002C
:10864000587F0700F4E30020CCE40020A9E40020D8
:10865000AC33070002D50020E1D4002078D80020F8
:1086600071E400207AD80020A8D80020A9D80020E2
:10867000C833070013D50020DE330700E3330700BB
:10868000F73307003B785BB18D4B1B7843B905F09E
:108690009DFB8C48314606F05BF88B4805F038FBB3
:1086A000002300931A4619468848B7EE000A07F0DF
:1086B00037F8874B1B78002B7FF4BEAE012185482D
:1086C00013F079FA844A8549854813F069FE854993
:1086D000834813F065FE8449814813F061FE8048A9
:1086E00013F034F87F49814813F05AFE7E497F48E1
:1086F00013F056FE64201DF0C9FC9DE63B7853B193
:108700006F4B1F783FB905F061FB7948314606F0A1
:108710001FF8784B1F706D4807F0DFF8764813F0AC
:1087200059FA002800F09F80744813F0DDF9002802
:1087300000F086800121242013F0E5FE664A674997
:10874000674813F02DFE6E49654813F029FE66490F
:10875000634813F025FE624812F0F8FF6849634849
:1087600013F01EFE6049614813F01AFE64201DF0EC
:108770008DFC644B1B78002B4CD0634805F0C8FA85
:10878000534B1B78F3B9544A5449554813F008FE2B
:108790005449534813F004FE5349514813F000FE66
:1087A0004F4812F0D3FF4F49504813F0F9FD4E499E
:1087B0004E4813F0F5FD64201DF068FC454801218A
:1087C00013F0F9F9E37A63B304F046FD20B94F4A98
:1087D000002313604E4A13603C4807F081F880B2D2
:1087E00004F026FB00283FF459AE384807F078F82B
:1087F0000390364807F076F80123CDE9003303995A
:108800000246444813F0D6F800287FF447AE324AB7
:108810002870BEE6374B1B780BB13F48AEE73F48A8
:10882000ACE7B4F88E0004F003FB00283FF436AE4A
:108830000123CDE900333A4A94F88E100223E0E791
:10884000254A26492870264813F0AAFD35492448B0
:1088500013F0A6FD2449224813F0A2FD204812F08F
:1088600075FF3049C4E60121232013F04CFE1A4A5B
:108870001A491B4813F094FD2B49194813F090FD39
:108880001949174813F08CFD154812F05FFF26496F
:10889000164813F085FD1449144813F081FD642037
:1088A0001DF0F4FB1D4805F033FA01231C4A94F82F
:1088B0008E101E4813F029F801232B70EEE500BF3F
:1088C00058D80020693307000B34070004D5002076
:1088D0002CD60020CCE40020953307009933070004
:1088E00090E300209F330700587F0700F4E3002047
:1088F000DC2F070002D50020CDE40020B4E40020E6
:1089000017340700E1D40020233407008CD800205E
:1089100088D80020A9E4002034340700433407003D
:1089200010A30020513407006F340700CEE400206C
:1089300070B5344BB0F90A201A80334B90F90C20F3
:108940001A70324B42781A70314A1368013313603F
:10895000304B00221A7003780446E3B92E4A2F499F
:108960002F4813F01DFD2F492D4813F019FD2E49F6
:108970002B4813F015FD2A4812F0E8FE29492B4830
:1089800013F00EFD2849294813F00AFDBDE8704098
:1089900064201DF07BBB264A527A022A28D1022B82
:1089A0000FD1244D027A4168234806232B700FF023
:1089B0001DFC2B46FA220121BDE870401F4813F030
:1089C00010BA154A1549164813F0EAFC22781C49DA
:1089D000134813F0E5FC1449114813F0E1FC10486A
:1089E00012F0B4FE22781649104813F0D9FCC9E7FA
:1089F000144B1B7823B90F4B01211970FA22DBE7C6
:108A000070BD00BF10D5002012D500200FD500206A
:108A100028D600202DD600207F3407009933070088
:108A200090E3002085340700587F0700F4E300201E
:108A300004A30020E0D40020E2D4002071E4002050
:108A40008D340700C8A1002070B50446002839D035
:108A50001D4B1E4A1E491F4800251D7013F0A0FC27
:108A60002A461D491B4813F09BFC1C49194813F06A
:108A700097FC184812F06AFE2A461749184813F066
:108A80008FFC1649164813F08BFC64201DF0FEFA8B
:108A9000144B1C60144B5B7A022B09D1134B072239
:108AA0001A70BDE870401248FA22012113F099B9FA
:108AB000104B1B7833B9104A1368013313600B4B0A
:108AC0000222EDE770BD00BF2DD6002095330700D0
:108AD0009933070090E300209C340700587F07007B
:108AE000F4E3002030D6002004A30020E0D40020CE
:108AF00071E40020C8A1002024D6002030B5504ADF
:108B00005049514D99B00446504813F049FC224653
:108B10004F494E4813F044FC4E494C4813F040FC7A
:108B20004A4812F013FE224649494B4813F038FCDC
:108B30004849494813F034FC64201DF0A7FA29780D
:108B400000297AD101231A2208A82B7007910FF06F
:108B50005BFB05A82BF06CFE0598404C00F5E0404F
:108B60000FA96E302BF0D8FE149B3D4903F26C73B5
:108B70000393129B0293139B013301930F9B00936A
:108B800007A8DDE9103210F09FF82D4A2D492F4833
:108B900013F006FC07AA33492C4813F001FC2D49B9
:108BA0002A4813F0FDFB294812F0D0FD07AA2D49F1
:108BB000294813F0F5FB2749274813F0F1FB6420FF
:108BC0001DF064FA149B03F26C732380139B013332
:108BD000A370129B2371119B6371109BA3710F9B58
:108BE000E371214B1B7843B3154A1649174813F01C
:108BF000D7FB1E49154813F0D3FB1649134813F051
:108C0000CFFB124812F0A2FD1849134813F0C8FB1D
:108C10001049114813F0C4FB64201DF037FA0223F9
:108C20002B70E3790193A379009363792279A1787A
:108C3000208805F0C1FF05F0C1FE19B030BD00BFAE
:108C4000AB340700993307002CD6002090E30020B6
:108C5000B0340700587F0700F4E300202CDB00202D
:108C6000C73407002E53070034DB0020E934070027
:108C7000F0B54FF080432DED028BD3F83834032B41
:108C800085B020D1364A3749374813F089FB374938
:108C9000354813F085FB3649334813F081FB3248E1
:108CA00012F054FD3149334813F07AFB3049314812
:108CB00013F076FB64201DF0E9F90024204605B08E
:108CC000BDEC028BF0BD2C482B4D13F055F80A2457
:108CD000B0EE408A284613F04FF8013C38EE008A87
:108CE000F8D1B2EE067AC8EE077A1D4A1D491E4831
:108CF0009FED228ADFED226A27EE888ADFED217A56
:108D000068EE277A87EEA67AFCEEC77ACDED037A75
:108D10009DF80C4013F044FB18EE100A49F034FCA7
:108D200006460F462246CDE9006717490E4813F064
:108D300037FB0F490C4813F033FB0B4812F006FDCC
:108D40002246CDE9006710490A4813F029FB08497B
:108D5000084813F025FB64201DF098F9AEE700BF2A
:108D6000238307009933070090E30020FF340700B6
:108D7000587F0700F4E300206DE4002000007A44EF
:108D80000040834500007F430635070007B52C4AA5
:108D90002C492D4813F004FB2C492B4813F000FB01
:108DA0002B49294813F0FCFA274812F0CFFC274939
:108DB000284813F0F5FA2649264813F0F1FA642002
:108DC0001DF064F9244A254801231370244A1370C6
:108DD00012F0B3FD18B12348002112F078FD2248AB
:108DE00012F0FCFE2149224812F00AFE21492048D7
:108DF00012F016FE20491E4812F00AFE1F491C48B8
:108E000012F016FE1E491A4812F01AFE00211D48E3
:108E100012F054FE02211C4812F0BEFE3223012241
:108E2000009311460A23124812F0A9FD174BD97A74
:108E300001B10121222003B05DF804EB13F063BB04
:108E4000953307009933070090E300202035070091
:108E5000587F0700F4E30020C8A10020E4E40020CC
:108E6000A1A10020CEE40020CDE400203189020041
:108E7000A9E40020498A02008D7302002D740200CB
:108E8000FD8A0200B1E40020CBE4002004A300200E
:108E900008B52B4A2B492C4813F082FA2B492A4853
:108EA00013F07EFA2A49284813F07AFA264812F07D
:108EB0004DFC2649274813F073FA2549254813F03D
:108EC0006FFA64201DF0E2F8234B2448002119704A
:108ED00012F0FDFC224812F034FDD0B9184A1949AD
:108EE000194813F05DFA1F49174813F059FA184949
:108EF000154813F055FA144812F028FC1949154882
:108F000013F04EFA1249134813F04AFA64201DF088
:108F1000BDF81549114812F021FD14490F4812F00F
:108F200025FD4FF6FD710D4812F0D1FC104BD97A9A
:108F300001B10121BDE80840222013F0E4BA00BFCE
:108F4000953307009933070090E30020353507007B
:108F5000587F0700F4E30020A1A10020CEE4002008
:108F6000E4E4002044350700DD730200B973020019
:108F700004A300202DE9F04F012187B0222013F037
:108F8000ABFA0121232013F0A7FA0121242013F0CA
:108F9000A3FAB248B24E13F027F904F043FE307042
:108FA00068B1B049B0480FF0C6FEAF48012105F0E6
:108FB000CFFBAE4804F0ACFEAD4804F0A9FE0021A2
:108FC000222013F0A0FA0223AA4806224FF4E1312E
:108FD00012F0C2FB4FF08043D3F83834032B40F03B
:108FE000468241F288301DF051F80125002302220B
:108FF00003ACA1499C4800950FF066FE9A492046B3
:1090000013F048F821469D4812F094FE204612F0D5
:10901000FBFF33784BB104F0D9FE924992480FF030
:109020008AFE9148294605F093FB0121232013F085
:109030006AFA0021232013F066FA0021242013F09D
:1090400062FA3378D3B98E4A8E498A4813F0A8F968
:109050008D49884813F0A4F98C49864813F0A0F98B
:10906000844812F073FB8849894813F099F98749BD
:10907000874813F095F964201DF008F802F0D8FF36
:10908000D0B97F4A7F497B4813F08AF981497948F2
:1090900013F086F97D49774813F082F9754812F08C
:1090A00055FB7C497A4813F07BF97849784813F0EE
:1090B00077F964201CF0EAFF02F04CFFD0B9704A47
:1090C00070496C4813F06CF973496A4813F068F9F9
:1090D0006E49684813F064F9664812F037FB6E4930
:1090E0006B4813F05DF96949694813F059F9642038
:1090F0001CF0CCFF02F044FFD0B9614A61495D48E1
:1091000013F04EF965495B4813F04AF95F49594835
:1091100013F046F9574812F019FB60495C4813F008
:109120003FF95A495A4813F03BF964201CF0AEFF4E
:1091300002F03CFFD0B9524A52494E4813F030F980
:1091400057494C4813F02CF950494A4813F028F974
:10915000484812F0FBFA52494D4813F021F94B49A7
:109160004B4813F01DF964201CF090FF03F032FC13
:10917000D0B9434A43493F4813F012F949493D48A1
:1091800013F00EF941493B4813F00AF9394812F03F
:10919000DDFA44493E4813F003F93C493C4813F0DA
:1091A000FFF864201CF072FF00F0F0FDD0B9344AE3
:1091B0003449304813F0F4F83B492E4813F0F0F8E6
:1091C00032492C4813F0ECF82A4812F0BFFA36491D
:1091D0002F4813F0E5F82D492D4813F0E1F86420ED
:1091E0001CF054FF314D002000F0ACFC6B7A244A97
:1091F00024492048022B40F0628113F0D1F82C4919
:109200001C4813F0CDF821491A4813F0C9F8194841
:1092100012F09CFA26491E4813F0C2F81B491C485C
:1092200013F0BEF864201CF031FF012003F0AAFE09
:1092300005F0EEFB1F4B124A12491870002800F08F
:109240005C810C4813F0ACF81B490A4813F0A8F8ED
:109250000E49084813F0A4F830E000BFECE4002009
:109260000DD50020DC2F070013D500206635070040
:109270007335070090E300207F35070018E40020D5
:10928000953307009933070095350700587F07008D
:10929000F4E30020A3350700CA350700F8350700BE
:1092A00022360700503607007536070004A3002059
:1092B0009136070034DB0020BE3607009C4812F0D0
:1092C00045FA9C499C4813F06BF89C499A4813F066
:1092D00067F864201CF0DAFE05F070FB94E80300E8
:1092E0002BF085FA02F08EFE05F062FD944F387087
:1092F000002840F05381934A93498D4813F050F869
:1093000092498B4813F04CF88C49894813F048F87F
:10931000874812F01BFA8D49874813F041F88749B6
:10932000854813F03DF864201CF0B0FE6B7A012BE9
:1093300000F07F81022B00F085813BB384497C489B
:1093400013F01AF833780BB3824983480FF0F3FC1B
:109350008149204612F09EFE00212246084604F074
:1093600051FD204612F050FE7C497B480FF0E3FC93
:109370007949204612F08EFE22460021012004F099
:1093800041FD204612F040FE04F056FD744804F002
:10939000BFFC744812F0A8FB10B9734804F0B8FC85
:1093A000FFF7F4FC4FF47A7370496A686A48B2FBBD
:1093B000F3F20FF089FC684804F0AAFC6C4A6D488F
:1093C0000123002112F003FD6A6822B100236948DD
:1093D000194612F006FD684A66480023012112F082
:1093E000F6FC0023654A6348022112F0F0FCAB7AD8
:1093F00033B1604800234EF66022022112F0F1FCE6
:1094000001235F4A5B48032112F0E1FC5D4B1B78AE
:109410005BB1544812F068FB38B932230122009343
:1094200059480A23114612F0AAFA464A46494048CA
:1094300012F0B6FF55493E4812F0B2FF3F493C4892
:1094400012F0AEFF3A4812F081F950493A4812F052
:10945000A7FF3A49384812F0A3FF64201CF016FE1B
:1094600001214B4813F02FF807B0BDE8F08F13F03F
:1094700056F8DFF8BCA007464FF0000B41F28738E2
:109480004FF00009504612F04CF900287FF4ADADC2
:1094900013F045F8C41B6BEB4B05A04579EB0503B6
:1094A000FFF6A3AD64201CF0F1FD232013F030F88B
:1094B000B0FA80F14909232013F025F8E2E7EF7AAA
:1094C000002F7FF49AAE12F06BFF3249184812F069
:1094D00067FF1A49164812F063FF154812F036F973
:1094E0002C49154812F05CFF1449134812F058FF3C
:1094F00064201CF0CBFD384698E60D4812F050FF72
:1095000025490B4812F04CFF0C49094812F048FF5E
:10951000074812F01BF92049074812F041FF07499C
:10952000054812F03DFF64201CF0B0FDDCE600BFF2
:1095300090E30020BE360700F4E30020587F0700C8
:109540000ED500209533070099330700C836070071
:109550000C3707002D37070013D500203F370700D1
:10956000A6300700B4E400204F370700C7300700DB
:10957000A183020071E40020A17402008DDE0200CC
:1095800031D70200A1A10020A9E400205D37070027
:1095900009E40020A5360700BB36070005F0C0FC33
:1095A0003870D0B92E4A2F492F4812F0F9FE2F49B2
:1095B0002D4812F0F5FE2E492B4812F0F1FE2A48F4
:1095C00012F0C4F829492B4812F0EAFE284929482C
:1095D00012F0E6FE64201CF059FD214A2149224880
:1095E000DFF8AC90DFF8AC8012F0DAFE3A7822496E
:1095F0001D48002A14BF4A46424612F0D1FE1C49BB
:10960000194812F0CDFE184812F0A0F83A781A491D
:109610001848002A14BF4A46424612F0C1FE1449B7
:10962000144812F0BDFE64201CF030FD02F0D4FCA2
:109630007CE6FFF72DFC114804F06AFB104804F0AB
:1096400067FBAFE60F4804F063FB0F4812F04CFADB
:1096500010B90E4804F05CFBFEF726FEA2E600BF40
:10966000953307009933070090E30020D9360700AF
:10967000587F0700F4E30020EF3607006B30070047
:109680005D370700B5300700B4E400204F3707000E
:109690005B3507006035070070470000024818225C
:1096A000002106F02DB900BF34D600202DE9F04F7F
:1096B000994C9A4DDFF87CA2DFF87CB289B0204645
:1096C00006F072FA204610EE107A06F08CFA204668
:1096D0008DED050A06F0A6FA914A92498DED060A2B
:1096E000284612F05DFE204606F05EFA204610EE97
:1096F000108A06F059FA384610EE106A48F044FF16
:10970000894B002248F098FF49F046FA07B24046DC
:1097100048F03AFF804630468946029748F034FFC9
:10972000814B824E002248F087FF42464B46CDE9EE
:1097300000015146284612F033FE3146284612F009
:109740002FFE284612F002F8204606F02DFA204699
:1097500010EE108A06F028FA40468DED070A48F010
:1097600013FF079B029780461846894648F00CFF76
:109770006D4B002248F060FF4B464246CDE90001A8
:109780005146584612F00CFE3146584612F008FE7B
:1097900064201CF07BFC624A6249284612F000FEFD
:1097A000204606F020FA204610EE107A06F01BFA4A
:1097B000059810EE10AA48F0E7FE00225A4B48F038
:1097C0003BFF49F0E9F903B23846059348F0DCFE67
:1097D000059B029380465046894648F0D5FE524B81
:1097E000534FDFF858A1002248F026FF42464B466F
:1097F000CDE900013946284612F0D2FD314628460F
:1098000012F0CEFD284611F0A1FF204606F0EBF93C
:10981000204610EE108A06F0E6F940468DED070A64
:1098200048F0B2FE059B0293079B80461846894686
:1098300048F0AAFE3C4B002248F0FEFE4B46424652
:10984000CDE900013946584612F0AAFD3146584686
:1098500012F0A6FD64201CF019FC314A314928465B
:1098600012F09EFD204606F0DDF9204610EE108A2B
:1098700006F0D8F906988DED050A48F085FE2A4BCA
:10988000002248F0D9FE49F087F907B2404648F077
:109890007BFE804605980297894648F075FE224B6C
:1098A000002248F0C9FE42464B46CDE90001514630
:1098B000284612F075FD3146284612F071FD284603
:1098C00011F044FF204606F0ADF9204610EE105A84
:1098D00006F0A8F9284610EE108A48F055FE044616
:1098E00040460D46029748F04FFE0F4B002248F0CD
:1098F000A3FE2246CDE900012B465146584612F000
:109900004FFD3146584612F04BFD642009B0BDE8CA
:10991000F04F1CF0BBBB00BF34D6002090E300200A
:109920006B3707009933070000408F40587F0700CE
:109930007E3707006F370700F4E300208D370700FC
:1099400007B573480DF10701312206F075F99DF84E
:10995000073059061BD56F4A6F49704812F020FD39
:109960009DF807206E496D4812F01AFD6D496B484D
:1099700012F016FD694811F0E9FE69499DF80720CB
:10998000694812F00DFD6749674812F009FD64202F
:109990001CF07CFB9DF807309A0617D55D4A5E499E
:1099A0005E4812F0FDFC61495C4812F0F9FC5D492B
:1099B0005A4812F0F5FC594811F0C8FE5B495A4864
:1099C00012F0EEFC5749584812F0EAFC64201CF0F3
:1099D0005DFB9DF80730DB0617D54E4A4E494F48D0
:1099E00012F0DEFC52494D4812F0DAFC4D494B486A
:1099F00012F0D6FC494811F0A9FE4D494A4812F030
:109A0000CFFC4849484812F0CBFC64201CF03EFBD8
:109A10009DF80730180717D53E4A3F493F4812F0D6
:109A2000BFFC44493D4812F0BBFC3E493B4812F0A4
:109A3000B7FC3A4811F08AFE3E493B4812F0B0FCB0
:109A40003849394812F0ACFC64201CF01FFB9DF82B
:109A50000730590717D52F4A2F49304812F0A0FC7C
:109A600035492E4812F09CFC2E492C4812F098FCE7
:109A70002A4811F06BFE30492B4812F091FC29491D
:109A8000294812F08DFC64201CF000FB9DF8073083
:109A90009A0717D51F4A2049204812F081FC274910
:109AA0001E4812F07DFC1F491C4812F079FC1B482F
:109AB00011F04CFE21491C4812F072FC19491A4859
:109AC00012F06EFC64201CF0E1FA9DF80730DB0711
:109AD00017D5104A1049114812F062FC18490F4876
:109AE00012F05EFC0F490D4812F05AFC0B4811F0C1
:109AF0002DFE13490C4812F053FC0A490A4812F093
:109B00004FFC64201CF0C2FA03B05DF804FB00BFF8
:109B100034D600206B3707009933070090E300200C
:109B20009C370700587F0700F4E30020B337070095
:109B3000BA370700C0370700C7370700CD3707001F
:109B4000D437070073B500210446112012F0C4FC7D
:109B50005D4812F049FB5D4B6CB300229A800A22EB
:109B6000DA804FF481721A8140F201125A8157480B
:109B700006F0F2F8054620B3554A5649564812F009
:109B80000FFC5649544812F00BFC5549524812F04C
:109B900007FC514811F0DAFD5049524812F000FC20
:109BA0004F49504812F0FCFB64201CF06FFA00246F
:109BB000204602B070BD02229C80DC801A815C814C
:109BC000D5E7002C38D02A22302140488DF80720D4
:109BD000012605F0DBFE082232213C488DF80720E3
:109BE00005F0D4FE3246332138488DF8076005F081
:109BF000CDFE24220DF10701344806F01DF89DF832
:109C00000720324822F00C0242F0080224218DF88D
:109C1000072005F0BBFE602222212C488DF807208A
:109C200005F0B4FE2A462521284805F0AFFE274856
:109C30003246212105F0AAFE002520220DF1070160
:109C400022488DF8075005F0F7FF9DF807201F48C0
:109C500042F0080220218DF8072005F097FE6420CD
:109C60001CF014FA1E220DF1070118488DF8075058
:109C700005F0E2FF9DF80720144842F090021E21F3
:109C80008DF8072005F082FE64201CF0FFF94CB12E
:109C9000FFF756FE14490422112011F015FDFFF7BD
:109CA00005FD85E720220DF10701084805F0C4FFF6
:109CB0009DF80720054802F0400220218DF807207A
:109CC000012405F063FE73E7ECE4002034D60020A5
:109CD0006B3707009933070090E30020DA3707005D
:109CE000587F0700F4E300209996020010B5002386
:109CF000012210F0010F01F1FF311CBF02FA01F443
:109D0000234340080029F4D1184610BD0D4810B572
:109D1000002148F205040B029BB2082213F4004F05
:109D200002F1FF324FEA430318BF634012F0FF0213
:109D30009BB2F3D10131B1F5807F20F8023BEAD12B
:109D400010BD00BF48D600202DE9F0410025DFF806
:109D5000388006460F462C46BD420DDA705D08215C
:109D6000FFF7C4FF80EA1423DBB2013538F8133063
:109D700083EA0424A4B2EFE710212046FFF7B6FFE0
:109D800080B2BDE8F08100BF48D6002008B50221AE
:109D9000092012F0A1FB06490322092011F094FCCE
:109DA0000449054801236422FDF79CFA012008BDFF
:109DB00099A3020039A4020018D600202DE9F04F23
:109DC000C74D91B012F0ABFBD5E900230024811AF6
:109DD00064EB030300910193DDE9002340F6B83002
:109DE0000021904271EB0303A346A246A146A04680
:109DF0002746264677DB12F092FBD5E90023811A2D
:109E000063EB430302910393DDE90223B2F5C87FBC
:109E100073F1000373DA12F082FBD5E90023811A93
:109E200063EB430304910593DDE90434B3F5C87F84
:109E300074F1000380F2858012F071FBD5E90023F4
:109E4000811A63EB430306910793DDE90634B3F50A
:109E5000167F74F1000380F2998012F060FBD5E95F
:109E60000023811A63EB430308910993DDE9083469
:109E7000B3F5487F74F1000380F2AE8012F04FFB1F
:109E8000D5E90023811A63EB43030A910B93DDE9C3
:109E90000A34B3F5966F74F1000380F2C08012F0BB
:109EA0003EFBD5E90023811A63EB43030C910D932C
:109EB000DDE90C34B3F5AF6F74F1000380F2D280AA
:109EC00012F02DFBD5E90023811A63EB43030E91B9
:109ED0000F93DDE90E34B3F5C86F74F1000380F21F
:109EE000E280082474E0092012F012FB002882D1DD
:109EF0007C4B1B78002B3FF47EAF022468E0794B4B
:109F00001B78012B87D1092012F002FB012882D196
:109F10000023C82C10D00920009312F0F9FA009BFE
:109F2000012804BF0133DBB2012001340093E4B205
:109F30001CF0ACF8009BECE7C62B7FF66CAF00245E
:109F400046E0684B1B78022B7FF476AF092012F0B5
:109F5000DFFA01287FF470AF0024BBF1C80F10D0E6
:109F6000092012F0D5FA012808BF01344FF0010092
:109F70000BF1010B08BFE4B25FFA8BFB1CF086F813
:109F8000EBE7C62C7FF658AF012421E0554B1B7838
:109F9000032BDCB27FF461AF4FF0000BBAF1C80FB6
:109FA00012D0092012F0B4FA012808BF0BF1010BFE
:109FB0004FF001000AF1010A08BF5FFA8BFB5FFA5C
:109FC0008AFA1CF063F8E9E7BBF1C60F7FF645AFEC
:109FD000204611B0BDE8F08F424B1B78042BDCB259
:109FE0007FF44CAF4FF0000AB9F1C80F12D009202E
:109FF00012F08EFA012808BF0AF1010A4FF00100A1
:10A0000009F1010908BF5FFA8AFA5FFA89F91CF0C1
:10A010003DF8E9E7BAF1C60F7FF630AFD8E7314B2C
:10A020001B78052BDCB27FF43AAF4FF00009B8F192
:10A03000C80F12D0092012F06BFA012808BF09F1ED
:10A0400001094FF0010008F1010808BF5FFA89F922
:10A050005FFA88F81CF01AF8E9E7B9F1C60F7FF645
:10A060001EAFB5E71F4B1B78062BDCB27FF428AF81
:10A070004FF00008C82F11D0092012F049FA01282A
:10A0800008BF08F101084FF0010007F1010708BF00
:10A090005FFA88F8FFB21BF0F9FFEBE7B8F1C60FE3
:10A0A0007FF60EAF94E70F4B1B78072BDCB27FF4E3
:10A0B00018AF0025C82E0FD0092012F029FA012868
:10A0C00008BF01354FF0010006F1010608BFEDB2EF
:10A0D000F6B21BF0DBFFEDE7C62D7FF602AF77E7A8
:10A0E00050D8002059D8002073B5894D894C6A7A20
:10A0F000637A9A4231D003F069FE0021864804F069
:10A1000027FB6B6863606B7A844863726B89638139
:10A1100003F0FEFD824803F0FBFD03F08DFE02F02C
:10A1200057F840F6B8301BF0B1FF637A7D48012B39
:10A130004FF000014FF0320640F09A8011F0C7FB5B
:10A140000022794800960A23114611F018FC77483E
:10A1500011F0F7FB764811F00DFEEA7AE37A9A42A5
:10A1600006D06B7A022B0CBF0120002002F00AFF00
:10A170006A6863689A4203D16A8963899A4213D0F4
:10A1800003F024FE654803F0C3FD654803F0C0FDFD
:10A1900003F052FE6B6863606B89638102F018F80C
:10A1A00040F6B8301BF072FF624811F013FD002832
:10A1B0006BD0614811F09AFC604B1978884205D049
:10A1C00000395D4818BF012111F092FC5C4811F084
:10A1D0009FFC5C4B1978884202D0594811F09AFCD8
:10A1E000594811F0A7FC594B1978884202D05648BB
:10A1F00011F0A2FC564D57482E7811F0ADFC864266
:10A200000BD02978534811F0B3FC3223012200937C
:10A2100045480A23114611F0B2FB03F0D7FD637ADB
:10A22000012B6FD0022B6FD013B94B4803F070FD98
:10A230004FF47A7362684949B2FBF3F248480EF072
:10A2400043FD474803F064FD626822B1002345489E
:10A25000194611F0C6FDA37A002B57D041480023C0
:10A260004EF66022022102B0BDE8704011F0B9BD87
:10A2700011F02DFB012200960A2311462A4811F005
:10A280007EFB2C4811F0AAFC64E7374D374829685B
:10A2900011F0D7FA354811F0D2FA2968884202D075
:10A2A000324811F0CEFA324811F0DAFA314B19780F
:10A2B000884202D02E4811F0D5FA2F4D2F482E7823
:10A2C00011F0DFFA864203D029782C4811F0DBFA2E
:10A2D0002B4811F0E7FA2B4B1978884202D0284816
:10A2E00011F0E2FA284811F0F0FA284B1978884268
:10A2F00002D0254811F0FAFA4FF6FD71094811F025
:10A30000E6FA8AE7224891E722488FE702B070BD5B
:10A31000D4A1002004A30020FB3707000238070067
:10A3200012380700CEE40020A9E40020E4E4002075
:10A3300008E40020CDE40020B5E400205BD8002034
:10A34000B8E400205DD80020C0E400205ED80020E2
:10A350005CD80020CAE40020A6300700C730070000
:10A3600013D5002071E4002068D80020D9E4002033
:10A37000DAE400206CD8002063D80020DBE4002061
:10A38000DCE4002064D80020DEE400206DD800204A
:10A390006B300700B5300700F8B512F0C0F81C4D5F
:10A3A0001C4B1D4C0021C3E9000112F0B8F8D5E99F
:10A3B0000032C61A62EB4207C92E77F1000308DBB0
:10A3C00012F0ADF800236B60237828600133DBB214
:10A3D0002370124A1249134811F0E2FF2278124901
:10A3E000104811F0DDFF11490E4811F0D9FF0D485A
:10A3F00011F0ACF922780C490D4811F0D1FF0B494E
:10A400000B4811F0CDFFBDE8F84064201BF03EBEC4
:10A4100048D8002050D8002059D800202338070001
:10A420009933070090E3002027380700587F070082
:10A43000F4E30020000000002DE9F04F87B0FFF7A3
:10A44000BDFC072800F29782DFE810F01207A7048E
:10A4500008009802F200930049003600A04BA14A80
:10A4600000241C70A04B00200021C3E900019F497B
:10A470009F4811F095FF9F499D4811F091FF9E491B
:10A480009B4811F08DFF9A4811F060F999499B485B
:10A4900011F086FF9849994811F082FF64201BF063
:10A4A000F5FD974B1B782BB1204607B0BDE8F04F68
:10A4B00003F0CABC0120F8E7894B00221A708A4BCE
:10A4C00000200021C3E900018E4B1C783CB903F049
:10A4D0007DFC8D48214604F03BF91BF0EEFD804BDE
:10A4E00000221A70804B00200021C3E90001854B37
:10A4F0001C78002C31D0854C2378052B0DD1844B52
:10A500008448D97A1022227001919B7A0093824963
:10A51000824B09781B7803F0BFFC724A7349744878
:10A5200011F03EFF22787E49714811F039FF7249DF
:10A530006F4811F035FF6E4811F008F9227878491C
:10A540006E4811F02DFF6C496C4811F029FF642012
:10A5500007B0BDE8F04F1BF099BD03F037FC714820
:10A56000214604F0F5F8704807B0BDE8F04F11F04F
:10A5700001BC5B4B00221A705B4B00200021C3E939
:10A580000001604B1B78002B00F0F5815F4C2378B5
:10A59000042B33D0052B41D08BB9644811F01AFB42
:10A5A00001285B4B1FD1D97A6148042222700191A6
:10A5B0009B7A604900930978FF2303F06DFC494AB8
:10A5C0004A494B4811F0ECFE22785B49484811F0AB
:10A5D000E7FE4949464811F0E3FE454811F0B6F858
:10A5E00022785549ACE7D97A544805222270019166
:10A5F0009B7A534900930978FF23DEE707235148EC
:10A60000237011F0A9FA424AD37A0193937A009306
:10A610002278C3B240493F480978CEE73C4B0E222E
:10A62000D97A227001919B7A0093474B1B78F1E70E
:10A630002B4B00221A702C4B00200021C3E9000193
:10A64000304B1B78002B00F0DC80304C2378062B3D
:10A6500023D8DFE813F007001500360089009300C7
:10A66000C400CE002A4903224B7AC87A2270019096
:10A67000897A00910233DBB23449354809780AE01F
:10A68000234B3448D97A0022227001919B7A3249B7
:10A6900000930978FF2303F0FFFB124A1349144883
:10A6A00011F07EFE22782D49114811F079FE1249F1
:10A6B0000F4811F075FE0E4811F048F8227827492E
:10A6C0003EE7134A2649937A264883F001039372A2
:10A6D000D27ACDE90032FF2309780222DBE700BFFE
:10A6E00059D800202338070050D80020993307009C
:10A6F00090E3002037380700587F0700F4E300207C
:10A70000B4A4002058D80020413807005AD80020AF
:10A71000D4A10020CCA10020D0A100206DD8002021
:10A720004C3807005D38070008E40020CDE4002025
:10A73000A4A20020B8A2002063380700D0A2002005
:10A74000E8A20020CAE4002064D8002078A20020FB
:10A7500068A20020ECA2002000A3002074380700AB
:10A76000CCA20020BCA200209C4B02225A72DA7AB2
:10A7700001929B7A0093032204237DE70A239848E1
:10A78000237011F0E9F9C0B20C280ED8DFE800F010
:10A79000071B1B211B21211B1B1B1B1B2100914B7A
:10A7A00000221A70904B05221A708C4A8F4BD17A76
:10A7B0001B780191927A00920A332278DBB28C499D
:10A7C0008C48097867E7874B00221A70864B07226E
:10A7D000EAE7844B00221A70834B0A22E4E77F4B9E
:10A7E0000D22D97A227001919B7A0093824B1B78BB
:10A7F000E5E77A4BDA7A01929B7A009306220023EE
:10A80000DDE77E4811F0E6F9012840F0B4807C4E87
:10A81000727A012A00F0AF807A4F3A78002A40F02D
:10A82000AA80794D794B28701B780BB903F00CFB8B
:10A83000774A78497848DFF8D89111F0B1FD774927
:10A84000754811F0ADFD7649734811F0A9FD7248C5
:10A8500010F07CFF7149734811F0A2FD70497148F6
:10A8600011F09EFD64201BF011FC00216E4811F0D8
:10A87000C2FA5B4811F070F96C4B53F820306C4809
:10A88000059311F045F900248046059B33F81430F8
:10A89000002B60D05F4960484A4611F081FD224696
:10A8A00064495D4811F07CFD5D495B4811F078FD1D
:10A8B000594810F04BFF22465E495A4811F070FD8E
:10A8C0005749584811F06CFD64201BF0DFFBE1B2E2
:10A8D000574811F01FF964201BF0D8FB0020FDF74A
:10A8E0005FFD11F01CFE4FF0000A83463A7872B308
:10A8F0004FF47A701BF0CAFB11F011FEB0EB0B03A2
:10A9000002936AEB4A030393DDE9020142F21072FB
:10A91000002382428B41E9DA4A463E493E4811F023
:10A920003FFD45493C4811F03BFD3D493A4811F097
:10A9300037FD394810F00AFF3F493A4811F030FD21
:10A940003749384811F02CFD64201BF09FFB4FF471
:10A95000FA601BF09BFB0134102C96D13448414621
:10A9600011F0D8F8726822B100232F48194611F06F
:10A9700038FA00232B7007B0BDE8F08F2F4B002270
:10A980001A702F4B00240025C3E900452D4B1B787E
:10A99000002B00F0C5812C4C2278102A67D8DFE804
:10A9A00012F0110059007A0085009200C300D00017
:10A9B000E30066000F0122013701490159016801D6
:10A9C0006600AF01054B0222D97A227001919B7A71
:10A9D0000093FF231D491E48097846E0D4A10020BA
:10A9E000CAE4002062D8002060D800205DD8002092
:10A9F000D0A10020CCA1002063D80020CDE400200D
:10AA000004A300202DD60020E1D40020B4A400200F
:10AA1000233807009933070090E3002085380700AA
:10AA2000587F0700F4E3002071E4002064A40020B4
:10AA3000B8E4002098380700A638070059D800204D
:10AA400050D8002058D800205AD80020CCA200208E
:10AA5000BCA200208E4B8F48D97A0022227001912F
:10AA60009B7A8D4900930978FF2303F015FA8B4AEE
:10AA70008B498C4811F094FC22788B49894811F05D
:10AA80008FFC8A49874811F08BFC864810F05EFEE7
:10AA90002278854954E57E4AD37A83F00103D37244
:10AAA0000193937A00930222FF2393E7784B804926
:10AAB000804801225A72DA7A01929B7A009303232A
:10AAC00009781A46D1E709237B48237011F044F82E
:10AAD000C0B20C2814D8DFE800F007070707070DFD
:10AAE0001E07242424241E00744B00221A70744B69
:10AAF000052204E0714B00221A70714B04221A7077
:10AB0000634A704BD17A1B780191927A00920A3392
:10AB1000DBB2227811E0694B00221A70684B0622E2
:10AB2000EDE7664B0222E1E7594B0C22D97A2270FD
:10AB300001919B7A0093644B1B78644964480978BF
:10AB400093E7534B5A6842B142F20F718A428ABF6F
:10AB5000A2F51C520022103A5A60DA7A01929B7ACE
:10AB600000930622FF23E8E75A4D2B7833B3013BCD
:10AB7000DBB24A4A4A494B482B7011F011FC2A7843
:10AB80005549484811F00CFC4849464811F008FC6A
:10AB9000444810F0DBFD2A784F49504811F000FC82
:10ABA00042494E4811F0FCFB64201BF06FFA384B11
:10ABB000DA7A01929B7A00932B78AAE70C23D8E7E4
:10ABC000404A3E491378097899420BBF3C4B03F148
:10ABD000FF331B78DBB213702D4AD17A0191927A40
:10ABE00000920922A9E73E4A3E4913780978994222
:10ABF0000BBF3D4B03F1FF331B78DBB21370244BCB
:10AC0000DA7A01929B7A00932E4B0A221B7894E702
:10AC1000364A37491368A3F5C333A03B8B4298BF2C
:10AC2000344B13601A4BDA7A01929B7A00930B2211
:10AC3000FF2382E724490B78062B1CBF03F1FF3367
:10AC4000DAB2134B0A70D97A01919B7A00931346BA
:10AC50000C2272E7284A13784BB1013BDBB2137028
:10AC60000B4AD17A0191927A00920D2265E709236D
:10AC7000F5E7224A117809B1481EC0B21070044AA3
:10AC8000D37A0193937A00930E22034655E700BFCF
:10AC9000D4A10020ECA2002000A30020233807004C
:10ACA0009933070090E30020C2380700587F07005F
:10ACB00078A2002068A20020CAE4002061D8002009
:10ACC0005FD800205DD800206CD80020D0A10020E3
:10ACD000CCA100205CD80020B8380700F4E30020A5
:10ACE0005ED8002062D8002060D8002068D80020FC
:10ACF0007F47A1198047A11963D8002064D800209C
:10AD0000A74A1378052B1ABF03F1FF33DBB21623D2
:10AD10001370A44AD17A0191927A009210220CE722
:10AD2000A14B1B78002B7FF426AEA04B1B7813B9E8
:10AD3000012003F089F89E4A9E499F4811F030FB9C
:10AD40009E499D4811F02CFB9D499B4811F028FB22
:10AD5000994810F0FBFC99499A4811F021FB984959
:10AD6000984811F01DFB64201BF090F900219648D3
:10AD700011F041F8954B012200201A70FDF710FBED
:10AD8000934B5A68002A3FF4F6AD00238E481946CB
:10AD900007B0BDE8F04F11F024B88E4B8E4D8F4CAC
:10ADA00000221A708E4B00210020C3E9000129788F
:10ADB000002940F04781844811F01DF801218248A4
:10ADC00011F019F88048022111F015F8774B1B7823
:10ADD00013B9012003F038F801237D4A2B700023BA
:10ADE0002370704B51685960517A52895A817D485D
:10ADF000597210F0EFFE05466D4A6E496E48002DFF
:10AE000049D011F0CDFA78496B4811F0C9FA6C4974
:10AE1000694811F0C5FA684810F098FC7249694811
:10AE200011F0BEFA6649674811F0BAFA64201BF0C7
:10AE30002DF96E4810F06CFE6D4B18706D4810F0D7
:10AE40008BFE6D4B18706D4810F050FE6C4B1870F7
:10AE50006C4810F06FFE6C4B18700023CDE9003386
:10AE600022786A496A48097803F016F8504A51492D
:10AE7000514811F095FA227866494F4811F090FA3E
:10AE80004F494D4811F08CFA4B4810F05FFC227886
:10AE90006049FFF755BB11F083FA5349464811F05A
:10AEA0007FFA4749444811F07BFA434810F04EFCC2
:10AEB0004D49444811F074FA4149424811F070FA82
:10AEC00064201BF0E3F829465348544D10F0FFFC72
:10AED000534810F0B4FC2860524810F0C1FC524BAB
:10AEE0001870524810F0CDFC514B1870514810F0BA
:10AEF000D9FC514B1870514810F0E7FC284B2C4AF4
:10AF000018702C492C4811F04BFA286847F02AFB9E
:10AF100021A3D3E9002347F0B9FC064640480F4679
:10AF200010F08DFC47F01EFB1BA3D3E9002347F074
:10AF3000ADFC32463B46CDE9000141491E4811F0C7
:10AF40002FFA1F491C4811F02BFA1B4810F0FEFB8A
:10AF5000286847F007FB10A3D3E9002347F096FCCD
:10AF600006462F480F4610F06AFC47F0FBFA0AA38A
:10AF7000D3E9002347F08AFC3246CDE900013B4685
:10AF80002F49104811F00CFA0D490E4811F008FA3B
:10AF900064201BF07BF860E70000000084D7974135
:10AFA0006DD80020D4A100202DD60020B4A400200C
:10AFB000233807009933070090E30020D3380700B7
:10AFC000587F0700F4E3002071E4002002D5002040
:10AFD00004A3002059D8002058D800205AD80020B7
:10AFE00050D80020CDE40020E9380700B8E4002064
:10AFF0005DD80020CAE400205CD80020B5E4002021
:10B000005BD80020C0E400205ED8002000A3002010
:10B01000ECA200200C390700CEE4002068D8002004
:10B02000D9E40020DAE400206CD80020DBE4002022
:10B0300063D80020DCE4002064D80020DEE4002097
:10B04000FE3807002378102B3FF610AF01A252F80C
:10B0500023F000BF99B00200ABB00200BDB0020007
:10B06000C1B00200DBB00200F9B0020057B202002A
:10B07000FDB0020057B1020073B1020097B10200A7
:10B08000BBB10200DFB10200FDB102001BB2020041
:10B090006DAE020039B202000122834B2270D97AD0
:10B0A00001919B7A0093FF2322E07F4B0022D97A03
:10B0B000227001919B7A0093FF23D2E60622ECE7EF
:10B0C000794B7A497A4800225A72DA7A01929B7A4D
:10B0D0000093097802230322C6E67349754BC87AA8
:10B0E0001B78082222700190897A00910A33DBB222
:10B0F000714972480978B7E60B22CEE7704D714A64
:10B100002B78714971480C2B1ABF0133DBB2002335
:10B110002B7011F045F92A786D496C4811F040F90F
:10B120006C496A4811F03CF9684810F00FFB2A7826
:10B130006749694811F034F96649674811F030F9F8
:10B1400064201AF0A3FF584BDA7A01929B7A00939D
:10B150002B782278CCE7574A1378B3FA83F35B094C
:10B160001370514AD17A0191927A00920A330822DF
:10B17000BEE75A4A5A491378097899420BBF594B8E
:10B1800001331B78DBB21370474AD17A0191927A6E
:10B1900000920922ACE7544A54491378097899423D
:10B1A0000BBF534B01331B78DBB213703E4AD17A8D
:10B1B0000191927A00920A229AE74E4A4E49136808
:10B1C00003F5C333A0338B4294BF13601160364B39
:10B1D000DA7A01929B7A00930B22FF2388E7474A91
:10B1E00013780C2B1ABF0133DBB2062313702E4ADF
:10B1F000D17A0191927A00920C2279E7404A137831
:10B20000092B1ABF0133DBB200231370264AD17A0F
:10B210000191927A00920D226AE73A4A1378032B41
:10B220001ABF0133DBB2002313701F4AD17A019198
:10B23000927A00920E225BE7334A1378162B1ABFDC
:10B240000133DBB205231370174AD17A0191927A48
:10B25000009210224CE7144A536803F51C53103334
:10B260005360D37A0193937A0093062200233FE739
:10B27000264B00221A70264B00200021C3E9000152
:10B28000244B1A78002A3FF476AB234C2278102AFC
:10B2900048D8DFE802F0435C5C5C5C5C826A6A6A06
:10B2A0006A76767676477600D4A1002078A20020D0
:10B2B00068A200205BD80020D0A10020CCA10020F3
:10B2C0005CD80020233807009933070090E3002062
:10B2D000B8380700587F0700F4E300205DD800204D
:10B2E0005FD8002061D800205ED8002060D8002000
:10B2F00062D8002068D80020007038396CD800204F
:10B3000063D8002064D800206DD8002059D80020D0
:10B3100050D8002058D800205AD8002000221A7097
:10B32000FEF7E2FE234A2449244811F039F8227836
:10B330002349224811F034F82249204811F030F80E
:10B340001E4810F003FA22781D49FFF7F9B81E4B8A
:10B350001E48D97A0022227001919B7A1C490093E1
:10B360000978FF2302F098FDDCE7174B1948D97ADA
:10B370000422227001919B7A174900930978FF23D8
:10B38000F0E7114B1548D97A0522227001919B7A7A
:10B39000134900930978FF23E4E70B4B1148D97A4E
:10B3A0000222227001919B7A0F4900930978FF23B2
:10B3B000D8E700BF233807009933070090E3002047
:10B3C0001D390700587F0700D4A10020ECA20020FF
:10B3D00000A30020A4A20020B8A20020D0A2002038
:10B3E000E8A20020BCA20020CCA2002070B598B03A
:10B3F00014460A490EA810F04DFE0023CDE914337F
:10B40000CDE91633636E012B0CD1054920680DF090
:10B4100088FC48B1022400F0EDBC00BF20500700BA
:10B42000D99E0700002BF5D1B649B748B74CB84DA7
:10B43000B84E10F0B5FFB849B34810F0B1FFB149AC
:10B44000B64810F0ADFFB449B44810F0A9FF64202D
:10B450001AF01CFE637AB24955F82320AA4810F06E
:10B460009FFFAD49A84810F09BFF637AAC4955F89F
:10B470002320AA4810F094FFA749A84810F090FF95
:10B4800064201AF003FEA74911A810F05DFC11A971
:10B490000EA810F012FE11A810F0B6FD0EA810F0C4
:10B4A0004FFE0E9AA049984810F07AFF9A499648A4
:10B4B00010F076FF0E9A9C49984810F071FF96495B
:10B4C000964810F06DFF64201AF0E0FD974911A82E
:10B4D00010F01AFC119A96498B4810F061FF11A8E0
:10B4E00010F092FD8C49884810F05AFF8F4911A83E
:10B4F00010F00AFC119A8E49884810F051FF11A8EB
:10B5000010F082FD8449854810F04AFF64201AF04B
:10B51000BDFD4FF47A7562688649B2FBF5F27A4850
:10B5200010F03EFF7C49784810F03AFF626881498C
:10B53000B2FBF5F2794810F033FF7749774810F005
:10B540002FFF64201AF0A2FD7B4810F043FB7B49DB
:10B5500056F8202005466C4810F022FF6E496A48D4
:10B5600010F01EFF56F8252074496C4810F018FFA3
:10B5700069496A4810F014FF64201AF087FD012D14
:10B5800040F04E836E486F4E6F4D10F0ADFA6F492C
:10B59000002814BF32462A465B4810F001FF5E497E
:10B5A000594810F0FDFE664810F09EFA67490028E1
:10B5B00014BF32462A465948654E10F0F1FE5649EE
:10B5C000564810F0EDFE64201AF060FD614810F05E
:10B5D000C3FA6149054602464B4810F0E1FE4E4968
:10B5E000494810F0DDFE2A465B494C4810F0D8FE71
:10B5F00049494A4810F0D4FE64201AF047FD56F835
:10B6000025205649404810F0CBFE43493E4810F0F3
:10B61000C7FE56F825205149404810F0C1FE3E496A
:10B620003E4810F0BDFE64201AF030FD4C4810F08A
:10B6300054FA002800F0BE814A49334810F0B0FEA9
:10B640003549314810F0ACFE4649344810F0A8FEA8
:10B650003149324810F0A4FE64201AF017FD082288
:10B6600014A9414810F018FA9DF8573005939DF839
:10B67000563004939DF8553003939DF8543002934F
:10B680009DF8533001939DF852309DF85020374972
:10B6900000931D489DF8513010F082FE1E491A4853
:10B6A00010F07EFE9DF8573005939DF856300493B8
:10B6B0009DF8553003939DF8543002939DF8533014
:10B6C00001939DF852309DF850202849009313486B
:10B6D0009DF8513010F064FE0F49104810F060FEE4
:10B6E00064201AF0D3FC082214A9214810F0B0F904
:10B6F0009DF8573005939DF8563004939DF85530CA
:10B7000038E000BF9839070090E3002004A3002030
:10B71000D8A30020CCA30020587F0700F4E300202A
:10B72000A739070048E40020B53907000CE40020E1
:10B730000D6D0700C0390700CDE40020D0390700A7
:10B74000B4E400204D7C07008A390700E039070087
:10B7500098A30020CAE40020EB390700F63907005F
:10B76000B3E40020013A0700AEE400200B3A0700E2
:10B77000AAE4002003939DF8543002939DF85330BF
:10B7800001939DF852309DF850207D4900937D48EB
:10B790009DF8513010F004FE7B497A4810F000FE0D
:10B7A0009DF8573005939DF8563004939DF8553019
:10B7B00003939DF8543002939DF8533001939DF804
:10B7C00052309DF850206E49009370489DF85130DA
:10B7D00010F0E6FD6C496D4810F0E2FD64201AF0AF
:10B7E00055FC102214A96A4810F03BF99DF85F300F
:10B7F0000D939DF85E300C939DF85D300B939DF892
:10B800005C300A939DF85B3009939DF85A30089399
:10B810009DF8593007939DF8583006939DF857309E
:10B8200005939DF8563004939DF8553003939DF889
:10B83000543002939DF8533001939DF852309DF897
:10B840005020544900934F489DF8513010F0A8FD06
:10B850004D494C4810F0A4FD9DF85F300D939DF8C4
:10B860005E300C939DF85D300B939DF85C300A932D
:10B870009DF85B3009939DF85A3008939DF8593034
:10B8800007939DF8583006939DF8573005939DF81F
:10B89000563004939DF8553003939DF8543002932D
:10B8A0009DF8533001939DF8523000939DF850203D
:10B8B0009DF851303749354810F072FD3249334810
:10B8C000354E364D10F06CFD64201AF0DFFB344924
:10B8D0002C4810F065FD2C492A4810F061FD3049D4
:10B8E0002A4810F05DFD2849284810F059FD6420D1
:10B8F0001AF0CCFB627A2B49224810F051FD224904
:10B90000204810F04DFD627A2649204810F048FD8D
:10B910001D491E4810F044FD64201AF0B7FBA27ABE
:10B9200021491848002A14BF32462A4610F038FD33
:10B930001549144810F034FDA27A1B491348002A17
:10B9400014BF32462A4610F02BFD0F490F48174E00
:10B9500010F026FD64201AF099FB15481AF0AEFE8F
:10B960000025B4F88E20EBB2934205F1010580F278
:10B970003D8223443046197B1AF0A0FEF1E700BF58
:10B98000333A070090E30020587F0700F4E30020DB
:10B99000ABE400205B3A0700953907001F38070029
:10B9A000BC3B0700CC3B0700DA3B070093C0070015
:10B9B000EB3B07009049914810F0F2FC90498F480A
:10B9C00010F0EEFC8C498F4810F0EAFC8C498D4851
:10B9D00010F0E6FC64201AF059FB14A910228A48E2
:10B9E00010F048F89DF85F300D939DF85E300C9391
:10B9F0009DF85D300B939DF85C300A939DF85B30A9
:10BA000009939DF85A3008939DF8593007939DF893
:10BA1000583006939DF8573005939DF8563004939F
:10BA20009DF8553003939DF8543002939DF85330A0
:10BA300001939DF852309DF85020009373499DF872
:10BA400051306E4810F0ACFC6D496C4810F0A8FC09
:10BA50009DF85F300D939DF85E300C939DF85D303E
:10BA60000B939DF85C300A939DF85B3009939DF829
:10BA70005A3008939DF8593007939DF85830069333
:10BA80009DF8573005939DF8563004939DF8553036
:10BA900003939DF8543002939DF8533001939DF821
:10BAA00052309DF85020009358499DF85130554828
:10BAB00010F076FC5249534810F072FC64201AF0E2
:10BAC000E5FA14A9102252480FF0EFFF9DF85F30FD
:10BAD0000D939DF85E300C939DF85D300B939DF8AF
:10BAE0005C300A939DF85B3009939DF85A300893B7
:10BAF0009DF8593007939DF8583006939DF85730BC
:10BB000005939DF8563004939DF8553003939DF8A6
:10BB1000543002939DF8533001939DF852309DF8B4
:10BB2000502000933B499DF85130344810F038FCC8
:10BB30003349324810F034FC9DF85F300D939DF886
:10BB40005E300C939DF85D300B939DF85C300A934A
:10BB50009DF85B3009939DF85A3008939DF8593051
:10BB600007939DF8583006939DF8573005939DF83C
:10BB7000563004939DF8553003939DF8543002934A
:10BB80009DF8533001939DF852309DF8502000935A
:10BB900020499DF851301B4810F002FC1849194803
:10BBA00010F0FEFB64201AF071FA14A904221A485E
:10BBB0000FF069FF9DF8533001939DF852309DF8C6
:10BBC0005020009315499DF851300C4810F0E8FBC7
:10BBD0000B490A4810F0E4FB9DF8533001939DF89F
:10BBE000523000939DF850209DF851300B49054884
:10BBF00010F0D6FB62E600BFA33A070090E30020F6
:10BC0000587F0700F4E30020ACE40020AC3A0700C2
:10BC1000B0E40020F53A0700ADE400203E3B070009
:10BC20007748002D40F09B800FF009FE75490246D1
:10BC3000754810F0B5FB7549734810F0B1FB7048BA
:10BC40000FF0FDFD6F490246714810F0A9FB6F49E6
:10BC50006F4810F0A5FB64201AF018FA6D480FF039
:10BC6000FFFD6D490246684810F09AFB6749664837
:10BC700010F096FB67480FF0F3FD674902466448F1
:10BC800010F08EFB6149624810F08AFB64201AF0C4
:10BC9000FDF962480FF0F5FD614902465A4810F07F
:10BCA0007FFB5A49584810F07BFB5C480FF0E9FDD8
:10BCB0005B490246564810F073FB5449544810F053
:10BCC0006FFB64201AF0E2F956480FF0EBFD56497D
:10BCD00002464D4810F064FB4C494B4810F060FBA5
:10BCE00050480FF0DFFD50490246494810F058FB1C
:10BCF0004649474810F054FB64201AF0C7F94B48F6
:10BD00000FF0E1FD4A4902463F4810F049FB3F4928
:10BD10003D4810F045FB45480FF0D5FD444902462B
:10BD20003B4810F03DFB3949394810F039FB64209D
:10BD30001AF0ACF93F480FF0C8FD3F4902463248BF
:10BD400010F02EFB3149304810F02AFB39480FF033
:10BD5000BCFD394902462E4810F022FBAEE50FF03B
:10BD60006EFD28490246284810F01AFB274926484C
:10BD700010F016FB22480FF062FD224902462448CB
:10BD800010F00EFB2149224810F00AFB64201AF043
:10BD90007DF92A480FF0CDFD294902461A4810F0D6
:10BDA000FFFA1A49184810F0FBFA24480FF0C1FDB9
:10BDB00023490246164810F0F3FA1449144810F0CB
:10BDC000EFFA64201AF062F91E480FF0B4FD1E4924
:10BDD00002460D4810F0E4FA0C490B4810F0E0FA66
:10BDE00018480FF0A8FD18490246B4E707481AF0B2
:10BDF00065FC00240EA810F007F9204618B070BDAD
:10BE0000D9E40020573B070090E30020587F07004B
:10BE1000F4E30020DAE40020663B0700DBE40020C6
:10BE20006E3B0700DCE40020763B0700DDE40020E9
:10BE30007E3B0700DEE40020933B0700E2E40020A5
:10BE4000A13B0700E3E40020AE3B07002DE9FF41E2
:10BE5000536E012B0D46144624D1394910680CF05D
:10BE600060FF044620B10224204604B0BDE8F08102
:10BE700002F0A4FD2946334810F05EFA32493148F9
:10BE800010F048FA314A3249D379039393790293F7
:10BE9000537901931379009393782A48128810F00C
:10BEA0007FFAE1E7052BDED1161F02F1100756F8E5
:10BEB000045F28460CF047FF2B462844984205D0E3
:10BEC00013F8012B303A092AF8D9CCE7BE42EED15B
:10BED0000022114620680DF0A3F840F2D233A0F200
:10BEE000E6729A420546BED80022606811460DF0FF
:10BEF00097F8431E0B2B0646B5D80022A0681146C2
:10BF00000DF08EF8431E1E2B0746ACD80022E068C9
:10BF100011460DF085F818288046A4D80022206923
:10BF200011460DF07DF83B289DD8C2B200925FFA11
:10BF300088F3FAB2F1B2A8B202F0FAFC002493E757
:10BF4000D99E070090E30020915307002CDB0020CE
:10BF5000FC3B070007B503230193054B0093054BFA
:10BF6000054A064819460FF010FF03B05DF804FBC0
:10BF70006DC40200173C07001F3C07006EE4002060
:10BF800007B503230193054B0093054B054A06486B
:10BF900019460FF0FAFE03B05DF804FB35C6020047
:10BFA000723C0700773C07006EE4002007B50323CE
:10BFB0000193054B0093054B054A064819460FF0BF
:10BFC000E4FE03B05DF804FB89C80200C23C070030
:10BFD000C73C07006EE4002007B503230193054B1F
:10BFE0000093054B054A064819460FF0CEFE03B0F4
:10BFF0005DF804FB5DC00200EE3C0700F33C070067
:10C000006EE4002007B503230193054B0093054B15
:10C01000054A064819460FF0B8FE03B05DF804FB68
:10C020004DBE0200093D07000D3D07006EE40020F3
:10C0300007B502230193054B0093054B054A0648BB
:10C0400019460FF0A2FE03B05DF804FBEDB3020049
:10C05000343D07003B3D07006EE400204C4B1B784D
:10C0600070B5E3B94B4A4C494C4810F099F94C492A
:10C070004A4810F095F94B49484810F091F9474863
:10C080000FF064FB4649484810F08AF94549464894
:10C0900010F086F9642019F0F9FF02244FE0556E84
:10C0A000012DFAD11668414930460CF03AFE04469B
:10C0B000002846D13B49394810F072F939493748D0
:10C0C00010F06EF93749384810F06AF935493648AA
:10C0D00010F066F9642019F0D9FF214634480FF0BA
:10C0E0008AFE294632480FF086FE022130480FF0C2
:10C0F00082FE01F06BFE21462E4802F029FB2E48FD
:10C1000001F006FE2D4801F003FE01F095FE03F05C
:10C1100057FA2449214810F043F922491F4810F0EA
:10C120003FF92049204810F03BF91E491E4810F005
:10C1300037F9642019F0AAFF21480FF01BFE2046B2
:10C1400070BD204930460CF0ECFD04460028A4D117
:10C150001D4B014616481D700FF04DFE2946144830
:10C160000FF049FE022112480FF045FE01F02EFEAD
:10C170002146104802F0ECFA144801F0C9FD0F48BE
:10C1800001F0C6FD01F058FE02F050FED4E700BFFA
:10C190000ED50020523D07009933070090E30020A0
:10C1A000593D0700587F0700F4E30020D99E07009F
:10C1B00071E40020FB3707006D3D070012380700CF
:10C1C00008E40020D984070058D800207D3D0700EE
:10C1D00030B5944CE7B060689421FDF7B5FD924A04
:10C1E00092490546924810F0DBF82A46914990485A
:10C1F00010F0D6F890498E4810F0D2F88C480FF025
:10C20000A5FA2A468B498D4810F0CAF88A498B480E
:10C2100010F0C6F8642019F039FF89499422684665
:10C220000BF0E4FFADF80050B4F88E506368019352
:10C230002A46A368029304F10C0103A80BF0D6FF71
:10C24000794A7A497A48ADF88E5010F0A9F8019AE7
:10C250007C4977487C4D7D4C10F0A2F876497448B3
:10C2600010F09EF872480FF071FA019A7549734800
:10C2700010F096F87049714810F092F8642019F0A7
:10C2800005FF694A69496A4810F08AF89DF8092053
:10C290006F49674810F084F86749654810F080F8E6
:10C2A00063480FF053FA9DF809206949634810F07C
:10C2B00077F86149614810F073F8642019F0E6FEE0
:10C2C000594A5A495A4810F06BF89DF80A206149BA
:10C2D0005748002A14BF2A46224610F061F85649F2
:10C2E000534810F05DF852480FF030FA9DF80A20DC
:10C2F00058495248002A14BF2A46224610F050F8E6
:10C300004D494E4810F04CF8642019F0BFFE464AE3
:10C310004649474810F044F89DF80B204E494448E0
:10C32000002A14BF2A46224610F03AF842494048F3
:10C3300010F036F83E480FF009FA9DF80B204649F8
:10C340003E48002A14BF2A46224610F029F83A49EE
:10C350003A48424D10F024F80024642019F096FE6B
:10C36000FE22214626A825940BF04EFFBDF88E3004
:10C37000E0B2984204F1010409DA0DEB000329460A
:10C380001A7B25AB03EB40000CF09EFCEEE7264A3F
:10C390002649274810F004F825AA314924480FF00F
:10C3A000FFFF254922480FF0FBFF21480FF0CEF98F
:10C3B00025AA2B4921480FF0F3FF1F491F480FF012
:10C3C000EFFF642019F062FE174A184918480FF071
:10C3D000E7FFBDF88E20234915480FF0E1FF16490D
:10C3E00013480FF0DDFF12480FF0B0F9BDF88E20B2
:10C3F0001C4912480FF0D4FF0F4910480FF0D0FF2E
:10C40000642019F043FE184894236A4600210FF077
:10C41000D4FC28B90146942313486A460FF0CDFC9A
:10C4200067B030BD04A30020523D070099330700D8
:10C4300090E30020913D0700587F0700F4E30020BF
:10C44000B0400700A53D0700953907008D3D070066
:10C45000C33D0700D93D0700F23D070093C0070028
:10C460000C3E0700253E07006FE40020F8B5536E30
:10C47000012B0E4615466AD1614910680CF051FC3B
:10C480000446F8B95F4F60497B68604832464FF414
:10C490007A75B3FBF5F30FF083FF5D495B480FF04E
:10C4A0007FFF7B685849B3FBF5F3324659480FF0DC
:10C4B00077FF574957480FF073FF642019F0E6FDE6
:10C4C0002046F8BD544A554950480FF069FF2A6884
:10C4D00053494E480FF064FF4D494C480FF060FF40
:10C4E0004A480FF033F92A684D494A480FF058FF7F
:10C4F000474948480FF054FF642019F0C7FD2D68E4
:10C5000028460CF020FC0024844224D02B5D303BD4
:10C51000092B1ED9404A41493C480FF041FF2246B1
:10C5200040493A480FF03CFF394938480FF038FF8E
:10C5300036480FF00BF93B49364822460FF030FFE2
:10C54000334934480FF02CFF642019F09FFD02247A
:10C55000B6E70134D8E70A22002128460CF060FD36
:10C560002D4A2E49274D044628480FF019FF224630
:10C570002D4926480FF014FF254924480FF010FFDD
:10C5800022480FF0E3F82246274922480FF008FF1F
:10C590001F4920480FF004FF642019F077FD4FF485
:10C5A0007A701D4A1D49444318486C600FF0F8FE2C
:10C5B0006A681E4915480FF0F3FE154913480FF03D
:10C5C000EFFE12480FF0C2F86A68184911480FF0E0
:10C5D000E7FE0F490F480FF0E3FE642019F056FD07
:10C5E000134800210FF007FC6A6822B100231048AD
:10C5F00019460FF0F6FBFFF7EBFD002460E700BFE4
:10C60000D99E070004A30020423E070090E30020CB
:10C61000587F0700F4E30020523D070099330700DC
:10C62000493E07005E3E07006D3E0700843E07005E
:10C6300071E40020536E012B70B50E46154601D0F3
:10C6400002241DE0814910680CF06BFB0446C8B958
:10C650007F4D80496B7A804832460FF0A1FE7F49BA
:10C660007D480FF09DFE6B7A7A497D4832460FF087
:10C6700097FE7A497A480FF093FE642019F006FD80
:10C68000204670BD774A784973480FF089FE2A68C2
:10C69000764971480FF084FE70496F480FF080FEB4
:10C6A0006D480FF053F82A6870496D480FF078FE16
:10C6B0006A496B480FF074FE642019F0E7FC2D689E
:10C6C00028460CF040FB0024844223D02B5D303BF5
:10C6D000092B1DD9634A64495F480FF061FE224669
:10C6E00063495D480FF05CFE5C495B480FF058FE03
:10C6F00059480FF02BF822465D4959480FF050FE7B
:10C70000564957480FF04CFE642019F0BFFC97E7DC
:10C710000134D9E70A22002128460CF081FC4C4E56
:10C72000504A5149747A05464B480FF039FE2A4663
:10C73000504949480FF034FE484947480FF030FE51
:10C7400045480FF003F82A464A4945480FF028FEAD
:10C75000424943480FF024FE642019F097FC022D53
:10C760003FF66EAFA54201D1002489E71CB9012D27
:10C7700004D001241EE0012CFBD1DDB9394A3A492D
:10C7800035480FF00DFE3C4933480FF009FE3349A0
:10C7900031480FF005FE30480EF0D8FF36493048DA
:10C7A0000FF0FEFD2D492E480FF0FAFD642019F020
:10C7B0006DFC00242B4A2C49274875720FF0F0FDC0
:10C7C000727A2E4924480FF0EBFD244922480FF0DD
:10C7D000E7FD21480EF0BAFF727A284920480FF091
:10C7E000DFFD1E491E480FF0DBFD642019F04EFCF2
:10C7F000FFF7EEFC737A012B21D0022B22D00BB96C
:10C80000FCF7C4FA002CAFD01D4913480FF0C8FD47
:10C81000124911480FF0C4FD194911480FF0C0FD2D
:10C820000E490F480FF0BCFD642019F02FFC41F2B7
:10C83000883019F02BFC13480FF09CFA94E7FCF7B2
:10C8400027FBDFE7FBF730FDDCE700BFD99E0700E1
:10C8500004A30020953E070090E30020587F0700C6
:10C86000F4E30020523D070099330700493E0700DA
:10C870005E3E07009B3E0700AE3E0700C83E070035
:10C88000DA3E070008E40020536E012B2DE9F04149
:10C890000E4615467ED1D2F800804249424F4046AE
:10C8A0000CF03FFA044688BBB7F88E30BBB932466D
:10C8B0003E493F480FF074FD3E493D480FF070FD82
:10C8C0003A493D4832460FF06BFD3A493A480FF07D
:10C8D00067FD642019F0DAFB2046BDE8F08131469F
:10C8E0003648374E19F0EAFE2546B7F88E20EBB2EF
:10C8F000934205F1010505DA3B443046197B19F0F6
:10C90000DDFEF2E72B4819F0D9FEE5E740460CF0D2
:10C910001AFA2C4A2C49064625480FF041FD2A6890
:10C920002A4923480FF03CFD224921480FF038FDE9
:10C930001F480EF00BFF2A6824491F480FF030FDF6
:10C940001C491D480FF02CFD642019F09FFB28683E
:10C9500007F10C02314614F0CBF90446E0B1194A54
:10C96000194913480FF01CFD194911480FF018FD23
:10C9700010490F480FF014FD0D480EF0E7FE144962
:10C980000D480FF00DFD0B490B480FF009FD642019
:10C9900019F07CFB02249FE77608A7F88E60FFF76A
:10C9A00017FC99E7D99E070004A30020F73E070073
:10C9B00090E30020587F0700F4E30020033F0700C6
:10C9C00093C00700523D070099330700493E070016
:10C9D000073F0700F0B5554C2378E7B01BB9FDF7CA
:10C9E00095F901232370524A524953480FF0D8FC5D
:10C9F0009422524950480FF0D3FC51494E480FF051
:10CA0000CFFC4D480EF0A2FE94224C494D480FF049
:10CA1000C7FC4B494B480FF0C3FC642019F036FBB0
:10CA20004949942268460BF0E1FB6A4600214748D9
:10CA300094230FF0B8F906463D4A3E493E48C6B930
:10CA40000FF0AEFC42493C480FF0AAFC3C493A4882
:10CA50000FF0A6FC38480EF079FE3D4939480FF03A
:10CA60009FFC374937480FF09BFC642019F00EFB00
:10CA700057E00FF095FCBDF8002036492E480FF026
:10CA80008FFC2F492C480FF08BFC2B480EF05EFEDC
:10CA9000BDF800202F492B480FF082FC2849294877
:10CAA0000FF07EFC642019F0F1FA9DF80830AA2BF3
:10CAB0003AD101989421FDF747F90546BDF80030B9
:10CAC000254CAB424ED01A4A1A491B480FF068FC5D
:10CAD000BDF80030214918482A460FF061FC18497A
