:020000022000DC
:107000000000042001B7030029B703002BB70300D9
:107010002DB703002FB7030031B7030000000000B5
:1070200000000000000000000000000033B7030073
:1070300035B7030000000000000000000000000061
:10704000C5A5050037B7030045C405009DAB050085
:1070500037B7030005A20500DD9F0500F587060090
:1070600037B70300DDAA0500F1AA050037B7030012
:1070700037B7030037B7030037B7030037B703004C
:10708000F9940600DD77050037B7030037B7030032
:1070900037B7030037B703007D7E060037B703001C
:1070A00037B7030037B7030005AB050019AB050080
:1070B00037B7030037B703000000000000000000EE
:1070C00037B7030037B7030037B70300318D060029
:1070D000F5A7050037B7030037B7030055C1050012
:1070E000CDC1060037B703000DE90600000000001F
:1070F0000000000037B70300000000000191060007
:10710000000000000000000000000000000000007F
:10711000000000000000000000000000000000006F
:10712000000000000000000000000000000000005F
:10713000000000000000000000000000000000004F
:10714000000000000000000000000000000000003F
:10715000000000000000000000000000000000002F
:10716000000000000000000000000000000000001F
:10717000000000000000000000000000000000000F
:1071800000000000000000000000000000000000FF
:1071900000000000000000000000000000000000EF
:1071A00000000000000000000000000000000000DF
:1071B00000000000000000000000000000000000CF
:1071C00000000000000000000000000000000000BF
:1071D00000000000000000000000000000000000AF
:1071E000000000000000000000000000000000009F
:1071F000000000000000000000000000000000008F
:1072000010B5054C237833B9044B13B10448AFF3E0
:1072100000800123237010BDC0D4002000000000B6
:107220009832080008B5034B1BB103490348AFF37C
:10723000008008BD00000000C4D40020983208007F
:10724000154B002B08BF134B9D46A3F5803A002138
:107250008B460F461348144A121A11F0ADFE0F4B1D
:10726000002B00D098470E4B002B00D098470020F1
:10727000002104000D000D48002802D00C48AFF397
:10728000008011F049FE2000290011F0CFFB11F021
:107290002FFE00BF000008000000042000000000D6
:1072A00000000000C0D400209CC6012000000000A7
:1072B000000000000022C0E900220172704738B5CA
:1072C0000446006820B1856914F050F92846F9E7B2
:1072D000204638BD006820B143688B4201D08069E8
:1072E000F9E77047F8B504460F4616461D46FFF706
:1072F000F1FF20B10123826005704370F8BD1C20AE
:1073000014F038F9012343700023C0E90333C0E9C6
:10731000053323680570C0E9017613B92060606009
:10732000ECE763689861FAE72DE9F8430468164FC3
:1073300005460E464FF000081CB363680BB9A469FC
:10734000FAE72378002BFAD0E368A268F31A9A428E
:1073500002D961780029F2D09B1A636184F8018018
:10736000E66016F04BF863688146984716F046F8D9
:107370003B68A0EB0900206118442B7A3860002B91
:10738000DDD0BDE8F88300BFDCD4002008B5074B92
:1073900050B103221A700648FA22012115F08BFC25
:1073A000044B00221A7008BD0522F3E7E0D4002048
:1073B00071E400202DD60020054B064800221A70EB
:1073C000054B08221A700121FA2215F074BC00BF87
:1073D0002DD6002071E40020E0D4002084B004AB5E
:1073E00003E907000B4BBDF90A201A800A4B9DF9EF
:1073F0000C201A70094A0A48136801331360094BBC
:1074000000221A70084B0121FA22197004B015F0FD
:1074100052BC00BF12D5002014D5002028D6002071
:1074200071E400202DD60020E0D40020134B002270
:107430001A70134B5B7A023B012B1DD9114B90F94B
:1074400006201A70104BB0F904201A800F4A0378F6
:1074500013700F4A417811700E4A817811701BB178
:107460000D4A1368013313600C4B0D4804221A7047
:107470000121FA2215F01FBC704700BF2DD6002055
:1074800004A3002014D5002012D5002017D6002018
:1074900015D6002016D6002024D60020E0D40020E7
:1074A00071E4002010B5044609F0EAF8204610BD4A
:1074B00008B5064B1B783BB115F09BFFBDE80840B3
:1074C00001460348FFF730BF08BD00BF59D8002070
:1074D00018D600201F4B07B501221F481A7015F05F
:1074E00096F918B11D48002115F05BF91C4815F0FC
:1074F000DFFA1C491C4815F0EDF91C491A4815F033
:10750000F9F91B49184815F0EDF91A49164815F014
:10751000F9F91949144815F0FDF90021174815F03B
:1075200037FA0021164815F0A1FA32230122009300
:107530000D480A23114615F08CF9124BDB7A33B152
:107540000121222003B05DF804EB15F046BF03B023
:107550005DF804FBA1A10020E4E40020CEE40020BB
:10756000CDE4002095920200A9E400209993020046
:107570008D7302002D74020045940200B1E40020D6
:10758000CBE4002004A3002010B50B4C00212046C2
:10759000FFF790FE2046094C094A0A4911F090FC79
:1075A000FF21204609F060F82046054A0649BDE85B
:1075B000104011F085BC00BF18D6002004D5002073
:1075C00090A10020BF720200A57402002DE9F043D3
:1075D000964D974E974CDFF8CC82012700232F70F1
:1075E0003370637A023BBB4285B000F20582924859
:1075F00009F04DF8E37A002B00F081818F4A98F86A
:10760000003011789146002940F04E817BB18C4BBF
:107610001B7863B907F03EF9637A022B0CBF8948E7
:107620008948394607F0F4FD884807F0D5F806F098
:1076300063FB002858D0864B1B78F3B9854A8649EE
:10764000864815F017FE8649844815F013FE8549D3
:10765000824815F00FFE814814F0E2FF804982480D
:1076600015F008FE7F49804815F004FE64201FF0E5
:1076700077FC7E48012115F008FAB4F88E0006F078
:1076800029F970B36C4809F005F803906A4809F0CD
:1076900003F801240246CDE90044039974482346C7
:1076A00015F0F2F80746E0B96A4A6B496B4815F0E5
:1076B000E1FD7049694815F0DDFD6A49674815F03C
:1076C000D9FD664814F0ACFF6A49674815F0D2FD51
:1076D0006449654815F0CEFD64201FF041FC2F7011
:1076E000347005B0BDE8F083634A117809BB634B81
:1076F0001B7803F0FF07E3B901234F4889F80030F6
:1077000008F0C5FF5E4B5F481F8041F28832636816
:10771000B3FBF2F35C4A13805C4B1F705C4B40F68A
:10772000C4121F7003213B4605B0BDE8F04315F0BD
:10773000C2BA0023137098F800304BB1404B1B784D
:1077400033B95449544812F0CEF9534807F044F87D
:10775000637A032B5FD1514B37481B6800221BB261
:10776000114608F0D1FE3A4B1B78F3B94C4A3A491E
:107770003A4815F07FFD3A49384815F07BFD394904
:10778000364815F077FD354814F04AFF344936483D
:1077900015F070FD3349344815F06CFD64201FF07E
:1077A000DFFB3248012115F070F9B4F88E0006F0C5
:1077B00091F8002895D0204808F06CFF03901E48EF
:1077C00008F06AFF01240246CDE9004403992848E5
:1077D000234615F059F8002840F00281304A2870FD
:1077E0001D491E4815F046FD22491C4815F042FD72
:1077F0001C491A4815F03EFD184814F011FF1D49A8
:10780000194815F037FD1749174815F033FD642066
:107810001FF0A6FB64E700230093B7EE000A1A46A8
:107820001946054808F0A4FD9DE700BF2DD60020AD
:10783000D8A3002004A3002004D500200CD50020EC
:1078400058D80020A83E0700B83E0700CB3E0700EE
:107850002CD60020E63E0700EA3E070090E3002019
:10786000F03E0700E88F0700F4E30020CCE400209E
:10787000A9E40020FD3E070002D50020E1D400204D
:1078800078D8002071E400207AD80020A8D8002001
:10789000A9D80020193F070015D5002028D60020C0
:1078A0002F3F07000ED500205BB1A04B1B7843B9DA
:1078B00006F0F0FF9E48394607F0AAFC9D4806F006
:1078C0008BFF9D4A9D499E4815F0D4FC9D499C48DC
:1078D00015F0D0FC9C499A4815F0CCFC984814F05F
:1078E0009FFE9849994815F0C5FC9749974815F0AF
:1078F000C1FC642005B0BDE8F0431FF031BB98F82F
:1079000000305BB1894B1B7843B906F0C3FF884850
:10791000394607F07DFC8E4806F05EFF637A032B44
:1079200060D18C4B8C481B6800221BB2114608F0BA
:10793000EBFD8A4B1B78F3B90121894815F0A5F8B6
:107940007D4A7E497E4815F095FC86497C4815F0B5
:1079500091FC7D497A4815F08DFC794814F060FE61
:1079600080497A4815F086FC7749784815F082FC02
:1079700064201FF0F5FAB4F88E0005F0ABFF002884
:107980003FF4AFAE744808F085FE0390724808F0EB
:1079900083FE01230246CDE900330399724814F0B7
:1079A00073FF044600287FF49CAE634A6349644831
:1079B00015F060FC6D49624815F05CFC6249604856
:1079C00015F058FC5E4814F02BFE68495F4815F02E
:1079D00051FC5D495D4815F04DFC64201FF0C0FA74
:1079E0002C707EE600230093B7EE000A1A46194673
:1079F000594808F0BDFC9CE798F8003073B14B4B38
:107A000093F80080B8F1000F08D106F043FF584802
:107A1000394607F0FDFB574B83F800804E4808F0CD
:107A200036FE554815F040F8002800F0088153480C
:107A300014F0C4FF002800F0E3800121242015F099
:107A4000CCFC3D4A3D493E4815F014FC4C493C48AD
:107A500015F010FC3C493A4815F00CFC384814F07D
:107A6000DFFD4749394815F005FC3749374815F01F
:107A700001FC64201FF074FA424B1B78002B4ED09F
:107A8000414806F0A9FE354B1B78F3B92A4A2B4929
:107A90002B4815F0EFFB3349294815F0EBFB2A4939
:107AA000274815F0E7FB264814F0BAFD2D49274872
:107AB00015F0E0FB2449254815F0DCFB64201FF09D
:107AC0004FFA2748012114F0E0FFE37A002B65D03C
:107AD00006F012F920B92D4A002313602C4A1360D6
:107AE0001D4808F0D7FD80B205F0F4FE00283FF4F1
:107AF000F8AD194808F0CEFD0390174808F0CCFD0A
:107B000001240246CDE9004403991748234614F0A6
:107B1000BBFE00287FF4E5AD074A287060E6154BF0
:107B20001B780BB11B48ACE71B48AAE758D80020CC
:107B3000A83E0700343F0700E63E0700EA3E070084
:107B400090E30020483F0700E88F0700F4E300209F
:107B50005C3F070028D6002004D500202CD600204A
:107B6000CCE40020F03E0700A9E40020FD3E070021
:107B7000683F070002D50020CDE40020B4E40020D7
:107B8000793F0700E1D40020853F07008CD8002012
:107B900088D80020963F0700A53F0700B4F88E0064
:107BA00005F098FE00283FF49CAD0127CDE9007751
:107BB000394A94F88E103948022314F065FE0028E3
:107BC0007FF48FAD364A37492870374815F052FB9D
:107BD0003649354815F04EFB3549334815F04AFB18
:107BE000314814F01DFD3149324815F043FB30494E
:107BF000304815F03FFB64201FF0B2F9377070E594
:107C0000274A28492870284815F034FB2A49264875
:107C100015F030FB2649244815F02CFB224814F0BF
:107C2000FFFC2549234815F025FB2149214815F083
:107C300021FB64201FF094F90123337051E50121E9
:107C4000232015F0CAFB164A1649174815F012FBF7
:107C50001A49154815F00EFB1549134815F00AFB93
:107C6000114814F0DDFC1549124815F003FB1049CA
:107C7000104815F0FFFA64201FF072F9104806F062
:107C8000ABFD0123044A94F88E100E4814F0A7FDB2
:107C900001232B7025E500BF10A30020A9E40020DC
:107CA000E63E0700EA3E070090E30020FD3E0700A5
:107CB000E88F0700F4E30020B33F0700D13F07003F
:107CC000A53F0700CEE400202DE9F04F2DED028BFB
:107CD00000218DB0784E0446242015F07EFB002153
:107CE000232015F07AFB337883B1744B1B786BB982
:107CF00006F0D0FD724B5B7A022B28D17149724895
:107D000011F0F1FE7048012107F082FA24BB6F4A9E
:107D10006F49704815F0AEFA6F496E4815F0AAFA2F
:107D20006E496C4815F0A6FA6A4814F079FC6A4965
:107D30006B4815F09FFA6949694815F09BFA642071
:107D40001FF00EF90DB0BDEC028BBDE8F08F032BD8
:107D50000CBF64496449D2E72278012A40F02282AC
:107D6000624B634F1B78634D002B2FD0624B1B7807
:107D7000002B00F0988007F081FB604A604B11886F
:107D80001980917899701179D97051791971917917
:107D9000D27959719A710122DA715A4900221A7204
:107DA0000968D9605849096819611A755A7539887E
:107DB00049B2D975297849B219765A839A83DA83F8
:107DC000524A126812B21A8407F0C0FF3378504E3C
:107DD000002B00F00181394B1C78002C40F0FC8016
:107DE0004C49394811F07FFE374909A815F0BCF815
:107DF00009AA2146204606F069FD09A815F06EF88B
:107E000032684549304811F037FE2F4909A815F06E
:107E1000ABF809AA2146012006F058FD09A815F083
:107E20005DF83E4814F075FC4BF0F4FA20A3D3E95A
:107E300000234BF093FC0B4602463949224811F0CF
:107E40001BFE214909A815F08FF809AA2146022036
:107E500006F03CFD09A815F041F8324814F06AFC20
:107E600031490246184811F007FE174909A815F0D4
:107E70007BF809AA2146032006F028FD09A815F081
:107E80002DF82A4814F067FC092800F24B81DFE83E
:107E900010F04F00370139013B013D013F01410125
:107EA00043014501470107F061FC66E7AFF300803D
:107EB0000000000080842E410ED5002058D80020FC
:107EC00004A30020A83E070015D50020E63E0700C9
:107ED000EA3E070090E30020E53F0700E88F070037
:107EE000F4E30020B83E0700683F07000FD50020EC
:107EF00012D5002014D5002034DB00202CDB00201C
:107F0000A4A1002088D800208CD8002024D60020EE
:107F100028D60020F23F070000400700D9E40020E7
:107F20005A480700DAE40020F4530700DBE400209D
:107F30007F4907A811F0D7FD7E4814F00CFC7E4B5A
:107F40007E4953F820207E4811F096FD7C4909A80F
:107F500015F00AF809AA4021032006F0B7FC09A889
:107F600014F0BCFF774814F007FC7749421D7448B1
:107F700011F082FD724909A814F0F6FF09AA402108
:107F8000022006F0A3FC09A814F0A8FF3A886F4964
:107F90006B4812B211F070FD694909A814F0E4FFB2
:107FA00009AA0021042006F091FC09A814F096FF0C
:107FB0002A786749624852B211F05EFD604909A80B
:107FC00014F0D2FF09AA4021042006F07FFC09A882
:107FD00014F084FF06F094FC5E4A5F495F4815F098
:107FE00049F95F495D4815F045F95E495B4815F070
:107FF00041F95A4814F014FB59495B4815F03AF915
:108000005849594815F036F964201EF0A9FF514A25
:108010005149524815F02EF932683B8829784F486B
:1080200049B21BB20091514915F024F94D494B4812
:1080300015F020F9494814F0F3FA32683B882978A2
:10804000494849B21BB20091484915F013F9454916
:10805000454815F00FF964201EF082FF3D4A3E4965
:108060003E4815F007F9424814F053FB08EE100A99
:10807000404814F05FFB06462E4814F06CFBF8EE07
:10808000487A054617EE900A4BF0E6F926A3D3E9A5
:1080900000234BF063FB7D2405FB044502460B46A1
:1080A000CDE9006534492D4815F0E4F82D492B48F9
:1080B00015F0E0F8294814F0B3FA2D4814F029FB24
:1080C00008EE100A2B4814F035FB0546194814F049
:1080D00042FBF8EE487A064617EE900A4BF0BCF9E0
:1080E00011A3D3E900234BF039FB06FB04440246FD
:1080F0000B46CDE9005420491B4815F0BBF81AE6A1
:108100001E4916E71E4914E71E4912E71E4910E7EB
:108110001E490EE71E490CE71E490AE71E4908E7FB
:108120001E4906E71E4904E70000000080842E4136
:1081300014400700DBE400207CA200204A40070036
:1081400015D50020DCE400200D5407000E42070086
:1081500019420700E63E0700EA3E070090E30020D0
:1081600050400700E88F0700F4E300205D4007005F
:10817000D9E40020DAE40020784007001840070026
:108180001C4007002040070024400700294007004A
:108190002F400700354007003B40070041400700E3
:1081A00046400700824B1B78022B40F09980814BA0
:1081B00000221A70804B1B78002B2FD07F4B1B782E
:1081C000002B64D007F05AF97D4B7E4C1A88228030
:1081D0009A78A2701A79E2705A7922719A79DB79C9
:1081E0006271A371784A79480023E371237212689F
:1081F000E260774A1268226123756375E37523761E
:108200006383A383E383734B1B681BB2238414F043
:10821000E9FB40B284F8220007F098FD3378002B88
:108220003FF490AD6C4B1C78002C7FF48BAD6B4908
:108230006B486C4D11F057FC694909A814F094FE85
:1082400009AA2146204606F041FB09A814F046FE83
:108250002A686549624811F00FFC614909A814F0C9
:1082600083FE09AA2146022006F030FB09A814F07B
:1082700035FE2B68013B0F2B30D8DFE803F00B11E4
:10828000131517191B1D1F21232527292B2D07F037
:108290006DFA99E75549524811F025FC504970E0B4
:1082A0005349F8E75349F6E75349F4E75349F2E7EE
:1082B0005349F0E75349EEE75349ECE75349EAE7FE
:1082C0005349E8E75349E6E75349E4E75349E2E70E
:1082D0005349E0E75349DEE75349DCE75349DAE71E
:1082E000032A40F0B1803378002B3FF42BAD3A4B9A
:1082F0001E78002E7FF426AD4D4C657A022D4ED0AF
:10830000032D53D05DB94B4909A814F02DFE09AADD
:108310002946084606F0DAFA09A814F0DFFD4FF402
:108320007A7362684449B2FBF3F22D4811F0A4FB62
:108330002B4909A814F018FE09AA0021012006F013
:10834000C5FA09A814F0CAFD3C4909A814F00CFEAE
:10835000002109AA022006F0B9FA09A814F0BEFD0E
:1083600028491F4811F0BFFB1D4909A814F0FCFD66
:10837000002109AA032006F0A9FA09A814F0AEFD0D
:108380002E4909A814F0F0FD09AA0021042006F0E6
:108390009DFA09A814F0A2FD06F0B2FAD2E4284929
:1083A00009A814F0E1FD09AA3146B2E72549F7E72B
:1083B000E0D400202DD600200FD5002034DB002093
:1083C0002CDB0020A4A1002088D80020B8E40020E5
:1083D0008CD8002024D6002058D80020354407002F
:1083E00015D5002030D600208B40070095400700AF
:1083F000A3400700AE400700BA400700C640070090
:10840000D0400700DA400700E6400700FA400700C6
:108410000D4107001D4107002A41070034410700B4
:1084200044410700524107005E4107006F410700C9
:1084300004A300207D410700B14107005BF4070061
:108440008C4107009D410700042A40F03382AD4B68
:10845000AD4D1B78DFF82893DFF82883AB4F002B56
:108460003DD0AB4B1B78002B00F0978107F006F84E
:10847000A84BA94C1A8822809A78A2701A79E270C7
:108480005A7922719A79DB796271A3710023E371C1
:1084900098F80020A148D2B22272A14A1268E26084
:1084A000A04A126822612A8852B222752A8852B2E2
:1084B00062752A8852B2E27599F8002052B222768B
:1084C0006383A3833B78E383974B1B681BB22384AE
:1084D00014F088FA40B284F8220007F037FC3378B1
:1084E000DFF8A4A2914C002B00F0A380904B1E78E3
:1084F000002E40F09E808F4B21788F4A8F480029B4
:1085000018BF1A468E4911F0B7FA8C4909A814F021
:108510002BFD09AA3146304606F0D8F909A814F017
:10852000DDFC227802F0FF0B002A40F039813A7816
:108530008449824811F0A0FA804909A814F014FD7A
:1085400009AA5946012006F0C1F909A814F0C6FC91
:10855000724814F047FA7C490246784811F08CFAC8
:10856000764909A814F000FD09AA5946022006F030
:10857000ADF909A814F0B2FC98F8002073496F48CF
:1085800011F07AFA6D4909A814F0EEFC09AA40210D
:10859000022006F09BF909A814F0A0FCDAF80020EC
:1085A0006B49664811F068FA644909A814F0DCFCCC
:1085B00009AA5946032006F089F909A814F08EFC8F
:1085C000594B64491A685D4811F056FA5B4909A88D
:1085D00014F0CAFC09AA4021032006F077F909A883
:1085E00014F07CFC2A885C49544812B211F044FA19
:1085F000524909A814F0B8FC09AA5946042006F00B
:1086000065F909A814F06AFC99F8002053494B4811
:1086100052B211F031FA494909A814F0A5FC04201E
:1086200009AA402106F052F909A814F057FC06F0F7
:1086300067F94B4A4B494C48DFF8FCB03D4E14F00B
:1086400019FE227849494848002A0CBF5A4632464A
:1086500014F010FE4649444814F00CFE424813F052
:10866000DFFF227841494348002A0CBF5A46324670
:1086700014F000FE3E493F4814F0FCFD64201EF05B
:108680006FFC374A3749384814F0F4FDDAF8002017
:108690002B8899F80010344849B21BB20091364932
:1086A00014F0E8FD3249304814F0E4FD2E4813F090
:1086B000B7FFDAF800202B8899F800102D4849B24E
:1086C0001BB200912C4914F0D5FD2949294814F01A
:1086D000D1FD64201EF044FC214A2249224814F0B6
:1086E000C9FD98F8002025493B781F4814F0C2FDC9
:1086F0001F491D4814F0BEFD1B4813F091FF98F868
:10870000002043E00FD5002012D5002015D6002010
:1087100034DB00202CDB0020A4A10020B8E40020E2
:1087200088D800208CD8002024D6002017D600201E
:1087300058D80020E13F07000F46070015D500205C
:10874000C4410700D5410700E9410700F241070095
:10875000FB410700034207000B42070016420700D7
:10876000E63E0700EA3E070090E30020C84107000C
:10877000E88F0700F4E300205D4007003E42070059
:1087800014D5002016D6002028D600206C493B784E
:108790006C4814F06FFDFFF7CEBA06F0E7FF67E60E
:1087A000DAF800206849694811F066F9674909A8B4
:1087B00014F0DAFB09AA3146012006F087F809A86F
:1087C00014F08CFB624B63491A68604811F054F94D
:1087D0005E4909A814F0C8FB09AA4021012006F04F
:1087E00075F809A814F07AFB22785B49574811F014
:1087F00043F9564909A814F0B7FB09AA31460220EB
:1088000006F064F809A814F069FB2378013B0F2BEC
:108810004ED8DFE803F0082F31333537393B3D3F81
:1088200041434547494B4D49484811F05CF9474998
:1088300009A814F099FB09AA0021032006F046F8C4
:1088400009A814F04BFB464814F0CCF84549024601
:108850003E4811F011F93D4909A814F085FB09AA19
:108860000021042006F032F809A814F037FB06F0C6
:1088700047F8DCE63C49D7E73C49D5E73C49D3E734
:108880003C49D1E73C49CFE73C49CDE73C49CBE700
:108890003C49C9E73C49C7E73C49C5E73C49C3E710
:1088A0003C49C1E73C49BFE73C49BDE73C49BBE720
:1088B0003C49B9E7052A40F087803378002B3FF424
:1088C00041AA394B1E78002E7FF43CAA374C657ABA
:1088D000022D31D0032D31D05DB9354909A814F0EE
:1088E00043FB0021084609AA05F0F0FF09A814F08F
:1088F000F5FA4FF47A7362682E49B2FBF3F213482B
:1089000011F0BAF8114909A814F02EFB09AA0021A8
:10891000012005F0DBFF09A814F0E0FA264909A8B8
:1089200014F022FB002109AA022005F0CFFF09A8BC
:1089300014F0D4FA214914E52149CFE72149CDE7C4
:108940003E420700F4E30020FB41070015D500205C
:1089500024D600200342070020420700954007006C
:10896000B8E4002035420700A3400700AE400700EE
:10897000BA400700C6400700D0400700DA400700B1
:10898000E6400700FA4007000D4107001D410700BF
:108990002A410700344107004441070052410700C3
:1089A0005E4107006F41070058D8002004A3002053
:1089B0007D410700B14107005BF407005642070004
:1089C0008C4107009D410700062B40F06583B44BA6
:1089D000DD781C795F7893F8029093F80580C5EBF9
:1089E000451205EB8205C4EB441204EB8204AD4A48
:1089F0000592517A6D00640003292DB224B240F033
:108A0000C181A94AA949AA4893F907B093F800A0DF
:108A10004FEA281814F02EFC4246A649A44814F048
:108A200029FCA549A24814F025FCA14813F0F8FD43
:108A30004246A049A14814F01DFC9F499F4814F0EC
:108A400019FC09F1380964201EF08AFA4FFA89F9F5
:108A5000954A9649964814F00DFC5B464A4698495B
:108A6000934814F007FC9449914814F003FC904893
:108A700013F0D6FD5B464A469149904814F0FAFB44
:108A80008D498E4814F0F6FB64201EF069FA864A80
:108A90008649874814F0EEFB23462A4689498448D4
:108AA00014F0E8FB8449824814F0E4FB804813F09A
:108AB000B7FD23462A468349804814F0DBFB7E49F4
:108AC0007E4814F0D7FB64201EF04AFA7E4B1B78D8
:108AD000002B3FD07D4B1B78002B00F0228106F04D
:108AE000CDFC7B4A7B4B1188198091789970117964
:108AF000D970517919719179D27959719A7103228A
:108B0000DA715FFA88F21A72734A74481268DA608E
:108B1000734A12681A610021724A197583F8159018
:108B200083F816B0128852B2DA756F4A127807EBE2
:108B30000A2A52B20FFA8AFA1A765D839C83D98385
:108B4000A3F820A013F04EFF624B40B283F822003E
:108B500007F0FCF83378002B3FF4F4A8634B1E7841
:108B6000002E7FF4EFA805F095FE6148012106F084
:108B70004FFB5D4B5F491A785A4B5F481B8852B2D6
:108B80001BB210F079FF5C4909A814F0EDF909AAAD
:108B90003146304605F09AFE09A814F09FF94B467D
:108BA0005A465649544810F067FF534909A814F033
:108BB000DBF909AA3146012005F088FE09A814F066
:108BC0008DF942464E494C4810F056FF4A4909A8D3
:108BD00014F0CAF909AA3146022005F077FE09A867
:108BE00014F07CF9474909A814F0BEF909AA32210A
:108BF000022005F06BFE09A814F070F9424909A89B
:108C000014F0B2F909AA5021022005F05FFE09A86C
:108C100014F064F93D4909A814F0A6F909AA3146EF
:108C2000032005F053FE09A814F058F9059BDF7ADC
:108C3000002F79D02A4636492F4810F01DFF2E49C3
:108C400009A814F091F909AA3221032005F03EFE8B
:108C500009A814F043F922462D49274810F00CFFCB
:108C6000254909A814F080F909AA5021032005F02C
:108C70002DFE09A814F032F9174B1868184B1C6820
:108C80004AF0EAFB02460B462046CDE902234AF0B1
:108C9000E3FBDDE90223CDE900011E493CE000BF12
:108CA000E2D4002004A30020E63E0700EA3E0700CD
:108CB00090E300206C420700E88F0700F4E30020F7
:108CC0008C420700A94207000FD5002034DB0020AA
:108CD0002CDB0020A4A1002088D80020B8E40020CC
:108CE0008CD8002012D5002014D5002058D80020A0
:108CF000B83E0700C542070015D50020DC4207003A
:108D0000F3420700FE420700024307000643070044
:108D1000E64107000F430700174810F0ADFEFFF7CC
:108D2000BDBA06F023FDDCE61449134810F0DBFE63
:108D3000114909A814F018F909AA3221032005F0F5
:108D4000C5FD09A814F0CAF80B4909A814F00CF9DC
:108D500009AA5021032005F0B9FD09A814F0BEF8B6
:108D60000749054810F0BFFE034909A814F0FCF8B4
:108D700009AA3946FFF70ABB15D50020244307008E
:108D80001B430700A9F1C8091FFA89F3A54AA649A0
:108D9000A64802934FFA88FB14F06CFA5A46A4498D
:108DA000A24814F067FAA349A04814F063FA9F4858
:108DB00013F036FC5A469E499F4814F05BFA9D49D1
:108DC0009D4814F057FA64201EF0CAF8C83F954A2F
:108DD0009549964814F04EFABFB2BDF908909749EC
:108DE00092480FFA87FA4B46524614F043FA9149DB
:108DF0008E4814F03FFA8D4813F012FC4B46524651
:108E00008E498D4814F036FA8A498B4814F032FAAC
:108E100064201EF0A5F8834A8349844814F02AFA96
:108E200023462A468649814814F024FA81497F481E
:108E300014F020FA7D4813F0F3FB23462A468049BC
:108E40007D4814F017FA7B497B4814F013FA64202C
:108E50001EF086F87B4B1B78002B3CD07A4B1B789E
:108E6000002B00F0D08006F009FB784A784B11887F
:108E70001980917899701179D97051791971917916
:108E8000D27959719A710222DA71724A83F8088094
:108E90001268DA60704A714812681A617FB29DF9EF
:108EA00008201F755A756E4A128852B2DA756D4ADB
:108EB000127852B21A7600225D839C83DA836A4A62
:108EC000126812B21A8413F08DFD614B40B283F820
:108ED000220006F03BFF3378002B3EF433AF634BA8
:108EE0001E78002E7EF42EAF05F0D4FC60480121E0
:108EF00006F08EF95B4B5F491A78594B5E481B8828
:108F000052B21BB210F0B8FD5B4909A814F02CF85E
:108F100009AA3146304605F0D9FC09A813F0DEFF56
:108F20005A465649544810F0A7FD534909A814F071
:108F30001BF809AA3146012005F0C8FC09A813F066
:108F4000CDFF4F4909A814F00FF809AA32210120DA
:108F500005F0BCFC09A813F0C1FF4A4909A814F0A8
:108F600003F809AA5021012005F0B0FC09A813F06C
:108F7000B5FF454909A813F0F7FF09AA31460220B9
:108F800005F0A4FC09A813F0A9FF404909A813F0B3
:108F9000EBFF09AA3146032005F098FC09A813F05D
:108FA0009DFF52463A49344810F066FD324909A8FF
:108FB00013F0DAFF09AA3221022005F087FC09A884
:108FC00013F08CFF4A4632492B4810F055FD2A49D0
:108FD00009A813F0C9FF09AA3221032005F076FC85
:108FE00009A813F07BFF059BDF7A7FB12A46284949
:108FF000214810F041FD204909A813F0B5FF09AA46
:109000005021022022E606F0B1FB2EE721491A4842
:1090100010F069FD184909A813F0A6FF09AA50210C
:1090200002208CE6E63E0700EA3E070090E30020BF
:1090300027430700E88F0700F4E3002044430700BC
:10904000A94207000FD5002034DB00202CDB0020D4
:10905000A4A1002088D800208CD80020B8E40020EB
:1090600012D5002014D5002024D6002058D8002086
:10907000A83E0700C542070015D50020F3420700AF
:1090800096A0070006430700FE42070002430700C0
:10909000E641070024430700072B72D1644A654963
:1090A000654814F0E7F86549634814F0E3F864494B
:1090B000614814F0DFF8604813F0B2FA5F49614884
:1090C00014F0D8F85E495F4814F0D4F864201DF01D
:1090D00047FF5D4B1B78002B30D05C4B1B78002B7F
:1090E0004CD006F0CBF95A4B5A4C1A8822809A7809
:1090F000A2701A79E2705A7922719A79DB796271D9
:10910000A3710223E371544A544800232372126866
:10911000E260534A1268226123756375E375237612
:109120006383A383E3834F4B1B681BB2238413F039
:1091300059FC40B284F8220006F008FE3378002B78
:109140003EF400AE484B1B78002B7EF4FBAD05F0DF
:10915000A1FB464B5B7A032B0CBF454845480121D8
:1091600006F056F84449454810F0BDFC434909A8AB
:1091700013F0FAFE002109AA084678E506F0F6FA8F
:10918000B1E7082B7EF4DEAD384B5D7A35B1012DA9
:1091900029D03B4B00221A70FEF7D4BD05F07AFBB4
:1091A0003848012106F034F8374909A813F0DCFEED
:1091B000002109AA084605F089FB09A813F08EFED4
:1091C00032492E4810F08FFC2C4909A813F0CCFE30
:1091D00009AA0021032005F079FB09A813F07EFEFF
:1091E00005F08EFBD5E73378002BD2D01E4B1C78D0
:1091F000002CCED105F04EFB2248294606F008F897
:10920000234909A813F0B0FE09AA2146204605F01B
:109210005DFB09A813F062FE1C49184810F063FCBE
:10922000164909A813F0A0FE09AA2146D2E700BFFB
:10923000E63E0700EA3E070090E300205C4307009B
:10924000E88F0700F4E300200FD5002034DB002076
:109250002CDB0020A4A1002088D80020B8E4002046
:109260008CD8002024D6002058D8002004A3002049
:10927000A83E0700B83E07007943070015D5002037
:109280002DD60020683F07007D410700274D0700CD
:10929000F23F070070B5304BB0F90A201A802F4B0F
:1092A00090F90C201A702E4B42781A702D4A1368D0
:1092B000013313602C4B00221A7002780446E2B985
:1092C0002A4A2B492B4813F0D5FF2B49294813F084
:1092D000D1FF2A49274813F0CDFF264813F0A0F903
:1092E0002549274813F0C6FF2449254813F0C2FF3B
:1092F000BDE8704064201DF033BE224B5B7A023B18
:10930000012B28D8022A0FD11F4D027A41681F482D
:1093100006232B700FF042FE2B461D48BDE870401F
:10932000FA22012113F0C7BC104A1149114813F069
:10933000A1FF227817490F4813F09CFF0F490D48F1
:1093400013F098FF0B4813F06BF9227811490C4881
:1093500013F090FFC8E770BD12D5002014D500208F
:1093600010D5002028D600202DD600208E430700DF
:10937000EA3E070090E3002094430700E88F0700CF
:10938000F4E3002004A30020E0D40020E2D4002075
:1093900071E400209C43070070B51E4C0546002870
:1093A00036D01D4B1D491E4800221A701D4A13F06D
:1093B00061FF2A461C491A4813F05CFF1B491848F4
:1093C00013F058FF164813F02BF92A46164918488F
:1093D00013F050FF1549164813F04CFF64201DF0A0
:1093E000BFFD144B1D60144B5B7A023B012B134BEA
:1093F0001A6802F101021A6094BF07230223237046
:109400000F482346FA22BDE87040012113F053BCF7
:109410000823F4E7E0D400202DD60020EA3E070020
:1094200090E30020E63E0700AB430700E88F07000B
:10943000F4E3002030D6002004A3002024D600202E
:1094400071E4002030B5504A5049514D99B004465E
:10945000504813F00FFF22464F494E4813F00AFFC1
:109460004E494C4813F006FF4A4813F0D9F82246FB
:1094700049494B4813F0FEFE4849494813F0FAFEAB
:1094800064201DF06DFD297800297AD101231A226C
:1094900008A82B7007910FF08FFD05A82CF032F96A
:1094A0000598404C00F5E0400FA96E302CF09EF975
:1094B000149B3D4903F26C730393129B0293139B1D
:1094C000013301930F9B009307A8DDE9103210F0E0
:1094D000D3FA2D4A2D492F4813F0CCFE07AA334961
:1094E0002C4813F0C7FE2D492A4813F0C3FE294823
:1094F00013F096F807AA2D49294813F0BBFE274917
:10950000274813F0B7FE64201DF02AFD149B03F2D8
:109510006C732380139B0133A370129B2371119BE7
:109520006371109BA3710F9BE371214B1B7843B3B5
:10953000154A1649174813F09DFE1E49154813F0A9
:1095400099FE1649134813F095FE124813F068F877
:109550001849134813F08EFE1049114813F08AFE83
:1095600064201DF0FDFC02232B70E3790193A379A5
:10957000009363792279A178208806F07DF805F0C0
:109580007DFF19B030BD00BFBA430700EA3E0700B7
:109590002CD6002090E30020BF430700E88F07008F
:1095A000F4E300202CDB0020D6430700996307007A
:1095B00034DB0020F8430700F0B54FF080432DED79
:1095C000028BD3F83834032B85B020D1364A374983
:1095D000374813F04FFE3749354813F04BFE3649F4
:1095E000334813F047FE324813F01AF83149334834
:1095F00013F040FE3049314813F03CFE64201DF06A
:10960000AFFC0024204605B0BDEC028BF0BD2C4819
:109610002B4D13F01BFB0A24B0EE408A284613F0B2
:1096200015FB013C38EE008AF8D1B2EE067AC8EE9E
:10963000077A1D4A1D491E489FED228ADFED226AE6
:1096400027EE888ADFED217A68EE277A87EEA67A00
:10965000FCEEC77ACDED037A9DF80C4013F00AFEBC
:1096600018EE100A49F0F8FE06460F462246CDE9EC
:10967000006717490E4813F0FDFD0F490C4813F021
:10968000F9FD0B4812F0CCFF2246CDE900671049E6
:109690000A4813F0EFFD0849084813F0EBFD642079
:1096A0001DF05EFCAEE700BFB3930700EA3E070083
:1096B00090E300200E440700E88F0700F4E3002049
:1096C0006DE4002000007A440040834500007F43A1
:1096D0001544070007B52B4A2B492C4813F0CAFD47
:1096E0002B492A4813F0C6FD2A49284813F0C2FD29
:1096F000264812F095FF2649274813F0BBFD25495F
:10970000254813F0B7FD64201DF02AFC234B2448A4
:1097100001221A7013F07BF818B12248002113F0CF
:1097200040F8214813F0C4F92049214813F0D2F839
:1097300020491F4813F0DEF81F491D4813F0D2F8E6
:109740001E491B4813F0DEF81D49194813F0E2F8D2
:1097500000211C4813F01CF902211B4813F086F964
:1097600032230122009311460A23114813F071F8A5
:10977000164BD97A01B10121222003B05DF804EB28
:1097800013F02BBEE63E0700EA3E070090E3002000
:109790002F440700E88F0700F4E30020A1A1002078
:1097A000E4E40020CEE40020CDE400209592020005
:1097B000A9E40020999302008D7302002D74020029
:1097C00045940200B1E40020CBE4002004A3002073
:1097D00008B52B4A2B492C4813F04CFD2B492A483D
:1097E00013F048FD2A49284813F044FD264812F09A
:1097F00017FF2649274813F03DFD2549254813F05A
:1098000039FD64201DF0ACFB234B24480021197066
:1098100012F0C7FF224812F0FEFFD0B9184A1949CA
:10982000194813F027FD1F49174813F023FD184965
:10983000154813F01FFD144812F0F2FE194915489F
:1098400013F018FD1249134813F014FD64201DF0A5
:1098500087FB1549114812F0EBFF14490F4812F02D
:10986000EFFF4FF6FD710D4812F09BFF104BD97AB8
:1098700001B10121BDE80840222013F0AEBD00BFB8
:10988000E63E0700EA3E070090E30020444407005C
:10989000E88F0700F4E30020A1A10020CEE400201F
:1098A000E4E4002053440700DD730200B9730200B2
:1098B00004A300202DE9F04F012187B0222013F0EE
:1098C00075FD0121232013F071FD0121242013F0E7
:1098D0006DFDB348B34F13F0F1FB04F007FF387090
:1098E000002800F0DA81B049B04810F0FCF8AF4829
:1098F000012105F08DFCAE4804F06EFFAD4804F088
:109900006BFF0021222013F068FD0223AA480622E3
:109910004FF4E13112F08AFE4FF08043D3F838342F
:10992000032B40F0DA814FF4FA601DF019FB03239A
:10993000022203ACA14900939C48002310F09CF83C
:109940009A49204613F010FB21469D4813F05CF91C
:10995000204613F0C3FA0121232013F03EFD00211D
:10996000232013F03AFD0021242013F036FD03F0EC
:1099700075F8D0B9934A94498F4813F07BFC93490A
:109980008D4813F077FC92498B4813F073FC8A489A
:1099900012F046FE8D498F4813F06CFC8C498D48BF
:1099A00013F068FC64201DF0DBFA03F041F8D0B935
:1099B000844A8549804813F05DFC87497E4813F04E
:1099C00059FC83497C4813F055FC7B4812F028FE73
:1099D0008149804813F04EFC7D497E4813F04AFCD3
:1099E00064201DF0BDFA02F0B5FFD0B9754A764982
:1099F000714813F03FFC79496F4813F03BFC744900
:109A00006D4813F037FC6C4812F00AFE7349714838
:109A100013F030FC6E496F4813F02CFC64201DF0ED
:109A20009FFA02F0ADFFD0B9664A6749624813F069
:109A300021FC6B49604813F01DFC65495E4813F03A
:109A400019FC5D4812F0ECFD6549624813F012FC08
:109A50005F49604813F00EFC64201DF081FA02F0AB
:109A6000A5FFD0B9574A5849534813F003FC5D4944
:109A7000514813F0FFFB56494F4813F0FBFB4E488B
:109A800012F0CEFD5749534813F0F4FB50495148AA
:109A900013F0F0FB64201DF063FA03F0EDFCD0B985
:109AA000484A4949444813F0E5FB4F49424813F0FE
:109AB000E1FB4749404813F0DDFB3F4812F0B0FDA1
:109AC0004949444813F0D6FB4149424813F0D2FBC0
:109AD00064201DF045FA00F043FED0B9394A3A49F6
:109AE000354813F0C7FB4149334813F0C3FB3849ED
:109AF000314813F0BFFB304812F092FD3B49354826
:109B000013F0B8FB3249334813F0B4FB64201DF066
:109B100027FA374D374E002000F0FEFC6B7A294AB9
:109B200029492548023B012B00F2FF8013F0A2FBDC
:109B30003149214813F09EFB25491F4813F09AFB39
:109B40001D4812F06DFD2C49224813F093FB20496B
:109B5000204813F08FFB64201DF002FA012003F06F
:109B600063FF3070337813B1244804F035FE05F0FC
:109B7000AFFC234E134A14493070002800F0F580E2
:109B80000D4813F077FB1F490B4813F073FB104986
:109B9000094813F06FFB084812F042FD34E000BFA3
:109BA000ECE400200ED50020683F070015D500200A
:109BB000754407008244070090E300209C4407009E
:109BC00018E40020E63E0700EA3E0700B244070022
:109BD000E88F0700F4E30020DE4407000545070096
:109BE000334507005D4507008B450700B04507007A
:109BF00004A300200DD50020CC450700F645070042
:109C000034DB0020014607008A498B4813F032FB01
:109C10008A49894813F02EFB64201DF0A1F905F054
:109C20002DFC94E803002BF04CFD02F0EBFE3378A2
:109C300013B1834804F0D0FD05F01AFE814E307058
:109C4000002840F0AC80804A8049814813F012FB24
:109C500080497F4813F00EFB78497D4813F00AFBDA
:109C60007B4812F0DDFC7B49734813F003FB73491A
:109C7000714813F0FFFA64201DF072F9337813B1C4
:109C8000754804F0A9FD6B7A032B00F2F580DFE83C
:109C900013F03201A301AC01B9016B4A6B496C4866
:109CA00013F0E8FA6D496A4813F0E4FA634968482A
:109CB00013F0E0FA664812F0B3FC68495E4813F00E
:109CC000D9FA5E495C4813F0D5FA64201DF048F9D2
:109CD0003B78002B3FF415AE05E613F08AFBDFF866
:109CE00070A106464FF0000B41F287384FF0000993
:109CF000504612F080FC00287FF419AE13F079FB77
:109D0000841B6BEB4B05A04579EB0503FFF60FAE0B
:109D100064201DF025F9232013F064FBB0FA80F1D4
:109D20004909232013F059FBE2E795F80B80B8F1BD
:109D3000000F7FF4FBAE13F09DFA4949444813F03D
:109D400099FA3E49424813F095FA414812F068FCEE
:109D50004349394813F08EFA3849374813F08AFAE4
:109D600064201DF0FDF84046F9E6394813F082FA08
:109D70003C49374813F07EFA3049354813F07AFAF7
:109D8000334812F04DFC37492B4813F073FA2B4936
:109D9000294813F06FFA64201DF0E2F847E705F058
:109DA00031FE3070D0B9284A2849294813F062FAA8
:109DB0002D49274813F05EFA2049254813F05AFA36
:109DC000234812F02DFC28491B4813F053FA1B4975
:109DD000194813F04FFA64201DF0C2F81A4A1B49C3
:109DE0001B48DFF88C90DFF88C8013F043FA327850
:109DF0001E491748002A14BF4A46424613F03AFA51
:109E00000E49134813F036FA114812F009FC327863
:109E100016490948002A14BF4A46424613F02AFA56
:109E20000649054813F026FA64201DF099F802F05F
:109E3000D3FD23E701460700F4E30020E88F070085
:109E40000B4607000FD50020E63E0700EA3E07005C
:109E500090E3002012460700564607008E44070094
:109E6000E0450700FE450700234607003946070086
:109E70006A4407006F440700634A6449644813F06A
:109E8000F9F96449624813F0F5F96349604813F041
:109E9000F1F95F4812F0C4FB5E49604813F0EAF93B
:109EA0005D495E4813F0E6F964201DF059F83B78EF
:109EB0000BB35B495B480FF016FE5A49204613F07E
:109EC00053F800212246084604F000FD204613F016
:109ED00005F8554953480FF006FE5249204613F045
:109EE00043F822460021012004F0F0FC204612F045
:109EF000F5FF04F005FD4D4804F06EFC4C4812F0EF
:109F00005DFD10B94B4804F067FCFFF7E3FB4FF42D
:109F10007A7349496A684348B2FBF3F20FF0ACFD2B
:109F2000404804F059FC454A45480123002112F0FD
:109F3000B8FE6A6822B100234148194612F0BBFE00
:109F4000404A3F480023012112F0ABFE00233E4A65
:109F50003B48022112F0A5FEAB7A33B1384800230A
:109F60004EF66022022112F0A6FE0123374A344841
:109F7000032112F096FE364B1B785BB12C4812F091
:109F80001DFD38B932230122009332480A231146BD
:109F900012F05FFC1C4A1D491D4813F06BF92E4955
:109FA0001B4813F067F91C49194813F063F9184866
:109FB00012F036FB2849194813F05CF91649174886
:109FC00013F058F964201CF0CBFF0121234813F053
:109FD000E4F907B0BDE8F08FFFF7FAFB204804F082
:109FE000FBFB1D4804F0F8FB91E71E4804F0F4FB6E
:109FF0000F4812F0E3FC10B90E4804F0EDFBFDF73A
:10A0000069FA84E71848F1E7E63E0700EA3E0700F0
:10A0100090E3002061460700E88F0700F4E300208A
:10A020008246070015D50020944607007D410700B1
:10A03000B4E40020A4460700B1410700CD7502003A
:10A0400071E40020C97C020055E90200F9E1020038
:10A05000A1A10020A9E40020B246070009E40020E5
:10A06000544007008C4107009D41070070470000E5
:10A0700002481822002106F01DBB00BF34D6002084
:10A080002DE9F04F994C9A4DDFF87CA2DFF87CB2B5
:10A0900089B0204606F062FC204610EE107A06F0E9
:10A0A0007CFC20468DED050A06F096FC914A92490B
:10A0B0008DED060A284613F0DDF8204606F04EFC2A
:10A0C000204610EE108A06F049FC384610EE106A61
:10A0D00049F0C2F9894B002249F016FA49F0C4FC54
:10A0E00007B2404649F0B8F98046304689460297A3
:10A0F00049F0B2F9814B824E002249F005FA4246FE
:10A100004B46CDE900015146284613F0B3F83146DD
:10A11000284613F0AFF8284612F082FA204606F0DF
:10A120001DFC204610EE108A06F018FC40468DED0E
:10A13000070A49F091F9079B02978046184689461D
:10A1400049F08AF96D4B002249F0DEF94B46424650
:10A15000CDE900015146584613F08CF83146584677
:10A1600013F088F864201CF0FBFE624A624928461E
:10A1700013F080F8204606F010FC204610EE107A0E
:10A1800006F00BFC059810EE10AA49F065F90022C4
:10A190005A4B49F0B9F949F067FC03B238460593C8
:10A1A00049F05AF9059B029380465046894649F08A
:10A1B00053F9524B534FDFF858A1002249F0A4F94C
:10A1C00042464B46CDE900013946284613F052F885
:10A1D0003146284613F04EF8284612F021FA204660
:10A1E00006F0DBFB204610EE108A06F0D6FB404658
:10A1F0008DED070A49F030F9059B0293079B8046D5
:10A200001846894649F028F93C4B002249F07CF970
:10A210004B464246CDE900013946584613F02AF82C
:10A220003146584613F026F864201CF099FE314A56
:10A230003149284613F01EF8204606F0CDFB204693
:10A2400010EE108A06F0C8FB06988DED050A49F05D
:10A2500003F92A4B002249F057F949F005FC07B2EF
:10A26000404649F0F9F8804605980297894649F03A
:10A27000F3F8224B002249F047F942464B46CDE91C
:10A2800000015146284612F0F5FF3146284612F0EB
:10A29000F1FF284612F0C4F9204606F09DFB204647
:10A2A00010EE105A06F098FB284610EE108A49F07E
:10A2B000D3F8044640460D46029749F0CDF80F4BBF
:10A2C000002249F021F92246CDE900012B465146F2
:10A2D000584612F0CFFF3146584612F0CBFF6420AB
:10A2E00009B0BDE8F04F1CF03BBE00BF34D60020E3
:10A2F00090E30020C0460700EA3E070000408F4080
:10A30000E88F0700D3460700C4460700F4E30020A7
:10A31000E246070007B573480DF10701312206F048
:10A3200065FB9DF8073059061BD56F4A6F49704889
:10A3300012F0A0FF9DF807206E496D4812F09AFFB9
:10A340006D496B4812F096FF694812F069F9694946
:10A350009DF80720694812F08DFF6749674812F0A1
:10A3600089FF64201CF0FCFD9DF807309A0617D584
:10A370005D4A5E495E4812F07DFF61495C4812F01B
:10A3800079FF5D495A4812F075FF594812F048F9B3
:10A390005B495A4812F06EFF5749584812F06AFF5D
:10A3A00064201CF0DDFD9DF80730DB0617D54E4A12
:10A3B0004E494F4812F05EFF52494D4812F05AFF85
:10A3C0004D494B4812F056FF494812F029F94D49C2
:10A3D0004A4812F04FFF4849484812F04BFF6420AA
:10A3E0001CF0BEFD9DF80730180717D53E4A3F49BF
:10A3F0003F4812F03FFF44493D4812F03BFF3E49C1
:10A400003B4812F037FF3A4812F00AF93E493B4800
:10A4100012F030FF3849394812F02CFF64201CF04C
:10A420009FFD9DF80730590717D52F4A2F4930480F
:10A4300012F020FF35492E4812F01CFF2E492C48FF
:10A4400012F018FF2A4812F0EBF830492B4812F0AE
:10A4500011FF2949294812F00DFF64201CF080FDEE
:10A460009DF807309A0717D51F4A2049204812F057
:10A4700001FF27491E4812F0FDFE1F491C4812F03B
:10A48000F9FE1B4812F0CCF821491C4812F0F2FEEC
:10A4900019491A4812F0EEFE64201CF061FD9DF887
:10A4A0000730DB0717D5104A1049114812F0E2FEB9
:10A4B00018490F4812F0DEFE0F490D4812F0DAFE7F
:10A4C0000B4812F0ADF813490C4812F0D3FE0A49BC
:10A4D0000A4812F0CFFE64201CF042FD03B05DF884
:10A4E00004FB00BF34D60020C0460700EA3E070048
:10A4F00090E30020F1460700E88F0700F4E3002016
:10A50000084707000F470700154707001C470700CB
:10A51000224707002947070073B500210446112090
:10A5200012F044FF5D4812F0C9FD5D4B6CB3002290
:10A530009A800A22DA804FF481721A8140F2011265
:10A540005A81574806F0E2FA054620B3554A564963
:10A55000564812F08FFE5649544812F08BFE55496A
:10A56000524812F087FE514812F05AF850495248AA
:10A5700012F080FE4F49504812F07CFE64201CF01F
:10A58000EFFC0024204602B070BD02229C80DC80DB
:10A590001A815C81D5E7002C38D02A22302140482E
:10A5A0008DF80720012606F0CBF8082232213C481E
:10A5B0008DF8072006F0C4F83246332138488DF86C
:10A5C000076006F0BDF824220DF10701344806F0BB
:10A5D0000DFA9DF80720324822F00C0242F00802E2
:10A5E00024218DF8072006F0ABF8602222212C48A8
:10A5F0008DF8072006F0A4F82A462521284806F001
:10A600009FF827483246212106F09AF8002520229B
:10A610000DF1070122488DF8075006F0E7F99DF883
:10A6200007201F4842F0080220218DF8072006F07D
:10A6300087F864201CF094FC1E220DF107011848D5
:10A640008DF8075006F0D2F99DF80720144842F023
:10A6500090021E218DF8072006F072F864201CF08D
:10A660007FFC4CB1FFF756FE14490422112011F073
:10A6700095FFFFF705FD85E720220DF1070108484A
:10A6800006F0B4F99DF80720054802F040022021A9
:10A690008DF80720012406F053F873E7ECE400205E
:10A6A00034D60020C0460700EA3E070090E30020B1
:10A6B0002F470700E88F0700F4E300206DA0020099
:10A6C00010B50023012210F0010F01F1FF311CBF72
:10A6D00002FA01F4234340080029F4D1184610BDC2
:10A6E0000D4810B5002148F205040B029BB2082268
:10A6F00013F4004F02F1FF324FEA430318BF6340E7
:10A7000012F0FF029BB2F3D10131B1F5807F20F846
:10A71000023BEAD110BD00BF48D600202DE9F04130
:10A720000025DFF8388006460F462C46BD420DDA7C
:10A73000705D0821FFF7C4FF80EA1423DBB2013506
:10A7400038F8133083EA0424A4B2EFE7102120463E
:10A75000FFF7B6FF80B2BDE8F08100BF48D6002009
:10A7600008B50221092012F021FE06490322092022
:10A7700011F014FF0449054801236422FCF7B2FDDF
:10A78000012008BD75AD020011AE020018D60020F0
:10A790002DE9F04FC74D91B012F02BFED5E9002303
:10A7A0000024811A64EB030300910193DDE9002387
:10A7B00040F6B8300021904271EB0303A346A24655
:10A7C000A146A0462746264677DB12F012FED5E9C1
:10A7D0000023811A63EB430302910393DDE9022313
:10A7E000B2F5C87F73F1000373DA12F002FED5E907
:10A7F0000023811A63EB430304910593DDE90434DC
:10A80000B3F5C87F74F1000380F2858012F0F1FD8A
:10A81000D5E90023811A63EB430306910793DDE931
:10A820000634B3F5167F74F1000380F2998012F0BC
:10A83000E0FDD5E90023811A63EB430308910993F6
:10A84000DDE90834B3F5487F74F1000380F2AE808F
:10A8500012F0CFFDD5E90023811A63EB43030A917F
:10A860000B93DDE90A34B3F5966F74F1000380F2BF
:10A87000C08012F0BEFDD5E90023811A63EB4303CB
:10A880000C910D93DDE90C34B3F5AF6F74F1000357
:10A8900080F2D28012F0ADFDD5E90023811A63EB7E
:10A8A00043030E910F93DDE90E34B3F5C86F74F1D5
:10A8B000000380F2E280082474E0092012F092FD87
:10A8C000002882D17C4B1B78002B3FF47EAF022402
:10A8D00068E0794B1B78012B87D1092012F082FDAB
:10A8E000012882D10023C82C10D00920009312F037
:10A8F00079FD009B012804BF0133DBB20120013444
:10A900000093E4B21CF02CFB009BECE7C62B7FF617
:10A910006CAF002446E0684B1B78022B7FF476AFC7
:10A92000092012F05FFD01287FF470AF0024BBF115
:10A93000C80F10D0092012F055FD012808BF0134BE
:10A940004FF001000BF1010B08BFE4B25FFA8BFB83
:10A950001CF006FBEBE7C62C7FF658AF012421E084
:10A96000554B1B78032BDCB27FF461AF4FF0000B2B
:10A97000BAF1C80F12D0092012F034FD012808BF27
:10A980000BF1010B4FF001000AF1010A08BF5FFA59
:10A990008BFB5FFA8AFA1CF0E3FAE9E7BBF1C60F1A
:10A9A0007FF645AF204611B0BDE8F08F424B1B78D3
:10A9B000042BDCB27FF44CAF4FF0000AB9F1C80FA2
:10A9C00012D0092012F00EFD012808BF0AF1010A79
:10A9D0004FF0010009F1010908BF5FFA8AFA5FFA36
:10A9E00089F91CF0BDFAE9E7BAF1C60F7FF630AF7E
:10A9F000D8E7314B1B78052BDCB27FF43AAF4FF030
:10AA00000009B8F1C80F12D0092012F0EBFC0128A0
:10AA100008BF09F101094FF0010008F1010808BF62
:10AA20005FFA89F95FFA88F81CF09AFAE9E7B9F158
:10AA3000C60F7FF61EAFB5E71F4B1B78062BDCB2A7
:10AA40007FF428AF4FF00008C82F11D0092012F072
:10AA5000C9FC012808BF08F101084FF0010007F107
:10AA6000010708BF5FFA88F8FFB21CF079FAEBE73C
:10AA7000B8F1C60F7FF60EAF94E70F4B1B78072B8C
:10AA8000DCB27FF418AF0025C82E0FD0092012F0D9
:10AA9000A9FC012808BF01354FF0010006F10106AD
:10AAA00008BFEDB2F6B21CF05BFAEDE7C62D7FF6FB
:10AAB00002AF77E750D8002059D8002073B58B4DEE
:10AAC0008B4C6A7A637A9A4231D003F0E3FE00211C
:10AAD000884804F09DFB6B6863606B7A86486372FC
:10AAE0006B89638103F078FE844803F075FE03F000
:10AAF00007FF02F0E3F840F6B8301CF031FA637A51
:10AB00007F48012B4FF000014FF0320640F0998052
:10AB100011F047FE00227B4800960A23114611F0EF
:10AB200098FE794811F077FE784812F08DF8EA7AAD
:10AB3000E37A9A4207D06B7A023B012B94BF012043
:10AB4000002002F071FF6A6863689A4203D16A8943
:10AB500063899A4213D003F09DFE674803F03CFEE0
:10AB6000664803F039FE03F0CBFE6B6863606B89C7
:10AB7000638102F0A3F840F6B8301CF0F1F96448A4
:10AB800011F092FF002869D0624811F019FF624B62
:10AB90001978884205D000395E4818BF012111F0AC
:10ABA00011FF5E4811F01EFF5D4B1978884202D0FC
:10ABB0005A4811F019FF5B4811F026FF5A4B1978DB
:10ABC000884202D0574811F021FF584D58482E783E
:10ABD00011F02CFF86420BD02978554811F032FF36
:10ABE00032230122009347480A23114611F031FE17
:10ABF00003F050FE637A012B71D06CD9023B012B1C
:10AC00006FD94FF47A7362684A49B2FBF3F24A484B
:10AC10000EF032FF484803F0DFFD626822B10023E6
:10AC20004648194612F047F8A37A002B5BD04348F8
:10AC300000234EF66022022102B0BDE8704012F0FF
:10AC40003AB811F0AEFD012200960A2311462D48B4
:10AC500011F0FFFD2E4811F02BFF65E7384D394804
:10AC6000296811F058FD374811F053FD29688842D2
:10AC700002D0344811F04FFD334811F05BFD334BE7
:10AC80001978884202D0304811F056FD304D3148D5
:10AC90002E7811F060FD864203D029782D4811F0FE
:10ACA0005CFD2D4811F068FD2C4B1978884202D0CC
:10ACB000294811F063FD2A4811F071FD294B1978DC
:10ACC000884202D0264811F07BFD4FF6FD710C48FA
:10ACD00011F067FD8CE7244803F07EFD91E72348DF
:10ACE000FAE72348F8E702B070BD00BFD0A100200A
:10ACF00004A3002050470700574707006747070095
:10AD0000CEE40020A9E40020E4E4002008E40020D0
:10AD1000CDE40020B5E400205BD80020B8E400209A
:10AD20005DD80020C0E400205ED800205CD8002060
:10AD3000CAE40020B141070015D5002071E40020CD
:10AD400068D80020D9E40020DAE400206CD8002084
:10AD500063D80020DBE40020DCE4002064D800207D
:10AD6000DEE400206DD800207D410700544007003C
:10AD70009D410700F8B512F03CFB1C4D1C4B1D4CCF
:10AD80000021C3E9000112F034FBD5E90032C61AF4
:10AD900062EB4207C92E77F1000308DB12F029FBB2
:10ADA00000236B60237828600133DBB22370124AE2
:10ADB0001249134812F05EFA22781249104812F034
:10ADC00059FA11490E4812F055FA0D4811F028FCB5
:10ADD00022780C490D4812F04DFA0B490B4812F03D
:10ADE00049FABDE8F84064201CF0BAB848D8002001
:10ADF00050D8002059D8002078470700EA3E0700C5
:10AE000090E300207C470700E88F0700F4E3002070
:10AE10002DE9F04F87B0FFF7BBFC072800F29A82BC
:10AE2000DFE810F05107B2040800D60200019300D9
:10AE3000490036008F4B904A00241C708F4B002035
:10AE40000021C3E900018E498E4812F013FA8E49A1
:10AE50008C4812F00FFA8D498A4812F00BFA894893
:10AE600011F0DEFB88498A4812F004FA87498848C5
:10AE700012F000FA64201CF073F8864B1B782BB19B
:10AE8000204607B0BDE8F04F03F042BD0120F8E7CF
:10AE9000784B00221A70794B00200021C3E9000191
:10AEA0007D4B1C783CB903F0F5FC7C48214604F04E
:10AEB000AFF91CF06CF86F4B00221A706F4B00203A
:10AEC0000021C3E90001744B1C78002C31D0744C74
:10AED0002378052B0DD1734B7348D97A1022227039
:10AEE00001919B7A00937149714B09781B7803F0AB
:10AEF00037FD614A6249634812F0BCF922786D4916
:10AF0000604812F0B7F961495E4812F0B3F95D4844
:10AF100011F086FB227867495D4812F0ABF95B4976
:10AF20005B4812F0A7F9642007B0BDE8F04F1CF0B1
:10AF300017B803F0AFFC6048214604F069F95F4898
:10AF400007B0BDE8F04F11F07FBE4A4B00221A70E7
:10AF50004A4B00200021C3E900014F4B1B78002B16
:10AF600000F0F8814E4C2378052B16D8DFE803F06B
:10AF7000031515344050524811F096FD0128494BF5
:10AF80001FD1D97A4F480422227001919B7A4E49F1
:10AF900000930978FF2303F0E3FC374A3849394826
:10AFA00012F068F922784949364812F063F93749B6
:10AFB000344812F05FF9334811F032FB22784349EC
:10AFC000AAE7D97A42480522227001919B7A414929
:10AFD00000930978FF23DEE7324B3F48D97A0322FA
:10AFE0005A7201919B7A3D49009309780523D2E773
:10AFF00007233B48237011F019FD2A4AD37A0193A5
:10B00000937A00932278C3B2284927480978C2E787
:10B01000244B0E22D97A227001919B7A0093314BF6
:10B020001B78F1E7134B00221A70144B002000210B
:10B03000C3E90001184B1B78002B00F0D180184C9D
:10B040002378062B5DD8DFE813F007004F0070006F
:10B050007E008800B900C300124903224B7AC87AE7
:10B0600022700190897A00910233DBB21B491A48A1
:10B07000097844E059D800207847070050D80020CC
:10B08000EA3E070090E300208C470700E88F0700A6
:10B09000F4E30020B8A4002058D800209647070009
:10B0A0005AD80020D0A10020C8A10020CCA10020A7
:10B0B0006DD80020A1470700B247070008E4002030
:10B0C000CDE40020A4A20020B8A20020B8470700C9
:10B0D000D0A20020E8A2002064A2002078A20020D4
:10B0E000CAE4002064D800209C4B9D48D97A0022F5
:10B0F000227001919B7A9B4900930978FF2303F00A
:10B100002FFC994A99499A4812F0B4F82278994943
:10B11000974812F0AFF89849954812F0ABF8944868
:10B1200011F07EFA22789349F6E68C4A9349937A95
:10B13000934883F001039372D27ACDE90032FF2362
:10B1400009780222DBE7854B02225A72DA7A0192F1
:10B150009B7A00930322042388E70A2389482370FB
:10B1600011F064FCC0B20C280ED8DFE800F0071B19
:10B170001B211B21211B1B1B1B1B2100824B00229F
:10B180001A70824B05221A70744A814BD17A1B784F
:10B190000191927A00920A332278DBB27D497E488F
:10B1A0000978ACE7784B00221A70784B0722EAE75F
:10B1B000754B00221A70754B0A22E4E7674B0D228B
:10B1C000D97A227001919B7A0093744B1B78E5E742
:10B1D000624BDA7A01929B7A009306220023DDE724
:10B1E0006F4811F061FC012840F0B4806D4E727A16
:10B1F000012A00F0AF806C4F3A78002A40F0AA8014
:10B200006A4D6B4B28701B780BB903F081FB564AD3
:10B2100056495748DFF8509112F02CF865495448C8
:10B2200012F028F85449524812F024F8504811F00E
:10B23000F7F96049604812F01DF84F495E4812F076
:10B2400019F864201BF08CFE00215C4811F03DFDD4
:10B250004C4811F0EBFB5A4B53F8203059480593FA
:10B2600011F0C0FB00248046059B33F81430002BFE
:10B2700060D03E493E484A4611F0FCFF2246524902
:10B280003B4811F0F7FF3C49394811F0F3FF3848CB
:10B2900011F0C6F922464C49474811F0EBFF3649F8
:10B2A000454811F0E7FF64201BF05AFEE1B2454823
:10B2B00011F09AFB64201BF053FE0020FCF786F986
:10B2C00012F097F84FF0000A83463A7872B34FF4C1
:10B2D0007A701BF045FE12F08CF8B0EB0B03029372
:10B2E0006AEB4A030393DDE9020142F21072002384
:10B2F00082428B41E9DA4A461C491D4811F0BAFFE7
:10B3000032491B4811F0B6FF1B49194811F0B2FF32
:10B31000174811F085F92D49274811F0ABFF164960
:10B32000254811F0A7FF64201BF01AFE4FF4FA60C5
:10B330001BF016FE0134102C96D12248414611F024
:10B3400053FB726822B100231C48194611F0B3FC6C
:10B3500000232B7007B0BDE8F08F00BFD0A1002004
:10B36000ECA2002000A3002078470700EA3E070077
:10B3700090E30020C9470700E88F0700CCA2002017
:10B38000BCA20020CAE4002062D8002060D80020BF
:10B390005DD80020CCA10020C8A1002063D80020E7
:10B3A000CDE4002004A300202DD60020E1D400200D
:10B3B000B8A40020DA470700F4E3002071E400207D
:10B3C00068A40020B8E40020ED470700FB47070011
:10B3D0008E4B00221A708E4B00240025C3E90045D5
:10B3E0008C4B1B78002B00F08D818B4C2378102B1D
:10B3F0002BD8DFE813F011001D003E004900560075
:10B4000085009200A5002A00D100E400F9004B015C
:10B410005A0169012A007701804B0222D97A2270F1
:10B4200001919B7A0093FF237D497E4809780AE0C9
:10B430007A4B7D48D97A0022227001919B7A7B4910
:10B4400000930978FF2303F08BFA794A79497A4807
:10B4500011F010FF22787949774811F00BFF7849F5
:10B46000754811F007FF744811F0DAF82278734933
:10B4700052E56A4AD37A83F00103D3720193937A37
:10B4800000930222FF23CFE7644B6E496E480122EE
:10B490005A72DA7A01929B7A0093032309781A464A
:10B4A000D1E709236948237011F0C0FAC0B20C2813
:10B4B00014D8DFE800F007070707070D1C07222252
:10B4C00022221C00624B00221A70624B052204E00B
:10B4D0005F4B00221A705F4B04221A704F4BDA7ACE
:10B4E00001929B7A00935C4B1B78227811E0584BB9
:10B4F00000221A70574B0622EFE7554B0222E3E772
:10B50000464B0C22D97A227001919B7A0093534BBF
:10B510001B7853495348097895E7404B5A6842B124
:10B5200042F20F718A428ABFA2F51C520022103AE1
:10B530005A60DA7A01929B7A00930622FF23E8E7A9
:10B54000494D2B7833B3013BDBB2394A39493A488C
:10B550002B7011F08FFE2A784449374811F08AFE8B
:10B560003749354811F086FE334811F059F82A78EA
:10B570003E493F4811F07EFE31493D4811F07AFEC8
:10B5800064201BF0EDFC254BDA7A01929B7A009344
:10B590002B78AAE70C23D8E72F4A2D49137809788E
:10B5A00099420BBF2B4B03F1FF331B78DBB21370B7
:10B5B0001A4AD17A0191927A00920922A9E72D4A7A
:10B5C0002D491378097899420BBF2C4B03F1FF33B7
:10B5D0001B78DBB21370114BDA7A01929B7A0093DD
:10B5E0001D4B0A221B7894E7254A26491368A3F5C8
:10B5F000C333A03B8B4298BF234B1360074BDA7ACF
:10B6000001929B7A00930B22FF2382E759D80020F6
:10B6100050D8002058D800205AD80020D0A10020AF
:10B62000CCA20020BCA20020ECA2002000A300209D
:10B6300078470700EA3E070090E30020174807001C
:10B64000E88F070078A2002064A20020CAE400204E
:10B6500061D800205FD800205DD800206CD8002081
:10B66000CCA10020C8A100205CD800200D48070014
:10B67000F4E300205ED8002062D8002060D80020CB
:10B6800068D800207F47A1198047A1197E4A117808
:10B6900006291CBF01F1FF33DBB213707B4AD17A5C
:10B6A0000191927A00920C2233E7794A13784BB1D8
:10B6B000013BDBB21370754AD17A0191927A009204
:10B6C0000D2226E70923F5E7724A13780BB1581EBD
:10B6D000C0B26E4B1070DA7A01929B7A00930E2200
:10B6E000034616E76C4A1378052B1ABF03F1FF33A4
:10B6F000DBB216231370654AD17A0191927A0092D7
:10B70000102206E7654811F0CFF901287FF422AE38
:10B71000634B1B78002B7FF41DAE624B1B780BB97B
:10B7200003F0F6F8604A6149614811F0A3FD6149F0
:10B730005F4811F09FFD60495D4811F09BFD5C483A
:10B7400010F06EFF5B495D4811F094FD5A495B486B
:10B7500011F090FD64201BF003FC0021584811F00B
:10B76000B4FA584B012200201A70FBF72FFF564BFA
:10B770005A68002A3FF4EEAD00235148194607B03D
:10B78000BDE8F04F11F097BA504B514D514C00228B
:10B790001A70514B00210020C3E9000129780029CB
:10B7A00040F03581464811F090FA0121444811F0EB
:10B7B0008CFA4348022111F088FA3A4B1B7813B9EE
:10B7C000012003F0A5F801233F4A2B7000232370CA
:10B7D0002E4B51685960517A52895A812F485972BB
:10B7E00011F062F90546304A30493148002D00F029
:10B7F0008D8011F03FFD39492D4811F03BFD2E4958
:10B800002B4811F037FD2A4810F00AFF33492B4826
:10B8100011F030FD2849294811F02CFD64201BF05F
:10B820009FFB2F4811F0DEF82E4B18702E4811F0B8
:10B83000FDF82E4B18702E4811F0C2F82D4B1870E1
:10B840002D4811F0E1F82D4B18700023CDE900339D
:10B8500022782B492B48097803F082F8124A1349C1
:10B86000134811F007FD22782749114811F002FD15
:10B8700011490F4811F0FEFC0D4810F0D1FE22785E
:10B880002149FFF749BB00BF6CD80020D0A10020A0
:10B8900063D8002064D800206DD80020CDE40020BB
:10B8A0002DD60020B8A4002078470700EA3E070004
:10B8B00090E3002028480700E88F0700F4E3002009
:10B8C00071E4002002D5002004A3002059D80020F4
:10B8D00058D800205AD8002050D800203E480700F1
:10B8E000B8E400205DD80020CAE400205CD8002025
:10B8F000B5E400205BD80020C0E400205ED8002022
:10B9000000A30020ECA200206148070011F0B2FC67
:10B91000A749A84811F0AEFCA749A64811F0AAFC17
:10B92000A44810F07DFEA249A44811F0A3FCA2494E
:10B93000A24811F09FFC64201BF012FB2946A0488E
:10B94000A04D10F02EFFA04810F0E3FE28609F48A5
:10B9500010F0F0FE9E4B18709E4810F0FCFE9E4BBF
:10B9600018709E4810F008FF9D4B18709D4810F00D
:10B9700016FF9D4B9D4A18709D498E4811F07AFC28
:10B98000286847F057FD88A3D3E9002347F0E6FE77
:10B9900006468D480F4610F0BCFE47F04BFD82A3D3
:10B9A000D3E9002347F0DAFE32463B46CDE90001F9
:10B9B0009049804811F05EFC7F497E4811F05AFCA6
:10B9C0007C4810F02DFE286847F034FD76A3D3E9BB
:10B9D000002347F0C3FE06467B480F4610F099FE51
:10B9E00047F028FD70A3D3E9002347F0B7FE3246A5
:10B9F000CDE900013B467F49704811F03BFC6E49A0
:10BA00006E4811F037FC64201BF0AAFA1DE723787A
:10BA1000102B3FF623AF01A252F823F061BA0200C7
:10BA200073BA020085BA020089BA0200A3BA020002
:10BA3000C1BA0200ADBC0200C5BA02001FBB0200C1
:10BA40003BBB02005FBB020083BB020035BC0200AF
:10BA500053BC020071BC02005DB802008FBC020042
:10BA60000122654B2270D97A01919B7A0093FF23C2
:10BA700022E0614B0022D97A227001919B7A0093D7
:10BA8000FF23E6E60622ECE75B4B5C495C480022BC
:10BA90005A72DA7A01929B7A009309780223032280
:10BAA000DAE65549574BC87A1B7808222270019074
:10BAB000897A00910A33DBB2534954480978CBE6BE
:10BAC0000B22CEE7524D494A2B78494939480C2B75
:10BAD0001ABF0133DBB200232B7011F0CBFB2A78A5
:10BAE0004C49344811F0C6FB3349324811F0C2FBCF
:10BAF000304810F095FD2A784649304811F0BAFBDD
:10BB00002D492E4811F0B6FB64201BF029FA3A4B60
:10BB1000DA7A01929B7A00932B782278CCE7394A23
:10BB20001378B3FA83F35B091370334AD17A019126
:10BB3000927A00920A330822BEE7374A37491378CF
:10BB4000097899420BBF364B01331B78DBB2137077
:10BB5000294AD17A0191927A00920922ACE7314ABE
:10BB600031491378097899420BBF304B01331B7868
:10BB7000DBB21370204AD17A0191927A00920A22A4
:10BB80009AE7104A2A49136803F5C333A0338B425E
:10BB900094BF13601160184BDA7A01929B7A00937C
:10BBA0000B22FF2388E700BF0000000084D79741E5
:10BBB0003E48070090E30020E88F0700F4E30020F0
:10BBC000CEE4002068D80020D9E40020DAE4002088
:10BBD0006CD80020DBE4002063D80020DCE40020E7
:10BBE00064D80020DEE400206DD8002078470700EC
:10BBF000EA3E070053480700D0A1002078A20020A9
:10BC000064A200205BD80020CCA10020C8A10020A5
:10BC10005CD800200D4807005DD800205FD80020C8
:10BC200061D800205ED8002060D8002062D80020B3
:10BC300000703839574A13780C2B1ABF0133DBB226
:10BC400006231370544AD17A0191927A00920C2201
:10BC500032E7524A1378092B1ABF0133DBB20023B3
:10BC600013704D4AD17A0191927A00920D2223E706
:10BC70004B4A1378032B1ABF0133DBB20023137036
:10BC8000454AD17A0191927A00920E2214E7454AF0
:10BC90001378162B1ABF0133DBB2052313703E4A0B
:10BCA000D17A0191927A0092102205E73A4A5368BC
:10BCB00003F51C5310335360D37A0193937A0093A6
:10BCC00006220023F8E6384B00221A70374B00207A
:10BCD0000021C3E90001364B1A78002A3FF43AAB41
:10BCE000344C2278102A0ED8DFE802F009222222F2
:10BCF000222248303030303C3C3C3C0D3C0000229D
:10BD00001A70FEF7DBFE2C4A2C492D4811F0B2FACE
:10BD100022782C492A4811F0ADFA2B49284811F015
:10BD2000A9FA274810F07CFC22782649FFF7F4B8DE
:10BD3000194B2648D97A0022227001919B7A244916
:10BD400000930978FF2302F00BFEDCE7124B214839
:10BD5000D97A0422227001919B7A1F4900930978B5
:10BD6000FF23F0E70C4B1D48D97A05222270019180
:10BD70009B7A1B4900930978FF23E4E7064B194897
:10BD8000D97A0222227001919B7A1749009309788F
:10BD9000FF23D8E76CD80020D0A1002063D8002072
:10BDA00064D800206DD8002059D8002050D8002039
:10BDB00058D800205AD8002078470700EA3E0700EC
:10BDC00090E3002072480700E88F0700ECA20020F3
:10BDD00000A30020A4A20020B8A20020D0A200202E
:10BDE000E8A20020BCA20020CCA2002070B598B030
:10BDF00014460A490EA811F0B7F80023CDE9143310
:10BE0000CDE91633636E012B0CD1054920680DF086
:10BE100060FE48B1022400F0EDBC00BFEA8F0700CD
:10BE200069AF0700002BF5D1B649B748B74CB84DFC
:10BE3000B84E11F01FFAB849B34811F01BFAB149D6
:10BE4000B64811F017FAB449B44811F013FA642057
:10BE50001BF086F8637AB24955F82320AA4811F0FE
:10BE600009FAAD49A84811F005FA637AAC4955F8CA
:10BE70002320AA4811F0FEF9A749A84811F0FAF9C1
:10BE800064201BF06DF8A74911A810F0C7FE11A996
:10BE90000EA811F07CF811A811F020F80EA811F0EE
:10BEA000B9F80E9AA049984811F0E4F99A499648D1
:10BEB00011F0E0F90E9A9C49984811F0DBF9964987
:10BEC000964811F0D7F964201BF04AF8974911A859
:10BED00010F084FE119A96498B4811F0CBF911A805
:10BEE00010F0FCFF8C49884811F0C4F98F4911A863
:10BEF00010F074FE119A8E49884811F0BBF911A810
:10BF000010F0ECFF8449854811F0B4F964201BF06F
:10BF100027F84FF47A7562688649B2FBF5F27A48E1
:10BF200011F0A8F97C49784811F0A4F962688149B8
:10BF3000B2FBF5F2794811F09DF97749774811F095
:10BF400099F964201BF00CF87B4810F0ADFD7B499B
:10BF500056F8202005466C4811F08CF96E496A4865
:10BF600011F088F956F8252074496C4811F082F9CF
:10BF700069496A4811F07EF964201AF0F1FF012D39
:10BF800040F04E836E486F4E6F4D10F017FD6F49B5
:10BF9000002814BF32462A465B4811F06BF95E490F
:10BFA000594811F067F9664810F008FD6749002804
:10BFB00014BF32462A465948654E11F05BF956497E
:10BFC000564811F057F964201AF0CAFF614810F082
:10BFD0002DFD6149054602464B4811F04BF94E498B
:10BFE000494811F047F92A465B494C4811F042F99B
:10BFF00049494A4811F03EF964201AF0B1FF56F859
:10C0000025205649404811F035F943493E4811F082
:10C0100031F956F825205149404811F02BF93E4995
:10C020003E4811F027F964201AF09AFF4C4810F0AE
:10C03000BEFC002800F0BE814A49334811F01AF9CD
:10C040003549314811F016F94649344811F012F9D2
:10C050003149324811F00EF964201AF081FF0822AC
:10C0600014A9414810F082FC9DF8573005939DF8C3
:10C07000563004939DF8553003939DF85430029345
:10C080009DF8533001939DF852309DF85020374968
:10C0900000931D489DF8513011F0ECF81E491A48E4
:10C0A00011F0E8F89DF8573005939DF85630049349
:10C0B0009DF8553003939DF8543002939DF853300A
:10C0C00001939DF852309DF8502028490093134861
:10C0D0009DF8513011F0CEF80F49104811F0CAF810
:10C0E00064201AF03DFF082214A9214810F01AFC20
:10C0F0009DF8573005939DF8563004939DF85530C0
:10C1000038E000BFED48070090E3002004A30020C2
:10C11000DCA30020CCA30020E88F0700F4E300207C
:10C12000FC48070048E400200A4907000CE400200E
:10C13000857D070015490700CDE40020254907004B
:10C14000B4E40020DD8C0700DF4807003549070014
:10C1500098A30020CAE40020404907004B4907008B
:10C16000B3E4002056490700AEE400206049070010
:10C17000AAE4002003939DF8543002939DF85330B5
:10C1800001939DF852309DF850207D4900937D48E1
:10C190009DF8513011F06EF87B497A4811F06AF839
:10C1A0009DF8573005939DF8563004939DF855300F
:10C1B00003939DF8543002939DF8533001939DF8FA
:10C1C00052309DF850206E49009370489DF85130D0
:10C1D00011F050F86C496D4811F04CF864201AF0D9
:10C1E000BFFE102214A96A4810F0A5FB9DF85F302D
:10C1F0000D939DF85E300C939DF85D300B939DF888
:10C200005C300A939DF85B3009939DF85A3008938F
:10C210009DF8593007939DF8583006939DF8573094
:10C2200005939DF8563004939DF8553003939DF87F
:10C23000543002939DF8533001939DF852309DF88D
:10C240005020544900934F489DF8513011F012F896
:10C250004D494C4811F00EF89DF85F300D939DF854
:10C260005E300C939DF85D300B939DF85C300A9323
:10C270009DF85B3009939DF85A3008939DF859302A
:10C2800007939DF8583006939DF8573005939DF815
:10C29000563004939DF8553003939DF85430029323
:10C2A0009DF8533001939DF8523000939DF8502033
:10C2B0009DF851303749354810F0DCFF324933489A
:10C2C000354E364D10F0D6FF64201AF049FE344941
:10C2D0002C4810F0CFFF2C492A4810F0CBFF3049F2
:10C2E0002A4810F0C7FF2849284810F0C3FF6420EF
:10C2F0001AF036FE627A2B49224810F0BBFF224921
:10C30000204810F0B7FF627A2649204810F0B2FFAB
:10C310001D491E4810F0AEFF64201AF021FEA27ADB
:10C3200021491848002A14BF32462A4610F0A2FFBD
:10C330001549144810F09EFFA27A1B491348002AA1
:10C3400014BF32462A4610F095FF0F490F48174E8A
:10C3500010F090FF64201AF003FE15481BF018F946
:10C360000025B4F88E20EBB2934205F1010580F26E
:10C370003D8223443046197B1BF00AF9F1E700BFE8
:10C380008849070090E30020E88F0700F4E30020CD
:10C39000ABE40020B0490700EA48070074470700F3
:10C3A000114B0700214B07002F4B070023D107003B
:10C3B000404B07009049914810F05CFF90498F482E
:10C3C00010F058FF8C498F4810F054FF8C498D486D
:10C3D00010F050FF64201AF0C3FD14A910228A48FF
:10C3E00010F0B2FA9DF85F300D939DF85E300C931B
:10C3F0009DF85D300B939DF85C300A939DF85B309F
:10C4000009939DF85A3008939DF8593007939DF889
:10C41000583006939DF8573005939DF85630049395
:10C420009DF8553003939DF8543002939DF8533096
:10C4300001939DF852309DF85020009373499DF868
:10C4400051306E4810F016FF6D496C4810F012FF25
:10C450009DF85F300D939DF85E300C939DF85D3034
:10C460000B939DF85C300A939DF85B3009939DF81F
:10C470005A3008939DF8593007939DF85830069329
:10C480009DF8573005939DF8563004939DF855302C
:10C4900003939DF8543002939DF8533001939DF817
:10C4A00052309DF85020009358499DF8513055481E
:10C4B00010F0E0FE5249534810F0DCFE64201AF000
:10C4C0004FFD14A91022524810F059FA9DF85F3020
:10C4D0000D939DF85E300C939DF85D300B939DF8A5
:10C4E0005C300A939DF85B3009939DF85A300893AD
:10C4F0009DF8593007939DF8583006939DF85730B2
:10C5000005939DF8563004939DF8553003939DF89C
:10C51000543002939DF8533001939DF852309DF8AA
:10C52000502000933B499DF85130344810F0A2FE52
:10C530003349324810F09EFE9DF85F300D939DF810
:10C540005E300C939DF85D300B939DF85C300A9340
:10C550009DF85B3009939DF85A3008939DF8593047
:10C5600007939DF8583006939DF8573005939DF832
:10C57000563004939DF8553003939DF85430029340
:10C580009DF8533001939DF852309DF85020009350
:10C5900020499DF851301B4810F06CFE184919488D
:10C5A00010F068FE64201AF0DBFC14A904221A487B
:10C5B00010F0D3F99DF8533001939DF852309DF857
:10C5C0005020009315499DF851300C4810F052FE50
:10C5D0000B490A4810F04EFE9DF8533001939DF828
:10C5E000523000939DF850209DF851300B4905487A
:10C5F00010F040FE62E600BFF849070090E300201B
:10C60000E88F0700F4E30020ACE40020014A0700B3
:10C61000B0E400204A4A0700ADE40020934A070036
:10C620007748002D40F09B8010F073F87549024662
:10C63000754810F01FFE7549734810F01BFE7048D6
:10C6400010F067F86F490246714810F013FE6F4909
:10C650006F4810F00FFE64201AF082FC6D4810F055
:10C6600069F86D490246684810F004FE674966485B
:10C6700010F000FE674810F05DF867490246644814
:10C6800010F0F8FD6149624810F0F4FD64201AF0E2
:10C6900067FC624810F05FF8614902465A4810F0A2
:10C6A000E9FD5A49584810F0E5FD5C4810F053F890
:10C6B0005B490246564810F0DDFD5449544810F0DD
:10C6C000D9FD64201AF04CFC564810F055F8564934
:10C6D00002464D4810F0CEFD4C494B4810F0CAFDC3
:10C6E000504810F049F850490246494810F0C2FD40
:10C6F0004649474810F0BEFD64201AF031FC4B4813
:10C7000010F04BF84A4902463F4810F0B3FD3F494C
:10C710003D4810F0AFFD454810F03FF8444902464F
:10C720003B4810F0A7FD3949394810F0A3FD6420BB
:10C730001AF016FC3F4810F032F83F4902463248E2
:10C7400010F098FD3149304810F094FD394810F050
:10C7500026F8394902462E4810F08CFDAEE50FF060
:10C76000D8FF28490246284810F084FD274926486A
:10C7700010F080FD22480FF0CCFF224902462448E9
:10C7800010F078FD2149224810F074FD64201AF061
:10C79000E7FB2A4810F037F8294902461A4810F0FA
:10C7A00069FD1A49184810F065FD244810F02BF86F
:10C7B00023490246164810F05DFD1449144810F054
:10C7C00059FD64201AF0CCFB1E4810F01EF81E49DB
:10C7D00002460D4810F04EFD0C490B4810F04AFD82
:10C7E000184810F012F818490246B4E707481AF042
:10C7F000CFFE00240EA810F071FB204618B070BDCB
:10C80000D9E40020AC4A070090E30020E88F07003D
:10C81000F4E30020DAE40020BB4A0700DBE4002058
:10C82000C34A0700DCE40020CB4A0700DDE4002017
:10C83000D34A0700DEE40020E84A0700E2E40020D3
:10C84000F64A0700E3E40020034B07002DE9FF410F
:10C85000536E012B0D46144624D1394910680DF052
:10C8600038F9044620B10224204604B0BDE8F08126
:10C8700002F004FE2946334810F0C8FC3249314822
:10C8800010F0B2FC314A3249D37903939379029381
:10C89000537901931379009393782A48128810F002
:10C8A000E9FCE1E7052BDED1161F02F1100756F86F
:10C8B000045F28460DF01FF92B462844984205D006
:10C8C00013F8012B303A092AF8D9CCE7BE42EED151
:10C8D0000022114620680DF07BFA40F2D233A0F21C
:10C8E000E6729A420546BED80022606811460DF0F5
:10C8F0006FFA431E0B2B0646B5D80022A0681146DE
:10C900000DF066FA431E1E2B0746ACD80022E068E5
:10C9100011460DF05DFA18288046A4D8002220693F
:10C9200011460DF055FA3B289DD8C2B200925FFA2D
:10C9300088F3FAB2F1B2A8B202F05AFD002493E7EC
:10C9400069AF070090E30020FC6307002CDB0020A8
:10C95000514B070007B503230193054B0093054B8B
:10C96000054A0648194610F07AF903B05DF804FB51
:10C9700059CF02006C4B0700744B07006EE4002097
:10C9800007B503230193054B0093054B054A064861
:10C99000194610F064F903B05DF804FB29D10200D8
:10C9A000CB4B0700D04B07006EE4002007B50323F4
:10C9B0000193054B0093054B054A0648194610F0B4
:10C9C0004EF903B05DF804FB2DD302002E4C070096
:10C9D000334C07006EE4002007B503230193054B99
:10C9E0000093054B054A0648194610F038F903B084
:10C9F0005DF804FB89CA02005A4C07005F4C07002F
:10CA00006EE4002007B503230193054B0093054B0B
:10CA1000054A0648194610F022F903B05DF804FBF8
:10CA20004DC80200754C0700794C07006EE40020E9
:10CA300007B502230193054B0093054B054A0648B1
:10CA4000194610F00CF903B05DF804FBEDBD0200CF
:10CA5000A04C0700A74C07006EE4002007B5032395
:10CA60000193054B0093054B054A0648194610F003
:10CA7000F6F803B05DF804FB59CF0200BE4C070086
:10CA8000C54C07006EE400202DE9F84F784B1B7869
:10CA9000E3B9784A7849794810F0ECFB784977484F
:10CAA00010F0E8FB7749754810F0E4FB73480FF08D
:10CAB000B7FD7349744810F0DDFB7249724810F0FD
:10CAC000D9FB64201AF04CFA022472E0556E012D55
:10CAD000FAD1D2F800A06D4950460CF0FAFF044696
