:020000022000DC
:107000000000042031B8030059B803005BB8030046
:107010005DB803005FB8030061B803000000000022
:1070200000000000000000000000000063B8030042
:1070300065B8030000000000000000000000000030
:10704000F5A6050067B8030075C50500CDAC0500C1
:1070500067B8030035A305000DA1050025890600CA
:1070600067B803000DAC050021AC050067B803004C
:1070700067B8030067B8030067B8030067B8030088
:10708000299606000D79050067B8030067B803006C
:1070900067B8030067B80300AD7F060067B8030058
:1070A00067B8030067B8030035AC050049AC0500BC
:1070B00067B8030067B8030000000000000000008C
:1070C00067B8030067B8030067B80300618E060065
:1070D00025A9050067B8030067B8030085C205004D
:1070E000FDC2060067B803003DEA0600000000008C
:1070F0000000000067B803000000000031920600A5
:10710000000000000000000000000000000000007F
:10711000000000000000000000000000000000006F
:10712000000000000000000000000000000000005F
:10713000000000000000000000000000000000004F
:10714000000000000000000000000000000000003F
:10715000000000000000000000000000000000002F
:10716000000000000000000000000000000000001F
:10717000000000000000000000000000000000000F
:1071800000000000000000000000000000000000FF
:1071900000000000000000000000000000000000EF
:1071A00000000000000000000000000000000000DF
:1071B00000000000000000000000000000000000CF
:1071C00000000000000000000000000000000000BF
:1071D00000000000000000000000000000000000AF
:1071E000000000000000000000000000000000009F
:1071F000000000000000000000000000000000008F
:1072000010B5054C237833B9044B13B10448AFF3E0
:1072100000800123237010BD60D500200000000015
:10722000C833080008B5034B1BB103490348AFF34B
:10723000008008BD0000000064D50020C8330800AD
:10724000154B002B08BF134B9D46A3F5803A002138
:107250008B460F461348144A121A11F045FF0F4B84
:10726000002B00D098470E4B002B00D098470020F1
:10727000002104000D000D48002802D00C48AFF397
:10728000008011F0E1FE2000290011F067FC11F0F0
:10729000C7FE00BF0000080000000420000000003E
:1072A0000000000060D500203CC501200000000067
:1072B000000000000022C0E900220172704738B5CA
:1072C0000446006820B1856914F0E8F92846F9E71A
:1072D000204638BD006820B143688B4201D08069E8
:1072E000F9E77047F8B504460F4616461D46FFF706
:1072F000F1FF20B10123826005704370F8BD1C20AE
:1073000014F0D0F9012343700023C0E90333C0E92E
:10731000053323680570C0E9017613B92060606009
:10732000ECE763689861FAE72DE9F8430468164FC3
:1073300005460E464FF000081CB363680BB9A469FC
:10734000FAE72378002BFAD0E368A268F31A9A428E
:1073500002D961780029F2D09B1A636184F8018018
:10736000E66016F0E3F863688146984716F0DEF8A9
:107370003B68A0EB0900206118442B7A3860002B91
:10738000DDD0BDE8F88300BF7CD5002008B5074BF1
:1073900050B103221A700648FA22012115F023FD8C
:1073A000044B00221A7008BD0522F3E780D50020A7
:1073B00011E30020CDD60020054B064800221A70AC
:1073C000054B08221A700121FA2215F00CBD00BFEE
:1073D000CDD6002011E3002080D5002084B004AB7E
:1073E00003E907000B4BBDF90A201A800A4B9DF9EF
:1073F0000C201A70094A0A48136801331360094BBC
:1074000000221A70084B0121FA22197004B015F0FD
:10741000EABC00BFB2D50020B4D50020C8D60020F9
:1074200011E30020CDD6002080D50020134B002290
:107430001A70134B5B7A023B012B1DD9114B90F94B
:1074400006201A70104BB0F904201A800F4A0378F6
:1074500013700F4A417811700E4A817811701BB178
:107460000D4A1368013313600C4B0D4804221A7047
:107470000121FA2215F0B7BC704700BFCDD600201D
:1074800004A30020B4D50020B2D50020B7D6002038
:10749000B5D60020B6D60020C4D6002080D5002066
:1074A00011E3002010B5044609F082F9204610BD12
:1074B00008B5064B1B783BB116F033F8BDE8084021
:1074C00001460348FFF730BF08BD00BFF9D60020D2
:1074D000B8D600201F4B07B501221F481A7015F0BF
:1074E0002EFA18B11D48002115F0F3F91C4815F0CB
:1074F00077FB1C491C4815F085FA1C491A4815F001
:1075000091FA1B49184815F085FA1A49164815F0E2
:1075100091FA1949144815F095FA0021174815F009
:10752000CFFA0021164815F039FB322301220093CF
:107530000D480A23114615F024FA124BDB7A33B1B9
:107540000121222003B05DF804EB15F0DEBF03B08B
:107550005DF804FBA1A1002084E300206EE300207D
:107560006DE30020A992020049E30020AD930200E0
:107570008D7302002D7402005994020051E3002023
:107580006BE3002004A3002010B50B4C0021204623
:10759000FFF790FE2046094C094A0A4911F028FDE0
:1075A000FF21204609F0F8F82046054A0649BDE8C3
:1075B000104011F01DBD00BFB8D60020A4D500209A
:1075C00090A10020BF720200A57402002DE9F043D3
:1075D000964D974E974CDFF8CC82012700232F70F1
:1075E0003370637A023BBB4285B000F20582924859
:1075F00009F0E5F8E37A002B00F081818F4A98F8D2
:10760000003011789146002940F04E817BB18C4BBF
:107610001B7863B907F086F9637A022B0CBF89489F
:107620008948394607F03CFE884807F01DF906F006
:10763000ABFB002858D0864B1B78F3B9854A8649A6
:10764000864815F0AFFE8649844815F0ABFE8549A3
:10765000824815F0A7FE814815F07AF880498248E3
:1076600015F0A0FE7F49804815F09CFE64201FF0B5
:107670000FFD7E48012115F0A0FAB4F88E0006F047
:107680006FF970B36C4809F09DF803906A4809F0EF
:107690009BF801240246CDE900440399744823462F
:1076A00015F08AF90746E0B96A4A6B496B4815F04C
:1076B00079FE7049694815F075FE6A49674815F00A
:1076C00071FE664815F044F86A49674815F06AFE8D
:1076D0006449654815F066FE64201FF0D9FC2F70E0
:1076E000347005B0BDE8F083634A117809BB634B81
:1076F0001B7803F0FF07E3B901234F4889F80030F6
:1077000009F05DF85E4B5F481F8041F28832636884
:10771000B3FBF2F35C4A13805C4B1F705C4B40F68A
:10772000C4121F7003213B4605B0BDE8F04315F0BD
:107730005ABB0023137098F800304BB1404B1B78B4
:1077400033B95449544812F066FA534807F08CF89C
:10775000637A032B5FD1514B37481B6800221BB261
:10776000114608F069FF3A4B1B78F3B94C4A3A4985
:107770003A4815F017FE3A49384815F013FE3949D2
:10778000364815F00FFE354814F0E2FF344936480C
:1077900015F008FE3349344815F004FE64201FF04C
:1077A00077FC3248012115F008FAB4F88E0006F093
:1077B000D7F8002895D0204809F004F803901E4817
:1077C00009F002F801240246CDE900440399284853
:1077D000234615F0F1F8002840F00281304A287065
:1077E0001D491E4815F0DEFD22491C4815F0DAFD42
:1077F0001C491A4815F0D6FD184814F0A9FF1D4978
:10780000194815F0CFFD1749174815F0CBFD642036
:107810001FF03EFC64E700230093B7EE000A1A460F
:107820001946054808F03CFE9DE700BFCDD6002074
:10783000D8A3002004A30020A4D50020ACD50020AC
:10784000F8D60020D83F0700E83F0700F93F0700BF
:10785000CCD60020144007001840070030E200207A
:107860001E4007001891070094E200206CE30020FE
:1078700049E300202B400700A2D5002081D500203D
:1078800018D7002011E300201AD7002048D7002085
:1078900049D7002047400700B5D50020C8D60020B2
:1078A0005D400700AED500205BB1A04B1B7843B90B
:1078B00007F038F89E48394607F0F2FC9D4806F07C
:1078C000D3FF9D4A9D499E4815F06CFD9D499C48FB
:1078D00015F068FD9C499A4815F064FD984814F02D
:1078E00037FF9849994815F05DFD9749974815F07D
:1078F00059FD642005B0BDE8F0431FF0C9BB98F8FE
:1079000000305BB1894B1B7843B907F00BF888480E
:10791000394607F0C5FC8E4806F0A6FF637A032BB4
:1079200060D18C4B8C481B6800221BB2114608F0BA
:1079300083FE8A4B1B78F3B90121894815F03DF984
:107940007D4A7E497E4815F02DFD86497C4815F01C
:1079500029FD7D497A4815F025FD794814F0F8FE97
:1079600080497A4815F01EFD7749784815F01AFDD0
:1079700064201FF08DFBB4F88E0005F0F1FF0028A5
:107980003FF4AFAE744808F01DFF0390724808F052
:107990001BFF01230246CDE900330399724815F01D
:1079A0000BF8044600287FF49CAE634A63496448A0
:1079B00015F0F8FC6D49624815F0F4FC6249604826
:1079C00015F0F0FC5E4814F0C3FE68495F4815F0FE
:1079D000E9FC5D495D4815F0E5FC64201FF058FBAB
:1079E0002C707EE600230093B7EE000A1A46194673
:1079F000594808F055FD9CE798F8003073B14B4B9F
:107A000093F80080B8F1000F08D106F08BFF5848BA
:107A1000394607F045FC574B83F800804E4808F084
:107A2000CEFE554815F0D8F8002800F008815348DC
:107A300015F05CF8002800F0E3800121242015F007
:107A400064FD3D4A3D493E4815F0ACFC4C493C487C
:107A500015F0A8FC3C493A4815F0A4FC384814F04D
:107A600077FE4749394815F09DFC3749374815F0EE
:107A700099FC64201FF00CFB424B1B78002B4ED06E
:107A8000414806F0F1FE354B1B78F3B92A4A2B49E1
:107A90002B4815F087FC3349294815F083FC2A4907
:107AA000274815F07FFC264814F052FE2D49274840
:107AB00015F078FC2449254815F074FC64201FF06B
:107AC000E7FA2748012115F078F8E37A002B65D012
:107AD00006F05AF920B92D4A002313602C4A13608E
:107AE0001D4808F06FFE80B205F03AFF00283FF411
:107AF000F8AD194808F066FE0390174808F064FED8
:107B000001240246CDE9004403991748234614F0A6
:107B100053FF00287FF4E5AD074A287060E6154B57
:107B20001B780BB11B48ACE71B48AAE7F8D600202E
:107B3000D83F0700624007001440070018400700C4
:107B400030E20020764007001891070094E2002000
:107B50008A400700C8D60020A4D50020CCD600203B
:107B60006CE300201E40070049E300202B40070083
:107B700096400700A2D500206DE3002054E30020CA
:107B8000A740070081D50020B34007002CD7002074
:107B900028D70020C4400700D3400700B4F88E0067
:107BA00005F0DEFE00283FF49CAD0127CDE900770B
:107BB000394A94F88E103948022314F0FDFE00284B
:107BC0007FF48FAD364A37492870374815F0EAFB05
:107BD0003649354815F0E6FB3549334815F0E2FBE8
:107BE000314814F0B5FD3149324815F0DBFB30491E
:107BF000304815F0D7FB64201FF04AFA377070E563
:107C0000274A28492870284815F0CCFB2A492648DD
:107C100015F0C8FB2649244815F0C4FB224814F08F
:107C200097FD2549234815F0BDFB2149214815F052
:107C3000B9FB64201FF02CFA0123337051E50121B8
:107C4000232015F062FC164A1649174815F0AAFBC6
:107C50001A49154815F0A6FB1549134815F0A2FB63
:107C6000114814F075FD1549124815F09BFB104999
:107C7000104815F097FB64201FF00AFA104806F030
:107C8000F3FD0123044A94F88E100E4814F03FFED1
:107C900001232B7025E500BF10A3002049E300203D
:107CA000144007001840070030E200202B40070076
:107CB0001891070094E20020E1400700FF40070010
:107CC000D34007006EE300202DE9F04F2DED028B2D
:107CD00000218DB0784E0446242015F016FC0021BA
:107CE000232015F012FC337883B1744B1B786BB9E9
:107CF00006F018FE724B5B7A022B28D1714972484C
:107D000011F089FF7048012107F0CAFA24BB6F4ABD
:107D10006F49704815F046FB6F496E4815F042FBFD
:107D20006E496C4815F03EFB6A4814F011FD6A4933
:107D30006B4815F037FB6949694815F033FB64203F
:107D40001FF0A6F90DB0BDEC028BBDE8F08F032B40
:107D50000CBF64496449D2E72278012A40F02282AC
:107D6000624B634F1B78634D002B2FD0624B1B7807
:107D7000002B00F0988007F0C9FB604A604B118827
:107D80001980917899701179D97051791971917917
:107D9000D27959719A710122DA715A4900221A7204
:107DA0000968D9605849096819611A755A7539887E
:107DB00049B2D975297849B219765A839A83DA83F8
:107DC000524A126812B21A8408F008F83378504EFA
:107DD000002B00F00181394B1C78002C40F0FC8016
:107DE0004C49394811F017FF374909A815F054F9E3
:107DF00009AA2146204606F0B1FD09A815F006F9AA
:107E000032684549304811F0CFFE2F4909A815F0D6
:107E100043F909AA2146012006F0A0FD09A815F0A2
:107E2000F5F83E4814F00DFD4BF08CFB20A3D3E990
:107E300000234BF02BFD0B4602463949224811F036
:107E4000B3FE214909A815F027F909AA2146022005
:107E500006F084FD09A815F0D9F8324814F002FDA7
:107E600031490246184811F09FFE174909A815F03C
:107E700013F909AA2146032006F070FD09A815F0A0
:107E8000C5F82A4814F0FFFC092800F24B81DFE80E
:107E900010F04F00370139013B013D013F01410125
:107EA00043014501470107F0A9FC66E7AFF30080F5
:107EB0000000000080842E41AED50020F8D60020BE
:107EC00004A30020D83F0700B5D5002014400700C8
:107ED0001840070030E20020134107001891070006
:107EE00094E20020E83F070096400700AFD500204D
:107EF000B2D50020B4D50020D4D90020CCD90020A0
:107F0000A4A1002028D700202CD70020C4D6002010
:107F1000C8D60020204107002E41070079E3002049
:107F2000734907007AE30020C85407007BE3002070
:107F30007F4907A811F06FFE7E4814F0A4FC7E4B29
:107F40007E4953F820207E4811F02EFE7C4909A876
:107F500015F0A2F809AA4021032006F0FFFC09A8A9
:107F600015F054F8774814F09FFC7749421D744887
:107F700011F01AFE724909A815F08EF809AA4021DD
:107F8000022006F0EBFC09A815F040F83A886F498A
:107F90006B4812B211F008FE694909A815F07CF887
:107FA00009AA0021042006F0D9FC09A815F02EF832
:107FB0002A786749624852B211F0F6FD604909A873
:107FC00015F06AF809AA4021042006F0C7FC09A8A8
:107FD00015F01CF806F0DCFC5E4A5F495F4815F0BE
:107FE000E1F95F495D4815F0DDF95E495B4815F040
:107FF000D9F95A4814F0ACFB59495B4815F0D2F94D
:108000005849594815F0CEF964201FF041F8514AFB
:108010005149524815F0C6F932683B8829784F48D3
:1080200049B21BB20091514915F0BCF94D494B487A
:1080300015F0B8F9494814F08BFB32683B88297871
:10804000494849B21BB20091484915F0ABF945497E
:10805000454815F0A7F964201FF01AF83D4A3E493B
:108060003E4815F09FF9424814F0EBFB08EE100A69
:10807000404814F0F7FB06462E4814F004FCF8EED6
:10808000487A054617EE900A4BF07EFA26A3D3E90C
:1080900000234BF0FBFB7D2405FB044502460B4609
:1080A000CDE9006534492D4815F07CF92D492B4860
:1080B00015F078F9294814F04BFB2D4814F0C1FB5A
:1080C00008EE100A2B4814F0CDFB0546194814F0B1
:1080D000DAFBF8EE487A064617EE900A4BF054FAAF
:1080E00011A3D3E900234BF0D1FB06FB0444024665
:1080F0000B46CDE9005420491B4815F053F91AE608
:108100001E4916E71E4914E71E4912E71E4910E7EB
:108110001E490EE71E490CE71E490AE71E4908E7FB
:108120001E4906E71E4904E70000000080842E4136
:10813000424107007BE300207CA200207841070039
:10814000B5D500207CE30020E15407003D43070043
:1081500048430700144007001840070030E20020A1
:108160007E4107001891070094E200208B41070030
:1081700079E300207AE30020A6410700464107008A
:108180004A4107004E41070052410700574107008E
:108190005D41070063410700694107006F41070027
:1081A00074410700824B1B78022B40F09980814B71
:1081B00000221A70804B1B78002B2FD07F4B1B782E
:1081C000002B64D007F0A2F97D4B7E4C1A882280E8
:1081D0009A78A2701A79E2705A7922719A79DB79C9
:1081E0006271A371784A79480023E371237212689F
:1081F000E260774A1268226123756375E37523761E
:108200006383A383E383734B1B681BB2238414F043
:1082100081FC40B284F8220007F0E0FD3378002BA7
:108220003FF490AD6C4B1C78002C7FF48BAD6B4908
:108230006B486C4D11F0EFFC694909A814F02CFF54
:1082400009AA2146204606F089FB09A814F0DEFEA3
:108250002A686549624811F0A7FC614909A814F031
:108260001BFF09AA2146022006F078FB09A814F09A
:10827000CDFE2B68013B0F2B30D8DFE803F00B114C
:10828000131517191B1D1F21232527292B2D07F037
:10829000B5FA99E75549524811F0BDFC504970E0D4
:1082A0005349F8E75349F6E75349F4E75349F2E7EE
:1082B0005349F0E75349EEE75349ECE75349EAE7FE
:1082C0005349E8E75349E6E75349E4E75349E2E70E
:1082D0005349E0E75349DEE75349DCE75349DAE71E
:1082E000032A40F0B1803378002B3FF42BAD3A4B9A
:1082F0001E78002E7FF426AD4D4C657A022D4ED0AF
:10830000032D53D05DB94B4909A814F0C5FE09AA45
:108310002946084606F022FB09A814F077FE4FF420
:108320007A7362684449B2FBF3F22D4811F03CFCC9
:108330002B4909A814F0B0FE09AA0021012006F07B
:108340000DFB09A814F062FE3C4909A814F0A4FE34
:10835000002109AA022006F001FB09A814F056FE2C
:1083600028491F4811F057FC1D4909A814F094FE34
:10837000002109AA032006F0F1FA09A814F046FE2C
:108380002E4909A814F088FE09AA0021042006F04D
:10839000E5FA09A814F03AFE06F0FAFAD2E4284900
:1083A00009A814F079FE09AA3146B2E72549F7E792
:1083B00080D50020CDD60020AFD50020D4D9002014
:1083C000CCD90020A4A1002028D7002058E3002009
:1083D0002CD70020C4D60020F8D600206445070022
:1083E000B5D50020D0D60020B9410700C341070011
:1083F000D1410700DC410700E8410700F4410700D4
:10840000FE41070008420700144207002842070007
:108410003B4207004B4207005842070062420700F8
:1084200072420700804207008C4207009D4207000D
:1084300004A30020AB420700DF4207008BF50700D2
:10844000BA420700CB420700042A40F03382AD4B0A
:10845000AD4D1B78DFF82893DFF82883AB4F002B56
:108460003DD0AB4B1B78002B00F0978107F04EF806
:10847000A84BA94C1A8822809A78A2701A79E270C7
:108480005A7922719A79DB796271A3710023E371C1
:1084900098F80020A148D2B22272A14A1268E26084
:1084A000A04A126822612A8852B222752A8852B2E2
:1084B00062752A8852B2E27599F8002052B222768B
:1084C0006383A3833B78E383974B1B681BB22384AE
:1084D00014F020FB40B284F8220007F07FFC3378D0
:1084E000DFF8A4A2914C002B00F0A380904B1E78E3
:1084F000002E40F09E808F4B21788F4A8F480029B4
:1085000018BF1A468E4911F04FFB8C4909A814F088
:10851000C3FD09AA3146304606F020FA09A814F036
:1085200075FD227802F0FF0B002A40F039813A787D
:108530008449824811F038FB804909A814F0ACFD49
:1085400009AA5946012006F009FA09A814F05EFDAF
:10855000724814F0DFFA7C490246784811F024FB97
:10856000764909A814F098FD09AA5946022006F098
:10857000F5F909A814F04AFD98F8002073496F48EE
:1085800011F012FB6D4909A814F086FD09AA4021DB
:10859000022006F0E3F909A814F038FDDAF800200B
:1085A0006B49664811F000FB644909A814F074FD9A
:1085B00009AA5946032006F0D1F909A814F026FDAE
:1085C000594B64491A685D4811F0EEFA5B4909A8F5
:1085D00014F062FD09AA4021032006F0BFF909A8A2
:1085E00014F014FD2A885C49544812B211F0DCFAE8
:1085F000524909A814F050FD09AA5946042006F072
:10860000ADF909A814F002FD99F8002053494B4830
:1086100052B211F0C9FA494909A814F03DFD0420ED
:1086200009AA402106F09AF909A814F0EFFC06F017
:10863000AFF94B4A4B494C48DFF8FCB03D4E14F0C3
:10864000B1FE227849494848002A0CBF5A463246B2
:1086500014F0A8FE4649444814F0A4FE424814F021
:1086600077F8227841494348002A0CBF5A463246DF
:1086700014F098FE3E493F4814F094FE64201EF02A
:1086800007FD374A3749384814F08CFEDAF80020E5
:108690002B8899F80010344849B21BB20091364932
:1086A00014F080FE3249304814F07CFE2E4814F05D
:1086B0004FF8DAF800202B8899F800102D4849B2BD
:1086C0001BB200912C4914F06DFE2949294814F081
:1086D00069FE64201EF0DCFC214A2249224814F085
:1086E00061FE98F8002025493B781F4814F05AFE97
:1086F0001F491D4814F056FE1B4814F029F898F83D
:10870000002043E0AFD50020B2D50020B5D6002030
:10871000D4D90020CCD90020A4A1002058E3002007
:1087200028D700202CD70020C4D60020B7D60020A0
:10873000F8D600200F41070028470700B5D50020D4
:10874000F3420700044307001843070021430700D2
:108750002A430700324307003A4307004543070016
:10876000144007001840070030E20020F7420700DD
:108770001891070094E200208B4107006D43070029
:10878000B4D50020B6D60020C8D600206C493B786E
:108790006C4814F007FEFFF7CEBA07F02FF867E633
:1087A000DAF800206849694811F0FEF9674909A81C
:1087B00014F072FC09AA3146012006F0CFF809A88E
:1087C00014F024FC624B63491A68604811F0ECF91C
:1087D0005E4909A814F060FC09AA4021012006F0B6
:1087E000BDF809A814F012FC22785B49574811F033
:1087F000DBF9564909A814F04FFC09AA31460220BA
:1088000006F0ACF809A814F001FC2378013B0F2B0B
:108810004ED8DFE803F0082F31333537393B3D3F81
:1088200041434547494B4D49484811F0F4F9474900
:1088300009A814F031FC09AA0021032006F08EF8E3
:1088400009A814F0E3FB464814F064F945490246D0
:108850003E4811F0A9F93D4909A814F01DFC09AAE8
:108860000021042006F07AF809A814F0CFFB06F0E6
:108870008FF8DCE63C49D7E73C49D5E73C49D3E7EC
:108880003C49D1E73C49CFE73C49CDE73C49CBE700
:108890003C49C9E73C49C7E73C49C5E73C49C3E710
:1088A0003C49C1E73C49BFE73C49BDE73C49BBE720
:1088B0003C49B9E7052A40F087803378002B3FF424
:1088C00041AA394B1E78002E7FF43CAA374C657ABA
:1088D000022D31D0032D31D05DB9354909A814F0EE
:1088E000DBFB0021084609AA06F038F809A814F0B5
:1088F0008DFB4FF47A7362682E49B2FBF3F2134892
:1089000011F052F9114909A814F0C6FB09AA002177
:10891000012006F023F809A814F078FB264909A8DD
:1089200014F0BAFB002109AA022006F017F809A8E2
:1089300014F06CFB214914E52149CFE72149CDE72B
:108940006D43070094E200202A430700B5D50020BC
:10895000C4D60020324307004F430700C34107003D
:1089600058E3002064430700D1410700DC410700C1
:10897000E8410700F4410700FE41070008420700F4
:1089800014420700284207003B4207004B42070001
:108990005842070062420700724207008042070007
:1089A0008C4207009D420700F8D6002004A3002057
:1089B000AB420700DF4207008BF507008543070045
:1089C000BA420700CB420700062B40F06F83B54B3D
:1089D000DD781C795F7893F8029093F80580C5EBF9
:1089E000451205EB8205C4EB441204EB8204AE4A47
:1089F0000592517A6D00640003292DB224B240F033
:108A0000CB81AA4AAA49AB4893F807B093F800A0D3
:108A10004FEA281814F0C6FC4246A749A54814F0AE
:108A2000C1FCA649A34814F0BDFCA24813F090FE77
:108A30004246A149A24814F0B5FCA049A04814F050
:108A4000B1FC09F1380964200BF1380B1EF020FB52
:108A50004FFA89F9954A964996484FFA8BFB14F0DC
:108A6000A1FC5B464A469749924814F09BFC934907
:108A7000904814F097FC8F4813F06AFE5B464A4614
:108A800090498F4814F08EFC8C498D4814F08AFC74
:108A900064201EF0FDFA854A8549864814F082FC60
:108AA00023462A468849834814F07CFC8349814840
:108AB00014F078FC7F4813F04BFE23462A46824987
:108AC0007F4814F06FFC7D497D4814F06BFC6420F6
:108AD0001EF0DEFA7D4B1B78002B45D07C4B1B78BB
:108AE000002B00F0258106F011FD7A4A7A4B11889F
:108AF0001980917899701179D9705179197191799A
:108B0000D27959719A710322DA715FFA88F21A7276
:108B1000724A73481268DA60724A12681A61002158
:108B2000714A197583F8159083F816B0128852B2FD
:108B3000DA756E4A127852B21A7607EB0A2207EEFD
:108B4000902AF8EEE77A5D83FDEEE77A9C8317EED4
:108B5000902A12B2D9831A8413F0DCFF5E4B40B224
:108B600083F8220007F03AF93378002B3FF4EAA8A3
:108B70005F4B1E78002E7FF4E5A805F0D3FE5D481C
:108B8000012106F08DFB594B5B491A78564B5B4827
:108B90001B8852B21BB211F007F8584909A814F00B
:108BA0007BFA09AA3146304605F0D8FE09A814F030
:108BB0002DFA4B465A465249504810F0F5FF4F499E
:108BC00009A814F069FA09AA3146012005F0C6FE89
:108BD00009A814F01BFA42464A49484810F0E4FF3D
:108BE000464909A814F058FA09AA3146022005F0AE
:108BF000B5FE09A814F00AFA434909A814F04CFA82
:108C000009AA3221022005F0A9FE09A814F0FEF9F4
:108C10003E4909A814F040FA09AA5021022005F0A3
:108C20009DFE09A814F0F2F9394909A814F034FAA4
:108C300009AA3146032005F091FE09A814F0E6F9CF
:108C4000059BDF7A002F76D02A4632492B4810F058
:108C5000ABFF2A4909A814F01FFA09AA3221032000
:108C600005F07CFE09A814F0D1F9224629492348D1
:108C700010F09AFF214909A814F00EFA09AA502110
:108C8000032005F06BFE09A814F0C0F9134B186817
:108C9000144B1C684AF078FC02460B462046CDE98E
:108CA000022339E082D5002004A3002014400700ED
:108CB0001840070030E200209B430700189107008E
:108CC00094E20020BB430700D8430700AFD5002043
:108CD000D4D90020CCD90020A4A1002028D700207E
:108CE00058E300202CD70020B2D50020B4D50020B6
:108CF000F8D60020E83F0700F4430700B5D5002070
:108D00000B440700224407002D44070031440700AC
:108D100035440700154307004AF036FCDDE902231D
:108D2000CDE900011849194810F03EFFFFF7B6BA27
:108D300006F064FDD9E61649144810F06CFF13499B
:108D400009A814F0A9F909AA3221032005F006FEAA
:108D500009A814F05BF90D4909A814F09DF909AAB6
:108D60005021032005F0FAFD09A814F04FF9094934
:108D7000064810F050FF054909A814F08DF909AA1A
:108D80003946FFF703BB00BF3E440700B5D50020BE
:108D9000534407004A440700A9F1C8091FFA89F3A0
:108DA000A54AA649A64802934FFA88FB14F0FAFA9E
:108DB0005A46A449A24814F0F5FAA349A04814F071
:108DC000F1FA9F4813F0C4FC5A469E499F4814F09C
:108DD000E9FA9D499D4814F0E5FA64201EF058F91F
:108DE000C83F954A9549964814F0DCFABFB2BDF9E0
:108DF0000890974992480FFA87FA4B46524614F06A
:108E0000D1FA91498E4814F0CDFA8D4813F0A0FCA8
:108E10004B4652468E498D4814F0C4FA8A498B4815
:108E200014F0C0FA64201EF033F9834A8349844861
:108E300014F0B8FA23462A468649814814F0B2FA5B
:108E400081497F4814F0AEFA7D4813F081FC234637
:108E50002A4680497D4814F0A5FA7B497B4814F0E6
:108E6000A1FA64201EF014F97B4B1B78002B3CD038
:108E70007A4B1B78002B00F0D08006F047FB784A35
:108E8000784B11881980917899701179D97051793E
:108E900019719179D27959719A710222DA71724AF3
:108EA00083F808801268DA60704A714812681A61A3
:108EB0007FB29DF908201F755A756E4A128852B20A
:108EC000DA756D4A127852B21A7600225D839C835D
:108ED000DA836A4A126812B21A8413F01BFE614BDD
:108EE00040B283F8220006F079FF3378002B3EF47D
:108EF00029AF634B1E78002E7EF424AF05F012FDDF
:108F00006048012106F0CCF95B4B5F491A78594B58
:108F10005E481B8852B21BB210F046FE5B4909A89E
:108F200014F0BAF809AA3146304605F017FD09A831
:108F300014F06CF85A465649544810F035FE53491F
:108F400009A814F0A9F809AA3146012005F006FD88
:108F500009A814F05BF84F4909A814F09DF809AA74
:108F60003221012005F0FAFC09A814F04FF84A4913
:108F700009A814F091F809AA5021012005F0EEFC8F
:108F800009A814F043F8454909A814F085F809AA7E
:108F90003146022005F0E2FC09A814F037F84049F8
:108FA00009A814F079F809AA3146032005F0D6FC87
:108FB00009A814F02BF852463A49344810F0F4FD51
:108FC000324909A814F068F809AA3221022005F0F4
:108FD000C5FC09A814F01AF84A4632492B4810F08B
:108FE000E3FD2A4909A814F057F809AA3221032001
:108FF00005F0B4FC09A814F009F8059BDF7A7FB1ED
:109000002A462849214810F0CFFD204909A814F02C
:1090100043F809AA5021022022E606F0EFFB2EE7D2
:1090200021491A4810F0F7FD184909A814F034F83E
:1090300009AA5021022089E61440070018400700C1
:1090400030E20020564407001891070094E2002007
:1090500073440700D8430700AFD50020D4D90020BF
:10906000CCD90020A4A1002028D700202CD7002094
:1090700058E30020B2D50020B4D50020C4D600208B
:10908000F8D60020D83F0700F4430700B5D50020EC
:1090900022440700C6A10700354407002D440700FD
:1090A000314407001543070053440700072B72D1D2
:1090B000644A6549654814F075F96549634814F0D8
:1090C00071F96449614814F06DF9604813F040FB90
:1090D0005F49614814F066F95E495F4814F062F92F
:1090E00064201DF0D5FF5D4B1B78002B30D05C4B0E
:1090F0001B78002B4CD006F009FA5A4B5A4C1A88B0
:1091000022809A78A2701A79E2705A7922719A793B
:10911000DB796271A3710223E371544A544800233E
:1091200023721268E260534A1268226123756375E4
:10913000E37523766383A383E3834F4B1B681BB2E2
:10914000238413F0E7FC40B284F8220006F046FEC8
:109150003378002B3EF4F6AD484B1B78002B7EF4A1
:10916000F1AD05F0DFFB464B5B7A032B0CBF4548A6
:109170004548012106F094F84449454810F04BFD5C
:10918000434909A813F088FF002109AA084678E599
:1091900006F034FBB1E7082B7EF4D4AD384B5D7A92
:1091A00035B1012D29D03B4B00221A70FEF7CABD04
:1091B00005F0B8FB3848012106F072F8374909A8D4
:1091C00013F06AFF002109AA084605F0C7FB09A8A9
:1091D00013F01CFF32492E4810F01DFD2C4909A840
:1091E00013F05AFF09AA0021032005F0B7FB09A8D4
:1091F00013F00CFF05F0CCFBD5E73378002BD2D071
:109200001E4B1C78002CCED105F08CFB2248294641
:1092100006F046F8234909A813F03EFF09AA2146A3
:10922000204605F09BFB09A813F0F0FE1C491848E6
:1092300010F0F1FC164909A813F02EFF09AA2146E7
:10924000D2E700BF144007001840070030E20020BA
:109250008B4407001891070094E20020AFD500204E
:10926000D4D90020CCD90020A4A1002028D70020E8
:1092700058E300202CD70020C4D60020F8D60020C8
:1092800004A30020D83F0700E83F0700A8440700D8
:10929000B5D50020CDD6002096400700AB42070090
:1092A000534E07002041070070B5304BB0F90A203B
:1092B0001A802F4B90F90C201A702E4B42781A709E
:1092C0002D4A1368013313602C4B00221A70027868
:1092D0000446E2B92A4A2B492B4814F063F82B497B
:1092E000294814F05FF82A49274814F05BF826480B
:1092F00013F02EFA2549274814F054F8244925483C
:1093000014F050F8BDE8704064201DF0C1BE224B3F
:109310005B7A023B012B28D8022A0FD11F4D027A1B
:1093200041681F4806232B700FF0D0FE2B461D48C6
:10933000BDE87040FA22012113F055BD104A1149D1
:10934000114814F02FF8227817490F4814F02AF822
:109350000F490D4814F026F80B4813F0F9F922785C
:1093600011490C4814F01EF8C8E770BDB2D50020B2
:10937000B4D50020B0D50020C8D60020CDD600201E
:10938000BD4407001840070030E20020C344070036
:109390001891070094E2002004A3002080D500204B
:1093A00082D5002011E30020CB44070070B51E4C8D
:1093B0000546002836D01D4B1D491E4800221A7054
:1093C0001D4A13F0EFFF2A461C491A4813F0EAFF22
:1093D0001B49184813F0E6FF164813F0B9F92A465E
:1093E0001649184813F0DEFF1549164813F0DAFF46
:1093F00064201DF04DFE144B1D60144B5B7A023B44
:10940000012B134B1A6802F101021A6094BF072363
:10941000022323700F482346FA22BDE87040012141
:1094200013F0E1BC0823F4E780D50020CDD600205E
:109430001840070030E2002014400700DA4407001B
:109440001891070094E20020D0D6002004A3002049
:10945000C4D6002011E3002030B5504A5049514D88
:1094600099B00446504813F09DFF22464F494E489C
:1094700013F098FF4E494C4813F094FF4A4813F0FC
:1094800067F9224649494B4813F08CFF484949483F
:1094900013F088FF64201DF0FBFD297800297AD1A4
:1094A00001231A2208A82B7007910FF01DFE05A8B2
:1094B0002CF0C0F90598404C00F5E0400FA96E3043
:1094C0002CF02CFA149B3D4903F26C730393129B0E
:1094D0000293139B013301930F9B009307A8DDE9CF
:1094E000103210F061FB2D4A2D492F4813F05AFF1E
:1094F00007AA33492C4813F055FF2D492A4813F089
:1095000051FF294813F024F907AA2D49294813F0DF
:1095100049FF2749274813F045FF64201DF0B8FD97
:10952000149B03F26C732380139B0133A370129B73
:109530002371119B6371109BA3710F9BE371214BEE
:109540001B7843B3154A1649174813F02BFF1E49E1
:10955000154813F027FF1649134813F023FF12484C
:1095600013F0F6F81849134813F01CFF104911487E
:1095700013F018FF64201DF08BFD02232B70E3799C
:109580000193A379009363792279A178208806F06A
:10959000BBF805F0BBFF19B030BD00BFE9440700C0
:1095A00018400700CCD6002030E20020EE4407002F
:1095B0001891070094E20020CCD90020054507004F
:1095C000B4640700D4D9002027450700F0B54FF058
:1095D00080432DED028BD3F83834032B85B020D196
:1095E000364A3749374813F0DDFE3749354813F01E
:1095F000D9FE3649334813F0D5FE324813F0A8F8A7
:109600003149334813F0CEFE3049314813F0CAFED9
:1096100064201DF03DFD0024204605B0BDEC028B0A
:10962000F0BD2C482B4D13F0A9FB0A24B0EE408A64
:10963000284613F0A3FB013C38EE008AF8D1B2EEC5
:10964000067AC8EE077A1D4A1D491E489FED228AF8
:10965000DFED226A27EE888ADFED217A68EE277A2D
:1096600087EEA67AFCEEC77ACDED037A9DF80C4022
:1096700013F098FE18EE100A49F086FF06460F46D2
:109680002246CDE9006717490E4813F08BFE0F49BB
:109690000C4813F087FE0B4813F05AF82246CDE928
:1096A000006710490A4813F07DFE0849084813F086
:1096B00079FE64201DF0ECFCAEE700BFE3940700E8
:1096C0001840070030E200203D45070018910700D0
:1096D00094E200200DE3002000007A44004083451E
:1096E00000007F434445070007B52B4A2B492C480F
:1096F00013F058FE2B492A4813F054FE2A492848F3
:1097000013F050FE264813F023F82649274813F09B
:1097100049FE2549254813F045FE64201DF0B8FC9C
:10972000234B244801221A7013F009F918B122487A
:10973000002113F0CEF8214813F052FA20492148B5
:1097400013F060F920491F4813F06CF91F491D48B8
:1097500013F060F91E491B4813F06CF91D491948B4
:1097600013F070F900211C4813F0AAF902211B48DC
:1097700013F014FA32230122009311460A231148F0
:1097800013F0FFF8164BD97A01B10121222003B062
:109790005DF804EB13F0B9BE144007001840070051
:1097A00030E200205E4507001891070094E2002097
:1097B000A1A1002084E300206EE300206DE30020DF
:1097C000A992020049E30020AD9302008D730200CC
:1097D0002D7402005994020051E300206BE3002035
:1097E00004A3002008B52B4A2B492C4813F0DAFDBE
:1097F0002B492A4813F0D6FD2A49284813F0D2FDF8
:10980000264812F0A5FF2649274813F0CBFD25492D
:10981000254813F0C7FD64201DF03AFC234B244873
:109820000021197013F055F8224813F08CF8D0B9C4
:10983000184A1949194813F0B5FD1F49174813F084
:10984000B1FD1849154813F0ADFD144812F080FF22
:109850001949154813F0A6FD1249134813F0A2FD4B
:1098600064201DF015FC1549114813F079F81449CE
:109870000F4813F07DF84FF6FD710D4813F029F8ED
:10988000104BD97A01B10121BDE80840222013F024
:109890003CBE00BF144007001840070030E2002023
:1098A000734507001891070094E20020A1A1002051
:1098B0006EE3002084E3002082450700DD73020090
:1098C000B973020004A300202DE9F04F012187B0F5
:1098D000222013F003FE0121232013F0FFFD0121BC
:1098E000242013F0FBFDB348B34F13F07FFC04F0CA
:1098F00045FF3870002800F0DA81B049B04810F018
:109900008AF9AF48012105F0CBFCAE4804F0ACFF6A
:10991000AD4804F0A9FF0021222013F0F6FD022338
:10992000AA4806224FF4E13112F018FF4FF08043AD
:10993000D3F83834032B40F0DA814FF4FA601DF08D
:10994000A7FB0423022203ACA14900939C480023F7
:1099500010F02AF99A49204613F09EFB21469D48B3
:1099600013F0EAF9204613F051FB0121232013F0F4
:10997000CCFD0021232013F0C8FD0021242013F08A
:10998000C4FD03F05FF8D0B9934A94498F4813F0AF
:1099900009FD93498D4813F005FD92498B4813F05A
:1099A00001FD8A4812F0D4FE8D498F4813F0FAFC6D
:1099B0008C498D4813F0F6FC64201DF069FB03F020
:1099C0002BF8D0B9844A8549804813F0EBFC8749CD
:1099D0007E4813F0E7FC83497C4813F0E3FC7B48A6
:1099E00012F0B6FE8149804813F0DCFC7D497E48C8
:1099F00013F0D8FC64201DF04BFB02F09FFFD0B9A0
:109A0000754A7649714813F0CDFC79496F4813F0D7
:109A1000C9FC74496D4813F0C5FC6C4812F098FEFF
:109A20007349714813F0BEFC6E496F4813F0BAFCDD
:109A300064201DF02DFB02F097FFD0B9664A6749FC
:109A4000624813F0AFFC6B49604813F0ABFC65490A
:109A50005E4813F0A7FC5D4812F07AFE6549624843
:109A600013F0A0FC5F49604813F09CFC64201DF0DB
:109A70000FFB02F08FFFD0B9574A5849534813F0F3
:109A800091FC5D49514813F08DFC56494F4813F045
:109A900089FC4E4812F05CFE5749534813F082FC93
:109AA0005049514813F07EFC64201DF0F1FA03F098
:109AB000FFFCD0B9484A4949444813F073FC4F4968
:109AC000424813F06FFC4749404813F06BFC3F4895
:109AD00012F03EFE4949444813F064FC41494248B3
:109AE00013F060FC64201DF0D3FA00F0F3FDD0B950
:109AF000394A3A49354813F055FC4149334813F087
:109B000051FC3849314813F04DFC304812F020FE2A
:109B10003B49354813F046FC3249334813F042FCC8
:109B200064201DF0B5FA374D374E002000F0FEFCE2
:109B30006B7A294A29492548023B012B00F2FF8014
:109B400013F030FC3149214813F02CFC25491F4803
:109B500013F028FC1D4812F0FBFD2C49224813F09D
:109B600021FC2049204813F01DFC64201DF090FAD0
:109B7000012003F09FFF3070337813B1244804F0C4
:109B800073FE05F0EDFC234E134A14493070002893
:109B900000F0F5800D4813F005FC1F490B4813F049
:109BA00001FC1049094813F0FDFB084812F0D0FDF4
:109BB00034E000BF8CE30020AED5002096400700C3
:109BC000B5D50020A4450700B145070030E20020CC
:109BD0006D4C0700B8E20020144007001840070051
:109BE000CB4507001891070094E20020F7450700D5
:109BF0001E4607004C46070076460700A4460700AD
:109C0000C946070004A30020ADD50020E5460700A3
:109C10000F470700D4D900201A4707008A498B480C
:109C200013F0C0FB8A49894813F0BCFB64201DF087
:109C30002FFA05F06BFC94E803002BF0DAFD02F03C
:109C4000D5FE337813B1834804F00EFE05F058FEBC
:109C5000814E3070002840F0AC80804A80498148B5
:109C600013F0A0FB80497F4813F09CFB78497D48A6
:109C700013F098FB7B4812F06BFD7B49734813F09F
:109C800091FB7349714813F08DFB64201DF000FABD
:109C9000337813B1754804F0E7FD6B7A032B00F2BB
:109CA000F580DFE813F03201A301AC01B9016B4A82
:109CB0006B496C4813F076FB6D496A4813F072FBF0
:109CC0006349684813F06EFB664812F041FD68492D
:109CD0005E4813F067FB5E495C4813F063FB642049
:109CE0001DF0D6F93B78002B3FF415AE05E613F0D6
:109CF00018FCDFF870A106464FF0000B41F28738E0
:109D00004FF00009504612F00EFD00287FF419AE06
:109D100013F007FC841B6BEB4B05A04579EB0503A7
:109D2000FFF60FAE64201DF0B3F9232013F0F2FB11
:109D3000B0FA80F14909232013F0E7FBE2E795F838
:109D40000B80B8F1000F7FF4FBAE13F02BFB4949F9
:109D5000444813F027FB3E49424813F023FB414897
:109D600012F0F6FC4349394813F01CFB38493748D8
:109D700013F018FB64201DF08BF94046F9E63948D2
:109D800013F010FB3C49374813F00CFB30493548C1
:109D900013F008FB334812F0DBFC37492B4813F073
:109DA00001FB2B49294813F0FDFA64201DF070F9DE
:109DB00047E705F06FFE3070D0B9284A2849294896
:109DC00013F0F0FA2D49274813F0ECFA2049254802
:109DD00013F0E8FA234812F0BBFC28491B4813F0A3
:109DE000E1FA1B49194813F0DDFA64201DF050F91F
:109DF0001A4A1B491B48DFF88C90DFF88C8013F05F
:109E0000D1FA32781E491748002A14BF4A46424602
:109E100013F0C8FA0E49134813F0C4FA114812F0AF
:109E200097FC327816490948002A14BF4A46424630
:109E300013F0B8FA0649054813F0B4FA64201DF08F
:109E400027F902F0BDFD23E71A47070094E200203E
:109E50001891070024470700AFD5002014400700E1
:109E60001840070030E200202B4707006F4707002B
:109E7000BD450700F9460700174707003C470700A4
:109E800052470700994507009E450700634A644909
:109E9000644813F087FA6449624813F083FA63490F
:109EA000604813F07FFA5F4812F052FC5E49604848
:109EB00013F078FA5D495E4813F074FA64201DF0DF
:109EC000E7F83B780BB35B495B480FF0A4FE5A49B7
:109ED000204613F0E1F800212246084604F03EFD3A
:109EE000204613F093F8554953480FF094FE524919
:109EF000204613F0D1F822460021012004F02EFD67
:109F0000204613F083F804F043FD4D4804F0ACFC08
:109F10004C4812F0EBFD10B94B4804F0A5FCFFF7DC
:109F2000E3FB4FF47A7349496A684348B2FBF3F2A2
:109F30000FF03AFE404804F097FC454A454801239B
:109F4000002112F046FF6A6822B1002341481946F9
:109F500012F049FF404A3F480023012112F039FF27
:109F600000233E4A3B48022112F033FFAB7A33B163
:109F7000384800234EF66022022112F034FF0123FC
:109F8000374A3448032112F024FF364B1B785BB16B
:109F90002C4812F0ABFD38B932230122009332482D
:109FA0000A23114612F0EDFC1C4A1D491D4813F00E
:109FB000F9F92E491B4813F0F5F91C49194813F01B
:109FC000F1F9184812F0C4FB2849194813F0EAF9CE
:109FD0001649174813F0E6F964201DF059F80121DD
:109FE000234813F072FA07B0BDE8F08FFFF7FAFBD1
:109FF000204804F039FC1D4804F036FC91E71E4867
:10A0000004F032FC0F4812F071FD10B90E4804F054
:10A010002BFCFDF75FFA84E71848F1E714400700CE
:10A020001840070030E200207A4707001891070027
:10A0300094E200209B470700B5D50020AD470700FC
:10A04000AB42070054E30020BD470700DF42070092
:10A05000CD75020011E30020C97C0200E5E9020091
:10A0600089E20200A1A1002049E30020CB470700BC
:10A07000A9E2002082410700BA420700CB42070054
:10A080007047000002481822002106F0ABBB00BF59
:10A09000D4D600202DE9F04F994C9A4DDFF87CA2E0
:10A0A000DFF87CB289B0204606F0F0FC204610EEC6
:10A0B000107A06F00AFD20468DED050A06F024FD13
:10A0C000914A92498DED060A284613F06BF9204615
:10A0D00006F0DCFC204610EE108A06F0D7FC38466D
:10A0E00010EE106A49F050FA894B002249F0A4FAA8
:10A0F00049F052FD07B2404649F046FA80463046E4
:10A100008946029749F040FA814B824E002249F07D
:10A1100093FA42464B46CDE900015146284613F0DA
:10A1200041F93146284613F03DF9284612F010FB5C
:10A13000204606F0ABFC204610EE108A06F0A6FC86
:10A1400040468DED070A49F01FFA079B02978046AB
:10A150001846894649F018FA6D4B002249F06CFA0E
:10A160004B464246CDE900015146584613F01AF9D4
:10A170003146584613F016F964201CF089FF624AF4
:10A180006249284613F00EF9204606F09EFC204650
:10A1900010EE107A06F099FC059810EE10AA49F01E
:10A1A000F3F900225A4B49F047FA49F0F5FC03B2A3
:10A1B0003846059349F0E8F9059B029380465046DE
:10A1C000894649F0E1F9524B534FDFF858A100227C
:10A1D00049F032FA42464B46CDE90001394628465D
:10A1E00013F0E0F83146284613F0DCF8284612F068
:10A1F000AFFA204606F069FC204610EE108A06F001
:10A2000064FC40468DED070A49F0BEF9059B0293B8
:10A21000079B80461846894649F0B6F93C4B002218
:10A2200049F00AFA4B464246CDE900013946584604
:10A2300013F0B8F83146584613F0B4F864201CF017
:10A2400027FF314A3149284613F0ACF8204606F082
:10A250005BFC204610EE108A06F056FC06988DED49
:10A26000050A49F091F92A4B002249F0E5F949F035
:10A2700093FC07B2404649F087F98046059802975B
:10A28000894649F081F9224B002249F0D5F942462E
:10A290004B46CDE900015146284613F083F831467C
:10A2A000284613F07FF8284612F052FA204606F0AE
:10A2B0002BFC204610EE105A06F026FC284610EE25
:10A2C000108A49F061F9044640460D46029749F06C
:10A2D0005BF90F4B002249F0AFF92246CDE90001AE
:10A2E0002B465146584613F05DF83146584613F058
:10A2F00059F8642009B0BDE8F04F1CF0C9BE00BF9A
:10A30000D4D6002030E20020D947070018400700CB
:10A3100000408F4018910700EC470700DD47070019
:10A3200094E20020FB47070007B573480DF10701D1
:10A33000312206F0F3FB9DF8073059061BD56F4A12
:10A340006F49704813F02EF89DF807206E496D484C
:10A3500013F028F86D496B4813F024F8694812F09F
:10A36000F7F969499DF80720694813F01BF8674918
:10A37000674813F017F864201CF08AFE9DF8073038
:10A380009A0617D55D4A5E495E4813F00BF861499D
:10A390005C4813F007F85D495A4813F003F8594830
:10A3A00012F0D6F95B495A4812F0FCFF5749584859
:10A3B00012F0F8FF64201CF06BFE9DF80730DB06FE
:10A3C00017D54E4A4E494F4812F0ECFF52494D48BE
:10A3D00012F0E8FF4D494B4812F0E4FF494812F0F3
:10A3E000B7F94D494A4812F0DDFF4849484812F094
:10A3F000D9FF64201CF04CFE9DF80730180717D5D4
:10A400003E4A3F493F4812F0CDFF44493D4812F0D3
:10A41000C9FF3E493B4812F0C5FF3A4812F098F98F
:10A420003E493B4812F0BEFF3849394812F0BAFFA6
:10A4300064201CF02DFE9DF80730590717D52F4AD0
:10A440002F49304812F0AEFF35492E4812F0AAFFCE
:10A450002E492C4812F0A6FF2A4812F079F930490B
:10A460002B4812F09FFF2949294812F09BFF6420D6
:10A470001CF00EFE9DF807309A0717D51F4A204999
:10A48000204812F08FFF27491E4812F08BFF1F490A
:10A490001C4812F087FF1B4812F05AF921491C484A
:10A4A00012F080FF19491A4812F07CFF64201CF05A
:10A4B000EFFD9DF80730DB0717D5104A104911480A
:10A4C00012F070FF18490F4812F06CFF0F490D4849
:10A4D00012F068FF0B4812F03BF913490C4812F0D8
:10A4E00061FF0A490A4812F05DFF64201CF0D0FDAC
:10A4F00003B05DF804FB00BFD4D60020D9470700A5
:10A500001840070030E200200A48070018910700B1
:10A5100094E2002021480700284807002E48070041
:10A52000354807003B4807004248070073B5002143
:10A530000446112012F0D2FF5D4812F057FE5D4B29
:10A540006CB300229A800A22DA804FF481721A8159
:10A5500040F201125A81574806F070FB054620B3BD
:10A56000554A5649564812F01DFF5649544812F0B4
:10A5700019FF5549524812F015FF514812F0E8F8FA
:10A580005049524812F00EFF4F49504812F00AFF4E
:10A5900064201CF07DFD0024204602B070BD022224
:10A5A0009C80DC801A815C81D5E7002C38D02A227F
:10A5B000302140488DF80720012606F059F908227D
:10A5C00032213C488DF8072006F052F932463321FB
:10A5D00038488DF8076006F04BF924220DF1070189
:10A5E000344806F09BFA9DF80720324822F00C020E
:10A5F00042F0080224218DF8072006F039F9602284
:10A6000022212C488DF8072006F032F92A46252110
:10A61000284806F02DF927483246212106F028F96E
:10A62000002520220DF1070122488DF8075006F081
:10A6300075FA9DF807201F4842F0080220218DF886
:10A64000072006F015F964201CF022FD1E220DF1F2
:10A65000070118488DF8075006F060FA9DF80720AA
:10A66000144842F090021E218DF8072006F000F9F0
:10A6700064201CF00DFD4CB1FFF756FE1449042276
:10A68000112012F023F8FFF705FD85E720220DF1D8
:10A690000701084806F042FA9DF80720054802F035
:10A6A000400220218DF80720012406F0E1F873E72D
:10A6B0008CE30020D4D60020D947070018400700BB
:10A6C00030E20020484807001891070094E200207B
:10A6D00081A0020008B50221092012F0FFFE064900
:10A6E0000322092011F0F2FF0449054801236422E6
:10A6F000FCF7F8FD012008BDE9AC020089AD0200BD
:10A70000B8D600202DE9F04FC74D91B012F009FFE7
:10A71000D5E900230024811A64EB0303009101931F
:10A72000DDE9002340F6B8300021904271EB0303CD
:10A73000A346A246A146A0462746264677DB12F04E
:10A74000F0FED5E90023811A63EB430302910393E2
:10A75000DDE90223B2F5C87F73F1000373DA12F06A
:10A76000E0FED5E90023811A63EB430304910593CE
:10A77000DDE90434B3F5C87F74F1000380F285800D
:10A7800012F0CFFED5E90023811A63EB4303069153
:10A790000793DDE90634B3F5167F74F1000380F208
:10A7A000998012F0BEFED5E90023811A63EB4303C2
:10A7B00008910993DDE90834B3F5487F74F100038B
:10A7C00080F2AE8012F0ADFED5E90023811A63EB72
:10A7D00043030A910B93DDE90A34B3F5966F74F1E4
:10A7E000000380F2C08012F09CFED5E90023811A9C
:10A7F00063EB43030C910D93DDE90C34B3F5AF6FBC
:10A8000074F1000380F2D28012F08BFED5E90023B0
:10A81000811A63EB43030E910F93DDE90E34B3F518
:10A82000C86F74F1000380F2E280082474E009200C
:10A8300012F070FE002882D17C4B1B78002B3FF475
:10A840007EAF022468E0794B1B78012B87D1092069
:10A8500012F060FE012882D10023C82C10D00920FC
:10A86000009312F057FE009B012804BF0133DBB2B6
:10A87000012001340093E4B21CF00AFC009BECE7D9
:10A88000C62B7FF66CAF002446E0684B1B78022B8A
:10A890007FF476AF092012F03DFE01287FF470AFFF
:10A8A0000024BBF1C80F10D0092012F033FE01289C
:10A8B00008BF01344FF001000BF1010B08BFE4B2F7
:10A8C0005FFA8BFB1CF0E4FBEBE7C62C7FF658AF7E
:10A8D000012421E0554B1B78032BDCB27FF461AFE0
:10A8E0004FF0000BBAF1C80F12D0092012F012FE7F
:10A8F000012808BF0BF1010B4FF001000AF1010A1A
:10A9000008BF5FFA8BFB5FFA8AFA1CF0C1FBE9E72C
:10A91000BBF1C60F7FF645AF204611B0BDE8F08F02
:10A92000424B1B78042BDCB27FF44CAF4FF0000A93
:10A93000B9F1C80F12D0092012F0ECFD012808BFB0
:10A940000AF1010A4FF0010009F1010908BF5FFA9D
:10A950008AFA5FFA89F91CF09BFBE9E7BAF1C60FA6
:10A960007FF630AFD8E7314B1B78052BDCB27FF494
:10A970003AAF4FF00009B8F1C80F12D0092012F019
:10A98000C9FD012808BF09F101094FF0010008F1D4
:10A99000010808BF5FFA89F95FFA88F81CF078FBB4
:10A9A000E9E7B9F1C60F7FF61EAFB5E71F4B1B787D
:10A9B000062BDCB27FF428AF4FF00008C82F11D06F
:10A9C000092012F0A7FD012808BF08F101084FF087
:10A9D000010007F1010708BF5FFA88F8FFB21CF019
:10A9E00057FBEBE7B8F1C60F7FF60EAF94E70F4BBE
:10A9F0001B78072BDCB27FF418AF0025C82E0FD0D0
:10AA0000092012F087FD012808BF01354FF0010031
:10AA100006F1010608BFEDB2F6B21CF039FBEDE716
:10AA2000C62D7FF602AF77E7F0D60020F9D60020DA
:10AA300073B58B4D8B4C6A7A637A9A4231D003F0AE
:10AA400071FF0021884804F02BFC6B6863606B7A0F
:10AA5000864863726B89638103F006FF844803F0C4
:10AA600003FF03F095FF02F01DF940F6B8301CF02B
:10AA70000FFB637A7F48012B4FF000014FF0320645
:10AA800040F0998011F025FF00227B4800960A23B0
:10AA9000114611F076FF794811F055FF784812F011
:10AAA0006BF9EA7AE37A9A4207D06B7A023B012B80
:10AAB00094BF0120002002F0FDFF6A6863689A429B
:10AAC00003D16A8963899A4213D003F02BFF674848
:10AAD00003F0CAFE664803F0C7FE03F059FF6B6837
:10AAE00063606B89638102F0DDF840F6B8301CF0DA
:10AAF000CFFA644812F070F8002869D0624811F06B
:10AB0000F7FF624B1978884205D000395E4818BFBC
:10AB1000012111F0EFFF5E4811F0FCFF5D4B197849
:10AB2000884202D05A4811F0F7FF5B4812F004F84F
:10AB30005A4B1978884202D0574811F0FFFF584D00
:10AB400058482E7812F00AF886420BD029785548DA
:10AB500012F010F832230122009347480A231146CD
:10AB600011F00FFF03F0DEFE637A012B71D06CD978
:10AB7000023B012B6FD94FF47A7362684A49B2FBEA
:10AB8000F3F24A480FF010F8484803F06DFE62688F
:10AB900022B100234648194612F025F9A37A002B6A
:10ABA0005BD0434800234EF66022022102B0BDE88C
:10ABB000704012F018B911F08CFE012200960A23A1
:10ABC00011462D4811F0DDFE2E4812F009F865E718
:10ABD000384D3948296811F036FE374811F031FEFA
:10ABE0002968884202D0344811F02DFE334811F014
:10ABF00039FE334B1978884202D0304811F034FEC8
:10AC0000304D31482E7811F03EFE864203D029782F
:10AC10002D4811F03AFE2D4811F046FE2C4B1978C4
:10AC2000884202D0294811F041FE2A4811F04FFE17
:10AC3000294B1978884202D0264811F059FE4FF668
:10AC4000FD710C4811F045FE8CE7244803F00CFE22
:10AC500091E72348FAE72348F8E702B070BD00BF48
:10AC6000D0A1002004A30020694807007048070015
:10AC7000804807006EE3002049E3002084E30020C1
:10AC8000A8E200206DE3002055E30020FBD6002061
:10AC900058E30020FDD6002060E30020FED600200F
:10ACA000FCD600206AE30020DF420700B5D5002073
:10ACB00011E3002008D7002079E300207AE3002088
:10ACC0000CD7002003D700207BE300207CE300208A
:10ACD00004D700207EE300200DD70020AB42070000
:10ACE00082410700CB420700F8B512F01AFC1C4D58
:10ACF0001C4B1D4C0021C3E9000112F012FCD5E9E8
:10AD00000032C61A62EB4207C92E77F1000308DB56
:10AD100012F007FC00236B60237828600133DBB25C
:10AD20002370124A1249134812F03CFB2278124950
:10AD3000104812F037FB11490E4812F033FB0D4852
:10AD400011F006FD22780C490D4812F02BFB0B493F
:10AD50000B4812F027FBBDE8F84064201CF098B9BE
:10AD6000E8D60020F0D60020F9D600209148070050
:10AD70001840070030E200209548070018910700AE
:10AD800094E20020000000002DE9F04F87B0FFF7AB
:10AD9000B9FC072800F29A82DFE810F05107B204EC
:10ADA0000800D60200019300490036008F4B904AFC
:10ADB00000241C708F4B00200021C3E900018E4944
:10ADC0008E4812F0EFFA8E498C4812F0EBFA8D495A
:10ADD0008A4812F0E7FA894811F0BAFC88498A4893
:10ADE00012F0E0FA8749884812F0DCFA64201CF07F
:10ADF0004FF9864B1B782BB1204607B0BDE8F04FCA
:10AE000003F0CEBD0120F8E7784B00221A70794B91
:10AE100000200021C3E900017D4B1C783CB903F000
:10AE200081FD7C48214604F03BFA1CF048F96F4B49
:10AE300000221A706F4B00200021C3E90001744BFF
:10AE40001C78002C31D0744C2378052B0DD1734B1A
:10AE50007348D97A1022227001919B7A009371492C
:10AE6000714B09781B7803F0C3FD614A624963485E
:10AE700012F098FA22786D49604812F093FA61490D
:10AE80005E4812F08FFA5D4811F062FC2278674943
:10AE90005D4812F087FA5B495B4812F083FA642040
:10AEA00007B0BDE8F04F1CF0F3B803F03BFD60487D
:10AEB000214604F0F5F95F4807B0BDE8F04F11F006
:10AEC0005BBF4A4B00221A704A4B00200021C3E9A5
:10AED00000014F4B1B78002B00F0F8814E4C23787B
:10AEE000052B16D8DFE803F00315153440505248FF
:10AEF00011F072FE0128494B1FD1D97A4F48042224
:10AF0000227001919B7A4E4900930978FF2303F048
:10AF10006FFD374A3849394812F044FA22784949D6
:10AF2000364812F03FFA3749344812F03BFA3348BA
:10AF300011F00EFC22784349AAE7D97A424805224B
:10AF4000227001919B7A414900930978FF23DEE743
:10AF5000324B3F48D97A03225A7201919B7A3D497C
:10AF6000009309780523D2E707233B48237011F0AB
:10AF7000F5FD2A4AD37A0193937A00932278C3B2DB
:10AF8000284927480978C2E7244B0E22D97A227033
:10AF900001919B7A0093314B1B78F1E7134B002210
:10AFA0001A70144B00200021C3E90001184B1B78D4
:10AFB000002B00F0D180184C2378062B5DD8DFE8F9
:10AFC00013F007004F0070007E008800B900C30036
:10AFD000124903224B7AC87A22700190897A009133
:10AFE0000233DBB21B491A48097844E0F9D6002045
:10AFF00091480700F0D600201840070030E20020FA
:10B00000A54807001891070094E200204CA50020F5
:10B01000F8D60020AF480700FAD60020D0A10020C3
:10B02000C8A10020CCA100200DD70020BA480700FD
:10B03000CB480700A8E200206DE30020A4A2002076
:10B04000B8A20020D1480700D0A20020E8A200202A
:10B0500064A2002078A200206AE3002004D7002028
:10B060009C4B9D48D97A0022227001919B7A9B4982
:10B0700000930978FF2303F0BBFC994A99499A4849
:10B0800012F090F922789949974812F08BF9984973
:10B09000954812F087F9944811F05AFB22789349A9
:10B0A000F6E68C4A9349937A934883F001039372AE
:10B0B000D27ACDE90032FF2309780222DBE7854B03
:10B0C00002225A72DA7A01929B7A009303220423B5
:10B0D00088E70A238948237011F040FDC0B20C288C
:10B0E0000ED8DFE800F0071B1B211B21211B1B1BB7
:10B0F0001B1B2100824B00221A70824B05221A7002
:10B10000744A814BD17A1B780191927A00920A336A
:10B110002278DBB27D497E480978ACE7784B002283
:10B120001A70784B0722EAE7754B00221A70754BAC
:10B130000A22E4E7674B0D22D97A227001919B7AAB
:10B140000093744B1B78E5E7624BDA7A01929B7AA5
:10B15000009306220023DDE76F4811F03DFD012832
:10B1600040F0B4806D4E727A012A00F0AF806C4FCF
:10B170003A78002A40F0AA806A4D6B4B28701B7801
:10B180000BB903F00DFC564A56495748DFF8509169
:10B1900012F008F96549544812F004F9544952482C
:10B1A00012F000F9504811F0D3FA6049604812F0EB
:10B1B000F9F84F495E4812F0F5F864201BF068FF7B
:10B1C00000215C4811F019FE4C4811F0C7FC5A4BA5
:10B1D00053F820305948059311F09CFC0024804618
:10B1E000059B33F81430002B60D03E493E484A4658
:10B1F00012F0D8F8224652493B4812F0D3F83C49A5
:10B20000394812F0CFF8384811F0A2FA22464C49DA
:10B21000474812F0C7F83649454812F0C3F8642091
:10B220001BF036FFE1B2454811F076FC64201BF0BC
:10B230002FFF0020FCF7CAF912F073F94FF0000A53
:10B2400083463A7872B34FF47A701BF021FF12F004
:10B2500068F9B0EB0B0302936AEB4A030393DDE951
:10B26000020142F21072002382428B41E9DA4A461F
:10B270001C491D4812F096F832491B4812F092F80A
:10B280001B49194812F08EF8174811F061FA2D4940
:10B29000274812F087F81649254812F083F86420F1
:10B2A0001BF0F6FE4FF4FA601BF0F2FE0134102C96
:10B2B00096D12248414611F02FFC726822B100233A
:10B2C0001C48194611F08FFD00232B7007B0BDE814
:10B2D000F08F00BFD0A10020ECA2002000A300202E
:10B2E000914807001840070030E20020E2480700BC
:10B2F00018910700CCA20020BCA200206AE3002025
:10B3000002D7002000D70020FDD60020CCA10020CD
:10B31000C8A1002003D700206DE3002004A3002073
:10B32000CDD6002081D500204CA50020F348070091
:10B3300094E2002011E30020FCA4002058E3002048
:10B3400006490700144907008E4B00221A708E4BE5
:10B3500000240025C3E900458C4B1B78002B00F02E
:10B360008D818B4C2378102B2BD8DFE813F0110044
:10B370001D003E004900560085009200A5002A00ED
:10B38000D100E400F9004B015A0169012A0077015C
:10B39000804B0222D97A227001919B7A0093FF237D
:10B3A0007D497E4809780AE07A4B7D48D97A0022A7
:10B3B000227001919B7A7B4900930978FF2303F067
:10B3C00017FB794A79497A4811F0ECFF22787949DC
:10B3D000774811F0E7FF7849754811F0E3FF7448AA
:10B3E00011F0B6F92278734952E56A4AD37A83F0AC
:10B3F0000103D3720193937A00930222FF23CFE7D4
:10B40000644B6E496E4801225A72DA7A01929B7A35
:10B410000093032309781A46D1E70923694823706A
:10B4200011F09CFBC0B20C2814D8DFE800F007072D
:10B430000707070D1C07222222221C00624B002254
:10B440001A70624B052204E05F4B00221A705F4BBA
:10B4500004221A704F4BDA7A01929B7A00935C4B6C
:10B460001B78227811E0584B00221A70574B0622A5
:10B47000EFE7554B0222E3E7464B0C22D97A2270C4
:10B4800001919B7A0093534B1B7853495348097899
:10B4900095E7404B5A6842B142F20F718A428ABF27
:10B4A000A2F51C520022103A5A60DA7A01929B7A75
:10B4B00000930622FF23E8E7494D2B7833B3013B85
:10B4C000DBB2394A39493A482B7011F06BFF2A78C0
:10B4D0004449374811F066FF3749354811F062FF9B
:10B4E000334811F035F92A783E493F4811F05AFFA8
:10B4F00031493D4811F056FF64201BF0C9FD254B32
:10B50000DA7A01929B7A00932B78AAE70C23D8E78A
:10B510002F4A2D491378097899420BBF2B4B03F121
:10B52000FF331B78DBB213701A4AD17A0191927AF9
:10B5300000920922A9E72D4A2D49137809789942EA
:10B540000BBF2C4B03F1FF331B78DBB21370114B95
:10B55000DA7A01929B7A00931D4B0A221B7894E7BA
:10B56000254A26491368A3F5C333A03B8B4298BFF5
:10B57000234B1360074BDA7A01929B7A00930B22DC
:10B58000FF2382E7F9D60020F0D60020F8D600206D
:10B59000FAD60020D0A10020CCA20020BCA200201E
:10B5A000ECA2002000A300209148070018400700EB
:10B5B00030E20020304907001891070078A20020EF
:10B5C00064A200206AE3002001D70020FFD60020FB
:10B5D000FDD600200CD70020CCA10020C8A100205F
:10B5E000FCD600202649070094E20020FED6002069
:10B5F00002D7002000D7002008D700207F47A119DC
:10B600008047A1197E4A117806291CBF01F1FF333A
:10B61000DBB213707B4AD17A0191927A00920C22AC
:10B6200033E7794A13784BB1013BDBB21370754AAB
:10B63000D17A0191927A00920D2226E70923F5E74B
:10B64000724A13780BB1581EC0B26E4B1070DA7A82
:10B6500001929B7A00930E22034616E76C4A1378F8
:10B66000052B1ABF03F1FF33DBB216231370654AB3
:10B67000D17A0191927A0092102206E7654811F082
:10B68000ABFA01287FF422AE634B1B78002B7FF4CA
:10B690001DAE624B1B780BB903F082F9604A614919
:10B6A000614811F07FFE61495F4811F07BFE6049FF
:10B6B0005D4811F077FE5C4811F04AF85B495D483F
:10B6C00011F070FE5A495B4811F06CFE64201BF0CB
:10B6D000DFFC0021584811F090FB584B012200205C
:10B6E0001A70FBF773FF564B5A68002A3FF4EEAD11
:10B6F00000235148194607B0BDE8F04F11F073BB65
:10B70000504B514D514C00221A70514B00210020DA
:10B71000C3E900012978002940F03581464811F03D
:10B720006CFB0121444811F068FB4348022111F0F1
:10B7300064FB3A4B1B7813B9012003F031F9012364
:10B740003F4A2B70002323702E4B51685960517A69
:10B7500052895A812F48597211F03EFA0546304AF3
:10B7600030493148002D00F08D8011F01BFE394921
:10B770002D4811F017FE2E492B4811F013FE2A48D0
:10B7800010F0E6FF33492B4811F00CFE28492948F8
:10B7900011F008FE64201BF07BFC2F4811F0BAF971
:10B7A0002E4B18702E4811F0D9F92E4B18702E48D8
:10B7B00011F09EF92D4B18702D4811F0BDF92D4B4D
:10B7C00018700023CDE9003322782B492B480978E3
:10B7D00003F00EF9124A1349134811F0E3FD2278E1
:10B7E0002749114811F0DEFD11490F4811F0DAFD2B
:10B7F0000D4810F0ADFF22782149FFF749BB00BF8B
:10B800000CD70020D0A1002003D7002004D70020AF
:10B810000DD700206DE30020CDD600204CA50020E0
:10B82000914807001840070030E200204149070016
:10B830001891070094E2002011E30020A2D5002017
:10B8400004A30020F9D60020F8D60020FAD6002064
:10B85000F0D600205749070058E30020FDD600200D
:10B860006AE30020FCD6002055E30020FBD6002030
:10B8700060E30020FED6002000A30020ECA2002000
:10B880007A49070011F08EFDA749A84811F08AFDFA
:10B89000A749A64811F086FDA44810F059FFA24917
:10B8A000A44811F07FFDA249A24811F07BFD64205D
:10B8B0001BF0EEFB2946A048A04D11F00AF8A04865
:10B8C00010F0BFFF28609F4810F0CCFF9E4B18700F
:10B8D0009E4810F0D8FF9E4B18709E4810F0E4FF71
:10B8E0009D4B18709D4810F0F2FF9D4B9D4A1870BB
:10B8F0009D498E4811F056FD286847F033FE88A315
:10B90000D3E9002347F0C2FF06468D480F4610F0EA
:10B9100098FF47F027FE82A3D3E9002347F0B6FF44
:10B9200032463B46CDE900019049804811F03AFD8E
:10B930007F497E4811F036FD7C4810F009FF2868E9
:10B9400047F010FE76A3D3E9002347F09FFF064699
:10B950007B480F4610F075FF47F004FE70A3D3E953
:10B96000002347F093FF3246CDE900013B467F4973
:10B97000704811F017FD6E496E4811F013FD6420F8
:10B980001BF086FB1DE72378102B3FF623AF01A2A7
:10B9900052F823F0D9B90200EBB90200FDB9020058
:10B9A00001BA02001BBA020039BA020025BC02002B
:10B9B0003DBA020097BA0200B3BA0200D7BA020039
:10B9C000FBBA0200ADBB0200CBBB0200E9BB020028
:10B9D000D5B7020007BC02000122654B2270D97A5C
:10B9E00001919B7A0093FF2322E0614B0022D97AD8
:10B9F000227001919B7A0093FF23E6E60622ECE792
:10BA00005B4B5C495C4800225A72DA7A01929B7A5D
:10BA10000093097802230322DAE65549574BC87A86
:10BA20001B78082222700190897A00910A33DBB2D8
:10BA3000534954480978CBE60B22CEE7524D494A88
:10BA40002B78494939480C2B1ABF0133DBB200234C
:10BA50002B7011F0A7FC2A784C49344811F0A2FC55
:10BA60003349324811F09EFC304810F071FE2A78BC
:10BA70004649304811F096FC2D492E4811F092FCB1
:10BA800064201BF005FB3A4BDA7A01929B7A009313
:10BA90002B782278CCE7394A1378B3FA83F35B0921
:10BAA0001370334AD17A0191927A00920A330822B4
:10BAB000BEE7374A37491378097899420BBF364BAE
:10BAC00001331B78DBB21370294AD17A0191927A43
:10BAD00000920922ACE7314A31491378097899423A
:10BAE0000BBF304B01331B78DBB21370204AD17A85
:10BAF0000191927A00920A229AE7104A2A49136821
:10BB000003F5C333A0338B4294BF13601160184B0D
:10BB1000DA7A01929B7A00930B22FF2388E700BF19
:10BB20000000000084D797415749070030E2002009
:10BB30001891070094E200206EE3002008D700204F
:10BB400079E300207AE300200CD700207BE300207B
:10BB500003D700207CE3002004D700207EE30020F0
:10BB60000DD7002091480700184007006C490700D6
:10BB7000D0A1002078A2002064A20020FBD60020E3
:10BB8000CCA10020C8A10020FCD600202649070037
:10BB9000FDD60020FFD6002001D70020FED60020D1
:10BBA00000D7002002D7002000703839574A137898
:10BBB0000C2B1ABF0133DBB206231370544AD17A1F
:10BBC0000191927A00920C2232E7524A1378092BA3
:10BBD0001ABF0133DBB2002313704D4AD17A0191B1
:10BBE000927A00920D2223E74B4A1378032B1ABF57
:10BBF0000133DBB200231370454AD17A0191927A66
:10BC000000920E2214E7454A1378162B1ABF01330F
:10BC1000DBB2052313703E4AD17A0191927A0092E9
:10BC2000102205E73A4A536803F51C53103353605A
:10BC3000D37A0193937A009306220023F8E6384BD7
:10BC400000221A70374B00200021C3E90001364B57
:10BC50001A78002A3FF43AAB344C2278102A0ED8D6
:10BC6000DFE802F009222222222248303030303C24
:10BC70003C3C3C0D3C0000221A70FEF7D9FE2C4AD9
:10BC80002C492D4811F08EFB22782C492A4811F0BE
:10BC900089FB2B49284811F085FB274810F058FDF7
:10BCA00022782649FFF7F4B8194B2648D97A0022A2
:10BCB000227001919B7A244900930978FF2302F0B6
:10BCC00097FEDCE7124B2148D97A042222700191B9
:10BCD0009B7A1F4900930978FF23F0E70C4B1D481E
:10BCE000D97A0522227001919B7A1B490093097829
:10BCF000FF23E4E7064B1948D97A0222227001910A
:10BD00009B7A174900930978FF23D8E70CD70020C6
:10BD1000D0A1002003D7002004D700200DD7002099
:10BD2000F9D60020F0D60020F8D60020FAD6002060
:10BD3000914807001840070030E200208B490700B7
:10BD400018910700ECA2002000A30020A4A200206C
:10BD5000B8A20020D0A20020E8A20020BCA20020AF
:10BD6000CCA2002070B598B014460A490EA811F074
:10BD700093F90023CDE91433CDE91633636E012B1B
:10BD80000CD1054920680DF03CFF48B1022400F0B9
:10BD9000EDBC00BF1A91070099B00700002BF5D148
:10BDA000B649B748B74CB84DB84E11F0FBFAB84990
:10BDB000B34811F0F7FAB149B64811F0F3FAB449B3
:10BDC000B44811F0EFFA64201BF062F9637AB249CB
:10BDD00055F82320AA4811F0E5FAAD49A84811F01A
:10BDE000E1FA637AAC4955F82320AA4811F0DAFA4F
:10BDF000A749A84811F0D6FA64201BF049F9A749D1
:10BE000011A810F0A3FF11A90EA811F058F911A85C
:10BE100011F0FCF80EA811F095F90E9AA049984877
:10BE200011F0C0FA9A49964811F0BCFA0E9A9C4952
:10BE3000984811F0B7FA9649964811F0B3FA642081
:10BE40001BF026F9974911A810F060FF119A964946
:10BE50008B4811F0A7FA11A811F0D8F88C4988483E
:10BE600011F0A0FA8F4911A810F050FF119A8E49D5
:10BE7000884811F097FA11A811F0C8F8844985484C
:10BE800011F090FA64201BF003F94FF47A756268A0
:10BE90008649B2FBF5F27A4811F084FA7C49784879
:10BEA00011F080FA62688149B2FBF5F2794811F02D
:10BEB00079FA7749774811F075FA64201BF0E8F8B1
:10BEC0007B4810F089FE7B4956F8202005466C48D7
:10BED00011F068FA6E496A4811F064FA56F82520A4
:10BEE00074496C4811F05EFA69496A4811F05AFACF
:10BEF00064201BF0CDF8012D40F04E836E486F4E4C
:10BF00006F4D10F0F3FD6F49002814BF32462A46EA
:10BF10005B4811F047FA5E49594811F043FA664808
:10BF200010F0E4FD6749002814BF32462A465948FC
:10BF3000654E11F037FA5649564811F033FA64202D
:10BF40001BF0A6F8614810F009FE6149054602465B
:10BF50004B4811F027FA4E49494811F023FA2A4676
:10BF60005B494C4811F01EFA49494A4811F01AFA47
:10BF700064201BF08DF856F825205649404811F0F2
:10BF800011FA43493E4811F00DFA56F8252051495F
:10BF9000404811F007FA3E493E4811F003FA642088
:10BFA0001BF076F84C4810F09AFD002800F0BE8196
:10BFB0004A49334811F0F6F93549314811F0F2F9A0
:10BFC0004649344811F0EEF93149324811F0EAF9A6
:10BFD00064201BF05DF8082214A9414810F05EFDB2
:10BFE0009DF8573005939DF8563004939DF85530D1
:10BFF00003939DF8543002939DF8533001939DF8BC
:10C0000052309DF85020374900931D489DF851301B
:10C0100011F0C8F91E491A4811F0C4F99DF85730BB
:10C0200005939DF8563004939DF8553003939DF881
:10C03000543002939DF8533001939DF852309DF88F
:10C0400050202849009313489DF8513011F0AAF967
:10C050000F49104811F0A6F964201BF019F80822C6
:10C0600014A9214810F0F6FC9DF8573005939DF86F
:10C07000563004939DF8553038E000BF064A07005B
:10C0800030E2002004A3002070A40020CCA30020F4
:10C090001891070094E20020154A0700E8E200200A
:10C0A000234A0700ACE20020A97E07002E4A0700C1
:10C0B0006DE300203E4A070054E300200D8E070088
:10C0C000F84907004E4A070098A300206AE30020C1
:10C0D000594A0700644A070053E300206F4A0700EB
:10C0E0004EE30020794A07004AE3002003939DF8BD
:10C0F000543002939DF8533001939DF852309DF8CF
:10C1000050207D4900937D489DF8513011F04AF947
:10C110007B497A4811F046F99DF8573005939DF810
:10C12000563004939DF8553003939DF85430029394
:10C130009DF8533001939DF852309DF850206E4980
:10C14000009370489DF8513011F02CF96C496D48FE
:10C1500011F028F964201AF09BFF102214A96A48F4
:10C1600010F081FC9DF85F300D939DF85E300C93CC
:10C170009DF85D300B939DF85C300A939DF85B3021
:10C1800009939DF85A3008939DF8593007939DF80C
:10C19000583006939DF8573005939DF85630049318
:10C1A0009DF8553003939DF8543002939DF8533019
:10C1B00001939DF852309DF85020544900934F4808
:10C1C0009DF8513011F0EEF84D494C4811F0EAF865
:10C1D0009DF85F300D939DF85E300C939DF85D30B7
:10C1E0000B939DF85C300A939DF85B3009939DF8A2
:10C1F0005A3008939DF8593007939DF858300693AC
:10C200009DF8573005939DF8563004939DF85530AE
:10C2100003939DF8543002939DF8533001939DF899
:10C22000523000939DF850209DF8513037493548E1
:10C2300011F0B8F832493348354E364D11F0B2F8A6
:10C2400064201AF025FF34492C4811F0ABF82C4932
:10C250002A4811F0A7F830492A4811F0A3F82849D4
:10C26000284811F09FF864201AF012FF627A2B49D7
:10C27000224811F097F82249204811F093F8627A89
:10C280002649204811F08EF81D491E4811F08AF801
:10C2900064201AF0FDFEA27A21491848002A14BF32
:10C2A00032462A4611F07EF81549144811F07AF802
:10C2B000A27A1B491348002A14BF32462A4611F0BD
:10C2C00071F80F490F48174E11F06CF864201AF0FE
:10C2D000DFFE15481BF0F4F90025B4F88E20EBB210
:10C2E000934205F1010580F23D8223443046197BDB
:10C2F0001BF0E6F9F1E700BFA14A070030E2002099
:10C300001891070094E200204BE30020C94A07007F
:10C31000034A07008D4807002A4C07003A4C0700E3
:10C32000484C070053D20700594C070090499148E8
:10C3300011F038F890498F4811F034F88C498F4843
:10C3400011F030F88C498D4811F02CF864201AF067
:10C350009FFE14A910228A4810F08EFB9DF85F30D2
:10C360000D939DF85E300C939DF85D300B939DF816
:10C370005C300A939DF85B3009939DF85A3008931E
:10C380009DF8593007939DF8583006939DF8573023
:10C3900005939DF8563004939DF8553003939DF80E
:10C3A000543002939DF8533001939DF852309DF81C
:10C3B0005020009373499DF851306E4810F0F2FF01
:10C3C0006D496C4810F0EEFF9DF85F300D939DF8BD
:10C3D0005E300C939DF85D300B939DF85C300A93B2
:10C3E0009DF85B3009939DF85A3008939DF85930B9
:10C3F00007939DF8583006939DF8573005939DF8A4
:10C40000563004939DF8553003939DF854300293B1
:10C410009DF8533001939DF852309DF850200093C1
:10C4200058499DF85130554810F0BCFF52495348C7
:10C4300010F0B8FF64201AF02BFE14A91022524805
:10C4400010F035FB9DF85F300D939DF85E300C9336
:10C450009DF85D300B939DF85C300A939DF85B303E
:10C4600009939DF85A3008939DF8593007939DF829
:10C47000583006939DF8573005939DF85630049335
:10C480009DF8553003939DF8543002939DF8533036
:10C4900001939DF852309DF8502000933B499DF840
:10C4A0005130344810F07EFF3349324810F07AFFA3
:10C4B0009DF85F300D939DF85E300C939DF85D30D4
:10C4C0000B939DF85C300A939DF85B3009939DF8BF
:10C4D0005A3008939DF8593007939DF858300693C9
:10C4E0009DF8573005939DF8563004939DF85530CC
:10C4F00003939DF8543002939DF8533001939DF8B7
:10C5000052309DF85020009320499DF851301B482F
:10C5100010F048FF1849194810F044FF64201AF041
:10C52000B7FD14A904221A4810F0AFFA9DF8533051
:10C5300001939DF852309DF85020009315499DF8C5
:10C5400051300C4810F02EFF0B490A4810F02AFF1A
:10C550009DF8533001939DF8523000939DF8502080
:10C560009DF851300B49054810F01CFF62E600BFF2
:10C57000114B070030E200201891070094E20020E0
:10C580004CE300201A4B070050E30020634B0700E8
:10C590004DE30020AC4B07007748002D40F09B8016
:10C5A00010F04FF975490246754810F0FBFE7549C9
:10C5B000734810F0F7FE704810F043F96F490246D7
:10C5C000714810F0EFFE6F496F4810F0EBFE6420E9
:10C5D0001AF05EFD6D4810F045F96D490246684855
:10C5E00010F0E0FE6749664810F0DCFE674810F086
:10C5F00039F967490246644810F0D4FE614962483F
:10C6000010F0D0FE64201AF043FD624810F03BF9B0
:10C61000614902465A4810F0C5FE5A49584810F080
:10C62000C1FE5C4810F02FF95B490246564810F0F5
:10C63000B9FE5449544810F0B5FE64201AF028FDA4
:10C64000564810F031F9564902464D4810F0AAFEFE
:10C650004C494B4810F0A6FE504810F025F95049BF
:10C660000246494810F09EFE4649474810F09AFE9F
:10C6700064201AF00DFD4B4810F027F94A49024694
:10C680003F4810F08FFE3F493D4810F08BFE454873
:10C6900010F01BF9444902463B4810F083FE39492B
:10C6A000394810F07FFE64201AF0F2FC3F4810F089
:10C6B0000EF93F490246324810F074FE31493048C5
:10C6C00010F070FE394810F002F9394902462E4840
:10C6D00010F068FEAEE510F0B4F82849024628488C
:10C6E00010F060FE2749264810F05CFE224810F04A
:10C6F000A8F822490246244810F054FE2149224855
:10C7000010F050FE64201AF0C3FC2A4810F013F910
:10C71000294902461A4810F045FE1A49184810F0F7
:10C7200041FE244810F007F923490246164810F04C
:10C7300039FE1449144810F035FE64201AF0A8FCA4
:10C740001E4810F0FAF81E4902460D4810F02AFE65
:10C750000C490B4810F026FE184810F0EEF8184966
:10C760000246B4E707481AF0ABFF00240EA810F009
:10C770004DFC204618B070BD79E30020C54B070082
:10C7800030E200201891070094E200207AE30020B4
:10C79000D44B07007BE30020DC4B07007CE3002048
:10C7A000E44B07007DE30020EC4B07007EE3002014
:10C7B000014C070082E300200F4C070083E30020B8
:10C7C0001C4C070073B5556E012D0E4625D114493A
:10C7D00010680DF016FA0446E0B90425CDE900050D
:10C7E000022332460F49104810F0DCFD0F490E4875
:10C7F00010F0D8FD02233246CDE9004509490C4826
:10C8000010F0D0FD09490A4810F0CCFD64201AF060
:10C810003FFC2546284602B070BD0125FAE700BF5F
:10C8200099B007006A4C070030E200201891070019
:10C8300094E200202DE9FF41536E012B0D46144672
:10C8400024D1394910680DF0DCF9044620B10224E6
:10C85000204604B0BDE8F08102F058FE2946334876
:10C8600010F06CFD3249314810F056FD314A324922
:10C87000D3790393937902935379019313790093B6
:10C8800093782A48128810F08DFDE1E7052BDED160
:10C89000161F02F1100756F8045F28460DF0C3F981
:10C8A0002B462844984205D013F8012B303A092A28
:10C8B000F8D9CCE7BE42EED10022114620680DF037
:10C8C0001FFB40F2D233A0F2E6729A420546BED870
:10C8D0000022606811460DF013FB431E0B2B064629
:10C8E000B5D80022A06811460DF00AFB431E1E2B8E
:10C8F0000746ACD80022E06811460DF001FB18286D
:10C900008046A4D80022206911460DF0F9FA3B2890
:10C910009DD8C2B200925FFA88F3FAB2F1B2A8B21F
:10C9200002F0AEFD002493E799B0070030E200204A
:10C9300017650700CCD90020834C070007B50323F7
:10C940000193054B0093054B054A0648194610F024
:10C950001EFA03B05DF804FB51CF02009E4C0700A5
:10C96000A64C07000EE3002007B503230193054BF7
:10C970000093054B054A0648194610F008FA03B023
:10C980005DF804FB61D10200FE4C0700034D070077
:10C990000EE3002007B503230193054B0093054BDD
:10C9A000054A0648194610F0F2F903B05DF804FB99
:10C9B00065D30200614D0700664D07000EE30020BD
:10C9C00007B503230193054B0093054B054A064821
:10C9D000194610F0DCF903B05DF804FB71CA0200DF
:10C9E0008D4D0700924D07000EE3002007B503238D
:10C9F0000193054B0093054B054A0648194610F074
:10CA0000C6F903B05DF804FB35C80200A84D070065
:10CA1000AC4D07000EE3002007B502230193054B40
:10CA20000093054B054A0648194610F0B0F903B0CB
:10CA30005DF804FB65BD0200D34D0700DA4D070029
:10CA40000EE3002007B502230193054B0093054B2D
:10CA5000054A0648194610F09AF903B05DF804FB40
:10CA6000C5C70200F14D0700F84D07000EE3002096
:10CA70002DE9F84F784B1B78E3B9784A7849794823
:10CA800010F090FC7849774810F08CFC7749754895
:10CA900010F088FC73480FF05BFE7349744810F087
:10CAA00081FC7249724810F07DFC64201AF0F0FAA3
:10CAB000022472E0556E012DFAD1D2F800A06D4922
:10CAC00050460DF09EF80446002840F082806A4BE4
:10CAD000664964481D7010F065FC64496148DFF8E0
