:020000022000DC
:1070000000000420BD9E0300E59E0300E79E0300F0
:10701000E99E0300EB9E0300ED9E030000000000CC
:10702000000000000000000000000000EF9E0300D0
:10703000F19E0300000000000000000000000000BE
:10704000B1820500F39E030031A105008988050087
:10705000F39E0300F17E0500C97C0500E164060093
:10706000F39E0300C9870500DD870500F39E03003A
:10707000F39E0300F39E0300F39E0300F39E0300C0
:10708000E5710600C9540500F39E0300F39E03005A
:10709000F39E0300F39E0300695B0600F39E03006A
:1070A000F39E0300F39E0300F187050005880500A9
:1070B000F39E0300F39E03000000000000000000A8
:1070C000F39E0300F39E0300F39E03001D6A060077
:1070D000E1840500F39E0300F39E0300419E05003A
:1070E000B99E0600F39E0300F9C5060000000000EB
:1070F00000000000F39E030000000000ED6D06009C
:10710000000000000000000000000000000000007F
:10711000000000000000000000000000000000006F
:10712000000000000000000000000000000000005F
:10713000000000000000000000000000000000004F
:10714000000000000000000000000000000000003F
:10715000000000000000000000000000000000002F
:10716000000000000000000000000000000000001F
:10717000000000000000000000000000000000000F
:1071800000000000000000000000000000000000FF
:1071900000000000000000000000000000000000EF
:1071A00000000000000000000000000000000000DF
:1071B00000000000000000000000000000000000CF
:1071C00000000000000000000000000000000000BF
:1071D00000000000000000000000000000000000AF
:1071E000000000000000000000000000000000009F
:1071F000000000000000000000000000000000008F
:1072000010B5054C237833B9044B13B10448AFF3E0
:1072100000800123237010BDC0D4002000000000B6
:10722000880B080008B5034B1BB103490348AFF3B3
:10723000008008BD00000000C4D40020880B0800B6
:10724000154B002B08BF134B9D46A3F5803A002138
:107250008B460F461348144A121A10F01DFB0F4BB1
:10726000002B00D098470E4B002B00D098470020F1
:10727000002104000D000D48002802D00C48AFF397
:10728000008010F0B9FA2000290010F03FF810F04B
:107290009FFA00BF0000080000000420000000006A
:1072A00000000000C0D4002074C4012000000000D1
:1072B000000000000022C0E900220172704738B5CA
:1072C0000446006820B1856912F0C0FD2846F9E740
:1072D000204638BD006820B143688B4201D08069E8
:1072E000F9E77047F8B504460F4616461D46FFF706
:1072F000F1FF20B10123826005704370F8BD1C20AE
:1073000012F0A8FD012343700023C0E90333C0E954
:10731000053323680570C0E9017613B92060606009
:10732000ECE763689861FAE72DE9F8430468164FC3
:1073300005460E464FF000081CB363680BB9A469FC
:10734000FAE72378002BFAD0E368A268F31A9A428E
:1073500002D961780029F2D09B1A636184F8018018
:10736000E66014F033FC63688146984714F02EFC05
:107370003B68A0EB0900206118442B7A3860002B91
:10738000DDD0BDE8F88300BFDCD4002008B5074B92
:1073900050B103221A700648FA22012114F069F84C
:1073A000044B00221A7008BD0522F3E7E0D4002048
:1073B00051E200202DD60020054B064800221A700D
:1073C000054B08221A700121FA2214F052B800BFAE
:1073D0002DD6002051E20020E0D4002084B004AB80
:1073E00003E907000B4BBDF90A201A800A4B9DF9EF
:1073F0000C201A70094A0A48136801331360094BBC
:1074000000221A70084B0121FA22197004B014F0FE
:1074100030B800BF10D5002012D5002028D600209B
:1074200051E200202DD60020E0D40020124B002293
:107430001A70124B1B7A022B1DD0114B90F90620AB
:107440001A70104BB0F904201A800F4A0378137099
:107450000E4A417811700E4A817811701BB10D4AA5
:107460001368013313600C4B0C4804221A7001217D
:10747000FA2213F0FEBF70472DD60020F8A200209C
:1074800012D5002010D5002015D6002013D60020DC
:1074900014D6002024D60020E0D4002051E20020A1
:1074A000F0B5864C864D237A864F0126022B85B097
:1074B0002E7040F03981844807F057FDA37A002BE5
:1074C00000F0C4803B78814F3978002940F09780E4
:1074D00043B37F4B1B782BBB06F0BAF87D4805F011
:1074E00091FF7D4806F056F8A37ADBB97B4A7C49C8
:1074F0007C4814F09DFA7C497A4814F099FA7B494B
:10750000784814F095FA7849794814F091FA774957
:10751000774814F08DFA64201EF004F931462220D9
:1075200014F043FB05F0FCF9064600284BD0714BE4
:107530001B78DBB9694A6A496A4814F079FA6E49DE
:10754000684814F075FA6949664814F071FA6A4996
:10755000674814F06DFA6549654814F069FA6420CB
:107560001EF0E0F86548012113F06DFE564807F063
:10757000FFFC0390544807F0FDFC01230721CDE9EF
:107580000031024603995E4813F05CFD0446C0B921
:10759000524A5349534814F04BFA5A49514814F08F
:1075A00047FA52494F4814F043FA5649504814F0EC
:1075B0003FFA4E494E4814F03BFA64201EF0B2F8F0
:1075C0002C7005B0F0BD01233F483B7007F0CDFCA7
:1075D0004D4B4E481E8041F288326368B3FBF2F394
:1075E0004B4A13804B4B1E704B4B40F6C4121E701F
:1075F0000321334605B0BDE8F04013F03ABF53B164
:10760000334B1B783BB906F023F8324805F0FAFEFD
:10761000424805F0BFFF314A3149324814F008FAB8
:107620003F49304814F004FA30492E4814F000FA6B
:107630003B492F4814F0FCF92C492D4814F0F8F977
:10764000642005B0BDE8F0401EF06CB83B7853B143
:107650001F4B1B783BB905F0FBFF1E4805F0D2FE1F
:10766000304805F097FF002300931A461946164844
:10767000B7EE000A07F09CFB1E4B1B78002B7FF433
:1076800075AF01211D4813F0DEFD144A1449154859
:1076900014F0CEF91849134814F0CAF913491148E7
:1076A00014F0C6F91449124814F0C2F90F491048F1
:1076B00014F0BEF964201EF035F857E7F8A2002058
:1076C0002DD600200DD5002004D500200CD500209B
:1076D00058D60020981B0700A91B0700C41B0700F1
:1076E000C81B070070E10020CE1B070038690700A7
:1076F000D4E100202CD60020DC1B0700ACE20020E7
:1077000089E20020E91B070078D6002051E2002022
:107710007AD60020A8D60020A9D60020051C070094
:10772000191C07002D1C07003B784BB1A84B1E7895
:1077300036B905F08DFFA74805F064FEA64B1E7014
:10774000A37A0BB105F0ECF8A44813F08BFD0028E8
:1077500000F01481A24813F00FFD002800F0FE8015
:107760000121242014F021FA9E4A9F499F4814F0D9
:107770005FF99F499D4814F05BF99E499B4814F0BE
:1077800057F99B499C4814F053F99A499A4814F0C8
:107790004FF964201DF0C6FF984805F0FBFE98489D
:1077A00013F022FDB4F88C1080B204F049FF8E492A
:1077B000944A06468D4814F03BF9B4F88C20924860
:1077C000039213F0EDFC3346039A904900908748EA
:1077D00014F02EF98749854814F02AF9B4F88C2062
:1077E0008948039213F0DCFC039A884900903346E1
:1077F000814814F01DF97F497F4814F019F964207D
:107800001DF090FF804813F0CBFCB04254D37D4A6A
:107810007549764814F00CF97D49744814F008F95C
:107820007449724814F004F97949734814F000F966
:107830007049714814F0FCF864201DF073FF754B1B
:107840001B78DBB9674A6849684814F0F1F8724957
:10785000664814F0EDF86749644814F0E9F86E4999
:10786000654814F0E5F86349634814F0E1F86420D2
:107870001DF058FF6948012113F0E5FC01230722A0
:10788000CDE900326648674A94F88C10022313F061
:10789000D9FB00287FF495AE524A534928705348CB
:1078A00014F0C6F86049514814F0C2F851494F48E5
:1078B00014F0BEF85C49BCE63146534813F072FC44
:1078C0004FF4FA701DF02EFF4E4A4749474814F016
:1078D000AFF84D4813F064FC54490246434814F095
:1078E000A7F84449414814F0A3F8474813F058FC5E
:1078F0004E490246404814F09BF83E493E4814F079
:1079000097F864201DF00EFF3B786BB1304B1B786D
:1079100053B9474805F03EFE46494748324610F005
:107920001BFD454805F036FE364A2F492F4814F016
:107930007FF8354813F034FC3C4902462B4814F0DC
:1079400077F82C49294814F073F82F4813F028FCD5
:1079500036490246284814F06BF869E7214A224963
:107960002870224814F064F83449204814F060F874
:1079700020491E4814F05CF830495AE601212320C2
:1079800014F013F9174A1849184814F051F82C4903
:10799000164814F04DF81749144814F049F82849CE
:1079A000154814F045F81349134814F041F86420C1
:1079B0001DF0B8FE114805F0EDFD0123194A94F8B9
:1079C0008C10204813F0E9FA01232B70F9E500BF71
:1079D00058D60020391C070001D50020ADE2002058
:1079E00094E20020C41B0700C81B070070E10020C0
:1079F0004A1C070038690700D4E10020561C070024
:107A0000AAE20020641C070098E200206B1C07001B
:107A10009F1C07002CD60020DC1B0700ACE20020D6
:107A200089E2002003A30020E91B0700CF1C070008
:107A3000E61C0700F81C070013D50020011D0700F5
:107A40001F1D0700AEE200202DE9F04F2DED028B47
:107A500000218DB0AE4E0446242014F0A6F800217B
:107A6000232014F0A2F833785BB1AA4B1B7843B9FA
:107A700005F0EEFDA849A94810F0A5FCA74805F0BF
:107A8000C1FC44B9A649A74813F0BEFF0DB0BDEC38
:107A9000028BBDE8F08F2478012C40F0928133787E
:107AA000DFF8FC82A04FA14E002B00F0BD80994B67
:107AB0001D78002D40F0B8809D49984810F083FC57
:107AC000964909A813F02EFE09AA2946284605F072
:107AD000DBFD09A813F0E0FDD8F8002095498F4898
:107AE00010F03AFC8D4909A813F01CFE09AA29469A
:107AF000204605F0C9FD09A813F0CEFD8E4813F00D
:107B0000E6F949F0FFFA80A3D3E9002349F09EFC8F
:107B10000B4602468949814810F01EFC7F4909A89E
:107B200013F000FE09AA2946022005F0ADFD09A8C0
:107B300013F0B2FD824813F0DBF982490246774820
:107B400010F00AFC754909A813F0ECFD09AA2946B2
:107B5000032005F099FD09A813F09EFD7A4813F063
:107B6000D8F9092800F22881DFE810F00A00C300E4
:107B7000C500C700C9001C011E012001220124010B
:107B8000724907A810F01FFC6F4813F0C2F9704B40
:107B9000704953F82020614810F0DEFB5F4909A8C6
:107BA00013F0C0FD09AA4021032005F06DFD09A8CE
:107BB00013F072FD684813F0BDF96849421D57483B
:107BC00010F0CAFB554909A813F0ACFD09AA4021E1
:107BD000022005F059FD09A813F05EFD3A886049BE
:107BE0004E4812B210F0B8FB4C4909A813F09AFDA8
:107BF00009AA0021042005F047FD09A813F04CFD57
:107C000032785849454852B210F0A6FB434909A8BA
:107C100013F088FD09AA4021042005F035FD09A8CC
:107C200013F03AFD05F04AFD4F4B1B78002B2DD089
:107C30004E4B1B78002B00F0C18006F007FB4C4A2E
:107C40004C4B11881980917899701179D9705179BC
:107C5000927919715A7101229A7147490022DA7199
:107C60000968996045490968D9601A745A74398855
:107C700049B29974317849B2D9749A82DA821A83F6
:107C80003F4A126812B25A8306F056FD3D49254814
:107C900013F0BAFED8F800203B883178214849B269
:107CA0001BB20091384913F0C3FE234813F00FF9BB
:107CB00008EE100A224813F01BF90446224813F07C
:107CC00028F9F8EE487A054617EE900A49F03CFA92
:107CD0000DA3D3E9002349F0B9FB7D2305FB033352
:107CE000CDE9004302460B460E48284913F0A0FE9A
:107CF000CCE6274945E7274943E7274941E7274994
:107D00003FE700BFAFF300800000000080842E41F9
:107D10000DD5002058D60020391C070013D50020AF
:107D2000331D070070E1002010D5002012D500207F
:107D3000401D07004E1D0700B9E20020B2240700D5
:107D4000BAE20020382F0700BBE20020621D0700C6
:107D500070A20020981D0700BCE20020512F0700F0
:107D60009E1D0700A61D07000ED5002034D9002057
:107D70002CD90020A4A1002088D600208CD6002079
:107D800024D60020AD1D0700BA1D0700D61D070030
:107D9000661D07006A1D07006E1D0700721D0700A3
:107DA00028D600205D49ECE65D49EAE65D49E8E653
:107DB0005D49E6E65D49E4E65D49E2E606F06AFA19
:107DC0003DE7032C62D13378002B3FF45FAE594B73
:107DD0001E78002E7FF45AAE574C257A002D41D0E4
:107DE000022D4CD04FF47A7362685449B2FBF3F21F
:107DF000534810F0B1FA524909A813F093FC09AAAC
:107E00000021012005F040FC09A813F045FC4D4974
:107E100009A813F087FC002109AA022005F034FC10
:107E200009A813F039FC4849454810F0CCFA4449F8
:107E300009A813F077FC09AA0021032005F024FC0F
:107E400009A813F029FC3F4909A813F06BFC09AA03
:107E50000021042005F018FC09A813F01DFC05F012
:107E60002DFC13E6394909A813F05CFC09AA294640
:107E7000084605F009FC09A813F00EFCB2E73449E6
:107E800009A813F04FFC09AA3146F1E7052C63D18C
:107E90003378002B3FF4FAAD264B1E78002E7FF48A
:107EA000F5AD254C257A25B3022D2FD04FF47A73EA
:107EB00062682249B2FBF3F2214810F04DFA2049E2
:107EC00009A813F02FFC09AA0021012005F0DCFB12
:107ED00009A813F0E1FB1B4909A813F023FC0021BA
:107EE00009AA022005F0D0FB09A813F0D5FB194917
:107EF0009AE7164909A813F015FC09AA294608466D
:107F000005F0C2FB09A813F0C7FBCFE7104909A889
:107F100013F008FC09AA3146F1E700BF771D0700FE
:107F20007D1D0700831D0700891D07008F1D0700A9
:107F3000941D070058D60020F8A200200B1E070051
:107F400013D500204BCD07001E1E0700EA1D0700B9
:107F5000F91D07002A1E0700042C40F0FF8133782A
:107F6000DFF808A3A54DDFF80893A54EDFF804B3AA
:107F7000002B00F0A480A34B1F78002F40F09F80BF
:107F8000A14B3178A14AA248002918BF1A46A1493D
:107F900010F0E2F99E4909A813F0C4FB09AA39467A
:107FA000384605F071FB09A813F076FB327802F031
:107FB000FF08002A40F0DD809BF800209649944895
:107FC00010F0CAF9924909A813F0ACFB09AA41467E
:107FD000012005F059FB09A813F05EFBDAF8002038
:107FE0008E498B4810F0B8F9894909A813F09AFB1B
:107FF00009AA4146022005F047FB09A813F04CFBF3
:10800000874B88491A68824810F0A6F9804909A868
:1080100013F088FB09AA4021022005F035FB09A8CE
:1080200013F03AFB804B81491A78794810F094F9A3
:10803000774909A813F076FB09AA4146032005F009
:1080400023FB09A813F028FB794813F0A9F8794914
:1080500002466F4810F080F96D4909A813F062FBE1
:1080600009AA4021032005F00FFB09A813F014FB17
:108070002A887149664812B210F06EF9644909A85D
:1080800013F050FB09AA4146204605F0FDFA09A865
:1080900013F002FB99F8002068495D4852B210F0D5
:1080A0005BF95B4909A813F03DFB204609AA402172
:1080B00005F0EAFA09A813F0EFFA05F0FFFA604BB1
:1080C0001B78002B36D05F4B1B78002B00F01B81F8
:1080D00006F0BCF85C4A5D4B118819809178997064
:1080E0001179D9705179927919715A714E490022DA
:1080F0009A710978C9B2D971554909689960554989
:108100000968D960298849B21974298849B2597413
:10811000298849B2997499F8001049B2D9749A82A1
:10812000DA829BF800201A833D4A126812B25A8301
:1081300006F002FB3178344B344A4748002918BF17
:108140001A46464913F074FCDAF800202B8899F897
:108150000010414849B200911BB2414913F068FC3C
:10816000314B40491A783C489BF8003013F060FCD2
:108170008CE4DAF800202949254810F0EDF824496C
:1081800009A813F0CFFA09AA3946012005F07CFAB4
:1081900009A813F081FA224B22491A681C4810F0F2
:1081A000DBF81B4909A813F0BDFA09AA40210120F8
:1081B00005F06AFA09A813F06FFA32782A491448D0
:1081C00010F0CAF8124909A813F0ACFA09AA394606
:1081D000022005F059FA09A813F05EFA3378013B42
:1081E0000F2B00F28E80DFE803F0476E707274761A
:1081F000787A7C7E80828486888A00BF10D50020B1
:1082000015D6002058D600202F1D0700301D07006E
:1082100013D50020401E0700511E0700641E0700F2
:1082200024D600206C1E070014D60020741E070000
:1082300098E20020711F07009E1D0700A61D070081
:108240000ED5002034D900202CD90020A4A1002074
:1082500088D600208CD6002070E10020771F070010
:10826000BA1D0700851F07007D1E070028D60020C5
:1082700012D5002013D600202449254810F0A3F879
:10828000234909A813F04EFA09AA0021032005F09A
:10829000FBF909A813F000FA1E4812F081FF1E49ED
:1082A00002461B4810F058F8194909A813F03AFA89
:1082B00009AA0021042005F0E7F909A813F0ECF958
:1082C00005F0FCF9F9E61549D7E71549D5E7154951
:1082D000D3E71549D1E71549CFE71549CDE715494A
:1082E000CBE71549C9E71549C7E71549C5E715495A
:1082F000C3E71549C1E71549BFE71549BDE715496A
:10830000BBE71549B9E705F0C5FFE3E6921E070094
:1083100013D5002098E200206E1F0700A01E070062
:10832000AB1E0700B71E0700C31E0700CD1E0700C7
:108330001E1E0700D71E0700EB1E0700FE1E0700CB
:108340000E1F07001B1F0700251F0700351F070012
:10835000431F07004F1F0700601F0700A24B1B7839
:10836000062B40F0A181A14BA149DD781C7993F83F
:1083700001809F7893F905B09E48C5EB451205EB47
:108380008205A8F1C808C4EB4412C83F04EB82047C
:108390001FFA88F85A790292BFB25A466D006400FB
:1083A0000FFA88FA0FFA87F913F042FB2DB29249BF
:1083B00090484B46524624B213F03AFB23468F496D
:1083C0008C482A4613F034FB3378002B00F0D08021
:1083D0008B4B1E78002E40F0CB8005F039F9894890
:1083E00005F010F8884B89491A78894B89481B8811
:1083F00052B21BB20FF0B0FF864909A813F092F9F0
:1084000009AA3146304605F03FF909A813F044F9AE
:108410005A4681497F480FF09FFF7E4909A813F013
:1084200081F909AA3146012005F02EF909A813F0B7
:1084300033F97A4909A813F075F909AA3221012004
:1084400005F022F909A813F027F9754909A813F0D6
:1084500069F909AA5021012005F016F909A813F0BD
:108460001BF9704909A813F05DF909AA31460220E9
:1084700005F00AF909A813F00FF96B4909A813F0E0
:1084800051F909AA3146032005F0FEF809A813F0B6
:1084900003F9524665495F480FF05EFF5D4909A840
:1084A00013F040F909AA3221022005F0EDF809A8DD
:1084B00013F0F2F84A465D4956480FF04DFF554912
:1084C00009A813F02FF909AA3221032005F0DCF8DE
:1084D00009A813F0E1F8564B93F80A90B9F1000F90
:1084E00000F0B8802A4651494A480FF035FF494903
:1084F00009A813F017F909AA5021022005F0C4F8C1
:1085000009A813F0C9F82246484942480FF024FF51
:10851000404909A813F006F909AA5021032005F0E3
:10852000B3F809A813F0B8F8424B1868424BD3F8D7
:10853000009048F009FE02460B464846CDE9042368
:1085400048F002FEDDE90423CDE900013B49314852
:108550000FF002FF2F4909A813F0E4F809AA3146E9
:10856000042005F091F809A813F096F805F0A6F894
:10857000334B1B78002B3FF489AA324B1B78002B1E
:1085800000F08F8005F062FE2F4A304B1188198071
:10859000917899701179D9705179927919715A71CC
:1085A00002229A71029ADA71224A12689A60224A69
:1085B0001268DA604FFA88F8154A83F810807FB2A3
:1085C0005F74128852B29A740F4A127852B2DA74F7
:1085D0009D820022DC821A831D4A126812B25A83DD
:1085E00006F0AAF8FFF752BAE0D40020E1D4002048
:1085F0009E1F070070E10020BC1F0700D51F070069
:1086000058D60020F21F070012D5002002200700D4
:1086100010D5002013D5002019200700E6790700A7
:10862000242007002D20070031200700611E0700CD
:10863000F8A2002088D600208CD600203520070024
:108640000ED5002034D900202CD90020A4A1002070
:1086500024D600205E495F480FF0B5FE5D4909A8A9
:1086600013F060F809AA5021022005F00DF809A8BE
:1086700013F012F8574909A813F054F809AA502129
:10868000032005F001F809A813F006F852495148F3
:108690000FF099FE4F4909A813F044F809AA49467A
:1086A0005EE705F0F7FD6FE7072B6CD14B494C48AF
:1086B00013F0BEF93378002B3BD04A4B1C78002CCA
:1086C00037D104F0C5FF484804F09CFE47494148B3
:1086D0000FF079FE3F4909A813F024F809AA2146B2
:1086E000204604F0D1FF09A812F0D6FF404B1868CD
:1086F000404B1D6848F028FD02460B462846CDE950
:10870000022348F021FDDDE90223CDE900013A49C9
:1087100030480FF021FE2F4909A813F003F809AAE9
:108720002146042004F0B0FF09A812F0B5FF04F0C0
:10873000C5FF324B1B78002B3FF4A8A9304B1B78A8
:10874000F3B105F083FD2F4A2F4B118819809178E2
:1087500099701179D9705179927919715A710222EF
:108760009A7123490022DA710968996021490968E0
:10877000D9601A745A749A74DA749A82DA822AE77F
:1087800005F088FDDFE7082B7FF480A91F49144816
:1087900013F04EF91E4B00221A703378002B3FF471
:1087A00075A9104B1B78002B7FF470A904F050FFC3
:1087B000184804F027FE184906480FF004FE054942
:1087C00009A812F0AFFF002109AA0846FFF742BB33
:1087D0004A20070013D50020412007004D20070044
:1087E00070E1002058D60020F21F07006B20070020
:1087F00088D600208CD60020352007000ED500201A
:1088000034D900202CD90020A4A10020802007000A
:108810002DD60020391C07009620070070B5314B7B
:10882000B0F90A201A80304B90F90C201A702F4BA7
:1088300042781A702E4A1368013313602D4B0022C0
:108840001A7003780446CBB92B4A2C492C4813F0F4
:10885000EFF82C492A4813F0EBF82B49284813F07D
:10886000E7F82849294813F0E3F82749274813F087
:10887000DFF8BDE8704064201CF054BF244A127A2F
:10888000022A25D1022B0FD1224D027A41682248BB
:1088900006232B700EF0F2FF2B46FA220121BDE8D1
:1088A00070401E4812F0E5BD134A1449144813F0F5
:1088B000BFF822781A49124813F0BAF81249104842
:1088C00013F0B6F822781649104813F0B1F8CCE747
:1088D000144B1B7823B90F4B01211970FA22DEE7E4
:1088E00070BD00BF10D5002012D500200FD500208C
:1088F00028D600202DD60020A6200700C81B070080
:1089000070E10020AC20070038690700D4E10020A6
:10891000F8A20020E0D40020E1D4002051E20020A1
:10892000B4200700C0A1002010B5044606F016FBD5
:10893000204610BD70B50446002836D01B4B1C4A9B
:108940001C491D4800251D7013F072F82A461B496A
:10895000194813F06DF81A49174813F069F82A46B8
:108960001649184813F064F81549164813F060F8D2
:1089700064201CF0D7FE144B1C60144B1B7A022B96
:1089800009D1134B07221A70BDE870401148FA2232
:10899000012112F06EBD104B1B7833B90F4A1368DA
:1089A000013313600A4B0222EDE770BD2DD6002083
:1089B000C41B0700C81B070070E10020C32007008C
:1089C00038690700D4E1002030D60020F8A200204A
:1089D000E0D4002051E20020C0A1002024D60020D5
:1089E00030B54B4A4B494C4D99B004464B4813F0B7
:1089F0001FF822464A49494813F01AF8494947489E
:108A000013F016F822464649474813F011F8454935
:108A1000454813F00DF864201CF084FE29780029E5
:108A200074D101231A2208A82B7007910EF034FF8D
:108A300005A82AF0DDFC05983C4C00F5E0400FA9A4
:108A40006E302AF049FD149B394903F26C7303938D
:108A5000129B0293139B013301930F9B009307A872
:108A6000DDE910320FF078FC294A2A492B4812F030
:108A7000DFFF07AA2F49294812F0DAFF29492748C2
:108A800012F0D6FF07AA2B49274812F0D1FF25493B
:108A9000254812F0CDFF64201CF044FE149B03F225
:108AA0006C732380139B0133A370129B2371119B62
:108AB0006371109BA3710F9BE3711F4B1B782BB34A
:108AC000134A1449154812F0B3FF1C49134812F019
:108AD000AFFF1449114812F0ABFF1849124812F0C9
:108AE000A7FF1049104812F0A3FF64201CF01AFEE3
:108AF00002232B70E3790193A379009363792279A0
:108B0000A178208805F02CFB05F0A0FB19B030BD42
:108B1000D2200700C81B07002CD6002070E10020DF
:108B2000D720070038690700D4E100202CD90020A5
:108B3000EE200700B53C070034D9002010210700C3
:108B400008B5064B1B783BB113F03BF8BDE8084075
:108B500001460348FEF7E8BB08BD00BF59D6002018
:108B600018D6002007B52B4A2B492C4812F060FF7D
:108B70002B492A4812F05CFF2A49284812F058FF76
:108B80002749294812F054FF2649274812F050FF80
:108B900064201CF0C7FD254A254801231370254A8F
:108BA000137012F012FA18B12348002112F0D7F90D
:108BB000224812F05BFB2249224812F069FA22494E
:108BC000204812F075FA21491E4812F069FA20492E
:108BD0001C4812F075FA1F491A4812F079FA002160
:108BE0001D4812F0B3FA02211C4812F01DFB32237B
:108BF0000122009311460A23124812F008FA184B7A
:108C0000997A01B10121222003B05DF804EB12F042
:108C1000CCBF00BFC41B0700C81B070070E10020C9
:108C20002621070038690700D4E10020C0A10020F8
:108C3000C4E20020A1A10020AEE20020ADE20020AD
:108C40001D88020089E20020358902008D73020030
:108C50002D740200E189020091E20020ABE20020C5
:108C6000F8A2002008B5264A2649274812F0E0FE5F
:108C70002649254812F0DCFE2549234812F0D8FE8B
:108C80002249244812F0D4FE2149224812F0D0FE95
:108C900064201CF047FD204B20480021197012F081
:108CA0005EF91F4812F095F9B8B9154A15491648EA
:108CB00012F0BEFE1B49144812F0BAFE14491248C5
:108CC00012F0B6FE1749134812F0B2FE10491148CF
:108CD00012F0AEFE64201CF025FD13490F4812F07F
:108CE00085F912490D4812F089F94FF6FD710B48CC
:108CF00012F035F9BDE808400021222012F055BFDE
:108D0000C41B0700C81B070070E100203B210700BF
:108D100038690700D4E10020A1A10020AEE20020C4
:108D2000C4E200204A210700DD730200B97302008B
:108D30001F4B07B501221F481A7012F046F918B1EF
:108D40001D48002112F00BF91C4812F08FFA1C4943
:108D50001C4812F09DF91C491A4812F0A9F91B4948
:108D6000184812F09DF91A49164812F0A9F9194944
:108D7000144812F0ADF90021174812F0E7F900216C
:108D8000164812F051FA3223012200930D480A23AB
:108D9000114612F03CF9124B9B7A33B1012122208B
:108DA00003B05DF804EB12F000BF03B05DF804FB04
:108DB000A1A10020C4E20020AEE20020ADE200202C
:108DC0001D88020089E20020358902008D730200AF
:108DD0002D740200E189020091E20020ABE2002044
:108DE000F8A2002010B50B4C00212046FEF762FAD5
:108DF0002046094C094A0A490EF0D2FCFF212046C0
:108E000006F0A0F82046054A0649BDE810400EF0DD
:108E1000C7BC00BF18D6002004D5002090A10020B8
:108E2000BF720200298902002DE9F047012186B0B6
:108E3000222012F0A3FE0121232012F09FFE012127
:108E4000242012F09BFE0021222012F0AEFE2C48BE
:108E50002C4D022306224FF4E13111F0C5FF01230E
:108E6000022203AC28490093284800230FF074FA2B
:108E70002649204612F056FC2146254812F0A2FA57
:108E8000204612F009FC234812F0F6FC04F086FAA2
:108E9000287030B120491D480FF095FA1B4804F0A6
:108EA000B1FA0121232012F080FE4FF08043D3F865
:108EB0003834032B32D012F084FE114F06464FF0A7
:108EC000000A384611F075FF40BB12F07AFE41F2FD
:108ED0008732B0EB06086AEB4A090023424573EB80
:108EE00009031BDB64201CF01DFC232012F062FE32
:108EF000B0FA80F14909232012F057FEE1E700BFE4
:108F000070E100200DD500206C21070013D5002052
:108F1000F8E10020CCE20020391C070000212320CA
:108F200012F043FE0021242012F03FFE2B78BBB943
:108F3000AE4AAF49AF4812F07BFDAF49AD4812F0E1
:108F400077FDAE49AB4812F073FDAB49AC4812F067
:108F50006FFDAA49AA4812F06BFD64201CF0E2FBE9
:108F600002F0AAFDB8B9A14AA149A24812F060FDD9
:108F7000A449A04812F05CFDA0499E4812F058FD9B
:108F8000A0499F4812F054FD9C499D4812F050FDA5
:108F900064201CF0C7FB02F037FDB8B9934A94492E
:108FA000944812F045FD9849924812F041FD9349CA
:108FB000904812F03DFD9449914812F039FD8F49D7
:108FC0008F4812F035FD64201CF0ACFB02F032FD3E
:108FD000B8B9864A8649874812F02AFD8B498548E8
:108FE00012F026FD8549834812F022FD8749844806
:108FF00012F01EFD8149824812F01AFD64201CF017
:1090000091FB02F02DFDB8B9784A7949794812F000
:109010000FFD7F49774812F00BFD7849754812F033
:1090200007FD7B49764812F003FD7449744812F03D
:10903000FFFC64201CF076FB03F01EF9B8B96B4A04
:109040006B496C4812F0F4FC72496A4812F0F0FC6B
:109050006A49684812F0ECFC6E49694812F0E8FC75
:109060006649674812F0E4FC64201CF05BFB00F0EA
:109070003BFDB8B95D4A5E495E4812F0D9FC6649CD
:109080005C4812F0D5FC5D495A4812F0D1FC6249A7
:109090005B4812F0CDFC5949594812F0C9FC6420D4
:1090A0001CF040FB5D4E002000F0F8FB337A032BF0
:1090B00040F01B814D4A4E494E4812F0B9FC5849C8
:1090C0004C4812F0B5FC4D494A4812F0B1FC5449E5
:1090D0004B4812F0ADFC4949494812F0A9FC642004
:1090E0001CF020FB012003F0BDFA04F071FF4D4B92
:1090F000187028B105F0AAF894E803002AF057F98F
:1091000005F0C0FD484F3870002840F01681374AFE
:109110003749384812F08CFC4449364812F088FC34
:109120003649344812F084FC4049354812F080FC3E
:109130003249334812F07CFC64201CF0F3FA337A95
:10914000012B00F03881022B00F03E813BB33849FF
:10915000284812F059FC2B780BB3364936480FF0EB
:1091600032F93549204612F0DDFA00212246084640
:1091700004F08AFA204612F08FFA30492E480FF098
:1091800022F92D49204612F0CDFA22460021012075
:1091900004F07AFA204612F07FFA04F08FFA284899
:1091A00004F0F8F9274811F0E7FF10B9264804F059
:1091B000F1F9FFF7D7FC4FF47A73244972681E481F
:1091C000B2FBF3F20FF0C8F81B4804F0E3F9204AB1
:1091D00020480123002112F042F97268002A3BD096
:1091E00000231C48194612F044F935E0C41B07005F
:1091F000C81B070070E100208221070038690700C2
:10920000D4E1002090210700B7210700E5210700E5
:109210000F2207003D22070062220700F8A200206B
:109220007E22070034D900200ED50020A822070096
:10923000EC2207000D23070013D500201F23070091
:10924000EA1D070094E200202F2307000B1E0700F1
:10925000A174020051E20020624A63480023012108
:1092600012F0FDF80023614A5F48022112F0F7F87E
:10927000737A33B15C4800234EF66022022112F06B
:10928000F8F801235A4A5848032112F0E8F8594BDC
:109290001B785BB1584811F06FFF38B932230122B7
:1092A000009356480A23114611F0B1FE544A55491D
:1092B000554812F0BDFB5549534812F0B9FB5449CB
:1092C000514812F0B5FB5149524812F0B1FB5049D8
:1092D000504812F0ADFB64201CF024FA01214E48E6
:1092E00012F043FC06B0BDE8F087B77A444A45491E
:1092F0004548B7B912F09CFB4849434812F098FB27
:109300004349414812F094FB4449424812F090FB13
:109310003F49404812F08CFB64201CF003FA002007
:10932000E1E612F085FB3E49374812F081FB3849EF
:10933000354812F07DFB3A49E7E702F0A7FB05F05C
:10934000FBF83870B8B92E4A2E492F4812F070FB3E
:1093500034492D4812F06CFB2D492B4812F068FB64
:1093600030492C4812F064FB29492A4812F060FB6E
:1093700064201CF0D7F9224A22492348DFF8B8902C
:10938000DFF8B88012F054FB3A7827491E48002ACB
:1093900014BF4A46424612F04BFB1D491A4812F0D0
:1093A00047FB3A7820491B48002A14BF4A464246E8
:1093B00012F03EFBBCE6FFF755FC1C4804F0EAF84F
:1093C000124804F0E7F8F6E6194804F0E3F80A4812
:1093D00011F0D2FE10B9174804F0DCF8FFF7A8FC32
:1093E000E9E600BF497A020051E2002011D70200ED
:1093F000E1CD0200A1A1002094E2002089E200203A
:10940000C41B0700C81B070070E100203D230700B4
:1094100038690700D4E10020E9E10020922207002A
:109420007E220700B9220700CF220700B11D0700E6
:10943000F91D07002F23070061210700662107009F
:10944000704700002DE9F04F944C954DDFF868A26D
:10945000DFF868B289B0204605F0EEFE204610EE37
:10946000107A05F008FF20468DED050A05F022FF71
:109470008C4A8D498DED060A284612F0D9FA20460D
:1094800005F0DAFE204610EE108A05F0D5FE3846CB
:1094900010EE106A47F058FE844B002247F0ACFEF5
:1094A00048F05AF907B2404647F04EFE8046304633
:1094B0008946029747F048FE7C4B7D4E002247F0DC
:1094C0009BFE42464B46CDE900015146284612F02C
:1094D000AFFA3146284612F0ABFA204605F0ACFE52
:1094E000204610EE108A05F0A7FE40468DED070AD3
:1094F00047F02AFE079B029780461846894647F0A8
:1095000023FE6A4B002247F077FE4B464246CDE9E8
:1095100000015146584612F08BFA3146584612F077
:1095200087FA64201CF0FEF85E4A5F49284612F074
:109530007FFA204605F09FFE204610EE107A05F0D7
:109540009AFE059810EE10AA47F0FEFD0022574B38
:1095500047F052FE48F000F903B23846059347F051
:10956000F3FD059B029380465046894647F0ECFD8B
:109570004E4B504FDFF848A1002247F03DFE4246D7
:109580004B46CDE900013946284612F051FA3146E2
:10959000284612F04DFA204605F06DFE204610EEEA
:1095A000108A05F068FE40468DED070A47F0CCFDB5
:1095B000059B0293079B80461846894647F0C4FDE9
:1095C0003A4B002247F018FE4B464246CDE90001D7
:1095D0003946584612F02CFA3146584612F028FA0D
:1095E00064201CF09FF82F4A2F49284612F020FAD9
:1095F000204605F05FFE204610EE108A05F05AFE68
:1096000006988DED050A47F09FFD284B002247F094
:10961000F3FD48F0A1F807B2404647F095FD8046BB
:1096200005980297894647F08FFD204B002247F0AE
:10963000E3FD42464B46CDE900015146284612F073
:10964000F7F93146284612F0F3F9204605F032FECC
:10965000204610EE105A05F02DFE284610EE108A16
:1096600047F072FD044640460D46029747F06CFDF8
:109670000E4B002247F0C0FD2246CDE900012B46EB
:109680005146584612F0D4F93146584612F0D0F9F6
:10969000642009B0BDE8F04F1CF044B834D6002077
:1096A00070E100204B230700C81B070000408F40DB
:1096B000386907005E2307004F230700D4E100202C
:1096C0006D23070007B568480DF10701312205F049
:1096D000FBFD9DF80730590618D5644A6449654872
:1096E00012F0A6F99DF807206349624812F0A0F92C
:1096F0006249604812F09CF95F499DF80720604874
:1097000012F096F95D495E4812F092F964201CF05F
:1097100009F89DF807309A0614D5544A544955481B
:1097200012F086F95749534812F082F953495148CB
:1097300012F07EF95349524812F07AF94F495048D5
:1097400012F076F964201BF0EDFF9DF80730DB0680
:1097500014D5464A4649474812F06AF94A494548ED
:1097600012F066F94549434812F062F94649444807
:1097700012F05EF94149424812F05AF964201BF098
:10978000D1FF9DF80730180714D5384A38493948B1
:1097900012F04EF93D49374812F04AF93749354839
:1097A00012F046F93949364812F042F93349344843
:1097B00012F03EF964201BF0B5FF9DF80730590701
:1097C00014D52A4A2A492B4812F032F9304929483F
:1097D00012F02EF92949274812F02AF92C49284875
:1097E00012F026F92549264812F022F964201BF0D0
:1097F00099FF9DF807309A0714D51C4A1C491D484B
:1098000012F016F923491B4812F012F91B491948A6
:1098100012F00EF91F491A4812F00AF917491848B0
:1098200012F006F964201BF07DFF9DF80730DB077E
:1098300014D50E4A0E490F4812F0FAF816490D4891
:1098400012F0F6F80D490B4812F0F2F812490C48E4
:1098500012F0EEF809490A4812F0EAF864201BF009
:1098600061FF03B05DF804FB34D600204B230700F2
:10987000C81B070070E100207C230700386907003F
:10988000D4E10020932307009A230700A0230700B8
:10989000A7230700AD230700B423070073B50021F9
:1098A0000446112012F06AF95C4811F0E5FF5C4BA8
:1098B00054B300229A800A22DA804FF481721A810E
:1098C00040F201125A81564805F08EFD054608B354
:1098D000544A5549554812F0ABF85549534812F0CF
:1098E000A7F85449514812F0A3F85149524812F0D0
:1098F0009FF85049504812F09BF864201BF012FF6B
:109900000024204602B070BD02229C80DC801A81B7
:109910005C81D8E7002C38D02A22302140488DF8CD
:109920000720012605F07AFB082232213C488DF8F9
:10993000072005F073FB3246332139488DF8076064
:1099400005F06CFB24220DF10701354805F0BCFC45
:109950009DF80720324822F00C0242F00802242130
:109960008DF8072005F05AFB602222212C488DF843
:10997000072005F053FB2A462521294805F04EFB18
:1099800027483246212105F049FB002520220DF110
:10999000070123488DF8075005F096FC9DF8072035
:1099A0001F4842F0080220218DF8072005F036FB01
:1099B00064201BF0B7FE1E220DF1070118488DF838
:1099C000075005F081FC9DF80720154842F09002F1
:1099D0001E218DF8072005F021FB64201BF0A2FE5C
:1099E0004CB1FFF76FFE15490422112011F0B4F9B4
:1099F000FFF728FD85E720220DF10701084805F053
:109A000063FC9DF80720064802F0400220218DF8F3
:109A10000720012405F002FB73E700BFCCE2002021
:109A200034D600204B230700C81B070070E100203C
:109A3000BA23070038690700D4E1002041940200EE
:109A400002481822002105F0A3BA00BF34D6002036
:109A5000F8B512F0B6F81B4D1B4B1C4C0021C3E9A6
:109A6000000112F0AEF8D5E90032C61A62EB4207E7
:109A7000C92E77F1000308DB12F0A3F800236B6016
:109A8000237828600133DBB22370114A1149124850
:109A900011F0CEFF227811490F4811F0C9FF10498B
:109AA0000D4811F0C5FF22780C490E4811F0C0FF97
:109AB0000B490C4811F0BCFFBDE8F84064201BF0D6
:109AC00031BE00BF48D6002050D6002059D6002015
:109AD000DB230700C81B070070E10020DF2307001D
:109AE00038690700D4E1002008B50221092012F0EE
:109AF00045F806490322092011F02EF904490548CA
:109B000001236422FDF7EEFB012008BD519A0200FB
:109B100099A0020018D600202DE9F04FAC4D8FB06F
:109B2000CDE90C2312F04DF8D5E900BC0024B0EBD0
:109B30000B0240F6B83064EB0C030021904271EB4D
:109B40000303A246A146A0462746264665DB12F03F
:109B500038F8D5E90023811A63EB430300910193A0
:109B6000DDE90023B2F5C87F73F1000360DA12F07B
:109B700028F8D5E90023811A63EB4303029103938C
:109B8000DDE90234B3F5C87F74F1000375DA12F031
:109B900018F8D5E90023811A63EB43030491059378
:109BA000DDE90434B3F5167F74F1000380F2888098
:109BB00012F007F8D5E90023811A63EB43030691FD
:109BC0000793DDE90634B3F5487F74F1000380F2B2
:109BD0009D8011F0F6FFD5E90023811A63EB430362
:109BE00008910993DDE90834B3F5966F74F1000329
:109BF00080F2AF8011F0E5FFD5E90023811A63EB15
:109C000043030A910B93DDE90A34B3F5AF6F74F1A6
:109C1000000380F2BF80072474E0092011F0CAFF1E
:109C2000002894D16B4B1B78002B90D0022469E064
:109C3000684B1B78012B9AD1092011F0BBFF01283A
:109C400095D14FF0000BC82C11D0092011F0B2FFB4
:109C5000012808BF0BF1010B4FF0010004F10104D2
:109C600008BF5FFA8BFBE4B21BF05CFDEBE7BBF1D6
:109C7000C60F7FF67CAF002444E0564B1B78022BC6
:109C800085D1092011F096FF012880D10024BAF176
:109C9000C80F10D0092011F08DFF012808BF013432
:109CA0004FF001000AF1010A08BFE4B25FFA8AFA34
:109CB0001BF038FDEBE7C62C7FF669AF012421E0ED
:109CC000444B1B78032BDCB27FF472AF4FF0000AD9
:109CD000B9F1C80F12D0092011F06CFF012808BF9C
:109CE0000AF1010A4FF0010009F1010908BF5FFA0A
:109CF0008AFA5FFA89F91BF015FDE9E7BAF1C60F98
:109D00007FF656AF20460FB0BDE8F08F314B1B7881
:109D1000042BDCB27FF45DAF4FF00009B8F1C80F3F
:109D200012D0092011F046FF012808BF09F10109EE
:109D30004FF0010008F1010808BF5FFA89F95FFAE6
:109D400088F81BF0EFFCE9E7B9F1C60F7FF641AFE9
:109D5000D8E7204B1B78052BDCB27FF44BAF4FF0DC
:109D60000008C82F11D0092011F024FF012808BFD6
:109D700008F101084FF0010007F1010708BF5FFA81
:109D800088F8FFB21BF0CEFCEBE7B8F1C60F7FF608
:109D900031AFB7E70F4B1B78062BDCB27FF43BAF3C
:109DA0000025C82E0FD0092011F004FF012808BF9C
:109DB00001354FF0010006F1010608BFEDB2F6B221
:109DC0001BF0B0FCEDE7C62D7FF625AF9AE700BF8C
:109DD00050D6002059D6002073B58C4D8C4C2A7A71
:109DE000237A9A4230D003F033FC8A4803F00AFB0E
:109DF0006A68AB7A884862602A89A372228103F07C
:109E0000C9FB864803F0C6FB03F058FC01F06AFE6C
:109E100040F6B8301BF086FC237A8148012B4FF0C6
:109E200000014FF0320640F0A08011F098F80022B7
:109E30007C4800960A23114611F0E9F87A4811F09F
:109E4000C8F87A4811F0DEFAAA7AA37A9A4206D0C4
:109E50002B7A022B0CBF0120002002F003FC6A6861
:109E600063689A4207D1AB68A268534023F07F43EE
:109E700023F0FF03ABB103F0EBFB674803F08AFB71
:109E8000664803F087FB03F019FC6B6863606B7A2C
:109E90006372AB7AA37201F025FE40F6B8301BF076
:109EA00041FC634811F0DEF900286BD0614811F0E5
:109EB00065F9614B1978884205D000395D4818BFB3
:109EC000012111F05DF95D4811F06AF95C4B1978D8
:109ED000884202D0594811F065F95A4811F072F9D8
:109EE000594B1978884202D0564811F06DF9574DF8
:109EF00057482E7811F078F986420BD029785448CB
:109F000011F07EF932230122009346480A231146BC
:109F100011F07DF803F09CFB237A012B6FD0022B0C
:109F20006FD013B94B4803F035FB4FF47A73626876
:109F30004949B2FBF3F249480EF00EFA474803F0E4
:109F400029FB626822B100234548194611F091FAB5
:109F5000637A002B57D0424800234EF6602202213C
:109F600002B0BDE8704011F084BA10F0F8FF012291
:109F700000960A2311462B4811F049F82C4811F09D
:109F800075F95EE7374D3848296810F0A2FF36486A
:109F900010F09DFF2968884202D0334810F099FFE5
:109FA000324810F0A5FF324B1978884202D02F4872
:109FB00010F0A0FF2F4D30482E7810F0AAFF8642F7
:109FC00003D029782C4810F0A6FF2C4810F0B2FFDF
:109FD0002B4B1978884202D0284810F0ADFF294851
:109FE00010F0BBFF284B1978884202D0254810F0AA
:109FF000C5FF4FF6FD710A4810F0B1FF8AE723480C
:10A0000091E723488FE702B070BD00BFCCA10020CC
:10A01000F8A20020EF230700F6230700062407001C
:10A02000AEE2002089E20020C4E20020E8E1002046
:10A03000ADE2002095E200205BD6002098E20020EF
:10A040005DD60020A0E200205ED600205CD6002075
:10A05000AAE20020EA1D07000B1E070013D500200E
:10A0600051E2002068D60020B9E20020BAE20020C8
:10A070006CD6002063D60020BBE20020BCE20020AA
:10A0800064D60020BEE200206DD60020B11D07007E
:10A09000F91D070000000000F7B5FFF73DFD062899
:10A0A00000F2C686DFE810F01F06C0030700C001FB
:10A0B000D3006E003200954B954A00241C70954BDE
:10A0C00000200021C3E900019349944811F0B0FC3D
:10A0D0009349924811F0ACFC9249904811F0A8FCC9
:10A0E0008F49914811F0A4FC8E498F4811F0A0FCD3
:10A0F00064201BF017FB8D4B1B782BB1204603B05F
:10A10000BDE8F04003F0E2BA0120F8E77F4B0022FF
:10A110001A70804B00200021C3E90001844B1B789A
:10A12000002B00F08586834C2378052B0DD1824BC4
:10A130008248997A1022227001915B7A00938049BB
:10A14000804B09781B7803F0E7FA714A724973482B
:10A1500011F06EFC22787C49704811F069FC71495D
:10A160006E4811F065FC227877496F4811F060FC69
:10A170006C496D4811F05CFC642003B0BDE8F04010
:10A180001BF0D0BA614B00221A70624B00200021F4
:10A19000C3E90001664B1B78002B4ED0654C237839
:10A1A000042B30D0052B3ED08BB9684811F05AF8FB
:10A1B0000128614B1CD1997A6548042222700191D3
:10A1C0005B7A644900930978FF2303F0A5FA504AAB
:10A1D0005149524811F02CFC22785F494F4811F048
:10A1E00027FC50494D4811F023FC22785A49BCE71E
:10A1F000997A5A480522227001915B7A5849009356
:10A200000978FF23E1E707235648237010F0ECFF9D
:10A21000494A937A0193537A00932278C3B248490A
:10A2200046480978D1E7444B0E22997A2270019171
:10A230005B7A00934C4B1B78F1E703F009FA4B482B
:10A2400003F0E0F803B0BDE8F0401BF082BA2F4BFA
:10A2500000221A702F4B00200021C3E90001344B6B
:10A260001B78002B00F0D580324C2378062B23D8A6
:10A27000DFE813F007001500330041008C00BD003B
:10A28000C7002D4903220B7A887A22700190497AFF
:10A2900000910233DBB23649364809780AE0264B92
:10A2A0003548997A0022227001915B7A33490093F4
:10A2B0000978FF2303F030FA154A1749174811F0BF
:10A2C000B7FB22782E49154811F0B2FB1549134807
:10A2D00011F0AEFB22782A4947E7174A2949537AF9
:10A2E000294883F001035372927ACDE90032FF23AB
:10A2F00009780222DEE7104B02221A729A7A019242
:10A300005B7A009303220423C5E700BF59D60020DF
:10A31000DB23070050D60020C81B070070E1002097
:10A320001724070038690700D4E10020A4A4002006
:10A3300058D600205AD60020CCA10020C4A100206D
:10A34000C8A100206DD6002021240700ADE2002026
:10A3500098A20020ACA2002032240700C4A2002052
:10A36000DCA20020AAE2002064D6002043240700DB
:10A370006CA200205CA20020E0A20020F4A2002039
:10A380004E240700C0A20020B0A200200A23824869
:10A39000237010F029FFC0B20C280ED8DFE800F0BF
:10A3A000071B1B211B21211B1B1B1B1B21007B4B84
:10A3B00000221A707A4B05221A707A4A7A4B917AE7
:10A3C0001B780191527A00920A332278DBB27749E6
:10A3D000774809786EE7714B00221A70704B07229C
:10A3E000EAE76E4B00221A706D4B0A22E4E76D4BD0
:10A3F0000D22997A227001915B7A00936D4B1B7844
:10A40000E5E7684B9A7A01925B7A00930622002373
:10A41000DDE703F01DF9684802F0F4FF674803B078
:10A42000BDE8F04010F0EEBF654B00221A70654B9E
:10A4300000240025C3E90045634B1B78002B00F086
:10A440008381624C2278102A2BD8DFE812F01100A9
:10A450001D003B004600530084009100DD002A00EF
:10A46000060119012E01400150015F012A006D0112
:10A470004C4B0222997A227001915B7A0093FF2360
:10A480005349544809780AE0464B5348997A0022C8
:10A49000227001915B7A514900930978FF2303F000
:10A4A0003BF94F4A4F49504811F0C2FA22784F49C0
:10A4B0004D4811F0BDFA4E494B4811F0B9FA2278D7
:10A4C0004A4952E6374A937A83F001039372019323
:10A4D000537A00930222FF23D2E7324B4549464884
:10A4E00001221A729A7A01925B7A00930323097807
:10A4F0001A46D4E709232848237010F075FEC0B22D
:10A500000C2814D8DFE800F007070707070D1E071F
:10A51000242424241E00394B00221A70384B0522B3
:10A5200004E0364B00221A70354B04221A701D4A83
:10A530001D4B917A1B780191527A00920A33DBB25B
:10A54000227811E02D4B00221A702D4B0622EDE7E8
:10A550002A4B0222E1E7134B0C22997A22700191D7
:10A560005B7A0093274B1B7810491148097896E7CE
:10A570000C4B5A6842B142F20F718A428ABFA2F56F
:10A580001C520022103A5A609A7A01925B7A009328
:10A590000622FF23E8E700BFAAE2002062D60020DF
:10A5A00060D60020CCA100205DD60020C8A10020EC
:10A5B000C4A1002063D600205F240700E8E100204A
:10A5C00059D6002050D6002058D600205AD6002058
:10A5D000C0A20020B0A20020E0A20020F4A200202F
:10A5E000DB230700C81B070070E100206F24070071
:10A5F000386907006CA200205CA2002061D6002010
:10A600005FD600206CD600206C4D2B781BB3013B2D
:10A61000DBB26B4A6B496C482B7011F009FA2A784F
:10A620006A49694811F004FA6949674811F000FA6B
:10A630002A786649674811F0FBF96549654811F0C9
:10A64000F7F964201BF06EF8634B9A7A01925B7AFB
:10A6500000932B7874E70C23DBE7604A604913789A
:10A66000097899420BBF5F4B03F1FF331B78DBB2D4
:10A670001370594A917A0191527A0092092273E734
:10A68000594A5A491378097899420BBF584B03F13C
:10A69000FF331B78DBB213704F4B9A7A01925B7ACF
:10A6A00000934E4B0A221B785EE7524A52491368C8
:10A6B000A3F5C333A03B8B4298BF504B1360464B6E
:10A6C0009A7A01925B7A00930B22FF234CE74C4964
:10A6D0000B78062B1CBF03F1FF33DAB23E4B0A7036
:10A6E000997A01915B7A009313460C223CE7454A24
:10A6F00013784BB1013BDBB21370374A917A019169
:10A70000527A00920D222FE70923F5E73E4A11788D
:10A7100009B1481EC0B210702F4A937A0193537A40
:10A7200000930E2203461FE7384A1378052B1ABF01
:10A7300003F1FF33DBB216231370274A917A01919C
:10A74000527A009210220FE7314B1B78002B40F019
:10A750006F83304B1B7813B9012002F0B7FF184A02
:10A760001849194811F064F92B49174811F060F99C
:10A770001749154811F05CF92749164811F058F9A6
:10A780001349144811F054F964201AF0CBFF00214A
:10A79000224810F078FE224B012200201A70FCF7AC
:10A7A0007FFE204B5A68002A00F0428300231B489A
:10A7B000194603B0BDE8F04010F05BBE5CD6002047
:10A7C000DB230700C81B070070E100206524070099
:10A7D00038690700D4E10020CCA100205DD600201C
:10A7E00061D600205FD600205ED6002062D6002011
:10A7F00060D6002068D600207F47A1198047A119A4
:10A800006CD6002063D6002064D600206DD60020D0
:10A810002DD60020A4A400208024070051E20020AF
:10A8200001D50020F8A20020A94BAA4DAA4C002275
:10A830001A70AA4B00210020C3E9000129780029E1
:10A8400040F0E480A64810F01EFE0121A44810F05C
:10A850001AFEA348022110F016FEA24B1B7813B972
:10A86000012002F033FF01239F4A2B700023237045
:10A870009E4B917A5068128958601A819C4899724F
:10A8800010F0F0FC05469B4A9B499C48002D42D0A5
:10A8900011F0CEF89A49994811F0CAF899499748A9
:10A8A00011F0C6F89649984811F0C2F895499648B3
:10A8B00011F0BEF864201AF035FF944810F070FCD7
:10A8C000934B1870934810F08FFC934B187093487B
:10A8D00010F054FC924B1870924810F073FC924B9D
:10A8E00018700023CDE90033227890499048097808
:10A8F00002F012FF7F4A8049804811F099F82278CF
:10A900008C497E4811F094F87E497C4811F090F80B
:10A910002278884929E411F08BF87949774811F0B9
:10A9200087F87849754811F083F87549764811F031
:10A930007FF87449744811F07BF864201AF0F2FE35
:10A9400029467D487D4D10F00AFB7D4810F0BFFA86
:10A9500028607C4810F0CCFA7B4B18707B4810F0D4
:10A96000D8FA7B4B18707B4810F0E4FA7A4B1870D9
:10A970007A4810F0F2FA7A4B5E4A18705E495F48E6
:10A9800011F056F8286846F0CDFB4FA3D3E9002319
:10A9900046F05CFD06466A480F4610F098FA46F00D
:10A9A000C1FB49A3D3E9002346F050FD32463B46A4
:10A9B000CDE900016B49514811F03AF851494F482F
:10A9C00011F036F8286846F0ADFB3FA3D3E9002329
:10A9D00046F03CFD06465A480F4610F078FA46F01D
:10A9E000A1FB39A3D3E9002346F030FD3246CDE97F
:10A9F00000013B465B49444811F01AF8414942487E
:10AA000011F016F864201AF08DFE6AE72378102BF7
:10AA10003FF670AF01A252F823F000BF61AA020016
:10AA200073AA020085AA020089AA0200A3AA020052
:10AA3000C1AA0200CDAC020079AB0200CDAB02008E
:10AA4000E9AB02000DAC020031AC020055AC0200D3
:10AA500073AC020091AC0200F5A80200AFAC02009A
:10AA60000122224B2270997A01915B7A0093FF2395
:10AA700022E01E4B0022997A227001915B7A0093AA
:10AA8000FF2332E70622ECE7184B3749374800220C
:10AA90001A729A7A01925B7A009309780223032250
:10AAA00026E712491E4B887A1B78082222700190F3
:10AAB000497A00910A33DBB22D492E48097817E70D
:10AAC0000B22CEE7AFF300800000000084D797414F
:10AAD00059D6002058D600205AD6002050D6002043
:10AAE00051E20020A4A40020F8A20020CCA1002064
:10AAF000ADE20020DB230700C81B070070E1002047
:10AB00009624070038690700D4E1002098E200206D
:10AB10005DD60020AAE200205CD6002095E200204D
:10AB20005BD60020A0E200205ED60020F4A2002028
:10AB3000E0A20020B9240700AEE2002068D6002081
:10AB4000B9E20020BAE200206CD60020BBE200206F
:10AB500063D60020BCE2002064D60020BEE20020C4
:10AB60006DD60020AB2407006CA200205CA2002060
:10AB7000C8A10020C4A10020874D884A2B788849AD
:10AB800088480C2B1ABF0133DBB200232B7010F066
:10AB90004FFF2A788449834810F04AFF834981484F
:10ABA00010F046FF2A788049814810F041FF7F4924
:10ABB0007F4810F03DFF64201AF0B4FD7D4B9A7A77
:10ABC00001925B7A00932B78227875E77A4A1378A2
:10ABD000B3FA83F35B091370764A917A0191527A42
:10ABE00000920A33082267E7744A75491378097896
:10ABF00099420BBF734B01331B78DBB213706D4A64
:10AC0000917A0191527A0092092255E76E4A6F4972
:10AC10001378097899420BBF6D4B01331B78DBB277
:10AC20001370644A917A0191527A00920A2243E7A2
:10AC3000684A6949136803F5C333A0338B4294BF54
:10AC4000136011605B4B9A7A01925B7A00930B223E
:10AC5000FF2331E7614A13780C2B1ABF0133DBB2B3
:10AC600006231370534A917A0191527A00920C2272
:10AC700022E75B4A1378092B1ABF0133DBB20023AA
:10AC800013704C4A917A0191527A00920D2213E787
:10AC9000544A1378032B1ABF0133DBB2002313701D
:10ACA000444A917A0191527A00920E2204E74E4A68
:10ACB0001378162B1ABF0133DBB2052313703D4AFC
:10ACC000917A0191527A00921022F5E6394A53683E
:10ACD00003F51C5310335360937A0193537A009316
:10ACE00006220023E8E6414B00221A70404B002068
:10ACF0000021C3E900013F4B1A78002A00F0988038
:10AD00003D4C2278102A0ED8DFE802F0091F1F1FE1
:10AD10001F1F862D2D2D2D393939390D390000226F
:10AD20001A70FFF759F81D4A1D491E4810F080FEA1
:10AD3000227832491B4810F07BFE1C49194810F05C
:10AD400077FE22782D49FFF710BA1A4B2C48997AD2
:10AD50000022227001915B7A2A4900930978FF232F
:10AD600002F0DAFCDFE7134B2748997A04222270BD
:10AD700001915B7A254900930978FF23F0E70D4B99
:10AD80002348997A0522227001915B7A2149009328
:10AD90000978FF23E4E700BF5CD60020DB2307002F
:10ADA000C81B070070E10020652407003869070010
:10ADB000D4E10020CCA100205BD600205DD600208D
:10ADC0005FD6002061D600205ED6002060D600202D
:10ADD00062D6002068D60020007038396CD600207A
:10ADE00063D6002064D600206DD6002059D60020FE
:10ADF00050D6002058D600205AD60020CA2407007A
:10AE0000E0A20020F4A2002098A20020ACA2002022
:10AE1000C4A20020DCA20020064B0748997A022237
:10AE2000227001915B7A054900930978FF2397E727
:10AE300003B0F0BDCCA10020B0A20020C0A2002031
:10AE4000494B1B7870B5CBB9484A4949494810F07D
:10AE5000EFFD4949474810F0EBFD4849454810F0DF
:10AE6000E7FD4549464810F0E3FD4449444810F0E9
:10AE7000DFFD64201AF056FC02244EE0556E012DD1
:10AE8000FAD116683F4930460DF093FA044600287F
:10AE900045D13A49374810F0CBFD3849354810F0D4
:10AEA000C7FD3649364810F0C3FD3449344810F028
:10AEB000BFFD64201AF036FC2146334810F0E3FA57
:10AEC0002946314810F0DFFA02212F4810F0DBFA52
:10AED00002F0BEFB2D4802F095FA2D4802F05AFB15
:10AEE0002C4802F057FB02F0E9FB03F0A3FD2349D5
:10AEF000204810F09DFD21491E4810F099FD1F4982
:10AF00001F4810F095FD1D491D4810F091FD64206B
:10AF10001AF008FC204810F075FA204670BD1F4951
:10AF200030460DF046FA04460028A5D11C4B0146D8
:10AF300015481D7010F0A7FA2946134810F0A3FA1F
:10AF40000221114810F09FFA02F082FB0F4802F034
:10AF500059FA144802F01EFB0E4802F01BFB02F0E7
:10AF6000ADFB03F075FAD5E70ED5002037250700B5
:10AF7000C81B070070E100203E2507003869070064
:10AF8000D4E10020B988070051E20020EF23070038
:10AF90005225070006240700E8E10020B96E0700EB
:10AFA00058D600206225070070B598B014460A49AB
:10AFB0000EA810F0B7FB0023CDE91433CDE916330A
:10AFC000636E012B0CD1054920680DF0F2F948B1F0
:10AFD000022400F0EDBC00BFCC3A0700B98807009E
:10AFE000002BF5D1B649B748B74CB84DB84E10F064
:10AFF0001FFDB849B34810F01BFDB149B64810F029
:10B0000017FDB449B44810F013FD64201AF08AFB10
:10B01000237AB24955F82320AA4810F009FDAD491A
:10B02000A84810F005FD237AAC4955F82320AA481A
:10B0300010F0FEFCA749A84810F0FAFC64201AF0B2
:10B0400071FBA74911A810F0C7F911A90EA810F0BB
:10B050007CFB11A810F020FB0EA810F0B9FB0E9A93
:10B06000A049984810F0E4FC9A49964810F0E0FC9A
:10B070000E9A9C49984810F0DBFC9649964810F0CF
:10B08000D7FC64201AF04EFB974911A810F084F900
:10B09000119A96498B4810F0CBFC11A810F0FCFADD
:10B0A0008C49884810F0C4FC8F4911A810F074F93D
:10B0B000119A8E49884810F0BBFC11A810F0ECFAE8
:10B0C0008449854810F0B4FC64201AF02BFB4FF43F
:10B0D0007A7562688649B2FBF5F27A4810F0A8FCEE
:10B0E0007C49784810F0A4FC62688149B2FBF5F213
:10B0F000794810F09DFC7749774810F099FC64205E
:10B100001AF010FB7B4810F0ADF87B4956F8202070
:10B1100005466C4810F08CFC6E496A4810F088FCBB
:10B1200056F8252074496C4810F082FC69496A4839
:10B1300010F07EFC64201AF0F5FA012D40F04E83E9
:10B140006E486F4E6F4D10F017F86F49002814BF0E
:10B1500032462A465B4810F06BFC5E49594810F0B5
:10B1600067FC664810F008F86749002814BF3246AB
:10B170002A465948654E10F05BFC5649564810F077
:10B1800057FC64201AF0CEFA614810F02DF861499E
:10B19000054602464B4810F04BFC4E49494810F01A
:10B1A00047FC2A465B494C4810F042FC49494A4852
:10B1B00010F03EFC64201AF0B5FA56F825205649E6
:10B1C000404810F035FC43493E4810F031FC56F839
:10B1D00025205149404810F02BFC3E493E4810F0D4
:10B1E00027FC64201AF09EFA4C480FF0BEFF00289E
:10B1F00000F0BE814A49334810F01AFC3549314805
:10B2000010F016FC4649344810F012FC314932481F
:10B2100010F00EFC64201AF085FA082214A94148A7
:10B220000FF082FF9DF8573005939DF85630049338
:10B230009DF8553003939DF8543002939DF8533098
:10B2400001939DF852309DF85020374900931D48D6
:10B250009DF8513010F0ECFB1E491A4810F0E8FB45
:10B260009DF8573005939DF8563004939DF855305E
:10B2700003939DF8543002939DF8533001939DF849
:10B2800052309DF850202849009313489DF85130C2
:10B2900010F0CEFB0F49104810F0CAFB64201AF0E2
:10B2A00041FA082214A921480FF01AFF9DF85730DF
:10B2B00005939DF8563004939DF8553038E000BF53
:10B2C0008025070070E10020F8A20020C8A300201C
:10B2D000BCA3002038690700D4E100208F250700B7
:10B2E00028E200209D250700ECE10020E156070040
:10B2F000A8250700ADE20020B825070094E2002051
:10B300002D66070072250700C825070088A30020C6
:10B31000AAE20020D3250700DE25070093E20020E3
:10B32000E92507008EE20020F32507008AE20020CD
:10B3300003939DF8543002939DF8533001939DF888
:10B3400052309DF850207D4900937D489DF8513042
:10B3500010F06EFB7B497A4810F06AFB9DF857307D
:10B3600005939DF8563004939DF8553003939DF84E
:10B37000543002939DF8533001939DF852309DF85C
:10B3800050206E49009370489DF8513010F050FBEA
:10B390006C496D4810F04CFB64201AF0C3F9102280
:10B3A00014A96A480FF0A5FE9DF85F300D939DF833
:10B3B0005E300C939DF85D300B939DF85C300A93E2
:10B3C0009DF85B3009939DF85A3008939DF85930E9
:10B3D00007939DF8583006939DF8573005939DF8D4
:10B3E000563004939DF8553003939DF854300293E2
:10B3F0009DF8533001939DF852309DF850205449E8
:10B4000000934F489DF8513010F012FB4D494C48C5
:10B4100010F00EFB9DF85F300D939DF85E300C939D
:10B420009DF85D300B939DF85C300A939DF85B307E
:10B4300009939DF85A3008939DF8593007939DF869
:10B44000583006939DF8573005939DF85630049375
:10B450009DF8553003939DF8543002939DF8533076
:10B4600001939DF8523000939DF850209DF8513083
:10B470003749354810F0DCFA32493348354E364DFD
:10B4800010F0D6FA64201AF04DF934492C4810F027
:10B49000CFFA2C492A4810F0CBFA30492A4810F04C
:10B4A000C7FA2849284810F0C3FA64201AF03AF97C
:10B4B000227A2B49224810F0BBFA2249204810F08A
:10B4C000B7FA227A2649204810F0B2FA1D491E48E0
:10B4D00010F0AEFA64201AF025F9627A2149184872
:10B4E000002A14BF32462A4610F0A2FA1549144821
:10B4F00010F09EFA627A1B491348002A14BF3246A4
:10B500002A4610F095FA0F490F48174E10F090FA9E
:10B5100064201AF007F915481AF01CFC0025B4F84D
:10B520008C20EBB2934205F1010580F23D82234469
:10B530003046D97A1AF00EFCF1E700BF1B2607004F
:10B5400070E1002038690700D4E100208BE2002080
:10B55000432607007D25070013240700A4270700C2
:10B56000B4270700C227070013AA0700D327070044
:10B570009049914810F05CFA90498F4810F058FAC1
:10B580008C498F4810F054FA8C498D4810F050FACD
:10B5900064201AF0C7F814A910228A480FF0B2FDEF
:10B5A0009DF85F300D939DF85E300C939DF85D30F3
:10B5B0000B939DF85C300A939DF85B3009939DF8DE
:10B5C0005A3008939DF8593007939DF858300693E8
:10B5D0009DF8573005939DF8563004939DF85530EB
:10B5E00003939DF8543002939DF8533001939DF8D6
:10B5F00052309DF85020009373499DF851306E48A9
:10B6000010F016FA6D496C4810F012FA9DF85F3090
:10B610000D939DF85E300C939DF85D300B939DF873
:10B620005C300A939DF85B3009939DF85A3008937B
:10B630009DF8593007939DF8583006939DF8573080
:10B6400005939DF8563004939DF8553003939DF86B
:10B65000543002939DF8533001939DF852309DF879
:10B660005020009358499DF85130554810F0E0F9AA
:10B670005249534810F0DCF964201AF053F814A929
:10B68000102252480FF059FD9DF85F300D939DF840
:10B690005E300C939DF85D300B939DF85C300A93FF
:10B6A0009DF85B3009939DF85A3008939DF8593006
:10B6B00007939DF8583006939DF8573005939DF8F1
:10B6C000563004939DF8553003939DF854300293FF
:10B6D0009DF8533001939DF852309DF8502000930F
:10B6E0003B499DF85130344810F0A2F933493248B3
:10B6F00010F09EF99DF85F300D939DF85E300C932D
:10B700009DF85D300B939DF85C300A939DF85B309B
:10B7100009939DF85A3008939DF8593007939DF886
:10B72000583006939DF8573005939DF85630049392
:10B730009DF8553003939DF8543002939DF8533093
:10B7400001939DF852309DF85020009320499DF8B8
:10B7500051301B4810F06CF91849194810F068F97D
:10B76000642019F0DFFF14A904221A480FF0D3FC5B
:10B770009DF8533001939DF852309DF8502000936E
:10B7800015499DF851300C4810F052F90B490A4800
:10B7900010F04EF99DF8533001939DF8523000930C
:10B7A0009DF850209DF851300B49054810F040F9A4
:10B7B00062E600BF8B26070070E1002038690700B1
:10B7C000D4E100208CE200209426070090E20020C3
:10B7D000DD2607008DE20020262707007748002D90
:10B7E00040F09B800FF073FB75490246754810F0DE
:10B7F0001FF97549734810F01BF970480FF067FB8B
:10B800006F490246714810F013F96F496F4810F004
:10B810000FF9642019F086FF6D480FF069FB6D4940
:10B820000246684810F004F96749664810F000F9CC
:10B8300067480FF05DFB67490246644810F0F8F86E
:10B840006149624810F0F4F8642019F06BFF624817
:10B850000FF05FFB614902465A4810F0E9F85A4977
:10B86000584810F0E5F85C480FF053FB5B4902467E
:10B87000564810F0DDF85449544810F0D9F86420C7
:10B8800019F050FF56480FF055FB564902464D48F7
:10B8900010F0CEF84C494B4810F0CAF850480FF061
:10B8A00049FB50490246494810F0C2F8464947480A
:10B8B00010F0BEF8642019F035FF4B480FF04BFB39
:10B8C0004A4902463F4810F0B3F83F493D4810F05E
:10B8D000AFF845480FF03FFB444902463B4810F0A3
:10B8E000A7F83949394810F0A3F8642019F01AFF75
:10B8F0003F480FF032FB3F490246324810F098F8BB
:10B900003149304810F094F839480FF026FB394996
:10B9100002462E4810F08CF8AEE50FF0D8FA284910
:10B920000246284810F084F82749264810F080F88D
:10B9300022480FF0CCFA22490246244810F078F849
:10B940002149224810F074F8642019F0EBFE2A48CF
:10B950000FF037FB294902461A4810F069F81A49D6
:10B96000184810F065F824480FF02BFB23490246D5
:10B97000164810F05DF81449144810F059F8642086
:10B9800019F0D0FE1E480FF01EFB1E4902460D485E
:10B9900010F04EF80C490B4810F04AF818480FF018
:10B9A00012FB18490246B4E707481AF0D3F90024FD
:10B9B0000EA80FF071FE204618B070BDB9E200204D
:10B9C0003F27070070E1002038690700D4E100201C
:10B9D000BAE200204E270700BBE2002056270700EE
:10B9E000BCE200205E270700BDE2002066270700BA
:10B9F000BEE200207B270700C2E200208927070063
:10BA0000C3E200209627070007B503230193054BE7
:10BA10000093054B054A064819460FF0FEFC03B09B
:10BA20005DF804FB55BD0200E4270700EC27070082
:10BA30004EE2002007B503230193054B0093054B0D
:10BA4000054A064819460FF0E8FC03B05DF804FB10
:10BA500005BF02003F280700442807004EE20020EF
:10BA600007B503230193054B0093054B054A064890
:10BA700019460FF0D2FC03B05DF804FB39C1020097
:10BA80008F280700942807004EE2002007B5032303
:10BA90000193054B0093054B054A064819460FF0E4
:10BAA000BCFC03B05DF804FB41AE0200BB280700FC
:10BAB000C02807004EE2002007B502230193054B82
:10BAC0000093054B054A064819460FF0A6FC03B043
:10BAD0005DF804FBA9AF0200D6280700DD280700A7
:10BAE0004EE2002030B5E7B08849894D902201A888
:10BAF0000BF0C4FE8749B1F88C404A6802920A896B
:10BB00008B7AADF80C200B3122460DF10F008DF829
:10BB10000E300BF0B3FE804A80498148ADF890406A
:10BB20000FF086FF9DF804207E497D487E4C0FF083
:10BB30007FFF7E497A480FF07BFF9DF8042079490A
:10BB40007B480FF075FF794979480FF071FF642049
:10BB500019F0E8FD704A714971480FF069FF029AC7
:10BB600074496F480FF064FF70496D480FF060FF33
:10BB7000029A70496E480FF05BFF6C496C480FF0F9
:10BB800057FF642019F0CEFD634A644964480FF002
:10BB90004FFF9DF80C20684961480FF049FF634949
:10BBA0005F480FF045FF9DF80C20634960480FF097
:10BBB0003FFF5E495E480FF03BFF642019F0B2FD85
:10BBC000554A564956480FF033FF9DF80D205B4902
:10BBD0005348002A14BF2A4622460FF029FF534932
:10BBE0004F480FF025FF9DF80D2054495048002A7A
:10BBF00014BF2A4622460FF01BFF4C494C480FF059
:10BC000017FF642019F08EFD434A444944480FF061
:10BC10000FFF9DF80E204A494148002A14BF2A46CA
:10BC200022460FF005FF41493D480FF001FF9DF806
:10BC30000E2043493E48002A14BF2A4622460FF0F0
:10BC4000F7FE3A493A483F4D0FF0F2FE00246420D7
:10BC500019F068FDFE22214626A825940BF01CFE53
:10BC6000BDF89030E0B2984204F1010409DA01AB6A
:10BC700003442946DA7A25AB03EB40000CF06CFB59
:10BC8000EEE7254A254926480FF0D2FE25AA2E497F
:10BC900023480FF0CDFE254921480FF0C9FE25AA03
:10BCA000294923480FF0C4FE204921480FF0C0FE67
:10BCB000642019F037FD184A184919480FF0B8FEEA
:10BCC000BDF89020214916480FF0B2FE17491448DC
:10BCD0000FF0AEFEBDF890201C4915480FF0A8FEED
:10BCE000124913480FF0A4FE642019F01BFD1848F8
:10BCF000902301AA00210FF0A8FB28B90146902348
:10BD0000134801AA0FF0A1FB67B030BD342C070027
:10BD10007D250700F8A2002037250700C81B070073
:10BD200070E10020F8280700F428070038690700B0
:10BD3000D4E100200B290700292907003F2907002B
:10BD40005829070013AA0700722907008B2907004A
:10BD50004FE20020F8B5536E012B0E46154664D114
:10BD60005B4910680CF025FB0446F8B9594F5A4955
:10BD70007B685A4832464FF47A75B3FBF5F30FF0FF
:10BD800057FE574955480FF053FE7B685249B3FBA5
:10BD9000F5F3324653480FF04BFE514951480FF02E
:10BDA00047FE642019F0BEFC2046F8BD4E4A4F49BC
:10BDB0004A480FF03DFE2A684D4948480FF038FECA
:10BDC000474946480FF034FE2A68494945480FF074
:10BDD0002FFE434943480FF02BFE642019F0A2FCCC
:10BDE0002D6828460CF0F7FA0024844221D02B5D00
:10BDF000303B092B1BD93C4A3C4938480FF018FE10
:10BE000022463C4935480FF013FE354933480FF0C0
:10BE10000FFE3849334822460FF00AFE30493148B8
:10BE20000FF006FE642019F07DFC0224BCE701340B
:10BE3000DBE70A22002128460CF03AFC2A4A2B496B
:10BE4000244D044625480FF0F3FD22462A49234895
:10BE50000FF0EEFD224921480FF0EAFD2246264967
:10BE600020480FF0E5FD1E491E480FF0E1FD64205B
:10BE700019F058FC4FF47A701B4A1C494443174888
:10BE80006C600FF0D5FD6A681C4914480FF0D0FDB6
:10BE9000134912480FF0CCFD6A68184911480FF099
:10BEA000C7FD0F490F480FF0C3FD642019F03AFC9D
:10BEB000134800210FF0E7FA6A6822B10023104806
:10BEC00019460FF0D6FAFFF70DFE00246CE700BF0D
:10BED000B9880700F8A20020A829070070E1002017
:10BEE00038690700D4E1002037250700C81B070088
:10BEF000AF290700C4290700D3290700EA29070052
:10BF000051E20020536E012B70B50E46154601D04C
:10BF100002241DE0794910680CF04BFA0446C8B9B8
:10BF2000774D78492B7A784832460FF081FD774972
:10BF300075480FF07DFD2B7A7249754832460FF037
:10BF400077FD724972480FF073FD642019F0EAFB27
:10BF5000204670BD6F4A70496B480FF069FD2A6832
:10BF60006E4969480FF064FD684967480FF060FD4D
:10BF70002A686A4966480FF05BFD644964480FF01F
:10BF800057FD642019F0CEFB2D6828460CF023FAEB
:10BF90000024844220D02B5D303B092B1AD95D4A06
:10BFA0005D4959480FF044FD22465D4956480FF05F
:10BFB0003FFD564954480FF03BFD2246584954482E
:10BFC0000FF036FD514952480FF032FD642019F050
:10BFD000A9FB9DE70134DCE70A22002128460CF08A
:10BFE00067FB474E4B4A4C49347A054646480FF0AA
:10BFF0001FFD2A464B4944480FF01AFD4349424869
:10C000000FF016FD2A46474941480FF011FD3F4900
:10C010003F480FF00DFD642019F084FB022D3FF620
:10C0200077AFA54201D1002492E71CB9012D04D0BD
:10C0300001241BE0012CFBD1C5B9364A36493248F0
:10C040000FF0F6FC384930480FF0F2FC2F492E482B
:10C050000FF0EEFC34492E480FF0EAFC2B492C4837
:10C060000FF0E6FC642019F05DFB0024294A2A4900
:10C07000254835720FF0DCFC327A2C4922480FF04B
:10C08000D7FC224920480FF0D3FC327A27492048B8
:10C090000FF0CEFC1D491E480FF0CAFC642019F0B9
:10C0A00041FBFFF71FFD337A012B21D0022B22D059
:10C0B0000BB9FCF757FD002CB5D01D4912480FF005
:10C0C000B7FC124910480FF0B3FC194910480FF0A3
:10C0D000AFFC0E490E480FF0ABFC642019F022FBB8
:10C0E00041F2883019F01EFB12480FF08BF99AE7E5
:10C0F000FCF7B8FDDFE7FCF71BFEDCE7B9880700BB
:10C10000F8A20020FB29070070E100203869070031
:10C11000D4E1002037250700C81B0700AF2907001E
:10C12000C4290700012A0700142A07002E2A070045
:10C13000402A0700E8E10020536E012B2DE9F04171
:10C140000E46154678D1D2F800803F493F4F404611
:10C150000CF02FF9044688BBB7F88C30BBB93246D7
:10C160003B493C480FF064FC3B493A480FF060FC07
:10C1700037493A4832460FF05BFC374937480FF0F1
:10C1800057FC642019F0CEFA2046BDE8F081314614
:10C190003348344E19F0DEFD2546B7F88C20EBB25B
:10C1A000934205F1010505DA3B443046D97A19F08E
:10C1B000D1FDF2E7284819F0CDFDE5E740460CF047
:10C1C0000AF9294A2949064622480FF031FC2A6813
:10C1D000274920480FF02CFC1F491E480FF028FC6F
:10C1E0002A6823491D480FF023FC1B491B480FF008
:10C1F0001FFC642019F096FA286807F10B023146FB
:10C2000014F0C2F80446C8B1174A184911480FF093
:10C210000FFC18490F480FF00BFC0F490D480FF0A9
:10C2200007FC14490D480FF003FC0B490B480FF0B5
:10C23000FFFB642019F076FA0224A5E77608A7F838
:10C240008C60FFF74FFC9FE7B9880700F8A2002039
:10C250005D2A070070E1002038690700D4E1002062
:10C26000692A070013AA070037250700C81B070023
:10C27000AF2907006D2A0700F0B5E7B044499022C6
:10C2800001A80BF0FBFA01AA0021424890230FF00D
:10C29000D2F80546404A41494148ADB90FF0C8FBC4
:10C2A00040493F480FF0C4FB3F493D480FF0C0FBF9
:10C2B0003C493E480FF0BCFB3B493C480FF0B8FB03
:10C2C000642019F02FFA5FE00FF0B2FB9DF8042014
:10C2D00037493348374C0FF0ABFB334930480FF048
:10C2E000A7FB9DF80420324930480FF0A1FB2E49EE
:10C2F0002E480FF09DFB642019F014FA264A2749B6
:10C3000027480FF095FB029A2B4925480FF090FB28
:10C31000254923480FF08CFB029A274923480FF048
:10C3200087FB214921480FF083FB642019F0FAF9BB
:10C330009DF80430AA2B43D0174A184918480FF02B
:10C3400077FB029A1D4916480FF072FB16491448F4
:10C350000FF06EFB029A194914480FF069FB12495D
:10C3600012480FF065FB642019F0DCF900254FF04E
:10C370008073C4E9015340F20233A3810423A37301
:10C38000A4F88C30FFF7AEFB284667B0F0BD00BFC5
:10C39000342C07004FE2002037250700C81B070098
:10C3A00070E10020862A070038690700D4E10020E8
:10C3B000AE2A0700F8A20020BD2A0700D52A0700F0
:10C3C000029B63609DF80C30022B40F2DD808B4AAB
:10C3D0008B498C480FF02CFB9DF80C208A4989482A
:10C3E0000FF026FB894987480FF022FB9DF80C20AF
:10C3F000854987480FF01CFB844985480FF018FBDE
:10C40000642019F08FF900232372FFF76BFBBDF84E
:10C4100090209DF80D306372802A9DF80E30A37233
:10C4200040F2B480754A764976480FF001FBBDF8BA
:10C430009020784973480FF0FBFA744971480FF067
:10C44000F7FABDF89020734971480FF0F1FA6F497F
:10C450006F480FF0EDFA642019F064F90023E372DD
:10C46000A4F88C30654A664966486B4F6B4E0FF0F6
:10C47000DFFA62686A4963480FF0DAFA6349614893
:10C480000FF0D6FA6268664961480FF0D1FA5F4949
:10C490005F480FF0CDFA642019F044F9574A584923
:10C4A00058480FF0C5FA227A5E4956480FF0C0FA94
:10C4B000564954480FF0BCFA227A5A4954480FF0B2
:10C4C000B7FA524952480FF0B3FA642019F02AF92A
:10C4D0004A4A4B494B480FF0ABFA627A52494948F5
:10C4E000002A14BF3A4632460FF0A2FA474945489F
:10C4F0000FF09EFA627A4C494548002A14BF3A462A
:10C5000032460FF095FA414941480FF091FA642004
:10C5100019F008F9394A3A493A480FF089FAA27AEB
:10C5200042493848002A14BF3A4632460FF080FA92
:10C53000364934480FF07CFAA27A3C493448002A44
:10C5400014BF3A4632460FF073FA30493048384F3C
:10C550000FF06EFA0026642019F0E4F8FE2231464E
:10C5600026A825960BF098F9B4F88C30F0B29842D2
:10C5700006F1010612DA23183946DA7A25AB03EB05
:10C5800040000BF0E9FEEFE7237240E70DF10F01E9
:10C590002848A4F88C200BF071F963E7174A184972
:10C5A00018480FF045FA25AA234916480FF040FA1B
:10C5B000164914480FF03CFA25AA1F4914480FF0F9
:10C5C00037FA124912480FF033FA642019F0AAF82A
:10C5D0000A4A0B490B480FF02BFAB4F88C20174984
:10C5E00008480FF025FA094906480FF021FAB4F877
:10C5F0008C20124906480FF01BFA5DE6372507002C
:10C60000C81B070070E100200A2B070038690700EB
:10C61000D4E10020252B07007D250700F428070022
:10C62000412B0700592B07006C2B0700822B0700BA
:10C6300013AA070003A30020992B0700AA2B0700C9
:10C6400010B5074B53F82020002332F813408C42DA
:10C65000D8B203D80133102BF7D1184610BD00BF54
:10C6600054A400202DE9F34101219F4E07462220CA
:10C670000FF09BFA4FF4FA7019F054F83578002D4A
:10C6800040F0AD8099499A48009540F24C434222CF
:10C6900007F066FF0446C0B9964A974997480FF0DD
:10C6A000C7F9974995480FF0C3F9964993480FF099
:10C6B000BFF9934994480FF0BBF9924992480FF0A3
:10C6C000B7F9642019F02EF874E08A4A8A498B4839
:10C6D0004FF0020886F800800FF0AAF98B498748CE
:10C6E0008B4E0FF0A5F9874984480FF0A1F98749CF
:10C6F00085480FF09DF9834983480FF099F964202C
:10C7000019F010F87A4840F24C42012107F042FD3E
:10C71000002F59D040F24C432A460121744807F0BB
:10C72000B1FD40F24C4342460121714807F0AAFD99
:10C7300040F24C43062201216D4807F0A3FD01227F
:10C74000114640F24C436A4807F09CFD40F24C43CE
:10C7500003220121664807F095FD40F24C43042274
:10C760000121634807F08EFD40F24C4305226048EA
:10C77000012107F087FDB37A40F24C42F3B1052165
:10C780005B4807F04EFF5A4840F24C432A460121CD
:10C7900007F04EFE564840F24C4107F001FD337A57
:10C7A000022B03D1B37A002B40F09B800021222082
:10C7B0000FF0FBF9204602B0BDE8F0814FF4FA71AA
:10C7C0004B4807F06FFFE5E740F24C424FF0FF3176
:10C7D000474807F005FDFA2018F0A4FFDFE7002521
:10C7E000424943480095422240F24C4307F0B8FECC
:10C7F0000446404A404941485CB90FF019F945499F
:10C800003E480FF015F93F493C480FF011F94149F6
:10C8100050E70FF00DF9404938480FF009F9394950
:10C8200036480FF005F93C4937480FF001F9354912
:10C8300035480FF0FDF8642018F074FF40F24C42C8
:10C8400001212B4807F0A6FC40F24C432A46012167
:10C85000274807F017FD40F24C43022201212448EB
:10C8600007F010FD40F24C4306220121204807F05A
:10C8700009FD0122114640F24C431D4807F002FD1C
:10C8800040F24C4303220121194807F0FBFC40F21F
:10C890004C4304220121164807F0F4FC40F24C43BB
:10C8A00005221348012107F0EDFC194B9B7A40F259
:10C8B0004C4283B105210E4807F0B3FE0C4840F20C
:10C8C0004C432A46012107F0B3FD40F24C41084891
:10C8D00007F066FC6EE74FF4FA71054807F0E2FED8
:10C8E000F3E71C4666E700BF7CD60020CCE20020C0
:10C8F000ACD60020D71B0700C81B070070E1002042
:10C90000C42C070038690700D4E10020E02C0700A0
:10C91000F8A20020F32C0700082D070000000000FB
:10C920002DE9F04FA84EA94DDFF8FCA2A84FA94C65
:10C93000DFF8F8B28BB0002200230021C6E9002303
:10C94000C5E9002303A800231C2223608AF80010F5
:10C9500039608BF8001002910AF09EFF9E4902A8F0
:10C960000BF031FD9D4B9E489B7A40F24C41002BD1
:10C9700000F05E8107F05FFFC117C6E9000140F2D9
:10C980004C41974807F03CFFC117C5E9000140F250
:10C990004C41934807F06AFF40F24C4138609048A0
:10C9A00007F0BFFE07EE900AF8EE677A40F24C41BE
:10C9B0008B48C4ED007A07F008FF40F24C418BF839
:10C9C0000000874807F0C5FE012840F0E88085494F
:10C9D00002A80BF0F8FC844A844985480FF028F837
:10C9E0009BF800208349824802AB0FF021F882496E
:10C9F0007F480FF01DF802AB9BF800207D497F486F
:10CA00000FF016F87C497D480FF012F8642018F0FA
:10CA100089FE754A754976480FF00AF8D6E9000193
:10CA200044F0BCFB66A3D3E9002344F00FFD80462D
:10CA30008946D5E9000144F0B1FB61A3D3E90023A5
:10CA400044F004FD42464B46CDE900016C4968487C
:10CA50000EF0EEFF684966480EF0EAFFD6E90001E5
:10CA600044F09CFB56A3D3E9002344F0EFFC80463E
:10CA70008946D5E9000144F091FB51A3D3E9002395
:10CA800044F0E4FC4B464246CDE900015C495B487A
:10CA90000EF0CEFF584959480EF0CAFF642018F036
:10CAA00041FE514A514952480EF0C2FF386844F0E5
:10CAB00039FB544B002244F0C9FC02460B464C485B
:10CAC00051490EF0B5FF4C4949480EF0B1FF3868A6
:10CAD00044F028FB4B4B002244F0B8FC0B460246C6
